{
  "_format": "hh-sol-artifact-1",
  "contractName": "NFT",
  "sourceName": "contracts/NFT.sol",
  "abi": [
    {
      "inputs": [
        {
          "internalType": "address",
          "name": "marketplace",
          "type": "address"
        }
      ],
      "stateMutability": "nonpayable",
      "type": "constructor"
    },
    {
      "anonymous": false,
      "inputs": [
        {
          "indexed": true,
          "internalType": "address",
          "name": "owner",
          "type": "address"
        },
        {
          "indexed": true,
          "internalType": "address",
          "name": "approved",
          "type": "address"
        },
        {
          "indexed": true,
          "internalType": "uint256",
          "name": "tokenId",
          "type": "uint256"
        }
      ],
      "name": "Approval",
      "type": "event"
    },
    {
      "anonymous": false,
      "inputs": [
        {
          "indexed": true,
          "internalType": "address",
          "name": "owner",
          "type": "address"
        },
        {
          "indexed": true,
          "internalType": "address",
          "name": "operator",
          "type": "address"
        },
        {
          "indexed": false,
          "internalType": "bool",
          "name": "approved",
          "type": "bool"
        }
      ],
      "name": "ApprovalForAll",
      "type": "event"
    },
    {
      "anonymous": false,
      "inputs": [
        {
          "indexed": true,
          "internalType": "address",
          "name": "from",
          "type": "address"
        },
        {
          "indexed": true,
          "internalType": "address",
          "name": "to",
          "type": "address"
        },
        {
          "indexed": true,
          "internalType": "uint256",
          "name": "tokenId",
          "type": "uint256"
        }
      ],
      "name": "Transfer",
      "type": "event"
    },
    {
      "inputs": [
        {
          "internalType": "address",
          "name": "to",
          "type": "address"
        },
        {
          "internalType": "uint256",
          "name": "tokenId",
          "type": "uint256"
        }
      ],
      "name": "approve",
      "outputs": [],
      "stateMutability": "nonpayable",
      "type": "function"
    },
    {
      "inputs": [
        {
          "internalType": "address",
          "name": "owner",
          "type": "address"
        }
      ],
      "name": "balanceOf",
      "outputs": [
        {
          "internalType": "uint256",
          "name": "",
          "type": "uint256"
        }
      ],
      "stateMutability": "view",
      "type": "function"
    },
    {
      "inputs": [
        {
          "internalType": "uint256",
          "name": "tokenId",
          "type": "uint256"
        }
      ],
      "name": "burn",
      "outputs": [],
      "stateMutability": "nonpayable",
      "type": "function"
    },
    {
      "inputs": [
        {
          "internalType": "string",
          "name": "uri",
          "type": "string"
        }
      ],
      "name": "createToken",
      "outputs": [
        {
          "internalType": "uint256",
          "name": "",
          "type": "uint256"
        }
      ],
      "stateMutability": "nonpayable",
      "type": "function"
    },
    {
      "inputs": [
        {
          "internalType": "uint256",
          "name": "tokenId",
          "type": "uint256"
        }
      ],
      "name": "getApproved",
      "outputs": [
        {
          "internalType": "address",
          "name": "",
          "type": "address"
        }
      ],
      "stateMutability": "view",
      "type": "function"
    },
    {
      "inputs": [
        {
          "internalType": "uint256[]",
          "name": "array",
          "type": "uint256[]"
        }
      ],
      "name": "getMax",
      "outputs": [
        {
          "internalType": "uint256",
          "name": "",
          "type": "uint256"
        }
      ],
      "stateMutability": "pure",
      "type": "function"
    },
    {
      "inputs": [
        {
          "internalType": "address",
          "name": "owner",
          "type": "address"
        },
        {
          "internalType": "address",
          "name": "operator",
          "type": "address"
        }
      ],
      "name": "isApprovedForAll",
      "outputs": [
        {
          "internalType": "bool",
          "name": "",
          "type": "bool"
        }
      ],
      "stateMutability": "view",
      "type": "function"
    },
    {
      "inputs": [],
      "name": "name",
      "outputs": [
        {
          "internalType": "string",
          "name": "",
          "type": "string"
        }
      ],
      "stateMutability": "view",
      "type": "function"
    },
    {
      "inputs": [
        {
          "internalType": "uint256",
          "name": "tokenId",
          "type": "uint256"
        }
      ],
      "name": "ownerOf",
      "outputs": [
        {
          "internalType": "address",
          "name": "",
          "type": "address"
        }
      ],
      "stateMutability": "view",
      "type": "function"
    },
    {
      "inputs": [
        {
          "internalType": "address",
          "name": "from",
          "type": "address"
        },
        {
          "internalType": "address",
          "name": "to",
          "type": "address"
        },
        {
          "internalType": "uint256",
          "name": "tokenId",
          "type": "uint256"
        }
      ],
      "name": "safeTransferFrom",
      "outputs": [],
      "stateMutability": "nonpayable",
      "type": "function"
    },
    {
      "inputs": [
        {
          "internalType": "address",
          "name": "from",
          "type": "address"
        },
        {
          "internalType": "address",
          "name": "to",
          "type": "address"
        },
        {
          "internalType": "uint256",
          "name": "tokenId",
          "type": "uint256"
        },
        {
          "internalType": "bytes",
          "name": "_data",
          "type": "bytes"
        }
      ],
      "name": "safeTransferFrom",
      "outputs": [],
      "stateMutability": "nonpayable",
      "type": "function"
    },
    {
      "inputs": [
        {
          "internalType": "address",
          "name": "operator",
          "type": "address"
        },
        {
          "internalType": "bool",
          "name": "approved",
          "type": "bool"
        }
      ],
      "name": "setApprovalForAll",
      "outputs": [],
      "stateMutability": "nonpayable",
      "type": "function"
    },
    {
      "inputs": [
        {
          "internalType": "bytes4",
          "name": "interfaceId",
          "type": "bytes4"
        }
      ],
      "name": "supportsInterface",
      "outputs": [
        {
          "internalType": "bool",
          "name": "",
          "type": "bool"
        }
      ],
      "stateMutability": "view",
      "type": "function"
    },
    {
      "inputs": [],
      "name": "symbol",
      "outputs": [
        {
          "internalType": "string",
          "name": "",
          "type": "string"
        }
      ],
      "stateMutability": "view",
      "type": "function"
    },
    {
      "inputs": [
        {
          "internalType": "uint256",
          "name": "tokenId",
          "type": "uint256"
        }
      ],
      "name": "tokenURI",
      "outputs": [
        {
          "internalType": "string",
          "name": "",
          "type": "string"
        }
      ],
      "stateMutability": "view",
      "type": "function"
    },
    {
      "inputs": [
        {
          "internalType": "address",
          "name": "from",
          "type": "address"
        },
        {
          "internalType": "address",
          "name": "to",
          "type": "address"
        },
        {
          "internalType": "uint256",
          "name": "tokenId",
          "type": "uint256"
        }
      ],
      "name": "transferFrom",
      "outputs": [],
      "stateMutability": "nonpayable",
      "type": "function"
    }
  ],
  "bytecode": "0x60806040523480156200001157600080fd5b50604051620032a7380380620032a78339818101604052810190620000379190620001e6565b6040518060400160405280600e81526020017f4c6562616c6c6f20546f6b656e730000000000000000000000000000000000008152506040518060400160405280600481526020017f6c656273000000000000000000000000000000000000000000000000000000008152508160009080519060200190620000bb9291906200011f565b508060019080519060200190620000d49291906200011f565b50505080600860006101000a81548173ffffffffffffffffffffffffffffffffffffffff021916908373ffffffffffffffffffffffffffffffffffffffff16021790555050620002c5565b8280546200012d9062000246565b90600052602060002090601f0160209004810192826200015157600085556200019d565b82601f106200016c57805160ff19168380011785556200019d565b828001600101855582156200019d579182015b828111156200019c5782518255916020019190600101906200017f565b5b509050620001ac9190620001b0565b5090565b5b80821115620001cb576000816000905550600101620001b1565b5090565b600081519050620001e081620002ab565b92915050565b600060208284031215620001f957600080fd5b60006200020984828501620001cf565b91505092915050565b60006200021f8262000226565b9050919050565b600073ffffffffffffffffffffffffffffffffffffffff82169050919050565b600060028204905060018216806200025f57607f821691505b602082108114156200027657620002756200027c565b5b50919050565b7f4e487b7100000000000000000000000000000000000000000000000000000000600052602260045260246000fd5b620002b68162000212565b8114620002c257600080fd5b50565b612fd280620002d56000396000f3fe608060405234801561001057600080fd5b50600436106101005760003560e01c80636352211e11610097578063b88d4fde11610066578063b88d4fde146102bd578063c87b56dd146102d9578063ca1314af14610309578063e985e9c51461033957610100565b80636352211e1461022357806370a082311461025357806395d89b4114610283578063a22cb465146102a157610100565b806323b872dd116100d357806323b872dd1461019f57806342842e0e146101bb57806342966c68146101d757806345576f94146101f357610100565b806301ffc9a71461010557806306fdde0314610135578063081812fc14610153578063095ea7b314610183575b600080fd5b61011f600480360381019061011a9190612012565b610369565b60405161012c9190612459565b60405180910390f35b61013d61044b565b60405161014a9190612474565b60405180910390f35b61016d600480360381019061016891906120a5565b6104dd565b60405161017a91906123f2565b60405180910390f35b61019d60048036038101906101989190611f95565b610562565b005b6101b960048036038101906101b49190611e8f565b61067a565b005b6101d560048036038101906101d09190611e8f565b6106d3565b005b6101f160048036038101906101ec91906120a5565b6106f3565b005b61020d60048036038101906102089190612064565b610748565b60405161021a9190612696565b60405180910390f35b61023d600480360381019061023891906120a5565b6107ac565b60405161024a91906123f2565b60405180910390f35b61026d60048036038101906102689190611e2a565b61085e565b60405161027a9190612696565b60405180910390f35b61028b610916565b6040516102989190612474565b60405180910390f35b6102bb60048036038101906102b69190611f59565b6109a8565b005b6102d760048036038101906102d29190611ede565b6109be565b005b6102f360048036038101906102ee91906120a5565b610a20565b6040516103009190612474565b60405180910390f35b610323600480360381019061031e9190611fd1565b610b72565b6040516103309190612696565b60405180910390f35b610353600480360381019061034e9190611e53565b610c2e565b6040516103609190612459565b60405180910390f35b60007f80ac58cd000000000000000000000000000000000000000000000000000000007bffffffffffffffffffffffffffffffffffffffffffffffffffffffff1916827bffffffffffffffffffffffffffffffffffffffffffffffffffffffff1916148061043457507f5b5e139f000000000000000000000000000000000000000000000000000000007bffffffffffffffffffffffffffffffffffffffffffffffffffffffff1916827bffffffffffffffffffffffffffffffffffffffffffffffffffffffff1916145b80610444575061044382610cc2565b5b9050919050565b60606000805461045a90612918565b80601f016020809104026020016040519081016040528092919081815260200182805461048690612918565b80156104d35780601f106104a8576101008083540402835291602001916104d3565b820191906000526020600020905b8154815290600101906020018083116104b657829003601f168201915b5050505050905090565b60006104e882610d2c565b610527576040517f08c379a000000000000000000000000000000000000000000000000000000000815260040161051e90612616565b60405180910390fd5b6004600083815260200190815260200160002060009054906101000a900473ffffffffffffffffffffffffffffffffffffffff169050919050565b600061056d826107ac565b90508073ffffffffffffffffffffffffffffffffffffffff168373ffffffffffffffffffffffffffffffffffffffff1614156105de576040517f08c379a00000000000000000000000000000000000000000000000000000000081526004016105d590612656565b60405180910390fd5b8073ffffffffffffffffffffffffffffffffffffffff166105fd610d98565b73ffffffffffffffffffffffffffffffffffffffff16148061062c575061062b81610626610d98565b610c2e565b5b61066b576040517f08c379a000000000000000000000000000000000000000000000000000000000815260040161066290612556565b60405180910390fd5b6106758383610da0565b505050565b6106848382610e59565b6106c3576040517f08c379a00000000000000000000000000000000000000000000000000000000081526004016106ba90612676565b60405180910390fd5b6106ce838383610f37565b505050565b6106ee838383604051806020016040528060008152506109be565b505050565b6106fd3382610e59565b61073c576040517f08c379a000000000000000000000000000000000000000000000000000000000815260040161073390612676565b60405180910390fd5b6107458161119e565b50565b600061075460076111f1565b60006107606007611207565b905061076c3382611215565b61077681846113ef565b6107a3600860009054906101000a900473ffffffffffffffffffffffffffffffffffffffff1660016109a8565b80915050919050565b6000806002600084815260200190815260200160002060009054906101000a900473ffffffffffffffffffffffffffffffffffffffff169050600073ffffffffffffffffffffffffffffffffffffffff168173ffffffffffffffffffffffffffffffffffffffff161415610855576040517f08c379a000000000000000000000000000000000000000000000000000000000815260040161084c90612596565b60405180910390fd5b80915050919050565b60008073ffffffffffffffffffffffffffffffffffffffff168273ffffffffffffffffffffffffffffffffffffffff1614156108cf576040517f08c379a00000000000000000000000000000000000000000000000000000000081526004016108c690612576565b60405180910390fd5b600360008373ffffffffffffffffffffffffffffffffffffffff1673ffffffffffffffffffffffffffffffffffffffff168152602001908152602001600020549050919050565b60606001805461092590612918565b80601f016020809104026020016040519081016040528092919081815260200182805461095190612918565b801561099e5780601f106109735761010080835404028352916020019161099e565b820191906000526020600020905b81548152906001019060200180831161098157829003601f168201915b5050505050905090565b6109ba6109b3610d98565b8383611463565b5050565b6109cf6109c9610d98565b83610e59565b610a0e576040517f08c379a0000000000000000000000000000000000000000000000000000000008152600401610a0590612676565b60405180910390fd5b610a1a848484846115d0565b50505050565b6060610a2b82610d2c565b610a6a576040517f08c379a0000000000000000000000000000000000000000000000000000000008152600401610a61906125f6565b60405180910390fd5b6000600660008481526020019081526020016000208054610a8a90612918565b80601f0160208091040260200160405190810160405280929190818152602001828054610ab690612918565b8015610b035780601f10610ad857610100808354040283529160200191610b03565b820191906000526020600020905b815481529060010190602001808311610ae657829003601f168201915b505050505090506000610b1461162c565b9050600081511415610b2a578192505050610b6d565b600082511115610b5f578082604051602001610b479291906123ce565b60405160208183030381529060405292505050610b6d565b610b6884611643565b925050505b919050565b6000806000905060005b8351811015610c245781848281518110610bbf577f4e487b7100000000000000000000000000000000000000000000000000000000600052603260045260246000fd5b60200260200101511115610c1157838181518110610c06577f4e487b7100000000000000000000000000000000000000000000000000000000600052603260045260246000fd5b602002602001015191505b8080610c1c9061297b565b915050610b7c565b8192505050919050565b6000600560008473ffffffffffffffffffffffffffffffffffffffff1673ffffffffffffffffffffffffffffffffffffffff16815260200190815260200160002060008373ffffffffffffffffffffffffffffffffffffffff1673ffffffffffffffffffffffffffffffffffffffff16815260200190815260200160002060009054906101000a900460ff16905092915050565b60007f01ffc9a7000000000000000000000000000000000000000000000000000000007bffffffffffffffffffffffffffffffffffffffffffffffffffffffff1916827bffffffffffffffffffffffffffffffffffffffffffffffffffffffff1916149050919050565b60008073ffffffffffffffffffffffffffffffffffffffff166002600084815260200190815260200160002060009054906101000a900473ffffffffffffffffffffffffffffffffffffffff1673ffffffffffffffffffffffffffffffffffffffff1614159050919050565b600033905090565b816004600083815260200190815260200160002060006101000a81548173ffffffffffffffffffffffffffffffffffffffff021916908373ffffffffffffffffffffffffffffffffffffffff160217905550808273ffffffffffffffffffffffffffffffffffffffff16610e13836107ac565b73ffffffffffffffffffffffffffffffffffffffff167f8c5be1e5ebec7d5bd14f71427d1e84f3dd0314c0f7b2291e5b200ac8c7c3b92560405160405180910390a45050565b6000610e6482610d2c565b610ea3576040517f08c379a0000000000000000000000000000000000000000000000000000000008152600401610e9a90612536565b60405180910390fd5b6000610eae836107ac565b90508073ffffffffffffffffffffffffffffffffffffffff168473ffffffffffffffffffffffffffffffffffffffff161480610f1d57508373ffffffffffffffffffffffffffffffffffffffff16610f05846104dd565b73ffffffffffffffffffffffffffffffffffffffff16145b80610f2e5750610f2d8185610c2e565b5b91505092915050565b8273ffffffffffffffffffffffffffffffffffffffff16610f57826107ac565b73ffffffffffffffffffffffffffffffffffffffff1614610fad576040517f08c379a0000000000000000000000000000000000000000000000000000000008152600401610fa4906124b6565b60405180910390fd5b600073ffffffffffffffffffffffffffffffffffffffff168273ffffffffffffffffffffffffffffffffffffffff16141561101d576040517f08c379a0000000000000000000000000000000000000000000000000000000008152600401611014906124f6565b60405180910390fd5b6110288383836116ea565b611033600082610da0565b6001600360008573ffffffffffffffffffffffffffffffffffffffff1673ffffffffffffffffffffffffffffffffffffffff1681526020019081526020016000206000828254611083919061282e565b925050819055506001600360008473ffffffffffffffffffffffffffffffffffffffff1673ffffffffffffffffffffffffffffffffffffffff16815260200190815260200160002060008282546110da91906127a7565b92505081905550816002600083815260200190815260200160002060006101000a81548173ffffffffffffffffffffffffffffffffffffffff021916908373ffffffffffffffffffffffffffffffffffffffff160217905550808273ffffffffffffffffffffffffffffffffffffffff168473ffffffffffffffffffffffffffffffffffffffff167fddf252ad1be2c89b69c2b068fc378daa952ba7f163c4a11628f55a4df523b3ef60405160405180910390a46111998383836116ef565b505050565b6111a7816116f4565b60006006600083815260200190815260200160002080546111c790612918565b9050146111ee576006600082815260200190815260200160002060006111ed9190611b78565b5b50565b6001816000016000828254019250508190555050565b600081600001549050919050565b600073ffffffffffffffffffffffffffffffffffffffff168273ffffffffffffffffffffffffffffffffffffffff161415611285576040517f08c379a000000000000000000000000000000000000000000000000000000000815260040161127c906125d6565b60405180910390fd5b61128e81610d2c565b156112ce576040517f08c379a00000000000000000000000000000000000000000000000000000000081526004016112c5906124d6565b60405180910390fd5b6112da600083836116ea565b6001600360008473ffffffffffffffffffffffffffffffffffffffff1673ffffffffffffffffffffffffffffffffffffffff168152602001908152602001600020600082825461132a91906127a7565b92505081905550816002600083815260200190815260200160002060006101000a81548173ffffffffffffffffffffffffffffffffffffffff021916908373ffffffffffffffffffffffffffffffffffffffff160217905550808273ffffffffffffffffffffffffffffffffffffffff16600073ffffffffffffffffffffffffffffffffffffffff167fddf252ad1be2c89b69c2b068fc378daa952ba7f163c4a11628f55a4df523b3ef60405160405180910390a46113eb600083836116ef565b5050565b6113f882610d2c565b611437576040517f08c379a000000000000000000000000000000000000000000000000000000000815260040161142e906125b6565b60405180910390fd5b8060066000848152602001908152602001600020908051906020019061145e929190611bb8565b505050565b8173ffffffffffffffffffffffffffffffffffffffff168373ffffffffffffffffffffffffffffffffffffffff1614156114d2576040517f08c379a00000000000000000000000000000000000000000000000000000000081526004016114c990612516565b60405180910390fd5b80600560008573ffffffffffffffffffffffffffffffffffffffff1673ffffffffffffffffffffffffffffffffffffffff16815260200190815260200160002060008473ffffffffffffffffffffffffffffffffffffffff1673ffffffffffffffffffffffffffffffffffffffff16815260200190815260200160002060006101000a81548160ff0219169083151502179055508173ffffffffffffffffffffffffffffffffffffffff168373ffffffffffffffffffffffffffffffffffffffff167f17307eab39ab6107e8899845ad3d59bd9653f200f220920489ca2b5937696c31836040516115c39190612459565b60405180910390a3505050565b6115db848484610f37565b6115e784848484611811565b611626576040517f08c379a000000000000000000000000000000000000000000000000000000000815260040161161d90612496565b60405180910390fd5b50505050565b606060405180602001604052806000815250905090565b606061164e82610d2c565b61168d576040517f08c379a000000000000000000000000000000000000000000000000000000000815260040161168490612636565b60405180910390fd5b600061169761162c565b905060008151116116b757604051806020016040528060008152506116e2565b806116c1846119a8565b6040516020016116d29291906123ce565b6040516020818303038152906040525b915050919050565b505050565b505050565b60006116ff826107ac565b905061170d816000846116ea565b611718600083610da0565b6001600360008373ffffffffffffffffffffffffffffffffffffffff1673ffffffffffffffffffffffffffffffffffffffff1681526020019081526020016000206000828254611768919061282e565b925050819055506002600083815260200190815260200160002060006101000a81549073ffffffffffffffffffffffffffffffffffffffff021916905581600073ffffffffffffffffffffffffffffffffffffffff168273ffffffffffffffffffffffffffffffffffffffff167fddf252ad1be2c89b69c2b068fc378daa952ba7f163c4a11628f55a4df523b3ef60405160405180910390a461180d816000846116ef565b5050565b60006118328473ffffffffffffffffffffffffffffffffffffffff16611b55565b1561199b578373ffffffffffffffffffffffffffffffffffffffff1663150b7a0261185b610d98565b8786866040518563ffffffff1660e01b815260040161187d949392919061240d565b602060405180830381600087803b15801561189757600080fd5b505af19250505080156118c857506040513d601f19601f820116820180604052508101906118c5919061203b565b60015b61194b573d80600081146118f8576040519150601f19603f3d011682016040523d82523d6000602084013e6118fd565b606091505b50600081511415611943576040517f08c379a000000000000000000000000000000000000000000000000000000000815260040161193a90612496565b60405180910390fd5b805181602001fd5b63150b7a0260e01b7bffffffffffffffffffffffffffffffffffffffffffffffffffffffff1916817bffffffffffffffffffffffffffffffffffffffffffffffffffffffff1916149150506119a0565b600190505b949350505050565b606060008214156119f0576040518060400160405280600181526020017f30000000000000000000000000000000000000000000000000000000000000008152509050611b50565b600082905060005b60008214611a22578080611a0b9061297b565b915050600a82611a1b91906127fd565b91506119f8565b60008167ffffffffffffffff811115611a64577f4e487b7100000000000000000000000000000000000000000000000000000000600052604160045260246000fd5b6040519080825280601f01601f191660200182016040528015611a965781602001600182028036833780820191505090505b5090505b60008514611b4957600182611aaf919061282e565b9150600a85611abe91906129c4565b6030611aca91906127a7565b60f81b818381518110611b06577f4e487b7100000000000000000000000000000000000000000000000000000000600052603260045260246000fd5b60200101907effffffffffffffffffffffffffffffffffffffffffffffffffffffffffffff1916908160001a905350600a85611b4291906127fd565b9450611a9a565b8093505050505b919050565b6000808273ffffffffffffffffffffffffffffffffffffffff163b119050919050565b508054611b8490612918565b6000825580601f10611b965750611bb5565b601f016020900490600052602060002090810190611bb49190611c3e565b5b50565b828054611bc490612918565b90600052602060002090601f016020900481019282611be65760008555611c2d565b82601f10611bff57805160ff1916838001178555611c2d565b82800160010185558215611c2d579182015b82811115611c2c578251825591602001919060010190611c11565b5b509050611c3a9190611c3e565b5090565b5b80821115611c57576000816000905550600101611c3f565b5090565b6000611c6e611c69846126d6565b6126b1565b90508083825260208201905082856020860282011115611c8d57600080fd5b60005b85811015611cbd5781611ca38882611e15565b845260208401935060208301925050600181019050611c90565b5050509392505050565b6000611cda611cd584612702565b6126b1565b905082815260208101848484011115611cf257600080fd5b611cfd8482856128d6565b509392505050565b6000611d18611d1384612733565b6126b1565b905082815260208101848484011115611d3057600080fd5b611d3b8482856128d6565b509392505050565b600081359050611d5281612f40565b92915050565b600082601f830112611d6957600080fd5b8135611d79848260208601611c5b565b91505092915050565b600081359050611d9181612f57565b92915050565b600081359050611da681612f6e565b92915050565b600081519050611dbb81612f6e565b92915050565b600082601f830112611dd257600080fd5b8135611de2848260208601611cc7565b91505092915050565b600082601f830112611dfc57600080fd5b8135611e0c848260208601611d05565b91505092915050565b600081359050611e2481612f85565b92915050565b600060208284031215611e3c57600080fd5b6000611e4a84828501611d43565b91505092915050565b60008060408385031215611e6657600080fd5b6000611e7485828601611d43565b9250506020611e8585828601611d43565b9150509250929050565b600080600060608486031215611ea457600080fd5b6000611eb286828701611d43565b9350506020611ec386828701611d43565b9250506040611ed486828701611e15565b9150509250925092565b60008060008060808587031215611ef457600080fd5b6000611f0287828801611d43565b9450506020611f1387828801611d43565b9350506040611f2487828801611e15565b925050606085013567ffffffffffffffff811115611f4157600080fd5b611f4d87828801611dc1565b91505092959194509250565b60008060408385031215611f6c57600080fd5b6000611f7a85828601611d43565b9250506020611f8b85828601611d82565b9150509250929050565b60008060408385031215611fa857600080fd5b6000611fb685828601611d43565b9250506020611fc785828601611e15565b9150509250929050565b600060208284031215611fe357600080fd5b600082013567ffffffffffffffff811115611ffd57600080fd5b61200984828501611d58565b91505092915050565b60006020828403121561202457600080fd5b600061203284828501611d97565b91505092915050565b60006020828403121561204d57600080fd5b600061205b84828501611dac565b91505092915050565b60006020828403121561207657600080fd5b600082013567ffffffffffffffff81111561209057600080fd5b61209c84828501611deb565b91505092915050565b6000602082840312156120b757600080fd5b60006120c584828501611e15565b91505092915050565b6120d781612862565b82525050565b6120e681612874565b82525050565b60006120f782612764565b612101818561277a565b93506121118185602086016128e5565b61211a81612ab1565b840191505092915050565b60006121308261276f565b61213a818561278b565b935061214a8185602086016128e5565b61215381612ab1565b840191505092915050565b60006121698261276f565b612173818561279c565b93506121838185602086016128e5565b80840191505092915050565b600061219c60328361278b565b91506121a782612ac2565b604082019050919050565b60006121bf60258361278b565b91506121ca82612b11565b604082019050919050565b60006121e2601c8361278b565b91506121ed82612b60565b602082019050919050565b600061220560248361278b565b915061221082612b89565b604082019050919050565b600061222860198361278b565b915061223382612bd8565b602082019050919050565b600061224b602c8361278b565b915061225682612c01565b604082019050919050565b600061226e60388361278b565b915061227982612c50565b604082019050919050565b6000612291602a8361278b565b915061229c82612c9f565b604082019050919050565b60006122b460298361278b565b91506122bf82612cee565b604082019050919050565b60006122d7602e8361278b565b91506122e282612d3d565b604082019050919050565b60006122fa60208361278b565b915061230582612d8c565b602082019050919050565b600061231d60318361278b565b915061232882612db5565b604082019050919050565b6000612340602c8361278b565b915061234b82612e04565b604082019050919050565b6000612363602f8361278b565b915061236e82612e53565b604082019050919050565b600061238660218361278b565b915061239182612ea2565b604082019050919050565b60006123a960318361278b565b91506123b482612ef1565b604082019050919050565b6123c8816128cc565b82525050565b60006123da828561215e565b91506123e6828461215e565b91508190509392505050565b600060208201905061240760008301846120ce565b92915050565b600060808201905061242260008301876120ce565b61242f60208301866120ce565b61243c60408301856123bf565b818103606083015261244e81846120ec565b905095945050505050565b600060208201905061246e60008301846120dd565b92915050565b6000602082019050818103600083015261248e8184612125565b905092915050565b600060208201905081810360008301526124af8161218f565b9050919050565b600060208201905081810360008301526124cf816121b2565b9050919050565b600060208201905081810360008301526124ef816121d5565b9050919050565b6000602082019050818103600083015261250f816121f8565b9050919050565b6000602082019050818103600083015261252f8161221b565b9050919050565b6000602082019050818103600083015261254f8161223e565b9050919050565b6000602082019050818103600083015261256f81612261565b9050919050565b6000602082019050818103600083015261258f81612284565b9050919050565b600060208201905081810360008301526125af816122a7565b9050919050565b600060208201905081810360008301526125cf816122ca565b9050919050565b600060208201905081810360008301526125ef816122ed565b9050919050565b6000602082019050818103600083015261260f81612310565b9050919050565b6000602082019050818103600083015261262f81612333565b9050919050565b6000602082019050818103600083015261264f81612356565b9050919050565b6000602082019050818103600083015261266f81612379565b9050919050565b6000602082019050818103600083015261268f8161239c565b9050919050565b60006020820190506126ab60008301846123bf565b92915050565b60006126bb6126cc565b90506126c7828261294a565b919050565b6000604051905090565b600067ffffffffffffffff8211156126f1576126f0612a82565b5b602082029050602081019050919050565b600067ffffffffffffffff82111561271d5761271c612a82565b5b61272682612ab1565b9050602081019050919050565b600067ffffffffffffffff82111561274e5761274d612a82565b5b61275782612ab1565b9050602081019050919050565b600081519050919050565b600081519050919050565b600082825260208201905092915050565b600082825260208201905092915050565b600081905092915050565b60006127b2826128cc565b91506127bd836128cc565b9250827fffffffffffffffffffffffffffffffffffffffffffffffffffffffffffffffff038211156127f2576127f16129f5565b5b828201905092915050565b6000612808826128cc565b9150612813836128cc565b92508261282357612822612a24565b5b828204905092915050565b6000612839826128cc565b9150612844836128cc565b925082821015612857576128566129f5565b5b828203905092915050565b600061286d826128ac565b9050919050565b60008115159050919050565b60007fffffffff0000000000000000000000000000000000000000000000000000000082169050919050565b600073ffffffffffffffffffffffffffffffffffffffff82169050919050565b6000819050919050565b82818337600083830152505050565b60005b838110156129035780820151818401526020810190506128e8565b83811115612912576000848401525b50505050565b6000600282049050600182168061293057607f821691505b6020821081141561294457612943612a53565b5b50919050565b61295382612ab1565b810181811067ffffffffffffffff8211171561297257612971612a82565b5b80604052505050565b6000612986826128cc565b91507fffffffffffffffffffffffffffffffffffffffffffffffffffffffffffffffff8214156129b9576129b86129f5565b5b600182019050919050565b60006129cf826128cc565b91506129da836128cc565b9250826129ea576129e9612a24565b5b828206905092915050565b7f4e487b7100000000000000000000000000000000000000000000000000000000600052601160045260246000fd5b7f4e487b7100000000000000000000000000000000000000000000000000000000600052601260045260246000fd5b7f4e487b7100000000000000000000000000000000000000000000000000000000600052602260045260246000fd5b7f4e487b7100000000000000000000000000000000000000000000000000000000600052604160045260246000fd5b6000601f19601f8301169050919050565b7f4552433732313a207472616e7366657220746f206e6f6e20455243373231526560008201527f63656976657220696d706c656d656e7465720000000000000000000000000000602082015250565b7f4552433732313a207472616e736665722066726f6d20696e636f72726563742060008201527f6f776e6572000000000000000000000000000000000000000000000000000000602082015250565b7f4552433732313a20746f6b656e20616c7265616479206d696e74656400000000600082015250565b7f4552433732313a207472616e7366657220746f20746865207a65726f2061646460008201527f7265737300000000000000000000000000000000000000000000000000000000602082015250565b7f4552433732313a20617070726f766520746f2063616c6c657200000000000000600082015250565b7f4552433732313a206f70657261746f7220717565727920666f72206e6f6e657860008201527f697374656e7420746f6b656e0000000000000000000000000000000000000000602082015250565b7f4552433732313a20617070726f76652063616c6c6572206973206e6f74206f7760008201527f6e6572206e6f7220617070726f76656420666f7220616c6c0000000000000000602082015250565b7f4552433732313a2062616c616e636520717565727920666f7220746865207a6560008201527f726f206164647265737300000000000000000000000000000000000000000000602082015250565b7f4552433732313a206f776e657220717565727920666f72206e6f6e657869737460008201527f656e7420746f6b656e0000000000000000000000000000000000000000000000602082015250565b7f45524337323155524953746f726167653a2055524920736574206f66206e6f6e60008201527f6578697374656e7420746f6b656e000000000000000000000000000000000000602082015250565b7f4552433732313a206d696e7420746f20746865207a65726f2061646472657373600082015250565b7f45524337323155524953746f726167653a2055524920717565727920666f722060008201527f6e6f6e6578697374656e7420746f6b656e000000000000000000000000000000602082015250565b7f4552433732313a20617070726f76656420717565727920666f72206e6f6e657860008201527f697374656e7420746f6b656e0000000000000000000000000000000000000000602082015250565b7f4552433732314d657461646174613a2055524920717565727920666f72206e6f60008201527f6e6578697374656e7420746f6b656e0000000000000000000000000000000000602082015250565b7f4552433732313a20617070726f76616c20746f2063757272656e74206f776e6560008201527f7200000000000000000000000000000000000000000000000000000000000000602082015250565b7f4552433732313a207472616e736665722063616c6c6572206973206e6f74206f60008201527f776e6572206e6f7220617070726f766564000000000000000000000000000000602082015250565b612f4981612862565b8114612f5457600080fd5b50565b612f6081612874565b8114612f6b57600080fd5b50565b612f7781612880565b8114612f8257600080fd5b50565b612f8e816128cc565b8114612f9957600080fd5b5056fea2646970667358221220a5c2d67e7afaa15f4adad4eb3e353db20a853488644e7c7aae0da6479a95fca464736f6c63430008040033",
  "linkReferences": {},
  "deployedLinkReferences": {}
}