{
  "_format": "hh-sol-artifact-1",
  "contractName": "NFT",
  "sourceName": "contracts/NFT.sol",
  "abi": [
    {
      "inputs": [
        {
          "internalType": "address",
          "name": "marketplace",
          "type": "address"
        }
      ],
      "stateMutability": "nonpayable",
      "type": "constructor"
    },
    {
      "anonymous": false,
      "inputs": [
        {
          "indexed": true,
          "internalType": "address",
          "name": "owner",
          "type": "address"
        },
        {
          "indexed": true,
          "internalType": "address",
          "name": "approved",
          "type": "address"
        },
        {
          "indexed": true,
          "internalType": "uint256",
          "name": "tokenId",
          "type": "uint256"
        }
      ],
      "name": "Approval",
      "type": "event"
    },
    {
      "anonymous": false,
      "inputs": [
        {
          "indexed": true,
          "internalType": "address",
          "name": "owner",
          "type": "address"
        },
        {
          "indexed": true,
          "internalType": "address",
          "name": "operator",
          "type": "address"
        },
        {
          "indexed": false,
          "internalType": "bool",
          "name": "approved",
          "type": "bool"
        }
      ],
      "name": "ApprovalForAll",
      "type": "event"
    },
    {
      "anonymous": false,
      "inputs": [
        {
          "indexed": true,
          "internalType": "address",
          "name": "from",
          "type": "address"
        },
        {
          "indexed": true,
          "internalType": "address",
          "name": "to",
          "type": "address"
        },
        {
          "indexed": true,
          "internalType": "uint256",
          "name": "tokenId",
          "type": "uint256"
        }
      ],
      "name": "Transfer",
      "type": "event"
    },
    {
      "inputs": [
        {
          "internalType": "address",
          "name": "to",
          "type": "address"
        },
        {
          "internalType": "uint256",
          "name": "tokenId",
          "type": "uint256"
        }
      ],
      "name": "approve",
      "outputs": [],
      "stateMutability": "nonpayable",
      "type": "function"
    },
    {
      "inputs": [
        {
          "internalType": "address",
          "name": "owner",
          "type": "address"
        }
      ],
      "name": "balanceOf",
      "outputs": [
        {
          "internalType": "uint256",
          "name": "",
          "type": "uint256"
        }
      ],
      "stateMutability": "view",
      "type": "function"
    },
    {
      "inputs": [
        {
          "internalType": "string",
          "name": "uri",
          "type": "string"
        }
      ],
      "name": "createToken",
      "outputs": [
        {
          "internalType": "uint256",
          "name": "",
          "type": "uint256"
        }
      ],
      "stateMutability": "nonpayable",
      "type": "function"
    },
    {
      "inputs": [
        {
          "internalType": "uint256",
          "name": "tokenId",
          "type": "uint256"
        }
      ],
      "name": "getApproved",
      "outputs": [
        {
          "internalType": "address",
          "name": "",
          "type": "address"
        }
      ],
      "stateMutability": "view",
      "type": "function"
    },
    {
      "inputs": [
        {
          "internalType": "uint256[]",
          "name": "array",
          "type": "uint256[]"
        }
      ],
      "name": "getMax",
      "outputs": [
        {
          "internalType": "uint256",
          "name": "",
          "type": "uint256"
        }
      ],
      "stateMutability": "pure",
      "type": "function"
    },
    {
      "inputs": [
        {
          "internalType": "address",
          "name": "owner",
          "type": "address"
        },
        {
          "internalType": "address",
          "name": "operator",
          "type": "address"
        }
      ],
      "name": "isApprovedForAll",
      "outputs": [
        {
          "internalType": "bool",
          "name": "",
          "type": "bool"
        }
      ],
      "stateMutability": "view",
      "type": "function"
    },
    {
      "inputs": [],
      "name": "name",
      "outputs": [
        {
          "internalType": "string",
          "name": "",
          "type": "string"
        }
      ],
      "stateMutability": "view",
      "type": "function"
    },
    {
      "inputs": [
        {
          "internalType": "uint256",
          "name": "tokenId",
          "type": "uint256"
        }
      ],
      "name": "ownerOf",
      "outputs": [
        {
          "internalType": "address",
          "name": "",
          "type": "address"
        }
      ],
      "stateMutability": "view",
      "type": "function"
    },
    {
      "inputs": [
        {
          "internalType": "address",
          "name": "from",
          "type": "address"
        },
        {
          "internalType": "address",
          "name": "to",
          "type": "address"
        },
        {
          "internalType": "uint256",
          "name": "tokenId",
          "type": "uint256"
        }
      ],
      "name": "safeTransferFrom",
      "outputs": [],
      "stateMutability": "nonpayable",
      "type": "function"
    },
    {
      "inputs": [
        {
          "internalType": "address",
          "name": "from",
          "type": "address"
        },
        {
          "internalType": "address",
          "name": "to",
          "type": "address"
        },
        {
          "internalType": "uint256",
          "name": "tokenId",
          "type": "uint256"
        },
        {
          "internalType": "bytes",
          "name": "_data",
          "type": "bytes"
        }
      ],
      "name": "safeTransferFrom",
      "outputs": [],
      "stateMutability": "nonpayable",
      "type": "function"
    },
    {
      "inputs": [
        {
          "internalType": "address",
          "name": "operator",
          "type": "address"
        },
        {
          "internalType": "bool",
          "name": "approved",
          "type": "bool"
        }
      ],
      "name": "setApprovalForAll",
      "outputs": [],
      "stateMutability": "nonpayable",
      "type": "function"
    },
    {
      "inputs": [
        {
          "internalType": "bytes4",
          "name": "interfaceId",
          "type": "bytes4"
        }
      ],
      "name": "supportsInterface",
      "outputs": [
        {
          "internalType": "bool",
          "name": "",
          "type": "bool"
        }
      ],
      "stateMutability": "view",
      "type": "function"
    },
    {
      "inputs": [],
      "name": "symbol",
      "outputs": [
        {
          "internalType": "string",
          "name": "",
          "type": "string"
        }
      ],
      "stateMutability": "view",
      "type": "function"
    },
    {
      "inputs": [
        {
          "internalType": "uint256",
          "name": "tokenId",
          "type": "uint256"
        }
      ],
      "name": "tokenURI",
      "outputs": [
        {
          "internalType": "string",
          "name": "",
          "type": "string"
        }
      ],
      "stateMutability": "view",
      "type": "function"
    },
    {
      "inputs": [
        {
          "internalType": "address",
          "name": "from",
          "type": "address"
        },
        {
          "internalType": "address",
          "name": "to",
          "type": "address"
        },
        {
          "internalType": "uint256",
          "name": "tokenId",
          "type": "uint256"
        }
      ],
      "name": "transferFrom",
      "outputs": [],
      "stateMutability": "nonpayable",
      "type": "function"
    }
  ],
  "bytecode": "0x60806040523480156200001157600080fd5b506040516200307b3803806200307b8339818101604052810190620000379190620001e6565b6040518060400160405280600e81526020017f4c6562616c6c6f20546f6b656e730000000000000000000000000000000000008152506040518060400160405280600481526020017f6c656273000000000000000000000000000000000000000000000000000000008152508160009080519060200190620000bb9291906200011f565b508060019080519060200190620000d49291906200011f565b50505080600860006101000a81548173ffffffffffffffffffffffffffffffffffffffff021916908373ffffffffffffffffffffffffffffffffffffffff16021790555050620002c5565b8280546200012d9062000246565b90600052602060002090601f0160209004810192826200015157600085556200019d565b82601f106200016c57805160ff19168380011785556200019d565b828001600101855582156200019d579182015b828111156200019c5782518255916020019190600101906200017f565b5b509050620001ac9190620001b0565b5090565b5b80821115620001cb576000816000905550600101620001b1565b5090565b600081519050620001e081620002ab565b92915050565b600060208284031215620001f957600080fd5b60006200020984828501620001cf565b91505092915050565b60006200021f8262000226565b9050919050565b600073ffffffffffffffffffffffffffffffffffffffff82169050919050565b600060028204905060018216806200025f57607f821691505b602082108114156200027657620002756200027c565b5b50919050565b7f4e487b7100000000000000000000000000000000000000000000000000000000600052602260045260246000fd5b620002b68162000212565b8114620002c257600080fd5b50565b612da680620002d56000396000f3fe608060405234801561001057600080fd5b50600436106100f55760003560e01c80636352211e11610097578063b88d4fde11610066578063b88d4fde14610296578063c87b56dd146102b2578063ca1314af146102e2578063e985e9c514610312576100f5565b80636352211e146101fc57806370a082311461022c57806395d89b411461025c578063a22cb4651461027a576100f5565b8063095ea7b3116100d3578063095ea7b31461017857806323b872dd1461019457806342842e0e146101b057806345576f94146101cc576100f5565b806301ffc9a7146100fa57806306fdde031461012a578063081812fc14610148575b600080fd5b610114600480360381019061010f9190611de6565b610342565b604051610121919061222d565b60405180910390f35b610132610424565b60405161013f9190612248565b60405180910390f35b610162600480360381019061015d9190611e79565b6104b6565b60405161016f91906121c6565b60405180910390f35b610192600480360381019061018d9190611d69565b61053b565b005b6101ae60048036038101906101a99190611c63565b610653565b005b6101ca60048036038101906101c59190611c63565b6106ac565b005b6101e660048036038101906101e19190611e38565b6106cc565b6040516101f3919061246a565b60405180910390f35b61021660048036038101906102119190611e79565b610730565b60405161022391906121c6565b60405180910390f35b61024660048036038101906102419190611bfe565b6107e2565b604051610253919061246a565b60405180910390f35b61026461089a565b6040516102719190612248565b60405180910390f35b610294600480360381019061028f9190611d2d565b61092c565b005b6102b060048036038101906102ab9190611cb2565b610942565b005b6102cc60048036038101906102c79190611e79565b6109a4565b6040516102d99190612248565b60405180910390f35b6102fc60048036038101906102f79190611da5565b610af6565b604051610309919061246a565b60405180910390f35b61032c60048036038101906103279190611c27565b610bb2565b604051610339919061222d565b60405180910390f35b60007f80ac58cd000000000000000000000000000000000000000000000000000000007bffffffffffffffffffffffffffffffffffffffffffffffffffffffff1916827bffffffffffffffffffffffffffffffffffffffffffffffffffffffff1916148061040d57507f5b5e139f000000000000000000000000000000000000000000000000000000007bffffffffffffffffffffffffffffffffffffffffffffffffffffffff1916827bffffffffffffffffffffffffffffffffffffffffffffffffffffffff1916145b8061041d575061041c82610c46565b5b9050919050565b606060008054610433906126ec565b80601f016020809104026020016040519081016040528092919081815260200182805461045f906126ec565b80156104ac5780601f10610481576101008083540402835291602001916104ac565b820191906000526020600020905b81548152906001019060200180831161048f57829003601f168201915b5050505050905090565b60006104c182610cb0565b610500576040517f08c379a00000000000000000000000000000000000000000000000000000000081526004016104f7906123ea565b60405180910390fd5b6004600083815260200190815260200160002060009054906101000a900473ffffffffffffffffffffffffffffffffffffffff169050919050565b600061054682610730565b90508073ffffffffffffffffffffffffffffffffffffffff168373ffffffffffffffffffffffffffffffffffffffff1614156105b7576040517f08c379a00000000000000000000000000000000000000000000000000000000081526004016105ae9061242a565b60405180910390fd5b8073ffffffffffffffffffffffffffffffffffffffff166105d6610d1c565b73ffffffffffffffffffffffffffffffffffffffff1614806106055750610604816105ff610d1c565b610bb2565b5b610644576040517f08c379a000000000000000000000000000000000000000000000000000000000815260040161063b9061232a565b60405180910390fd5b61064e8383610d24565b505050565b61065d8382610ddd565b61069c576040517f08c379a00000000000000000000000000000000000000000000000000000000081526004016106939061244a565b60405180910390fd5b6106a7838383610ebb565b505050565b6106c783838360405180602001604052806000815250610942565b505050565b60006106d86007611122565b60006106e46007611138565b90506106f03382611146565b6106fa8184611320565b610727600860009054906101000a900473ffffffffffffffffffffffffffffffffffffffff16600161092c565b80915050919050565b6000806002600084815260200190815260200160002060009054906101000a900473ffffffffffffffffffffffffffffffffffffffff169050600073ffffffffffffffffffffffffffffffffffffffff168173ffffffffffffffffffffffffffffffffffffffff1614156107d9576040517f08c379a00000000000000000000000000000000000000000000000000000000081526004016107d09061236a565b60405180910390fd5b80915050919050565b60008073ffffffffffffffffffffffffffffffffffffffff168273ffffffffffffffffffffffffffffffffffffffff161415610853576040517f08c379a000000000000000000000000000000000000000000000000000000000815260040161084a9061234a565b60405180910390fd5b600360008373ffffffffffffffffffffffffffffffffffffffff1673ffffffffffffffffffffffffffffffffffffffff168152602001908152602001600020549050919050565b6060600180546108a9906126ec565b80601f01602080910402602001604051908101604052809291908181526020018280546108d5906126ec565b80156109225780601f106108f757610100808354040283529160200191610922565b820191906000526020600020905b81548152906001019060200180831161090557829003601f168201915b5050505050905090565b61093e610937610d1c565b8383611394565b5050565b61095361094d610d1c565b83610ddd565b610992576040517f08c379a00000000000000000000000000000000000000000000000000000000081526004016109899061244a565b60405180910390fd5b61099e84848484611501565b50505050565b60606109af82610cb0565b6109ee576040517f08c379a00000000000000000000000000000000000000000000000000000000081526004016109e5906123ca565b60405180910390fd5b6000600660008481526020019081526020016000208054610a0e906126ec565b80601f0160208091040260200160405190810160405280929190818152602001828054610a3a906126ec565b8015610a875780601f10610a5c57610100808354040283529160200191610a87565b820191906000526020600020905b815481529060010190602001808311610a6a57829003601f168201915b505050505090506000610a9861155d565b9050600081511415610aae578192505050610af1565b600082511115610ae3578082604051602001610acb9291906121a2565b60405160208183030381529060405292505050610af1565b610aec84611574565b925050505b919050565b6000806000905060005b8351811015610ba85781848281518110610b43577f4e487b7100000000000000000000000000000000000000000000000000000000600052603260045260246000fd5b60200260200101511115610b9557838181518110610b8a577f4e487b7100000000000000000000000000000000000000000000000000000000600052603260045260246000fd5b602002602001015191505b8080610ba09061274f565b915050610b00565b8192505050919050565b6000600560008473ffffffffffffffffffffffffffffffffffffffff1673ffffffffffffffffffffffffffffffffffffffff16815260200190815260200160002060008373ffffffffffffffffffffffffffffffffffffffff1673ffffffffffffffffffffffffffffffffffffffff16815260200190815260200160002060009054906101000a900460ff16905092915050565b60007f01ffc9a7000000000000000000000000000000000000000000000000000000007bffffffffffffffffffffffffffffffffffffffffffffffffffffffff1916827bffffffffffffffffffffffffffffffffffffffffffffffffffffffff1916149050919050565b60008073ffffffffffffffffffffffffffffffffffffffff166002600084815260200190815260200160002060009054906101000a900473ffffffffffffffffffffffffffffffffffffffff1673ffffffffffffffffffffffffffffffffffffffff1614159050919050565b600033905090565b816004600083815260200190815260200160002060006101000a81548173ffffffffffffffffffffffffffffffffffffffff021916908373ffffffffffffffffffffffffffffffffffffffff160217905550808273ffffffffffffffffffffffffffffffffffffffff16610d9783610730565b73ffffffffffffffffffffffffffffffffffffffff167f8c5be1e5ebec7d5bd14f71427d1e84f3dd0314c0f7b2291e5b200ac8c7c3b92560405160405180910390a45050565b6000610de882610cb0565b610e27576040517f08c379a0000000000000000000000000000000000000000000000000000000008152600401610e1e9061230a565b60405180910390fd5b6000610e3283610730565b90508073ffffffffffffffffffffffffffffffffffffffff168473ffffffffffffffffffffffffffffffffffffffff161480610ea157508373ffffffffffffffffffffffffffffffffffffffff16610e89846104b6565b73ffffffffffffffffffffffffffffffffffffffff16145b80610eb25750610eb18185610bb2565b5b91505092915050565b8273ffffffffffffffffffffffffffffffffffffffff16610edb82610730565b73ffffffffffffffffffffffffffffffffffffffff1614610f31576040517f08c379a0000000000000000000000000000000000000000000000000000000008152600401610f289061228a565b60405180910390fd5b600073ffffffffffffffffffffffffffffffffffffffff168273ffffffffffffffffffffffffffffffffffffffff161415610fa1576040517f08c379a0000000000000000000000000000000000000000000000000000000008152600401610f98906122ca565b60405180910390fd5b610fac83838361161b565b610fb7600082610d24565b6001600360008573ffffffffffffffffffffffffffffffffffffffff1673ffffffffffffffffffffffffffffffffffffffff16815260200190815260200160002060008282546110079190612602565b925050819055506001600360008473ffffffffffffffffffffffffffffffffffffffff1673ffffffffffffffffffffffffffffffffffffffff168152602001908152602001600020600082825461105e919061257b565b92505081905550816002600083815260200190815260200160002060006101000a81548173ffffffffffffffffffffffffffffffffffffffff021916908373ffffffffffffffffffffffffffffffffffffffff160217905550808273ffffffffffffffffffffffffffffffffffffffff168473ffffffffffffffffffffffffffffffffffffffff167fddf252ad1be2c89b69c2b068fc378daa952ba7f163c4a11628f55a4df523b3ef60405160405180910390a461111d838383611620565b505050565b6001816000016000828254019250508190555050565b600081600001549050919050565b600073ffffffffffffffffffffffffffffffffffffffff168273ffffffffffffffffffffffffffffffffffffffff1614156111b6576040517f08c379a00000000000000000000000000000000000000000000000000000000081526004016111ad906123aa565b60405180910390fd5b6111bf81610cb0565b156111ff576040517f08c379a00000000000000000000000000000000000000000000000000000000081526004016111f6906122aa565b60405180910390fd5b61120b6000838361161b565b6001600360008473ffffffffffffffffffffffffffffffffffffffff1673ffffffffffffffffffffffffffffffffffffffff168152602001908152602001600020600082825461125b919061257b565b92505081905550816002600083815260200190815260200160002060006101000a81548173ffffffffffffffffffffffffffffffffffffffff021916908373ffffffffffffffffffffffffffffffffffffffff160217905550808273ffffffffffffffffffffffffffffffffffffffff16600073ffffffffffffffffffffffffffffffffffffffff167fddf252ad1be2c89b69c2b068fc378daa952ba7f163c4a11628f55a4df523b3ef60405160405180910390a461131c60008383611620565b5050565b61132982610cb0565b611368576040517f08c379a000000000000000000000000000000000000000000000000000000000815260040161135f9061238a565b60405180910390fd5b8060066000848152602001908152602001600020908051906020019061138f92919061198c565b505050565b8173ffffffffffffffffffffffffffffffffffffffff168373ffffffffffffffffffffffffffffffffffffffff161415611403576040517f08c379a00000000000000000000000000000000000000000000000000000000081526004016113fa906122ea565b60405180910390fd5b80600560008573ffffffffffffffffffffffffffffffffffffffff1673ffffffffffffffffffffffffffffffffffffffff16815260200190815260200160002060008473ffffffffffffffffffffffffffffffffffffffff1673ffffffffffffffffffffffffffffffffffffffff16815260200190815260200160002060006101000a81548160ff0219169083151502179055508173ffffffffffffffffffffffffffffffffffffffff168373ffffffffffffffffffffffffffffffffffffffff167f17307eab39ab6107e8899845ad3d59bd9653f200f220920489ca2b5937696c31836040516114f4919061222d565b60405180910390a3505050565b61150c848484610ebb565b61151884848484611625565b611557576040517f08c379a000000000000000000000000000000000000000000000000000000000815260040161154e9061226a565b60405180910390fd5b50505050565b606060405180602001604052806000815250905090565b606061157f82610cb0565b6115be576040517f08c379a00000000000000000000000000000000000000000000000000000000081526004016115b59061240a565b60405180910390fd5b60006115c861155d565b905060008151116115e85760405180602001604052806000815250611613565b806115f2846117bc565b6040516020016116039291906121a2565b6040516020818303038152906040525b915050919050565b505050565b505050565b60006116468473ffffffffffffffffffffffffffffffffffffffff16611969565b156117af578373ffffffffffffffffffffffffffffffffffffffff1663150b7a0261166f610d1c565b8786866040518563ffffffff1660e01b815260040161169194939291906121e1565b602060405180830381600087803b1580156116ab57600080fd5b505af19250505080156116dc57506040513d601f19601f820116820180604052508101906116d99190611e0f565b60015b61175f573d806000811461170c576040519150601f19603f3d011682016040523d82523d6000602084013e611711565b606091505b50600081511415611757576040517f08c379a000000000000000000000000000000000000000000000000000000000815260040161174e9061226a565b60405180910390fd5b805181602001fd5b63150b7a0260e01b7bffffffffffffffffffffffffffffffffffffffffffffffffffffffff1916817bffffffffffffffffffffffffffffffffffffffffffffffffffffffff1916149150506117b4565b600190505b949350505050565b60606000821415611804576040518060400160405280600181526020017f30000000000000000000000000000000000000000000000000000000000000008152509050611964565b600082905060005b6000821461183657808061181f9061274f565b915050600a8261182f91906125d1565b915061180c565b60008167ffffffffffffffff811115611878577f4e487b7100000000000000000000000000000000000000000000000000000000600052604160045260246000fd5b6040519080825280601f01601f1916602001820160405280156118aa5781602001600182028036833780820191505090505b5090505b6000851461195d576001826118c39190612602565b9150600a856118d29190612798565b60306118de919061257b565b60f81b81838151811061191a577f4e487b7100000000000000000000000000000000000000000000000000000000600052603260045260246000fd5b60200101907effffffffffffffffffffffffffffffffffffffffffffffffffffffffffffff1916908160001a905350600a8561195691906125d1565b94506118ae565b8093505050505b919050565b6000808273ffffffffffffffffffffffffffffffffffffffff163b119050919050565b828054611998906126ec565b90600052602060002090601f0160209004810192826119ba5760008555611a01565b82601f106119d357805160ff1916838001178555611a01565b82800160010185558215611a01579182015b82811115611a005782518255916020019190600101906119e5565b5b509050611a0e9190611a12565b5090565b5b80821115611a2b576000816000905550600101611a13565b5090565b6000611a42611a3d846124aa565b612485565b90508083825260208201905082856020860282011115611a6157600080fd5b60005b85811015611a915781611a778882611be9565b845260208401935060208301925050600181019050611a64565b5050509392505050565b6000611aae611aa9846124d6565b612485565b905082815260208101848484011115611ac657600080fd5b611ad18482856126aa565b509392505050565b6000611aec611ae784612507565b612485565b905082815260208101848484011115611b0457600080fd5b611b0f8482856126aa565b509392505050565b600081359050611b2681612d14565b92915050565b600082601f830112611b3d57600080fd5b8135611b4d848260208601611a2f565b91505092915050565b600081359050611b6581612d2b565b92915050565b600081359050611b7a81612d42565b92915050565b600081519050611b8f81612d42565b92915050565b600082601f830112611ba657600080fd5b8135611bb6848260208601611a9b565b91505092915050565b600082601f830112611bd057600080fd5b8135611be0848260208601611ad9565b91505092915050565b600081359050611bf881612d59565b92915050565b600060208284031215611c1057600080fd5b6000611c1e84828501611b17565b91505092915050565b60008060408385031215611c3a57600080fd5b6000611c4885828601611b17565b9250506020611c5985828601611b17565b9150509250929050565b600080600060608486031215611c7857600080fd5b6000611c8686828701611b17565b9350506020611c9786828701611b17565b9250506040611ca886828701611be9565b9150509250925092565b60008060008060808587031215611cc857600080fd5b6000611cd687828801611b17565b9450506020611ce787828801611b17565b9350506040611cf887828801611be9565b925050606085013567ffffffffffffffff811115611d1557600080fd5b611d2187828801611b95565b91505092959194509250565b60008060408385031215611d4057600080fd5b6000611d4e85828601611b17565b9250506020611d5f85828601611b56565b9150509250929050565b60008060408385031215611d7c57600080fd5b6000611d8a85828601611b17565b9250506020611d9b85828601611be9565b9150509250929050565b600060208284031215611db757600080fd5b600082013567ffffffffffffffff811115611dd157600080fd5b611ddd84828501611b2c565b91505092915050565b600060208284031215611df857600080fd5b6000611e0684828501611b6b565b91505092915050565b600060208284031215611e2157600080fd5b6000611e2f84828501611b80565b91505092915050565b600060208284031215611e4a57600080fd5b600082013567ffffffffffffffff811115611e6457600080fd5b611e7084828501611bbf565b91505092915050565b600060208284031215611e8b57600080fd5b6000611e9984828501611be9565b91505092915050565b611eab81612636565b82525050565b611eba81612648565b82525050565b6000611ecb82612538565b611ed5818561254e565b9350611ee58185602086016126b9565b611eee81612885565b840191505092915050565b6000611f0482612543565b611f0e818561255f565b9350611f1e8185602086016126b9565b611f2781612885565b840191505092915050565b6000611f3d82612543565b611f478185612570565b9350611f578185602086016126b9565b80840191505092915050565b6000611f7060328361255f565b9150611f7b82612896565b604082019050919050565b6000611f9360258361255f565b9150611f9e826128e5565b604082019050919050565b6000611fb6601c8361255f565b9150611fc182612934565b602082019050919050565b6000611fd960248361255f565b9150611fe48261295d565b604082019050919050565b6000611ffc60198361255f565b9150612007826129ac565b602082019050919050565b600061201f602c8361255f565b915061202a826129d5565b604082019050919050565b600061204260388361255f565b915061204d82612a24565b604082019050919050565b6000612065602a8361255f565b915061207082612a73565b604082019050919050565b600061208860298361255f565b915061209382612ac2565b604082019050919050565b60006120ab602e8361255f565b91506120b682612b11565b604082019050919050565b60006120ce60208361255f565b91506120d982612b60565b602082019050919050565b60006120f160318361255f565b91506120fc82612b89565b604082019050919050565b6000612114602c8361255f565b915061211f82612bd8565b604082019050919050565b6000612137602f8361255f565b915061214282612c27565b604082019050919050565b600061215a60218361255f565b915061216582612c76565b604082019050919050565b600061217d60318361255f565b915061218882612cc5565b604082019050919050565b61219c816126a0565b82525050565b60006121ae8285611f32565b91506121ba8284611f32565b91508190509392505050565b60006020820190506121db6000830184611ea2565b92915050565b60006080820190506121f66000830187611ea2565b6122036020830186611ea2565b6122106040830185612193565b81810360608301526122228184611ec0565b905095945050505050565b60006020820190506122426000830184611eb1565b92915050565b600060208201905081810360008301526122628184611ef9565b905092915050565b6000602082019050818103600083015261228381611f63565b9050919050565b600060208201905081810360008301526122a381611f86565b9050919050565b600060208201905081810360008301526122c381611fa9565b9050919050565b600060208201905081810360008301526122e381611fcc565b9050919050565b6000602082019050818103600083015261230381611fef565b9050919050565b6000602082019050818103600083015261232381612012565b9050919050565b6000602082019050818103600083015261234381612035565b9050919050565b6000602082019050818103600083015261236381612058565b9050919050565b600060208201905081810360008301526123838161207b565b9050919050565b600060208201905081810360008301526123a38161209e565b9050919050565b600060208201905081810360008301526123c3816120c1565b9050919050565b600060208201905081810360008301526123e3816120e4565b9050919050565b6000602082019050818103600083015261240381612107565b9050919050565b600060208201905081810360008301526124238161212a565b9050919050565b600060208201905081810360008301526124438161214d565b9050919050565b6000602082019050818103600083015261246381612170565b9050919050565b600060208201905061247f6000830184612193565b92915050565b600061248f6124a0565b905061249b828261271e565b919050565b6000604051905090565b600067ffffffffffffffff8211156124c5576124c4612856565b5b602082029050602081019050919050565b600067ffffffffffffffff8211156124f1576124f0612856565b5b6124fa82612885565b9050602081019050919050565b600067ffffffffffffffff82111561252257612521612856565b5b61252b82612885565b9050602081019050919050565b600081519050919050565b600081519050919050565b600082825260208201905092915050565b600082825260208201905092915050565b600081905092915050565b6000612586826126a0565b9150612591836126a0565b9250827fffffffffffffffffffffffffffffffffffffffffffffffffffffffffffffffff038211156125c6576125c56127c9565b5b828201905092915050565b60006125dc826126a0565b91506125e7836126a0565b9250826125f7576125f66127f8565b5b828204905092915050565b600061260d826126a0565b9150612618836126a0565b92508282101561262b5761262a6127c9565b5b828203905092915050565b600061264182612680565b9050919050565b60008115159050919050565b60007fffffffff0000000000000000000000000000000000000000000000000000000082169050919050565b600073ffffffffffffffffffffffffffffffffffffffff82169050919050565b6000819050919050565b82818337600083830152505050565b60005b838110156126d75780820151818401526020810190506126bc565b838111156126e6576000848401525b50505050565b6000600282049050600182168061270457607f821691505b6020821081141561271857612717612827565b5b50919050565b61272782612885565b810181811067ffffffffffffffff8211171561274657612745612856565b5b80604052505050565b600061275a826126a0565b91507fffffffffffffffffffffffffffffffffffffffffffffffffffffffffffffffff82141561278d5761278c6127c9565b5b600182019050919050565b60006127a3826126a0565b91506127ae836126a0565b9250826127be576127bd6127f8565b5b828206905092915050565b7f4e487b7100000000000000000000000000000000000000000000000000000000600052601160045260246000fd5b7f4e487b7100000000000000000000000000000000000000000000000000000000600052601260045260246000fd5b7f4e487b7100000000000000000000000000000000000000000000000000000000600052602260045260246000fd5b7f4e487b7100000000000000000000000000000000000000000000000000000000600052604160045260246000fd5b6000601f19601f8301169050919050565b7f4552433732313a207472616e7366657220746f206e6f6e20455243373231526560008201527f63656976657220696d706c656d656e7465720000000000000000000000000000602082015250565b7f4552433732313a207472616e736665722066726f6d20696e636f72726563742060008201527f6f776e6572000000000000000000000000000000000000000000000000000000602082015250565b7f4552433732313a20746f6b656e20616c7265616479206d696e74656400000000600082015250565b7f4552433732313a207472616e7366657220746f20746865207a65726f2061646460008201527f7265737300000000000000000000000000000000000000000000000000000000602082015250565b7f4552433732313a20617070726f766520746f2063616c6c657200000000000000600082015250565b7f4552433732313a206f70657261746f7220717565727920666f72206e6f6e657860008201527f697374656e7420746f6b656e0000000000000000000000000000000000000000602082015250565b7f4552433732313a20617070726f76652063616c6c6572206973206e6f74206f7760008201527f6e6572206e6f7220617070726f76656420666f7220616c6c0000000000000000602082015250565b7f4552433732313a2062616c616e636520717565727920666f7220746865207a6560008201527f726f206164647265737300000000000000000000000000000000000000000000602082015250565b7f4552433732313a206f776e657220717565727920666f72206e6f6e657869737460008201527f656e7420746f6b656e0000000000000000000000000000000000000000000000602082015250565b7f45524337323155524953746f726167653a2055524920736574206f66206e6f6e60008201527f6578697374656e7420746f6b656e000000000000000000000000000000000000602082015250565b7f4552433732313a206d696e7420746f20746865207a65726f2061646472657373600082015250565b7f45524337323155524953746f726167653a2055524920717565727920666f722060008201527f6e6f6e6578697374656e7420746f6b656e000000000000000000000000000000602082015250565b7f4552433732313a20617070726f76656420717565727920666f72206e6f6e657860008201527f697374656e7420746f6b656e0000000000000000000000000000000000000000602082015250565b7f4552433732314d657461646174613a2055524920717565727920666f72206e6f60008201527f6e6578697374656e7420746f6b656e0000000000000000000000000000000000602082015250565b7f4552433732313a20617070726f76616c20746f2063757272656e74206f776e6560008201527f7200000000000000000000000000000000000000000000000000000000000000602082015250565b7f4552433732313a207472616e736665722063616c6c6572206973206e6f74206f60008201527f776e6572206e6f7220617070726f766564000000000000000000000000000000602082015250565b612d1d81612636565b8114612d2857600080fd5b50565b612d3481612648565b8114612d3f57600080fd5b50565b612d4b81612654565b8114612d5657600080fd5b50565b612d62816126a0565b8114612d6d57600080fd5b5056fea264697066735822122031f14bd87f54244f0ec2cefeda1c44bdce802be8b91b3c20cb3d4667d9fb685664736f6c63430008040033",
  "linkReferences": {},
  "deployedLinkReferences": {}
}