{
  "_format": "hh-sol-artifact-1",
  "contractName": "NFTMarket",
  "sourceName": "contracts/NFTMarket.sol",
  "abi": [
    {
      "inputs": [],
      "stateMutability": "nonpayable",
      "type": "constructor"
    },
    {
      "anonymous": false,
      "inputs": [
        {
          "indexed": true,
          "internalType": "uint256",
          "name": "itemId",
          "type": "uint256"
        },
        {
          "indexed": true,
          "internalType": "uint256",
          "name": "tokenId",
          "type": "uint256"
        },
        {
          "indexed": true,
          "internalType": "address",
          "name": "nftContract",
          "type": "address"
        },
        {
          "indexed": false,
          "internalType": "address",
          "name": "owner",
          "type": "address"
        },
        {
          "indexed": false,
          "internalType": "address",
          "name": "seller",
          "type": "address"
        },
        {
          "indexed": false,
          "internalType": "uint256",
          "name": "price",
          "type": "uint256"
        },
        {
          "indexed": false,
          "internalType": "enum NFTMarket.MarketItemStatus",
          "name": "status",
          "type": "uint8"
        },
        {
          "indexed": false,
          "internalType": "string",
          "name": "message",
          "type": "string"
        }
      ],
      "name": "MarketItemEvent",
      "type": "event"
    },
    {
      "inputs": [
        {
          "internalType": "address",
          "name": "nftContract",
          "type": "address"
        },
        {
          "internalType": "uint256",
          "name": "tokenId",
          "type": "uint256"
        }
      ],
      "name": "BuyMarketItem",
      "outputs": [
        {
          "components": [
            {
              "internalType": "uint256",
              "name": "itemId",
              "type": "uint256"
            },
            {
              "internalType": "uint256",
              "name": "tokenId",
              "type": "uint256"
            },
            {
              "internalType": "address",
              "name": "nftContract",
              "type": "address"
            },
            {
              "internalType": "address payable",
              "name": "owner",
              "type": "address"
            },
            {
              "internalType": "address payable",
              "name": "seller",
              "type": "address"
            },
            {
              "internalType": "uint256",
              "name": "price",
              "type": "uint256"
            },
            {
              "internalType": "enum NFTMarket.MarketItemStatus",
              "name": "status",
              "type": "uint8"
            }
          ],
          "internalType": "struct NFTMarket.MarketItem",
          "name": "",
          "type": "tuple"
        }
      ],
      "stateMutability": "payable",
      "type": "function"
    },
    {
      "inputs": [
        {
          "internalType": "address",
          "name": "nftContract",
          "type": "address"
        },
        {
          "internalType": "uint256",
          "name": "tokenId",
          "type": "uint256"
        },
        {
          "internalType": "uint256",
          "name": "price",
          "type": "uint256"
        }
      ],
      "name": "createMarketItem",
      "outputs": [],
      "stateMutability": "payable",
      "type": "function"
    },
    {
      "inputs": [
        {
          "internalType": "address",
          "name": "nftContract",
          "type": "address"
        },
        {
          "internalType": "uint256",
          "name": "itemId",
          "type": "uint256"
        }
      ],
      "name": "createMarketItemSale",
      "outputs": [
        {
          "components": [
            {
              "internalType": "uint256",
              "name": "itemId",
              "type": "uint256"
            },
            {
              "internalType": "uint256",
              "name": "tokenId",
              "type": "uint256"
            },
            {
              "internalType": "address",
              "name": "nftContract",
              "type": "address"
            },
            {
              "internalType": "address payable",
              "name": "owner",
              "type": "address"
            },
            {
              "internalType": "address payable",
              "name": "seller",
              "type": "address"
            },
            {
              "internalType": "uint256",
              "name": "price",
              "type": "uint256"
            },
            {
              "internalType": "enum NFTMarket.MarketItemStatus",
              "name": "status",
              "type": "uint8"
            }
          ],
          "internalType": "struct NFTMarket.MarketItem",
          "name": "",
          "type": "tuple"
        }
      ],
      "stateMutability": "payable",
      "type": "function"
    },
    {
      "inputs": [
        {
          "internalType": "uint256",
          "name": "limit",
          "type": "uint256"
        }
      ],
      "name": "fetchMyNfts",
      "outputs": [
        {
          "components": [
            {
              "internalType": "uint256",
              "name": "itemId",
              "type": "uint256"
            },
            {
              "internalType": "uint256",
              "name": "tokenId",
              "type": "uint256"
            },
            {
              "internalType": "address",
              "name": "nftContract",
              "type": "address"
            },
            {
              "internalType": "address payable",
              "name": "owner",
              "type": "address"
            },
            {
              "internalType": "address payable",
              "name": "seller",
              "type": "address"
            },
            {
              "internalType": "uint256",
              "name": "price",
              "type": "uint256"
            },
            {
              "internalType": "enum NFTMarket.MarketItemStatus",
              "name": "status",
              "type": "uint8"
            }
          ],
          "internalType": "struct NFTMarket.MarketItem[]",
          "name": "",
          "type": "tuple[]"
        }
      ],
      "stateMutability": "view",
      "type": "function"
    },
    {
      "inputs": [
        {
          "internalType": "uint256",
          "name": "limit",
          "type": "uint256"
        }
      ],
      "name": "fetchNftsCreated",
      "outputs": [
        {
          "components": [
            {
              "internalType": "uint256",
              "name": "itemId",
              "type": "uint256"
            },
            {
              "internalType": "uint256",
              "name": "tokenId",
              "type": "uint256"
            },
            {
              "internalType": "address",
              "name": "nftContract",
              "type": "address"
            },
            {
              "internalType": "address payable",
              "name": "owner",
              "type": "address"
            },
            {
              "internalType": "address payable",
              "name": "seller",
              "type": "address"
            },
            {
              "internalType": "uint256",
              "name": "price",
              "type": "uint256"
            },
            {
              "internalType": "enum NFTMarket.MarketItemStatus",
              "name": "status",
              "type": "uint8"
            }
          ],
          "internalType": "struct NFTMarket.MarketItem[]",
          "name": "",
          "type": "tuple[]"
        }
      ],
      "stateMutability": "view",
      "type": "function"
    },
    {
      "inputs": [
        {
          "internalType": "uint256",
          "name": "tokenId",
          "type": "uint256"
        }
      ],
      "name": "getItemByTokenId",
      "outputs": [
        {
          "components": [
            {
              "internalType": "uint256",
              "name": "itemId",
              "type": "uint256"
            },
            {
              "internalType": "uint256",
              "name": "tokenId",
              "type": "uint256"
            },
            {
              "internalType": "address",
              "name": "nftContract",
              "type": "address"
            },
            {
              "internalType": "address payable",
              "name": "owner",
              "type": "address"
            },
            {
              "internalType": "address payable",
              "name": "seller",
              "type": "address"
            },
            {
              "internalType": "uint256",
              "name": "price",
              "type": "uint256"
            },
            {
              "internalType": "enum NFTMarket.MarketItemStatus",
              "name": "status",
              "type": "uint8"
            }
          ],
          "internalType": "struct NFTMarket.MarketItem",
          "name": "item",
          "type": "tuple"
        }
      ],
      "stateMutability": "view",
      "type": "function"
    },
    {
      "inputs": [
        {
          "internalType": "uint256",
          "name": "limit",
          "type": "uint256"
        }
      ],
      "name": "getLastMinted",
      "outputs": [
        {
          "components": [
            {
              "internalType": "uint256",
              "name": "itemId",
              "type": "uint256"
            },
            {
              "internalType": "uint256",
              "name": "tokenId",
              "type": "uint256"
            },
            {
              "internalType": "address",
              "name": "nftContract",
              "type": "address"
            },
            {
              "internalType": "address payable",
              "name": "owner",
              "type": "address"
            },
            {
              "internalType": "address payable",
              "name": "seller",
              "type": "address"
            },
            {
              "internalType": "uint256",
              "name": "price",
              "type": "uint256"
            },
            {
              "internalType": "enum NFTMarket.MarketItemStatus",
              "name": "status",
              "type": "uint8"
            }
          ],
          "internalType": "struct NFTMarket.MarketItem[]",
          "name": "",
          "type": "tuple[]"
        }
      ],
      "stateMutability": "view",
      "type": "function"
    },
    {
      "inputs": [],
      "name": "getListingPrice",
      "outputs": [
        {
          "internalType": "uint256",
          "name": "",
          "type": "uint256"
        }
      ],
      "stateMutability": "view",
      "type": "function"
    },
    {
      "inputs": [
        {
          "internalType": "uint256",
          "name": "limit",
          "type": "uint256"
        }
      ],
      "name": "getMarketItems",
      "outputs": [
        {
          "components": [
            {
              "internalType": "uint256",
              "name": "itemId",
              "type": "uint256"
            },
            {
              "internalType": "uint256",
              "name": "tokenId",
              "type": "uint256"
            },
            {
              "internalType": "address",
              "name": "nftContract",
              "type": "address"
            },
            {
              "internalType": "address payable",
              "name": "owner",
              "type": "address"
            },
            {
              "internalType": "address payable",
              "name": "seller",
              "type": "address"
            },
            {
              "internalType": "uint256",
              "name": "price",
              "type": "uint256"
            },
            {
              "internalType": "enum NFTMarket.MarketItemStatus",
              "name": "status",
              "type": "uint8"
            }
          ],
          "internalType": "struct NFTMarket.MarketItem[]",
          "name": "",
          "type": "tuple[]"
        }
      ],
      "stateMutability": "view",
      "type": "function"
    },
    {
      "inputs": [
        {
          "internalType": "uint256",
          "name": "",
          "type": "uint256"
        }
      ],
      "name": "itemIdToMarketItem",
      "outputs": [
        {
          "internalType": "uint256",
          "name": "itemId",
          "type": "uint256"
        },
        {
          "internalType": "uint256",
          "name": "tokenId",
          "type": "uint256"
        },
        {
          "internalType": "address",
          "name": "nftContract",
          "type": "address"
        },
        {
          "internalType": "address payable",
          "name": "owner",
          "type": "address"
        },
        {
          "internalType": "address payable",
          "name": "seller",
          "type": "address"
        },
        {
          "internalType": "uint256",
          "name": "price",
          "type": "uint256"
        },
        {
          "internalType": "enum NFTMarket.MarketItemStatus",
          "name": "status",
          "type": "uint8"
        }
      ],
      "stateMutability": "view",
      "type": "function"
    },
    {
      "inputs": [
        {
          "internalType": "address",
          "name": "nftContract",
          "type": "address"
        },
        {
          "internalType": "uint256",
          "name": "itemId",
          "type": "uint256"
        },
        {
          "internalType": "uint256",
          "name": "price",
          "type": "uint256"
        }
      ],
      "name": "listItem",
      "outputs": [],
      "stateMutability": "payable",
      "type": "function"
    },
    {
      "inputs": [
        {
          "internalType": "uint256",
          "name": "price",
          "type": "uint256"
        }
      ],
      "name": "setListingPrice",
      "outputs": [
        {
          "internalType": "uint256",
          "name": "",
          "type": "uint256"
        }
      ],
      "stateMutability": "nonpayable",
      "type": "function"
    }
  ],
  "bytecode": "0x60806040526658d15e1762800060055534801561001b57600080fd5b50600160008190555033600460006101000a81548173ffffffffffffffffffffffffffffffffffffffff021916908373ffffffffffffffffffffffffffffffffffffffff160217905550613d5d806100746000396000f3fe6080604052600436106100a75760003560e01c8063851c564611610064578063851c5646146101ed57806389bfd38f1461022a5780638d2a886e14610246578063a425dd0914610283578063b520fa8f146102b3578063ca90e89c146102f0576100a7565b806312e85585146100ac57806317ef642e146100d75780632c9e59e81461011a57806358eb2df5146101575780635e4d1cc4146101735780637c726b69146101b0575b600080fd5b3480156100b857600080fd5b506100c1610320565b6040516100ce919061370b565b60405180910390f35b3480156100e357600080fd5b506100fe60048036038101906100f99190612f0e565b61032a565b6040516101119796959493929190613726565b60405180910390f35b34801561012657600080fd5b50610141600480360381019061013c9190612f0e565b6103d9565b60405161014e919061354e565b60405180910390f35b610171600480360381019061016c9190612ebf565b6109d8565b005b34801561017f57600080fd5b5061019a60048036038101906101959190612f0e565b610df5565b6040516101a7919061354e565b60405180910390f35b3480156101bc57600080fd5b506101d760048036038101906101d29190612f0e565b6111b6565b6040516101e4919061370b565b60405180910390f35b3480156101f957600080fd5b50610214600480360381019061020f9190612f0e565b611259565b604051610221919061354e565b60405180910390f35b610244600480360381019061023f9190612ebf565b611700565b005b34801561025257600080fd5b5061026d60048036038101906102689190612f0e565b6119a1565b60405161027a919061354e565b60405180910390f35b61029d60048036038101906102989190612e83565b611d76565b6040516102aa91906136f0565b60405180910390f35b3480156102bf57600080fd5b506102da60048036038101906102d59190612f0e565b612405565b6040516102e791906136f0565b60405180910390f35b61030a60048036038101906103059190612e83565b612686565b60405161031791906136f0565b60405180910390f35b6000600554905090565b60066020528060005260406000206000915090508060000154908060010154908060020160009054906101000a900473ffffffffffffffffffffffffffffffffffffffff16908060030160009054906101000a900473ffffffffffffffffffffffffffffffffffffffff16908060040160009054906101000a900473ffffffffffffffffffffffffffffffffffffffff16908060050154908060060160009054906101000a900460ff16905087565b606060006103e76001612d09565b905060008060005b8381101561053c573373ffffffffffffffffffffffffffffffffffffffff166006600060018461041f91906137df565b815260200190815260200160002060030160009054906101000a900473ffffffffffffffffffffffffffffffffffffffff1673ffffffffffffffffffffffffffffffffffffffff161480156105145750600060028111156104a9577f4e487b7100000000000000000000000000000000000000000000000000000000600052602160045260246000fd5b600660006001846104ba91906137df565b815260200190815260200160002060060160009054906101000a900460ff166002811115610511577f4e487b7100000000000000000000000000000000000000000000000000000000600052602160045260246000fd5b14155b156105295760018361052691906137df565b92505b80806105349061393c565b9150506103ef565b5060008214156105cb57600067ffffffffffffffff811115610587577f4e487b7100000000000000000000000000000000000000000000000000000000600052604160045260246000fd5b6040519080825280602002602001820160405280156105c057816020015b6105ad612da2565b8152602001906001900390816105a55790505b5093505050506109d3565b60006105d78684612d17565b905060008167ffffffffffffffff81111561061b577f4e487b7100000000000000000000000000000000000000000000000000000000600052604160045260246000fd5b60405190808252806020026020018201604052801561065457816020015b610641612da2565b8152602001906001900390816106395790505b50905060005b858110156109c9578284141561066f576109c9565b3373ffffffffffffffffffffffffffffffffffffffff166006600060018461069791906137df565b815260200190815260200160002060030160009054906101000a900473ffffffffffffffffffffffffffffffffffffffff1673ffffffffffffffffffffffffffffffffffffffff1614801561078c575060006002811115610721577f4e487b7100000000000000000000000000000000000000000000000000000000600052602160045260246000fd5b6006600060018461073291906137df565b815260200190815260200160002060060160009054906101000a900460ff166002811115610789577f4e487b7100000000000000000000000000000000000000000000000000000000600052602160045260246000fd5b14155b156109b657600660006001836107a291906137df565b81526020019081526020016000206040518060e001604052908160008201548152602001600182015481526020016002820160009054906101000a900473ffffffffffffffffffffffffffffffffffffffff1673ffffffffffffffffffffffffffffffffffffffff1673ffffffffffffffffffffffffffffffffffffffff1681526020016003820160009054906101000a900473ffffffffffffffffffffffffffffffffffffffff1673ffffffffffffffffffffffffffffffffffffffff1673ffffffffffffffffffffffffffffffffffffffff1681526020016004820160009054906101000a900473ffffffffffffffffffffffffffffffffffffffff1673ffffffffffffffffffffffffffffffffffffffff1673ffffffffffffffffffffffffffffffffffffffff168152602001600582015481526020016006820160009054906101000a900460ff166002811115610926577f4e487b7100000000000000000000000000000000000000000000000000000000600052602160045260246000fd5b600281111561095e577f4e487b7100000000000000000000000000000000000000000000000000000000600052602160045260246000fd5b8152505082858151811061099b577f4e487b7100000000000000000000000000000000000000000000000000000000600052603260045260246000fd5b60200260200101819052506001846109b391906137df565b93505b80806109c19061393c565b91505061065a565b5080955050505050505b919050565b60026000541415610a1e576040517f08c379a0000000000000000000000000000000000000000000000000000000008152600401610a15906136d0565b60405180910390fd5b600260008190555060008111610a69576040517f08c379a0000000000000000000000000000000000000000000000000000000008152600401610a60906135f0565b60405180910390fd5b600554341015610aae576040517f08c379a0000000000000000000000000000000000000000000000000000000008152600401610aa590613670565b60405180910390fd5b610ab86001612d09565b821015610afa576040517f08c379a0000000000000000000000000000000000000000000000000000000008152600401610af1906135b0565b60405180910390fd5b610b046001612d30565b6000610b106001612d09565b90506040518060e001604052808281526020018481526020018573ffffffffffffffffffffffffffffffffffffffff168152602001600073ffffffffffffffffffffffffffffffffffffffff1681526020013373ffffffffffffffffffffffffffffffffffffffff16815260200183815260200160006002811115610bbe577f4e487b7100000000000000000000000000000000000000000000000000000000600052602160045260246000fd5b81525060066000838152602001908152602001600020600082015181600001556020820151816001015560408201518160020160006101000a81548173ffffffffffffffffffffffffffffffffffffffff021916908373ffffffffffffffffffffffffffffffffffffffff16021790555060608201518160030160006101000a81548173ffffffffffffffffffffffffffffffffffffffff021916908373ffffffffffffffffffffffffffffffffffffffff16021790555060808201518160040160006101000a81548173ffffffffffffffffffffffffffffffffffffffff021916908373ffffffffffffffffffffffffffffffffffffffff16021790555060a0820151816005015560c08201518160060160006101000a81548160ff02191690836002811115610d18577f4e487b7100000000000000000000000000000000000000000000000000000000600052602160045260246000fd5b02179055509050508373ffffffffffffffffffffffffffffffffffffffff166323b872dd3330866040518463ffffffff1660e01b8152600401610d5d939291906134bf565b600060405180830381600087803b158015610d7757600080fd5b505af1158015610d8b573d6000803e3d6000fd5b505050508373ffffffffffffffffffffffffffffffffffffffff1683827fabc8385e055fdc42c1c965dc3d77f25d13eed766025781e532919252fd3392b5600033876000604051610ddf94939291906134f6565b60405180910390a4506001600081905550505050565b60606000610e036001612d09565b90506000610e116002612d09565b610e1b6003612d09565b83610e2691906137df565b610e309190613835565b9050600080610e3f8684612d17565b905060008167ffffffffffffffff811115610e83577f4e487b7100000000000000000000000000000000000000000000000000000000600052604160045260246000fd5b604051908082528060200260200182016040528015610ebc57816020015b610ea9612da2565b815260200190600190039081610ea15790505b50905060008590505b60008111156111a85782841415610edb576111a8565b60006002811115610f15577f4e487b7100000000000000000000000000000000000000000000000000000000600052602160045260246000fd5b6006600083815260200190815260200160002060060160009054906101000a900460ff166002811115610f71577f4e487b7100000000000000000000000000000000000000000000000000000000600052602160045260246000fd5b1415611195576000600660008381526020019081526020016000206040518060e001604052908160008201548152602001600182015481526020016002820160009054906101000a900473ffffffffffffffffffffffffffffffffffffffff1673ffffffffffffffffffffffffffffffffffffffff1673ffffffffffffffffffffffffffffffffffffffff1681526020016003820160009054906101000a900473ffffffffffffffffffffffffffffffffffffffff1673ffffffffffffffffffffffffffffffffffffffff1673ffffffffffffffffffffffffffffffffffffffff1681526020016004820160009054906101000a900473ffffffffffffffffffffffffffffffffffffffff1673ffffffffffffffffffffffffffffffffffffffff1673ffffffffffffffffffffffffffffffffffffffff168152602001600582015481526020016006820160009054906101000a900460ff166002811115611102577f4e487b7100000000000000000000000000000000000000000000000000000000600052602160045260246000fd5b600281111561113a577f4e487b7100000000000000000000000000000000000000000000000000000000600052602160045260246000fd5b8152505090508083868151811061117a577f4e487b7100000000000000000000000000000000000000000000000000000000600052603260045260246000fd5b602002602001018190525084806111909061393c565b955050505b80806111a090613912565b915050610ec5565b508095505050505050919050565b60003373ffffffffffffffffffffffffffffffffffffffff16600460009054906101000a900473ffffffffffffffffffffffffffffffffffffffff1673ffffffffffffffffffffffffffffffffffffffff1614611248576040517f08c379a000000000000000000000000000000000000000000000000000000000815260040161123f90613650565b60405180910390fd5b816005819055506005549050919050565b606060006112676001612d09565b905060008060005b83811015611310573373ffffffffffffffffffffffffffffffffffffffff166006600060018461129f91906137df565b815260200190815260200160002060040160009054906101000a900473ffffffffffffffffffffffffffffffffffffffff1673ffffffffffffffffffffffffffffffffffffffff1614156112fd576001836112fa91906137df565b92505b80806113089061393c565b91505061126f565b50600082141561139f57600067ffffffffffffffff81111561135b577f4e487b7100000000000000000000000000000000000000000000000000000000600052604160045260246000fd5b60405190808252806020026020018201604052801561139457816020015b611381612da2565b8152602001906001900390816113795790505b5093505050506116fb565b60006113ab8684612d17565b905060008167ffffffffffffffff8111156113ef577f4e487b7100000000000000000000000000000000000000000000000000000000600052604160045260246000fd5b60405190808252806020026020018201604052801561142857816020015b611415612da2565b81526020019060019003908161140d5790505b50905060005b858110156116f15782841415611443576116f1565b3373ffffffffffffffffffffffffffffffffffffffff166006600060018461146b91906137df565b815260200190815260200160002060040160009054906101000a900473ffffffffffffffffffffffffffffffffffffffff1673ffffffffffffffffffffffffffffffffffffffff1614156116de57600660006001836114ca91906137df565b81526020019081526020016000206040518060e001604052908160008201548152602001600182015481526020016002820160009054906101000a900473ffffffffffffffffffffffffffffffffffffffff1673ffffffffffffffffffffffffffffffffffffffff1673ffffffffffffffffffffffffffffffffffffffff1681526020016003820160009054906101000a900473ffffffffffffffffffffffffffffffffffffffff1673ffffffffffffffffffffffffffffffffffffffff1673ffffffffffffffffffffffffffffffffffffffff1681526020016004820160009054906101000a900473ffffffffffffffffffffffffffffffffffffffff1673ffffffffffffffffffffffffffffffffffffffff1673ffffffffffffffffffffffffffffffffffffffff168152602001600582015481526020016006820160009054906101000a900460ff16600281111561164e577f4e487b7100000000000000000000000000000000000000000000000000000000600052602160045260246000fd5b6002811115611686577f4e487b7100000000000000000000000000000000000000000000000000000000600052602160045260246000fd5b815250508285815181106116c3577f4e487b7100000000000000000000000000000000000000000000000000000000600052603260045260246000fd5b60200260200101819052506001846116db91906137df565b93505b80806116e99061393c565b91505061142e565b5080955050505050505b919050565b60006006600084815260200190815260200160002090506000816001015490508160030160009054906101000a900473ffffffffffffffffffffffffffffffffffffffff1673ffffffffffffffffffffffffffffffffffffffff163373ffffffffffffffffffffffffffffffffffffffff16146117b2576040517f08c379a00000000000000000000000000000000000000000000000000000000081526004016117a9906136b0565b60405180910390fd5b600160028111156117ec577f4e487b7100000000000000000000000000000000000000000000000000000000600052602160045260246000fd5b8260060160009054906101000a900460ff166002811115611836577f4e487b7100000000000000000000000000000000000000000000000000000000600052602160045260246000fd5b14611876576040517f08c379a000000000000000000000000000000000000000000000000000000000815260040161186d90613590565b60405180910390fd5b6005543410156118bb576040517f08c379a00000000000000000000000000000000000000000000000000000000081526004016118b290613630565b60405180910390fd5b82826005018190555060008260060160006101000a81548160ff02191690836002811115611912577f4e487b7100000000000000000000000000000000000000000000000000000000600052602160045260246000fd5b02179055506119216003612d30565b8473ffffffffffffffffffffffffffffffffffffffff1681857fabc8385e055fdc42c1c965dc3d77f25d13eed766025781e532919252fd3392b533600460009054906101000a900473ffffffffffffffffffffffffffffffffffffffff16886000604051611992949392919061340f565b60405180910390a45050505050565b606060006119af6001612d09565b905060006119bd6002612d09565b6119c76003612d09565b836119d291906137df565b6119dc9190613835565b90506000806119eb8684612d17565b905060008167ffffffffffffffff811115611a2f577f4e487b7100000000000000000000000000000000000000000000000000000000600052604160045260246000fd5b604051908082528060200260200182016040528015611a6857816020015b611a55612da2565b815260200190600190039081611a4d5790505b50905060005b85811015611d685782841415611a8357611d68565b60006002811115611abd577f4e487b7100000000000000000000000000000000000000000000000000000000600052602160045260246000fd5b60066000600184611ace91906137df565b815260200190815260200160002060060160009054906101000a900460ff166002811115611b25577f4e487b7100000000000000000000000000000000000000000000000000000000600052602160045260246000fd5b1415611d5557600060066000600184611b3e91906137df565b81526020019081526020016000206040518060e001604052908160008201548152602001600182015481526020016002820160009054906101000a900473ffffffffffffffffffffffffffffffffffffffff1673ffffffffffffffffffffffffffffffffffffffff1673ffffffffffffffffffffffffffffffffffffffff1681526020016003820160009054906101000a900473ffffffffffffffffffffffffffffffffffffffff1673ffffffffffffffffffffffffffffffffffffffff1673ffffffffffffffffffffffffffffffffffffffff1681526020016004820160009054906101000a900473ffffffffffffffffffffffffffffffffffffffff1673ffffffffffffffffffffffffffffffffffffffff1673ffffffffffffffffffffffffffffffffffffffff168152602001600582015481526020016006820160009054906101000a900460ff166002811115611cc2577f4e487b7100000000000000000000000000000000000000000000000000000000600052602160045260246000fd5b6002811115611cfa577f4e487b7100000000000000000000000000000000000000000000000000000000600052602160045260246000fd5b81525050905080838681518110611d3a577f4e487b7100000000000000000000000000000000000000000000000000000000600052603260045260246000fd5b60200260200101819052508480611d509061393c565b955050505b8080611d609061393c565b915050611a6e565b508095505050505050919050565b611d7e612da2565b60026000541415611dc4576040517f08c379a0000000000000000000000000000000000000000000000000000000008152600401611dbb906136d0565b60405180910390fd5b60026000819055506000600660008481526020019081526020016000206040518060e001604052908160008201548152602001600182015481526020016002820160009054906101000a900473ffffffffffffffffffffffffffffffffffffffff1673ffffffffffffffffffffffffffffffffffffffff1673ffffffffffffffffffffffffffffffffffffffff1681526020016003820160009054906101000a900473ffffffffffffffffffffffffffffffffffffffff1673ffffffffffffffffffffffffffffffffffffffff1673ffffffffffffffffffffffffffffffffffffffff1681526020016004820160009054906101000a900473ffffffffffffffffffffffffffffffffffffffff1673ffffffffffffffffffffffffffffffffffffffff1673ffffffffffffffffffffffffffffffffffffffff168152602001600582015481526020016006820160009054906101000a900460ff166002811115611f57577f4e487b7100000000000000000000000000000000000000000000000000000000600052602160045260246000fd5b6002811115611f8f577f4e487b7100000000000000000000000000000000000000000000000000000000600052602160045260246000fd5b81525050905060008160a00151905060008260200151905081341015611fea576040517f08c379a0000000000000000000000000000000000000000000000000000000008152600401611fe190613630565b60405180910390fd5b8573ffffffffffffffffffffffffffffffffffffffff166323b872dd3033846040518463ffffffff1660e01b8152600401612027939291906134bf565b600060405180830381600087803b15801561204157600080fd5b505af1158015612055573d6000803e3d6000fd5b5050505060018360c001906002811115612098577f4e487b7100000000000000000000000000000000000000000000000000000000600052602160045260246000fd5b908160028111156120d2577f4e487b7100000000000000000000000000000000000000000000000000000000600052602160045260246000fd5b8152505033836060019073ffffffffffffffffffffffffffffffffffffffff16908173ffffffffffffffffffffffffffffffffffffffff16815250506121186002612d30565b826080015173ffffffffffffffffffffffffffffffffffffffff166108fc839081150290604051600060405180830381858888f19350505050158015612162573d6000803e3d6000fd5b50600460009054906101000a900473ffffffffffffffffffffffffffffffffffffffff1673ffffffffffffffffffffffffffffffffffffffff166108fc6005549081150290604051600060405180830381858888f193505050501580156121cd573d6000803e3d6000fd5b508260066000878152602001908152602001600020600082015181600001556020820151816001015560408201518160020160006101000a81548173ffffffffffffffffffffffffffffffffffffffff021916908373ffffffffffffffffffffffffffffffffffffffff16021790555060608201518160030160006101000a81548173ffffffffffffffffffffffffffffffffffffffff021916908373ffffffffffffffffffffffffffffffffffffffff16021790555060808201518160040160006101000a81548173ffffffffffffffffffffffffffffffffffffffff021916908373ffffffffffffffffffffffffffffffffffffffff16021790555060a0820151816005015560c08201518160060160006101000a81548160ff02191690836002811115612326577f4e487b7100000000000000000000000000000000000000000000000000000000600052602160045260246000fd5b02179055509050508573ffffffffffffffffffffffffffffffffffffffff1681867fabc8385e055fdc42c1c965dc3d77f25d13eed766025781e532919252fd3392b5600660008a815260200190815260200160002060030160009054906101000a900473ffffffffffffffffffffffffffffffffffffffff16600660008b815260200190815260200160002060040160009054906101000a900473ffffffffffffffffffffffffffffffffffffffff168760016040516123e99493929190613380565b60405180910390a4829350505050600160008190555092915050565b61240d612da2565b60006124196001612d09565b905060005b8181101561263d57836006600060018461243891906137df565b815260200190815260200160002060010154141561262a576006600060018361246191906137df565b81526020019081526020016000206040518060e001604052908160008201548152602001600182015481526020016002820160009054906101000a900473ffffffffffffffffffffffffffffffffffffffff1673ffffffffffffffffffffffffffffffffffffffff1673ffffffffffffffffffffffffffffffffffffffff1681526020016003820160009054906101000a900473ffffffffffffffffffffffffffffffffffffffff1673ffffffffffffffffffffffffffffffffffffffff1673ffffffffffffffffffffffffffffffffffffffff1681526020016004820160009054906101000a900473ffffffffffffffffffffffffffffffffffffffff1673ffffffffffffffffffffffffffffffffffffffff1673ffffffffffffffffffffffffffffffffffffffff168152602001600582015481526020016006820160009054906101000a900460ff1660028111156125e5577f4e487b7100000000000000000000000000000000000000000000000000000000600052602160045260246000fd5b600281111561261d577f4e487b7100000000000000000000000000000000000000000000000000000000600052602160045260246000fd5b8152505092505050612681565b80806126359061393c565b91505061241e565b50600061267f576040517f08c379a000000000000000000000000000000000000000000000000000000000815260040161267690613610565b60405180910390fd5b505b919050565b61268e612da2565b600260005414156126d4576040517f08c379a00000000000000000000000000000000000000000000000000000000081526004016126cb906136d0565b60405180910390fd5b600260008190555060006126e783612405565b905060006002811115612723577f4e487b7100000000000000000000000000000000000000000000000000000000600052602160045260246000fd5b8160c001516002811115612760577f4e487b7100000000000000000000000000000000000000000000000000000000600052602160045260246000fd5b146127a0576040517f08c379a000000000000000000000000000000000000000000000000000000000815260040161279790613570565b60405180910390fd5b8060a001513410156127e7576040517f08c379a00000000000000000000000000000000000000000000000000000000081526004016127de90613690565b60405180910390fd5b8373ffffffffffffffffffffffffffffffffffffffff166323b872dd826060015133866040518463ffffffff1660e01b8152600401612828939291906133d8565b600060405180830381600087803b15801561284257600080fd5b505af1158015612856573d6000803e3d6000fd5b505050506128646003612d46565b806060015173ffffffffffffffffffffffffffffffffffffffff166108fc8260a001519081150290604051600060405180830381858888f193505050501580156128b2573d6000803e3d6000fd5b5060018160c0019060028111156128f2577f4e487b7100000000000000000000000000000000000000000000000000000000600052602160045260246000fd5b9081600281111561292c577f4e487b7100000000000000000000000000000000000000000000000000000000600052602160045260246000fd5b8152505033816060019073ffffffffffffffffffffffffffffffffffffffff16908173ffffffffffffffffffffffffffffffffffffffff1681525050806006600083600001518152602001908152602001600020600082015181600001556020820151816001015560408201518160020160006101000a81548173ffffffffffffffffffffffffffffffffffffffff021916908373ffffffffffffffffffffffffffffffffffffffff16021790555060608201518160030160006101000a81548173ffffffffffffffffffffffffffffffffffffffff021916908373ffffffffffffffffffffffffffffffffffffffff16021790555060808201518160040160006101000a81548173ffffffffffffffffffffffffffffffffffffffff021916908373ffffffffffffffffffffffffffffffffffffffff16021790555060a0820151816005015560c08201518160060160006101000a81548160ff02191690836002811115612ac4577f4e487b7100000000000000000000000000000000000000000000000000000000600052602160045260246000fd5b02179055509050508373ffffffffffffffffffffffffffffffffffffffff168382600001517fabc8385e055fdc42c1c965dc3d77f25d13eed766025781e532919252fd3392b53385606001518660a001516001604051612b279493929190613467565b60405180910390a460066000826000015181526020019081526020016000206040518060e001604052908160008201548152602001600182015481526020016002820160009054906101000a900473ffffffffffffffffffffffffffffffffffffffff1673ffffffffffffffffffffffffffffffffffffffff1673ffffffffffffffffffffffffffffffffffffffff1681526020016003820160009054906101000a900473ffffffffffffffffffffffffffffffffffffffff1673ffffffffffffffffffffffffffffffffffffffff1673ffffffffffffffffffffffffffffffffffffffff1681526020016004820160009054906101000a900473ffffffffffffffffffffffffffffffffffffffff1673ffffffffffffffffffffffffffffffffffffffff1673ffffffffffffffffffffffffffffffffffffffff168152602001600582015481526020016006820160009054906101000a900460ff166002811115612cbc577f4e487b7100000000000000000000000000000000000000000000000000000000600052602160045260246000fd5b6002811115612cf4577f4e487b7100000000000000000000000000000000000000000000000000000000600052602160045260246000fd5b81525050915050600160008190555092915050565b600081600001549050919050565b6000818310612d265781612d28565b825b905092915050565b6001816000016000828254019250508190555050565b60008160000154905060008111612d92576040517f08c379a0000000000000000000000000000000000000000000000000000000008152600401612d89906135d0565b60405180910390fd5b6001810382600001819055505050565b6040518060e001604052806000815260200160008152602001600073ffffffffffffffffffffffffffffffffffffffff168152602001600073ffffffffffffffffffffffffffffffffffffffff168152602001600073ffffffffffffffffffffffffffffffffffffffff1681526020016000815260200160006002811115612e53577f4e487b7100000000000000000000000000000000000000000000000000000000600052602160045260246000fd5b81525090565b600081359050612e6881613cf9565b92915050565b600081359050612e7d81613d10565b92915050565b60008060408385031215612e9657600080fd5b6000612ea485828601612e59565b9250506020612eb585828601612e6e565b9150509250929050565b600080600060608486031215612ed457600080fd5b6000612ee286828701612e59565b9350506020612ef386828701612e6e565b9250506040612f0486828701612e6e565b9150509250925092565b600060208284031215612f2057600080fd5b6000612f2e84828501612e6e565b91505092915050565b6000612f438383613246565b60e08301905092915050565b612f58816138ca565b82525050565b612f678161387b565b82525050565b612f768161387b565b82525050565b612f8581613869565b82525050565b612f9481613869565b82525050565b6000612fa5826137a5565b612faf81856137bd565b9350612fba83613795565b8060005b83811015612feb578151612fd28882612f37565b9750612fdd836137b0565b925050600181019050612fbe565b5085935050505092915050565b613001816138dc565b82525050565b613010816138dc565b82525050565b60006130236025836137ce565b915061302e826139e3565b604082019050919050565b6000613046600f836137ce565b915061305182613a32565b602082019050919050565b60006130696020836137ce565b915061307482613a5b565b602082019050919050565b600061308c600d836137ce565b915061309782613a84565b602082019050919050565b60006130af601b836137ce565b91506130ba82613aad565b602082019050919050565b60006130d26025836137ce565b91506130dd82613ad6565b604082019050919050565b60006130f56010836137ce565b915061310082613b25565b602082019050919050565b60006131186020836137ce565b915061312382613b4e565b602082019050919050565b600061313b6008836137ce565b915061314682613b77565b602082019050919050565b600061315e6024836137ce565b915061316982613ba0565b604082019050919050565b60006131816017836137ce565b915061318c82613bef565b602082019050919050565b60006131a46008836137ce565b91506131af82613c18565b602082019050919050565b60006131c76011836137ce565b91506131d282613c41565b602082019050919050565b60006131ea601a836137ce565b91506131f582613c6a565b602082019050919050565b600061320d600b836137ce565b915061321882613c93565b602082019050919050565b6000613230601f836137ce565b915061323b82613cbc565b602082019050919050565b60e08201600082015161325c6000850182613362565b50602082015161326f6020850182613362565b5060408201516132826040850182612f7c565b5060608201516132956060850182612f5e565b5060808201516132a86080850182612f5e565b5060a08201516132bb60a0850182613362565b5060c08201516132ce60c0850182612ff8565b50505050565b60e0820160008201516132ea6000850182613362565b5060208201516132fd6020850182613362565b5060408201516133106040850182612f7c565b5060608201516133236060850182612f5e565b5060808201516133366080850182612f5e565b5060a082015161334960a0850182613362565b5060c082015161335c60c0850182612ff8565b50505050565b61336b816138c0565b82525050565b61337a816138c0565b82525050565b600060a0820190506133956000830187612f4f565b6133a26020830186612f4f565b6133af6040830185613371565b6133bc6060830184613007565b81810360808301526133cd81613039565b905095945050505050565b60006060820190506133ed6000830186612f4f565b6133fa6020830185612f8b565b6134076040830184613371565b949350505050565b600060a0820190506134246000830187612f8b565b6134316020830186612f4f565b61343e6040830185613371565b61344b6060830184613007565b818103608083015261345c8161312e565b905095945050505050565b600060a08201905061347c6000830187612f8b565b6134896020830186612f4f565b6134966040830185613371565b6134a36060830184613007565b81810360808301526134b481613197565b905095945050505050565b60006060820190506134d46000830186612f8b565b6134e16020830185612f8b565b6134ee6040830184613371565b949350505050565b600060a08201905061350b6000830187612f8b565b6135186020830186612f8b565b6135256040830185613371565b6135326060830184613007565b818103608083015261354381613200565b905095945050505050565b600060208201905081810360008301526135688184612f9a565b905092915050565b6000602082019050818103600083015261358981613016565b9050919050565b600060208201905081810360008301526135a98161305c565b9050919050565b600060208201905081810360008301526135c98161307f565b9050919050565b600060208201905081810360008301526135e9816130a2565b9050919050565b60006020820190508181036000830152613609816130c5565b9050919050565b60006020820190508181036000830152613629816130e8565b9050919050565b600060208201905081810360008301526136498161310b565b9050919050565b6000602082019050818103600083015261366981613151565b9050919050565b6000602082019050818103600083015261368981613174565b9050919050565b600060208201905081810360008301526136a9816131ba565b9050919050565b600060208201905081810360008301526136c9816131dd565b9050919050565b600060208201905081810360008301526136e981613223565b9050919050565b600060e08201905061370560008301846132d4565b92915050565b60006020820190506137206000830184613371565b92915050565b600060e08201905061373b600083018a613371565b6137486020830189613371565b6137556040830188612f8b565b6137626060830187612f6d565b61376f6080830186612f6d565b61377c60a0830185613371565b61378960c0830184613007565b98975050505050505050565b6000819050602082019050919050565b600081519050919050565b6000602082019050919050565b600082825260208201905092915050565b600082825260208201905092915050565b60006137ea826138c0565b91506137f5836138c0565b9250827fffffffffffffffffffffffffffffffffffffffffffffffffffffffffffffffff0382111561382a57613829613985565b5b828201905092915050565b6000613840826138c0565b915061384b836138c0565b92508282101561385e5761385d613985565b5b828203905092915050565b6000613874826138a0565b9050919050565b6000613886826138a0565b9050919050565b600081905061389b82613ce5565b919050565b600073ffffffffffffffffffffffffffffffffffffffff82169050919050565b6000819050919050565b60006138d5826138ee565b9050919050565b60006138e78261388d565b9050919050565b60006138f982613900565b9050919050565b600061390b826138a0565b9050919050565b600061391d826138c0565b9150600082141561393157613930613985565b5b600182039050919050565b6000613947826138c0565b91507fffffffffffffffffffffffffffffffffffffffffffffffffffffffffffffffff82141561397a57613979613985565b5b600182019050919050565b7f4e487b7100000000000000000000000000000000000000000000000000000000600052601160045260246000fd5b7f4e487b7100000000000000000000000000000000000000000000000000000000600052602160045260246000fd5b7f4974656d7320546861742061696e74204c69737465642063616e74206265205360008201527f6f6c646564000000000000000000000000000000000000000000000000000000602082015250565b7f5472616e73666572726564204e46540000000000000000000000000000000000600082015250565b7f43616e74206c697374207468617420697320616c7265616479204c6973746564600082015250565b7f696e76616c696420546f6b656e00000000000000000000000000000000000000600082015250565b7f436f756e7465723a2064656372656d656e74206f766572666c6f770000000000600082015250565b7f4974656d205072696365206d6f73742062652067726561746572207468656e2060008201527f3120574549000000000000000000000000000000000000000000000000000000602082015250565b7f496e76616c696420546f6b656e20494400000000000000000000000000000000600082015250565b7f6b696e646c79207472616e7366657220746865206c6973746564207072696365600082015250565b7f4c697374204e4654000000000000000000000000000000000000000000000000600082015250565b7f4f6e6c7920746865204f776e65722043616e20736574204c697374696e67205060008201527f7269636500000000000000000000000000000000000000000000000000000000602082015250565b7f496e737566666963656e74206c697374696e6720666565000000000000000000600082015250565b7f536f6c64204e4654000000000000000000000000000000000000000000000000600082015250565b7f496e737566666963656e742066756e6473000000000000000000000000000000600082015250565b7f796f75206d757374206d75737420626520746865206f776e6572000000000000600082015250565b7f43726561746564204e4654000000000000000000000000000000000000000000600082015250565b7f5265656e7472616e637947756172643a207265656e7472616e742063616c6c00600082015250565b60038110613cf657613cf56139b4565b5b50565b613d0281613869565b8114613d0d57600080fd5b50565b613d19816138c0565b8114613d2457600080fd5b5056fea264697066735822122082a24f30a8319dc407a373af47414b00b64b17ae926a6100131c2d4799a3e04f64736f6c63430008040033",
  "linkReferences": {},
  "deployedLinkReferences": {}
}