{
  "_format": "hh-sol-artifact-1",
  "contractName": "NFTMarket",
  "sourceName": "contracts/NFTMarket.sol",
  "abi": [
    {
      "inputs": [],
      "stateMutability": "nonpayable",
      "type": "constructor"
    },
    {
      "anonymous": false,
      "inputs": [
        {
          "indexed": true,
          "internalType": "uint256",
          "name": "itemId",
          "type": "uint256"
        },
        {
          "indexed": true,
          "internalType": "uint256",
          "name": "tokenId",
          "type": "uint256"
        },
        {
          "indexed": true,
          "internalType": "address",
          "name": "nftContract",
          "type": "address"
        },
        {
          "indexed": false,
          "internalType": "address",
          "name": "owner",
          "type": "address"
        },
        {
          "indexed": false,
          "internalType": "address",
          "name": "seller",
          "type": "address"
        },
        {
          "indexed": false,
          "internalType": "uint256",
          "name": "price",
          "type": "uint256"
        },
        {
          "indexed": false,
          "internalType": "enum NFTMarket.MarketItemStatus",
          "name": "status",
          "type": "uint8"
        },
        {
          "indexed": false,
          "internalType": "string",
          "name": "message",
          "type": "string"
        }
      ],
      "name": "MarketItemEvent",
      "type": "event"
    },
    {
      "inputs": [
        {
          "internalType": "address",
          "name": "nftContract",
          "type": "address"
        },
        {
          "internalType": "uint256",
          "name": "tokenId",
          "type": "uint256"
        }
      ],
      "name": "BuyMarketItem",
      "outputs": [
        {
          "components": [
            {
              "internalType": "uint256",
              "name": "itemId",
              "type": "uint256"
            },
            {
              "internalType": "uint256",
              "name": "tokenId",
              "type": "uint256"
            },
            {
              "internalType": "address",
              "name": "nftContract",
              "type": "address"
            },
            {
              "internalType": "address payable",
              "name": "owner",
              "type": "address"
            },
            {
              "internalType": "address payable",
              "name": "seller",
              "type": "address"
            },
            {
              "internalType": "uint256",
              "name": "price",
              "type": "uint256"
            },
            {
              "internalType": "enum NFTMarket.MarketItemStatus",
              "name": "status",
              "type": "uint8"
            }
          ],
          "internalType": "struct NFTMarket.MarketItem",
          "name": "",
          "type": "tuple"
        }
      ],
      "stateMutability": "payable",
      "type": "function"
    },
    {
      "inputs": [
        {
          "internalType": "address",
          "name": "nftContract",
          "type": "address"
        },
        {
          "internalType": "uint256",
          "name": "tokenId",
          "type": "uint256"
        },
        {
          "internalType": "uint256",
          "name": "price",
          "type": "uint256"
        }
      ],
      "name": "createMarketItem",
      "outputs": [],
      "stateMutability": "payable",
      "type": "function"
    },
    {
      "inputs": [
        {
          "internalType": "address",
          "name": "nftContract",
          "type": "address"
        },
        {
          "internalType": "uint256",
          "name": "itemId",
          "type": "uint256"
        }
      ],
      "name": "createMarketItemSale",
      "outputs": [
        {
          "components": [
            {
              "internalType": "uint256",
              "name": "itemId",
              "type": "uint256"
            },
            {
              "internalType": "uint256",
              "name": "tokenId",
              "type": "uint256"
            },
            {
              "internalType": "address",
              "name": "nftContract",
              "type": "address"
            },
            {
              "internalType": "address payable",
              "name": "owner",
              "type": "address"
            },
            {
              "internalType": "address payable",
              "name": "seller",
              "type": "address"
            },
            {
              "internalType": "uint256",
              "name": "price",
              "type": "uint256"
            },
            {
              "internalType": "enum NFTMarket.MarketItemStatus",
              "name": "status",
              "type": "uint8"
            }
          ],
          "internalType": "struct NFTMarket.MarketItem",
          "name": "",
          "type": "tuple"
        }
      ],
      "stateMutability": "payable",
      "type": "function"
    },
    {
      "inputs": [
        {
          "internalType": "uint256",
          "name": "limit",
          "type": "uint256"
        }
      ],
      "name": "fetchMyNfts",
      "outputs": [
        {
          "components": [
            {
              "internalType": "uint256",
              "name": "itemId",
              "type": "uint256"
            },
            {
              "internalType": "uint256",
              "name": "tokenId",
              "type": "uint256"
            },
            {
              "internalType": "address",
              "name": "nftContract",
              "type": "address"
            },
            {
              "internalType": "address payable",
              "name": "owner",
              "type": "address"
            },
            {
              "internalType": "address payable",
              "name": "seller",
              "type": "address"
            },
            {
              "internalType": "uint256",
              "name": "price",
              "type": "uint256"
            },
            {
              "internalType": "enum NFTMarket.MarketItemStatus",
              "name": "status",
              "type": "uint8"
            }
          ],
          "internalType": "struct NFTMarket.MarketItem[]",
          "name": "",
          "type": "tuple[]"
        }
      ],
      "stateMutability": "view",
      "type": "function"
    },
    {
      "inputs": [
        {
          "internalType": "uint256",
          "name": "limit",
          "type": "uint256"
        }
      ],
      "name": "fetchNftsCreated",
      "outputs": [
        {
          "components": [
            {
              "internalType": "uint256",
              "name": "itemId",
              "type": "uint256"
            },
            {
              "internalType": "uint256",
              "name": "tokenId",
              "type": "uint256"
            },
            {
              "internalType": "address",
              "name": "nftContract",
              "type": "address"
            },
            {
              "internalType": "address payable",
              "name": "owner",
              "type": "address"
            },
            {
              "internalType": "address payable",
              "name": "seller",
              "type": "address"
            },
            {
              "internalType": "uint256",
              "name": "price",
              "type": "uint256"
            },
            {
              "internalType": "enum NFTMarket.MarketItemStatus",
              "name": "status",
              "type": "uint8"
            }
          ],
          "internalType": "struct NFTMarket.MarketItem[]",
          "name": "",
          "type": "tuple[]"
        }
      ],
      "stateMutability": "view",
      "type": "function"
    },
    {
      "inputs": [
        {
          "internalType": "uint256",
          "name": "limit",
          "type": "uint256"
        }
      ],
      "name": "getLastMinted",
      "outputs": [
        {
          "components": [
            {
              "internalType": "uint256",
              "name": "itemId",
              "type": "uint256"
            },
            {
              "internalType": "uint256",
              "name": "tokenId",
              "type": "uint256"
            },
            {
              "internalType": "address",
              "name": "nftContract",
              "type": "address"
            },
            {
              "internalType": "address payable",
              "name": "owner",
              "type": "address"
            },
            {
              "internalType": "address payable",
              "name": "seller",
              "type": "address"
            },
            {
              "internalType": "uint256",
              "name": "price",
              "type": "uint256"
            },
            {
              "internalType": "enum NFTMarket.MarketItemStatus",
              "name": "status",
              "type": "uint8"
            }
          ],
          "internalType": "struct NFTMarket.MarketItem[]",
          "name": "",
          "type": "tuple[]"
        }
      ],
      "stateMutability": "view",
      "type": "function"
    },
    {
      "inputs": [],
      "name": "getListingPrice",
      "outputs": [
        {
          "internalType": "uint256",
          "name": "",
          "type": "uint256"
        }
      ],
      "stateMutability": "view",
      "type": "function"
    },
    {
      "inputs": [
        {
          "internalType": "uint256",
          "name": "limit",
          "type": "uint256"
        }
      ],
      "name": "getMarketItems",
      "outputs": [
        {
          "components": [
            {
              "internalType": "uint256",
              "name": "itemId",
              "type": "uint256"
            },
            {
              "internalType": "uint256",
              "name": "tokenId",
              "type": "uint256"
            },
            {
              "internalType": "address",
              "name": "nftContract",
              "type": "address"
            },
            {
              "internalType": "address payable",
              "name": "owner",
              "type": "address"
            },
            {
              "internalType": "address payable",
              "name": "seller",
              "type": "address"
            },
            {
              "internalType": "uint256",
              "name": "price",
              "type": "uint256"
            },
            {
              "internalType": "enum NFTMarket.MarketItemStatus",
              "name": "status",
              "type": "uint8"
            }
          ],
          "internalType": "struct NFTMarket.MarketItem[]",
          "name": "",
          "type": "tuple[]"
        }
      ],
      "stateMutability": "view",
      "type": "function"
    },
    {
      "inputs": [
        {
          "internalType": "address",
          "name": "nftContract",
          "type": "address"
        },
        {
          "internalType": "uint256",
          "name": "itemId",
          "type": "uint256"
        },
        {
          "internalType": "uint256",
          "name": "price",
          "type": "uint256"
        }
      ],
      "name": "listItem",
      "outputs": [],
      "stateMutability": "payable",
      "type": "function"
    }
  ],
  "bytecode": "0x60806040526658d15e1762800060055534801561001b57600080fd5b50600160008190555033600460006101000a81548173ffffffffffffffffffffffffffffffffffffffff021916908373ffffffffffffffffffffffffffffffffffffffff160217905550613a2c806100746000396000f3fe6080604052600436106100865760003560e01c8063851c564611610059578063851c56461461014c57806389bfd38f146101895780638d2a886e146101a5578063a425dd09146101e2578063ca90e89c1461021257610086565b806312e855851461008b5780632c9e59e8146100b657806358eb2df5146100f35780635e4d1cc41461010f575b600080fd5b34801561009757600080fd5b506100a0610242565b6040516100ad9190613498565b60405180910390f35b3480156100c257600080fd5b506100dd60048036038101906100d89190612ced565b61024c565b6040516100ea91906132fb565b60405180910390f35b61010d60048036038101906101089190612c9e565b61084b565b005b34801561011b57600080fd5b5061013660048036038101906101319190612ced565b610c68565b60405161014391906132fb565b60405180910390f35b34801561015857600080fd5b50610173600480360381019061016e9190612ced565b611029565b60405161018091906132fb565b60405180910390f35b6101a3600480360381019061019e9190612c9e565b6114d0565b005b3480156101b157600080fd5b506101cc60048036038101906101c79190612ced565b611771565b6040516101d991906132fb565b60405180910390f35b6101fc60048036038101906101f79190612c62565b611b46565b604051610209919061347d565b60405180910390f35b61022c60048036038101906102279190612c62565b6121d5565b604051610239919061347d565b60405180910390f35b6000600554905090565b6060600061025a6001612a1c565b905060008060005b838110156103af573373ffffffffffffffffffffffffffffffffffffffff166006600060018461029291906134fd565b815260200190815260200160002060030160009054906101000a900473ffffffffffffffffffffffffffffffffffffffff1673ffffffffffffffffffffffffffffffffffffffff1614801561038757506000600281111561031c577f4e487b7100000000000000000000000000000000000000000000000000000000600052602160045260246000fd5b6006600060018461032d91906134fd565b815260200190815260200160002060060160009054906101000a900460ff166002811115610384577f4e487b7100000000000000000000000000000000000000000000000000000000600052602160045260246000fd5b14155b1561039c5760018361039991906134fd565b92505b80806103a79061365a565b915050610262565b50600082141561043e57600067ffffffffffffffff8111156103fa577f4e487b7100000000000000000000000000000000000000000000000000000000600052604160045260246000fd5b60405190808252806020026020018201604052801561043357816020015b610420612b81565b8152602001906001900390816104185790505b509350505050610846565b600061044a8684612a2a565b905060008167ffffffffffffffff81111561048e577f4e487b7100000000000000000000000000000000000000000000000000000000600052604160045260246000fd5b6040519080825280602002602001820160405280156104c757816020015b6104b4612b81565b8152602001906001900390816104ac5790505b50905060005b8581101561083c57828414156104e25761083c565b3373ffffffffffffffffffffffffffffffffffffffff166006600060018461050a91906134fd565b815260200190815260200160002060030160009054906101000a900473ffffffffffffffffffffffffffffffffffffffff1673ffffffffffffffffffffffffffffffffffffffff161480156105ff575060006002811115610594577f4e487b7100000000000000000000000000000000000000000000000000000000600052602160045260246000fd5b600660006001846105a591906134fd565b815260200190815260200160002060060160009054906101000a900460ff1660028111156105fc577f4e487b7100000000000000000000000000000000000000000000000000000000600052602160045260246000fd5b14155b15610829576006600060018361061591906134fd565b81526020019081526020016000206040518060e001604052908160008201548152602001600182015481526020016002820160009054906101000a900473ffffffffffffffffffffffffffffffffffffffff1673ffffffffffffffffffffffffffffffffffffffff1673ffffffffffffffffffffffffffffffffffffffff1681526020016003820160009054906101000a900473ffffffffffffffffffffffffffffffffffffffff1673ffffffffffffffffffffffffffffffffffffffff1673ffffffffffffffffffffffffffffffffffffffff1681526020016004820160009054906101000a900473ffffffffffffffffffffffffffffffffffffffff1673ffffffffffffffffffffffffffffffffffffffff1673ffffffffffffffffffffffffffffffffffffffff168152602001600582015481526020016006820160009054906101000a900460ff166002811115610799577f4e487b7100000000000000000000000000000000000000000000000000000000600052602160045260246000fd5b60028111156107d1577f4e487b7100000000000000000000000000000000000000000000000000000000600052602160045260246000fd5b8152505082858151811061080e577f4e487b7100000000000000000000000000000000000000000000000000000000600052603260045260246000fd5b602002602001018190525060018461082691906134fd565b93505b80806108349061365a565b9150506104cd565b5080955050505050505b919050565b60026000541415610891576040517f08c379a00000000000000000000000000000000000000000000000000000000081526004016108889061345d565b60405180910390fd5b6002600081905550600081116108dc576040517f08c379a00000000000000000000000000000000000000000000000000000000081526004016108d39061339d565b60405180910390fd5b600554341015610921576040517f08c379a0000000000000000000000000000000000000000000000000000000008152600401610918906133fd565b60405180910390fd5b61092b6001612a1c565b82101561096d576040517f08c379a00000000000000000000000000000000000000000000000000000000081526004016109649061335d565b60405180910390fd5b6109776001612a43565b60006109836001612a1c565b90506040518060e001604052808281526020018481526020018573ffffffffffffffffffffffffffffffffffffffff168152602001600073ffffffffffffffffffffffffffffffffffffffff1681526020013373ffffffffffffffffffffffffffffffffffffffff16815260200183815260200160006002811115610a31577f4e487b7100000000000000000000000000000000000000000000000000000000600052602160045260246000fd5b81525060066000838152602001908152602001600020600082015181600001556020820151816001015560408201518160020160006101000a81548173ffffffffffffffffffffffffffffffffffffffff021916908373ffffffffffffffffffffffffffffffffffffffff16021790555060608201518160030160006101000a81548173ffffffffffffffffffffffffffffffffffffffff021916908373ffffffffffffffffffffffffffffffffffffffff16021790555060808201518160040160006101000a81548173ffffffffffffffffffffffffffffffffffffffff021916908373ffffffffffffffffffffffffffffffffffffffff16021790555060a0820151816005015560c08201518160060160006101000a81548160ff02191690836002811115610b8b577f4e487b7100000000000000000000000000000000000000000000000000000000600052602160045260246000fd5b02179055509050508373ffffffffffffffffffffffffffffffffffffffff166323b872dd3330866040518463ffffffff1660e01b8152600401610bd09392919061326c565b600060405180830381600087803b158015610bea57600080fd5b505af1158015610bfe573d6000803e3d6000fd5b505050508373ffffffffffffffffffffffffffffffffffffffff1683827fabc8385e055fdc42c1c965dc3d77f25d13eed766025781e532919252fd3392b5600033876000604051610c5294939291906132a3565b60405180910390a4506001600081905550505050565b60606000610c766001612a1c565b90506000610c846002612a1c565b610c8e6003612a1c565b83610c9991906134fd565b610ca39190613553565b9050600080610cb28684612a2a565b905060008167ffffffffffffffff811115610cf6577f4e487b7100000000000000000000000000000000000000000000000000000000600052604160045260246000fd5b604051908082528060200260200182016040528015610d2f57816020015b610d1c612b81565b815260200190600190039081610d145790505b50905060008590505b600081111561101b5782841415610d4e5761101b565b60006002811115610d88577f4e487b7100000000000000000000000000000000000000000000000000000000600052602160045260246000fd5b6006600083815260200190815260200160002060060160009054906101000a900460ff166002811115610de4577f4e487b7100000000000000000000000000000000000000000000000000000000600052602160045260246000fd5b1415611008576000600660008381526020019081526020016000206040518060e001604052908160008201548152602001600182015481526020016002820160009054906101000a900473ffffffffffffffffffffffffffffffffffffffff1673ffffffffffffffffffffffffffffffffffffffff1673ffffffffffffffffffffffffffffffffffffffff1681526020016003820160009054906101000a900473ffffffffffffffffffffffffffffffffffffffff1673ffffffffffffffffffffffffffffffffffffffff1673ffffffffffffffffffffffffffffffffffffffff1681526020016004820160009054906101000a900473ffffffffffffffffffffffffffffffffffffffff1673ffffffffffffffffffffffffffffffffffffffff1673ffffffffffffffffffffffffffffffffffffffff168152602001600582015481526020016006820160009054906101000a900460ff166002811115610f75577f4e487b7100000000000000000000000000000000000000000000000000000000600052602160045260246000fd5b6002811115610fad577f4e487b7100000000000000000000000000000000000000000000000000000000600052602160045260246000fd5b81525050905080838681518110610fed577f4e487b7100000000000000000000000000000000000000000000000000000000600052603260045260246000fd5b602002602001018190525084806110039061365a565b955050505b808061101390613630565b915050610d38565b508095505050505050919050565b606060006110376001612a1c565b905060008060005b838110156110e0573373ffffffffffffffffffffffffffffffffffffffff166006600060018461106f91906134fd565b815260200190815260200160002060040160009054906101000a900473ffffffffffffffffffffffffffffffffffffffff1673ffffffffffffffffffffffffffffffffffffffff1614156110cd576001836110ca91906134fd565b92505b80806110d89061365a565b91505061103f565b50600082141561116f57600067ffffffffffffffff81111561112b577f4e487b7100000000000000000000000000000000000000000000000000000000600052604160045260246000fd5b60405190808252806020026020018201604052801561116457816020015b611151612b81565b8152602001906001900390816111495790505b5093505050506114cb565b600061117b8684612a2a565b905060008167ffffffffffffffff8111156111bf577f4e487b7100000000000000000000000000000000000000000000000000000000600052604160045260246000fd5b6040519080825280602002602001820160405280156111f857816020015b6111e5612b81565b8152602001906001900390816111dd5790505b50905060005b858110156114c15782841415611213576114c1565b3373ffffffffffffffffffffffffffffffffffffffff166006600060018461123b91906134fd565b815260200190815260200160002060040160009054906101000a900473ffffffffffffffffffffffffffffffffffffffff1673ffffffffffffffffffffffffffffffffffffffff1614156114ae576006600060018361129a91906134fd565b81526020019081526020016000206040518060e001604052908160008201548152602001600182015481526020016002820160009054906101000a900473ffffffffffffffffffffffffffffffffffffffff1673ffffffffffffffffffffffffffffffffffffffff1673ffffffffffffffffffffffffffffffffffffffff1681526020016003820160009054906101000a900473ffffffffffffffffffffffffffffffffffffffff1673ffffffffffffffffffffffffffffffffffffffff1673ffffffffffffffffffffffffffffffffffffffff1681526020016004820160009054906101000a900473ffffffffffffffffffffffffffffffffffffffff1673ffffffffffffffffffffffffffffffffffffffff1673ffffffffffffffffffffffffffffffffffffffff168152602001600582015481526020016006820160009054906101000a900460ff16600281111561141e577f4e487b7100000000000000000000000000000000000000000000000000000000600052602160045260246000fd5b6002811115611456577f4e487b7100000000000000000000000000000000000000000000000000000000600052602160045260246000fd5b81525050828581518110611493577f4e487b7100000000000000000000000000000000000000000000000000000000600052603260045260246000fd5b60200260200101819052506001846114ab91906134fd565b93505b80806114b99061365a565b9150506111fe565b5080955050505050505b919050565b60006006600084815260200190815260200160002090506000816001015490508160030160009054906101000a900473ffffffffffffffffffffffffffffffffffffffff1673ffffffffffffffffffffffffffffffffffffffff163373ffffffffffffffffffffffffffffffffffffffff1614611582576040517f08c379a00000000000000000000000000000000000000000000000000000000081526004016115799061343d565b60405180910390fd5b600160028111156115bc577f4e487b7100000000000000000000000000000000000000000000000000000000600052602160045260246000fd5b8260060160009054906101000a900460ff166002811115611606577f4e487b7100000000000000000000000000000000000000000000000000000000600052602160045260246000fd5b14611646576040517f08c379a000000000000000000000000000000000000000000000000000000000815260040161163d9061333d565b60405180910390fd5b60055434101561168b576040517f08c379a0000000000000000000000000000000000000000000000000000000008152600401611682906133dd565b60405180910390fd5b82826005018190555060008260060160006101000a81548160ff021916908360028111156116e2577f4e487b7100000000000000000000000000000000000000000000000000000000600052602160045260246000fd5b02179055506116f16003612a43565b8473ffffffffffffffffffffffffffffffffffffffff1681857fabc8385e055fdc42c1c965dc3d77f25d13eed766025781e532919252fd3392b533600460009054906101000a900473ffffffffffffffffffffffffffffffffffffffff1688600060405161176294939291906131bc565b60405180910390a45050505050565b6060600061177f6001612a1c565b9050600061178d6002612a1c565b6117976003612a1c565b836117a291906134fd565b6117ac9190613553565b90506000806117bb8684612a2a565b905060008167ffffffffffffffff8111156117ff577f4e487b7100000000000000000000000000000000000000000000000000000000600052604160045260246000fd5b60405190808252806020026020018201604052801561183857816020015b611825612b81565b81526020019060019003908161181d5790505b50905060005b85811015611b38578284141561185357611b38565b6000600281111561188d577f4e487b7100000000000000000000000000000000000000000000000000000000600052602160045260246000fd5b6006600060018461189e91906134fd565b815260200190815260200160002060060160009054906101000a900460ff1660028111156118f5577f4e487b7100000000000000000000000000000000000000000000000000000000600052602160045260246000fd5b1415611b255760006006600060018461190e91906134fd565b81526020019081526020016000206040518060e001604052908160008201548152602001600182015481526020016002820160009054906101000a900473ffffffffffffffffffffffffffffffffffffffff1673ffffffffffffffffffffffffffffffffffffffff1673ffffffffffffffffffffffffffffffffffffffff1681526020016003820160009054906101000a900473ffffffffffffffffffffffffffffffffffffffff1673ffffffffffffffffffffffffffffffffffffffff1673ffffffffffffffffffffffffffffffffffffffff1681526020016004820160009054906101000a900473ffffffffffffffffffffffffffffffffffffffff1673ffffffffffffffffffffffffffffffffffffffff1673ffffffffffffffffffffffffffffffffffffffff168152602001600582015481526020016006820160009054906101000a900460ff166002811115611a92577f4e487b7100000000000000000000000000000000000000000000000000000000600052602160045260246000fd5b6002811115611aca577f4e487b7100000000000000000000000000000000000000000000000000000000600052602160045260246000fd5b81525050905080838681518110611b0a577f4e487b7100000000000000000000000000000000000000000000000000000000600052603260045260246000fd5b60200260200101819052508480611b209061365a565b955050505b8080611b309061365a565b91505061183e565b508095505050505050919050565b611b4e612b81565b60026000541415611b94576040517f08c379a0000000000000000000000000000000000000000000000000000000008152600401611b8b9061345d565b60405180910390fd5b60026000819055506000600660008481526020019081526020016000206040518060e001604052908160008201548152602001600182015481526020016002820160009054906101000a900473ffffffffffffffffffffffffffffffffffffffff1673ffffffffffffffffffffffffffffffffffffffff1673ffffffffffffffffffffffffffffffffffffffff1681526020016003820160009054906101000a900473ffffffffffffffffffffffffffffffffffffffff1673ffffffffffffffffffffffffffffffffffffffff1673ffffffffffffffffffffffffffffffffffffffff1681526020016004820160009054906101000a900473ffffffffffffffffffffffffffffffffffffffff1673ffffffffffffffffffffffffffffffffffffffff1673ffffffffffffffffffffffffffffffffffffffff168152602001600582015481526020016006820160009054906101000a900460ff166002811115611d27577f4e487b7100000000000000000000000000000000000000000000000000000000600052602160045260246000fd5b6002811115611d5f577f4e487b7100000000000000000000000000000000000000000000000000000000600052602160045260246000fd5b81525050905060008160a00151905060008260200151905081341015611dba576040517f08c379a0000000000000000000000000000000000000000000000000000000008152600401611db1906133dd565b60405180910390fd5b8573ffffffffffffffffffffffffffffffffffffffff166323b872dd3033846040518463ffffffff1660e01b8152600401611df79392919061326c565b600060405180830381600087803b158015611e1157600080fd5b505af1158015611e25573d6000803e3d6000fd5b5050505060018360c001906002811115611e68577f4e487b7100000000000000000000000000000000000000000000000000000000600052602160045260246000fd5b90816002811115611ea2577f4e487b7100000000000000000000000000000000000000000000000000000000600052602160045260246000fd5b8152505033836060019073ffffffffffffffffffffffffffffffffffffffff16908173ffffffffffffffffffffffffffffffffffffffff1681525050611ee86002612a43565b826080015173ffffffffffffffffffffffffffffffffffffffff166108fc839081150290604051600060405180830381858888f19350505050158015611f32573d6000803e3d6000fd5b50600460009054906101000a900473ffffffffffffffffffffffffffffffffffffffff1673ffffffffffffffffffffffffffffffffffffffff166108fc6005549081150290604051600060405180830381858888f19350505050158015611f9d573d6000803e3d6000fd5b508260066000878152602001908152602001600020600082015181600001556020820151816001015560408201518160020160006101000a81548173ffffffffffffffffffffffffffffffffffffffff021916908373ffffffffffffffffffffffffffffffffffffffff16021790555060608201518160030160006101000a81548173ffffffffffffffffffffffffffffffffffffffff021916908373ffffffffffffffffffffffffffffffffffffffff16021790555060808201518160040160006101000a81548173ffffffffffffffffffffffffffffffffffffffff021916908373ffffffffffffffffffffffffffffffffffffffff16021790555060a0820151816005015560c08201518160060160006101000a81548160ff021916908360028111156120f6577f4e487b7100000000000000000000000000000000000000000000000000000000600052602160045260246000fd5b02179055509050508573ffffffffffffffffffffffffffffffffffffffff1681867fabc8385e055fdc42c1c965dc3d77f25d13eed766025781e532919252fd3392b5600660008a815260200190815260200160002060030160009054906101000a900473ffffffffffffffffffffffffffffffffffffffff16600660008b815260200190815260200160002060040160009054906101000a900473ffffffffffffffffffffffffffffffffffffffff168760016040516121b9949392919061312d565b60405180910390a4829350505050600160008190555092915050565b6121dd612b81565b60026000541415612223576040517f08c379a000000000000000000000000000000000000000000000000000000000815260040161221a9061345d565b60405180910390fd5b600260008190555060006006600061223a85612a59565b81526020019081526020016000206040518060e001604052908160008201548152602001600182015481526020016002820160009054906101000a900473ffffffffffffffffffffffffffffffffffffffff1673ffffffffffffffffffffffffffffffffffffffff1673ffffffffffffffffffffffffffffffffffffffff1681526020016003820160009054906101000a900473ffffffffffffffffffffffffffffffffffffffff1673ffffffffffffffffffffffffffffffffffffffff1673ffffffffffffffffffffffffffffffffffffffff1681526020016004820160009054906101000a900473ffffffffffffffffffffffffffffffffffffffff1673ffffffffffffffffffffffffffffffffffffffff1673ffffffffffffffffffffffffffffffffffffffff168152602001600582015481526020016006820160009054906101000a900460ff1660028111156123be577f4e487b7100000000000000000000000000000000000000000000000000000000600052602160045260246000fd5b60028111156123f6577f4e487b7100000000000000000000000000000000000000000000000000000000600052602160045260246000fd5b81525050905060006002811115612436577f4e487b7100000000000000000000000000000000000000000000000000000000600052602160045260246000fd5b8160c001516002811115612473577f4e487b7100000000000000000000000000000000000000000000000000000000600052602160045260246000fd5b146124b3576040517f08c379a00000000000000000000000000000000000000000000000000000000081526004016124aa9061331d565b60405180910390fd5b8060a001513410156124fa576040517f08c379a00000000000000000000000000000000000000000000000000000000081526004016124f19061341d565b60405180910390fd5b8373ffffffffffffffffffffffffffffffffffffffff166323b872dd826060015133866040518463ffffffff1660e01b815260040161253b93929190613185565b600060405180830381600087803b15801561255557600080fd5b505af1158015612569573d6000803e3d6000fd5b505050506125776003612b25565b806060015173ffffffffffffffffffffffffffffffffffffffff166108fc8260a001519081150290604051600060405180830381858888f193505050501580156125c5573d6000803e3d6000fd5b5060018160c001906002811115612605577f4e487b7100000000000000000000000000000000000000000000000000000000600052602160045260246000fd5b9081600281111561263f577f4e487b7100000000000000000000000000000000000000000000000000000000600052602160045260246000fd5b8152505033816060019073ffffffffffffffffffffffffffffffffffffffff16908173ffffffffffffffffffffffffffffffffffffffff1681525050806006600083600001518152602001908152602001600020600082015181600001556020820151816001015560408201518160020160006101000a81548173ffffffffffffffffffffffffffffffffffffffff021916908373ffffffffffffffffffffffffffffffffffffffff16021790555060608201518160030160006101000a81548173ffffffffffffffffffffffffffffffffffffffff021916908373ffffffffffffffffffffffffffffffffffffffff16021790555060808201518160040160006101000a81548173ffffffffffffffffffffffffffffffffffffffff021916908373ffffffffffffffffffffffffffffffffffffffff16021790555060a0820151816005015560c08201518160060160006101000a81548160ff021916908360028111156127d7577f4e487b7100000000000000000000000000000000000000000000000000000000600052602160045260246000fd5b02179055509050508373ffffffffffffffffffffffffffffffffffffffff168382600001517fabc8385e055fdc42c1c965dc3d77f25d13eed766025781e532919252fd3392b53385606001518660a00151600160405161283a9493929190613214565b60405180910390a460066000826000015181526020019081526020016000206040518060e001604052908160008201548152602001600182015481526020016002820160009054906101000a900473ffffffffffffffffffffffffffffffffffffffff1673ffffffffffffffffffffffffffffffffffffffff1673ffffffffffffffffffffffffffffffffffffffff1681526020016003820160009054906101000a900473ffffffffffffffffffffffffffffffffffffffff1673ffffffffffffffffffffffffffffffffffffffff1673ffffffffffffffffffffffffffffffffffffffff1681526020016004820160009054906101000a900473ffffffffffffffffffffffffffffffffffffffff1673ffffffffffffffffffffffffffffffffffffffff1673ffffffffffffffffffffffffffffffffffffffff168152602001600582015481526020016006820160009054906101000a900460ff1660028111156129cf577f4e487b7100000000000000000000000000000000000000000000000000000000600052602160045260246000fd5b6002811115612a07577f4e487b7100000000000000000000000000000000000000000000000000000000600052602160045260246000fd5b81525050915050600160008190555092915050565b600081600001549050919050565b6000818310612a395781612a3b565b825b905092915050565b6001816000016000828254019250508190555050565b600080612a666001612a1c565b905060005b81811015612adc578360066000600184612a8591906134fd565b8152602001908152602001600020600101541415612ac95760066000600183612aae91906134fd565b81526020019081526020016000206000015492505050612b20565b8080612ad49061365a565b915050612a6b565b506000612b1e576040517f08c379a0000000000000000000000000000000000000000000000000000000008152600401612b15906133bd565b60405180910390fd5b505b919050565b60008160000154905060008111612b71576040517f08c379a0000000000000000000000000000000000000000000000000000000008152600401612b689061337d565b60405180910390fd5b6001810382600001819055505050565b6040518060e001604052806000815260200160008152602001600073ffffffffffffffffffffffffffffffffffffffff168152602001600073ffffffffffffffffffffffffffffffffffffffff168152602001600073ffffffffffffffffffffffffffffffffffffffff1681526020016000815260200160006002811115612c32577f4e487b7100000000000000000000000000000000000000000000000000000000600052602160045260246000fd5b81525090565b600081359050612c47816139c8565b92915050565b600081359050612c5c816139df565b92915050565b60008060408385031215612c7557600080fd5b6000612c8385828601612c38565b9250506020612c9485828601612c4d565b9150509250929050565b600080600060608486031215612cb357600080fd5b6000612cc186828701612c38565b9350506020612cd286828701612c4d565b9250506040612ce386828701612c4d565b9150509250925092565b600060208284031215612cff57600080fd5b6000612d0d84828501612c4d565b91505092915050565b6000612d228383612ff3565b60e08301905092915050565b612d37816135e8565b82525050565b612d4681613599565b82525050565b612d5581613587565b82525050565b612d6481613587565b82525050565b6000612d75826134c3565b612d7f81856134db565b9350612d8a836134b3565b8060005b83811015612dbb578151612da28882612d16565b9750612dad836134ce565b925050600181019050612d8e565b5085935050505092915050565b612dd1816135fa565b82525050565b612de0816135fa565b82525050565b6000612df36025836134ec565b9150612dfe82613701565b604082019050919050565b6000612e16600f836134ec565b9150612e2182613750565b602082019050919050565b6000612e396020836134ec565b9150612e4482613779565b602082019050919050565b6000612e5c600d836134ec565b9150612e67826137a2565b602082019050919050565b6000612e7f601b836134ec565b9150612e8a826137cb565b602082019050919050565b6000612ea26025836134ec565b9150612ead826137f4565b604082019050919050565b6000612ec56010836134ec565b9150612ed082613843565b602082019050919050565b6000612ee86020836134ec565b9150612ef38261386c565b602082019050919050565b6000612f0b6008836134ec565b9150612f1682613895565b602082019050919050565b6000612f2e6017836134ec565b9150612f39826138be565b602082019050919050565b6000612f516008836134ec565b9150612f5c826138e7565b602082019050919050565b6000612f746011836134ec565b9150612f7f82613910565b602082019050919050565b6000612f97601a836134ec565b9150612fa282613939565b602082019050919050565b6000612fba600b836134ec565b9150612fc582613962565b602082019050919050565b6000612fdd601f836134ec565b9150612fe88261398b565b602082019050919050565b60e082016000820151613009600085018261310f565b50602082015161301c602085018261310f565b50604082015161302f6040850182612d4c565b5060608201516130426060850182612d3d565b5060808201516130556080850182612d3d565b5060a082015161306860a085018261310f565b5060c082015161307b60c0850182612dc8565b50505050565b60e082016000820151613097600085018261310f565b5060208201516130aa602085018261310f565b5060408201516130bd6040850182612d4c565b5060608201516130d06060850182612d3d565b5060808201516130e36080850182612d3d565b5060a08201516130f660a085018261310f565b5060c082015161310960c0850182612dc8565b50505050565b613118816135de565b82525050565b613127816135de565b82525050565b600060a0820190506131426000830187612d2e565b61314f6020830186612d2e565b61315c604083018561311e565b6131696060830184612dd7565b818103608083015261317a81612e09565b905095945050505050565b600060608201905061319a6000830186612d2e565b6131a76020830185612d5b565b6131b4604083018461311e565b949350505050565b600060a0820190506131d16000830187612d5b565b6131de6020830186612d2e565b6131eb604083018561311e565b6131f86060830184612dd7565b818103608083015261320981612efe565b905095945050505050565b600060a0820190506132296000830187612d5b565b6132366020830186612d2e565b613243604083018561311e565b6132506060830184612dd7565b818103608083015261326181612f44565b905095945050505050565b60006060820190506132816000830186612d5b565b61328e6020830185612d5b565b61329b604083018461311e565b949350505050565b600060a0820190506132b86000830187612d5b565b6132c56020830186612d5b565b6132d2604083018561311e565b6132df6060830184612dd7565b81810360808301526132f081612fad565b905095945050505050565b600060208201905081810360008301526133158184612d6a565b905092915050565b6000602082019050818103600083015261333681612de6565b9050919050565b6000602082019050818103600083015261335681612e2c565b9050919050565b6000602082019050818103600083015261337681612e4f565b9050919050565b6000602082019050818103600083015261339681612e72565b9050919050565b600060208201905081810360008301526133b681612e95565b9050919050565b600060208201905081810360008301526133d681612eb8565b9050919050565b600060208201905081810360008301526133f681612edb565b9050919050565b6000602082019050818103600083015261341681612f21565b9050919050565b6000602082019050818103600083015261343681612f67565b9050919050565b6000602082019050818103600083015261345681612f8a565b9050919050565b6000602082019050818103600083015261347681612fd0565b9050919050565b600060e0820190506134926000830184613081565b92915050565b60006020820190506134ad600083018461311e565b92915050565b6000819050602082019050919050565b600081519050919050565b6000602082019050919050565b600082825260208201905092915050565b600082825260208201905092915050565b6000613508826135de565b9150613513836135de565b9250827fffffffffffffffffffffffffffffffffffffffffffffffffffffffffffffffff03821115613548576135476136a3565b5b828201905092915050565b600061355e826135de565b9150613569836135de565b92508282101561357c5761357b6136a3565b5b828203905092915050565b6000613592826135be565b9050919050565b60006135a4826135be565b9050919050565b60008190506135b9826139b4565b919050565b600073ffffffffffffffffffffffffffffffffffffffff82169050919050565b6000819050919050565b60006135f38261360c565b9050919050565b6000613605826135ab565b9050919050565b60006136178261361e565b9050919050565b6000613629826135be565b9050919050565b600061363b826135de565b9150600082141561364f5761364e6136a3565b5b600182039050919050565b6000613665826135de565b91507fffffffffffffffffffffffffffffffffffffffffffffffffffffffffffffffff821415613698576136976136a3565b5b600182019050919050565b7f4e487b7100000000000000000000000000000000000000000000000000000000600052601160045260246000fd5b7f4e487b7100000000000000000000000000000000000000000000000000000000600052602160045260246000fd5b7f4974656d7320546861742061696e74204c69737465642063616e74206265205360008201527f6f6c646564000000000000000000000000000000000000000000000000000000602082015250565b7f5472616e73666572726564204e46540000000000000000000000000000000000600082015250565b7f43616e74206c697374207468617420697320616c7265616479204c6973746564600082015250565b7f696e76616c696420546f6b656e00000000000000000000000000000000000000600082015250565b7f436f756e7465723a2064656372656d656e74206f766572666c6f770000000000600082015250565b7f4974656d205072696365206d6f73742062652067726561746572207468656e2060008201527f3120574549000000000000000000000000000000000000000000000000000000602082015250565b7f496e76616c696420546f6b656e20494400000000000000000000000000000000600082015250565b7f6b696e646c79207472616e7366657220746865206c6973746564207072696365600082015250565b7f4c697374204e4654000000000000000000000000000000000000000000000000600082015250565b7f496e737566666963656e74206c697374696e6720666565000000000000000000600082015250565b7f536f6c64204e4654000000000000000000000000000000000000000000000000600082015250565b7f496e737566666963656e742066756e6473000000000000000000000000000000600082015250565b7f796f75206d757374206d75737420626520746865206f776e6572000000000000600082015250565b7f43726561746564204e4654000000000000000000000000000000000000000000600082015250565b7f5265656e7472616e637947756172643a207265656e7472616e742063616c6c00600082015250565b600381106139c5576139c46136d2565b5b50565b6139d181613587565b81146139dc57600080fd5b50565b6139e8816135de565b81146139f357600080fd5b5056fea26469706673582212200339064033a10c073f911a4ee6d0f8041e30b2df3db36864548f5209b07c175a64736f6c63430008040033",
  "linkReferences": {},
  "deployedLinkReferences": {}
}