{
  "_format": "hh-sol-artifact-1",
  "contractName": "AuctionFactory",
  "sourceName": "contracts/AuctionFactory.sol",
  "abi": [
    {
      "inputs": [
        {
          "internalType": "address",
          "name": "_contactAddress",
          "type": "address"
        },
        {
          "internalType": "address",
          "name": "nft",
          "type": "address"
        }
      ],
      "stateMutability": "nonpayable",
      "type": "constructor"
    },
    {
      "anonymous": false,
      "inputs": [
        {
          "indexed": true,
          "internalType": "uint256",
          "name": "auctionId",
          "type": "uint256"
        },
        {
          "indexed": true,
          "internalType": "uint256",
          "name": "tokenId",
          "type": "uint256"
        },
        {
          "indexed": false,
          "internalType": "uint256",
          "name": "amount",
          "type": "uint256"
        },
        {
          "indexed": true,
          "internalType": "address",
          "name": "bidder",
          "type": "address"
        }
      ],
      "name": "bidEvent",
      "type": "event"
    },
    {
      "anonymous": false,
      "inputs": [
        {
          "indexed": true,
          "internalType": "uint256",
          "name": "auctionId",
          "type": "uint256"
        },
        {
          "indexed": false,
          "internalType": "uint256",
          "name": "amount",
          "type": "uint256"
        },
        {
          "indexed": true,
          "internalType": "address",
          "name": "withdrawer",
          "type": "address"
        }
      ],
      "name": "withdrawEvent",
      "type": "event"
    },
    {
      "inputs": [
        {
          "internalType": "uint256",
          "name": "",
          "type": "uint256"
        }
      ],
      "name": "auctions",
      "outputs": [
        {
          "internalType": "uint256",
          "name": "id",
          "type": "uint256"
        },
        {
          "internalType": "uint256",
          "name": "tokenId",
          "type": "uint256"
        },
        {
          "internalType": "uint256",
          "name": "startAt",
          "type": "uint256"
        },
        {
          "internalType": "uint256",
          "name": "endAt",
          "type": "uint256"
        },
        {
          "internalType": "address payable",
          "name": "seller",
          "type": "address"
        },
        {
          "internalType": "uint256",
          "name": "currentBid",
          "type": "uint256"
        },
        {
          "internalType": "address",
          "name": "highestBidder",
          "type": "address"
        },
        {
          "internalType": "enum AuctionFactory.AuctionStatus",
          "name": "status",
          "type": "uint8"
        }
      ],
      "stateMutability": "view",
      "type": "function"
    },
    {
      "inputs": [
        {
          "internalType": "uint256",
          "name": "auctionId",
          "type": "uint256"
        }
      ],
      "name": "closeAuction",
      "outputs": [],
      "stateMutability": "nonpayable",
      "type": "function"
    },
    {
      "inputs": [
        {
          "internalType": "uint256",
          "name": "startAt",
          "type": "uint256"
        },
        {
          "internalType": "uint256",
          "name": "endAt",
          "type": "uint256"
        },
        {
          "internalType": "address",
          "name": "seller",
          "type": "address"
        },
        {
          "internalType": "uint256",
          "name": "startBidPrice",
          "type": "uint256"
        },
        {
          "internalType": "uint256",
          "name": "tokenId",
          "type": "uint256"
        }
      ],
      "name": "createAuction",
      "outputs": [
        {
          "internalType": "uint256",
          "name": "",
          "type": "uint256"
        }
      ],
      "stateMutability": "nonpayable",
      "type": "function"
    },
    {
      "inputs": [
        {
          "internalType": "uint256",
          "name": "auctionId",
          "type": "uint256"
        }
      ],
      "name": "makeBid",
      "outputs": [],
      "stateMutability": "payable",
      "type": "function"
    },
    {
      "inputs": [
        {
          "internalType": "uint256",
          "name": "auctionId",
          "type": "uint256"
        }
      ],
      "name": "withdraw",
      "outputs": [],
      "stateMutability": "payable",
      "type": "function"
    }
  ],
  "bytecode": "0x60806040523480156200001157600080fd5b50604051620019c4380380620019c48339818101604052810190620000379190620000d7565b816000806101000a81548173ffffffffffffffffffffffffffffffffffffffff021916908373ffffffffffffffffffffffffffffffffffffffff16021790555080600160006101000a81548173ffffffffffffffffffffffffffffffffffffffff021916908373ffffffffffffffffffffffffffffffffffffffff160217905550505062000166565b600081519050620000d1816200014c565b92915050565b60008060408385031215620000eb57600080fd5b6000620000fb85828601620000c0565b92505060206200010e85828601620000c0565b9150509250929050565b600062000125826200012c565b9050919050565b600073ffffffffffffffffffffffffffffffffffffffff82169050919050565b620001578162000118565b81146200016357600080fd5b50565b61184e80620001766000396000f3fe60806040526004361061004a5760003560e01c8063175b23041461004f578063236ed8f31461006b5780632e1a7d4d14610094578063571a26a0146100b0578063627501b8146100f4575b600080fd5b6100696004803603810190610064919061105c565b610131565b005b34801561007757600080fd5b50610092600480360381019061008d919061105c565b6105d6565b005b6100ae60048036038101906100a9919061105c565b610a27565b005b3480156100bc57600080fd5b506100d760048036038101906100d2919061105c565b610b74565b6040516100eb98979695949392919061143c565b60405180910390f35b34801561010057600080fd5b5061011b60048036038101906101169190611085565b610c09565b6040516101289190611421565b60405180910390f35b4260066000838152602001908152602001600020600201541115801561016d575042600660008381526020019081526020016000206003015410155b6101ac576040517f08c379a00000000000000000000000000000000000000000000000000000000081526004016101a390611381565b60405180910390fd5b60066000828152602001908152602001600020600501543411610204576040517f08c379a00000000000000000000000000000000000000000000000000000000081526004016101fb906113e1565b60405180910390fd5b60038081111561023d577f4e487b7100000000000000000000000000000000000000000000000000000000600052602160045260246000fd5b6006600083815260200190815260200160002060060160149054906101000a900460ff166003811115610299577f4e487b7100000000000000000000000000000000000000000000000000000000600052602160045260246000fd5b14156102da576040517f08c379a00000000000000000000000000000000000000000000000000000000081526004016102d190611361565b60405180910390fd5b600073ffffffffffffffffffffffffffffffffffffffff166006600083815260200190815260200160002060060160009054906101000a900473ffffffffffffffffffffffffffffffffffffffff1673ffffffffffffffffffffffffffffffffffffffff16146103d3576006600082815260200190815260200160002060050154600461039d6006600085815260200190815260200160002060060160009054906101000a900473ffffffffffffffffffffffffffffffffffffffff1684610fe2565b6040516103aa91906112c7565b908152602001604051809103902060008282546103c791906114ec565b925050819055506104b1565b60016006600083815260200190815260200160002060060160146101000a81548160ff02191690836003811115610433577f4e487b7100000000000000000000000000000000000000000000000000000000600052602160045260246000fd5b02179055506001600560006006600085815260200190815260200160002060010154815260200190815260200160002060006101000a81548160ff021916908360038111156104ab577f4e487b7100000000000000000000000000000000000000000000000000000000600052602160045260246000fd5b02179055505b336006600083815260200190815260200160002060060160006101000a81548173ffffffffffffffffffffffffffffffffffffffff021916908373ffffffffffffffffffffffffffffffffffffffff1602179055503460066000838152602001908152602001600020600501819055506006600082815260200190815260200160002060060160009054906101000a900473ffffffffffffffffffffffffffffffffffffffff1673ffffffffffffffffffffffffffffffffffffffff166006600083815260200190815260200160002060010154827ffbeecd9ec28b67457ca40d6825a0601fb92ef896e2db0164432101e0a626398960066000868152602001908152602001600020600501546040516105cb9190611421565b60405180910390a450565b42600660008381526020019081526020016000206003015410801561068e575060016003811115610630577f4e487b7100000000000000000000000000000000000000000000000000000000600052602160045260246000fd5b6006600083815260200190815260200160002060060160149054906101000a900460ff16600381111561068c577f4e487b7100000000000000000000000000000000000000000000000000000000600052602160045260246000fd5b145b6106cd576040517f08c379a00000000000000000000000000000000000000000000000000000000081526004016106c4906113a1565b60405180910390fd5b600073ffffffffffffffffffffffffffffffffffffffff166006600083815260200190815260200160002060060160009054906101000a900473ffffffffffffffffffffffffffffffffffffffff1673ffffffffffffffffffffffffffffffffffffffff16146109265760008054906101000a900473ffffffffffffffffffffffffffffffffffffffff1673ffffffffffffffffffffffffffffffffffffffff1663566d0d86600160009054906101000a900473ffffffffffffffffffffffffffffffffffffffff166006600085815260200190815260200160002060060160009054906101000a900473ffffffffffffffffffffffffffffffffffffffff1660066000868152602001908152602001600020600101546040518463ffffffff1660e01b81526004016108029392919061132a565b600060405180830381600087803b15801561081c57600080fd5b505af1158015610830573d6000803e3d6000fd5b5050505060006006600083815260200190815260200160002060040160009054906101000a900473ffffffffffffffffffffffffffffffffffffffff1673ffffffffffffffffffffffffffffffffffffffff1660066000848152602001908152602001600020600501546040516108a6906112de565b60006040518083038185875af1925050503d80600081146108e3576040519150601f19603f3d011682016040523d82523d6000602084013e6108e8565b606091505b5050905080610920577f4e487b7100000000000000000000000000000000000000000000000000000000600052600160045260246000fd5b50610a24565b60008054906101000a900473ffffffffffffffffffffffffffffffffffffffff1673ffffffffffffffffffffffffffffffffffffffff1663566d0d86600160009054906101000a900473ffffffffffffffffffffffffffffffffffffffff166006600085815260200190815260200160002060040160009054906101000a900473ffffffffffffffffffffffffffffffffffffffff1660066000868152602001908152602001600020600101546040518463ffffffff1660e01b81526004016109f1939291906112f3565b600060405180830381600087803b158015610a0b57600080fd5b505af1158015610a1f573d6000803e3d6000fd5b505050505b50565b60006004610a353384610fe2565b604051610a4291906112c7565b908152602001604051809103902054905060006004610a613385610fe2565b604051610a6e91906112c7565b90815260200160405180910390208190555060003373ffffffffffffffffffffffffffffffffffffffff1682604051610aa6906112de565b60006040518083038185875af1925050503d8060008114610ae3576040519150601f19603f3d011682016040523d82523d6000602084013e610ae8565b606091505b5050905080610b20577f4e487b7100000000000000000000000000000000000000000000000000000000600052600160045260246000fd5b3373ffffffffffffffffffffffffffffffffffffffff16837f6ee929238c346518d4d72f9b07b745556fefec7100f1bcb4d37af9576a8d99a884604051610b679190611421565b60405180910390a3505050565b60066020528060005260406000206000915090508060000154908060010154908060020154908060030154908060040160009054906101000a900473ffffffffffffffffffffffffffffffffffffffff16908060050154908060060160009054906101000a900473ffffffffffffffffffffffffffffffffffffffff16908060060160149054906101000a900460ff16905088565b60008060009054906101000a900473ffffffffffffffffffffffffffffffffffffffff1673ffffffffffffffffffffffffffffffffffffffff163373ffffffffffffffffffffffffffffffffffffffff1614610c9a576040517f08c379a0000000000000000000000000000000000000000000000000000000008152600401610c9190611401565b60405180910390fd5b60006003811115610cd4577f4e487b7100000000000000000000000000000000000000000000000000000000600052602160045260246000fd5b6005600084815260200190815260200160002060009054906101000a900460ff166003811115610d2d577f4e487b7100000000000000000000000000000000000000000000000000000000600052602160045260246000fd5b14610d6d576040517f08c379a0000000000000000000000000000000000000000000000000000000008152600401610d64906113c1565b60405180910390fd5b610d77600361100e565b604051806101000160405280610d8d6003611024565b81526020018381526020018781526020018681526020018573ffffffffffffffffffffffffffffffffffffffff168152602001848152602001600073ffffffffffffffffffffffffffffffffffffffff16815260200160026003811115610e1d577f4e487b7100000000000000000000000000000000000000000000000000000000600052602160045260246000fd5b81525060066000610e2e6003611024565b81526020019081526020016000206000820151816000015560208201518160010155604082015181600201556060820151816003015560808201518160040160006101000a81548173ffffffffffffffffffffffffffffffffffffffff021916908373ffffffffffffffffffffffffffffffffffffffff16021790555060a0820151816005015560c08201518160060160006101000a81548173ffffffffffffffffffffffffffffffffffffffff021916908373ffffffffffffffffffffffffffffffffffffffff16021790555060e08201518160060160146101000a81548160ff02191690836003811115610f4d577f4e487b7100000000000000000000000000000000000000000000000000000000600052602160045260246000fd5b021790555090505060026005600084815260200190815260200160002060006101000a81548160ff02191690836003811115610fb2577f4e487b7100000000000000000000000000000000000000000000000000000000600052602160045260246000fd5b021790555060066000610fc56003611024565b815260200190815260200160002060000154905095945050505050565b60608282604051602001610ff792919061129b565b604051602081830303815290604052905092915050565b6001816000016000828254019250508190555050565b600081600001549050919050565b600081359050611041816117ea565b92915050565b60008135905061105681611801565b92915050565b60006020828403121561106e57600080fd5b600061107c84828501611047565b91505092915050565b600080600080600060a0868803121561109d57600080fd5b60006110ab88828901611047565b95505060206110bc88828901611047565b94505060406110cd88828901611032565b93505060606110de88828901611047565b92505060806110ef88828901611047565b9150509295509295909350565b611105816115a3565b82525050565b61111481611554565b82525050565b61112381611542565b82525050565b61113a61113582611542565b61161e565b82525050565b611149816115b5565b82525050565b600061115a826114ba565b61116481856114e1565b93506111748185602086016115eb565b80840191505092915050565b600061118d6011836114d0565b9150611198826116b7565b602082019050919050565b60006111b06019836114d0565b91506111bb826116e0565b602082019050919050565b60006111d36015836114d0565b91506111de82611709565b602082019050919050565b60006111f66000836114c5565b915061120182611732565b600082019050919050565b60006112196030836114d0565b915061122482611735565b604082019050919050565b600061123c601b836114d0565b915061124782611784565b602082019050919050565b600061125f600b836114d0565b915061126a826117ad565b602082019050919050565b61127e81611599565b82525050565b61129561129082611599565b611642565b82525050565b60006112a78285611129565b6014820191506112b78284611284565b6020820191508190509392505050565b60006112d3828461114f565b915081905092915050565b60006112e9826111e9565b9150819050919050565b6000606082019050611308600083018661111a565b61131560208301856110fc565b6113226040830184611275565b949350505050565b600060608201905061133f600083018661111a565b61134c602083018561111a565b6113596040830184611275565b949350505050565b6000602082019050818103600083015261137a81611180565b9050919050565b6000602082019050818103600083015261139a816111a3565b9050919050565b600060208201905081810360008301526113ba816111c6565b9050919050565b600060208201905081810360008301526113da8161120c565b9050919050565b600060208201905081810360008301526113fa8161122f565b9050919050565b6000602082019050818103600083015261141a81611252565b9050919050565b60006020820190506114366000830184611275565b92915050565b600061010082019050611452600083018b611275565b61145f602083018a611275565b61146c6040830189611275565b6114796060830188611275565b611486608083018761110b565b61149360a0830186611275565b6114a060c083018561111a565b6114ad60e0830184611140565b9998505050505050505050565b600081519050919050565b600081905092915050565b600082825260208201905092915050565b600081905092915050565b60006114f782611599565b915061150283611599565b9250827fffffffffffffffffffffffffffffffffffffffffffffffffffffffffffffffff038211156115375761153661164c565b5b828201905092915050565b600061154d82611579565b9050919050565b600061155f82611579565b9050919050565b6000819050611574826117d6565b919050565b600073ffffffffffffffffffffffffffffffffffffffff82169050919050565b6000819050919050565b60006115ae826115c7565b9050919050565b60006115c082611566565b9050919050565b60006115d2826115d9565b9050919050565b60006115e482611579565b9050919050565b60005b838110156116095780820151818401526020810190506115ee565b83811115611618576000848401525b50505050565b600061162982611630565b9050919050565b600061163b826116aa565b9050919050565b6000819050919050565b7f4e487b7100000000000000000000000000000000000000000000000000000000600052601160045260246000fd5b7f4e487b7100000000000000000000000000000000000000000000000000000000600052602160045260246000fd5b60008160601b9050919050565b7f43616e63656c6c65642041756374696f6e000000000000000000000000000000600082015250565b7f41756374696f6e204475726174696f6e20457863656564656400000000000000600082015250565b7f41756374696f6e206e6f742079657420656e6465640000000000000000000000600082015250565b50565b7f43616e7420437265617465204e65772041756374696f6e207768696c6520616e60008201527f6f746865722069732050656e64696e6700000000000000000000000000000000602082015250565b7f626964206d757374206578636565642063757272656e74206269640000000000600082015250565b7f6e6f7420416c6c6f776564000000000000000000000000000000000000000000600082015250565b600481106117e7576117e661167b565b5b50565b6117f381611542565b81146117fe57600080fd5b50565b61180a81611599565b811461181557600080fd5b5056fea2646970667358221220f49df4d2c3961e8f6afa0b6b0936ab6817cb5ce66f62450f9c44c5e221da2e0c64736f6c63430008040033",
  "linkReferences": {},
  "deployedLinkReferences": {}
}