{
  "_format": "hh-sol-artifact-1",
  "contractName": "AuctionFactory",
  "sourceName": "contracts/AuctionFactory.sol",
  "abi": [
    {
      "inputs": [
        {
          "internalType": "address",
          "name": "_contactAddress",
          "type": "address"
        },
        {
          "internalType": "address",
          "name": "nft",
          "type": "address"
        }
      ],
      "stateMutability": "nonpayable",
      "type": "constructor"
    },
    {
      "anonymous": false,
      "inputs": [
        {
          "indexed": true,
          "internalType": "uint256",
          "name": "auctionId",
          "type": "uint256"
        },
        {
          "indexed": true,
          "internalType": "uint256",
          "name": "tokenId",
          "type": "uint256"
        },
        {
          "indexed": false,
          "internalType": "uint256",
          "name": "amount",
          "type": "uint256"
        },
        {
          "indexed": true,
          "internalType": "address",
          "name": "bidder",
          "type": "address"
        }
      ],
      "name": "bidEvent",
      "type": "event"
    },
    {
      "anonymous": false,
      "inputs": [
        {
          "indexed": true,
          "internalType": "uint256",
          "name": "auctionId",
          "type": "uint256"
        },
        {
          "indexed": false,
          "internalType": "uint256",
          "name": "amount",
          "type": "uint256"
        },
        {
          "indexed": true,
          "internalType": "address",
          "name": "withdrawer",
          "type": "address"
        }
      ],
      "name": "withdrawEvent",
      "type": "event"
    },
    {
      "inputs": [
        {
          "internalType": "uint256",
          "name": "",
          "type": "uint256"
        }
      ],
      "name": "auctions",
      "outputs": [
        {
          "internalType": "uint256",
          "name": "id",
          "type": "uint256"
        },
        {
          "internalType": "uint256",
          "name": "tokenId",
          "type": "uint256"
        },
        {
          "internalType": "uint256",
          "name": "startAt",
          "type": "uint256"
        },
        {
          "internalType": "uint256",
          "name": "endAt",
          "type": "uint256"
        },
        {
          "internalType": "address payable",
          "name": "seller",
          "type": "address"
        },
        {
          "internalType": "uint256",
          "name": "currentBid",
          "type": "uint256"
        },
        {
          "internalType": "address",
          "name": "highestBidder",
          "type": "address"
        },
        {
          "internalType": "enum AuctionFactory.AuctionStatus",
          "name": "status",
          "type": "uint8"
        }
      ],
      "stateMutability": "view",
      "type": "function"
    },
    {
      "inputs": [
        {
          "internalType": "uint256",
          "name": "auctionId",
          "type": "uint256"
        }
      ],
      "name": "closeAuction",
      "outputs": [],
      "stateMutability": "nonpayable",
      "type": "function"
    },
    {
      "inputs": [
        {
          "internalType": "uint256",
          "name": "startAt",
          "type": "uint256"
        },
        {
          "internalType": "uint256",
          "name": "endAt",
          "type": "uint256"
        },
        {
          "internalType": "address",
          "name": "seller",
          "type": "address"
        },
        {
          "internalType": "uint256",
          "name": "startBidPrice",
          "type": "uint256"
        },
        {
          "internalType": "uint256",
          "name": "tokenId",
          "type": "uint256"
        }
      ],
      "name": "createAuction",
      "outputs": [
        {
          "internalType": "uint256",
          "name": "",
          "type": "uint256"
        }
      ],
      "stateMutability": "nonpayable",
      "type": "function"
    },
    {
      "inputs": [
        {
          "internalType": "uint256",
          "name": "auctionId",
          "type": "uint256"
        }
      ],
      "name": "makeBid",
      "outputs": [],
      "stateMutability": "payable",
      "type": "function"
    },
    {
      "inputs": [
        {
          "internalType": "uint256",
          "name": "auctionId",
          "type": "uint256"
        }
      ],
      "name": "withdraw",
      "outputs": [],
      "stateMutability": "payable",
      "type": "function"
    }
  ],
  "bytecode": "0x60806040523480156200001157600080fd5b5060405162001b4038038062001b408339818101604052810190620000379190620000e0565b600160008190555081600160006101000a81548173ffffffffffffffffffffffffffffffffffffffff021916908373ffffffffffffffffffffffffffffffffffffffff16021790555080600260006101000a81548173ffffffffffffffffffffffffffffffffffffffff021916908373ffffffffffffffffffffffffffffffffffffffff16021790555050506200016f565b600081519050620000da8162000155565b92915050565b60008060408385031215620000f457600080fd5b60006200010485828601620000c9565b92505060206200011785828601620000c9565b9150509250929050565b60006200012e8262000135565b9050919050565b600073ffffffffffffffffffffffffffffffffffffffff82169050919050565b620001608162000121565b81146200016c57600080fd5b50565b6119c1806200017f6000396000f3fe60806040526004361061004a5760003560e01c8063175b23041461004f578063236ed8f31461006b5780632e1a7d4d14610094578063571a26a0146100b0578063627501b8146100f4575b600080fd5b61006960048036038101906100649190611163565b610131565b005b34801561007757600080fd5b50610092600480360381019061008d9190611163565b61062c565b005b6100ae60048036038101906100a99190611163565b610a81565b005b3480156100bc57600080fd5b506100d760048036038101906100d29190611163565b610c24565b6040516100eb989796959493929190611586565b60405180910390f35b34801561010057600080fd5b5061011b6004803603810190610116919061118c565b610cb9565b604051610128919061156b565b60405180910390f35b60026000541415610177576040517f08c379a000000000000000000000000000000000000000000000000000000000815260040161016e906114eb565b60405180910390fd5b6002600081905550426007600083815260200190815260200160002060020154111580156101bb575042600760008381526020019081526020016000206003015410155b6101fa576040517f08c379a00000000000000000000000000000000000000000000000000000000081526004016101f1906114ab565b60405180910390fd5b60076000828152602001908152602001600020600501543411610252576040517f08c379a00000000000000000000000000000000000000000000000000000000081526004016102499061152b565b60405180910390fd5b60038081111561028b577f4e487b7100000000000000000000000000000000000000000000000000000000600052602160045260246000fd5b6007600083815260200190815260200160002060060160149054906101000a900460ff1660038111156102e7577f4e487b7100000000000000000000000000000000000000000000000000000000600052602160045260246000fd5b1415610328576040517f08c379a000000000000000000000000000000000000000000000000000000000815260040161031f9061148b565b60405180910390fd5b600073ffffffffffffffffffffffffffffffffffffffff166007600083815260200190815260200160002060060160009054906101000a900473ffffffffffffffffffffffffffffffffffffffff1673ffffffffffffffffffffffffffffffffffffffff161461042157600760008281526020019081526020016000206005015460056103eb6007600085815260200190815260200160002060060160009054906101000a900473ffffffffffffffffffffffffffffffffffffffff16846110e9565b6040516103f891906113f1565b908152602001604051809103902060008282546104159190611636565b925050819055506104ff565b60016007600083815260200190815260200160002060060160146101000a81548160ff02191690836003811115610481577f4e487b7100000000000000000000000000000000000000000000000000000000600052602160045260246000fd5b02179055506001600660006007600085815260200190815260200160002060010154815260200190815260200160002060006101000a81548160ff021916908360038111156104f9577f4e487b7100000000000000000000000000000000000000000000000000000000600052602160045260246000fd5b02179055505b336007600083815260200190815260200160002060060160006101000a81548173ffffffffffffffffffffffffffffffffffffffff021916908373ffffffffffffffffffffffffffffffffffffffff1602179055503460076000838152602001908152602001600020600501819055506007600082815260200190815260200160002060060160009054906101000a900473ffffffffffffffffffffffffffffffffffffffff1673ffffffffffffffffffffffffffffffffffffffff166007600083815260200190815260200160002060010154827ffbeecd9ec28b67457ca40d6825a0601fb92ef896e2db0164432101e0a62639896007600086815260200190815260200160002060050154604051610619919061156b565b60405180910390a4600160008190555050565b4260076000838152602001908152602001600020600301541080156106e4575060016003811115610686577f4e487b7100000000000000000000000000000000000000000000000000000000600052602160045260246000fd5b6007600083815260200190815260200160002060060160149054906101000a900460ff1660038111156106e2577f4e487b7100000000000000000000000000000000000000000000000000000000600052602160045260246000fd5b145b610723576040517f08c379a000000000000000000000000000000000000000000000000000000000815260040161071a906114cb565b60405180910390fd5b600073ffffffffffffffffffffffffffffffffffffffff166007600083815260200190815260200160002060060160009054906101000a900473ffffffffffffffffffffffffffffffffffffffff1673ffffffffffffffffffffffffffffffffffffffff161461097e57600160009054906101000a900473ffffffffffffffffffffffffffffffffffffffff1673ffffffffffffffffffffffffffffffffffffffff1663566d0d86600260009054906101000a900473ffffffffffffffffffffffffffffffffffffffff166007600085815260200190815260200160002060060160009054906101000a900473ffffffffffffffffffffffffffffffffffffffff1660076000868152602001908152602001600020600101546040518463ffffffff1660e01b815260040161085a93929190611454565b600060405180830381600087803b15801561087457600080fd5b505af1158015610888573d6000803e3d6000fd5b5050505060006007600083815260200190815260200160002060040160009054906101000a900473ffffffffffffffffffffffffffffffffffffffff1673ffffffffffffffffffffffffffffffffffffffff1660076000848152602001908152602001600020600501546040516108fe90611408565b60006040518083038185875af1925050503d806000811461093b576040519150601f19603f3d011682016040523d82523d6000602084013e610940565b606091505b5050905080610978577f4e487b7100000000000000000000000000000000000000000000000000000000600052600160045260246000fd5b50610a7e565b600160009054906101000a900473ffffffffffffffffffffffffffffffffffffffff1673ffffffffffffffffffffffffffffffffffffffff1663566d0d86600260009054906101000a900473ffffffffffffffffffffffffffffffffffffffff166007600085815260200190815260200160002060040160009054906101000a900473ffffffffffffffffffffffffffffffffffffffff1660076000868152602001908152602001600020600101546040518463ffffffff1660e01b8152600401610a4b9392919061141d565b600060405180830381600087803b158015610a6557600080fd5b505af1158015610a79573d6000803e3d6000fd5b505050505b50565b60026000541415610ac7576040517f08c379a0000000000000000000000000000000000000000000000000000000008152600401610abe906114eb565b60405180910390fd5b600260008190555060006005610add33846110e9565b604051610aea91906113f1565b908152602001604051809103902054905060006005610b0933856110e9565b604051610b1691906113f1565b90815260200160405180910390208190555060003373ffffffffffffffffffffffffffffffffffffffff1682604051610b4e90611408565b60006040518083038185875af1925050503d8060008114610b8b576040519150601f19603f3d011682016040523d82523d6000602084013e610b90565b606091505b5050905080610bc8577f4e487b7100000000000000000000000000000000000000000000000000000000600052600160045260246000fd5b3373ffffffffffffffffffffffffffffffffffffffff16837f6ee929238c346518d4d72f9b07b745556fefec7100f1bcb4d37af9576a8d99a884604051610c0f919061156b565b60405180910390a35050600160008190555050565b60076020528060005260406000206000915090508060000154908060010154908060020154908060030154908060040160009054906101000a900473ffffffffffffffffffffffffffffffffffffffff16908060050154908060060160009054906101000a900473ffffffffffffffffffffffffffffffffffffffff16908060060160149054906101000a900460ff16905088565b6000600160009054906101000a900473ffffffffffffffffffffffffffffffffffffffff1673ffffffffffffffffffffffffffffffffffffffff163373ffffffffffffffffffffffffffffffffffffffff1614610d4b576040517f08c379a0000000000000000000000000000000000000000000000000000000008152600401610d429061154b565b60405180910390fd5b60026000541415610d91576040517f08c379a0000000000000000000000000000000000000000000000000000000008152600401610d88906114eb565b60405180910390fd5b600260008190555060006003811115610dd3577f4e487b7100000000000000000000000000000000000000000000000000000000600052602160045260246000fd5b6006600084815260200190815260200160002060009054906101000a900460ff166003811115610e2c577f4e487b7100000000000000000000000000000000000000000000000000000000600052602160045260246000fd5b14610e6c576040517f08c379a0000000000000000000000000000000000000000000000000000000008152600401610e639061150b565b60405180910390fd5b610e766004611115565b604051806101000160405280610e8c600461112b565b81526020018381526020018781526020018681526020018573ffffffffffffffffffffffffffffffffffffffff168152602001848152602001600073ffffffffffffffffffffffffffffffffffffffff16815260200160026003811115610f1c577f4e487b7100000000000000000000000000000000000000000000000000000000600052602160045260246000fd5b81525060076000610f2d600461112b565b81526020019081526020016000206000820151816000015560208201518160010155604082015181600201556060820151816003015560808201518160040160006101000a81548173ffffffffffffffffffffffffffffffffffffffff021916908373ffffffffffffffffffffffffffffffffffffffff16021790555060a0820151816005015560c08201518160060160006101000a81548173ffffffffffffffffffffffffffffffffffffffff021916908373ffffffffffffffffffffffffffffffffffffffff16021790555060e08201518160060160146101000a81548160ff0219169083600381111561104c577f4e487b7100000000000000000000000000000000000000000000000000000000600052602160045260246000fd5b021790555090505060026006600084815260200190815260200160002060006101000a81548160ff021916908360038111156110b1577f4e487b7100000000000000000000000000000000000000000000000000000000600052602160045260246000fd5b0217905550600760006110c4600461112b565b8152602001908152602001600020600001549050600160008190555095945050505050565b606082826040516020016110fe9291906113c5565b604051602081830303815290604052905092915050565b6001816000016000828254019250508190555050565b600081600001549050919050565b6000813590506111488161195d565b92915050565b60008135905061115d81611974565b92915050565b60006020828403121561117557600080fd5b60006111838482850161114e565b91505092915050565b600080600080600060a086880312156111a457600080fd5b60006111b28882890161114e565b95505060206111c38882890161114e565b94505060406111d488828901611139565b93505060606111e58882890161114e565b92505060806111f68882890161114e565b9150509295509295909350565b61120c816116ed565b82525050565b61121b8161169e565b82525050565b61122a8161168c565b82525050565b61124161123c8261168c565b611768565b82525050565b611250816116ff565b82525050565b600061126182611604565b61126b818561162b565b935061127b818560208601611735565b80840191505092915050565b600061129460118361161a565b915061129f82611801565b602082019050919050565b60006112b760198361161a565b91506112c28261182a565b602082019050919050565b60006112da60158361161a565b91506112e582611853565b602082019050919050565b60006112fd60008361160f565b91506113088261187c565b600082019050919050565b6000611320601f8361161a565b915061132b8261187f565b602082019050919050565b600061134360308361161a565b915061134e826118a8565b604082019050919050565b6000611366601b8361161a565b9150611371826118f7565b602082019050919050565b6000611389600b8361161a565b915061139482611920565b602082019050919050565b6113a8816116e3565b82525050565b6113bf6113ba826116e3565b61178c565b82525050565b60006113d18285611230565b6014820191506113e182846113ae565b6020820191508190509392505050565b60006113fd8284611256565b915081905092915050565b6000611413826112f0565b9150819050919050565b60006060820190506114326000830186611221565b61143f6020830185611203565b61144c604083018461139f565b949350505050565b60006060820190506114696000830186611221565b6114766020830185611221565b611483604083018461139f565b949350505050565b600060208201905081810360008301526114a481611287565b9050919050565b600060208201905081810360008301526114c4816112aa565b9050919050565b600060208201905081810360008301526114e4816112cd565b9050919050565b6000602082019050818103600083015261150481611313565b9050919050565b6000602082019050818103600083015261152481611336565b9050919050565b6000602082019050818103600083015261154481611359565b9050919050565b600060208201905081810360008301526115648161137c565b9050919050565b6000602082019050611580600083018461139f565b92915050565b60006101008201905061159c600083018b61139f565b6115a9602083018a61139f565b6115b6604083018961139f565b6115c3606083018861139f565b6115d06080830187611212565b6115dd60a083018661139f565b6115ea60c0830185611221565b6115f760e0830184611247565b9998505050505050505050565b600081519050919050565b600081905092915050565b600082825260208201905092915050565b600081905092915050565b6000611641826116e3565b915061164c836116e3565b9250827fffffffffffffffffffffffffffffffffffffffffffffffffffffffffffffffff0382111561168157611680611796565b5b828201905092915050565b6000611697826116c3565b9050919050565b60006116a9826116c3565b9050919050565b60008190506116be82611949565b919050565b600073ffffffffffffffffffffffffffffffffffffffff82169050919050565b6000819050919050565b60006116f882611711565b9050919050565b600061170a826116b0565b9050919050565b600061171c82611723565b9050919050565b600061172e826116c3565b9050919050565b60005b83811015611753578082015181840152602081019050611738565b83811115611762576000848401525b50505050565b60006117738261177a565b9050919050565b6000611785826117f4565b9050919050565b6000819050919050565b7f4e487b7100000000000000000000000000000000000000000000000000000000600052601160045260246000fd5b7f4e487b7100000000000000000000000000000000000000000000000000000000600052602160045260246000fd5b60008160601b9050919050565b7f43616e63656c6c65642041756374696f6e000000000000000000000000000000600082015250565b7f41756374696f6e204475726174696f6e20457863656564656400000000000000600082015250565b7f41756374696f6e206e6f742079657420656e6465640000000000000000000000600082015250565b50565b7f5265656e7472616e637947756172643a207265656e7472616e742063616c6c00600082015250565b7f43616e7420437265617465204e65772041756374696f6e207768696c6520616e60008201527f6f746865722069732050656e64696e6700000000000000000000000000000000602082015250565b7f626964206d757374206578636565642063757272656e74206269640000000000600082015250565b7f6e6f7420416c6c6f776564000000000000000000000000000000000000000000600082015250565b6004811061195a576119596117c5565b5b50565b6119668161168c565b811461197157600080fd5b50565b61197d816116e3565b811461198857600080fd5b5056fea264697066735822122001798978a3b06e289b259c2567ed105bb05c977cc14f247e58ae356f03286d7d64736f6c63430008040033",
  "linkReferences": {},
  "deployedLinkReferences": {}
}