{
  "_format": "hh-sol-artifact-1",
  "contractName": "AuctionFactory",
  "sourceName": "contracts/AuctionFactory.sol",
  "abi": [
    {
      "inputs": [
        {
          "internalType": "address",
          "name": "_contactAddress",
          "type": "address"
        },
        {
          "internalType": "address",
          "name": "nft",
          "type": "address"
        }
      ],
      "stateMutability": "nonpayable",
      "type": "constructor"
    },
    {
      "anonymous": false,
      "inputs": [
        {
          "indexed": true,
          "internalType": "uint256",
          "name": "auctionId",
          "type": "uint256"
        },
        {
          "indexed": true,
          "internalType": "uint256",
          "name": "tokenId",
          "type": "uint256"
        },
        {
          "indexed": true,
          "internalType": "address",
          "name": "seller",
          "type": "address"
        },
        {
          "indexed": false,
          "internalType": "enum AuctionFactory.AuctionStatus",
          "name": "status",
          "type": "uint8"
        },
        {
          "indexed": false,
          "internalType": "string",
          "name": "message",
          "type": "string"
        },
        {
          "indexed": false,
          "internalType": "uint256",
          "name": "timestamp",
          "type": "uint256"
        }
      ],
      "name": "AuctionEvent",
      "type": "event"
    },
    {
      "anonymous": false,
      "inputs": [
        {
          "indexed": true,
          "internalType": "uint256",
          "name": "auctionId",
          "type": "uint256"
        },
        {
          "indexed": true,
          "internalType": "uint256",
          "name": "tokenId",
          "type": "uint256"
        },
        {
          "indexed": false,
          "internalType": "uint256",
          "name": "amount",
          "type": "uint256"
        },
        {
          "indexed": true,
          "internalType": "address",
          "name": "bidder",
          "type": "address"
        },
        {
          "indexed": false,
          "internalType": "uint256",
          "name": "timestamp",
          "type": "uint256"
        }
      ],
      "name": "bidEvent",
      "type": "event"
    },
    {
      "anonymous": false,
      "inputs": [
        {
          "indexed": true,
          "internalType": "uint256",
          "name": "auctionId",
          "type": "uint256"
        },
        {
          "indexed": false,
          "internalType": "uint256",
          "name": "amount",
          "type": "uint256"
        },
        {
          "indexed": true,
          "internalType": "address",
          "name": "withdrawer",
          "type": "address"
        },
        {
          "indexed": false,
          "internalType": "uint256",
          "name": "timestamp",
          "type": "uint256"
        }
      ],
      "name": "withdrawEvent",
      "type": "event"
    },
    {
      "inputs": [
        {
          "internalType": "uint256",
          "name": "auctionId",
          "type": "uint256"
        }
      ],
      "name": "amountInAuction",
      "outputs": [
        {
          "internalType": "uint256",
          "name": "",
          "type": "uint256"
        }
      ],
      "stateMutability": "view",
      "type": "function"
    },
    {
      "inputs": [
        {
          "internalType": "uint256",
          "name": "",
          "type": "uint256"
        }
      ],
      "name": "auctions",
      "outputs": [
        {
          "internalType": "uint256",
          "name": "id",
          "type": "uint256"
        },
        {
          "internalType": "uint256",
          "name": "tokenId",
          "type": "uint256"
        },
        {
          "internalType": "uint256",
          "name": "startAt",
          "type": "uint256"
        },
        {
          "internalType": "uint256",
          "name": "endAt",
          "type": "uint256"
        },
        {
          "internalType": "address payable",
          "name": "seller",
          "type": "address"
        },
        {
          "internalType": "uint256",
          "name": "currentBid",
          "type": "uint256"
        },
        {
          "internalType": "address",
          "name": "highestBidder",
          "type": "address"
        },
        {
          "internalType": "enum AuctionFactory.AuctionStatus",
          "name": "status",
          "type": "uint8"
        }
      ],
      "stateMutability": "view",
      "type": "function"
    },
    {
      "inputs": [
        {
          "internalType": "uint256",
          "name": "auctionId",
          "type": "uint256"
        }
      ],
      "name": "closeAuction",
      "outputs": [],
      "stateMutability": "nonpayable",
      "type": "function"
    },
    {
      "inputs": [
        {
          "internalType": "uint256",
          "name": "startAt",
          "type": "uint256"
        },
        {
          "internalType": "uint256",
          "name": "endAt",
          "type": "uint256"
        },
        {
          "internalType": "address",
          "name": "seller",
          "type": "address"
        },
        {
          "internalType": "uint256",
          "name": "startBidPrice",
          "type": "uint256"
        },
        {
          "internalType": "uint256",
          "name": "tokenId",
          "type": "uint256"
        }
      ],
      "name": "createAuction",
      "outputs": [
        {
          "internalType": "uint256",
          "name": "",
          "type": "uint256"
        }
      ],
      "stateMutability": "nonpayable",
      "type": "function"
    },
    {
      "inputs": [
        {
          "internalType": "uint256",
          "name": "itemId",
          "type": "uint256"
        }
      ],
      "name": "getAuctionByItemId",
      "outputs": [
        {
          "components": [
            {
              "internalType": "uint256",
              "name": "id",
              "type": "uint256"
            },
            {
              "internalType": "uint256",
              "name": "tokenId",
              "type": "uint256"
            },
            {
              "internalType": "uint256",
              "name": "startAt",
              "type": "uint256"
            },
            {
              "internalType": "uint256",
              "name": "endAt",
              "type": "uint256"
            },
            {
              "internalType": "address payable",
              "name": "seller",
              "type": "address"
            },
            {
              "internalType": "uint256",
              "name": "currentBid",
              "type": "uint256"
            },
            {
              "internalType": "address",
              "name": "highestBidder",
              "type": "address"
            },
            {
              "internalType": "enum AuctionFactory.AuctionStatus",
              "name": "status",
              "type": "uint8"
            }
          ],
          "internalType": "struct AuctionFactory.Auction",
          "name": "data",
          "type": "tuple"
        }
      ],
      "stateMutability": "view",
      "type": "function"
    },
    {
      "inputs": [],
      "name": "getAuctions",
      "outputs": [
        {
          "components": [
            {
              "internalType": "uint256",
              "name": "id",
              "type": "uint256"
            },
            {
              "internalType": "uint256",
              "name": "tokenId",
              "type": "uint256"
            },
            {
              "internalType": "uint256",
              "name": "startAt",
              "type": "uint256"
            },
            {
              "internalType": "uint256",
              "name": "endAt",
              "type": "uint256"
            },
            {
              "internalType": "address payable",
              "name": "seller",
              "type": "address"
            },
            {
              "internalType": "uint256",
              "name": "currentBid",
              "type": "uint256"
            },
            {
              "internalType": "address",
              "name": "highestBidder",
              "type": "address"
            },
            {
              "internalType": "enum AuctionFactory.AuctionStatus",
              "name": "status",
              "type": "uint8"
            }
          ],
          "internalType": "struct AuctionFactory.Auction[]",
          "name": "data",
          "type": "tuple[]"
        }
      ],
      "stateMutability": "view",
      "type": "function"
    },
    {
      "inputs": [
        {
          "internalType": "uint256",
          "name": "auctionId",
          "type": "uint256"
        }
      ],
      "name": "makeBid",
      "outputs": [],
      "stateMutability": "payable",
      "type": "function"
    },
    {
      "inputs": [
        {
          "internalType": "uint256",
          "name": "",
          "type": "uint256"
        }
      ],
      "name": "tokenIdToAuction",
      "outputs": [
        {
          "internalType": "uint256",
          "name": "",
          "type": "uint256"
        }
      ],
      "stateMutability": "view",
      "type": "function"
    },
    {
      "inputs": [
        {
          "internalType": "uint256",
          "name": "auctionId",
          "type": "uint256"
        }
      ],
      "name": "withdraw",
      "outputs": [],
      "stateMutability": "payable",
      "type": "function"
    }
  ],
  "bytecode": "0x60806040523480156200001157600080fd5b5060405162002b9538038062002b958339818101604052810190620000379190620000e0565b600160008190555081600160006101000a81548173ffffffffffffffffffffffffffffffffffffffff021916908373ffffffffffffffffffffffffffffffffffffffff16021790555080600260006101000a81548173ffffffffffffffffffffffffffffffffffffffff021916908373ffffffffffffffffffffffffffffffffffffffff16021790555050506200016f565b600081519050620000da8162000155565b92915050565b60008060408385031215620000f457600080fd5b60006200010485828601620000c9565b92505060206200011785828601620000c9565b9150509250929050565b60006200012e8262000135565b9050919050565b600073ffffffffffffffffffffffffffffffffffffffff82169050919050565b620001608162000121565b81146200016c57600080fd5b50565b612a16806200017f6000396000f3fe6080604052600436106100865760003560e01c80632e1a7d4d116100595780632e1a7d4d1461014a578063571a26a014610166578063627501b8146101aa578063d7c06919146101e7578063e3b147571461021257610086565b806303618f281461008b578063175b2304146100c85780631eec30bb146100e4578063236ed8f314610121575b600080fd5b34801561009757600080fd5b506100b260048036038101906100ad9190611bf3565b61024f565b6040516100bf9190612390565b60405180910390f35b6100e260048036038101906100dd9190611bf3565b610280565b005b3480156100f057600080fd5b5061010b60048036038101906101069190611bf3565b6107ba565b6040516101189190612374565b60405180910390f35b34801561012d57600080fd5b5061014860048036038101906101439190611bf3565b610a15565b005b610164600480360381019061015f9190611bf3565b610fc5565b005b34801561017257600080fd5b5061018d60048036038101906101889190611bf3565b61116a565b6040516101a19897969594939291906123d4565b60405180910390f35b3480156101b657600080fd5b506101d160048036038101906101cc9190611c1c565b6111ff565b6040516101de9190612390565b60405180910390f35b3480156101f357600080fd5b506101fc611680565b604051610209919061219e565b60405180910390f35b34801561021e57600080fd5b5061023960048036038101906102349190611bf3565b611901565b6040516102469190612390565b60405180910390f35b6000600561025d3384611919565b60405161026a9190612104565b9081526020016040518091039020549050919050565b600260005414156102c6576040517f08c379a00000000000000000000000000000000000000000000000000000000081526004016102bd906122f4565b60405180910390fd5b60026000819055504260076000838152602001908152602001600020600201541115801561030a575042600760008381526020019081526020016000206003015410155b610349576040517f08c379a0000000000000000000000000000000000000000000000000000000008152600401610340906122b4565b60405180910390fd5b600760008281526020019081526020016000206005015434116103a1576040517f08c379a000000000000000000000000000000000000000000000000000000000815260040161039890612334565b60405180910390fd5b6003808111156103da577f4e487b7100000000000000000000000000000000000000000000000000000000600052602160045260246000fd5b6007600083815260200190815260200160002060060160149054906101000a900460ff166003811115610436577f4e487b7100000000000000000000000000000000000000000000000000000000600052602160045260246000fd5b1415610477576040517f08c379a000000000000000000000000000000000000000000000000000000000815260040161046e90612294565b60405180910390fd5b600073ffffffffffffffffffffffffffffffffffffffff166007600083815260200190815260200160002060060160009054906101000a900473ffffffffffffffffffffffffffffffffffffffff1673ffffffffffffffffffffffffffffffffffffffff1614610570576007600082815260200190815260200160002060050154600561053a6007600085815260200190815260200160002060060160009054906101000a900473ffffffffffffffffffffffffffffffffffffffff1684611919565b6040516105479190612104565b9081526020016040518091039020600082825461056491906124e2565b9250508190555061068b565b60016007600083815260200190815260200160002060060160146101000a81548160ff021916908360038111156105d0577f4e487b7100000000000000000000000000000000000000000000000000000000600052602160045260246000fd5b02179055506007600082815260200190815260200160002060040160009054906101000a900473ffffffffffffffffffffffffffffffffffffffff1673ffffffffffffffffffffffffffffffffffffffff16600760008381526020019081526020016000206001015460076000848152602001908152602001600020600001547fffb1d2f6f0c8287178f463377375b3749a7f1b8d235b3f8d193d853a9a335e6c6001426040516106829291906121c0565b60405180910390a45b336007600083815260200190815260200160002060060160006101000a81548173ffffffffffffffffffffffffffffffffffffffff021916908373ffffffffffffffffffffffffffffffffffffffff1602179055503460076000838152602001908152602001600020600501819055506007600082815260200190815260200160002060060160009054906101000a900473ffffffffffffffffffffffffffffffffffffffff1673ffffffffffffffffffffffffffffffffffffffff166007600083815260200190815260200160002060010154827f0cc7dfcf1bad81f70c1a2ce023c8f0e17445d67f4d3c4ac4c031d567a844cfc76007600086815260200190815260200160002060050154426040516107a79291906123ab565b60405180910390a4600160008190555050565b6107c26119c5565b6000600160009054906101000a900473ffffffffffffffffffffffffffffffffffffffff1673ffffffffffffffffffffffffffffffffffffffff1663db692710846040518263ffffffff1660e01b815260040161081f9190612390565b6101406040518083038186803b15801561083857600080fd5b505afa15801561084c573d6000803e3d6000fd5b505050506040513d601f19601f820116820180604052508101906108709190611bc9565b905060076000600660008460200151815260200190815260200160002054815260200190815260200160002060405180610100016040529081600082015481526020016001820154815260200160028201548152602001600382015481526020016004820160009054906101000a900473ffffffffffffffffffffffffffffffffffffffff1673ffffffffffffffffffffffffffffffffffffffff1673ffffffffffffffffffffffffffffffffffffffff168152602001600582015481526020016006820160009054906101000a900473ffffffffffffffffffffffffffffffffffffffff1673ffffffffffffffffffffffffffffffffffffffff1673ffffffffffffffffffffffffffffffffffffffff1681526020016006820160149054906101000a900460ff1660038111156109d1577f4e487b7100000000000000000000000000000000000000000000000000000000600052602160045260246000fd5b6003811115610a09577f4e487b7100000000000000000000000000000000000000000000000000000000600052602160045260246000fd5b81525050915050919050565b42600760008381526020019081526020016000206003015410610a6d576040517f08c379a0000000000000000000000000000000000000000000000000000000008152600401610a64906122d4565b60405180910390fd5b600380811115610aa6577f4e487b7100000000000000000000000000000000000000000000000000000000600052602160045260246000fd5b6007600083815260200190815260200160002060060160149054906101000a900460ff166003811115610b02577f4e487b7100000000000000000000000000000000000000000000000000000000600052602160045260246000fd5b1415610b43576040517f08c379a0000000000000000000000000000000000000000000000000000000008152600401610b3a90612294565b60405180910390fd5b600073ffffffffffffffffffffffffffffffffffffffff166007600083815260200190815260200160002060060160009054906101000a900473ffffffffffffffffffffffffffffffffffffffff1673ffffffffffffffffffffffffffffffffffffffff1614610d9e57600160009054906101000a900473ffffffffffffffffffffffffffffffffffffffff1673ffffffffffffffffffffffffffffffffffffffff1663566d0d86600260009054906101000a900473ffffffffffffffffffffffffffffffffffffffff166007600085815260200190815260200160002060060160009054906101000a900473ffffffffffffffffffffffffffffffffffffffff1660076000868152602001908152602001600020600101546040518463ffffffff1660e01b8152600401610c7a93929190612167565b600060405180830381600087803b158015610c9457600080fd5b505af1158015610ca8573d6000803e3d6000fd5b5050505060006007600083815260200190815260200160002060040160009054906101000a900473ffffffffffffffffffffffffffffffffffffffff1673ffffffffffffffffffffffffffffffffffffffff166007600084815260200190815260200160002060050154604051610d1e9061211b565b60006040518083038185875af1925050503d8060008114610d5b576040519150601f19603f3d011682016040523d82523d6000602084013e610d60565b606091505b5050905080610d98577f4e487b7100000000000000000000000000000000000000000000000000000000600052600160045260246000fd5b50610e9e565b600160009054906101000a900473ffffffffffffffffffffffffffffffffffffffff1673ffffffffffffffffffffffffffffffffffffffff1663566d0d86600260009054906101000a900473ffffffffffffffffffffffffffffffffffffffff166007600085815260200190815260200160002060040160009054906101000a900473ffffffffffffffffffffffffffffffffffffffff1660076000868152602001908152602001600020600101546040518463ffffffff1660e01b8152600401610e6b93929190612130565b600060405180830381600087803b158015610e8557600080fd5b505af1158015610e99573d6000803e3d6000fd5b505050505b610ea86003611945565b60006007600083815260200190815260200160002060060160146101000a81548160ff02191690836003811115610f08577f4e487b7100000000000000000000000000000000000000000000000000000000600052602160045260246000fd5b02179055506007600082815260200190815260200160002060040160009054906101000a900473ffffffffffffffffffffffffffffffffffffffff1673ffffffffffffffffffffffffffffffffffffffff16600760008381526020019081526020016000206001015460076000848152602001908152602001600020600001547fffb1d2f6f0c8287178f463377375b3749a7f1b8d235b3f8d193d853a9a335e6c600042604051610fba929190612238565b60405180910390a450565b6002600054141561100b576040517f08c379a0000000000000000000000000000000000000000000000000000000008152600401611002906122f4565b60405180910390fd5b6002600081905550600060056110213384611919565b60405161102e9190612104565b90815260200160405180910390205490506000600561104d3385611919565b60405161105a9190612104565b90815260200160405180910390208190555060003373ffffffffffffffffffffffffffffffffffffffff16826040516110929061211b565b60006040518083038185875af1925050503d80600081146110cf576040519150601f19603f3d011682016040523d82523d6000602084013e6110d4565b606091505b505090508061110c577f4e487b7100000000000000000000000000000000000000000000000000000000600052600160045260246000fd5b3373ffffffffffffffffffffffffffffffffffffffff16837f79dec44595733c5a009620541bdf4860f649de634b12fe41770c5b03fea9589284426040516111559291906123ab565b60405180910390a35050600160008190555050565b60076020528060005260406000206000915090508060000154908060010154908060020154908060030154908060040160009054906101000a900473ffffffffffffffffffffffffffffffffffffffff16908060050154908060060160009054906101000a900473ffffffffffffffffffffffffffffffffffffffff16908060060160149054906101000a900460ff16905088565b6000600160009054906101000a900473ffffffffffffffffffffffffffffffffffffffff1673ffffffffffffffffffffffffffffffffffffffff163373ffffffffffffffffffffffffffffffffffffffff1614611291576040517f08c379a000000000000000000000000000000000000000000000000000000000815260040161128890612354565b60405180910390fd5b600260005414156112d7576040517f08c379a00000000000000000000000000000000000000000000000000000000081526004016112ce906122f4565b60405180910390fd5b600260008190555060006003811115611319577f4e487b7100000000000000000000000000000000000000000000000000000000600052602160045260246000fd5b600760006006600086815260200190815260200160002054815260200190815260200160002060060160149054906101000a900460ff166003811115611388577f4e487b7100000000000000000000000000000000000000000000000000000000600052602160045260246000fd5b146113c8576040517f08c379a00000000000000000000000000000000000000000000000000000000081526004016113bf90612314565b60405180910390fd5b6113d260036119a1565b6113dc60046119a1565b6040518061010001604052806113f260046119b7565b81526020018381526020018781526020018681526020018573ffffffffffffffffffffffffffffffffffffffff168152602001848152602001600073ffffffffffffffffffffffffffffffffffffffff16815260200160026003811115611482577f4e487b7100000000000000000000000000000000000000000000000000000000600052602160045260246000fd5b8152506007600061149360046119b7565b81526020019081526020016000206000820151816000015560208201518160010155604082015181600201556060820151816003015560808201518160040160006101000a81548173ffffffffffffffffffffffffffffffffffffffff021916908373ffffffffffffffffffffffffffffffffffffffff16021790555060a0820151816005015560c08201518160060160006101000a81548173ffffffffffffffffffffffffffffffffffffffff021916908373ffffffffffffffffffffffffffffffffffffffff16021790555060e08201518160060160146101000a81548160ff021916908360038111156115b2577f4e487b7100000000000000000000000000000000000000000000000000000000600052602160045260246000fd5b02179055509050506115c460046119b7565b60066000848152602001908152602001600020819055508373ffffffffffffffffffffffffffffffffffffffff16826007600061160160046119b7565b8152602001908152602001600020600001547fffb1d2f6f0c8287178f463377375b3749a7f1b8d235b3f8d193d853a9a335e6c6002426040516116459291906121fc565b60405180910390a46007600061165b60046119b7565b8152602001908152602001600020600001549050600160008190555095945050505050565b606061168c60046119b7565b67ffffffffffffffff8111156116cb577f4e487b7100000000000000000000000000000000000000000000000000000000600052604160045260246000fd5b60405190808252806020026020018201604052801561170457816020015b6116f16119c5565b8152602001906001900390816116e95790505b5090506000600190505b815181116118fd576007600082815260200190815260200160002060405180610100016040529081600082015481526020016001820154815260200160028201548152602001600382015481526020016004820160009054906101000a900473ffffffffffffffffffffffffffffffffffffffff1673ffffffffffffffffffffffffffffffffffffffff1673ffffffffffffffffffffffffffffffffffffffff168152602001600582015481526020016006820160009054906101000a900473ffffffffffffffffffffffffffffffffffffffff1673ffffffffffffffffffffffffffffffffffffffff1673ffffffffffffffffffffffffffffffffffffffff1681526020016006820160149054906101000a900460ff16600381111561185e577f4e487b7100000000000000000000000000000000000000000000000000000000600052602160045260246000fd5b6003811115611896577f4e487b7100000000000000000000000000000000000000000000000000000000600052602160045260246000fd5b81525050826001836118a89190612538565b815181106118df577f4e487b7100000000000000000000000000000000000000000000000000000000600052603260045260246000fd5b602002602001018190525080806118f590612679565b91505061170e565b5090565b60066020528060005260406000206000915090505481565b6060828260405160200161192e9291906120d8565b604051602081830303815290604052905092915050565b60008160000154905060008111611991576040517f08c379a000000000000000000000000000000000000000000000000000000000815260040161198890612274565b60405180910390fd5b6001810382600001819055505050565b6001816000016000828254019250508190555050565b600081600001549050919050565b60405180610100016040528060008152602001600081526020016000815260200160008152602001600073ffffffffffffffffffffffffffffffffffffffff16815260200160008152602001600073ffffffffffffffffffffffffffffffffffffffff16815260200160006003811115611a68577f4e487b7100000000000000000000000000000000000000000000000000000000600052602160045260246000fd5b81525090565b600081359050611a7d8161299b565b92915050565b600081519050611a928161299b565b92915050565b600081519050611aa7816129b2565b92915050565b60006101408284031215611ac057600080fd5b611acb610140612452565b90506000611adb84828501611bb4565b6000830152506020611aef84828501611bb4565b6020830152506040611b0384828501611a83565b6040830152506060611b1784828501611a98565b6060830152506080611b2b84828501611a98565b60808301525060a0611b3f84828501611bb4565b60a08301525060c0611b5384828501611bb4565b60c08301525060e0611b6784828501611bb4565b60e083015250610100611b7c84828501611bb4565b61010083015250610120611b9284828501611bb4565b6101208301525092915050565b600081359050611bae816129c9565b92915050565b600081519050611bc3816129c9565b92915050565b60006101408284031215611bdc57600080fd5b6000611bea84828501611aad565b91505092915050565b600060208284031215611c0557600080fd5b6000611c1384828501611b9f565b91505092915050565b600080600080600060a08688031215611c3457600080fd5b6000611c4288828901611b9f565b9550506020611c5388828901611b9f565b9450506040611c6488828901611a6e565b9350506060611c7588828901611b9f565b9250506080611c8688828901611b9f565b9150509295509295909350565b6000611c9f8383611f5f565b6101008301905092915050565b611cb5816125cd565b82525050565b611cc48161257e565b82525050565b611cd38161257e565b82525050565b611ce28161256c565b82525050565b611cf18161256c565b82525050565b611d08611d038261256c565b6126c2565b82525050565b6000611d1982612487565b611d2381856124aa565b9350611d2e83612477565b8060005b83811015611d5f578151611d468882611c93565b9750611d518361249d565b925050600181019050611d32565b5085935050505092915050565b611d75816125df565b82525050565b611d84816125df565b82525050565b6000611d9582612492565b611d9f81856124d7565b9350611daf818560208601612615565b80840191505092915050565b6000611dc8600d836124c6565b9150611dd38261279b565b602082019050919050565b6000611deb601b836124c6565b9150611df6826127c4565b602082019050919050565b6000611e0e6010836124c6565b9150611e19826127ed565b602082019050919050565b6000611e316011836124c6565b9150611e3c82612816565b602082019050919050565b6000611e546019836124c6565b9150611e5f8261283f565b602082019050919050565b6000611e77600e836124c6565b9150611e8282612868565b602082019050919050565b6000611e9a6015836124c6565b9150611ea582612891565b602082019050919050565b6000611ebd6000836124bb565b9150611ec8826128ba565b600082019050919050565b6000611ee0601f836124c6565b9150611eeb826128bd565b602082019050919050565b6000611f036030836124c6565b9150611f0e826128e6565b604082019050919050565b6000611f26601b836124c6565b9150611f3182612935565b602082019050919050565b6000611f49600b836124c6565b9150611f548261295e565b602082019050919050565b61010082016000820151611f7660008501826120a3565b506020820151611f8960208501826120a3565b506040820151611f9c60408501826120a3565b506060820151611faf60608501826120a3565b506080820151611fc26080850182611cbb565b5060a0820151611fd560a08501826120a3565b5060c0820151611fe860c0850182611cd9565b5060e0820151611ffb60e0850182611d6c565b50505050565b6101008201600082015161201860008501826120a3565b50602082015161202b60208501826120a3565b50604082015161203e60408501826120a3565b50606082015161205160608501826120a3565b5060808201516120646080850182611cbb565b5060a082015161207760a08501826120a3565b5060c082015161208a60c0850182611cd9565b5060e082015161209d60e0850182611d6c565b50505050565b6120ac816125c3565b82525050565b6120bb816125c3565b82525050565b6120d26120cd826125c3565b6126e6565b82525050565b60006120e48285611cf7565b6014820191506120f482846120c1565b6020820191508190509392505050565b60006121108284611d8a565b915081905092915050565b600061212682611eb0565b9150819050919050565b60006060820190506121456000830186611ce8565b6121526020830185611cac565b61215f60408301846120b2565b949350505050565b600060608201905061217c6000830186611ce8565b6121896020830185611ce8565b61219660408301846120b2565b949350505050565b600060208201905081810360008301526121b88184611d0e565b905092915050565b60006060820190506121d56000830185611d7b565b81810360208301526121e681611dbb565b90506121f560408301846120b2565b9392505050565b60006060820190506122116000830185611d7b565b818103602083015261222281611e01565b905061223160408301846120b2565b9392505050565b600060608201905061224d6000830185611d7b565b818103602083015261225e81611e6a565b905061226d60408301846120b2565b9392505050565b6000602082019050818103600083015261228d81611dde565b9050919050565b600060208201905081810360008301526122ad81611e24565b9050919050565b600060208201905081810360008301526122cd81611e47565b9050919050565b600060208201905081810360008301526122ed81611e8d565b9050919050565b6000602082019050818103600083015261230d81611ed3565b9050919050565b6000602082019050818103600083015261232d81611ef6565b9050919050565b6000602082019050818103600083015261234d81611f19565b9050919050565b6000602082019050818103600083015261236d81611f3c565b9050919050565b60006101008201905061238a6000830184612001565b92915050565b60006020820190506123a560008301846120b2565b92915050565b60006040820190506123c060008301856120b2565b6123cd60208301846120b2565b9392505050565b6000610100820190506123ea600083018b6120b2565b6123f7602083018a6120b2565b61240460408301896120b2565b61241160608301886120b2565b61241e6080830187611cca565b61242b60a08301866120b2565b61243860c0830185611ce8565b61244560e0830184611d7b565b9998505050505050505050565b600061245c61246d565b90506124688282612648565b919050565b6000604051905090565b6000819050602082019050919050565b600081519050919050565b600081519050919050565b6000602082019050919050565b600082825260208201905092915050565b600081905092915050565b600082825260208201905092915050565b600081905092915050565b60006124ed826125c3565b91506124f8836125c3565b9250827fffffffffffffffffffffffffffffffffffffffffffffffffffffffffffffffff0382111561252d5761252c6126f0565b5b828201905092915050565b6000612543826125c3565b915061254e836125c3565b925082821015612561576125606126f0565b5b828203905092915050565b6000612577826125a3565b9050919050565b6000612589826125a3565b9050919050565b600081905061259e82612987565b919050565b600073ffffffffffffffffffffffffffffffffffffffff82169050919050565b6000819050919050565b60006125d8826125f1565b9050919050565b60006125ea82612590565b9050919050565b60006125fc82612603565b9050919050565b600061260e826125a3565b9050919050565b60005b83811015612633578082015181840152602081019050612618565b83811115612642576000848401525b50505050565b6126518261277d565b810181811067ffffffffffffffff821117156126705761266f61274e565b5b80604052505050565b6000612684826125c3565b91507fffffffffffffffffffffffffffffffffffffffffffffffffffffffffffffffff8214156126b7576126b66126f0565b5b600182019050919050565b60006126cd826126d4565b9050919050565b60006126df8261278e565b9050919050565b6000819050919050565b7f4e487b7100000000000000000000000000000000000000000000000000000000600052601160045260246000fd5b7f4e487b7100000000000000000000000000000000000000000000000000000000600052602160045260246000fd5b7f4e487b7100000000000000000000000000000000000000000000000000000000600052604160045260246000fd5b6000601f19601f8301169050919050565b60008160601b9050919050565b7f41756374696f6e20537461727400000000000000000000000000000000000000600082015250565b7f436f756e7465723a2064656372656d656e74206f766572666c6f770000000000600082015250565b7f52657365727665642041756374696f6e00000000000000000000000000000000600082015250565b7f43616e63656c6c65642041756374696f6e000000000000000000000000000000600082015250565b7f41756374696f6e204475726174696f6e20457863656564656400000000000000600082015250565b7f41756374696f6e20436c6f736564000000000000000000000000000000000000600082015250565b7f41756374696f6e206e6f742079657420656e6465640000000000000000000000600082015250565b50565b7f5265656e7472616e637947756172643a207265656e7472616e742063616c6c00600082015250565b7f43616e7420437265617465204e65772041756374696f6e207768696c6520616e60008201527f6f746865722069732050656e64696e6700000000000000000000000000000000602082015250565b7f626964206d757374206578636565642063757272656e74206269640000000000600082015250565b7f6e6f7420416c6c6f776564000000000000000000000000000000000000000000600082015250565b600481106129985761299761271f565b5b50565b6129a48161256c565b81146129af57600080fd5b50565b6129bb8161257e565b81146129c657600080fd5b50565b6129d2816125c3565b81146129dd57600080fd5b5056fea26469706673582212209dea204827d9c6c3561d640f658330af1f02cd31d6fecb191d37af03eae5d8b664736f6c63430008040033",
  "linkReferences": {},
  "deployedLinkReferences": {}
}