{
  "_format": "hh-sol-artifact-1",
  "contractName": "AuctionFactory",
  "sourceName": "contracts/AuctionFactory.sol",
  "abi": [
    {
      "inputs": [
        {
          "internalType": "address",
          "name": "_contactAddress",
          "type": "address"
        },
        {
          "internalType": "address",
          "name": "nft",
          "type": "address"
        }
      ],
      "stateMutability": "nonpayable",
      "type": "constructor"
    },
    {
      "anonymous": false,
      "inputs": [
        {
          "indexed": true,
          "internalType": "uint256",
          "name": "auctionId",
          "type": "uint256"
        },
        {
          "indexed": true,
          "internalType": "uint256",
          "name": "tokenId",
          "type": "uint256"
        },
        {
          "indexed": true,
          "internalType": "address",
          "name": "seller",
          "type": "address"
        },
        {
          "indexed": false,
          "internalType": "enum AuctionFactory.AuctionStatus",
          "name": "status",
          "type": "uint8"
        },
        {
          "indexed": false,
          "internalType": "string",
          "name": "message",
          "type": "string"
        }
      ],
      "name": "AuctionEvent",
      "type": "event"
    },
    {
      "anonymous": false,
      "inputs": [
        {
          "indexed": true,
          "internalType": "uint256",
          "name": "auctionId",
          "type": "uint256"
        },
        {
          "indexed": true,
          "internalType": "uint256",
          "name": "tokenId",
          "type": "uint256"
        },
        {
          "indexed": false,
          "internalType": "uint256",
          "name": "amount",
          "type": "uint256"
        },
        {
          "indexed": true,
          "internalType": "address",
          "name": "bidder",
          "type": "address"
        }
      ],
      "name": "bidEvent",
      "type": "event"
    },
    {
      "anonymous": false,
      "inputs": [
        {
          "indexed": true,
          "internalType": "uint256",
          "name": "auctionId",
          "type": "uint256"
        },
        {
          "indexed": false,
          "internalType": "uint256",
          "name": "amount",
          "type": "uint256"
        },
        {
          "indexed": true,
          "internalType": "address",
          "name": "withdrawer",
          "type": "address"
        }
      ],
      "name": "withdrawEvent",
      "type": "event"
    },
    {
      "inputs": [
        {
          "internalType": "uint256",
          "name": "",
          "type": "uint256"
        }
      ],
      "name": "auctions",
      "outputs": [
        {
          "internalType": "uint256",
          "name": "id",
          "type": "uint256"
        },
        {
          "internalType": "uint256",
          "name": "tokenId",
          "type": "uint256"
        },
        {
          "internalType": "uint256",
          "name": "startAt",
          "type": "uint256"
        },
        {
          "internalType": "uint256",
          "name": "endAt",
          "type": "uint256"
        },
        {
          "internalType": "address payable",
          "name": "seller",
          "type": "address"
        },
        {
          "internalType": "uint256",
          "name": "currentBid",
          "type": "uint256"
        },
        {
          "internalType": "address",
          "name": "highestBidder",
          "type": "address"
        },
        {
          "internalType": "enum AuctionFactory.AuctionStatus",
          "name": "status",
          "type": "uint8"
        }
      ],
      "stateMutability": "view",
      "type": "function"
    },
    {
      "inputs": [
        {
          "internalType": "uint256",
          "name": "auctionId",
          "type": "uint256"
        }
      ],
      "name": "closeAuction",
      "outputs": [],
      "stateMutability": "nonpayable",
      "type": "function"
    },
    {
      "inputs": [
        {
          "internalType": "uint256",
          "name": "startAt",
          "type": "uint256"
        },
        {
          "internalType": "uint256",
          "name": "endAt",
          "type": "uint256"
        },
        {
          "internalType": "address",
          "name": "seller",
          "type": "address"
        },
        {
          "internalType": "uint256",
          "name": "startBidPrice",
          "type": "uint256"
        },
        {
          "internalType": "uint256",
          "name": "tokenId",
          "type": "uint256"
        }
      ],
      "name": "createAuction",
      "outputs": [
        {
          "internalType": "uint256",
          "name": "",
          "type": "uint256"
        }
      ],
      "stateMutability": "nonpayable",
      "type": "function"
    },
    {
      "inputs": [
        {
          "internalType": "uint256",
          "name": "itemId",
          "type": "uint256"
        }
      ],
      "name": "getAuctionByItemId",
      "outputs": [
        {
          "components": [
            {
              "internalType": "uint256",
              "name": "id",
              "type": "uint256"
            },
            {
              "internalType": "uint256",
              "name": "tokenId",
              "type": "uint256"
            },
            {
              "internalType": "uint256",
              "name": "startAt",
              "type": "uint256"
            },
            {
              "internalType": "uint256",
              "name": "endAt",
              "type": "uint256"
            },
            {
              "internalType": "address payable",
              "name": "seller",
              "type": "address"
            },
            {
              "internalType": "uint256",
              "name": "currentBid",
              "type": "uint256"
            },
            {
              "internalType": "address",
              "name": "highestBidder",
              "type": "address"
            },
            {
              "internalType": "enum AuctionFactory.AuctionStatus",
              "name": "status",
              "type": "uint8"
            }
          ],
          "internalType": "struct AuctionFactory.Auction",
          "name": "data",
          "type": "tuple"
        }
      ],
      "stateMutability": "view",
      "type": "function"
    },
    {
      "inputs": [],
      "name": "getAuctions",
      "outputs": [
        {
          "components": [
            {
              "internalType": "uint256",
              "name": "id",
              "type": "uint256"
            },
            {
              "internalType": "uint256",
              "name": "tokenId",
              "type": "uint256"
            },
            {
              "internalType": "uint256",
              "name": "startAt",
              "type": "uint256"
            },
            {
              "internalType": "uint256",
              "name": "endAt",
              "type": "uint256"
            },
            {
              "internalType": "address payable",
              "name": "seller",
              "type": "address"
            },
            {
              "internalType": "uint256",
              "name": "currentBid",
              "type": "uint256"
            },
            {
              "internalType": "address",
              "name": "highestBidder",
              "type": "address"
            },
            {
              "internalType": "enum AuctionFactory.AuctionStatus",
              "name": "status",
              "type": "uint8"
            }
          ],
          "internalType": "struct AuctionFactory.Auction[]",
          "name": "data",
          "type": "tuple[]"
        }
      ],
      "stateMutability": "view",
      "type": "function"
    },
    {
      "inputs": [
        {
          "internalType": "uint256",
          "name": "auctionId",
          "type": "uint256"
        }
      ],
      "name": "makeBid",
      "outputs": [],
      "stateMutability": "payable",
      "type": "function"
    },
    {
      "inputs": [
        {
          "internalType": "uint256",
          "name": "",
          "type": "uint256"
        }
      ],
      "name": "tokenIdToAuction",
      "outputs": [
        {
          "internalType": "uint256",
          "name": "",
          "type": "uint256"
        }
      ],
      "stateMutability": "view",
      "type": "function"
    },
    {
      "inputs": [
        {
          "internalType": "uint256",
          "name": "auctionId",
          "type": "uint256"
        }
      ],
      "name": "withdraw",
      "outputs": [],
      "stateMutability": "payable",
      "type": "function"
    }
  ],
  "bytecode": "0x60806040523480156200001157600080fd5b5060405162002abf38038062002abf8339818101604052810190620000379190620000e0565b600160008190555081600160006101000a81548173ffffffffffffffffffffffffffffffffffffffff021916908373ffffffffffffffffffffffffffffffffffffffff16021790555080600260006101000a81548173ffffffffffffffffffffffffffffffffffffffff021916908373ffffffffffffffffffffffffffffffffffffffff16021790555050506200016f565b600081519050620000da8162000155565b92915050565b60008060408385031215620000f457600080fd5b60006200010485828601620000c9565b92505060206200011785828601620000c9565b9150509250929050565b60006200012e8262000135565b9050919050565b600073ffffffffffffffffffffffffffffffffffffffff82169050919050565b620001608162000121565b81146200016c57600080fd5b50565b612940806200017f6000396000f3fe60806040526004361061007b5760003560e01c8063571a26a01161004e578063571a26a01461011e578063627501b814610162578063d7c069191461019f578063e3b14757146101ca5761007b565b8063175b2304146100805780631eec30bb1461009c578063236ed8f3146100d95780632e1a7d4d14610102575b600080fd5b61009a60048036038101906100959190611b70565b610207565b005b3480156100a857600080fd5b506100c360048036038101906100be9190611b70565b61073d565b6040516100d091906122c7565b60405180910390f35b3480156100e557600080fd5b5061010060048036038101906100fb9190611b70565b610998565b005b61011c60048036038101906101179190611b70565b610f46565b005b34801561012a57600080fd5b5061014560048036038101906101409190611b70565b6110e9565b6040516101599897969594939291906122fe565b60405180910390f35b34801561016e57600080fd5b5061018960048036038101906101849190611b99565b61117e565b60405161019691906122e3565b60405180910390f35b3480156101ab57600080fd5b506101b46115fd565b6040516101c1919061211b565b60405180910390f35b3480156101d657600080fd5b506101f160048036038101906101ec9190611b70565b61187e565b6040516101fe91906122e3565b60405180910390f35b6002600054141561024d576040517f08c379a000000000000000000000000000000000000000000000000000000000815260040161024490612247565b60405180910390fd5b600260008190555042600760008381526020019081526020016000206002015411158015610291575042600760008381526020019081526020016000206003015410155b6102d0576040517f08c379a00000000000000000000000000000000000000000000000000000000081526004016102c790612207565b60405180910390fd5b60076000828152602001908152602001600020600501543411610328576040517f08c379a000000000000000000000000000000000000000000000000000000000815260040161031f90612287565b60405180910390fd5b600380811115610361577f4e487b7100000000000000000000000000000000000000000000000000000000600052602160045260246000fd5b6007600083815260200190815260200160002060060160149054906101000a900460ff1660038111156103bd577f4e487b7100000000000000000000000000000000000000000000000000000000600052602160045260246000fd5b14156103fe576040517f08c379a00000000000000000000000000000000000000000000000000000000081526004016103f5906121e7565b60405180910390fd5b600073ffffffffffffffffffffffffffffffffffffffff166007600083815260200190815260200160002060060160009054906101000a900473ffffffffffffffffffffffffffffffffffffffff1673ffffffffffffffffffffffffffffffffffffffff16146104f757600760008281526020019081526020016000206005015460056104c16007600085815260200190815260200160002060060160009054906101000a900473ffffffffffffffffffffffffffffffffffffffff1684611896565b6040516104ce9190612081565b908152602001604051809103902060008282546104eb919061240c565b92505081905550610610565b60016007600083815260200190815260200160002060060160146101000a81548160ff02191690836003811115610557577f4e487b7100000000000000000000000000000000000000000000000000000000600052602160045260246000fd5b02179055506007600082815260200190815260200160002060040160009054906101000a900473ffffffffffffffffffffffffffffffffffffffff1673ffffffffffffffffffffffffffffffffffffffff16600760008381526020019081526020016000206001015460076000848152602001908152602001600020600001547f4de84b90a4592d3fe62f4285ed7f00d67b61d1f60d51097f7f1d767ff4beeba26001604051610607919061213d565b60405180910390a45b336007600083815260200190815260200160002060060160006101000a81548173ffffffffffffffffffffffffffffffffffffffff021916908373ffffffffffffffffffffffffffffffffffffffff1602179055503460076000838152602001908152602001600020600501819055506007600082815260200190815260200160002060060160009054906101000a900473ffffffffffffffffffffffffffffffffffffffff1673ffffffffffffffffffffffffffffffffffffffff166007600083815260200190815260200160002060010154827ffbeecd9ec28b67457ca40d6825a0601fb92ef896e2db0164432101e0a6263989600760008681526020019081526020016000206005015460405161072a91906122e3565b60405180910390a4600160008190555050565b610745611942565b6000600160009054906101000a900473ffffffffffffffffffffffffffffffffffffffff1673ffffffffffffffffffffffffffffffffffffffff1663db692710846040518263ffffffff1660e01b81526004016107a291906122e3565b6101406040518083038186803b1580156107bb57600080fd5b505afa1580156107cf573d6000803e3d6000fd5b505050506040513d601f19601f820116820180604052508101906107f39190611b46565b905060076000600660008460200151815260200190815260200160002054815260200190815260200160002060405180610100016040529081600082015481526020016001820154815260200160028201548152602001600382015481526020016004820160009054906101000a900473ffffffffffffffffffffffffffffffffffffffff1673ffffffffffffffffffffffffffffffffffffffff1673ffffffffffffffffffffffffffffffffffffffff168152602001600582015481526020016006820160009054906101000a900473ffffffffffffffffffffffffffffffffffffffff1673ffffffffffffffffffffffffffffffffffffffff1673ffffffffffffffffffffffffffffffffffffffff1681526020016006820160149054906101000a900460ff166003811115610954577f4e487b7100000000000000000000000000000000000000000000000000000000600052602160045260246000fd5b600381111561098c577f4e487b7100000000000000000000000000000000000000000000000000000000600052602160045260246000fd5b81525050915050919050565b426007600083815260200190815260200160002060030154106109f0576040517f08c379a00000000000000000000000000000000000000000000000000000000081526004016109e790612227565b60405180910390fd5b600380811115610a29577f4e487b7100000000000000000000000000000000000000000000000000000000600052602160045260246000fd5b6007600083815260200190815260200160002060060160149054906101000a900460ff166003811115610a85577f4e487b7100000000000000000000000000000000000000000000000000000000600052602160045260246000fd5b1415610ac6576040517f08c379a0000000000000000000000000000000000000000000000000000000008152600401610abd906121e7565b60405180910390fd5b600073ffffffffffffffffffffffffffffffffffffffff166007600083815260200190815260200160002060060160009054906101000a900473ffffffffffffffffffffffffffffffffffffffff1673ffffffffffffffffffffffffffffffffffffffff1614610d2157600160009054906101000a900473ffffffffffffffffffffffffffffffffffffffff1673ffffffffffffffffffffffffffffffffffffffff1663566d0d86600260009054906101000a900473ffffffffffffffffffffffffffffffffffffffff166007600085815260200190815260200160002060060160009054906101000a900473ffffffffffffffffffffffffffffffffffffffff1660076000868152602001908152602001600020600101546040518463ffffffff1660e01b8152600401610bfd939291906120e4565b600060405180830381600087803b158015610c1757600080fd5b505af1158015610c2b573d6000803e3d6000fd5b5050505060006007600083815260200190815260200160002060040160009054906101000a900473ffffffffffffffffffffffffffffffffffffffff1673ffffffffffffffffffffffffffffffffffffffff166007600084815260200190815260200160002060050154604051610ca190612098565b60006040518083038185875af1925050503d8060008114610cde576040519150601f19603f3d011682016040523d82523d6000602084013e610ce3565b606091505b5050905080610d1b577f4e487b7100000000000000000000000000000000000000000000000000000000600052600160045260246000fd5b50610e21565b600160009054906101000a900473ffffffffffffffffffffffffffffffffffffffff1673ffffffffffffffffffffffffffffffffffffffff1663566d0d86600260009054906101000a900473ffffffffffffffffffffffffffffffffffffffff166007600085815260200190815260200160002060040160009054906101000a900473ffffffffffffffffffffffffffffffffffffffff1660076000868152602001908152602001600020600101546040518463ffffffff1660e01b8152600401610dee939291906120ad565b600060405180830381600087803b158015610e0857600080fd5b505af1158015610e1c573d6000803e3d6000fd5b505050505b610e2b60036118c2565b60006007600083815260200190815260200160002060060160146101000a81548160ff02191690836003811115610e8b577f4e487b7100000000000000000000000000000000000000000000000000000000600052602160045260246000fd5b02179055506007600082815260200190815260200160002060040160009054906101000a900473ffffffffffffffffffffffffffffffffffffffff1673ffffffffffffffffffffffffffffffffffffffff16600760008381526020019081526020016000206001015460076000848152602001908152602001600020600001547f4de84b90a4592d3fe62f4285ed7f00d67b61d1f60d51097f7f1d767ff4beeba26000604051610f3b9190612199565b60405180910390a450565b60026000541415610f8c576040517f08c379a0000000000000000000000000000000000000000000000000000000008152600401610f8390612247565b60405180910390fd5b600260008190555060006005610fa23384611896565b604051610faf9190612081565b908152602001604051809103902054905060006005610fce3385611896565b604051610fdb9190612081565b90815260200160405180910390208190555060003373ffffffffffffffffffffffffffffffffffffffff168260405161101390612098565b60006040518083038185875af1925050503d8060008114611050576040519150601f19603f3d011682016040523d82523d6000602084013e611055565b606091505b505090508061108d577f4e487b7100000000000000000000000000000000000000000000000000000000600052600160045260246000fd5b3373ffffffffffffffffffffffffffffffffffffffff16837f6ee929238c346518d4d72f9b07b745556fefec7100f1bcb4d37af9576a8d99a8846040516110d491906122e3565b60405180910390a35050600160008190555050565b60076020528060005260406000206000915090508060000154908060010154908060020154908060030154908060040160009054906101000a900473ffffffffffffffffffffffffffffffffffffffff16908060050154908060060160009054906101000a900473ffffffffffffffffffffffffffffffffffffffff16908060060160149054906101000a900460ff16905088565b6000600160009054906101000a900473ffffffffffffffffffffffffffffffffffffffff1673ffffffffffffffffffffffffffffffffffffffff163373ffffffffffffffffffffffffffffffffffffffff1614611210576040517f08c379a0000000000000000000000000000000000000000000000000000000008152600401611207906122a7565b60405180910390fd5b60026000541415611256576040517f08c379a000000000000000000000000000000000000000000000000000000000815260040161124d90612247565b60405180910390fd5b600260008190555060006003811115611298577f4e487b7100000000000000000000000000000000000000000000000000000000600052602160045260246000fd5b600760006006600086815260200190815260200160002054815260200190815260200160002060060160149054906101000a900460ff166003811115611307577f4e487b7100000000000000000000000000000000000000000000000000000000600052602160045260246000fd5b14611347576040517f08c379a000000000000000000000000000000000000000000000000000000000815260040161133e90612267565b60405180910390fd5b611351600361191e565b61135b600461191e565b6040518061010001604052806113716004611934565b81526020018381526020018781526020018681526020018573ffffffffffffffffffffffffffffffffffffffff168152602001848152602001600073ffffffffffffffffffffffffffffffffffffffff16815260200160026003811115611401577f4e487b7100000000000000000000000000000000000000000000000000000000600052602160045260246000fd5b815250600760006114126004611934565b81526020019081526020016000206000820151816000015560208201518160010155604082015181600201556060820151816003015560808201518160040160006101000a81548173ffffffffffffffffffffffffffffffffffffffff021916908373ffffffffffffffffffffffffffffffffffffffff16021790555060a0820151816005015560c08201518160060160006101000a81548173ffffffffffffffffffffffffffffffffffffffff021916908373ffffffffffffffffffffffffffffffffffffffff16021790555060e08201518160060160146101000a81548160ff02191690836003811115611531577f4e487b7100000000000000000000000000000000000000000000000000000000600052602160045260246000fd5b02179055509050506115436004611934565b60066000848152602001908152602001600020819055508373ffffffffffffffffffffffffffffffffffffffff1682600760006115806004611934565b8152602001908152602001600020600001547f4de84b90a4592d3fe62f4285ed7f00d67b61d1f60d51097f7f1d767ff4beeba260026040516115c2919061216b565b60405180910390a4600760006115d86004611934565b8152602001908152602001600020600001549050600160008190555095945050505050565b60606116096004611934565b67ffffffffffffffff811115611648577f4e487b7100000000000000000000000000000000000000000000000000000000600052604160045260246000fd5b60405190808252806020026020018201604052801561168157816020015b61166e611942565b8152602001906001900390816116665790505b5090506000600190505b8151811161187a576007600082815260200190815260200160002060405180610100016040529081600082015481526020016001820154815260200160028201548152602001600382015481526020016004820160009054906101000a900473ffffffffffffffffffffffffffffffffffffffff1673ffffffffffffffffffffffffffffffffffffffff1673ffffffffffffffffffffffffffffffffffffffff168152602001600582015481526020016006820160009054906101000a900473ffffffffffffffffffffffffffffffffffffffff1673ffffffffffffffffffffffffffffffffffffffff1673ffffffffffffffffffffffffffffffffffffffff1681526020016006820160149054906101000a900460ff1660038111156117db577f4e487b7100000000000000000000000000000000000000000000000000000000600052602160045260246000fd5b6003811115611813577f4e487b7100000000000000000000000000000000000000000000000000000000600052602160045260246000fd5b81525050826001836118259190612462565b8151811061185c577f4e487b7100000000000000000000000000000000000000000000000000000000600052603260045260246000fd5b60200260200101819052508080611872906125a3565b91505061168b565b5090565b60066020528060005260406000206000915090505481565b606082826040516020016118ab929190612055565b604051602081830303815290604052905092915050565b6000816000015490506000811161190e576040517f08c379a0000000000000000000000000000000000000000000000000000000008152600401611905906121c7565b60405180910390fd5b6001810382600001819055505050565b6001816000016000828254019250508190555050565b600081600001549050919050565b60405180610100016040528060008152602001600081526020016000815260200160008152602001600073ffffffffffffffffffffffffffffffffffffffff16815260200160008152602001600073ffffffffffffffffffffffffffffffffffffffff168152602001600060038111156119e5577f4e487b7100000000000000000000000000000000000000000000000000000000600052602160045260246000fd5b81525090565b6000813590506119fa816128c5565b92915050565b600081519050611a0f816128c5565b92915050565b600081519050611a24816128dc565b92915050565b60006101408284031215611a3d57600080fd5b611a4861014061237c565b90506000611a5884828501611b31565b6000830152506020611a6c84828501611b31565b6020830152506040611a8084828501611a00565b6040830152506060611a9484828501611a15565b6060830152506080611aa884828501611a15565b60808301525060a0611abc84828501611b31565b60a08301525060c0611ad084828501611b31565b60c08301525060e0611ae484828501611b31565b60e083015250610100611af984828501611b31565b61010083015250610120611b0f84828501611b31565b6101208301525092915050565b600081359050611b2b816128f3565b92915050565b600081519050611b40816128f3565b92915050565b60006101408284031215611b5957600080fd5b6000611b6784828501611a2a565b91505092915050565b600060208284031215611b8257600080fd5b6000611b9084828501611b1c565b91505092915050565b600080600080600060a08688031215611bb157600080fd5b6000611bbf88828901611b1c565b9550506020611bd088828901611b1c565b9450506040611be1888289016119eb565b9350506060611bf288828901611b1c565b9250506080611c0388828901611b1c565b9150509295509295909350565b6000611c1c8383611edc565b6101008301905092915050565b611c32816124f7565b82525050565b611c41816124a8565b82525050565b611c50816124a8565b82525050565b611c5f81612496565b82525050565b611c6e81612496565b82525050565b611c85611c8082612496565b6125ec565b82525050565b6000611c96826123b1565b611ca081856123d4565b9350611cab836123a1565b8060005b83811015611cdc578151611cc38882611c10565b9750611cce836123c7565b925050600181019050611caf565b5085935050505092915050565b611cf281612509565b82525050565b611d0181612509565b82525050565b6000611d12826123bc565b611d1c8185612401565b9350611d2c81856020860161253f565b80840191505092915050565b6000611d45600d836123f0565b9150611d50826126c5565b602082019050919050565b6000611d68601b836123f0565b9150611d73826126ee565b602082019050919050565b6000611d8b6010836123f0565b9150611d9682612717565b602082019050919050565b6000611dae6011836123f0565b9150611db982612740565b602082019050919050565b6000611dd16019836123f0565b9150611ddc82612769565b602082019050919050565b6000611df4600e836123f0565b9150611dff82612792565b602082019050919050565b6000611e176015836123f0565b9150611e22826127bb565b602082019050919050565b6000611e3a6000836123e5565b9150611e45826127e4565b600082019050919050565b6000611e5d601f836123f0565b9150611e68826127e7565b602082019050919050565b6000611e806030836123f0565b9150611e8b82612810565b604082019050919050565b6000611ea3601b836123f0565b9150611eae8261285f565b602082019050919050565b6000611ec6600b836123f0565b9150611ed182612888565b602082019050919050565b61010082016000820151611ef36000850182612020565b506020820151611f066020850182612020565b506040820151611f196040850182612020565b506060820151611f2c6060850182612020565b506080820151611f3f6080850182611c38565b5060a0820151611f5260a0850182612020565b5060c0820151611f6560c0850182611c56565b5060e0820151611f7860e0850182611ce9565b50505050565b61010082016000820151611f956000850182612020565b506020820151611fa86020850182612020565b506040820151611fbb6040850182612020565b506060820151611fce6060850182612020565b506080820151611fe16080850182611c38565b5060a0820151611ff460a0850182612020565b5060c082015161200760c0850182611c56565b5060e082015161201a60e0850182611ce9565b50505050565b612029816124ed565b82525050565b612038816124ed565b82525050565b61204f61204a826124ed565b612610565b82525050565b60006120618285611c74565b601482019150612071828461203e565b6020820191508190509392505050565b600061208d8284611d07565b915081905092915050565b60006120a382611e2d565b9150819050919050565b60006060820190506120c26000830186611c65565b6120cf6020830185611c29565b6120dc604083018461202f565b949350505050565b60006060820190506120f96000830186611c65565b6121066020830185611c65565b612113604083018461202f565b949350505050565b600060208201905081810360008301526121358184611c8b565b905092915050565b60006040820190506121526000830184611cf8565b818103602083015261216381611d38565b905092915050565b60006040820190506121806000830184611cf8565b818103602083015261219181611d7e565b905092915050565b60006040820190506121ae6000830184611cf8565b81810360208301526121bf81611de7565b905092915050565b600060208201905081810360008301526121e081611d5b565b9050919050565b6000602082019050818103600083015261220081611da1565b9050919050565b6000602082019050818103600083015261222081611dc4565b9050919050565b6000602082019050818103600083015261224081611e0a565b9050919050565b6000602082019050818103600083015261226081611e50565b9050919050565b6000602082019050818103600083015261228081611e73565b9050919050565b600060208201905081810360008301526122a081611e96565b9050919050565b600060208201905081810360008301526122c081611eb9565b9050919050565b6000610100820190506122dd6000830184611f7e565b92915050565b60006020820190506122f8600083018461202f565b92915050565b600061010082019050612314600083018b61202f565b612321602083018a61202f565b61232e604083018961202f565b61233b606083018861202f565b6123486080830187611c47565b61235560a083018661202f565b61236260c0830185611c65565b61236f60e0830184611cf8565b9998505050505050505050565b6000612386612397565b90506123928282612572565b919050565b6000604051905090565b6000819050602082019050919050565b600081519050919050565b600081519050919050565b6000602082019050919050565b600082825260208201905092915050565b600081905092915050565b600082825260208201905092915050565b600081905092915050565b6000612417826124ed565b9150612422836124ed565b9250827fffffffffffffffffffffffffffffffffffffffffffffffffffffffffffffffff038211156124575761245661261a565b5b828201905092915050565b600061246d826124ed565b9150612478836124ed565b92508282101561248b5761248a61261a565b5b828203905092915050565b60006124a1826124cd565b9050919050565b60006124b3826124cd565b9050919050565b60008190506124c8826128b1565b919050565b600073ffffffffffffffffffffffffffffffffffffffff82169050919050565b6000819050919050565b60006125028261251b565b9050919050565b6000612514826124ba565b9050919050565b60006125268261252d565b9050919050565b6000612538826124cd565b9050919050565b60005b8381101561255d578082015181840152602081019050612542565b8381111561256c576000848401525b50505050565b61257b826126a7565b810181811067ffffffffffffffff8211171561259a57612599612678565b5b80604052505050565b60006125ae826124ed565b91507fffffffffffffffffffffffffffffffffffffffffffffffffffffffffffffffff8214156125e1576125e061261a565b5b600182019050919050565b60006125f7826125fe565b9050919050565b6000612609826126b8565b9050919050565b6000819050919050565b7f4e487b7100000000000000000000000000000000000000000000000000000000600052601160045260246000fd5b7f4e487b7100000000000000000000000000000000000000000000000000000000600052602160045260246000fd5b7f4e487b7100000000000000000000000000000000000000000000000000000000600052604160045260246000fd5b6000601f19601f8301169050919050565b60008160601b9050919050565b7f41756374696f6e20537461727400000000000000000000000000000000000000600082015250565b7f436f756e7465723a2064656372656d656e74206f766572666c6f770000000000600082015250565b7f52657365727665642041756374696f6e00000000000000000000000000000000600082015250565b7f43616e63656c6c65642041756374696f6e000000000000000000000000000000600082015250565b7f41756374696f6e204475726174696f6e20457863656564656400000000000000600082015250565b7f41756374696f6e20436c6f736564000000000000000000000000000000000000600082015250565b7f41756374696f6e206e6f742079657420656e6465640000000000000000000000600082015250565b50565b7f5265656e7472616e637947756172643a207265656e7472616e742063616c6c00600082015250565b7f43616e7420437265617465204e65772041756374696f6e207768696c6520616e60008201527f6f746865722069732050656e64696e6700000000000000000000000000000000602082015250565b7f626964206d757374206578636565642063757272656e74206269640000000000600082015250565b7f6e6f7420416c6c6f776564000000000000000000000000000000000000000000600082015250565b600481106128c2576128c1612649565b5b50565b6128ce81612496565b81146128d957600080fd5b50565b6128e5816124a8565b81146128f057600080fd5b50565b6128fc816124ed565b811461290757600080fd5b5056fea2646970667358221220ccb92fc3c81226a7a2a3e3ac2ad8b5891b8a1a528d51fd593a1369a8fc4f469064736f6c63430008040033",
  "linkReferences": {},
  "deployedLinkReferences": {}
}