{
  "_format": "hh-sol-artifact-1",
  "contractName": "AuctionFactory",
  "sourceName": "contracts/AuctionFactory.sol",
  "abi": [
    {
      "inputs": [
        {
          "internalType": "address",
          "name": "_contactAddress",
          "type": "address"
        },
        {
          "internalType": "address",
          "name": "nft",
          "type": "address"
        }
      ],
      "stateMutability": "nonpayable",
      "type": "constructor"
    },
    {
      "anonymous": false,
      "inputs": [
        {
          "indexed": true,
          "internalType": "uint256",
          "name": "auctionId",
          "type": "uint256"
        },
        {
          "indexed": true,
          "internalType": "uint256",
          "name": "tokenId",
          "type": "uint256"
        },
        {
          "indexed": true,
          "internalType": "address",
          "name": "seller",
          "type": "address"
        },
        {
          "indexed": false,
          "internalType": "enum AuctionFactory.AuctionStatus",
          "name": "status",
          "type": "uint8"
        },
        {
          "indexed": false,
          "internalType": "string",
          "name": "message",
          "type": "string"
        }
      ],
      "name": "AuctionEvent",
      "type": "event"
    },
    {
      "anonymous": false,
      "inputs": [
        {
          "indexed": true,
          "internalType": "uint256",
          "name": "auctionId",
          "type": "uint256"
        },
        {
          "indexed": true,
          "internalType": "uint256",
          "name": "tokenId",
          "type": "uint256"
        },
        {
          "indexed": false,
          "internalType": "uint256",
          "name": "amount",
          "type": "uint256"
        },
        {
          "indexed": true,
          "internalType": "address",
          "name": "bidder",
          "type": "address"
        }
      ],
      "name": "bidEvent",
      "type": "event"
    },
    {
      "anonymous": false,
      "inputs": [
        {
          "indexed": true,
          "internalType": "uint256",
          "name": "auctionId",
          "type": "uint256"
        },
        {
          "indexed": false,
          "internalType": "uint256",
          "name": "amount",
          "type": "uint256"
        },
        {
          "indexed": true,
          "internalType": "address",
          "name": "withdrawer",
          "type": "address"
        }
      ],
      "name": "withdrawEvent",
      "type": "event"
    },
    {
      "inputs": [
        {
          "internalType": "uint256",
          "name": "",
          "type": "uint256"
        }
      ],
      "name": "auctions",
      "outputs": [
        {
          "internalType": "uint256",
          "name": "id",
          "type": "uint256"
        },
        {
          "internalType": "uint256",
          "name": "tokenId",
          "type": "uint256"
        },
        {
          "internalType": "uint256",
          "name": "startAt",
          "type": "uint256"
        },
        {
          "internalType": "uint256",
          "name": "endAt",
          "type": "uint256"
        },
        {
          "internalType": "address payable",
          "name": "seller",
          "type": "address"
        },
        {
          "internalType": "uint256",
          "name": "currentBid",
          "type": "uint256"
        },
        {
          "internalType": "address",
          "name": "highestBidder",
          "type": "address"
        },
        {
          "internalType": "enum AuctionFactory.AuctionStatus",
          "name": "status",
          "type": "uint8"
        }
      ],
      "stateMutability": "view",
      "type": "function"
    },
    {
      "inputs": [
        {
          "internalType": "uint256",
          "name": "auctionId",
          "type": "uint256"
        }
      ],
      "name": "closeAuction",
      "outputs": [],
      "stateMutability": "nonpayable",
      "type": "function"
    },
    {
      "inputs": [
        {
          "internalType": "uint256",
          "name": "startAt",
          "type": "uint256"
        },
        {
          "internalType": "uint256",
          "name": "endAt",
          "type": "uint256"
        },
        {
          "internalType": "address",
          "name": "seller",
          "type": "address"
        },
        {
          "internalType": "uint256",
          "name": "startBidPrice",
          "type": "uint256"
        },
        {
          "internalType": "uint256",
          "name": "tokenId",
          "type": "uint256"
        }
      ],
      "name": "createAuction",
      "outputs": [
        {
          "internalType": "uint256",
          "name": "",
          "type": "uint256"
        }
      ],
      "stateMutability": "nonpayable",
      "type": "function"
    },
    {
      "inputs": [
        {
          "internalType": "uint256",
          "name": "itemId",
          "type": "uint256"
        }
      ],
      "name": "getAuctionByItemId",
      "outputs": [
        {
          "components": [
            {
              "internalType": "uint256",
              "name": "id",
              "type": "uint256"
            },
            {
              "internalType": "uint256",
              "name": "tokenId",
              "type": "uint256"
            },
            {
              "internalType": "uint256",
              "name": "startAt",
              "type": "uint256"
            },
            {
              "internalType": "uint256",
              "name": "endAt",
              "type": "uint256"
            },
            {
              "internalType": "address payable",
              "name": "seller",
              "type": "address"
            },
            {
              "internalType": "uint256",
              "name": "currentBid",
              "type": "uint256"
            },
            {
              "internalType": "address",
              "name": "highestBidder",
              "type": "address"
            },
            {
              "internalType": "enum AuctionFactory.AuctionStatus",
              "name": "status",
              "type": "uint8"
            }
          ],
          "internalType": "struct AuctionFactory.Auction",
          "name": "data",
          "type": "tuple"
        }
      ],
      "stateMutability": "view",
      "type": "function"
    },
    {
      "inputs": [],
      "name": "getAuctions",
      "outputs": [
        {
          "components": [
            {
              "internalType": "uint256",
              "name": "id",
              "type": "uint256"
            },
            {
              "internalType": "uint256",
              "name": "tokenId",
              "type": "uint256"
            },
            {
              "internalType": "uint256",
              "name": "startAt",
              "type": "uint256"
            },
            {
              "internalType": "uint256",
              "name": "endAt",
              "type": "uint256"
            },
            {
              "internalType": "address payable",
              "name": "seller",
              "type": "address"
            },
            {
              "internalType": "uint256",
              "name": "currentBid",
              "type": "uint256"
            },
            {
              "internalType": "address",
              "name": "highestBidder",
              "type": "address"
            },
            {
              "internalType": "enum AuctionFactory.AuctionStatus",
              "name": "status",
              "type": "uint8"
            }
          ],
          "internalType": "struct AuctionFactory.Auction[]",
          "name": "data",
          "type": "tuple[]"
        }
      ],
      "stateMutability": "view",
      "type": "function"
    },
    {
      "inputs": [
        {
          "internalType": "uint256",
          "name": "auctionId",
          "type": "uint256"
        }
      ],
      "name": "makeBid",
      "outputs": [],
      "stateMutability": "payable",
      "type": "function"
    },
    {
      "inputs": [
        {
          "internalType": "uint256",
          "name": "",
          "type": "uint256"
        }
      ],
      "name": "tokenIdToAuction",
      "outputs": [
        {
          "internalType": "uint256",
          "name": "",
          "type": "uint256"
        }
      ],
      "stateMutability": "view",
      "type": "function"
    },
    {
      "inputs": [
        {
          "internalType": "uint256",
          "name": "auctionId",
          "type": "uint256"
        }
      ],
      "name": "withdraw",
      "outputs": [],
      "stateMutability": "payable",
      "type": "function"
    }
  ],
  "bytecode": "0x60806040523480156200001157600080fd5b5060405162002a2338038062002a238339818101604052810190620000379190620000e0565b600160008190555081600160006101000a81548173ffffffffffffffffffffffffffffffffffffffff021916908373ffffffffffffffffffffffffffffffffffffffff16021790555080600260006101000a81548173ffffffffffffffffffffffffffffffffffffffff021916908373ffffffffffffffffffffffffffffffffffffffff16021790555050506200016f565b600081519050620000da8162000155565b92915050565b60008060408385031215620000f457600080fd5b60006200010485828601620000c9565b92505060206200011785828601620000c9565b9150509250929050565b60006200012e8262000135565b9050919050565b600073ffffffffffffffffffffffffffffffffffffffff82169050919050565b620001608162000121565b81146200016c57600080fd5b50565b6128a4806200017f6000396000f3fe60806040526004361061007b5760003560e01c8063571a26a01161004e578063571a26a01461011e578063627501b814610162578063d7c069191461019f578063e3b14757146101ca5761007b565b8063175b2304146100805780631eec30bb1461009c578063236ed8f3146100d95780632e1a7d4d14610102575b600080fd5b61009a60048036038101906100959190611ad4565b610207565b005b3480156100a857600080fd5b506100c360048036038101906100be9190611ad4565b61073d565b6040516100d0919061222b565b60405180910390f35b3480156100e557600080fd5b5061010060048036038101906100fb9190611ad4565b610998565b005b61011c60048036038101906101179190611ad4565b610eaa565b005b34801561012a57600080fd5b5061014560048036038101906101409190611ad4565b61104d565b604051610159989796959493929190612262565b60405180910390f35b34801561016e57600080fd5b5061018960048036038101906101849190611afd565b6110e2565b6040516101969190612247565b60405180910390f35b3480156101ab57600080fd5b506101b4611561565b6040516101c1919061207f565b60405180910390f35b3480156101d657600080fd5b506101f160048036038101906101ec9190611ad4565b6117e2565b6040516101fe9190612247565b60405180910390f35b6002600054141561024d576040517f08c379a0000000000000000000000000000000000000000000000000000000008152600401610244906121ab565b60405180910390fd5b600260008190555042600760008381526020019081526020016000206002015411158015610291575042600760008381526020019081526020016000206003015410155b6102d0576040517f08c379a00000000000000000000000000000000000000000000000000000000081526004016102c79061216b565b60405180910390fd5b60076000828152602001908152602001600020600501543411610328576040517f08c379a000000000000000000000000000000000000000000000000000000000815260040161031f906121eb565b60405180910390fd5b600380811115610361577f4e487b7100000000000000000000000000000000000000000000000000000000600052602160045260246000fd5b6007600083815260200190815260200160002060060160149054906101000a900460ff1660038111156103bd577f4e487b7100000000000000000000000000000000000000000000000000000000600052602160045260246000fd5b14156103fe576040517f08c379a00000000000000000000000000000000000000000000000000000000081526004016103f59061214b565b60405180910390fd5b600073ffffffffffffffffffffffffffffffffffffffff166007600083815260200190815260200160002060060160009054906101000a900473ffffffffffffffffffffffffffffffffffffffff1673ffffffffffffffffffffffffffffffffffffffff16146104f757600760008281526020019081526020016000206005015460056104c16007600085815260200190815260200160002060060160009054906101000a900473ffffffffffffffffffffffffffffffffffffffff16846117fa565b6040516104ce9190611fe5565b908152602001604051809103902060008282546104eb9190612370565b92505081905550610610565b60016007600083815260200190815260200160002060060160146101000a81548160ff02191690836003811115610557577f4e487b7100000000000000000000000000000000000000000000000000000000600052602160045260246000fd5b02179055506007600082815260200190815260200160002060040160009054906101000a900473ffffffffffffffffffffffffffffffffffffffff1673ffffffffffffffffffffffffffffffffffffffff16600760008381526020019081526020016000206001015460076000848152602001908152602001600020600001547f4de84b90a4592d3fe62f4285ed7f00d67b61d1f60d51097f7f1d767ff4beeba2600160405161060791906120a1565b60405180910390a45b336007600083815260200190815260200160002060060160006101000a81548173ffffffffffffffffffffffffffffffffffffffff021916908373ffffffffffffffffffffffffffffffffffffffff1602179055503460076000838152602001908152602001600020600501819055506007600082815260200190815260200160002060060160009054906101000a900473ffffffffffffffffffffffffffffffffffffffff1673ffffffffffffffffffffffffffffffffffffffff166007600083815260200190815260200160002060010154827ffbeecd9ec28b67457ca40d6825a0601fb92ef896e2db0164432101e0a6263989600760008681526020019081526020016000206005015460405161072a9190612247565b60405180910390a4600160008190555050565b6107456118a6565b6000600160009054906101000a900473ffffffffffffffffffffffffffffffffffffffff1673ffffffffffffffffffffffffffffffffffffffff1663db692710846040518263ffffffff1660e01b81526004016107a29190612247565b6101406040518083038186803b1580156107bb57600080fd5b505afa1580156107cf573d6000803e3d6000fd5b505050506040513d601f19601f820116820180604052508101906107f39190611aaa565b905060076000600660008460200151815260200190815260200160002054815260200190815260200160002060405180610100016040529081600082015481526020016001820154815260200160028201548152602001600382015481526020016004820160009054906101000a900473ffffffffffffffffffffffffffffffffffffffff1673ffffffffffffffffffffffffffffffffffffffff1673ffffffffffffffffffffffffffffffffffffffff168152602001600582015481526020016006820160009054906101000a900473ffffffffffffffffffffffffffffffffffffffff1673ffffffffffffffffffffffffffffffffffffffff1673ffffffffffffffffffffffffffffffffffffffff1681526020016006820160149054906101000a900460ff166003811115610954577f4e487b7100000000000000000000000000000000000000000000000000000000600052602160045260246000fd5b600381111561098c577f4e487b7100000000000000000000000000000000000000000000000000000000600052602160045260246000fd5b81525050915050919050565b426007600083815260200190815260200160002060030154108015610a505750600160038111156109f2577f4e487b7100000000000000000000000000000000000000000000000000000000600052602160045260246000fd5b6007600083815260200190815260200160002060060160149054906101000a900460ff166003811115610a4e577f4e487b7100000000000000000000000000000000000000000000000000000000600052602160045260246000fd5b145b610a8f576040517f08c379a0000000000000000000000000000000000000000000000000000000008152600401610a869061218b565b60405180910390fd5b600073ffffffffffffffffffffffffffffffffffffffff166007600083815260200190815260200160002060060160009054906101000a900473ffffffffffffffffffffffffffffffffffffffff1673ffffffffffffffffffffffffffffffffffffffff1614610cea57600160009054906101000a900473ffffffffffffffffffffffffffffffffffffffff1673ffffffffffffffffffffffffffffffffffffffff1663566d0d86600260009054906101000a900473ffffffffffffffffffffffffffffffffffffffff166007600085815260200190815260200160002060060160009054906101000a900473ffffffffffffffffffffffffffffffffffffffff1660076000868152602001908152602001600020600101546040518463ffffffff1660e01b8152600401610bc693929190612048565b600060405180830381600087803b158015610be057600080fd5b505af1158015610bf4573d6000803e3d6000fd5b5050505060006007600083815260200190815260200160002060040160009054906101000a900473ffffffffffffffffffffffffffffffffffffffff1673ffffffffffffffffffffffffffffffffffffffff166007600084815260200190815260200160002060050154604051610c6a90611ffc565b60006040518083038185875af1925050503d8060008114610ca7576040519150601f19603f3d011682016040523d82523d6000602084013e610cac565b606091505b5050905080610ce4577f4e487b7100000000000000000000000000000000000000000000000000000000600052600160045260246000fd5b50610dea565b600160009054906101000a900473ffffffffffffffffffffffffffffffffffffffff1673ffffffffffffffffffffffffffffffffffffffff1663566d0d86600260009054906101000a900473ffffffffffffffffffffffffffffffffffffffff166007600085815260200190815260200160002060040160009054906101000a900473ffffffffffffffffffffffffffffffffffffffff1660076000868152602001908152602001600020600101546040518463ffffffff1660e01b8152600401610db793929190612011565b600060405180830381600087803b158015610dd157600080fd5b505af1158015610de5573d6000803e3d6000fd5b505050505b610df46003611826565b6007600082815260200190815260200160002060040160009054906101000a900473ffffffffffffffffffffffffffffffffffffffff1673ffffffffffffffffffffffffffffffffffffffff16600760008381526020019081526020016000206001015460076000848152602001908152602001600020600001547f4de84b90a4592d3fe62f4285ed7f00d67b61d1f60d51097f7f1d767ff4beeba26000604051610e9f91906120fd565b60405180910390a450565b60026000541415610ef0576040517f08c379a0000000000000000000000000000000000000000000000000000000008152600401610ee7906121ab565b60405180910390fd5b600260008190555060006005610f0633846117fa565b604051610f139190611fe5565b908152602001604051809103902054905060006005610f3233856117fa565b604051610f3f9190611fe5565b90815260200160405180910390208190555060003373ffffffffffffffffffffffffffffffffffffffff1682604051610f7790611ffc565b60006040518083038185875af1925050503d8060008114610fb4576040519150601f19603f3d011682016040523d82523d6000602084013e610fb9565b606091505b5050905080610ff1577f4e487b7100000000000000000000000000000000000000000000000000000000600052600160045260246000fd5b3373ffffffffffffffffffffffffffffffffffffffff16837f6ee929238c346518d4d72f9b07b745556fefec7100f1bcb4d37af9576a8d99a8846040516110389190612247565b60405180910390a35050600160008190555050565b60076020528060005260406000206000915090508060000154908060010154908060020154908060030154908060040160009054906101000a900473ffffffffffffffffffffffffffffffffffffffff16908060050154908060060160009054906101000a900473ffffffffffffffffffffffffffffffffffffffff16908060060160149054906101000a900460ff16905088565b6000600160009054906101000a900473ffffffffffffffffffffffffffffffffffffffff1673ffffffffffffffffffffffffffffffffffffffff163373ffffffffffffffffffffffffffffffffffffffff1614611174576040517f08c379a000000000000000000000000000000000000000000000000000000000815260040161116b9061220b565b60405180910390fd5b600260005414156111ba576040517f08c379a00000000000000000000000000000000000000000000000000000000081526004016111b1906121ab565b60405180910390fd5b6002600081905550600060038111156111fc577f4e487b7100000000000000000000000000000000000000000000000000000000600052602160045260246000fd5b600760006006600086815260200190815260200160002054815260200190815260200160002060060160149054906101000a900460ff16600381111561126b577f4e487b7100000000000000000000000000000000000000000000000000000000600052602160045260246000fd5b146112ab576040517f08c379a00000000000000000000000000000000000000000000000000000000081526004016112a2906121cb565b60405180910390fd5b6112b56003611882565b6112bf6004611882565b6040518061010001604052806112d56004611898565b81526020018381526020018781526020018681526020018573ffffffffffffffffffffffffffffffffffffffff168152602001848152602001600073ffffffffffffffffffffffffffffffffffffffff16815260200160026003811115611365577f4e487b7100000000000000000000000000000000000000000000000000000000600052602160045260246000fd5b815250600760006113766004611898565b81526020019081526020016000206000820151816000015560208201518160010155604082015181600201556060820151816003015560808201518160040160006101000a81548173ffffffffffffffffffffffffffffffffffffffff021916908373ffffffffffffffffffffffffffffffffffffffff16021790555060a0820151816005015560c08201518160060160006101000a81548173ffffffffffffffffffffffffffffffffffffffff021916908373ffffffffffffffffffffffffffffffffffffffff16021790555060e08201518160060160146101000a81548160ff02191690836003811115611495577f4e487b7100000000000000000000000000000000000000000000000000000000600052602160045260246000fd5b02179055509050506114a76004611898565b60066000848152602001908152602001600020819055508373ffffffffffffffffffffffffffffffffffffffff1682600760006114e46004611898565b8152602001908152602001600020600001547f4de84b90a4592d3fe62f4285ed7f00d67b61d1f60d51097f7f1d767ff4beeba2600260405161152691906120cf565b60405180910390a46007600061153c6004611898565b8152602001908152602001600020600001549050600160008190555095945050505050565b606061156d6004611898565b67ffffffffffffffff8111156115ac577f4e487b7100000000000000000000000000000000000000000000000000000000600052604160045260246000fd5b6040519080825280602002602001820160405280156115e557816020015b6115d26118a6565b8152602001906001900390816115ca5790505b5090506000600190505b815181116117de576007600082815260200190815260200160002060405180610100016040529081600082015481526020016001820154815260200160028201548152602001600382015481526020016004820160009054906101000a900473ffffffffffffffffffffffffffffffffffffffff1673ffffffffffffffffffffffffffffffffffffffff1673ffffffffffffffffffffffffffffffffffffffff168152602001600582015481526020016006820160009054906101000a900473ffffffffffffffffffffffffffffffffffffffff1673ffffffffffffffffffffffffffffffffffffffff1673ffffffffffffffffffffffffffffffffffffffff1681526020016006820160149054906101000a900460ff16600381111561173f577f4e487b7100000000000000000000000000000000000000000000000000000000600052602160045260246000fd5b6003811115611777577f4e487b7100000000000000000000000000000000000000000000000000000000600052602160045260246000fd5b815250508260018361178991906123c6565b815181106117c0577f4e487b7100000000000000000000000000000000000000000000000000000000600052603260045260246000fd5b602002602001018190525080806117d690612507565b9150506115ef565b5090565b60066020528060005260406000206000915090505481565b6060828260405160200161180f929190611fb9565b604051602081830303815290604052905092915050565b60008160000154905060008111611872576040517f08c379a00000000000000000000000000000000000000000000000000000000081526004016118699061212b565b60405180910390fd5b6001810382600001819055505050565b6001816000016000828254019250508190555050565b600081600001549050919050565b60405180610100016040528060008152602001600081526020016000815260200160008152602001600073ffffffffffffffffffffffffffffffffffffffff16815260200160008152602001600073ffffffffffffffffffffffffffffffffffffffff16815260200160006003811115611949577f4e487b7100000000000000000000000000000000000000000000000000000000600052602160045260246000fd5b81525090565b60008135905061195e81612829565b92915050565b60008151905061197381612829565b92915050565b60008151905061198881612840565b92915050565b600061014082840312156119a157600080fd5b6119ac6101406122e0565b905060006119bc84828501611a95565b60008301525060206119d084828501611a95565b60208301525060406119e484828501611964565b60408301525060606119f884828501611979565b6060830152506080611a0c84828501611979565b60808301525060a0611a2084828501611a95565b60a08301525060c0611a3484828501611a95565b60c08301525060e0611a4884828501611a95565b60e083015250610100611a5d84828501611a95565b61010083015250610120611a7384828501611a95565b6101208301525092915050565b600081359050611a8f81612857565b92915050565b600081519050611aa481612857565b92915050565b60006101408284031215611abd57600080fd5b6000611acb8482850161198e565b91505092915050565b600060208284031215611ae657600080fd5b6000611af484828501611a80565b91505092915050565b600080600080600060a08688031215611b1557600080fd5b6000611b2388828901611a80565b9550506020611b3488828901611a80565b9450506040611b458882890161194f565b9350506060611b5688828901611a80565b9250506080611b6788828901611a80565b9150509295509295909350565b6000611b808383611e40565b6101008301905092915050565b611b968161245b565b82525050565b611ba58161240c565b82525050565b611bb48161240c565b82525050565b611bc3816123fa565b82525050565b611bd2816123fa565b82525050565b611be9611be4826123fa565b612550565b82525050565b6000611bfa82612315565b611c048185612338565b9350611c0f83612305565b8060005b83811015611c40578151611c278882611b74565b9750611c328361232b565b925050600181019050611c13565b5085935050505092915050565b611c568161246d565b82525050565b611c658161246d565b82525050565b6000611c7682612320565b611c808185612365565b9350611c908185602086016124a3565b80840191505092915050565b6000611ca9600d83612354565b9150611cb482612629565b602082019050919050565b6000611ccc601b83612354565b9150611cd782612652565b602082019050919050565b6000611cef601083612354565b9150611cfa8261267b565b602082019050919050565b6000611d12601183612354565b9150611d1d826126a4565b602082019050919050565b6000611d35601983612354565b9150611d40826126cd565b602082019050919050565b6000611d58600e83612354565b9150611d63826126f6565b602082019050919050565b6000611d7b601583612354565b9150611d868261271f565b602082019050919050565b6000611d9e600083612349565b9150611da982612748565b600082019050919050565b6000611dc1601f83612354565b9150611dcc8261274b565b602082019050919050565b6000611de4603083612354565b9150611def82612774565b604082019050919050565b6000611e07601b83612354565b9150611e12826127c3565b602082019050919050565b6000611e2a600b83612354565b9150611e35826127ec565b602082019050919050565b61010082016000820151611e576000850182611f84565b506020820151611e6a6020850182611f84565b506040820151611e7d6040850182611f84565b506060820151611e906060850182611f84565b506080820151611ea36080850182611b9c565b5060a0820151611eb660a0850182611f84565b5060c0820151611ec960c0850182611bba565b5060e0820151611edc60e0850182611c4d565b50505050565b61010082016000820151611ef96000850182611f84565b506020820151611f0c6020850182611f84565b506040820151611f1f6040850182611f84565b506060820151611f326060850182611f84565b506080820151611f456080850182611b9c565b5060a0820151611f5860a0850182611f84565b5060c0820151611f6b60c0850182611bba565b5060e0820151611f7e60e0850182611c4d565b50505050565b611f8d81612451565b82525050565b611f9c81612451565b82525050565b611fb3611fae82612451565b612574565b82525050565b6000611fc58285611bd8565b601482019150611fd58284611fa2565b6020820191508190509392505050565b6000611ff18284611c6b565b915081905092915050565b600061200782611d91565b9150819050919050565b60006060820190506120266000830186611bc9565b6120336020830185611b8d565b6120406040830184611f93565b949350505050565b600060608201905061205d6000830186611bc9565b61206a6020830185611bc9565b6120776040830184611f93565b949350505050565b600060208201905081810360008301526120998184611bef565b905092915050565b60006040820190506120b66000830184611c5c565b81810360208301526120c781611c9c565b905092915050565b60006040820190506120e46000830184611c5c565b81810360208301526120f581611ce2565b905092915050565b60006040820190506121126000830184611c5c565b818103602083015261212381611d4b565b905092915050565b6000602082019050818103600083015261214481611cbf565b9050919050565b6000602082019050818103600083015261216481611d05565b9050919050565b6000602082019050818103600083015261218481611d28565b9050919050565b600060208201905081810360008301526121a481611d6e565b9050919050565b600060208201905081810360008301526121c481611db4565b9050919050565b600060208201905081810360008301526121e481611dd7565b9050919050565b6000602082019050818103600083015261220481611dfa565b9050919050565b6000602082019050818103600083015261222481611e1d565b9050919050565b6000610100820190506122416000830184611ee2565b92915050565b600060208201905061225c6000830184611f93565b92915050565b600061010082019050612278600083018b611f93565b612285602083018a611f93565b6122926040830189611f93565b61229f6060830188611f93565b6122ac6080830187611bab565b6122b960a0830186611f93565b6122c660c0830185611bc9565b6122d360e0830184611c5c565b9998505050505050505050565b60006122ea6122fb565b90506122f682826124d6565b919050565b6000604051905090565b6000819050602082019050919050565b600081519050919050565b600081519050919050565b6000602082019050919050565b600082825260208201905092915050565b600081905092915050565b600082825260208201905092915050565b600081905092915050565b600061237b82612451565b915061238683612451565b9250827fffffffffffffffffffffffffffffffffffffffffffffffffffffffffffffffff038211156123bb576123ba61257e565b5b828201905092915050565b60006123d182612451565b91506123dc83612451565b9250828210156123ef576123ee61257e565b5b828203905092915050565b600061240582612431565b9050919050565b600061241782612431565b9050919050565b600081905061242c82612815565b919050565b600073ffffffffffffffffffffffffffffffffffffffff82169050919050565b6000819050919050565b60006124668261247f565b9050919050565b60006124788261241e565b9050919050565b600061248a82612491565b9050919050565b600061249c82612431565b9050919050565b60005b838110156124c15780820151818401526020810190506124a6565b838111156124d0576000848401525b50505050565b6124df8261260b565b810181811067ffffffffffffffff821117156124fe576124fd6125dc565b5b80604052505050565b600061251282612451565b91507fffffffffffffffffffffffffffffffffffffffffffffffffffffffffffffffff8214156125455761254461257e565b5b600182019050919050565b600061255b82612562565b9050919050565b600061256d8261261c565b9050919050565b6000819050919050565b7f4e487b7100000000000000000000000000000000000000000000000000000000600052601160045260246000fd5b7f4e487b7100000000000000000000000000000000000000000000000000000000600052602160045260246000fd5b7f4e487b7100000000000000000000000000000000000000000000000000000000600052604160045260246000fd5b6000601f19601f8301169050919050565b60008160601b9050919050565b7f41756374696f6e20537461727400000000000000000000000000000000000000600082015250565b7f436f756e7465723a2064656372656d656e74206f766572666c6f770000000000600082015250565b7f52657365727665642041756374696f6e00000000000000000000000000000000600082015250565b7f43616e63656c6c65642041756374696f6e000000000000000000000000000000600082015250565b7f41756374696f6e204475726174696f6e20457863656564656400000000000000600082015250565b7f41756374696f6e20436c6f736564000000000000000000000000000000000000600082015250565b7f41756374696f6e206e6f742079657420656e6465640000000000000000000000600082015250565b50565b7f5265656e7472616e637947756172643a207265656e7472616e742063616c6c00600082015250565b7f43616e7420437265617465204e65772041756374696f6e207768696c6520616e60008201527f6f746865722069732050656e64696e6700000000000000000000000000000000602082015250565b7f626964206d757374206578636565642063757272656e74206269640000000000600082015250565b7f6e6f7420416c6c6f776564000000000000000000000000000000000000000000600082015250565b60048110612826576128256125ad565b5b50565b612832816123fa565b811461283d57600080fd5b50565b6128498161240c565b811461285457600080fd5b50565b61286081612451565b811461286b57600080fd5b5056fea2646970667358221220b540107d0075bdfd42a2353f7f004bec97a3f5ca71d23549e590d8529d73c12164736f6c63430008040033",
  "linkReferences": {},
  "deployedLinkReferences": {}
}