{
  "_format": "hh-sol-artifact-1",
  "contractName": "AuctionFactory",
  "sourceName": "contracts/AuctionFactory.sol",
  "abi": [
    {
      "inputs": [
        {
          "internalType": "address",
          "name": "_contactAddress",
          "type": "address"
        },
        {
          "internalType": "address",
          "name": "nft",
          "type": "address"
        }
      ],
      "stateMutability": "nonpayable",
      "type": "constructor"
    },
    {
      "anonymous": false,
      "inputs": [
        {
          "indexed": true,
          "internalType": "uint256",
          "name": "auctionId",
          "type": "uint256"
        },
        {
          "indexed": true,
          "internalType": "uint256",
          "name": "tokenId",
          "type": "uint256"
        },
        {
          "indexed": false,
          "internalType": "uint256",
          "name": "amount",
          "type": "uint256"
        },
        {
          "indexed": true,
          "internalType": "address",
          "name": "bidder",
          "type": "address"
        }
      ],
      "name": "bidEvent",
      "type": "event"
    },
    {
      "anonymous": false,
      "inputs": [
        {
          "indexed": true,
          "internalType": "uint256",
          "name": "auctionId",
          "type": "uint256"
        },
        {
          "indexed": false,
          "internalType": "uint256",
          "name": "amount",
          "type": "uint256"
        },
        {
          "indexed": true,
          "internalType": "address",
          "name": "withdrawer",
          "type": "address"
        }
      ],
      "name": "withdrawEvent",
      "type": "event"
    },
    {
      "inputs": [
        {
          "internalType": "uint256",
          "name": "",
          "type": "uint256"
        }
      ],
      "name": "Auctions",
      "outputs": [
        {
          "internalType": "uint256",
          "name": "id",
          "type": "uint256"
        },
        {
          "internalType": "uint256",
          "name": "tokenId",
          "type": "uint256"
        },
        {
          "internalType": "uint256",
          "name": "startAt",
          "type": "uint256"
        },
        {
          "internalType": "uint256",
          "name": "endAt",
          "type": "uint256"
        },
        {
          "internalType": "address payable",
          "name": "seller",
          "type": "address"
        },
        {
          "internalType": "uint256",
          "name": "currentBid",
          "type": "uint256"
        },
        {
          "internalType": "address",
          "name": "highestBidder",
          "type": "address"
        },
        {
          "internalType": "enum AuctionFactory.AuctionStatus",
          "name": "status",
          "type": "uint8"
        }
      ],
      "stateMutability": "view",
      "type": "function"
    },
    {
      "inputs": [
        {
          "internalType": "uint256",
          "name": "auctionId",
          "type": "uint256"
        }
      ],
      "name": "bid",
      "outputs": [],
      "stateMutability": "payable",
      "type": "function"
    },
    {
      "inputs": [
        {
          "internalType": "uint256",
          "name": "auctionId",
          "type": "uint256"
        }
      ],
      "name": "closeAuction",
      "outputs": [],
      "stateMutability": "nonpayable",
      "type": "function"
    },
    {
      "inputs": [
        {
          "internalType": "uint256",
          "name": "startAt",
          "type": "uint256"
        },
        {
          "internalType": "uint256",
          "name": "endAt",
          "type": "uint256"
        },
        {
          "internalType": "address",
          "name": "seller",
          "type": "address"
        },
        {
          "internalType": "uint256",
          "name": "startBidPrice",
          "type": "uint256"
        },
        {
          "internalType": "uint256",
          "name": "tokenId",
          "type": "uint256"
        }
      ],
      "name": "createAuction",
      "outputs": [],
      "stateMutability": "nonpayable",
      "type": "function"
    },
    {
      "inputs": [
        {
          "internalType": "uint256",
          "name": "auctionId",
          "type": "uint256"
        }
      ],
      "name": "withdraw",
      "outputs": [],
      "stateMutability": "payable",
      "type": "function"
    }
  ],
  "bytecode": "0x60806040523480156200001157600080fd5b50604051620017a3380380620017a38339818101604052810190620000379190620000d7565b816000806101000a81548173ffffffffffffffffffffffffffffffffffffffff021916908373ffffffffffffffffffffffffffffffffffffffff16021790555080600160006101000a81548173ffffffffffffffffffffffffffffffffffffffff021916908373ffffffffffffffffffffffffffffffffffffffff160217905550505062000166565b600081519050620000d1816200014c565b92915050565b60008060408385031215620000eb57600080fd5b6000620000fb85828601620000c0565b92505060206200010e85828601620000c0565b9150509250929050565b600062000125826200012c565b9050919050565b600073ffffffffffffffffffffffffffffffffffffffff82169050919050565b620001578162000118565b81146200016357600080fd5b50565b61162d80620001766000396000f3fe60806040526004361061004a5760003560e01c8063236ed8f31461004f5780632e1a7d4d14610078578063454a2ab314610094578063627501b8146100b0578063e8cd181f146100d9575b600080fd5b34801561005b57600080fd5b5061007660048036038101906100719190610f7f565b61011d565b005b610092600480360381019061008d9190610f7f565b610538565b005b6100ae60048036038101906100a99190610f7f565b610685565b005b3480156100bc57600080fd5b506100d760048036038101906100d29190610fa8565b610abe565b005b3480156100e557600080fd5b5061010060048036038101906100fb9190610f7f565b610e70565b604051610114989796959493929190611296565b60405180910390f35b4260066000838152602001908152602001600020600301541080156101d5575060016003811115610177577f4e487b7100000000000000000000000000000000000000000000000000000000600052602160045260246000fd5b6006600083815260200190815260200160002060060160149054906101000a900460ff1660038111156101d3577f4e487b7100000000000000000000000000000000000000000000000000000000600052602160045260246000fd5b145b6101de57600080fd5b600073ffffffffffffffffffffffffffffffffffffffff166006600083815260200190815260200160002060060160009054906101000a900473ffffffffffffffffffffffffffffffffffffffff1673ffffffffffffffffffffffffffffffffffffffff16146104375760008054906101000a900473ffffffffffffffffffffffffffffffffffffffff1673ffffffffffffffffffffffffffffffffffffffff1663566d0d86600160009054906101000a900473ffffffffffffffffffffffffffffffffffffffff166006600085815260200190815260200160002060060160009054906101000a900473ffffffffffffffffffffffffffffffffffffffff1660066000868152602001908152602001600020600101546040518463ffffffff1660e01b8152600401610313939291906111e4565b600060405180830381600087803b15801561032d57600080fd5b505af1158015610341573d6000803e3d6000fd5b5050505060006006600083815260200190815260200160002060040160009054906101000a900473ffffffffffffffffffffffffffffffffffffffff1673ffffffffffffffffffffffffffffffffffffffff1660066000848152602001908152602001600020600501546040516103b790611198565b60006040518083038185875af1925050503d80600081146103f4576040519150601f19603f3d011682016040523d82523d6000602084013e6103f9565b606091505b5050905080610431577f4e487b7100000000000000000000000000000000000000000000000000000000600052600160045260246000fd5b50610535565b60008054906101000a900473ffffffffffffffffffffffffffffffffffffffff1673ffffffffffffffffffffffffffffffffffffffff1663566d0d86600160009054906101000a900473ffffffffffffffffffffffffffffffffffffffff166006600085815260200190815260200160002060040160009054906101000a900473ffffffffffffffffffffffffffffffffffffffff1660066000868152602001908152602001600020600101546040518463ffffffff1660e01b8152600401610502939291906111ad565b600060405180830381600087803b15801561051c57600080fd5b505af1158015610530573d6000803e3d6000fd5b505050505b50565b600060046105463384610f05565b6040516105539190611181565b9081526020016040518091039020549050600060046105723385610f05565b60405161057f9190611181565b90815260200160405180910390208190555060003373ffffffffffffffffffffffffffffffffffffffff16826040516105b790611198565b60006040518083038185875af1925050503d80600081146105f4576040519150601f19603f3d011682016040523d82523d6000602084013e6105f9565b606091505b5050905080610631577f4e487b7100000000000000000000000000000000000000000000000000000000600052600160045260246000fd5b3373ffffffffffffffffffffffffffffffffffffffff16837f6ee929238c346518d4d72f9b07b745556fefec7100f1bcb4d37af9576a8d99a884604051610678919061127b565b60405180910390a3505050565b426006600083815260200190815260200160002060020154111580156106c1575042600660008381526020019081526020016000206003015410155b610700576040517f08c379a00000000000000000000000000000000000000000000000000000000081526004016106f79061121b565b60405180910390fd5b6006600082815260200190815260200160002060050154341161072257600080fd5b60038081111561075b577f4e487b7100000000000000000000000000000000000000000000000000000000600052602160045260246000fd5b6006600083815260200190815260200160002060060160149054906101000a900460ff1660038111156107b7577f4e487b7100000000000000000000000000000000000000000000000000000000600052602160045260246000fd5b14156107c257600080fd5b600073ffffffffffffffffffffffffffffffffffffffff166006600083815260200190815260200160002060060160009054906101000a900473ffffffffffffffffffffffffffffffffffffffff1673ffffffffffffffffffffffffffffffffffffffff16146108bb57600660008281526020019081526020016000206005015460046108856006600085815260200190815260200160002060060160009054906101000a900473ffffffffffffffffffffffffffffffffffffffff1684610f05565b6040516108929190611181565b908152602001604051809103902060008282546108af9190611346565b92505081905550610999565b60016006600083815260200190815260200160002060060160146101000a81548160ff0219169083600381111561091b577f4e487b7100000000000000000000000000000000000000000000000000000000600052602160045260246000fd5b02179055506001600560006006600085815260200190815260200160002060010154815260200190815260200160002060006101000a81548160ff02191690836003811115610993577f4e487b7100000000000000000000000000000000000000000000000000000000600052602160045260246000fd5b02179055505b336006600083815260200190815260200160002060060160006101000a81548173ffffffffffffffffffffffffffffffffffffffff021916908373ffffffffffffffffffffffffffffffffffffffff1602179055503460066000838152602001908152602001600020600501819055506006600082815260200190815260200160002060060160009054906101000a900473ffffffffffffffffffffffffffffffffffffffff1673ffffffffffffffffffffffffffffffffffffffff166006600083815260200190815260200160002060010154827ffbeecd9ec28b67457ca40d6825a0601fb92ef896e2db0164432101e0a62639896006600086815260200190815260200160002060050154604051610ab3919061127b565b60405180910390a450565b60008054906101000a900473ffffffffffffffffffffffffffffffffffffffff1673ffffffffffffffffffffffffffffffffffffffff163373ffffffffffffffffffffffffffffffffffffffff1614610b4c576040517f08c379a0000000000000000000000000000000000000000000000000000000008152600401610b439061125b565b60405180910390fd5b60006003811115610b86577f4e487b7100000000000000000000000000000000000000000000000000000000600052602160045260246000fd5b6005600083815260200190815260200160002060009054906101000a900460ff166003811115610bdf577f4e487b7100000000000000000000000000000000000000000000000000000000600052602160045260246000fd5b14610c1f576040517f08c379a0000000000000000000000000000000000000000000000000000000008152600401610c169061123b565b60405180910390fd5b610c296003610f31565b604051806101000160405280610c3f6003610f47565b81526020018281526020018681526020018581526020018473ffffffffffffffffffffffffffffffffffffffff168152602001838152602001600073ffffffffffffffffffffffffffffffffffffffff16815260200160026003811115610ccf577f4e487b7100000000000000000000000000000000000000000000000000000000600052602160045260246000fd5b81525060066000610ce06003610f47565b81526020019081526020016000206000820151816000015560208201518160010155604082015181600201556060820151816003015560808201518160040160006101000a81548173ffffffffffffffffffffffffffffffffffffffff021916908373ffffffffffffffffffffffffffffffffffffffff16021790555060a0820151816005015560c08201518160060160006101000a81548173ffffffffffffffffffffffffffffffffffffffff021916908373ffffffffffffffffffffffffffffffffffffffff16021790555060e08201518160060160146101000a81548160ff02191690836003811115610dff577f4e487b7100000000000000000000000000000000000000000000000000000000600052602160045260246000fd5b021790555090505060026005600083815260200190815260200160002060006101000a81548160ff02191690836003811115610e64577f4e487b7100000000000000000000000000000000000000000000000000000000600052602160045260246000fd5b02179055505050505050565b60066020528060005260406000206000915090508060000154908060010154908060020154908060030154908060040160009054906101000a900473ffffffffffffffffffffffffffffffffffffffff16908060050154908060060160009054906101000a900473ffffffffffffffffffffffffffffffffffffffff16908060060160149054906101000a900460ff16905088565b60608282604051602001610f1a929190611155565b604051602081830303815290604052905092915050565b6001816000016000828254019250508190555050565b600081600001549050919050565b600081359050610f64816115c9565b92915050565b600081359050610f79816115e0565b92915050565b600060208284031215610f9157600080fd5b6000610f9f84828501610f6a565b91505092915050565b600080600080600060a08688031215610fc057600080fd5b6000610fce88828901610f6a565b9550506020610fdf88828901610f6a565b9450506040610ff088828901610f55565b935050606061100188828901610f6a565b925050608061101288828901610f6a565b9150509295509295909350565b611028816113fd565b82525050565b611037816113ae565b82525050565b6110468161139c565b82525050565b61105d6110588261139c565b611478565b82525050565b61106c8161140f565b82525050565b600061107d82611314565b611087818561133b565b9350611097818560208601611445565b80840191505092915050565b60006110b060198361132a565b91506110bb82611511565b602082019050919050565b60006110d360008361131f565b91506110de8261153a565b600082019050919050565b60006110f660308361132a565b91506111018261153d565b604082019050919050565b600061111960098361132a565b91506111248261158c565b602082019050919050565b611138816113f3565b82525050565b61114f61114a826113f3565b61149c565b82525050565b6000611161828561104c565b601482019150611171828461113e565b6020820191508190509392505050565b600061118d8284611072565b915081905092915050565b60006111a3826110c6565b9150819050919050565b60006060820190506111c2600083018661103d565b6111cf602083018561101f565b6111dc604083018461112f565b949350505050565b60006060820190506111f9600083018661103d565b611206602083018561103d565b611213604083018461112f565b949350505050565b60006020820190508181036000830152611234816110a3565b9050919050565b60006020820190508181036000830152611254816110e9565b9050919050565b600060208201905081810360008301526112748161110c565b9050919050565b6000602082019050611290600083018461112f565b92915050565b6000610100820190506112ac600083018b61112f565b6112b9602083018a61112f565b6112c6604083018961112f565b6112d3606083018861112f565b6112e0608083018761102e565b6112ed60a083018661112f565b6112fa60c083018561103d565b61130760e0830184611063565b9998505050505050505050565b600081519050919050565b600081905092915050565b600082825260208201905092915050565b600081905092915050565b6000611351826113f3565b915061135c836113f3565b9250827fffffffffffffffffffffffffffffffffffffffffffffffffffffffffffffffff03821115611391576113906114a6565b5b828201905092915050565b60006113a7826113d3565b9050919050565b60006113b9826113d3565b9050919050565b60008190506113ce826115b5565b919050565b600073ffffffffffffffffffffffffffffffffffffffff82169050919050565b6000819050919050565b600061140882611421565b9050919050565b600061141a826113c0565b9050919050565b600061142c82611433565b9050919050565b600061143e826113d3565b9050919050565b60005b83811015611463578082015181840152602081019050611448565b83811115611472576000848401525b50505050565b60006114838261148a565b9050919050565b600061149582611504565b9050919050565b6000819050919050565b7f4e487b7100000000000000000000000000000000000000000000000000000000600052601160045260246000fd5b7f4e487b7100000000000000000000000000000000000000000000000000000000600052602160045260246000fd5b60008160601b9050919050565b7f41756374696f6e204475726174696f6e20457863656564656400000000000000600082015250565b50565b7f43616e7420437265617465204e65772041756374696f6e207768696c6520616e60008201527f6f746865722069732050656e64696e6700000000000000000000000000000000602082015250565b7f6e6f74206f776e65720000000000000000000000000000000000000000000000600082015250565b600481106115c6576115c56114d5565b5b50565b6115d28161139c565b81146115dd57600080fd5b50565b6115e9816113f3565b81146115f457600080fd5b5056fea2646970667358221220b78ed115aa949b691c639d4ec1aa42705e12bae78894f96389fbdc778725749e64736f6c63430008040033",
  "linkReferences": {},
  "deployedLinkReferences": {}
}