{
  "_format": "hh-sol-artifact-1",
  "contractName": "Helper",
  "sourceName": "contracts/Helper.sol",
  "abi": [
    {
      "inputs": [
        {
          "internalType": "uint256[]",
          "name": "data",
          "type": "uint256[]"
        },
        {
          "internalType": "uint256",
          "name": "value",
          "type": "uint256"
        }
      ],
      "name": "checkIfExist",
      "outputs": [
        {
          "internalType": "bool",
          "name": "",
          "type": "bool"
        }
      ],
      "stateMutability": "pure",
      "type": "function"
    },
    {
      "inputs": [
        {
          "internalType": "uint256[]",
          "name": "data",
          "type": "uint256[]"
        }
      ],
      "name": "getMax",
      "outputs": [
        {
          "internalType": "uint256",
          "name": "",
          "type": "uint256"
        }
      ],
      "stateMutability": "pure",
      "type": "function"
    }
  ],
  "bytecode": "0x608060405234801561001057600080fd5b5061050a806100206000396000f3fe608060405234801561001057600080fd5b50600436106100365760003560e01c806301454e991461003b578063ca1314af1461006b575b600080fd5b610055600480360381019061005091906102c5565b61009b565b6040516100629190610337565b60405180910390f35b61008560048036038101906100809190610284565b61011d565b6040516100929190610352565b60405180910390f35b600080600090505b835181101561011157828482815181106100e6577f4e487b7100000000000000000000000000000000000000000000000000000000600052603260045260246000fd5b602002602001015114156100fe576001915050610117565b808061010990610405565b9150506100a3565b50600090505b92915050565b6000806000905060005b83518110156101cf578184828151811061016a577f4e487b7100000000000000000000000000000000000000000000000000000000600052603260045260246000fd5b602002602001015111156101bc578381815181106101b1577f4e487b7100000000000000000000000000000000000000000000000000000000600052603260045260246000fd5b602002602001015191505b80806101c790610405565b915050610127565b5080915050919050565b60006101ec6101e784610392565b61036d565b9050808382526020820190508285602086028201111561020b57600080fd5b60005b8581101561023b5781610221888261026f565b84526020840193506020830192505060018101905061020e565b5050509392505050565b600082601f83011261025657600080fd5b81356102668482602086016101d9565b91505092915050565b60008135905061027e816104bd565b92915050565b60006020828403121561029657600080fd5b600082013567ffffffffffffffff8111156102b057600080fd5b6102bc84828501610245565b91505092915050565b600080604083850312156102d857600080fd5b600083013567ffffffffffffffff8111156102f257600080fd5b6102fe85828601610245565b925050602061030f8582860161026f565b9150509250929050565b610322816103be565b82525050565b610331816103ca565b82525050565b600060208201905061034c6000830184610319565b92915050565b60006020820190506103676000830184610328565b92915050565b6000610377610388565b905061038382826103d4565b919050565b6000604051905090565b600067ffffffffffffffff8211156103ad576103ac61047d565b5b602082029050602081019050919050565b60008115159050919050565b6000819050919050565b6103dd826104ac565b810181811067ffffffffffffffff821117156103fc576103fb61047d565b5b80604052505050565b6000610410826103ca565b91507fffffffffffffffffffffffffffffffffffffffffffffffffffffffffffffffff8214156104435761044261044e565b5b600182019050919050565b7f4e487b7100000000000000000000000000000000000000000000000000000000600052601160045260246000fd5b7f4e487b7100000000000000000000000000000000000000000000000000000000600052604160045260246000fd5b6000601f19601f8301169050919050565b6104c6816103ca565b81146104d157600080fd5b5056fea26469706673582212204f729acfc7672afa08015c77de940ed36194ea3cb4e81199013f156512f23eb664736f6c63430008040033",
  "linkReferences": {},
  "deployedLinkReferences": {}
}