{
  "_format": "hh-sol-artifact-1",
  "contractName": "MusicMarket",
  "sourceName": "contracts/MusicMarket.sol",
  "abi": [
    {
      "inputs": [],
      "stateMutability": "nonpayable",
      "type": "constructor"
    },
    {
      "anonymous": false,
      "inputs": [
        {
          "indexed": true,
          "internalType": "uint256",
          "name": "albumId",
          "type": "uint256"
        },
        {
          "indexed": false,
          "internalType": "string",
          "name": "albumName",
          "type": "string"
        },
        {
          "indexed": false,
          "internalType": "uint256",
          "name": "createdAt",
          "type": "uint256"
        },
        {
          "indexed": false,
          "internalType": "enum MusicMarket.AlbumStatus",
          "name": "Status",
          "type": "uint8"
        },
        {
          "indexed": false,
          "internalType": "string",
          "name": "coverUrl",
          "type": "string"
        },
        {
          "indexed": false,
          "internalType": "uint256",
          "name": "mintedSongs",
          "type": "uint256"
        },
        {
          "indexed": false,
          "internalType": "uint256",
          "name": "soldSongs",
          "type": "uint256"
        },
        {
          "indexed": false,
          "internalType": "string",
          "name": "message",
          "type": "string"
        }
      ],
      "name": "AlbumEvent",
      "type": "event"
    },
    {
      "anonymous": false,
      "inputs": [
        {
          "indexed": true,
          "internalType": "uint256",
          "name": "artistId",
          "type": "uint256"
        },
        {
          "indexed": false,
          "internalType": "string",
          "name": "artistName",
          "type": "string"
        },
        {
          "indexed": false,
          "internalType": "string",
          "name": "url",
          "type": "string"
        },
        {
          "indexed": false,
          "internalType": "string",
          "name": "message",
          "type": "string"
        }
      ],
      "name": "ArtistEvent",
      "type": "event"
    },
    {
      "anonymous": false,
      "inputs": [
        {
          "indexed": true,
          "internalType": "uint256",
          "name": "itemId",
          "type": "uint256"
        },
        {
          "indexed": true,
          "internalType": "uint256",
          "name": "tokenId",
          "type": "uint256"
        },
        {
          "indexed": false,
          "internalType": "address",
          "name": "musicContract",
          "type": "address"
        },
        {
          "indexed": false,
          "internalType": "address",
          "name": "owner",
          "type": "address"
        },
        {
          "indexed": false,
          "internalType": "address",
          "name": "seller",
          "type": "address"
        },
        {
          "indexed": false,
          "internalType": "uint256",
          "name": "price",
          "type": "uint256"
        },
        {
          "indexed": true,
          "internalType": "uint256",
          "name": "albumId",
          "type": "uint256"
        },
        {
          "indexed": false,
          "internalType": "uint256",
          "name": "trackNumber",
          "type": "uint256"
        },
        {
          "indexed": false,
          "internalType": "uint256",
          "name": "artistId",
          "type": "uint256"
        },
        {
          "indexed": false,
          "internalType": "enum MusicMarket.SongStatus",
          "name": "status",
          "type": "uint8"
        },
        {
          "indexed": false,
          "internalType": "string",
          "name": "message",
          "type": "string"
        }
      ],
      "name": "SongEvent",
      "type": "event"
    },
    {
      "inputs": [
        {
          "internalType": "address",
          "name": "musicContract",
          "type": "address"
        },
        {
          "internalType": "uint256",
          "name": "tokenId",
          "type": "uint256"
        }
      ],
      "name": "BuySong",
      "outputs": [
        {
          "components": [
            {
              "internalType": "uint256",
              "name": "itemId",
              "type": "uint256"
            },
            {
              "internalType": "uint256",
              "name": "tokenId",
              "type": "uint256"
            },
            {
              "internalType": "address",
              "name": "musicContract",
              "type": "address"
            },
            {
              "internalType": "address payable",
              "name": "owner",
              "type": "address"
            },
            {
              "internalType": "address payable",
              "name": "seller",
              "type": "address"
            },
            {
              "internalType": "uint256",
              "name": "price",
              "type": "uint256"
            },
            {
              "internalType": "uint256",
              "name": "albumId",
              "type": "uint256"
            },
            {
              "internalType": "uint256",
              "name": "trackNumber",
              "type": "uint256"
            },
            {
              "internalType": "uint256",
              "name": "artistId",
              "type": "uint256"
            },
            {
              "internalType": "enum MusicMarket.SongStatus",
              "name": "status",
              "type": "uint8"
            }
          ],
          "internalType": "struct MusicMarket.Song",
          "name": "",
          "type": "tuple"
        }
      ],
      "stateMutability": "payable",
      "type": "function"
    },
    {
      "inputs": [
        {
          "internalType": "address",
          "name": "musicContract",
          "type": "address"
        },
        {
          "internalType": "uint256",
          "name": "itemId",
          "type": "uint256"
        }
      ],
      "name": "CancelItem",
      "outputs": [],
      "stateMutability": "payable",
      "type": "function"
    },
    {
      "inputs": [
        {
          "internalType": "uint256",
          "name": "",
          "type": "uint256"
        }
      ],
      "name": "artists",
      "outputs": [
        {
          "internalType": "uint256",
          "name": "id",
          "type": "uint256"
        },
        {
          "internalType": "string",
          "name": "artistName",
          "type": "string"
        },
        {
          "internalType": "string",
          "name": "url",
          "type": "string"
        }
      ],
      "stateMutability": "view",
      "type": "function"
    },
    {
      "inputs": [
        {
          "internalType": "string",
          "name": "albumName",
          "type": "string"
        },
        {
          "internalType": "string",
          "name": "uri",
          "type": "string"
        },
        {
          "internalType": "uint256[]",
          "name": "_artists",
          "type": "uint256[]"
        }
      ],
      "name": "createAlbum",
      "outputs": [
        {
          "internalType": "uint256",
          "name": "albumId",
          "type": "uint256"
        }
      ],
      "stateMutability": "nonpayable",
      "type": "function"
    },
    {
      "inputs": [
        {
          "internalType": "string",
          "name": "artistName",
          "type": "string"
        },
        {
          "internalType": "string",
          "name": "uri",
          "type": "string"
        }
      ],
      "name": "createArtist",
      "outputs": [
        {
          "internalType": "uint256",
          "name": "artistID",
          "type": "uint256"
        }
      ],
      "stateMutability": "nonpayable",
      "type": "function"
    },
    {
      "inputs": [
        {
          "internalType": "address",
          "name": "musicContract",
          "type": "address"
        },
        {
          "internalType": "uint256",
          "name": "tokenId",
          "type": "uint256"
        },
        {
          "internalType": "uint256",
          "name": "albumId",
          "type": "uint256"
        },
        {
          "internalType": "uint256",
          "name": "artistId",
          "type": "uint256"
        },
        {
          "internalType": "uint256",
          "name": "price",
          "type": "uint256"
        }
      ],
      "name": "createSong",
      "outputs": [],
      "stateMutability": "nonpayable",
      "type": "function"
    },
    {
      "inputs": [
        {
          "internalType": "address",
          "name": "musicContract",
          "type": "address"
        },
        {
          "internalType": "uint256",
          "name": "itemId",
          "type": "uint256"
        }
      ],
      "name": "createSongSale",
      "outputs": [
        {
          "components": [
            {
              "internalType": "uint256",
              "name": "itemId",
              "type": "uint256"
            },
            {
              "internalType": "uint256",
              "name": "tokenId",
              "type": "uint256"
            },
            {
              "internalType": "address",
              "name": "musicContract",
              "type": "address"
            },
            {
              "internalType": "address payable",
              "name": "owner",
              "type": "address"
            },
            {
              "internalType": "address payable",
              "name": "seller",
              "type": "address"
            },
            {
              "internalType": "uint256",
              "name": "price",
              "type": "uint256"
            },
            {
              "internalType": "uint256",
              "name": "albumId",
              "type": "uint256"
            },
            {
              "internalType": "uint256",
              "name": "trackNumber",
              "type": "uint256"
            },
            {
              "internalType": "uint256",
              "name": "artistId",
              "type": "uint256"
            },
            {
              "internalType": "enum MusicMarket.SongStatus",
              "name": "status",
              "type": "uint8"
            }
          ],
          "internalType": "struct MusicMarket.Song",
          "name": "",
          "type": "tuple"
        }
      ],
      "stateMutability": "payable",
      "type": "function"
    },
    {
      "inputs": [
        {
          "internalType": "uint256",
          "name": "limit",
          "type": "uint256"
        }
      ],
      "name": "fetchMyMusicNFTs",
      "outputs": [
        {
          "components": [
            {
              "internalType": "uint256",
              "name": "itemId",
              "type": "uint256"
            },
            {
              "internalType": "uint256",
              "name": "tokenId",
              "type": "uint256"
            },
            {
              "internalType": "address",
              "name": "musicContract",
              "type": "address"
            },
            {
              "internalType": "address payable",
              "name": "owner",
              "type": "address"
            },
            {
              "internalType": "address payable",
              "name": "seller",
              "type": "address"
            },
            {
              "internalType": "uint256",
              "name": "price",
              "type": "uint256"
            },
            {
              "internalType": "uint256",
              "name": "albumId",
              "type": "uint256"
            },
            {
              "internalType": "uint256",
              "name": "trackNumber",
              "type": "uint256"
            },
            {
              "internalType": "uint256",
              "name": "artistId",
              "type": "uint256"
            },
            {
              "internalType": "enum MusicMarket.SongStatus",
              "name": "status",
              "type": "uint8"
            }
          ],
          "internalType": "struct MusicMarket.Song[]",
          "name": "",
          "type": "tuple[]"
        }
      ],
      "stateMutability": "view",
      "type": "function"
    },
    {
      "inputs": [
        {
          "internalType": "uint256",
          "name": "albumId",
          "type": "uint256"
        }
      ],
      "name": "getAlbum",
      "outputs": [
        {
          "components": [
            {
              "internalType": "uint256",
              "name": "id",
              "type": "uint256"
            },
            {
              "internalType": "string",
              "name": "albumName",
              "type": "string"
            },
            {
              "internalType": "uint256",
              "name": "createdAt",
              "type": "uint256"
            },
            {
              "internalType": "enum MusicMarket.AlbumStatus",
              "name": "Status",
              "type": "uint8"
            },
            {
              "internalType": "string",
              "name": "coverUrl",
              "type": "string"
            },
            {
              "internalType": "uint256",
              "name": "mintedSongs",
              "type": "uint256"
            },
            {
              "internalType": "uint256",
              "name": "soldSongs",
              "type": "uint256"
            }
          ],
          "internalType": "struct MusicMarket.Album",
          "name": "_album",
          "type": "tuple"
        },
        {
          "components": [
            {
              "internalType": "uint256",
              "name": "id",
              "type": "uint256"
            },
            {
              "internalType": "string",
              "name": "artistName",
              "type": "string"
            },
            {
              "internalType": "string",
              "name": "url",
              "type": "string"
            }
          ],
          "internalType": "struct MusicMarket.Artist[]",
          "name": "_artists",
          "type": "tuple[]"
        }
      ],
      "stateMutability": "view",
      "type": "function"
    },
    {
      "inputs": [],
      "name": "getAlbums",
      "outputs": [
        {
          "components": [
            {
              "internalType": "uint256",
              "name": "id",
              "type": "uint256"
            },
            {
              "internalType": "string",
              "name": "albumName",
              "type": "string"
            },
            {
              "internalType": "uint256",
              "name": "createdAt",
              "type": "uint256"
            },
            {
              "internalType": "enum MusicMarket.AlbumStatus",
              "name": "Status",
              "type": "uint8"
            },
            {
              "internalType": "string",
              "name": "coverUrl",
              "type": "string"
            },
            {
              "internalType": "uint256",
              "name": "mintedSongs",
              "type": "uint256"
            },
            {
              "internalType": "uint256",
              "name": "soldSongs",
              "type": "uint256"
            }
          ],
          "internalType": "struct MusicMarket.Album[]",
          "name": "data",
          "type": "tuple[]"
        }
      ],
      "stateMutability": "view",
      "type": "function"
    },
    {
      "inputs": [],
      "name": "getArtists",
      "outputs": [
        {
          "components": [
            {
              "internalType": "uint256",
              "name": "id",
              "type": "uint256"
            },
            {
              "internalType": "string",
              "name": "artistName",
              "type": "string"
            },
            {
              "internalType": "string",
              "name": "url",
              "type": "string"
            }
          ],
          "internalType": "struct MusicMarket.Artist[]",
          "name": "data",
          "type": "tuple[]"
        }
      ],
      "stateMutability": "view",
      "type": "function"
    },
    {
      "inputs": [
        {
          "internalType": "uint256",
          "name": "tokenId",
          "type": "uint256"
        }
      ],
      "name": "getItemByTokenId",
      "outputs": [
        {
          "components": [
            {
              "internalType": "uint256",
              "name": "itemId",
              "type": "uint256"
            },
            {
              "internalType": "uint256",
              "name": "tokenId",
              "type": "uint256"
            },
            {
              "internalType": "address",
              "name": "musicContract",
              "type": "address"
            },
            {
              "internalType": "address payable",
              "name": "owner",
              "type": "address"
            },
            {
              "internalType": "address payable",
              "name": "seller",
              "type": "address"
            },
            {
              "internalType": "uint256",
              "name": "price",
              "type": "uint256"
            },
            {
              "internalType": "uint256",
              "name": "albumId",
              "type": "uint256"
            },
            {
              "internalType": "uint256",
              "name": "trackNumber",
              "type": "uint256"
            },
            {
              "internalType": "uint256",
              "name": "artistId",
              "type": "uint256"
            },
            {
              "internalType": "enum MusicMarket.SongStatus",
              "name": "status",
              "type": "uint8"
            }
          ],
          "internalType": "struct MusicMarket.Song",
          "name": "item",
          "type": "tuple"
        }
      ],
      "stateMutability": "view",
      "type": "function"
    },
    {
      "inputs": [
        {
          "internalType": "uint256",
          "name": "limit",
          "type": "uint256"
        }
      ],
      "name": "getLastMinted",
      "outputs": [
        {
          "components": [
            {
              "internalType": "uint256",
              "name": "itemId",
              "type": "uint256"
            },
            {
              "internalType": "uint256",
              "name": "tokenId",
              "type": "uint256"
            },
            {
              "internalType": "address",
              "name": "musicContract",
              "type": "address"
            },
            {
              "internalType": "address payable",
              "name": "owner",
              "type": "address"
            },
            {
              "internalType": "address payable",
              "name": "seller",
              "type": "address"
            },
            {
              "internalType": "uint256",
              "name": "price",
              "type": "uint256"
            },
            {
              "internalType": "uint256",
              "name": "albumId",
              "type": "uint256"
            },
            {
              "internalType": "uint256",
              "name": "trackNumber",
              "type": "uint256"
            },
            {
              "internalType": "uint256",
              "name": "artistId",
              "type": "uint256"
            },
            {
              "internalType": "enum MusicMarket.SongStatus",
              "name": "status",
              "type": "uint8"
            }
          ],
          "internalType": "struct MusicMarket.Song[]",
          "name": "",
          "type": "tuple[]"
        }
      ],
      "stateMutability": "view",
      "type": "function"
    },
    {
      "inputs": [],
      "name": "getListingPrice",
      "outputs": [
        {
          "internalType": "uint256",
          "name": "",
          "type": "uint256"
        }
      ],
      "stateMutability": "view",
      "type": "function"
    },
    {
      "inputs": [
        {
          "internalType": "uint256",
          "name": "limit",
          "type": "uint256"
        }
      ],
      "name": "getSongs",
      "outputs": [
        {
          "components": [
            {
              "internalType": "uint256",
              "name": "itemId",
              "type": "uint256"
            },
            {
              "internalType": "uint256",
              "name": "tokenId",
              "type": "uint256"
            },
            {
              "internalType": "address",
              "name": "musicContract",
              "type": "address"
            },
            {
              "internalType": "address payable",
              "name": "owner",
              "type": "address"
            },
            {
              "internalType": "address payable",
              "name": "seller",
              "type": "address"
            },
            {
              "internalType": "uint256",
              "name": "price",
              "type": "uint256"
            },
            {
              "internalType": "uint256",
              "name": "albumId",
              "type": "uint256"
            },
            {
              "internalType": "uint256",
              "name": "trackNumber",
              "type": "uint256"
            },
            {
              "internalType": "uint256",
              "name": "artistId",
              "type": "uint256"
            },
            {
              "internalType": "enum MusicMarket.SongStatus",
              "name": "status",
              "type": "uint8"
            }
          ],
          "internalType": "struct MusicMarket.Song[]",
          "name": "",
          "type": "tuple[]"
        }
      ],
      "stateMutability": "view",
      "type": "function"
    },
    {
      "inputs": [
        {
          "internalType": "uint256",
          "name": "",
          "type": "uint256"
        }
      ],
      "name": "itemIdToSong",
      "outputs": [
        {
          "internalType": "uint256",
          "name": "itemId",
          "type": "uint256"
        },
        {
          "internalType": "uint256",
          "name": "tokenId",
          "type": "uint256"
        },
        {
          "internalType": "address",
          "name": "musicContract",
          "type": "address"
        },
        {
          "internalType": "address payable",
          "name": "owner",
          "type": "address"
        },
        {
          "internalType": "address payable",
          "name": "seller",
          "type": "address"
        },
        {
          "internalType": "uint256",
          "name": "price",
          "type": "uint256"
        },
        {
          "internalType": "uint256",
          "name": "albumId",
          "type": "uint256"
        },
        {
          "internalType": "uint256",
          "name": "trackNumber",
          "type": "uint256"
        },
        {
          "internalType": "uint256",
          "name": "artistId",
          "type": "uint256"
        },
        {
          "internalType": "enum MusicMarket.SongStatus",
          "name": "status",
          "type": "uint8"
        }
      ],
      "stateMutability": "view",
      "type": "function"
    },
    {
      "inputs": [
        {
          "internalType": "address",
          "name": "musicContract",
          "type": "address"
        },
        {
          "internalType": "uint256",
          "name": "itemId",
          "type": "uint256"
        },
        {
          "internalType": "uint256",
          "name": "price",
          "type": "uint256"
        }
      ],
      "name": "listItem",
      "outputs": [],
      "stateMutability": "payable",
      "type": "function"
    },
    {
      "inputs": [],
      "name": "owner",
      "outputs": [
        {
          "internalType": "address payable",
          "name": "",
          "type": "address"
        }
      ],
      "stateMutability": "view",
      "type": "function"
    },
    {
      "inputs": [
        {
          "internalType": "uint256",
          "name": "price",
          "type": "uint256"
        }
      ],
      "name": "setListingPrice",
      "outputs": [
        {
          "internalType": "uint256",
          "name": "",
          "type": "uint256"
        }
      ],
      "stateMutability": "nonpayable",
      "type": "function"
    }
  ],
  "bytecode": "0x60806040526658d15e1762800060075534801561001b57600080fd5b50600160008190555033600660006101000a81548173ffffffffffffffffffffffffffffffffffffffff021916908373ffffffffffffffffffffffffffffffffffffffff160217905550615e3b80620000756000396000f3fe6080604052600436106101145760003560e01c806389bfd38f116100a0578063d4cd0d4511610064578063d4cd0d45146103df578063d69e63bd1461040a578063d6e465c914610433578063db69271014610471578063fb0cf2cc146104b757610114565b806389bfd38f146102ec5780638da5cb5b146103085780639de46d0914610333578063b520fa8f14610363578063cd7e10c1146103a057610114565b80635c517234116100e75780635c517234146101cd5780635e4d1cc4146101f857806367dfda7814610235578063750bf75e146102725780637c726b69146102af57610114565b806312e8558514610119578063134bf711146101445780631f6035be1461016057806320c6b3b614610190575b600080fd5b34801561012557600080fd5b5061012e6104f4565b60405161013b91906153ec565b60405180910390f35b61015e600480360381019061015991906142be565b6104fe565b005b61017a600480360381019061017591906142be565b6107a6565b60405161018791906153d0565b60405180910390f35b34801561019c57600080fd5b506101b760048036038101906101b291906144c3565b610f15565b6040516101c491906150ab565b60405180910390f35b3480156101d957600080fd5b506101e2611309565b6040516101ef9190615067565b60405180910390f35b34801561020457600080fd5b5061021f600480360381019061021a91906144c3565b6115f7565b60405161022c91906150ab565b60405180910390f35b34801561024157600080fd5b5061025c6004803603810190610257919061442c565b6119d7565b60405161026991906153ec565b60405180910390f35b34801561027e57600080fd5b50610299600480360381019061029491906144c3565b611cbe565b6040516102a691906150ab565b60405180910390f35b3480156102bb57600080fd5b506102d660048036038101906102d191906144c3565b612121565b6040516102e391906153ec565b60405180910390f35b610306600480360381019061030191906142fa565b612254565b005b34801561031457600080fd5b5061031d6124f2565b60405161032a9190614dd2565b60405180910390f35b61034d600480360381019061034891906142be565b612518565b60405161035a91906153d0565b60405180910390f35b34801561036f57600080fd5b5061038a600480360381019061038591906144c3565b612c03565b60405161039791906153d0565b60405180910390f35b3480156103ac57600080fd5b506103c760048036038101906103c291906144c3565b612ea3565b6040516103d693929190615407565b60405180910390f35b3480156103eb57600080fd5b506103f4612fdd565b6040516104019190615089565b60405180910390f35b34801561041657600080fd5b50610431600480360381019061042c9190614349565b613226565b005b34801561043f57600080fd5b5061045a600480360381019061045591906144c3565b613747565b604051610468929190615399565b60405180910390f35b34801561047d57600080fd5b50610498600480360381019061049391906144c3565b613c41565b6040516104ae9a9998979695949392919061544c565b60405180910390f35b3480156104c357600080fd5b506104de60048036038101906104d991906143c0565b613d02565b6040516104eb91906153ec565b60405180910390f35b6000600754905090565b60026000541415610544576040517f08c379a000000000000000000000000000000000000000000000000000000000815260040161053b90615379565b60405180910390fd5b600260008190555060006008600083815260200190815260200160002090506000816001015490508160030160009054906101000a900473ffffffffffffffffffffffffffffffffffffffff1673ffffffffffffffffffffffffffffffffffffffff163373ffffffffffffffffffffffffffffffffffffffff16146105fe576040517f08c379a00000000000000000000000000000000000000000000000000000000081526004016105f590615359565b60405180910390fd5b60006002811115610638577f4e487b7100000000000000000000000000000000000000000000000000000000600052602160045260246000fd5b8260090160009054906101000a900460ff166002811115610682577f4e487b7100000000000000000000000000000000000000000000000000000000600052602160045260246000fd5b146106c2576040517f08c379a00000000000000000000000000000000000000000000000000000000081526004016106b990615319565b60405180910390fd5b60018260090160006101000a81548160ff02191690836002811115610710577f4e487b7100000000000000000000000000000000000000000000000000000000600052602160045260246000fd5b021790555061071f6005613eaa565b816006015481847fb6a6e5a1d1cba81612d627d3d366515af9bc54786897c5bb629f44b2ca1949bc8733600660009054906101000a900473ffffffffffffffffffffffffffffffffffffffff16886005015489600701548a6008015460006040516107909796959493929190614ea7565b60405180910390a4505060016000819055505050565b6107ae613f43565b600260005414156107f4576040517f08c379a00000000000000000000000000000000000000000000000000000000081526004016107eb90615379565b60405180910390fd5b6002600081905550600061080783612c03565b905060006002811115610843577f4e487b7100000000000000000000000000000000000000000000000000000000600052602160045260246000fd5b8161012001516002811115610881577f4e487b7100000000000000000000000000000000000000000000000000000000600052602160045260246000fd5b146108c1576040517f08c379a00000000000000000000000000000000000000000000000000000000081526004016108b890615199565b60405180910390fd5b8060a00151341015610908576040517f08c379a00000000000000000000000000000000000000000000000000000000081526004016108ff90615339565b60405180910390fd5b8373ffffffffffffffffffffffffffffffffffffffff166323b872dd826060015133866040518463ffffffff1660e01b815260040161094993929190614ded565b600060405180830381600087803b15801561096357600080fd5b505af1158015610977573d6000803e3d6000fd5b50505050600c6000826060015173ffffffffffffffffffffffffffffffffffffffff1673ffffffffffffffffffffffffffffffffffffffff16815260200190815260200160002060008154809291906109cf906157ee565b9190505550600c60003373ffffffffffffffffffffffffffffffffffffffff1673ffffffffffffffffffffffffffffffffffffffff1681526020019081526020016000206000815480929190610a249061587b565b9190505550610a336005613eaa565b806060015173ffffffffffffffffffffffffffffffffffffffff166108fc8260a001519081150290604051600060405180830381858888f19350505050158015610a81573d6000803e3d6000fd5b5060018161012001906002811115610ac2577f4e487b7100000000000000000000000000000000000000000000000000000000600052602160045260246000fd5b90816002811115610afc577f4e487b7100000000000000000000000000000000000000000000000000000000600052602160045260246000fd5b8152505033816060019073ffffffffffffffffffffffffffffffffffffffff16908173ffffffffffffffffffffffffffffffffffffffff1681525050806008600083600001518152602001908152602001600020600082015181600001556020820151816001015560408201518160020160006101000a81548173ffffffffffffffffffffffffffffffffffffffff021916908373ffffffffffffffffffffffffffffffffffffffff16021790555060608201518160030160006101000a81548173ffffffffffffffffffffffffffffffffffffffff021916908373ffffffffffffffffffffffffffffffffffffffff16021790555060808201518160040160006101000a81548173ffffffffffffffffffffffffffffffffffffffff021916908373ffffffffffffffffffffffffffffffffffffffff16021790555060a0820151816005015560c0820151816006015560e0820151816007015561010082015181600801556101208201518160090160006101000a81548160ff02191690836002811115610cb4577f4e487b7100000000000000000000000000000000000000000000000000000000600052602160045260246000fd5b02179055509050508060c001518382600001517fb6a6e5a1d1cba81612d627d3d366515af9bc54786897c5bb629f44b2ca1949bc873386606001518760a001518861010001518960e001516001604051610d149796959493929190614f2a565b60405180910390a460086000826000015181526020019081526020016000206040518061014001604052908160008201548152602001600182015481526020016002820160009054906101000a900473ffffffffffffffffffffffffffffffffffffffff1673ffffffffffffffffffffffffffffffffffffffff1673ffffffffffffffffffffffffffffffffffffffff1681526020016003820160009054906101000a900473ffffffffffffffffffffffffffffffffffffffff1673ffffffffffffffffffffffffffffffffffffffff1673ffffffffffffffffffffffffffffffffffffffff1681526020016004820160009054906101000a900473ffffffffffffffffffffffffffffffffffffffff1673ffffffffffffffffffffffffffffffffffffffff1673ffffffffffffffffffffffffffffffffffffffff168152602001600582015481526020016006820154815260200160078201548152602001600882015481526020016009820160009054906101000a900460ff166002811115610ec8577f4e487b7100000000000000000000000000000000000000000000000000000000600052602160045260246000fd5b6002811115610f00577f4e487b7100000000000000000000000000000000000000000000000000000000600052602160045260246000fd5b81525050915050600160008190555092915050565b60606000610f236001613f06565b90506000610f316002613f06565b610f3b6005613f06565b83610f469190615642565b610f509190615698565b9050600080610f5f8684613f14565b905060008167ffffffffffffffff811115610fa3577f4e487b7100000000000000000000000000000000000000000000000000000000600052604160045260246000fd5b604051908082528060200260200182016040528015610fdc57816020015b610fc9613f43565b815260200190600190039081610fc15790505b50905060005b858110156112fb5782841415610ff7576112fb565b60006002811115611031577f4e487b7100000000000000000000000000000000000000000000000000000000600052602160045260246000fd5b600860006001846110429190615642565b815260200190815260200160002060090160009054906101000a900460ff166002811115611099577f4e487b7100000000000000000000000000000000000000000000000000000000600052602160045260246000fd5b14156112e8576000600860006001846110b29190615642565b81526020019081526020016000206040518061014001604052908160008201548152602001600182015481526020016002820160009054906101000a900473ffffffffffffffffffffffffffffffffffffffff1673ffffffffffffffffffffffffffffffffffffffff1673ffffffffffffffffffffffffffffffffffffffff1681526020016003820160009054906101000a900473ffffffffffffffffffffffffffffffffffffffff1673ffffffffffffffffffffffffffffffffffffffff1673ffffffffffffffffffffffffffffffffffffffff1681526020016004820160009054906101000a900473ffffffffffffffffffffffffffffffffffffffff1673ffffffffffffffffffffffffffffffffffffffff1673ffffffffffffffffffffffffffffffffffffffff168152602001600582015481526020016006820154815260200160078201548152602001600882015481526020016009820160009054906101000a900460ff166002811115611255577f4e487b7100000000000000000000000000000000000000000000000000000000600052602160045260246000fd5b600281111561128d577f4e487b7100000000000000000000000000000000000000000000000000000000600052602160045260246000fd5b815250509050808386815181106112cd577f4e487b7100000000000000000000000000000000000000000000000000000000600052603260045260246000fd5b602002602001018190525084806112e39061587b565b955050505b80806112f39061587b565b915050610fe2565b508095505050505050919050565b60606113156004613f06565b67ffffffffffffffff811115611354577f4e487b7100000000000000000000000000000000000000000000000000000000600052604160045260246000fd5b60405190808252806020026020018201604052801561138d57816020015b61137a614010565b8152602001906001900390816113725790505b5090506000600190505b815181116115f357600a60008281526020019081526020016000206040518060e0016040529081600082015481526020016001820180546113d790615818565b80601f016020809104026020016040519081016040528092919081815260200182805461140390615818565b80156114505780601f1061142557610100808354040283529160200191611450565b820191906000526020600020905b81548152906001019060200180831161143357829003601f168201915b50505050508152602001600282015481526020016003820160009054906101000a900460ff1660028111156114ae577f4e487b7100000000000000000000000000000000000000000000000000000000600052602160045260246000fd5b60028111156114e6577f4e487b7100000000000000000000000000000000000000000000000000000000600052602160045260246000fd5b81526020016004820180546114fa90615818565b80601f016020809104026020016040519081016040528092919081815260200182805461152690615818565b80156115735780601f1061154857610100808354040283529160200191611573565b820191906000526020600020905b81548152906001019060200180831161155657829003601f168201915b50505050508152602001600582015481526020016006820154815250508260018361159e9190615698565b815181106115d5577f4e487b7100000000000000000000000000000000000000000000000000000000600052603260045260246000fd5b602002602001018190525080806115eb9061587b565b915050611397565b5090565b606060006116056001613f06565b905060006116136002613f06565b61161d6005613f06565b836116289190615642565b6116329190615698565b90506000806116418684613f14565b905060008167ffffffffffffffff811115611685577f4e487b7100000000000000000000000000000000000000000000000000000000600052604160045260246000fd5b6040519080825280602002602001820160405280156116be57816020015b6116ab613f43565b8152602001906001900390816116a35790505b50905060008590505b60008111156119c957828414156116dd576119c9565b60006002811115611717577f4e487b7100000000000000000000000000000000000000000000000000000000600052602160045260246000fd5b6008600083815260200190815260200160002060090160009054906101000a900460ff166002811115611773577f4e487b7100000000000000000000000000000000000000000000000000000000600052602160045260246000fd5b14156119b6576000600860008381526020019081526020016000206040518061014001604052908160008201548152602001600182015481526020016002820160009054906101000a900473ffffffffffffffffffffffffffffffffffffffff1673ffffffffffffffffffffffffffffffffffffffff1673ffffffffffffffffffffffffffffffffffffffff1681526020016003820160009054906101000a900473ffffffffffffffffffffffffffffffffffffffff1673ffffffffffffffffffffffffffffffffffffffff1673ffffffffffffffffffffffffffffffffffffffff1681526020016004820160009054906101000a900473ffffffffffffffffffffffffffffffffffffffff1673ffffffffffffffffffffffffffffffffffffffff1673ffffffffffffffffffffffffffffffffffffffff168152602001600582015481526020016006820154815260200160078201548152602001600882015481526020016009820160009054906101000a900460ff166002811115611923577f4e487b7100000000000000000000000000000000000000000000000000000000600052602160045260246000fd5b600281111561195b577f4e487b7100000000000000000000000000000000000000000000000000000000600052602160045260246000fd5b8152505090508083868151811061199b577f4e487b7100000000000000000000000000000000000000000000000000000000600052603260045260246000fd5b602002602001018190525084806119b19061587b565b955050505b80806119c1906157ee565b9150506116c7565b508095505050505050919050565b60003373ffffffffffffffffffffffffffffffffffffffff16600660009054906101000a900473ffffffffffffffffffffffffffffffffffffffff1673ffffffffffffffffffffffffffffffffffffffff1614611a69576040517f08c379a0000000000000000000000000000000000000000000000000000000008152600401611a6090615259565b60405180910390fd5b600083511415611aae576040517f08c379a0000000000000000000000000000000000000000000000000000000008152600401611aa5906151d9565b60405180910390fd5b600082511415611af3576040517f08c379a0000000000000000000000000000000000000000000000000000000008152600401611aea906152f9565b60405180910390fd5b611afd6004613f2d565b6000611b096004613f06565b90506040518060e0016040528082815260200186815260200142815260200160006002811115611b62577f4e487b7100000000000000000000000000000000000000000000000000000000600052602160045260246000fd5b8152602001858152602001600081526020016000815250600a6000838152602001908152602001600020600082015181600001556020820151816001019080519060200190611bb2929190614085565b506040820151816002015560608201518160030160006101000a81548160ff02191690836002811115611c0e577f4e487b7100000000000000000000000000000000000000000000000000000000600052602160045260246000fd5b02179055506080820151816004019080519060200190611c2f929190614085565b5060a0820151816005015560c0820151816006015590505082600b60008381526020019081526020016000209080519060200190611c6e92919061410b565b50807f4ad0e5615b1c242c0e644cb5b2255aa337a06268781317cdc14d09d1a51eb1678642600088600080604051611cab96959493929190615117565b60405180910390a2809150509392505050565b60606000611ccc6001613f06565b90506000600c60003373ffffffffffffffffffffffffffffffffffffffff1673ffffffffffffffffffffffffffffffffffffffff168152602001908152602001600020549050600080821415611da157600067ffffffffffffffff811115611d5d577f4e487b7100000000000000000000000000000000000000000000000000000000600052604160045260246000fd5b604051908082528060200260200182016040528015611d9657816020015b611d83613f43565b815260200190600190039081611d7b5790505b50935050505061211c565b6000611dad8684613f14565b905060008167ffffffffffffffff811115611df1577f4e487b7100000000000000000000000000000000000000000000000000000000600052604160045260246000fd5b604051908082528060200260200182016040528015611e2a57816020015b611e17613f43565b815260200190600190039081611e0f5790505b50905060005b858110156121125782841415611e4557612112565b3373ffffffffffffffffffffffffffffffffffffffff1660086000600184611e6d9190615642565b815260200190815260200160002060030160009054906101000a900473ffffffffffffffffffffffffffffffffffffffff1673ffffffffffffffffffffffffffffffffffffffff1614156120ff5760086000600183611ecc9190615642565b81526020019081526020016000206040518061014001604052908160008201548152602001600182015481526020016002820160009054906101000a900473ffffffffffffffffffffffffffffffffffffffff1673ffffffffffffffffffffffffffffffffffffffff1673ffffffffffffffffffffffffffffffffffffffff1681526020016003820160009054906101000a900473ffffffffffffffffffffffffffffffffffffffff1673ffffffffffffffffffffffffffffffffffffffff1673ffffffffffffffffffffffffffffffffffffffff1681526020016004820160009054906101000a900473ffffffffffffffffffffffffffffffffffffffff1673ffffffffffffffffffffffffffffffffffffffff1673ffffffffffffffffffffffffffffffffffffffff168152602001600582015481526020016006820154815260200160078201548152602001600882015481526020016009820160009054906101000a900460ff16600281111561206f577f4e487b7100000000000000000000000000000000000000000000000000000000600052602160045260246000fd5b60028111156120a7577f4e487b7100000000000000000000000000000000000000000000000000000000600052602160045260246000fd5b815250508285815181106120e4577f4e487b7100000000000000000000000000000000000000000000000000000000600052603260045260246000fd5b60200260200101819052506001846120fc9190615642565b93505b808061210a9061587b565b915050611e30565b5080955050505050505b919050565b60003373ffffffffffffffffffffffffffffffffffffffff16600660009054906101000a900473ffffffffffffffffffffffffffffffffffffffff1673ffffffffffffffffffffffffffffffffffffffff16146121b3576040517f08c379a00000000000000000000000000000000000000000000000000000000081526004016121aa90615259565b60405180910390fd5b3373ffffffffffffffffffffffffffffffffffffffff16600660009054906101000a900473ffffffffffffffffffffffffffffffffffffffff1673ffffffffffffffffffffffffffffffffffffffff1614612243576040517f08c379a000000000000000000000000000000000000000000000000000000000815260040161223a906152d9565b60405180910390fd5b816007819055506007549050919050565b60006008600084815260200190815260200160002090506000816001015490508160030160009054906101000a900473ffffffffffffffffffffffffffffffffffffffff1673ffffffffffffffffffffffffffffffffffffffff163373ffffffffffffffffffffffffffffffffffffffff1614612306576040517f08c379a00000000000000000000000000000000000000000000000000000000081526004016122fd90615359565b60405180910390fd5b60006002811115612340577f4e487b7100000000000000000000000000000000000000000000000000000000600052602160045260246000fd5b8260090160009054906101000a900460ff16600281111561238a577f4e487b7100000000000000000000000000000000000000000000000000000000600052602160045260246000fd5b14156123cb576040517f08c379a00000000000000000000000000000000000000000000000000000000081526004016123c2906151b9565b60405180910390fd5b600754341015612410576040517f08c379a0000000000000000000000000000000000000000000000000000000008152600401612407906152b9565b60405180910390fd5b82826005018190555060008260090160006101000a81548160ff02191690836002811115612467577f4e487b7100000000000000000000000000000000000000000000000000000000600052602160045260246000fd5b02179055506124766005613f2d565b816006015481857fb6a6e5a1d1cba81612d627d3d366515af9bc54786897c5bb629f44b2ca1949bc8833600660009054906101000a900473ffffffffffffffffffffffffffffffffffffffff168989600701548a6008015460006040516124e39796959493929190614ea7565b60405180910390a45050505050565b600660009054906101000a900473ffffffffffffffffffffffffffffffffffffffff1681565b612520613f43565b60026000541415612566576040517f08c379a000000000000000000000000000000000000000000000000000000000815260040161255d90615379565b60405180910390fd5b60026000819055506000600860008481526020019081526020016000206040518061014001604052908160008201548152602001600182015481526020016002820160009054906101000a900473ffffffffffffffffffffffffffffffffffffffff1673ffffffffffffffffffffffffffffffffffffffff1673ffffffffffffffffffffffffffffffffffffffff1681526020016003820160009054906101000a900473ffffffffffffffffffffffffffffffffffffffff1673ffffffffffffffffffffffffffffffffffffffff1673ffffffffffffffffffffffffffffffffffffffff1681526020016004820160009054906101000a900473ffffffffffffffffffffffffffffffffffffffff1673ffffffffffffffffffffffffffffffffffffffff1673ffffffffffffffffffffffffffffffffffffffff168152602001600582015481526020016006820154815260200160078201548152602001600882015481526020016009820160009054906101000a900460ff166002811115612718577f4e487b7100000000000000000000000000000000000000000000000000000000600052602160045260246000fd5b6002811115612750577f4e487b7100000000000000000000000000000000000000000000000000000000600052602160045260246000fd5b81525050905060008160a001519050600082602001519050813410156127ab576040517f08c379a00000000000000000000000000000000000000000000000000000000081526004016127a2906152b9565b60405180910390fd5b8573ffffffffffffffffffffffffffffffffffffffff166323b872dd3033846040518463ffffffff1660e01b81526004016127e893929190615030565b600060405180830381600087803b15801561280257600080fd5b505af1158015612816573d6000803e3d6000fd5b50505050600c60003373ffffffffffffffffffffffffffffffffffffffff1673ffffffffffffffffffffffffffffffffffffffff168152602001908152602001600020600081548092919061286a9061587b565b9190505550600183610120019060028111156128af577f4e487b7100000000000000000000000000000000000000000000000000000000600052602160045260246000fd5b908160028111156128e9577f4e487b7100000000000000000000000000000000000000000000000000000000600052602160045260246000fd5b8152505033836060019073ffffffffffffffffffffffffffffffffffffffff16908173ffffffffffffffffffffffffffffffffffffffff168152505061292f6002613f2d565b826080015173ffffffffffffffffffffffffffffffffffffffff166108fc839081150290604051600060405180830381858888f19350505050158015612979573d6000803e3d6000fd5b508260086000878152602001908152602001600020600082015181600001556020820151816001015560408201518160020160006101000a81548173ffffffffffffffffffffffffffffffffffffffff021916908373ffffffffffffffffffffffffffffffffffffffff16021790555060608201518160030160006101000a81548173ffffffffffffffffffffffffffffffffffffffff021916908373ffffffffffffffffffffffffffffffffffffffff16021790555060808201518160040160006101000a81548173ffffffffffffffffffffffffffffffffffffffff021916908373ffffffffffffffffffffffffffffffffffffffff16021790555060a0820151816005015560c0820151816006015560e0820151816007015561010082015181600801556101208201518160090160006101000a81548160ff02191690836002811115612af2577f4e487b7100000000000000000000000000000000000000000000000000000000600052602160045260246000fd5b0217905550905050600860008681526020019081526020016000206006015481867fb6a6e5a1d1cba81612d627d3d366515af9bc54786897c5bb629f44b2ca1949bc89600860008b815260200190815260200160002060030160009054906101000a900473ffffffffffffffffffffffffffffffffffffffff16600860008c815260200190815260200160002060040160009054906101000a900473ffffffffffffffffffffffffffffffffffffffff1688600860008e815260200190815260200160002060070154600860008f8152602001908152602001600020600801546001604051612be79796959493929190614e24565b60405180910390a4829350505050600160008190555092915050565b612c0b613f43565b6000612c176001613f06565b905060005b81811015612e5a578360086000600184612c369190615642565b8152602001908152602001600020600101541415612e475760086000600183612c5f9190615642565b81526020019081526020016000206040518061014001604052908160008201548152602001600182015481526020016002820160009054906101000a900473ffffffffffffffffffffffffffffffffffffffff1673ffffffffffffffffffffffffffffffffffffffff1673ffffffffffffffffffffffffffffffffffffffff1681526020016003820160009054906101000a900473ffffffffffffffffffffffffffffffffffffffff1673ffffffffffffffffffffffffffffffffffffffff1673ffffffffffffffffffffffffffffffffffffffff1681526020016004820160009054906101000a900473ffffffffffffffffffffffffffffffffffffffff1673ffffffffffffffffffffffffffffffffffffffff1673ffffffffffffffffffffffffffffffffffffffff168152602001600582015481526020016006820154815260200160078201548152602001600882015481526020016009820160009054906101000a900460ff166002811115612e02577f4e487b7100000000000000000000000000000000000000000000000000000000600052602160045260246000fd5b6002811115612e3a577f4e487b7100000000000000000000000000000000000000000000000000000000600052602160045260246000fd5b8152505092505050612e9e565b8080612e529061587b565b915050612c1c565b506000612e9c576040517f08c379a0000000000000000000000000000000000000000000000000000000008152600401612e9390615299565b60405180910390fd5b505b919050565b6009602052806000526040600020600091509050806000015490806001018054612ecc90615818565b80601f0160208091040260200160405190810160405280929190818152602001828054612ef890615818565b8015612f455780601f10612f1a57610100808354040283529160200191612f45565b820191906000526020600020905b815481529060010190602001808311612f2857829003601f168201915b505050505090806002018054612f5a90615818565b80601f0160208091040260200160405190810160405280929190818152602001828054612f8690615818565b8015612fd35780601f10612fa857610100808354040283529160200191612fd3565b820191906000526020600020905b815481529060010190602001808311612fb657829003601f168201915b5050505050905083565b6060612fe96003613f06565b67ffffffffffffffff811115613028577f4e487b7100000000000000000000000000000000000000000000000000000000600052604160045260246000fd5b60405190808252806020026020018201604052801561306157816020015b61304e614158565b8152602001906001900390816130465790505b5090506000600190505b815181116132225760096000828152602001908152602001600020604051806060016040529081600082015481526020016001820180546130ab90615818565b80601f01602080910402602001604051908101604052809291908181526020018280546130d790615818565b80156131245780601f106130f957610100808354040283529160200191613124565b820191906000526020600020905b81548152906001019060200180831161310757829003601f168201915b5050505050815260200160028201805461313d90615818565b80601f016020809104026020016040519081016040528092919081815260200182805461316990615818565b80156131b65780601f1061318b576101008083540402835291602001916131b6565b820191906000526020600020905b81548152906001019060200180831161319957829003601f168201915b505050505081525050826001836131cd9190615698565b81518110613204577f4e487b7100000000000000000000000000000000000000000000000000000000600052603260045260246000fd5b6020026020010181905250808061321a9061587b565b91505061306b565b5090565b3373ffffffffffffffffffffffffffffffffffffffff16600660009054906101000a900473ffffffffffffffffffffffffffffffffffffffff1673ffffffffffffffffffffffffffffffffffffffff16146132b6576040517f08c379a00000000000000000000000000000000000000000000000000000000081526004016132ad90615259565b60405180910390fd5b600260005414156132fc576040517f08c379a00000000000000000000000000000000000000000000000000000000081526004016132f390615379565b60405180910390fd5b600260008190555060008111613347576040517f08c379a000000000000000000000000000000000000000000000000000000000815260040161333e90615279565b60405180910390fd5b6133516001613f06565b841015613393576040517f08c379a000000000000000000000000000000000000000000000000000000000815260040161338a90615219565b60405180910390fd5b61339d6004613f06565b8311156133df576040517f08c379a00000000000000000000000000000000000000000000000000000000081526004016133d6906151f9565b60405180910390fd5b6133e96001613f2d565b60006133f56001613f06565b90506000600a600086815260200190815260200160002090506040518061014001604052808381526020018781526020018873ffffffffffffffffffffffffffffffffffffffff168152602001600073ffffffffffffffffffffffffffffffffffffffff1681526020013373ffffffffffffffffffffffffffffffffffffffff168152602001848152602001868152602001600183600501546134989190615642565b8152602001858152602001600060028111156134dd577f4e487b7100000000000000000000000000000000000000000000000000000000600052602160045260246000fd5b81525060086000848152602001908152602001600020600082015181600001556020820151816001015560408201518160020160006101000a81548173ffffffffffffffffffffffffffffffffffffffff021916908373ffffffffffffffffffffffffffffffffffffffff16021790555060608201518160030160006101000a81548173ffffffffffffffffffffffffffffffffffffffff021916908373ffffffffffffffffffffffffffffffffffffffff16021790555060808201518160040160006101000a81548173ffffffffffffffffffffffffffffffffffffffff021916908373ffffffffffffffffffffffffffffffffffffffff16021790555060a0820151816005015560c0820151816006015560e0820151816007015561010082015181600801556101208201518160090160006101000a81548160ff02191690836002811115613657577f4e487b7100000000000000000000000000000000000000000000000000000000600052602160045260246000fd5b021790555090505060018160050160008282546136749190615642565b925050819055508673ffffffffffffffffffffffffffffffffffffffff166323b872dd3330896040518463ffffffff1660e01b81526004016136b893929190615030565b600060405180830381600087803b1580156136d257600080fd5b505af11580156136e6573d6000803e3d6000fd5b505050508486837fb6a6e5a1d1cba81612d627d3d366515af9bc54786897c5bb629f44b2ca1949bc8a600033898b8960050154600060405161372e9796959493929190614fad565b60405180910390a4505060016000819055505050505050565b61374f614010565b60608261375c6004613f06565b101561379d576040517f08c379a000000000000000000000000000000000000000000000000000000000815260040161379490615299565b60405180910390fd5b600a60008481526020019081526020016000206040518060e0016040529081600082015481526020016001820180546137d590615818565b80601f016020809104026020016040519081016040528092919081815260200182805461380190615818565b801561384e5780601f106138235761010080835404028352916020019161384e565b820191906000526020600020905b81548152906001019060200180831161383157829003601f168201915b50505050508152602001600282015481526020016003820160009054906101000a900460ff1660028111156138ac577f4e487b7100000000000000000000000000000000000000000000000000000000600052602160045260246000fd5b60028111156138e4577f4e487b7100000000000000000000000000000000000000000000000000000000600052602160045260246000fd5b81526020016004820180546138f890615818565b80601f016020809104026020016040519081016040528092919081815260200182805461392490615818565b80156139715780601f1061394657610100808354040283529160200191613971565b820191906000526020600020905b81548152906001019060200180831161395457829003601f168201915b50505050508152602001600582015481526020016006820154815250509150600b60008481526020019081526020016000208054905067ffffffffffffffff8111156139e6577f4e487b7100000000000000000000000000000000000000000000000000000000600052604160045260246000fd5b604051908082528060200260200182016040528015613a1f57816020015b613a0c614158565b815260200190600190039081613a045790505b50905060005b600b600085815260200190815260200160002080549050811015613c3b5760096000600b60008781526020019081526020016000208381548110613a92577f4e487b7100000000000000000000000000000000000000000000000000000000600052603260045260246000fd5b9060005260206000200154815260200190815260200160002060405180606001604052908160008201548152602001600182018054613ad090615818565b80601f0160208091040260200160405190810160405280929190818152602001828054613afc90615818565b8015613b495780601f10613b1e57610100808354040283529160200191613b49565b820191906000526020600020905b815481529060010190602001808311613b2c57829003601f168201915b50505050508152602001600282018054613b6290615818565b80601f0160208091040260200160405190810160405280929190818152602001828054613b8e90615818565b8015613bdb5780601f10613bb057610100808354040283529160200191613bdb565b820191906000526020600020905b815481529060010190602001808311613bbe57829003601f168201915b505050505081525050828281518110613c1d577f4e487b7100000000000000000000000000000000000000000000000000000000600052603260045260246000fd5b60200260200101819052508080613c339061587b565b915050613a25565b50915091565b60086020528060005260406000206000915090508060000154908060010154908060020160009054906101000a900473ffffffffffffffffffffffffffffffffffffffff16908060030160009054906101000a900473ffffffffffffffffffffffffffffffffffffffff16908060040160009054906101000a900473ffffffffffffffffffffffffffffffffffffffff16908060050154908060060154908060070154908060080154908060090160009054906101000a900460ff1690508a565b60003373ffffffffffffffffffffffffffffffffffffffff16600660009054906101000a900473ffffffffffffffffffffffffffffffffffffffff1673ffffffffffffffffffffffffffffffffffffffff1614613d94576040517f08c379a0000000000000000000000000000000000000000000000000000000008152600401613d8b90615259565b60405180910390fd5b600082511415613dd9576040517f08c379a0000000000000000000000000000000000000000000000000000000008152600401613dd0906151d9565b60405180910390fd5b613de36003613f2d565b6000613def6003613f06565b905060405180606001604052808281526020018581526020018481525060096000838152602001908152602001600020600082015181600001556020820151816001019080519060200190613e45929190614085565b506040820151816002019080519060200190613e62929190614085565b50905050807f3a1a6624730a36ec5bce3c780f724d278f1b8bb76d4cd5f34abcaf9087aaab1f8585604051613e989291906150cd565b60405180910390a28091505092915050565b60008160000154905060008111613ef6576040517f08c379a0000000000000000000000000000000000000000000000000000000008152600401613eed90615239565b60405180910390fd5b6001810382600001819055505050565b600081600001549050919050565b6000818310613f235781613f25565b825b905092915050565b6001816000016000828254019250508190555050565b6040518061014001604052806000815260200160008152602001600073ffffffffffffffffffffffffffffffffffffffff168152602001600073ffffffffffffffffffffffffffffffffffffffff168152602001600073ffffffffffffffffffffffffffffffffffffffff168152602001600081526020016000815260200160008152602001600081526020016000600281111561400a577f4e487b7100000000000000000000000000000000000000000000000000000000600052602160045260246000fd5b81525090565b6040518060e001604052806000815260200160608152602001600081526020016000600281111561406a577f4e487b7100000000000000000000000000000000000000000000000000000000600052602160045260246000fd5b81526020016060815260200160008152602001600081525090565b82805461409190615818565b90600052602060002090601f0160209004810192826140b357600085556140fa565b82601f106140cc57805160ff19168380011785556140fa565b828001600101855582156140fa579182015b828111156140f95782518255916020019190600101906140de565b5b5090506141079190614179565b5090565b828054828255906000526020600020908101928215614147579160200282015b8281111561414657825182559160200191906001019061412b565b5b5090506141549190614179565b5090565b60405180606001604052806000815260200160608152602001606081525090565b5b8082111561419257600081600090555060010161417a565b5090565b60006141a96141a48461550d565b6154e8565b905080838252602082019050828560208602820111156141c857600080fd5b60005b858110156141f857816141de88826142a9565b8452602084019350602083019250506001810190506141cb565b5050509392505050565b600061421561421084615539565b6154e8565b90508281526020810184848401111561422d57600080fd5b6142388482856157ac565b509392505050565b60008135905061424f81615dd7565b92915050565b600082601f83011261426657600080fd5b8135614276848260208601614196565b91505092915050565b600082601f83011261429057600080fd5b81356142a0848260208601614202565b91505092915050565b6000813590506142b881615dee565b92915050565b600080604083850312156142d157600080fd5b60006142df85828601614240565b92505060206142f0858286016142a9565b9150509250929050565b60008060006060848603121561430f57600080fd5b600061431d86828701614240565b935050602061432e868287016142a9565b925050604061433f868287016142a9565b9150509250925092565b600080600080600060a0868803121561436157600080fd5b600061436f88828901614240565b9550506020614380888289016142a9565b9450506040614391888289016142a9565b93505060606143a2888289016142a9565b92505060806143b3888289016142a9565b9150509295509295909350565b600080604083850312156143d357600080fd5b600083013567ffffffffffffffff8111156143ed57600080fd5b6143f98582860161427f565b925050602083013567ffffffffffffffff81111561441657600080fd5b6144228582860161427f565b9150509250929050565b60008060006060848603121561444157600080fd5b600084013567ffffffffffffffff81111561445b57600080fd5b6144678682870161427f565b935050602084013567ffffffffffffffff81111561448457600080fd5b6144908682870161427f565b925050604084013567ffffffffffffffff8111156144ad57600080fd5b6144b986828701614255565b9150509250925092565b6000602082840312156144d557600080fd5b60006144e3848285016142a9565b91505092915050565b60006144f88383614a7f565b905092915050565b600061450c8383614bc5565b905092915050565b60006145208383614c1c565b6101408301905092915050565b61453681615740565b82525050565b614545816156de565b82525050565b614554816156de565b82525050565b614563816156cc565b82525050565b614572816156cc565b82525050565b60006145838261559a565b61458d81856155ed565b93508360208202850161459f8561556a565b8060005b858110156145db57848403895281516145bc85826144ec565b94506145c7836155c6565b925060208a019950506001810190506145a3565b50829750879550505050505092915050565b60006145f8826155a5565b61460281856155fe565b9350836020820285016146148561557a565b8060005b8581101561465057848403895281516146318582614500565b945061463c836155d3565b925060208a01995050600181019050614618565b50829750879550505050505092915050565b600061466d826155b0565b614677818561560f565b93506146828361558a565b8060005b838110156146b357815161469a8882614514565b97506146a5836155e0565b925050600181019050614686565b5085935050505092915050565b6146c981615752565b82525050565b6146d881615752565b82525050565b6146e781615764565b82525050565b6146f681615764565b82525050565b61470581615776565b82525050565b6000614716826155bb565b6147208185615620565b93506147308185602086016157bb565b61473981615980565b840191505092915050565b600061474f826155bb565b6147598185615631565b93506147698185602086016157bb565b61477281615980565b840191505092915050565b600061478a602583615631565b915061479582615991565b604082019050919050565b60006147ad602083615631565b91506147b8826159e0565b602082019050919050565b60006147d0601983615631565b91506147db82615a09565b602082019050919050565b60006147f3600f83615631565b91506147fe82615a32565b602082019050919050565b6000614816600f83615631565b915061482182615a5b565b602082019050919050565b6000614839601b83615631565b915061484482615a84565b602082019050919050565b600061485c601883615631565b915061486782615aad565b602082019050919050565b600061487f602583615631565b915061488a82615ad6565b604082019050919050565b60006148a2600d83615631565b91506148ad82615b25565b602082019050919050565b60006148c5601083615631565b91506148d082615b4e565b602082019050919050565b60006148e8602083615631565b91506148f382615b77565b602082019050919050565b600061490b600d83615631565b915061491682615ba0565b602082019050919050565b600061492e601483615631565b915061493982615bc9565b602082019050919050565b6000614951602483615631565b915061495c82615bf2565b604082019050919050565b6000614974601083615631565b915061497f82615c41565b602082019050919050565b6000614997601983615631565b91506149a282615c6a565b602082019050919050565b60006149ba602283615631565b91506149c582615c93565b604082019050919050565b60006149dd601183615631565b91506149e882615ce2565b602082019050919050565b6000614a00601a83615631565b9150614a0b82615d0b565b602082019050919050565b6000614a23600e83615631565b9150614a2e82615d34565b602082019050919050565b6000614a46601f83615631565b9150614a5182615d5d565b602082019050919050565b6000614a69600d83615631565b9150614a7482615d86565b602082019050919050565b600060e083016000830151614a976000860182614db4565b5060208301518482036020860152614aaf828261470b565b9150506040830151614ac46040860182614db4565b506060830151614ad760608601826146c0565b5060808301518482036080860152614aef828261470b565b91505060a0830151614b0460a0860182614db4565b5060c0830151614b1760c0860182614db4565b508091505092915050565b600060e083016000830151614b3a6000860182614db4565b5060208301518482036020860152614b52828261470b565b9150506040830151614b676040860182614db4565b506060830151614b7a60608601826146c0565b5060808301518482036080860152614b92828261470b565b91505060a0830151614ba760a0860182614db4565b5060c0830151614bba60c0860182614db4565b508091505092915050565b6000606083016000830151614bdd6000860182614db4565b5060208301518482036020860152614bf5828261470b565b91505060408301518482036040860152614c0f828261470b565b9150508091505092915050565b61014082016000820151614c336000850182614db4565b506020820151614c466020850182614db4565b506040820151614c59604085018261455a565b506060820151614c6c606085018261453c565b506080820151614c7f608085018261453c565b5060a0820151614c9260a0850182614db4565b5060c0820151614ca560c0850182614db4565b5060e0820151614cb860e0850182614db4565b50610100820151614ccd610100850182614db4565b50610120820151614ce26101208501826146de565b50505050565b61014082016000820151614cff6000850182614db4565b506020820151614d126020850182614db4565b506040820151614d25604085018261455a565b506060820151614d38606085018261453c565b506080820151614d4b608085018261453c565b5060a0820151614d5e60a0850182614db4565b5060c0820151614d7160c0850182614db4565b5060e0820151614d8460e0850182614db4565b50610100820151614d99610100850182614db4565b50610120820151614dae6101208501826146de565b50505050565b614dbd81615736565b82525050565b614dcc81615736565b82525050565b6000602082019050614de7600083018461454b565b92915050565b6000606082019050614e02600083018661452d565b614e0f6020830185614569565b614e1c6040830184614dc3565b949350505050565b600061010082019050614e3a600083018a614569565b614e47602083018961452d565b614e54604083018861452d565b614e616060830187614dc3565b614e6e6080830186614dc3565b614e7b60a0830185614dc3565b614e8860c08301846146ed565b81810360e0830152614e9981614921565b905098975050505050505050565b600061010082019050614ebd600083018a614569565b614eca6020830189614569565b614ed7604083018861452d565b614ee46060830187614dc3565b614ef16080830186614dc3565b614efe60a0830185614dc3565b614f0b60c08301846146ed565b81810360e0830152614f1c81614895565b905098975050505050505050565b600061010082019050614f40600083018a614569565b614f4d6020830189614569565b614f5a604083018861452d565b614f676060830187614dc3565b614f746080830186614dc3565b614f8160a0830185614dc3565b614f8e60c08301846146ed565b81810360e0830152614f9f81614a5c565b905098975050505050505050565b600061010082019050614fc3600083018a614569565b614fd06020830189614569565b614fdd6040830188614569565b614fea6060830187614dc3565b614ff76080830186614dc3565b61500460a0830185614dc3565b61501160c08301846146ed565b81810360e083015261502281614967565b905098975050505050505050565b60006060820190506150456000830186614569565b6150526020830185614569565b61505f6040830184614dc3565b949350505050565b600060208201905081810360008301526150818184614578565b905092915050565b600060208201905081810360008301526150a381846145ed565b905092915050565b600060208201905081810360008301526150c58184614662565b905092915050565b600060608201905081810360008301526150e78185614744565b905081810360208301526150fb8184614744565b9050818103604083015261510e81614a16565b90509392505050565b600060e08201905081810360008301526151318189614744565b90506151406020830188614dc3565b61514d60408301876146cf565b818103606083015261515f8186614744565b905061516e60808301856146fc565b61517b60a08301846146fc565b81810360c083015261518c816148fe565b9050979650505050505050565b600060208201905081810360008301526151b28161477d565b9050919050565b600060208201905081810360008301526151d2816147a0565b9050919050565b600060208201905081810360008301526151f2816147c3565b9050919050565b60006020820190508181036000830152615212816147e6565b9050919050565b6000602082019050818103600083015261523281614809565b9050919050565b600060208201905081810360008301526152528161482c565b9050919050565b600060208201905081810360008301526152728161484f565b9050919050565b6000602082019050818103600083015261529281614872565b9050919050565b600060208201905081810360008301526152b2816148b8565b9050919050565b600060208201905081810360008301526152d2816148db565b9050919050565b600060208201905081810360008301526152f281614944565b9050919050565b600060208201905081810360008301526153128161498a565b9050919050565b60006020820190508181036000830152615332816149ad565b9050919050565b60006020820190508181036000830152615352816149d0565b9050919050565b60006020820190508181036000830152615372816149f3565b9050919050565b6000602082019050818103600083015261539281614a39565b9050919050565b600060408201905081810360008301526153b38185614b22565b905081810360208301526153c781846145ed565b90509392505050565b6000610140820190506153e66000830184614ce8565b92915050565b60006020820190506154016000830184614dc3565b92915050565b600060608201905061541c6000830186614dc3565b818103602083015261542e8185614744565b905081810360408301526154428184614744565b9050949350505050565b600061014082019050615462600083018d614dc3565b61546f602083018c614dc3565b61547c604083018b614569565b615489606083018a61454b565b615496608083018961454b565b6154a360a0830188614dc3565b6154b060c0830187614dc3565b6154bd60e0830186614dc3565b6154cb610100830185614dc3565b6154d96101208301846146ed565b9b9a5050505050505050505050565b60006154f2615503565b90506154fe828261584a565b919050565b6000604051905090565b600067ffffffffffffffff82111561552857615527615951565b5b602082029050602081019050919050565b600067ffffffffffffffff82111561555457615553615951565b5b61555d82615980565b9050602081019050919050565b6000819050602082019050919050565b6000819050602082019050919050565b6000819050602082019050919050565b600081519050919050565b600081519050919050565b600081519050919050565b600081519050919050565b6000602082019050919050565b6000602082019050919050565b6000602082019050919050565b600082825260208201905092915050565b600082825260208201905092915050565b600082825260208201905092915050565b600082825260208201905092915050565b600082825260208201905092915050565b600061564d82615736565b915061565883615736565b9250827fffffffffffffffffffffffffffffffffffffffffffffffffffffffffffffffff0382111561568d5761568c6158c4565b5b828201905092915050565b60006156a382615736565b91506156ae83615736565b9250828210156156c1576156c06158c4565b5b828203905092915050565b60006156d782615716565b9050919050565b60006156e982615716565b9050919050565b60008190506156fe82615daf565b919050565b600081905061571182615dc3565b919050565b600073ffffffffffffffffffffffffffffffffffffffff82169050919050565b6000819050919050565b600061574b82615788565b9050919050565b600061575d826156f0565b9050919050565b600061576f82615703565b9050919050565b600061578182615736565b9050919050565b60006157938261579a565b9050919050565b60006157a582615716565b9050919050565b82818337600083830152505050565b60005b838110156157d95780820151818401526020810190506157be565b838111156157e8576000848401525b50505050565b60006157f982615736565b9150600082141561580d5761580c6158c4565b5b600182039050919050565b6000600282049050600182168061583057607f821691505b6020821081141561584457615843615922565b5b50919050565b61585382615980565b810181811067ffffffffffffffff8211171561587257615871615951565b5b80604052505050565b600061588682615736565b91507fffffffffffffffffffffffffffffffffffffffffffffffffffffffffffffffff8214156158b9576158b86158c4565b5b600182019050919050565b7f4e487b7100000000000000000000000000000000000000000000000000000000600052601160045260246000fd5b7f4e487b7100000000000000000000000000000000000000000000000000000000600052602160045260246000fd5b7f4e487b7100000000000000000000000000000000000000000000000000000000600052602260045260246000fd5b7f4e487b7100000000000000000000000000000000000000000000000000000000600052604160045260246000fd5b6000601f19601f8301169050919050565b7f4974656d7320546861742061696e74204c69737465642063616e74206265205360008201527f6f6c646564000000000000000000000000000000000000000000000000000000602082015250565b7f43616e74206c697374207468617420697320616c7265616479204c6973746564600082015250565b7f5552492063616e74206265206e756c6c206f7220656d70747900000000000000600082015250565b7f496e76616c696420416c62756d49640000000000000000000000000000000000600082015250565b7f696e76616c696420546f6b656e49640000000000000000000000000000000000600082015250565b7f436f756e7465723a2064656372656d656e74206f766572666c6f770000000000600082015250565b7f43616c6c6572206d75737420626520746865206f776e65720000000000000000600082015250565b7f4974656d205072696365206d6f73742062652067726561746572207468656e2060008201527f3120574549000000000000000000000000000000000000000000000000000000602082015250565b7f4c697374204d757369634e465400000000000000000000000000000000000000600082015250565b7f496e76616c696420546f6b656e20494400000000000000000000000000000000600082015250565b7f6b696e646c79207472616e7366657220746865206c6973746564207072696365600082015250565b7f4372656174656420416c62756d00000000000000000000000000000000000000600082015250565b7f5472616e73666572726564204d757369634e4654000000000000000000000000600082015250565b7f4f6e6c7920746865204f776e65722043616e20736574204c697374696e67205060008201527f7269636500000000000000000000000000000000000000000000000000000000602082015250565b7f43726561746564204d757369634e465400000000000000000000000000000000600082015250565b7f4174206c6561737420696e636c7564652061206c656e67746800000000000000600082015250565b7f43616e74206c697374207468617420697320616c726561647920756e4c69737460008201527f6564000000000000000000000000000000000000000000000000000000000000602082015250565b7f496e737566666963656e742066756e6473000000000000000000000000000000600082015250565b7f796f75206d757374206d75737420626520746865206f776e6572000000000000600082015250565b7f4172746973742043726561746564000000000000000000000000000000000000600082015250565b7f5265656e7472616e637947756172643a207265656e7472616e742063616c6c00600082015250565b7f536f6c64204d757369634e465400000000000000000000000000000000000000600082015250565b60038110615dc057615dbf6158f3565b5b50565b60038110615dd457615dd36158f3565b5b50565b615de0816156cc565b8114615deb57600080fd5b50565b615df781615736565b8114615e0257600080fd5b5056fea26469706673582212207987a4c4134d74e0dd4262b61838f903971fd1734c9d7529ae2e598aaae0722664736f6c63430008040033",
  "linkReferences": {},
  "deployedLinkReferences": {}
}