{
  "_format": "hh-sol-artifact-1",
  "contractName": "MusicMarket",
  "sourceName": "contracts/MusicMarket.sol",
  "abi": [
    {
      "inputs": [],
      "stateMutability": "nonpayable",
      "type": "constructor"
    },
    {
      "anonymous": false,
      "inputs": [
        {
          "indexed": true,
          "internalType": "uint256",
          "name": "albumId",
          "type": "uint256"
        },
        {
          "indexed": false,
          "internalType": "string",
          "name": "albumName",
          "type": "string"
        },
        {
          "indexed": false,
          "internalType": "uint256",
          "name": "createdAt",
          "type": "uint256"
        },
        {
          "indexed": false,
          "internalType": "enum MusicMarket.AlbumStatus",
          "name": "Status",
          "type": "uint8"
        },
        {
          "indexed": false,
          "internalType": "string",
          "name": "coverUrl",
          "type": "string"
        },
        {
          "indexed": false,
          "internalType": "uint256",
          "name": "mintedSongs",
          "type": "uint256"
        },
        {
          "indexed": false,
          "internalType": "uint256",
          "name": "soldSongs",
          "type": "uint256"
        },
        {
          "indexed": false,
          "internalType": "string",
          "name": "message",
          "type": "string"
        }
      ],
      "name": "AlbumEvent",
      "type": "event"
    },
    {
      "anonymous": false,
      "inputs": [
        {
          "indexed": true,
          "internalType": "uint256",
          "name": "artistId",
          "type": "uint256"
        },
        {
          "indexed": false,
          "internalType": "string",
          "name": "artistName",
          "type": "string"
        },
        {
          "indexed": false,
          "internalType": "string",
          "name": "url",
          "type": "string"
        },
        {
          "indexed": false,
          "internalType": "string",
          "name": "message",
          "type": "string"
        }
      ],
      "name": "ArtistEvent",
      "type": "event"
    },
    {
      "anonymous": false,
      "inputs": [
        {
          "indexed": true,
          "internalType": "uint256",
          "name": "itemId",
          "type": "uint256"
        },
        {
          "indexed": true,
          "internalType": "uint256",
          "name": "tokenId",
          "type": "uint256"
        },
        {
          "indexed": false,
          "internalType": "address",
          "name": "musicContract",
          "type": "address"
        },
        {
          "indexed": false,
          "internalType": "address",
          "name": "owner",
          "type": "address"
        },
        {
          "indexed": false,
          "internalType": "address",
          "name": "seller",
          "type": "address"
        },
        {
          "indexed": false,
          "internalType": "uint256",
          "name": "price",
          "type": "uint256"
        },
        {
          "indexed": true,
          "internalType": "uint256",
          "name": "albumId",
          "type": "uint256"
        },
        {
          "indexed": false,
          "internalType": "uint256",
          "name": "trackNumber",
          "type": "uint256"
        },
        {
          "indexed": false,
          "internalType": "uint256",
          "name": "artistId",
          "type": "uint256"
        },
        {
          "indexed": false,
          "internalType": "enum MusicMarket.SongStatus",
          "name": "status",
          "type": "uint8"
        },
        {
          "indexed": false,
          "internalType": "string",
          "name": "message",
          "type": "string"
        }
      ],
      "name": "SongEvent",
      "type": "event"
    },
    {
      "inputs": [
        {
          "internalType": "address",
          "name": "musicContract",
          "type": "address"
        },
        {
          "internalType": "uint256",
          "name": "tokenId",
          "type": "uint256"
        }
      ],
      "name": "BuySong",
      "outputs": [],
      "stateMutability": "payable",
      "type": "function"
    },
    {
      "inputs": [
        {
          "internalType": "address",
          "name": "musicContract",
          "type": "address"
        },
        {
          "internalType": "uint256",
          "name": "itemId",
          "type": "uint256"
        }
      ],
      "name": "CancelItem",
      "outputs": [],
      "stateMutability": "payable",
      "type": "function"
    },
    {
      "inputs": [
        {
          "internalType": "uint256",
          "name": "",
          "type": "uint256"
        }
      ],
      "name": "artists",
      "outputs": [
        {
          "internalType": "uint256",
          "name": "id",
          "type": "uint256"
        },
        {
          "internalType": "string",
          "name": "artistName",
          "type": "string"
        },
        {
          "internalType": "string",
          "name": "url",
          "type": "string"
        }
      ],
      "stateMutability": "view",
      "type": "function"
    },
    {
      "inputs": [
        {
          "internalType": "uint256[]",
          "name": "data",
          "type": "uint256[]"
        },
        {
          "internalType": "uint256",
          "name": "value",
          "type": "uint256"
        }
      ],
      "name": "checkIfExist",
      "outputs": [
        {
          "internalType": "bool",
          "name": "",
          "type": "bool"
        }
      ],
      "stateMutability": "pure",
      "type": "function"
    },
    {
      "inputs": [
        {
          "internalType": "string",
          "name": "albumName",
          "type": "string"
        },
        {
          "internalType": "string",
          "name": "uri",
          "type": "string"
        },
        {
          "internalType": "uint256[]",
          "name": "_artists",
          "type": "uint256[]"
        }
      ],
      "name": "createAlbum",
      "outputs": [],
      "stateMutability": "nonpayable",
      "type": "function"
    },
    {
      "inputs": [
        {
          "internalType": "string",
          "name": "artistName",
          "type": "string"
        },
        {
          "internalType": "string",
          "name": "uri",
          "type": "string"
        }
      ],
      "name": "createArtist",
      "outputs": [],
      "stateMutability": "nonpayable",
      "type": "function"
    },
    {
      "inputs": [
        {
          "internalType": "address",
          "name": "musicContract",
          "type": "address"
        },
        {
          "internalType": "uint256",
          "name": "tokenId",
          "type": "uint256"
        },
        {
          "internalType": "uint256",
          "name": "albumId",
          "type": "uint256"
        },
        {
          "internalType": "uint256",
          "name": "artistId",
          "type": "uint256"
        },
        {
          "internalType": "uint256",
          "name": "price",
          "type": "uint256"
        }
      ],
      "name": "createSong",
      "outputs": [],
      "stateMutability": "nonpayable",
      "type": "function"
    },
    {
      "inputs": [
        {
          "internalType": "address",
          "name": "musicContract",
          "type": "address"
        },
        {
          "internalType": "uint256",
          "name": "itemId",
          "type": "uint256"
        }
      ],
      "name": "createSongSale",
      "outputs": [],
      "stateMutability": "payable",
      "type": "function"
    },
    {
      "inputs": [
        {
          "internalType": "uint256",
          "name": "limit",
          "type": "uint256"
        }
      ],
      "name": "fetchMyMusicNFTs",
      "outputs": [
        {
          "components": [
            {
              "internalType": "uint256",
              "name": "itemId",
              "type": "uint256"
            },
            {
              "internalType": "uint256",
              "name": "tokenId",
              "type": "uint256"
            },
            {
              "internalType": "address",
              "name": "musicContract",
              "type": "address"
            },
            {
              "internalType": "address payable",
              "name": "owner",
              "type": "address"
            },
            {
              "internalType": "address payable",
              "name": "seller",
              "type": "address"
            },
            {
              "internalType": "uint256",
              "name": "price",
              "type": "uint256"
            },
            {
              "internalType": "uint256",
              "name": "albumId",
              "type": "uint256"
            },
            {
              "internalType": "uint256",
              "name": "trackNumber",
              "type": "uint256"
            },
            {
              "internalType": "uint256",
              "name": "artistId",
              "type": "uint256"
            },
            {
              "internalType": "enum MusicMarket.SongStatus",
              "name": "status",
              "type": "uint8"
            }
          ],
          "internalType": "struct MusicMarket.Song[]",
          "name": "",
          "type": "tuple[]"
        }
      ],
      "stateMutability": "view",
      "type": "function"
    },
    {
      "inputs": [
        {
          "internalType": "uint256",
          "name": "albumId",
          "type": "uint256"
        }
      ],
      "name": "getAlbum",
      "outputs": [
        {
          "components": [
            {
              "internalType": "uint256",
              "name": "id",
              "type": "uint256"
            },
            {
              "internalType": "string",
              "name": "albumName",
              "type": "string"
            },
            {
              "internalType": "uint256",
              "name": "createdAt",
              "type": "uint256"
            },
            {
              "internalType": "enum MusicMarket.AlbumStatus",
              "name": "Status",
              "type": "uint8"
            },
            {
              "internalType": "string",
              "name": "coverUrl",
              "type": "string"
            },
            {
              "internalType": "uint256",
              "name": "mintedSongs",
              "type": "uint256"
            },
            {
              "internalType": "uint256",
              "name": "soldSongs",
              "type": "uint256"
            }
          ],
          "internalType": "struct MusicMarket.Album",
          "name": "_album",
          "type": "tuple"
        },
        {
          "components": [
            {
              "internalType": "uint256",
              "name": "id",
              "type": "uint256"
            },
            {
              "internalType": "string",
              "name": "artistName",
              "type": "string"
            },
            {
              "internalType": "string",
              "name": "url",
              "type": "string"
            }
          ],
          "internalType": "struct MusicMarket.Artist[]",
          "name": "_artists",
          "type": "tuple[]"
        }
      ],
      "stateMutability": "view",
      "type": "function"
    },
    {
      "inputs": [],
      "name": "getAlbums",
      "outputs": [
        {
          "components": [
            {
              "internalType": "uint256",
              "name": "id",
              "type": "uint256"
            },
            {
              "internalType": "string",
              "name": "albumName",
              "type": "string"
            },
            {
              "internalType": "uint256",
              "name": "createdAt",
              "type": "uint256"
            },
            {
              "internalType": "enum MusicMarket.AlbumStatus",
              "name": "Status",
              "type": "uint8"
            },
            {
              "internalType": "string",
              "name": "coverUrl",
              "type": "string"
            },
            {
              "internalType": "uint256",
              "name": "mintedSongs",
              "type": "uint256"
            },
            {
              "internalType": "uint256",
              "name": "soldSongs",
              "type": "uint256"
            }
          ],
          "internalType": "struct MusicMarket.Album[]",
          "name": "data",
          "type": "tuple[]"
        }
      ],
      "stateMutability": "view",
      "type": "function"
    },
    {
      "inputs": [],
      "name": "getArtists",
      "outputs": [
        {
          "components": [
            {
              "internalType": "uint256",
              "name": "id",
              "type": "uint256"
            },
            {
              "internalType": "string",
              "name": "artistName",
              "type": "string"
            },
            {
              "internalType": "string",
              "name": "url",
              "type": "string"
            }
          ],
          "internalType": "struct MusicMarket.Artist[]",
          "name": "data",
          "type": "tuple[]"
        }
      ],
      "stateMutability": "view",
      "type": "function"
    },
    {
      "inputs": [
        {
          "internalType": "uint256",
          "name": "tokenId",
          "type": "uint256"
        }
      ],
      "name": "getItemByTokenId",
      "outputs": [
        {
          "components": [
            {
              "internalType": "uint256",
              "name": "itemId",
              "type": "uint256"
            },
            {
              "internalType": "uint256",
              "name": "tokenId",
              "type": "uint256"
            },
            {
              "internalType": "address",
              "name": "musicContract",
              "type": "address"
            },
            {
              "internalType": "address payable",
              "name": "owner",
              "type": "address"
            },
            {
              "internalType": "address payable",
              "name": "seller",
              "type": "address"
            },
            {
              "internalType": "uint256",
              "name": "price",
              "type": "uint256"
            },
            {
              "internalType": "uint256",
              "name": "albumId",
              "type": "uint256"
            },
            {
              "internalType": "uint256",
              "name": "trackNumber",
              "type": "uint256"
            },
            {
              "internalType": "uint256",
              "name": "artistId",
              "type": "uint256"
            },
            {
              "internalType": "enum MusicMarket.SongStatus",
              "name": "status",
              "type": "uint8"
            }
          ],
          "internalType": "struct MusicMarket.Song",
          "name": "item",
          "type": "tuple"
        }
      ],
      "stateMutability": "view",
      "type": "function"
    },
    {
      "inputs": [
        {
          "internalType": "uint256",
          "name": "limit",
          "type": "uint256"
        }
      ],
      "name": "getLastMinted",
      "outputs": [
        {
          "components": [
            {
              "internalType": "uint256",
              "name": "itemId",
              "type": "uint256"
            },
            {
              "internalType": "uint256",
              "name": "tokenId",
              "type": "uint256"
            },
            {
              "internalType": "address",
              "name": "musicContract",
              "type": "address"
            },
            {
              "internalType": "address payable",
              "name": "owner",
              "type": "address"
            },
            {
              "internalType": "address payable",
              "name": "seller",
              "type": "address"
            },
            {
              "internalType": "uint256",
              "name": "price",
              "type": "uint256"
            },
            {
              "internalType": "uint256",
              "name": "albumId",
              "type": "uint256"
            },
            {
              "internalType": "uint256",
              "name": "trackNumber",
              "type": "uint256"
            },
            {
              "internalType": "uint256",
              "name": "artistId",
              "type": "uint256"
            },
            {
              "internalType": "enum MusicMarket.SongStatus",
              "name": "status",
              "type": "uint8"
            }
          ],
          "internalType": "struct MusicMarket.Song[]",
          "name": "",
          "type": "tuple[]"
        }
      ],
      "stateMutability": "view",
      "type": "function"
    },
    {
      "inputs": [],
      "name": "getListingPrice",
      "outputs": [
        {
          "internalType": "uint256",
          "name": "",
          "type": "uint256"
        }
      ],
      "stateMutability": "view",
      "type": "function"
    },
    {
      "inputs": [
        {
          "internalType": "uint256[]",
          "name": "data",
          "type": "uint256[]"
        }
      ],
      "name": "getMax",
      "outputs": [
        {
          "internalType": "uint256",
          "name": "",
          "type": "uint256"
        }
      ],
      "stateMutability": "pure",
      "type": "function"
    },
    {
      "inputs": [
        {
          "internalType": "uint256",
          "name": "limit",
          "type": "uint256"
        }
      ],
      "name": "getSongs",
      "outputs": [
        {
          "components": [
            {
              "internalType": "uint256",
              "name": "itemId",
              "type": "uint256"
            },
            {
              "internalType": "uint256",
              "name": "tokenId",
              "type": "uint256"
            },
            {
              "internalType": "address",
              "name": "musicContract",
              "type": "address"
            },
            {
              "internalType": "address payable",
              "name": "owner",
              "type": "address"
            },
            {
              "internalType": "address payable",
              "name": "seller",
              "type": "address"
            },
            {
              "internalType": "uint256",
              "name": "price",
              "type": "uint256"
            },
            {
              "internalType": "uint256",
              "name": "albumId",
              "type": "uint256"
            },
            {
              "internalType": "uint256",
              "name": "trackNumber",
              "type": "uint256"
            },
            {
              "internalType": "uint256",
              "name": "artistId",
              "type": "uint256"
            },
            {
              "internalType": "enum MusicMarket.SongStatus",
              "name": "status",
              "type": "uint8"
            }
          ],
          "internalType": "struct MusicMarket.Song[]",
          "name": "",
          "type": "tuple[]"
        }
      ],
      "stateMutability": "view",
      "type": "function"
    },
    {
      "inputs": [
        {
          "internalType": "uint256",
          "name": "",
          "type": "uint256"
        }
      ],
      "name": "itemIdToSong",
      "outputs": [
        {
          "internalType": "uint256",
          "name": "itemId",
          "type": "uint256"
        },
        {
          "internalType": "uint256",
          "name": "tokenId",
          "type": "uint256"
        },
        {
          "internalType": "address",
          "name": "musicContract",
          "type": "address"
        },
        {
          "internalType": "address payable",
          "name": "owner",
          "type": "address"
        },
        {
          "internalType": "address payable",
          "name": "seller",
          "type": "address"
        },
        {
          "internalType": "uint256",
          "name": "price",
          "type": "uint256"
        },
        {
          "internalType": "uint256",
          "name": "albumId",
          "type": "uint256"
        },
        {
          "internalType": "uint256",
          "name": "trackNumber",
          "type": "uint256"
        },
        {
          "internalType": "uint256",
          "name": "artistId",
          "type": "uint256"
        },
        {
          "internalType": "enum MusicMarket.SongStatus",
          "name": "status",
          "type": "uint8"
        }
      ],
      "stateMutability": "view",
      "type": "function"
    },
    {
      "inputs": [
        {
          "internalType": "address",
          "name": "musicContract",
          "type": "address"
        },
        {
          "internalType": "uint256",
          "name": "itemId",
          "type": "uint256"
        },
        {
          "internalType": "uint256",
          "name": "price",
          "type": "uint256"
        }
      ],
      "name": "listItem",
      "outputs": [],
      "stateMutability": "payable",
      "type": "function"
    },
    {
      "inputs": [],
      "name": "owner",
      "outputs": [
        {
          "internalType": "address payable",
          "name": "",
          "type": "address"
        }
      ],
      "stateMutability": "view",
      "type": "function"
    },
    {
      "inputs": [
        {
          "internalType": "uint256",
          "name": "price",
          "type": "uint256"
        }
      ],
      "name": "setListingPrice",
      "outputs": [],
      "stateMutability": "nonpayable",
      "type": "function"
    }
  ],
  "bytecode": "0x60806040526658d15e1762800060075534801561001b57600080fd5b50600160008190555033600660006101000a81548173ffffffffffffffffffffffffffffffffffffffff021916908373ffffffffffffffffffffffffffffffffffffffff160217905550615e5580620000756000396000f3fe60806040526004361061012a5760003560e01c806389bfd38f116100ab578063cd7e10c11161006f578063cd7e10c1146103e0578063d4cd0d451461041f578063d69e63bd1461044a578063d6e465c914610473578063db692710146104b1578063fb0cf2cc146104f75761012a565b806389bfd38f146103035780638da5cb5b1461031f5780639de46d091461034a578063b520fa8f14610366578063ca1314af146103a35761012a565b80635c517234116100f25780635c5172341461020c5780635e4d1cc41461023757806367dfda7814610274578063750bf75e1461029d5780637c726b69146102da5761012a565b806301454e991461012f57806312e855851461016c578063134bf711146101975780631f6035be146101b357806320c6b3b6146101cf575b600080fd5b34801561013b57600080fd5b50610156600480360381019061015191906142f3565b610520565b6040516101639190615109565b60405180910390f35b34801561017857600080fd5b506101816105a2565b60405161018e9190615443565b60405180910390f35b6101b160048036038101906101ac91906141b0565b6105ac565b005b6101cd60048036038101906101c891906141b0565b610854565b005b3480156101db57600080fd5b506101f660048036038101906101f1919061444a565b610dcf565b60405161020391906150e7565b60405180910390f35b34801561021857600080fd5b506102216111c3565b60405161022e91906150a3565b60405180910390f35b34801561024357600080fd5b5061025e6004803603810190610259919061444a565b6114b1565b60405161026b91906150e7565b60405180910390f35b34801561028057600080fd5b5061029b600480360381019061029691906143b3565b611891565b005b3480156102a957600080fd5b506102c460048036038101906102bf919061444a565b611b3b565b6040516102d191906150e7565b60405180910390f35b3480156102e657600080fd5b5061030160048036038101906102fc919061444a565b611f9e565b005b61031d600480360381019061031891906141ec565b6120c8565b005b34801561032b57600080fd5b50610334612366565b6040516103419190614d8b565b60405180910390f35b610364600480360381019061035f91906141b0565b61238c565b005b34801561037257600080fd5b5061038d6004803603810190610388919061444a565b612a6a565b60405161039a9190615427565b60405180910390f35b3480156103af57600080fd5b506103ca60048036038101906103c591906142b2565b612d0a565b6040516103d79190615443565b60405180910390f35b3480156103ec57600080fd5b506104076004803603810190610402919061444a565b612dc6565b6040516104169392919061545e565b60405180910390f35b34801561042b57600080fd5b50610434612f00565b60405161044191906150c5565b60405180910390f35b34801561045657600080fd5b50610471600480360381019061046c919061423b565b613149565b005b34801561047f57600080fd5b5061049a6004803603810190610495919061444a565b613634565b6040516104a89291906153f0565b60405180910390f35b3480156104bd57600080fd5b506104d860048036038101906104d3919061444a565b613b2e565b6040516104ee9a999897969594939291906154a3565b60405180910390f35b34801561050357600080fd5b5061051e60048036038101906105199190614347565b613bef565b005b600080600090505b8351811015610596578284828151811061056b577f4e487b7100000000000000000000000000000000000000000000000000000000600052603260045260246000fd5b6020026020010151141561058357600191505061059c565b808061058e906158de565b915050610528565b50600090505b92915050565b6000600754905090565b600260005414156105f2576040517f08c379a00000000000000000000000000000000000000000000000000000000081526004016105e9906153b0565b60405180910390fd5b600260008190555060006008600083815260200190815260200160002090506000816001015490508160030160009054906101000a900473ffffffffffffffffffffffffffffffffffffffff1673ffffffffffffffffffffffffffffffffffffffff163373ffffffffffffffffffffffffffffffffffffffff16146106ac576040517f08c379a00000000000000000000000000000000000000000000000000000000081526004016106a3906153d0565b60405180910390fd5b600060038111156106e6577f4e487b7100000000000000000000000000000000000000000000000000000000600052602160045260246000fd5b8260090160009054906101000a900460ff166003811115610730577f4e487b7100000000000000000000000000000000000000000000000000000000600052602160045260246000fd5b14610770576040517f08c379a000000000000000000000000000000000000000000000000000000000815260040161076790615270565b60405180910390fd5b60018260090160006101000a81548160ff021916908360038111156107be577f4e487b7100000000000000000000000000000000000000000000000000000000600052602160045260246000fd5b02179055506107cd6005613d9c565b816006015481847fb6a6e5a1d1cba81612d627d3d366515af9bc54786897c5bb629f44b2ca1949bc8733600660009054906101000a900473ffffffffffffffffffffffffffffffffffffffff16886005015489600701548a60080154600060405161083e9796959493929190614e60565b60405180910390a4505060016000819055505050565b6002600054141561089a576040517f08c379a0000000000000000000000000000000000000000000000000000000008152600401610891906153b0565b60405180910390fd5b600260008190555060006108ad82612a6a565b9050600060038111156108e9577f4e487b7100000000000000000000000000000000000000000000000000000000600052602160045260246000fd5b8161012001516003811115610927577f4e487b7100000000000000000000000000000000000000000000000000000000600052602160045260246000fd5b14610967576040517f08c379a000000000000000000000000000000000000000000000000000000000815260040161095e906151f0565b60405180910390fd5b8060a001513410156109ae576040517f08c379a00000000000000000000000000000000000000000000000000000000081526004016109a590615350565b60405180910390fd5b8273ffffffffffffffffffffffffffffffffffffffff166323b872dd826060015133856040518463ffffffff1660e01b81526004016109ef93929190614da6565b600060405180830381600087803b158015610a0957600080fd5b505af1158015610a1d573d6000803e3d6000fd5b50505050600c6000826060015173ffffffffffffffffffffffffffffffffffffffff1673ffffffffffffffffffffffffffffffffffffffff1681526020019081526020016000206000815480929190610a7590615851565b9190505550600c60003373ffffffffffffffffffffffffffffffffffffffff1673ffffffffffffffffffffffffffffffffffffffff1681526020019081526020016000206000815480929190610aca906158de565b9190505550610ad96005613d9c565b806060015173ffffffffffffffffffffffffffffffffffffffff166108fc8260a001519081150290604051600060405180830381858888f19350505050158015610b27573d6000803e3d6000fd5b5060018161012001906003811115610b68577f4e487b7100000000000000000000000000000000000000000000000000000000600052602160045260246000fd5b90816003811115610ba2577f4e487b7100000000000000000000000000000000000000000000000000000000600052602160045260246000fd5b8152505033816060019073ffffffffffffffffffffffffffffffffffffffff16908173ffffffffffffffffffffffffffffffffffffffff1681525050806008600083600001518152602001908152602001600020600082015181600001556020820151816001015560408201518160020160006101000a81548173ffffffffffffffffffffffffffffffffffffffff021916908373ffffffffffffffffffffffffffffffffffffffff16021790555060608201518160030160006101000a81548173ffffffffffffffffffffffffffffffffffffffff021916908373ffffffffffffffffffffffffffffffffffffffff16021790555060808201518160040160006101000a81548173ffffffffffffffffffffffffffffffffffffffff021916908373ffffffffffffffffffffffffffffffffffffffff16021790555060a0820151816005015560c0820151816006015560e0820151816007015561010082015181600801556101208201518160090160006101000a81548160ff02191690836003811115610d5a577f4e487b7100000000000000000000000000000000000000000000000000000000600052602160045260246000fd5b02179055509050508060c001518282600001517fb6a6e5a1d1cba81612d627d3d366515af9bc54786897c5bb629f44b2ca1949bc863386606001518760a001518861010001518960e001516001604051610dba9796959493929190614f66565b60405180910390a45060016000819055505050565b60606000610ddd6001613df8565b90506000610deb6002613df8565b610df56005613df8565b83610e009190615699565b610e0a91906156ef565b9050600080610e198684613e06565b905060008167ffffffffffffffff811115610e5d577f4e487b7100000000000000000000000000000000000000000000000000000000600052604160045260246000fd5b604051908082528060200260200182016040528015610e9657816020015b610e83613e35565b815260200190600190039081610e7b5790505b50905060005b858110156111b55782841415610eb1576111b5565b60006003811115610eeb577f4e487b7100000000000000000000000000000000000000000000000000000000600052602160045260246000fd5b60086000600184610efc9190615699565b815260200190815260200160002060090160009054906101000a900460ff166003811115610f53577f4e487b7100000000000000000000000000000000000000000000000000000000600052602160045260246000fd5b14156111a257600060086000600184610f6c9190615699565b81526020019081526020016000206040518061014001604052908160008201548152602001600182015481526020016002820160009054906101000a900473ffffffffffffffffffffffffffffffffffffffff1673ffffffffffffffffffffffffffffffffffffffff1673ffffffffffffffffffffffffffffffffffffffff1681526020016003820160009054906101000a900473ffffffffffffffffffffffffffffffffffffffff1673ffffffffffffffffffffffffffffffffffffffff1673ffffffffffffffffffffffffffffffffffffffff1681526020016004820160009054906101000a900473ffffffffffffffffffffffffffffffffffffffff1673ffffffffffffffffffffffffffffffffffffffff1673ffffffffffffffffffffffffffffffffffffffff168152602001600582015481526020016006820154815260200160078201548152602001600882015481526020016009820160009054906101000a900460ff16600381111561110f577f4e487b7100000000000000000000000000000000000000000000000000000000600052602160045260246000fd5b6003811115611147577f4e487b7100000000000000000000000000000000000000000000000000000000600052602160045260246000fd5b81525050905080838681518110611187577f4e487b7100000000000000000000000000000000000000000000000000000000600052603260045260246000fd5b6020026020010181905250848061119d906158de565b955050505b80806111ad906158de565b915050610e9c565b508095505050505050919050565b60606111cf6004613df8565b67ffffffffffffffff81111561120e577f4e487b7100000000000000000000000000000000000000000000000000000000600052604160045260246000fd5b60405190808252806020026020018201604052801561124757816020015b611234613f02565b81526020019060019003908161122c5790505b5090506000600190505b815181116114ad57600a60008281526020019081526020016000206040518060e0016040529081600082015481526020016001820180546112919061587b565b80601f01602080910402602001604051908101604052809291908181526020018280546112bd9061587b565b801561130a5780601f106112df5761010080835404028352916020019161130a565b820191906000526020600020905b8154815290600101906020018083116112ed57829003601f168201915b50505050508152602001600282015481526020016003820160009054906101000a900460ff166002811115611368577f4e487b7100000000000000000000000000000000000000000000000000000000600052602160045260246000fd5b60028111156113a0577f4e487b7100000000000000000000000000000000000000000000000000000000600052602160045260246000fd5b81526020016004820180546113b49061587b565b80601f01602080910402602001604051908101604052809291908181526020018280546113e09061587b565b801561142d5780601f106114025761010080835404028352916020019161142d565b820191906000526020600020905b81548152906001019060200180831161141057829003601f168201915b50505050508152602001600582015481526020016006820154815250508260018361145891906156ef565b8151811061148f577f4e487b7100000000000000000000000000000000000000000000000000000000600052603260045260246000fd5b602002602001018190525080806114a5906158de565b915050611251565b5090565b606060006114bf6001613df8565b905060006114cd6002613df8565b6114d76005613df8565b836114e29190615699565b6114ec91906156ef565b90506000806114fb8684613e06565b905060008167ffffffffffffffff81111561153f577f4e487b7100000000000000000000000000000000000000000000000000000000600052604160045260246000fd5b60405190808252806020026020018201604052801561157857816020015b611565613e35565b81526020019060019003908161155d5790505b50905060008590505b6000811115611883578284141561159757611883565b600060038111156115d1577f4e487b7100000000000000000000000000000000000000000000000000000000600052602160045260246000fd5b6008600083815260200190815260200160002060090160009054906101000a900460ff16600381111561162d577f4e487b7100000000000000000000000000000000000000000000000000000000600052602160045260246000fd5b1415611870576000600860008381526020019081526020016000206040518061014001604052908160008201548152602001600182015481526020016002820160009054906101000a900473ffffffffffffffffffffffffffffffffffffffff1673ffffffffffffffffffffffffffffffffffffffff1673ffffffffffffffffffffffffffffffffffffffff1681526020016003820160009054906101000a900473ffffffffffffffffffffffffffffffffffffffff1673ffffffffffffffffffffffffffffffffffffffff1673ffffffffffffffffffffffffffffffffffffffff1681526020016004820160009054906101000a900473ffffffffffffffffffffffffffffffffffffffff1673ffffffffffffffffffffffffffffffffffffffff1673ffffffffffffffffffffffffffffffffffffffff168152602001600582015481526020016006820154815260200160078201548152602001600882015481526020016009820160009054906101000a900460ff1660038111156117dd577f4e487b7100000000000000000000000000000000000000000000000000000000600052602160045260246000fd5b6003811115611815577f4e487b7100000000000000000000000000000000000000000000000000000000600052602160045260246000fd5b81525050905080838681518110611855577f4e487b7100000000000000000000000000000000000000000000000000000000600052603260045260246000fd5b6020026020010181905250848061186b906158de565b955050505b808061187b90615851565b915050611581565b508095505050505050919050565b3373ffffffffffffffffffffffffffffffffffffffff16600660009054906101000a900473ffffffffffffffffffffffffffffffffffffffff1673ffffffffffffffffffffffffffffffffffffffff1614611921576040517f08c379a000000000000000000000000000000000000000000000000000000000815260040161191890615290565b60405180910390fd5b600082511415611966576040517f08c379a000000000000000000000000000000000000000000000000000000000815260040161195d90615390565b60405180910390fd5b60008151141561197557600080fd5b61197f6004613e1f565b600061198b6004613df8565b90506040518060e00160405280828152602001858152602001428152602001600060028111156119e4577f4e487b7100000000000000000000000000000000000000000000000000000000600052602160045260246000fd5b8152602001848152602001600081526020016000815250600a6000838152602001908152602001600020600082015181600001556020820151816001019080519060200190611a34929190613f77565b506040820151816002015560608201518160030160006101000a81548160ff02191690836002811115611a90577f4e487b7100000000000000000000000000000000000000000000000000000000600052602160045260246000fd5b02179055506080820151816004019080519060200190611ab1929190613f77565b5060a0820151816005015560c0820151816006015590505081600b60008381526020019081526020016000209080519060200190611af0929190613ffd565b50807f4ad0e5615b1c242c0e644cb5b2255aa337a06268781317cdc14d09d1a51eb1678542600087600080604051611b2d9695949392919061516e565b60405180910390a250505050565b60606000611b496001613df8565b90506000600c60003373ffffffffffffffffffffffffffffffffffffffff1673ffffffffffffffffffffffffffffffffffffffff168152602001908152602001600020549050600080821415611c1e57600067ffffffffffffffff811115611bda577f4e487b7100000000000000000000000000000000000000000000000000000000600052604160045260246000fd5b604051908082528060200260200182016040528015611c1357816020015b611c00613e35565b815260200190600190039081611bf85790505b509350505050611f99565b6000611c2a8684613e06565b905060008167ffffffffffffffff811115611c6e577f4e487b7100000000000000000000000000000000000000000000000000000000600052604160045260246000fd5b604051908082528060200260200182016040528015611ca757816020015b611c94613e35565b815260200190600190039081611c8c5790505b50905060005b85811015611f8f5782841415611cc257611f8f565b3373ffffffffffffffffffffffffffffffffffffffff1660086000600184611cea9190615699565b815260200190815260200160002060030160009054906101000a900473ffffffffffffffffffffffffffffffffffffffff1673ffffffffffffffffffffffffffffffffffffffff161415611f7c5760086000600183611d499190615699565b81526020019081526020016000206040518061014001604052908160008201548152602001600182015481526020016002820160009054906101000a900473ffffffffffffffffffffffffffffffffffffffff1673ffffffffffffffffffffffffffffffffffffffff1673ffffffffffffffffffffffffffffffffffffffff1681526020016003820160009054906101000a900473ffffffffffffffffffffffffffffffffffffffff1673ffffffffffffffffffffffffffffffffffffffff1673ffffffffffffffffffffffffffffffffffffffff1681526020016004820160009054906101000a900473ffffffffffffffffffffffffffffffffffffffff1673ffffffffffffffffffffffffffffffffffffffff1673ffffffffffffffffffffffffffffffffffffffff168152602001600582015481526020016006820154815260200160078201548152602001600882015481526020016009820160009054906101000a900460ff166003811115611eec577f4e487b7100000000000000000000000000000000000000000000000000000000600052602160045260246000fd5b6003811115611f24577f4e487b7100000000000000000000000000000000000000000000000000000000600052602160045260246000fd5b81525050828581518110611f61577f4e487b7100000000000000000000000000000000000000000000000000000000600052603260045260246000fd5b6020026020010181905250600184611f799190615699565b93505b8080611f87906158de565b915050611cad565b5080955050505050505b919050565b3373ffffffffffffffffffffffffffffffffffffffff16600660009054906101000a900473ffffffffffffffffffffffffffffffffffffffff1673ffffffffffffffffffffffffffffffffffffffff161461202e576040517f08c379a000000000000000000000000000000000000000000000000000000000815260040161202590615290565b60405180910390fd5b3373ffffffffffffffffffffffffffffffffffffffff16600660009054906101000a900473ffffffffffffffffffffffffffffffffffffffff1673ffffffffffffffffffffffffffffffffffffffff16146120be576040517f08c379a00000000000000000000000000000000000000000000000000000000081526004016120b5906152b0565b60405180910390fd5b8060078190555050565b60006008600084815260200190815260200160002090506000816001015490508160030160009054906101000a900473ffffffffffffffffffffffffffffffffffffffff1673ffffffffffffffffffffffffffffffffffffffff163373ffffffffffffffffffffffffffffffffffffffff161461217a576040517f08c379a0000000000000000000000000000000000000000000000000000000008152600401612171906153d0565b60405180910390fd5b600060038111156121b4577f4e487b7100000000000000000000000000000000000000000000000000000000600052602160045260246000fd5b8260090160009054906101000a900460ff1660038111156121fe577f4e487b7100000000000000000000000000000000000000000000000000000000600052602160045260246000fd5b141561223f576040517f08c379a000000000000000000000000000000000000000000000000000000000815260040161223690615330565b60405180910390fd5b600754341015612284576040517f08c379a000000000000000000000000000000000000000000000000000000000815260040161227b90615310565b60405180910390fd5b82826005018190555060008260090160006101000a81548160ff021916908360038111156122db577f4e487b7100000000000000000000000000000000000000000000000000000000600052602160045260246000fd5b02179055506122ea6005613e1f565b816006015481857fb6a6e5a1d1cba81612d627d3d366515af9bc54786897c5bb629f44b2ca1949bc8833600660009054906101000a900473ffffffffffffffffffffffffffffffffffffffff168989600701548a6008015460006040516123579796959493929190614ee3565b60405180910390a45050505050565b600660009054906101000a900473ffffffffffffffffffffffffffffffffffffffff1681565b600260005414156123d2576040517f08c379a00000000000000000000000000000000000000000000000000000000081526004016123c9906153b0565b60405180910390fd5b60026000819055506000600860008381526020019081526020016000206040518061014001604052908160008201548152602001600182015481526020016002820160009054906101000a900473ffffffffffffffffffffffffffffffffffffffff1673ffffffffffffffffffffffffffffffffffffffff1673ffffffffffffffffffffffffffffffffffffffff1681526020016003820160009054906101000a900473ffffffffffffffffffffffffffffffffffffffff1673ffffffffffffffffffffffffffffffffffffffff1673ffffffffffffffffffffffffffffffffffffffff1681526020016004820160009054906101000a900473ffffffffffffffffffffffffffffffffffffffff1673ffffffffffffffffffffffffffffffffffffffff1673ffffffffffffffffffffffffffffffffffffffff168152602001600582015481526020016006820154815260200160078201548152602001600882015481526020016009820160009054906101000a900460ff166003811115612584577f4e487b7100000000000000000000000000000000000000000000000000000000600052602160045260246000fd5b60038111156125bc577f4e487b7100000000000000000000000000000000000000000000000000000000600052602160045260246000fd5b81525050905060008160a00151905060008260200151905081341015612617576040517f08c379a000000000000000000000000000000000000000000000000000000000815260040161260e906152f0565b60405180910390fd5b8473ffffffffffffffffffffffffffffffffffffffff166323b872dd3033846040518463ffffffff1660e01b81526004016126549392919061506c565b600060405180830381600087803b15801561266e57600080fd5b505af1158015612682573d6000803e3d6000fd5b50505050600c60003373ffffffffffffffffffffffffffffffffffffffff1673ffffffffffffffffffffffffffffffffffffffff16815260200190815260200160002060008154809291906126d6906158de565b91905055506001836101200190600381111561271b577f4e487b7100000000000000000000000000000000000000000000000000000000600052602160045260246000fd5b90816003811115612755577f4e487b7100000000000000000000000000000000000000000000000000000000600052602160045260246000fd5b8152505033836060019073ffffffffffffffffffffffffffffffffffffffff16908173ffffffffffffffffffffffffffffffffffffffff168152505061279b6002613e1f565b826080015173ffffffffffffffffffffffffffffffffffffffff166108fc839081150290604051600060405180830381858888f193505050501580156127e5573d6000803e3d6000fd5b508260086000868152602001908152602001600020600082015181600001556020820151816001015560408201518160020160006101000a81548173ffffffffffffffffffffffffffffffffffffffff021916908373ffffffffffffffffffffffffffffffffffffffff16021790555060608201518160030160006101000a81548173ffffffffffffffffffffffffffffffffffffffff021916908373ffffffffffffffffffffffffffffffffffffffff16021790555060808201518160040160006101000a81548173ffffffffffffffffffffffffffffffffffffffff021916908373ffffffffffffffffffffffffffffffffffffffff16021790555060a0820151816005015560c0820151816006015560e0820151816007015561010082015181600801556101208201518160090160006101000a81548160ff0219169083600381111561295e577f4e487b7100000000000000000000000000000000000000000000000000000000600052602160045260246000fd5b0217905550905050600860008581526020019081526020016000206006015481857fb6a6e5a1d1cba81612d627d3d366515af9bc54786897c5bb629f44b2ca1949bc88600860008a815260200190815260200160002060030160009054906101000a900473ffffffffffffffffffffffffffffffffffffffff16600860008b815260200190815260200160002060040160009054906101000a900473ffffffffffffffffffffffffffffffffffffffff1688600860008d815260200190815260200160002060070154600860008e8152602001908152602001600020600801546001604051612a539796959493929190614ddd565b60405180910390a450505060016000819055505050565b612a72613e35565b6000612a7e6001613df8565b905060005b81811015612cc1578360086000600184612a9d9190615699565b8152602001908152602001600020600101541415612cae5760086000600183612ac69190615699565b81526020019081526020016000206040518061014001604052908160008201548152602001600182015481526020016002820160009054906101000a900473ffffffffffffffffffffffffffffffffffffffff1673ffffffffffffffffffffffffffffffffffffffff1673ffffffffffffffffffffffffffffffffffffffff1681526020016003820160009054906101000a900473ffffffffffffffffffffffffffffffffffffffff1673ffffffffffffffffffffffffffffffffffffffff1673ffffffffffffffffffffffffffffffffffffffff1681526020016004820160009054906101000a900473ffffffffffffffffffffffffffffffffffffffff1673ffffffffffffffffffffffffffffffffffffffff1673ffffffffffffffffffffffffffffffffffffffff168152602001600582015481526020016006820154815260200160078201548152602001600882015481526020016009820160009054906101000a900460ff166003811115612c69577f4e487b7100000000000000000000000000000000000000000000000000000000600052602160045260246000fd5b6003811115612ca1577f4e487b7100000000000000000000000000000000000000000000000000000000600052602160045260246000fd5b8152505092505050612d05565b8080612cb9906158de565b915050612a83565b506000612d03576040517f08c379a0000000000000000000000000000000000000000000000000000000008152600401612cfa90615370565b60405180910390fd5b505b919050565b6000806000905060005b8351811015612dbc5781848281518110612d57577f4e487b7100000000000000000000000000000000000000000000000000000000600052603260045260246000fd5b60200260200101511115612da957838181518110612d9e577f4e487b7100000000000000000000000000000000000000000000000000000000600052603260045260246000fd5b602002602001015191505b8080612db4906158de565b915050612d14565b5080915050919050565b6009602052806000526040600020600091509050806000015490806001018054612def9061587b565b80601f0160208091040260200160405190810160405280929190818152602001828054612e1b9061587b565b8015612e685780601f10612e3d57610100808354040283529160200191612e68565b820191906000526020600020905b815481529060010190602001808311612e4b57829003601f168201915b505050505090806002018054612e7d9061587b565b80601f0160208091040260200160405190810160405280929190818152602001828054612ea99061587b565b8015612ef65780601f10612ecb57610100808354040283529160200191612ef6565b820191906000526020600020905b815481529060010190602001808311612ed957829003601f168201915b5050505050905083565b6060612f0c6003613df8565b67ffffffffffffffff811115612f4b577f4e487b7100000000000000000000000000000000000000000000000000000000600052604160045260246000fd5b604051908082528060200260200182016040528015612f8457816020015b612f7161404a565b815260200190600190039081612f695790505b5090506000600190505b81518111613145576009600082815260200190815260200160002060405180606001604052908160008201548152602001600182018054612fce9061587b565b80601f0160208091040260200160405190810160405280929190818152602001828054612ffa9061587b565b80156130475780601f1061301c57610100808354040283529160200191613047565b820191906000526020600020905b81548152906001019060200180831161302a57829003601f168201915b505050505081526020016002820180546130609061587b565b80601f016020809104026020016040519081016040528092919081815260200182805461308c9061587b565b80156130d95780601f106130ae576101008083540402835291602001916130d9565b820191906000526020600020905b8154815290600101906020018083116130bc57829003601f168201915b505050505081525050826001836130f091906156ef565b81518110613127577f4e487b7100000000000000000000000000000000000000000000000000000000600052603260045260246000fd5b6020026020010181905250808061313d906158de565b915050612f8e565b5090565b3373ffffffffffffffffffffffffffffffffffffffff16600660009054906101000a900473ffffffffffffffffffffffffffffffffffffffff1673ffffffffffffffffffffffffffffffffffffffff16146131d9576040517f08c379a00000000000000000000000000000000000000000000000000000000081526004016131d090615290565b60405180910390fd5b6002600054141561321f576040517f08c379a0000000000000000000000000000000000000000000000000000000008152600401613216906153b0565b60405180910390fd5b60026000819055506000811161323457600080fd5b61323e6001613df8565b841015613280576040517f08c379a000000000000000000000000000000000000000000000000000000000815260040161327790615230565b60405180910390fd5b61328a6004613df8565b8311156132cc576040517f08c379a00000000000000000000000000000000000000000000000000000000081526004016132c390615210565b60405180910390fd5b6132d66001613e1f565b60006132e26001613df8565b90506000600a600086815260200190815260200160002090506040518061014001604052808381526020018781526020018873ffffffffffffffffffffffffffffffffffffffff168152602001600073ffffffffffffffffffffffffffffffffffffffff1681526020013373ffffffffffffffffffffffffffffffffffffffff168152602001848152602001868152602001600183600501546133859190615699565b8152602001858152602001600060038111156133ca577f4e487b7100000000000000000000000000000000000000000000000000000000600052602160045260246000fd5b81525060086000848152602001908152602001600020600082015181600001556020820151816001015560408201518160020160006101000a81548173ffffffffffffffffffffffffffffffffffffffff021916908373ffffffffffffffffffffffffffffffffffffffff16021790555060608201518160030160006101000a81548173ffffffffffffffffffffffffffffffffffffffff021916908373ffffffffffffffffffffffffffffffffffffffff16021790555060808201518160040160006101000a81548173ffffffffffffffffffffffffffffffffffffffff021916908373ffffffffffffffffffffffffffffffffffffffff16021790555060a0820151816005015560c0820151816006015560e0820151816007015561010082015181600801556101208201518160090160006101000a81548160ff02191690836003811115613544577f4e487b7100000000000000000000000000000000000000000000000000000000600052602160045260246000fd5b021790555090505060018160050160008282546135619190615699565b925050819055508673ffffffffffffffffffffffffffffffffffffffff166323b872dd3330896040518463ffffffff1660e01b81526004016135a59392919061506c565b600060405180830381600087803b1580156135bf57600080fd5b505af11580156135d3573d6000803e3d6000fd5b505050508486837fb6a6e5a1d1cba81612d627d3d366515af9bc54786897c5bb629f44b2ca1949bc8a600033898b8960050154600060405161361b9796959493929190614fe9565b60405180910390a4505060016000819055505050505050565b61363c613f02565b6060826136496004613df8565b101561368a576040517f08c379a0000000000000000000000000000000000000000000000000000000008152600401613681906152d0565b60405180910390fd5b600a60008481526020019081526020016000206040518060e0016040529081600082015481526020016001820180546136c29061587b565b80601f01602080910402602001604051908101604052809291908181526020018280546136ee9061587b565b801561373b5780601f106137105761010080835404028352916020019161373b565b820191906000526020600020905b81548152906001019060200180831161371e57829003601f168201915b50505050508152602001600282015481526020016003820160009054906101000a900460ff166002811115613799577f4e487b7100000000000000000000000000000000000000000000000000000000600052602160045260246000fd5b60028111156137d1577f4e487b7100000000000000000000000000000000000000000000000000000000600052602160045260246000fd5b81526020016004820180546137e59061587b565b80601f01602080910402602001604051908101604052809291908181526020018280546138119061587b565b801561385e5780601f106138335761010080835404028352916020019161385e565b820191906000526020600020905b81548152906001019060200180831161384157829003601f168201915b50505050508152602001600582015481526020016006820154815250509150600b60008481526020019081526020016000208054905067ffffffffffffffff8111156138d3577f4e487b7100000000000000000000000000000000000000000000000000000000600052604160045260246000fd5b60405190808252806020026020018201604052801561390c57816020015b6138f961404a565b8152602001906001900390816138f15790505b50905060005b600b600085815260200190815260200160002080549050811015613b285760096000600b6000878152602001908152602001600020838154811061397f577f4e487b7100000000000000000000000000000000000000000000000000000000600052603260045260246000fd5b90600052602060002001548152602001908152602001600020604051806060016040529081600082015481526020016001820180546139bd9061587b565b80601f01602080910402602001604051908101604052809291908181526020018280546139e99061587b565b8015613a365780601f10613a0b57610100808354040283529160200191613a36565b820191906000526020600020905b815481529060010190602001808311613a1957829003601f168201915b50505050508152602001600282018054613a4f9061587b565b80601f0160208091040260200160405190810160405280929190818152602001828054613a7b9061587b565b8015613ac85780601f10613a9d57610100808354040283529160200191613ac8565b820191906000526020600020905b815481529060010190602001808311613aab57829003601f168201915b505050505081525050828281518110613b0a577f4e487b7100000000000000000000000000000000000000000000000000000000600052603260045260246000fd5b60200260200101819052508080613b20906158de565b915050613912565b50915091565b60086020528060005260406000206000915090508060000154908060010154908060020160009054906101000a900473ffffffffffffffffffffffffffffffffffffffff16908060030160009054906101000a900473ffffffffffffffffffffffffffffffffffffffff16908060040160009054906101000a900473ffffffffffffffffffffffffffffffffffffffff16908060050154908060060154908060070154908060080154908060090160009054906101000a900460ff1690508a565b3373ffffffffffffffffffffffffffffffffffffffff16600660009054906101000a900473ffffffffffffffffffffffffffffffffffffffff1673ffffffffffffffffffffffffffffffffffffffff1614613c7f576040517f08c379a0000000000000000000000000000000000000000000000000000000008152600401613c7690615290565b60405180910390fd5b600081511415613cc4576040517f08c379a0000000000000000000000000000000000000000000000000000000008152600401613cbb90615390565b60405180910390fd5b613cce6003613e1f565b6040518060600160405280613ce36003613df8565b81526020018381526020018281525060096000613d006003613df8565b8152602001908152602001600020600082015181600001556020820151816001019080519060200190613d34929190613f77565b506040820151816002019080519060200190613d51929190613f77565b50905050613d5f6003613df8565b7f3a1a6624730a36ec5bce3c780f724d278f1b8bb76d4cd5f34abcaf9087aaab1f8383604051613d90929190615124565b60405180910390a25050565b60008160000154905060008111613de8576040517f08c379a0000000000000000000000000000000000000000000000000000000008152600401613ddf90615250565b60405180910390fd5b6001810382600001819055505050565b600081600001549050919050565b6000818310613e155781613e17565b825b905092915050565b6001816000016000828254019250508190555050565b6040518061014001604052806000815260200160008152602001600073ffffffffffffffffffffffffffffffffffffffff168152602001600073ffffffffffffffffffffffffffffffffffffffff168152602001600073ffffffffffffffffffffffffffffffffffffffff1681526020016000815260200160008152602001600081526020016000815260200160006003811115613efc577f4e487b7100000000000000000000000000000000000000000000000000000000600052602160045260246000fd5b81525090565b6040518060e0016040528060008152602001606081526020016000815260200160006002811115613f5c577f4e487b7100000000000000000000000000000000000000000000000000000000600052602160045260246000fd5b81526020016060815260200160008152602001600081525090565b828054613f839061587b565b90600052602060002090601f016020900481019282613fa55760008555613fec565b82601f10613fbe57805160ff1916838001178555613fec565b82800160010185558215613fec579182015b82811115613feb578251825591602001919060010190613fd0565b5b509050613ff9919061406b565b5090565b828054828255906000526020600020908101928215614039579160200282015b8281111561403857825182559160200191906001019061401d565b5b509050614046919061406b565b5090565b60405180606001604052806000815260200160608152602001606081525090565b5b8082111561408457600081600090555060010161406c565b5090565b600061409b61409684615564565b61553f565b905080838252602082019050828560208602820111156140ba57600080fd5b60005b858110156140ea57816140d0888261419b565b8452602084019350602083019250506001810190506140bd565b5050509392505050565b600061410761410284615590565b61553f565b90508281526020810184848401111561411f57600080fd5b61412a84828561580f565b509392505050565b60008135905061414181615df1565b92915050565b600082601f83011261415857600080fd5b8135614168848260208601614088565b91505092915050565b600082601f83011261418257600080fd5b81356141928482602086016140f4565b91505092915050565b6000813590506141aa81615e08565b92915050565b600080604083850312156141c357600080fd5b60006141d185828601614132565b92505060206141e28582860161419b565b9150509250929050565b60008060006060848603121561420157600080fd5b600061420f86828701614132565b93505060206142208682870161419b565b92505060406142318682870161419b565b9150509250925092565b600080600080600060a0868803121561425357600080fd5b600061426188828901614132565b95505060206142728882890161419b565b94505060406142838882890161419b565b93505060606142948882890161419b565b92505060806142a58882890161419b565b9150509295509295909350565b6000602082840312156142c457600080fd5b600082013567ffffffffffffffff8111156142de57600080fd5b6142ea84828501614147565b91505092915050565b6000806040838503121561430657600080fd5b600083013567ffffffffffffffff81111561432057600080fd5b61432c85828601614147565b925050602061433d8582860161419b565b9150509250929050565b6000806040838503121561435a57600080fd5b600083013567ffffffffffffffff81111561437457600080fd5b61438085828601614171565b925050602083013567ffffffffffffffff81111561439d57600080fd5b6143a985828601614171565b9150509250929050565b6000806000606084860312156143c857600080fd5b600084013567ffffffffffffffff8111156143e257600080fd5b6143ee86828701614171565b935050602084013567ffffffffffffffff81111561440b57600080fd5b61441786828701614171565b925050604084013567ffffffffffffffff81111561443457600080fd5b61444086828701614147565b9150509250925092565b60006020828403121561445c57600080fd5b600061446a8482850161419b565b91505092915050565b600061447f8383614a38565b905092915050565b60006144938383614b7e565b905092915050565b60006144a78383614bd5565b6101408301905092915050565b6144bd816157a3565b82525050565b6144cc81615735565b82525050565b6144db81615735565b82525050565b6144ea81615723565b82525050565b6144f981615723565b82525050565b600061450a826155f1565b6145148185615644565b935083602082028501614526856155c1565b8060005b8581101561456257848403895281516145438582614473565b945061454e8361561d565b925060208a0199505060018101905061452a565b50829750879550505050505092915050565b600061457f826155fc565b6145898185615655565b93508360208202850161459b856155d1565b8060005b858110156145d757848403895281516145b88582614487565b94506145c38361562a565b925060208a0199505060018101905061459f565b50829750879550505050505092915050565b60006145f482615607565b6145fe8185615666565b9350614609836155e1565b8060005b8381101561463a578151614621888261449b565b975061462c83615637565b92505060018101905061460d565b5085935050505092915050565b61465081615747565b82525050565b61465f816157b5565b82525050565b61466e816157b5565b82525050565b61467d816157c7565b82525050565b61468c816157c7565b82525050565b61469b816157d9565b82525050565b60006146ac82615612565b6146b68185615677565b93506146c681856020860161581e565b6146cf816159e3565b840191505092915050565b60006146e582615612565b6146ef8185615688565b93506146ff81856020860161581e565b614708816159e3565b840191505092915050565b6000614720602583615688565b915061472b826159f4565b604082019050919050565b6000614743600f83615688565b915061474e82615a43565b602082019050919050565b6000614766600f83615688565b915061477182615a6c565b602082019050919050565b6000614789600f83615688565b915061479482615a95565b602082019050919050565b60006147ac601b83615688565b91506147b782615abe565b602082019050919050565b60006147cf601083615688565b91506147da82615ae7565b602082019050919050565b60006147f2601883615688565b91506147fd82615b10565b602082019050919050565b6000614815600983615688565b915061482082615b39565b602082019050919050565b6000614838600d83615688565b915061484382615b62565b602082019050919050565b600061485b601083615688565b915061486682615b8b565b602082019050919050565b600061487e602083615688565b915061488982615bb4565b602082019050919050565b60006148a1600e83615688565b91506148ac82615bdd565b602082019050919050565b60006148c4600d83615688565b91506148cf82615c06565b602082019050919050565b60006148e7601483615688565b91506148f282615c2f565b602082019050919050565b600061490a601083615688565b915061491582615c58565b602082019050919050565b600061492d600e83615688565b915061493882615c81565b602082019050919050565b6000614950601183615688565b915061495b82615caa565b602082019050919050565b6000614973600d83615688565b915061497e82615cd3565b602082019050919050565b6000614996600b83615688565b91506149a182615cfc565b602082019050919050565b60006149b9600e83615688565b91506149c482615d25565b602082019050919050565b60006149dc601f83615688565b91506149e782615d4e565b602082019050919050565b60006149ff600983615688565b9150614a0a82615d77565b602082019050919050565b6000614a22600d83615688565b9150614a2d82615da0565b602082019050919050565b600060e083016000830151614a506000860182614d6d565b5060208301518482036020860152614a6882826146a1565b9150506040830151614a7d6040860182614d6d565b506060830151614a906060860182614656565b5060808301518482036080860152614aa882826146a1565b91505060a0830151614abd60a0860182614d6d565b5060c0830151614ad060c0860182614d6d565b508091505092915050565b600060e083016000830151614af36000860182614d6d565b5060208301518482036020860152614b0b82826146a1565b9150506040830151614b206040860182614d6d565b506060830151614b336060860182614656565b5060808301518482036080860152614b4b82826146a1565b91505060a0830151614b6060a0860182614d6d565b5060c0830151614b7360c0860182614d6d565b508091505092915050565b6000606083016000830151614b966000860182614d6d565b5060208301518482036020860152614bae82826146a1565b91505060408301518482036040860152614bc882826146a1565b9150508091505092915050565b61014082016000820151614bec6000850182614d6d565b506020820151614bff6020850182614d6d565b506040820151614c1260408501826144e1565b506060820151614c2560608501826144c3565b506080820151614c3860808501826144c3565b5060a0820151614c4b60a0850182614d6d565b5060c0820151614c5e60c0850182614d6d565b5060e0820151614c7160e0850182614d6d565b50610100820151614c86610100850182614d6d565b50610120820151614c9b610120850182614674565b50505050565b61014082016000820151614cb86000850182614d6d565b506020820151614ccb6020850182614d6d565b506040820151614cde60408501826144e1565b506060820151614cf160608501826144c3565b506080820151614d0460808501826144c3565b5060a0820151614d1760a0850182614d6d565b5060c0820151614d2a60c0850182614d6d565b5060e0820151614d3d60e0850182614d6d565b50610100820151614d52610100850182614d6d565b50610120820151614d67610120850182614674565b50505050565b614d7681615799565b82525050565b614d8581615799565b82525050565b6000602082019050614da060008301846144d2565b92915050565b6000606082019050614dbb60008301866144b4565b614dc860208301856144f0565b614dd56040830184614d7c565b949350505050565b600061010082019050614df3600083018a6144f0565b614e0060208301896144b4565b614e0d60408301886144b4565b614e1a6060830187614d7c565b614e276080830186614d7c565b614e3460a0830185614d7c565b614e4160c0830184614683565b81810360e0830152614e52816148da565b905098975050505050505050565b600061010082019050614e76600083018a6144f0565b614e8360208301896144f0565b614e9060408301886144b4565b614e9d6060830187614d7c565b614eaa6080830186614d7c565b614eb760a0830185614d7c565b614ec460c0830184614683565b81810360e0830152614ed581614736565b905098975050505050505050565b600061010082019050614ef9600083018a6144f0565b614f0660208301896144f0565b614f1360408301886144b4565b614f206060830187614d7c565b614f2d6080830186614d7c565b614f3a60a0830185614d7c565b614f4760c0830184614683565b81810360e0830152614f588161482b565b905098975050505050505050565b600061010082019050614f7c600083018a6144f0565b614f8960208301896144f0565b614f9660408301886144b4565b614fa36060830187614d7c565b614fb06080830186614d7c565b614fbd60a0830185614d7c565b614fca60c0830184614683565b81810360e0830152614fdb81614a15565b905098975050505050505050565b600061010082019050614fff600083018a6144f0565b61500c60208301896144f0565b61501960408301886144f0565b6150266060830187614d7c565b6150336080830186614d7c565b61504060a0830185614d7c565b61504d60c0830184614683565b81810360e083015261505e816148fd565b905098975050505050505050565b600060608201905061508160008301866144f0565b61508e60208301856144f0565b61509b6040830184614d7c565b949350505050565b600060208201905081810360008301526150bd81846144ff565b905092915050565b600060208201905081810360008301526150df8184614574565b905092915050565b6000602082019050818103600083015261510181846145e9565b905092915050565b600060208201905061511e6000830184614647565b92915050565b6000606082019050818103600083015261513e81856146da565b9050818103602083015261515281846146da565b90508181036040830152615165816149ac565b90509392505050565b600060e082019050818103600083015261518881896146da565b90506151976020830188614d7c565b6151a46040830187614665565b81810360608301526151b681866146da565b90506151c56080830185614692565b6151d260a0830184614692565b81810360c08301526151e3816148b7565b9050979650505050505050565b6000602082019050818103600083015261520981614713565b9050919050565b6000602082019050818103600083015261522981614759565b9050919050565b600060208201905081810360008301526152498161477c565b9050919050565b600060208201905081810360008301526152698161479f565b9050919050565b60006020820190508181036000830152615289816147c2565b9050919050565b600060208201905081810360008301526152a9816147e5565b9050919050565b600060208201905081810360008301526152c981614808565b9050919050565b600060208201905081810360008301526152e98161484e565b9050919050565b6000602082019050818103600083015261530981614871565b9050919050565b6000602082019050818103600083015261532981614894565b9050919050565b6000602082019050818103600083015261534981614920565b9050919050565b6000602082019050818103600083015261536981614943565b9050919050565b6000602082019050818103600083015261538981614966565b9050919050565b600060208201905081810360008301526153a981614989565b9050919050565b600060208201905081810360008301526153c9816149cf565b9050919050565b600060208201905081810360008301526153e9816149f2565b9050919050565b6000604082019050818103600083015261540a8185614adb565b9050818103602083015261541e8184614574565b90509392505050565b60006101408201905061543d6000830184614ca1565b92915050565b60006020820190506154586000830184614d7c565b92915050565b60006060820190506154736000830186614d7c565b818103602083015261548581856146da565b9050818103604083015261549981846146da565b9050949350505050565b6000610140820190506154b9600083018d614d7c565b6154c6602083018c614d7c565b6154d3604083018b6144f0565b6154e0606083018a6144d2565b6154ed60808301896144d2565b6154fa60a0830188614d7c565b61550760c0830187614d7c565b61551460e0830186614d7c565b615522610100830185614d7c565b615530610120830184614683565b9b9a5050505050505050505050565b600061554961555a565b905061555582826158ad565b919050565b6000604051905090565b600067ffffffffffffffff82111561557f5761557e6159b4565b5b602082029050602081019050919050565b600067ffffffffffffffff8211156155ab576155aa6159b4565b5b6155b4826159e3565b9050602081019050919050565b6000819050602082019050919050565b6000819050602082019050919050565b6000819050602082019050919050565b600081519050919050565b600081519050919050565b600081519050919050565b600081519050919050565b6000602082019050919050565b6000602082019050919050565b6000602082019050919050565b600082825260208201905092915050565b600082825260208201905092915050565b600082825260208201905092915050565b600082825260208201905092915050565b600082825260208201905092915050565b60006156a482615799565b91506156af83615799565b9250827fffffffffffffffffffffffffffffffffffffffffffffffffffffffffffffffff038211156156e4576156e3615927565b5b828201905092915050565b60006156fa82615799565b915061570583615799565b92508282101561571857615717615927565b5b828203905092915050565b600061572e82615779565b9050919050565b600061574082615779565b9050919050565b60008115159050919050565b600081905061576182615dc9565b919050565b600081905061577482615ddd565b919050565b600073ffffffffffffffffffffffffffffffffffffffff82169050919050565b6000819050919050565b60006157ae826157eb565b9050919050565b60006157c082615753565b9050919050565b60006157d282615766565b9050919050565b60006157e482615799565b9050919050565b60006157f6826157fd565b9050919050565b600061580882615779565b9050919050565b82818337600083830152505050565b60005b8381101561583c578082015181840152602081019050615821565b8381111561584b576000848401525b50505050565b600061585c82615799565b915060008214156158705761586f615927565b5b600182039050919050565b6000600282049050600182168061589357607f821691505b602082108114156158a7576158a6615985565b5b50919050565b6158b6826159e3565b810181811067ffffffffffffffff821117156158d5576158d46159b4565b5b80604052505050565b60006158e982615799565b91507fffffffffffffffffffffffffffffffffffffffffffffffffffffffffffffffff82141561591c5761591b615927565b5b600182019050919050565b7f4e487b7100000000000000000000000000000000000000000000000000000000600052601160045260246000fd5b7f4e487b7100000000000000000000000000000000000000000000000000000000600052602160045260246000fd5b7f4e487b7100000000000000000000000000000000000000000000000000000000600052602260045260246000fd5b7f4e487b7100000000000000000000000000000000000000000000000000000000600052604160045260246000fd5b6000601f19601f8301169050919050565b7f4974656d7320546861742061696e74204c69737465642063616e74206265205360008201527f6f6c646564000000000000000000000000000000000000000000000000000000602082015250565b7f756e4c697374204d757369634e46540000000000000000000000000000000000600082015250565b7f496e76616c696420416c62756d49640000000000000000000000000000000000600082015250565b7f696e76616c696420546f6b656e49640000000000000000000000000000000000600082015250565b7f436f756e7465723a2064656372656d656e74206f766572666c6f770000000000600082015250565b7f616c726561647920756e4c697374656400000000000000000000000000000000600082015250565b7f43616c6c6572206d75737420626520746865206f776e65720000000000000000600082015250565b7f4e6f74204f776e65720000000000000000000000000000000000000000000000600082015250565b7f4c697374204d757369634e465400000000000000000000000000000000000000600082015250565b7f496e76616c696420546f6b656e20494400000000000000000000000000000000600082015250565b7f6b696e646c79207472616e7366657220746865206c6973746564207072696365600082015250565b7f496e737566666963656e74204c50000000000000000000000000000000000000600082015250565b7f4372656174656420416c62756d00000000000000000000000000000000000000600082015250565b7f5472616e73666572726564204d757369634e4654000000000000000000000000600082015250565b7f43726561746564204d757369634e465400000000000000000000000000000000600082015250565b7f616c7265616479204c6973746564000000000000000000000000000000000000600082015250565b7f496e737566666963656e742066756e6473000000000000000000000000000000600082015250565b7f496e76616c696420546f6b656e00000000000000000000000000000000000000600082015250565b7f496e76616c696420555249000000000000000000000000000000000000000000600082015250565b7f4172746973742043726561746564000000000000000000000000000000000000600082015250565b7f5265656e7472616e637947756172643a207265656e7472616e742063616c6c00600082015250565b7f6e6f74206f776e65720000000000000000000000000000000000000000000000600082015250565b7f536f6c64204d757369634e465400000000000000000000000000000000000000600082015250565b60038110615dda57615dd9615956565b5b50565b60048110615dee57615ded615956565b5b50565b615dfa81615723565b8114615e0557600080fd5b50565b615e1181615799565b8114615e1c57600080fd5b5056fea26469706673582212200cfaeaa15296bdf585ca290a9fb1c3da004be09377b2277085667c119e24293864736f6c63430008040033",
  "linkReferences": {},
  "deployedLinkReferences": {}
}