{
  "_format": "hh-sol-artifact-1",
  "contractName": "MusicMarket",
  "sourceName": "contracts/MusicMarket.sol",
  "abi": [
    {
      "inputs": [],
      "stateMutability": "nonpayable",
      "type": "constructor"
    },
    {
      "anonymous": false,
      "inputs": [
        {
          "indexed": true,
          "internalType": "uint256",
          "name": "itemId",
          "type": "uint256"
        },
        {
          "indexed": true,
          "internalType": "uint256",
          "name": "tokenId",
          "type": "uint256"
        },
        {
          "indexed": true,
          "internalType": "address",
          "name": "nftContract",
          "type": "address"
        },
        {
          "indexed": false,
          "internalType": "address",
          "name": "owner",
          "type": "address"
        },
        {
          "indexed": false,
          "internalType": "address",
          "name": "seller",
          "type": "address"
        },
        {
          "indexed": false,
          "internalType": "uint256",
          "name": "price",
          "type": "uint256"
        },
        {
          "indexed": false,
          "internalType": "enum MusicMarket.SongStatus",
          "name": "status",
          "type": "uint8"
        },
        {
          "indexed": false,
          "internalType": "string",
          "name": "message",
          "type": "string"
        }
      ],
      "name": "SongEvent",
      "type": "event"
    },
    {
      "inputs": [
        {
          "internalType": "uint256",
          "name": "",
          "type": "uint256"
        }
      ],
      "name": "Artists",
      "outputs": [
        {
          "internalType": "string",
          "name": "artistName",
          "type": "string"
        },
        {
          "internalType": "uint256",
          "name": "createdAt",
          "type": "uint256"
        },
        {
          "internalType": "enum MusicMarket.ArtistStatus",
          "name": "Status",
          "type": "uint8"
        },
        {
          "internalType": "string",
          "name": "url",
          "type": "string"
        }
      ],
      "stateMutability": "view",
      "type": "function"
    },
    {
      "inputs": [
        {
          "internalType": "address",
          "name": "nftContract",
          "type": "address"
        },
        {
          "internalType": "uint256",
          "name": "tokenId",
          "type": "uint256"
        }
      ],
      "name": "BuySong",
      "outputs": [
        {
          "components": [
            {
              "internalType": "uint256",
              "name": "itemId",
              "type": "uint256"
            },
            {
              "internalType": "uint256",
              "name": "tokenId",
              "type": "uint256"
            },
            {
              "internalType": "address",
              "name": "nftContract",
              "type": "address"
            },
            {
              "internalType": "address payable",
              "name": "owner",
              "type": "address"
            },
            {
              "internalType": "address payable",
              "name": "seller",
              "type": "address"
            },
            {
              "internalType": "uint256",
              "name": "price",
              "type": "uint256"
            },
            {
              "internalType": "enum MusicMarket.SongStatus",
              "name": "status",
              "type": "uint8"
            }
          ],
          "internalType": "struct MusicMarket.Song",
          "name": "",
          "type": "tuple"
        }
      ],
      "stateMutability": "payable",
      "type": "function"
    },
    {
      "inputs": [
        {
          "internalType": "address",
          "name": "nftContract",
          "type": "address"
        },
        {
          "internalType": "uint256",
          "name": "tokenId",
          "type": "uint256"
        },
        {
          "internalType": "uint256",
          "name": "price",
          "type": "uint256"
        }
      ],
      "name": "createSong",
      "outputs": [],
      "stateMutability": "payable",
      "type": "function"
    },
    {
      "inputs": [
        {
          "internalType": "address",
          "name": "nftContract",
          "type": "address"
        },
        {
          "internalType": "uint256",
          "name": "itemId",
          "type": "uint256"
        }
      ],
      "name": "createSongSale",
      "outputs": [
        {
          "components": [
            {
              "internalType": "uint256",
              "name": "itemId",
              "type": "uint256"
            },
            {
              "internalType": "uint256",
              "name": "tokenId",
              "type": "uint256"
            },
            {
              "internalType": "address",
              "name": "nftContract",
              "type": "address"
            },
            {
              "internalType": "address payable",
              "name": "owner",
              "type": "address"
            },
            {
              "internalType": "address payable",
              "name": "seller",
              "type": "address"
            },
            {
              "internalType": "uint256",
              "name": "price",
              "type": "uint256"
            },
            {
              "internalType": "enum MusicMarket.SongStatus",
              "name": "status",
              "type": "uint8"
            }
          ],
          "internalType": "struct MusicMarket.Song",
          "name": "",
          "type": "tuple"
        }
      ],
      "stateMutability": "payable",
      "type": "function"
    },
    {
      "inputs": [
        {
          "internalType": "uint256",
          "name": "limit",
          "type": "uint256"
        }
      ],
      "name": "fetchMyNfts",
      "outputs": [
        {
          "components": [
            {
              "internalType": "uint256",
              "name": "itemId",
              "type": "uint256"
            },
            {
              "internalType": "uint256",
              "name": "tokenId",
              "type": "uint256"
            },
            {
              "internalType": "address",
              "name": "nftContract",
              "type": "address"
            },
            {
              "internalType": "address payable",
              "name": "owner",
              "type": "address"
            },
            {
              "internalType": "address payable",
              "name": "seller",
              "type": "address"
            },
            {
              "internalType": "uint256",
              "name": "price",
              "type": "uint256"
            },
            {
              "internalType": "enum MusicMarket.SongStatus",
              "name": "status",
              "type": "uint8"
            }
          ],
          "internalType": "struct MusicMarket.Song[]",
          "name": "",
          "type": "tuple[]"
        }
      ],
      "stateMutability": "view",
      "type": "function"
    },
    {
      "inputs": [
        {
          "internalType": "uint256",
          "name": "limit",
          "type": "uint256"
        }
      ],
      "name": "fetchNftsCreated",
      "outputs": [
        {
          "components": [
            {
              "internalType": "uint256",
              "name": "itemId",
              "type": "uint256"
            },
            {
              "internalType": "uint256",
              "name": "tokenId",
              "type": "uint256"
            },
            {
              "internalType": "address",
              "name": "nftContract",
              "type": "address"
            },
            {
              "internalType": "address payable",
              "name": "owner",
              "type": "address"
            },
            {
              "internalType": "address payable",
              "name": "seller",
              "type": "address"
            },
            {
              "internalType": "uint256",
              "name": "price",
              "type": "uint256"
            },
            {
              "internalType": "enum MusicMarket.SongStatus",
              "name": "status",
              "type": "uint8"
            }
          ],
          "internalType": "struct MusicMarket.Song[]",
          "name": "",
          "type": "tuple[]"
        }
      ],
      "stateMutability": "view",
      "type": "function"
    },
    {
      "inputs": [
        {
          "internalType": "uint256",
          "name": "tokenId",
          "type": "uint256"
        }
      ],
      "name": "getItemByTokenId",
      "outputs": [
        {
          "components": [
            {
              "internalType": "uint256",
              "name": "itemId",
              "type": "uint256"
            },
            {
              "internalType": "uint256",
              "name": "tokenId",
              "type": "uint256"
            },
            {
              "internalType": "address",
              "name": "nftContract",
              "type": "address"
            },
            {
              "internalType": "address payable",
              "name": "owner",
              "type": "address"
            },
            {
              "internalType": "address payable",
              "name": "seller",
              "type": "address"
            },
            {
              "internalType": "uint256",
              "name": "price",
              "type": "uint256"
            },
            {
              "internalType": "enum MusicMarket.SongStatus",
              "name": "status",
              "type": "uint8"
            }
          ],
          "internalType": "struct MusicMarket.Song",
          "name": "item",
          "type": "tuple"
        }
      ],
      "stateMutability": "view",
      "type": "function"
    },
    {
      "inputs": [
        {
          "internalType": "uint256",
          "name": "limit",
          "type": "uint256"
        }
      ],
      "name": "getLastMinted",
      "outputs": [
        {
          "components": [
            {
              "internalType": "uint256",
              "name": "itemId",
              "type": "uint256"
            },
            {
              "internalType": "uint256",
              "name": "tokenId",
              "type": "uint256"
            },
            {
              "internalType": "address",
              "name": "nftContract",
              "type": "address"
            },
            {
              "internalType": "address payable",
              "name": "owner",
              "type": "address"
            },
            {
              "internalType": "address payable",
              "name": "seller",
              "type": "address"
            },
            {
              "internalType": "uint256",
              "name": "price",
              "type": "uint256"
            },
            {
              "internalType": "enum MusicMarket.SongStatus",
              "name": "status",
              "type": "uint8"
            }
          ],
          "internalType": "struct MusicMarket.Song[]",
          "name": "",
          "type": "tuple[]"
        }
      ],
      "stateMutability": "view",
      "type": "function"
    },
    {
      "inputs": [],
      "name": "getListingPrice",
      "outputs": [
        {
          "internalType": "uint256",
          "name": "",
          "type": "uint256"
        }
      ],
      "stateMutability": "view",
      "type": "function"
    },
    {
      "inputs": [
        {
          "internalType": "uint256",
          "name": "limit",
          "type": "uint256"
        }
      ],
      "name": "getSongs",
      "outputs": [
        {
          "components": [
            {
              "internalType": "uint256",
              "name": "itemId",
              "type": "uint256"
            },
            {
              "internalType": "uint256",
              "name": "tokenId",
              "type": "uint256"
            },
            {
              "internalType": "address",
              "name": "nftContract",
              "type": "address"
            },
            {
              "internalType": "address payable",
              "name": "owner",
              "type": "address"
            },
            {
              "internalType": "address payable",
              "name": "seller",
              "type": "address"
            },
            {
              "internalType": "uint256",
              "name": "price",
              "type": "uint256"
            },
            {
              "internalType": "enum MusicMarket.SongStatus",
              "name": "status",
              "type": "uint8"
            }
          ],
          "internalType": "struct MusicMarket.Song[]",
          "name": "",
          "type": "tuple[]"
        }
      ],
      "stateMutability": "view",
      "type": "function"
    },
    {
      "inputs": [
        {
          "internalType": "uint256",
          "name": "",
          "type": "uint256"
        }
      ],
      "name": "itemIdToSong",
      "outputs": [
        {
          "internalType": "uint256",
          "name": "itemId",
          "type": "uint256"
        },
        {
          "internalType": "uint256",
          "name": "tokenId",
          "type": "uint256"
        },
        {
          "internalType": "address",
          "name": "nftContract",
          "type": "address"
        },
        {
          "internalType": "address payable",
          "name": "owner",
          "type": "address"
        },
        {
          "internalType": "address payable",
          "name": "seller",
          "type": "address"
        },
        {
          "internalType": "uint256",
          "name": "price",
          "type": "uint256"
        },
        {
          "internalType": "enum MusicMarket.SongStatus",
          "name": "status",
          "type": "uint8"
        }
      ],
      "stateMutability": "view",
      "type": "function"
    },
    {
      "inputs": [
        {
          "internalType": "address",
          "name": "nftContract",
          "type": "address"
        },
        {
          "internalType": "uint256",
          "name": "itemId",
          "type": "uint256"
        },
        {
          "internalType": "uint256",
          "name": "price",
          "type": "uint256"
        }
      ],
      "name": "listItem",
      "outputs": [],
      "stateMutability": "payable",
      "type": "function"
    },
    {
      "inputs": [
        {
          "internalType": "uint256",
          "name": "price",
          "type": "uint256"
        }
      ],
      "name": "setListingPrice",
      "outputs": [
        {
          "internalType": "uint256",
          "name": "",
          "type": "uint256"
        }
      ],
      "stateMutability": "nonpayable",
      "type": "function"
    }
  ],
  "bytecode": "0x60806040526658d15e1762800060055534801561001b57600080fd5b50600160008190555033600460006101000a81548173ffffffffffffffffffffffffffffffffffffffff021916908373ffffffffffffffffffffffffffffffffffffffff160217905550614185806100746000396000f3fe6080604052600436106100c25760003560e01c80635e4d1cc41161007f57806389bfd38f1161005957806389bfd38f146102af5780639de46d09146102cb578063b520fa8f146102fb578063db69271014610338576100c2565b80635e4d1cc4146101f85780637c726b6914610235578063851c564614610272576100c2565b80630bace1a2146100c757806312e85585146100e35780631f6035be1461010e57806320c6b3b61461013e5780632c9e59e81461017b5780633be4c939146101b8575b600080fd5b6100e160048036038101906100dc91906130f7565b61037b565b005b3480156100ef57600080fd5b506100f8610798565b6040516101059190613a21565b60405180910390f35b610128600480360381019061012391906130bb565b6107a2565b6040516101359190613a06565b60405180910390f35b34801561014a57600080fd5b5061016560048036038101906101609190613146565b610e25565b60405161017291906137f1565b60405180910390f35b34801561018757600080fd5b506101a2600480360381019061019d9190613146565b6111fa565b6040516101af91906137f1565b60405180910390f35b3480156101c457600080fd5b506101df60048036038101906101da9190613146565b6117f9565b6040516101ef9493929190613813565b60405180910390f35b34801561020457600080fd5b5061021f600480360381019061021a9190613146565b611946565b60405161022c91906137f1565b60405180910390f35b34801561024157600080fd5b5061025c60048036038101906102579190613146565b611d07565b6040516102699190613a21565b60405180910390f35b34801561027e57600080fd5b5061029960048036038101906102949190613146565b611e3a565b6040516102a691906137f1565b60405180910390f35b6102c960048036038101906102c491906130f7565b6122e1565b005b6102e560048036038101906102e091906130bb565b612582565b6040516102f29190613a06565b60405180910390f35b34801561030757600080fd5b50610322600480360381019061031d9190613146565b612c11565b60405161032f9190613a06565b60405180910390f35b34801561034457600080fd5b5061035f600480360381019061035a9190613146565b612e92565b6040516103729796959493929190613a3c565b60405180910390f35b600260005414156103c1576040517f08c379a00000000000000000000000000000000000000000000000000000000081526004016103b8906139e6565b60405180910390fd5b60026000819055506000811161040c576040517f08c379a000000000000000000000000000000000000000000000000000000000815260040161040390613906565b60405180910390fd5b600554341015610451576040517f08c379a000000000000000000000000000000000000000000000000000000000815260040161044890613986565b60405180910390fd5b61045b6001612f41565b82101561049d576040517f08c379a0000000000000000000000000000000000000000000000000000000008152600401610494906138a6565b60405180910390fd5b6104a76001612f4f565b60006104b36001612f41565b90506040518060e001604052808281526020018481526020018573ffffffffffffffffffffffffffffffffffffffff168152602001600073ffffffffffffffffffffffffffffffffffffffff1681526020013373ffffffffffffffffffffffffffffffffffffffff16815260200183815260200160006002811115610561577f4e487b7100000000000000000000000000000000000000000000000000000000600052602160045260246000fd5b81525060066000838152602001908152602001600020600082015181600001556020820151816001015560408201518160020160006101000a81548173ffffffffffffffffffffffffffffffffffffffff021916908373ffffffffffffffffffffffffffffffffffffffff16021790555060608201518160030160006101000a81548173ffffffffffffffffffffffffffffffffffffffff021916908373ffffffffffffffffffffffffffffffffffffffff16021790555060808201518160040160006101000a81548173ffffffffffffffffffffffffffffffffffffffff021916908373ffffffffffffffffffffffffffffffffffffffff16021790555060a0820151816005015560c08201518160060160006101000a81548160ff021916908360028111156106bb577f4e487b7100000000000000000000000000000000000000000000000000000000600052602160045260246000fd5b02179055509050508373ffffffffffffffffffffffffffffffffffffffff166323b872dd3330866040518463ffffffff1660e01b815260040161070093929190613762565b600060405180830381600087803b15801561071a57600080fd5b505af115801561072e573d6000803e3d6000fd5b505050508373ffffffffffffffffffffffffffffffffffffffff1683827f2c4e097548c4d38a4bcd6eb326e5b30165e1784040fedac66d8dfd9e61daa8076000338760006040516107829493929190613799565b60405180910390a4506001600081905550505050565b6000600554905090565b6107aa612fda565b600260005414156107f0576040517f08c379a00000000000000000000000000000000000000000000000000000000081526004016107e7906139e6565b60405180910390fd5b6002600081905550600061080383612c11565b90506000600281111561083f577f4e487b7100000000000000000000000000000000000000000000000000000000600052602160045260246000fd5b8160c00151600281111561087c577f4e487b7100000000000000000000000000000000000000000000000000000000600052602160045260246000fd5b146108bc576040517f08c379a00000000000000000000000000000000000000000000000000000000081526004016108b390613866565b60405180910390fd5b8060a00151341015610903576040517f08c379a00000000000000000000000000000000000000000000000000000000081526004016108fa906139a6565b60405180910390fd5b8373ffffffffffffffffffffffffffffffffffffffff166323b872dd826060015133866040518463ffffffff1660e01b81526004016109449392919061367b565b600060405180830381600087803b15801561095e57600080fd5b505af1158015610972573d6000803e3d6000fd5b505050506109806003612f65565b806060015173ffffffffffffffffffffffffffffffffffffffff166108fc8260a001519081150290604051600060405180830381858888f193505050501580156109ce573d6000803e3d6000fd5b5060018160c001906002811115610a0e577f4e487b7100000000000000000000000000000000000000000000000000000000600052602160045260246000fd5b90816002811115610a48577f4e487b7100000000000000000000000000000000000000000000000000000000600052602160045260246000fd5b8152505033816060019073ffffffffffffffffffffffffffffffffffffffff16908173ffffffffffffffffffffffffffffffffffffffff1681525050806006600083600001518152602001908152602001600020600082015181600001556020820151816001015560408201518160020160006101000a81548173ffffffffffffffffffffffffffffffffffffffff021916908373ffffffffffffffffffffffffffffffffffffffff16021790555060608201518160030160006101000a81548173ffffffffffffffffffffffffffffffffffffffff021916908373ffffffffffffffffffffffffffffffffffffffff16021790555060808201518160040160006101000a81548173ffffffffffffffffffffffffffffffffffffffff021916908373ffffffffffffffffffffffffffffffffffffffff16021790555060a0820151816005015560c08201518160060160006101000a81548160ff02191690836002811115610be0577f4e487b7100000000000000000000000000000000000000000000000000000000600052602160045260246000fd5b02179055509050508373ffffffffffffffffffffffffffffffffffffffff168382600001517f2c4e097548c4d38a4bcd6eb326e5b30165e1784040fedac66d8dfd9e61daa8073385606001518660a001516001604051610c43949392919061370a565b60405180910390a460066000826000015181526020019081526020016000206040518060e001604052908160008201548152602001600182015481526020016002820160009054906101000a900473ffffffffffffffffffffffffffffffffffffffff1673ffffffffffffffffffffffffffffffffffffffff1673ffffffffffffffffffffffffffffffffffffffff1681526020016003820160009054906101000a900473ffffffffffffffffffffffffffffffffffffffff1673ffffffffffffffffffffffffffffffffffffffff1673ffffffffffffffffffffffffffffffffffffffff1681526020016004820160009054906101000a900473ffffffffffffffffffffffffffffffffffffffff1673ffffffffffffffffffffffffffffffffffffffff1673ffffffffffffffffffffffffffffffffffffffff168152602001600582015481526020016006820160009054906101000a900460ff166002811115610dd8577f4e487b7100000000000000000000000000000000000000000000000000000000600052602160045260246000fd5b6002811115610e10577f4e487b7100000000000000000000000000000000000000000000000000000000600052602160045260246000fd5b81525050915050600160008190555092915050565b60606000610e336001612f41565b90506000610e416002612f41565b610e4b6003612f41565b83610e569190613b00565b610e609190613b56565b9050600080610e6f8684612fc1565b905060008167ffffffffffffffff811115610eb3577f4e487b7100000000000000000000000000000000000000000000000000000000600052604160045260246000fd5b604051908082528060200260200182016040528015610eec57816020015b610ed9612fda565b815260200190600190039081610ed15790505b50905060005b858110156111ec5782841415610f07576111ec565b60006002811115610f41577f4e487b7100000000000000000000000000000000000000000000000000000000600052602160045260246000fd5b60066000600184610f529190613b00565b815260200190815260200160002060060160009054906101000a900460ff166002811115610fa9577f4e487b7100000000000000000000000000000000000000000000000000000000600052602160045260246000fd5b14156111d957600060066000600184610fc29190613b00565b81526020019081526020016000206040518060e001604052908160008201548152602001600182015481526020016002820160009054906101000a900473ffffffffffffffffffffffffffffffffffffffff1673ffffffffffffffffffffffffffffffffffffffff1673ffffffffffffffffffffffffffffffffffffffff1681526020016003820160009054906101000a900473ffffffffffffffffffffffffffffffffffffffff1673ffffffffffffffffffffffffffffffffffffffff1673ffffffffffffffffffffffffffffffffffffffff1681526020016004820160009054906101000a900473ffffffffffffffffffffffffffffffffffffffff1673ffffffffffffffffffffffffffffffffffffffff1673ffffffffffffffffffffffffffffffffffffffff168152602001600582015481526020016006820160009054906101000a900460ff166002811115611146577f4e487b7100000000000000000000000000000000000000000000000000000000600052602160045260246000fd5b600281111561117e577f4e487b7100000000000000000000000000000000000000000000000000000000600052602160045260246000fd5b815250509050808386815181106111be577f4e487b7100000000000000000000000000000000000000000000000000000000600052603260045260246000fd5b602002602001018190525084806111d490613ce7565b955050505b80806111e490613ce7565b915050610ef2565b508095505050505050919050565b606060006112086001612f41565b905060008060005b8381101561135d573373ffffffffffffffffffffffffffffffffffffffff16600660006001846112409190613b00565b815260200190815260200160002060030160009054906101000a900473ffffffffffffffffffffffffffffffffffffffff1673ffffffffffffffffffffffffffffffffffffffff161480156113355750600060028111156112ca577f4e487b7100000000000000000000000000000000000000000000000000000000600052602160045260246000fd5b600660006001846112db9190613b00565b815260200190815260200160002060060160009054906101000a900460ff166002811115611332577f4e487b7100000000000000000000000000000000000000000000000000000000600052602160045260246000fd5b14155b1561134a576001836113479190613b00565b92505b808061135590613ce7565b915050611210565b5060008214156113ec57600067ffffffffffffffff8111156113a8577f4e487b7100000000000000000000000000000000000000000000000000000000600052604160045260246000fd5b6040519080825280602002602001820160405280156113e157816020015b6113ce612fda565b8152602001906001900390816113c65790505b5093505050506117f4565b60006113f88684612fc1565b905060008167ffffffffffffffff81111561143c577f4e487b7100000000000000000000000000000000000000000000000000000000600052604160045260246000fd5b60405190808252806020026020018201604052801561147557816020015b611462612fda565b81526020019060019003908161145a5790505b50905060005b858110156117ea5782841415611490576117ea565b3373ffffffffffffffffffffffffffffffffffffffff16600660006001846114b89190613b00565b815260200190815260200160002060030160009054906101000a900473ffffffffffffffffffffffffffffffffffffffff1673ffffffffffffffffffffffffffffffffffffffff161480156115ad575060006002811115611542577f4e487b7100000000000000000000000000000000000000000000000000000000600052602160045260246000fd5b600660006001846115539190613b00565b815260200190815260200160002060060160009054906101000a900460ff1660028111156115aa577f4e487b7100000000000000000000000000000000000000000000000000000000600052602160045260246000fd5b14155b156117d757600660006001836115c39190613b00565b81526020019081526020016000206040518060e001604052908160008201548152602001600182015481526020016002820160009054906101000a900473ffffffffffffffffffffffffffffffffffffffff1673ffffffffffffffffffffffffffffffffffffffff1673ffffffffffffffffffffffffffffffffffffffff1681526020016003820160009054906101000a900473ffffffffffffffffffffffffffffffffffffffff1673ffffffffffffffffffffffffffffffffffffffff1673ffffffffffffffffffffffffffffffffffffffff1681526020016004820160009054906101000a900473ffffffffffffffffffffffffffffffffffffffff1673ffffffffffffffffffffffffffffffffffffffff1673ffffffffffffffffffffffffffffffffffffffff168152602001600582015481526020016006820160009054906101000a900460ff166002811115611747577f4e487b7100000000000000000000000000000000000000000000000000000000600052602160045260246000fd5b600281111561177f577f4e487b7100000000000000000000000000000000000000000000000000000000600052602160045260246000fd5b815250508285815181106117bc577f4e487b7100000000000000000000000000000000000000000000000000000000600052603260045260246000fd5b60200260200101819052506001846117d49190613b00565b93505b80806117e290613ce7565b91505061147b565b5080955050505050505b919050565b600760205280600052604060002060009150905080600001805461181c90613cb5565b80601f016020809104026020016040519081016040528092919081815260200182805461184890613cb5565b80156118955780601f1061186a57610100808354040283529160200191611895565b820191906000526020600020905b81548152906001019060200180831161187857829003601f168201915b5050505050908060010154908060020160009054906101000a900460ff16908060030180546118c390613cb5565b80601f01602080910402602001604051908101604052809291908181526020018280546118ef90613cb5565b801561193c5780601f106119115761010080835404028352916020019161193c565b820191906000526020600020905b81548152906001019060200180831161191f57829003601f168201915b5050505050905084565b606060006119546001612f41565b905060006119626002612f41565b61196c6003612f41565b836119779190613b00565b6119819190613b56565b90506000806119908684612fc1565b905060008167ffffffffffffffff8111156119d4577f4e487b7100000000000000000000000000000000000000000000000000000000600052604160045260246000fd5b604051908082528060200260200182016040528015611a0d57816020015b6119fa612fda565b8152602001906001900390816119f25790505b50905060008590505b6000811115611cf95782841415611a2c57611cf9565b60006002811115611a66577f4e487b7100000000000000000000000000000000000000000000000000000000600052602160045260246000fd5b6006600083815260200190815260200160002060060160009054906101000a900460ff166002811115611ac2577f4e487b7100000000000000000000000000000000000000000000000000000000600052602160045260246000fd5b1415611ce6576000600660008381526020019081526020016000206040518060e001604052908160008201548152602001600182015481526020016002820160009054906101000a900473ffffffffffffffffffffffffffffffffffffffff1673ffffffffffffffffffffffffffffffffffffffff1673ffffffffffffffffffffffffffffffffffffffff1681526020016003820160009054906101000a900473ffffffffffffffffffffffffffffffffffffffff1673ffffffffffffffffffffffffffffffffffffffff1673ffffffffffffffffffffffffffffffffffffffff1681526020016004820160009054906101000a900473ffffffffffffffffffffffffffffffffffffffff1673ffffffffffffffffffffffffffffffffffffffff1673ffffffffffffffffffffffffffffffffffffffff168152602001600582015481526020016006820160009054906101000a900460ff166002811115611c53577f4e487b7100000000000000000000000000000000000000000000000000000000600052602160045260246000fd5b6002811115611c8b577f4e487b7100000000000000000000000000000000000000000000000000000000600052602160045260246000fd5b81525050905080838681518110611ccb577f4e487b7100000000000000000000000000000000000000000000000000000000600052603260045260246000fd5b60200260200101819052508480611ce190613ce7565b955050505b8080611cf190613c8b565b915050611a16565b508095505050505050919050565b60003373ffffffffffffffffffffffffffffffffffffffff16600460009054906101000a900473ffffffffffffffffffffffffffffffffffffffff1673ffffffffffffffffffffffffffffffffffffffff1614611d99576040517f08c379a0000000000000000000000000000000000000000000000000000000008152600401611d90906138e6565b60405180910390fd5b3373ffffffffffffffffffffffffffffffffffffffff16600460009054906101000a900473ffffffffffffffffffffffffffffffffffffffff1673ffffffffffffffffffffffffffffffffffffffff1614611e29576040517f08c379a0000000000000000000000000000000000000000000000000000000008152600401611e2090613966565b60405180910390fd5b816005819055506005549050919050565b60606000611e486001612f41565b905060008060005b83811015611ef1573373ffffffffffffffffffffffffffffffffffffffff1660066000600184611e809190613b00565b815260200190815260200160002060040160009054906101000a900473ffffffffffffffffffffffffffffffffffffffff1673ffffffffffffffffffffffffffffffffffffffff161415611ede57600183611edb9190613b00565b92505b8080611ee990613ce7565b915050611e50565b506000821415611f8057600067ffffffffffffffff811115611f3c577f4e487b7100000000000000000000000000000000000000000000000000000000600052604160045260246000fd5b604051908082528060200260200182016040528015611f7557816020015b611f62612fda565b815260200190600190039081611f5a5790505b5093505050506122dc565b6000611f8c8684612fc1565b905060008167ffffffffffffffff811115611fd0577f4e487b7100000000000000000000000000000000000000000000000000000000600052604160045260246000fd5b60405190808252806020026020018201604052801561200957816020015b611ff6612fda565b815260200190600190039081611fee5790505b50905060005b858110156122d25782841415612024576122d2565b3373ffffffffffffffffffffffffffffffffffffffff166006600060018461204c9190613b00565b815260200190815260200160002060040160009054906101000a900473ffffffffffffffffffffffffffffffffffffffff1673ffffffffffffffffffffffffffffffffffffffff1614156122bf57600660006001836120ab9190613b00565b81526020019081526020016000206040518060e001604052908160008201548152602001600182015481526020016002820160009054906101000a900473ffffffffffffffffffffffffffffffffffffffff1673ffffffffffffffffffffffffffffffffffffffff1673ffffffffffffffffffffffffffffffffffffffff1681526020016003820160009054906101000a900473ffffffffffffffffffffffffffffffffffffffff1673ffffffffffffffffffffffffffffffffffffffff1673ffffffffffffffffffffffffffffffffffffffff1681526020016004820160009054906101000a900473ffffffffffffffffffffffffffffffffffffffff1673ffffffffffffffffffffffffffffffffffffffff1673ffffffffffffffffffffffffffffffffffffffff168152602001600582015481526020016006820160009054906101000a900460ff16600281111561222f577f4e487b7100000000000000000000000000000000000000000000000000000000600052602160045260246000fd5b6002811115612267577f4e487b7100000000000000000000000000000000000000000000000000000000600052602160045260246000fd5b815250508285815181106122a4577f4e487b7100000000000000000000000000000000000000000000000000000000600052603260045260246000fd5b60200260200101819052506001846122bc9190613b00565b93505b80806122ca90613ce7565b91505061200f565b5080955050505050505b919050565b60006006600084815260200190815260200160002090506000816001015490508160030160009054906101000a900473ffffffffffffffffffffffffffffffffffffffff1673ffffffffffffffffffffffffffffffffffffffff163373ffffffffffffffffffffffffffffffffffffffff1614612393576040517f08c379a000000000000000000000000000000000000000000000000000000000815260040161238a906139c6565b60405180910390fd5b600160028111156123cd577f4e487b7100000000000000000000000000000000000000000000000000000000600052602160045260246000fd5b8260060160009054906101000a900460ff166002811115612417577f4e487b7100000000000000000000000000000000000000000000000000000000600052602160045260246000fd5b14612457576040517f08c379a000000000000000000000000000000000000000000000000000000000815260040161244e90613886565b60405180910390fd5b60055434101561249c576040517f08c379a000000000000000000000000000000000000000000000000000000000815260040161249390613946565b60405180910390fd5b82826005018190555060008260060160006101000a81548160ff021916908360028111156124f3577f4e487b7100000000000000000000000000000000000000000000000000000000600052602160045260246000fd5b02179055506125026003612f4f565b8473ffffffffffffffffffffffffffffffffffffffff1681857f2c4e097548c4d38a4bcd6eb326e5b30165e1784040fedac66d8dfd9e61daa80733600460009054906101000a900473ffffffffffffffffffffffffffffffffffffffff1688600060405161257394939291906136b2565b60405180910390a45050505050565b61258a612fda565b600260005414156125d0576040517f08c379a00000000000000000000000000000000000000000000000000000000081526004016125c7906139e6565b60405180910390fd5b60026000819055506000600660008481526020019081526020016000206040518060e001604052908160008201548152602001600182015481526020016002820160009054906101000a900473ffffffffffffffffffffffffffffffffffffffff1673ffffffffffffffffffffffffffffffffffffffff1673ffffffffffffffffffffffffffffffffffffffff1681526020016003820160009054906101000a900473ffffffffffffffffffffffffffffffffffffffff1673ffffffffffffffffffffffffffffffffffffffff1673ffffffffffffffffffffffffffffffffffffffff1681526020016004820160009054906101000a900473ffffffffffffffffffffffffffffffffffffffff1673ffffffffffffffffffffffffffffffffffffffff1673ffffffffffffffffffffffffffffffffffffffff168152602001600582015481526020016006820160009054906101000a900460ff166002811115612763577f4e487b7100000000000000000000000000000000000000000000000000000000600052602160045260246000fd5b600281111561279b577f4e487b7100000000000000000000000000000000000000000000000000000000600052602160045260246000fd5b81525050905060008160a001519050600082602001519050813410156127f6576040517f08c379a00000000000000000000000000000000000000000000000000000000081526004016127ed90613946565b60405180910390fd5b8573ffffffffffffffffffffffffffffffffffffffff166323b872dd3033846040518463ffffffff1660e01b815260040161283393929190613762565b600060405180830381600087803b15801561284d57600080fd5b505af1158015612861573d6000803e3d6000fd5b5050505060018360c0019060028111156128a4577f4e487b7100000000000000000000000000000000000000000000000000000000600052602160045260246000fd5b908160028111156128de577f4e487b7100000000000000000000000000000000000000000000000000000000600052602160045260246000fd5b8152505033836060019073ffffffffffffffffffffffffffffffffffffffff16908173ffffffffffffffffffffffffffffffffffffffff16815250506129246002612f4f565b826080015173ffffffffffffffffffffffffffffffffffffffff166108fc839081150290604051600060405180830381858888f1935050505015801561296e573d6000803e3d6000fd5b50600460009054906101000a900473ffffffffffffffffffffffffffffffffffffffff1673ffffffffffffffffffffffffffffffffffffffff166108fc6005549081150290604051600060405180830381858888f193505050501580156129d9573d6000803e3d6000fd5b508260066000878152602001908152602001600020600082015181600001556020820151816001015560408201518160020160006101000a81548173ffffffffffffffffffffffffffffffffffffffff021916908373ffffffffffffffffffffffffffffffffffffffff16021790555060608201518160030160006101000a81548173ffffffffffffffffffffffffffffffffffffffff021916908373ffffffffffffffffffffffffffffffffffffffff16021790555060808201518160040160006101000a81548173ffffffffffffffffffffffffffffffffffffffff021916908373ffffffffffffffffffffffffffffffffffffffff16021790555060a0820151816005015560c08201518160060160006101000a81548160ff02191690836002811115612b32577f4e487b7100000000000000000000000000000000000000000000000000000000600052602160045260246000fd5b02179055509050508573ffffffffffffffffffffffffffffffffffffffff1681867f2c4e097548c4d38a4bcd6eb326e5b30165e1784040fedac66d8dfd9e61daa807600660008a815260200190815260200160002060030160009054906101000a900473ffffffffffffffffffffffffffffffffffffffff16600660008b815260200190815260200160002060040160009054906101000a900473ffffffffffffffffffffffffffffffffffffffff16876001604051612bf59493929190613623565b60405180910390a4829350505050600160008190555092915050565b612c19612fda565b6000612c256001612f41565b905060005b81811015612e49578360066000600184612c449190613b00565b8152602001908152602001600020600101541415612e365760066000600183612c6d9190613b00565b81526020019081526020016000206040518060e001604052908160008201548152602001600182015481526020016002820160009054906101000a900473ffffffffffffffffffffffffffffffffffffffff1673ffffffffffffffffffffffffffffffffffffffff1673ffffffffffffffffffffffffffffffffffffffff1681526020016003820160009054906101000a900473ffffffffffffffffffffffffffffffffffffffff1673ffffffffffffffffffffffffffffffffffffffff1673ffffffffffffffffffffffffffffffffffffffff1681526020016004820160009054906101000a900473ffffffffffffffffffffffffffffffffffffffff1673ffffffffffffffffffffffffffffffffffffffff1673ffffffffffffffffffffffffffffffffffffffff168152602001600582015481526020016006820160009054906101000a900460ff166002811115612df1577f4e487b7100000000000000000000000000000000000000000000000000000000600052602160045260246000fd5b6002811115612e29577f4e487b7100000000000000000000000000000000000000000000000000000000600052602160045260246000fd5b8152505092505050612e8d565b8080612e4190613ce7565b915050612c2a565b506000612e8b576040517f08c379a0000000000000000000000000000000000000000000000000000000008152600401612e8290613926565b60405180910390fd5b505b919050565b60066020528060005260406000206000915090508060000154908060010154908060020160009054906101000a900473ffffffffffffffffffffffffffffffffffffffff16908060030160009054906101000a900473ffffffffffffffffffffffffffffffffffffffff16908060040160009054906101000a900473ffffffffffffffffffffffffffffffffffffffff16908060050154908060060160009054906101000a900460ff16905087565b600081600001549050919050565b6001816000016000828254019250508190555050565b60008160000154905060008111612fb1576040517f08c379a0000000000000000000000000000000000000000000000000000000008152600401612fa8906138c6565b60405180910390fd5b6001810382600001819055505050565b6000818310612fd05781612fd2565b825b905092915050565b6040518060e001604052806000815260200160008152602001600073ffffffffffffffffffffffffffffffffffffffff168152602001600073ffffffffffffffffffffffffffffffffffffffff168152602001600073ffffffffffffffffffffffffffffffffffffffff168152602001600081526020016000600281111561308b577f4e487b7100000000000000000000000000000000000000000000000000000000600052602160045260246000fd5b81525090565b6000813590506130a081614121565b92915050565b6000813590506130b581614138565b92915050565b600080604083850312156130ce57600080fd5b60006130dc85828601613091565b92505060206130ed858286016130a6565b9150509250929050565b60008060006060848603121561310c57600080fd5b600061311a86828701613091565b935050602061312b868287016130a6565b925050604061313c868287016130a6565b9150509250925092565b60006020828403121561315857600080fd5b6000613166848285016130a6565b91505092915050565b600061317b83836134e9565b60e08301905092915050565b61319081613bfe565b82525050565b61319f81613b9c565b82525050565b6131ae81613b9c565b82525050565b6131bd81613b8a565b82525050565b6131cc81613b8a565b82525050565b60006131dd82613abb565b6131e78185613ade565b93506131f283613aab565b8060005b8381101561322357815161320a888261316f565b975061321583613ad1565b9250506001810190506131f6565b5085935050505092915050565b61323981613c10565b82525050565b61324881613c22565b82525050565b61325781613c22565b82525050565b600061326882613ac6565b6132728185613aef565b9350613282818560208601613c58565b61328b81613dbd565b840191505092915050565b60006132a3602583613aef565b91506132ae82613dce565b604082019050919050565b60006132c6600f83613aef565b91506132d182613e1d565b602082019050919050565b60006132e9602083613aef565b91506132f482613e46565b602082019050919050565b600061330c600d83613aef565b915061331782613e6f565b602082019050919050565b600061332f601b83613aef565b915061333a82613e98565b602082019050919050565b6000613352601883613aef565b915061335d82613ec1565b602082019050919050565b6000613375602583613aef565b915061338082613eea565b604082019050919050565b6000613398601083613aef565b91506133a382613f39565b602082019050919050565b60006133bb602083613aef565b91506133c682613f62565b602082019050919050565b60006133de600883613aef565b91506133e982613f8b565b602082019050919050565b6000613401602483613aef565b915061340c82613fb4565b604082019050919050565b6000613424601783613aef565b915061342f82614003565b602082019050919050565b6000613447600883613aef565b91506134528261402c565b602082019050919050565b600061346a601183613aef565b915061347582614055565b602082019050919050565b600061348d601a83613aef565b91506134988261407e565b602082019050919050565b60006134b0600b83613aef565b91506134bb826140a7565b602082019050919050565b60006134d3601f83613aef565b91506134de826140d0565b602082019050919050565b60e0820160008201516134ff6000850182613605565b5060208201516135126020850182613605565b50604082015161352560408501826131b4565b5060608201516135386060850182613196565b50608082015161354b6080850182613196565b5060a082015161355e60a0850182613605565b5060c082015161357160c085018261323f565b50505050565b60e08201600082015161358d6000850182613605565b5060208201516135a06020850182613605565b5060408201516135b360408501826131b4565b5060608201516135c66060850182613196565b5060808201516135d96080850182613196565b5060a08201516135ec60a0850182613605565b5060c08201516135ff60c085018261323f565b50505050565b61360e81613bf4565b82525050565b61361d81613bf4565b82525050565b600060a0820190506136386000830187613187565b6136456020830186613187565b6136526040830185613614565b61365f606083018461324e565b8181036080830152613670816132b9565b905095945050505050565b60006060820190506136906000830186613187565b61369d60208301856131c3565b6136aa6040830184613614565b949350505050565b600060a0820190506136c760008301876131c3565b6136d46020830186613187565b6136e16040830185613614565b6136ee606083018461324e565b81810360808301526136ff816133d1565b905095945050505050565b600060a08201905061371f60008301876131c3565b61372c6020830186613187565b6137396040830185613614565b613746606083018461324e565b81810360808301526137578161343a565b905095945050505050565b600060608201905061377760008301866131c3565b61378460208301856131c3565b6137916040830184613614565b949350505050565b600060a0820190506137ae60008301876131c3565b6137bb60208301866131c3565b6137c86040830185613614565b6137d5606083018461324e565b81810360808301526137e6816134a3565b905095945050505050565b6000602082019050818103600083015261380b81846131d2565b905092915050565b6000608082019050818103600083015261382d818761325d565b905061383c6020830186613614565b6138496040830185613230565b818103606083015261385b818461325d565b905095945050505050565b6000602082019050818103600083015261387f81613296565b9050919050565b6000602082019050818103600083015261389f816132dc565b9050919050565b600060208201905081810360008301526138bf816132ff565b9050919050565b600060208201905081810360008301526138df81613322565b9050919050565b600060208201905081810360008301526138ff81613345565b9050919050565b6000602082019050818103600083015261391f81613368565b9050919050565b6000602082019050818103600083015261393f8161338b565b9050919050565b6000602082019050818103600083015261395f816133ae565b9050919050565b6000602082019050818103600083015261397f816133f4565b9050919050565b6000602082019050818103600083015261399f81613417565b9050919050565b600060208201905081810360008301526139bf8161345d565b9050919050565b600060208201905081810360008301526139df81613480565b9050919050565b600060208201905081810360008301526139ff816134c6565b9050919050565b600060e082019050613a1b6000830184613577565b92915050565b6000602082019050613a366000830184613614565b92915050565b600060e082019050613a51600083018a613614565b613a5e6020830189613614565b613a6b60408301886131c3565b613a7860608301876131a5565b613a8560808301866131a5565b613a9260a0830185613614565b613a9f60c083018461324e565b98975050505050505050565b6000819050602082019050919050565b600081519050919050565b600081519050919050565b6000602082019050919050565b600082825260208201905092915050565b600082825260208201905092915050565b6000613b0b82613bf4565b9150613b1683613bf4565b9250827fffffffffffffffffffffffffffffffffffffffffffffffffffffffffffffffff03821115613b4b57613b4a613d30565b5b828201905092915050565b6000613b6182613bf4565b9150613b6c83613bf4565b925082821015613b7f57613b7e613d30565b5b828203905092915050565b6000613b9582613bd4565b9050919050565b6000613ba782613bd4565b9050919050565b6000819050613bbc826140f9565b919050565b6000819050613bcf8261410d565b919050565b600073ffffffffffffffffffffffffffffffffffffffff82169050919050565b6000819050919050565b6000613c0982613c34565b9050919050565b6000613c1b82613bae565b9050919050565b6000613c2d82613bc1565b9050919050565b6000613c3f82613c46565b9050919050565b6000613c5182613bd4565b9050919050565b60005b83811015613c76578082015181840152602081019050613c5b565b83811115613c85576000848401525b50505050565b6000613c9682613bf4565b91506000821415613caa57613ca9613d30565b5b600182039050919050565b60006002820490506001821680613ccd57607f821691505b60208210811415613ce157613ce0613d8e565b5b50919050565b6000613cf282613bf4565b91507fffffffffffffffffffffffffffffffffffffffffffffffffffffffffffffffff821415613d2557613d24613d30565b5b600182019050919050565b7f4e487b7100000000000000000000000000000000000000000000000000000000600052601160045260246000fd5b7f4e487b7100000000000000000000000000000000000000000000000000000000600052602160045260246000fd5b7f4e487b7100000000000000000000000000000000000000000000000000000000600052602260045260246000fd5b6000601f19601f8301169050919050565b7f4974656d7320546861742061696e74204c69737465642063616e74206265205360008201527f6f6c646564000000000000000000000000000000000000000000000000000000602082015250565b7f5472616e73666572726564204e46540000000000000000000000000000000000600082015250565b7f43616e74206c697374207468617420697320616c7265616479204c6973746564600082015250565b7f696e76616c696420546f6b656e00000000000000000000000000000000000000600082015250565b7f436f756e7465723a2064656372656d656e74206f766572666c6f770000000000600082015250565b7f43616c6c6572206d75737420626520746865206f776e65720000000000000000600082015250565b7f4974656d205072696365206d6f73742062652067726561746572207468656e2060008201527f3120574549000000000000000000000000000000000000000000000000000000602082015250565b7f496e76616c696420546f6b656e20494400000000000000000000000000000000600082015250565b7f6b696e646c79207472616e7366657220746865206c6973746564207072696365600082015250565b7f4c697374204e4654000000000000000000000000000000000000000000000000600082015250565b7f4f6e6c7920746865204f776e65722043616e20736574204c697374696e67205060008201527f7269636500000000000000000000000000000000000000000000000000000000602082015250565b7f496e737566666963656e74206c697374696e6720666565000000000000000000600082015250565b7f536f6c64204e4654000000000000000000000000000000000000000000000000600082015250565b7f496e737566666963656e742066756e6473000000000000000000000000000000600082015250565b7f796f75206d757374206d75737420626520746865206f776e6572000000000000600082015250565b7f43726561746564204e4654000000000000000000000000000000000000000000600082015250565b7f5265656e7472616e637947756172643a207265656e7472616e742063616c6c00600082015250565b6003811061410a57614109613d5f565b5b50565b6003811061411e5761411d613d5f565b5b50565b61412a81613b8a565b811461413557600080fd5b50565b61414181613bf4565b811461414c57600080fd5b5056fea2646970667358221220a739d94291ed8f7050897e13d5554fc665a923a717296ced774875d5de2eb06e64736f6c63430008040033",
  "linkReferences": {},
  "deployedLinkReferences": {}
}