{
  "_format": "hh-sol-artifact-1",
  "contractName": "MusicMarket",
  "sourceName": "contracts/MusicMarket.sol",
  "abi": [
    {
      "inputs": [],
      "stateMutability": "nonpayable",
      "type": "constructor"
    },
    {
      "anonymous": false,
      "inputs": [
        {
          "indexed": true,
          "internalType": "uint256",
          "name": "albumId",
          "type": "uint256"
        },
        {
          "indexed": false,
          "internalType": "string",
          "name": "albumName",
          "type": "string"
        },
        {
          "indexed": false,
          "internalType": "uint256",
          "name": "createdAt",
          "type": "uint256"
        },
        {
          "indexed": false,
          "internalType": "enum MusicMarket.AlbumStatus",
          "name": "Status",
          "type": "uint8"
        },
        {
          "indexed": false,
          "internalType": "string",
          "name": "coverUrl",
          "type": "string"
        },
        {
          "indexed": false,
          "internalType": "uint256",
          "name": "mintedSongs",
          "type": "uint256"
        },
        {
          "indexed": false,
          "internalType": "uint256",
          "name": "soldSongs",
          "type": "uint256"
        },
        {
          "indexed": false,
          "internalType": "string",
          "name": "message",
          "type": "string"
        }
      ],
      "name": "AlbumEvent",
      "type": "event"
    },
    {
      "anonymous": false,
      "inputs": [
        {
          "indexed": true,
          "internalType": "uint256",
          "name": "artistId",
          "type": "uint256"
        },
        {
          "indexed": false,
          "internalType": "string",
          "name": "artistName",
          "type": "string"
        },
        {
          "indexed": false,
          "internalType": "string",
          "name": "url",
          "type": "string"
        },
        {
          "indexed": false,
          "internalType": "string",
          "name": "message",
          "type": "string"
        }
      ],
      "name": "ArtistEvent",
      "type": "event"
    },
    {
      "anonymous": false,
      "inputs": [
        {
          "indexed": true,
          "internalType": "uint256",
          "name": "itemId",
          "type": "uint256"
        },
        {
          "indexed": true,
          "internalType": "uint256",
          "name": "tokenId",
          "type": "uint256"
        },
        {
          "indexed": false,
          "internalType": "address",
          "name": "musicContract",
          "type": "address"
        },
        {
          "indexed": false,
          "internalType": "address",
          "name": "owner",
          "type": "address"
        },
        {
          "indexed": false,
          "internalType": "address",
          "name": "seller",
          "type": "address"
        },
        {
          "indexed": false,
          "internalType": "uint256",
          "name": "price",
          "type": "uint256"
        },
        {
          "indexed": true,
          "internalType": "uint256",
          "name": "albumId",
          "type": "uint256"
        },
        {
          "indexed": false,
          "internalType": "uint256",
          "name": "trackNumber",
          "type": "uint256"
        },
        {
          "indexed": false,
          "internalType": "uint256",
          "name": "artistId",
          "type": "uint256"
        },
        {
          "indexed": false,
          "internalType": "enum MusicMarket.SongStatus",
          "name": "status",
          "type": "uint8"
        },
        {
          "indexed": false,
          "internalType": "string",
          "name": "message",
          "type": "string"
        }
      ],
      "name": "SongEvent",
      "type": "event"
    },
    {
      "inputs": [
        {
          "internalType": "address",
          "name": "musicContract",
          "type": "address"
        },
        {
          "internalType": "uint256",
          "name": "tokenId",
          "type": "uint256"
        }
      ],
      "name": "BuySong",
      "outputs": [],
      "stateMutability": "payable",
      "type": "function"
    },
    {
      "inputs": [
        {
          "internalType": "address",
          "name": "musicContract",
          "type": "address"
        },
        {
          "internalType": "uint256",
          "name": "itemId",
          "type": "uint256"
        }
      ],
      "name": "CancelItem",
      "outputs": [],
      "stateMutability": "payable",
      "type": "function"
    },
    {
      "inputs": [
        {
          "internalType": "uint256",
          "name": "",
          "type": "uint256"
        }
      ],
      "name": "artists",
      "outputs": [
        {
          "internalType": "uint256",
          "name": "id",
          "type": "uint256"
        },
        {
          "internalType": "string",
          "name": "artistName",
          "type": "string"
        },
        {
          "internalType": "string",
          "name": "url",
          "type": "string"
        }
      ],
      "stateMutability": "view",
      "type": "function"
    },
    {
      "inputs": [
        {
          "internalType": "uint256[]",
          "name": "data",
          "type": "uint256[]"
        },
        {
          "internalType": "uint256",
          "name": "value",
          "type": "uint256"
        }
      ],
      "name": "checkIfExist",
      "outputs": [
        {
          "internalType": "bool",
          "name": "",
          "type": "bool"
        }
      ],
      "stateMutability": "pure",
      "type": "function"
    },
    {
      "inputs": [
        {
          "internalType": "string",
          "name": "albumName",
          "type": "string"
        },
        {
          "internalType": "string",
          "name": "uri",
          "type": "string"
        },
        {
          "internalType": "uint256[]",
          "name": "_artists",
          "type": "uint256[]"
        }
      ],
      "name": "createAlbum",
      "outputs": [],
      "stateMutability": "nonpayable",
      "type": "function"
    },
    {
      "inputs": [
        {
          "internalType": "string",
          "name": "artistName",
          "type": "string"
        },
        {
          "internalType": "string",
          "name": "uri",
          "type": "string"
        }
      ],
      "name": "createArtist",
      "outputs": [],
      "stateMutability": "nonpayable",
      "type": "function"
    },
    {
      "inputs": [
        {
          "internalType": "address",
          "name": "auctionMarket",
          "type": "address"
        },
        {
          "internalType": "address",
          "name": "nftAddress",
          "type": "address"
        },
        {
          "internalType": "uint256",
          "name": "startAt",
          "type": "uint256"
        },
        {
          "internalType": "uint256",
          "name": "endAt",
          "type": "uint256"
        },
        {
          "internalType": "uint256",
          "name": "startBidPrice",
          "type": "uint256"
        },
        {
          "internalType": "uint256",
          "name": "tokenId",
          "type": "uint256"
        }
      ],
      "name": "createBid",
      "outputs": [],
      "stateMutability": "nonpayable",
      "type": "function"
    },
    {
      "inputs": [
        {
          "internalType": "address",
          "name": "musicContract",
          "type": "address"
        },
        {
          "internalType": "uint256",
          "name": "tokenId",
          "type": "uint256"
        },
        {
          "internalType": "uint256",
          "name": "albumId",
          "type": "uint256"
        },
        {
          "internalType": "uint256",
          "name": "artistId",
          "type": "uint256"
        },
        {
          "internalType": "uint256",
          "name": "price",
          "type": "uint256"
        }
      ],
      "name": "createSong",
      "outputs": [],
      "stateMutability": "nonpayable",
      "type": "function"
    },
    {
      "inputs": [
        {
          "internalType": "address",
          "name": "musicContract",
          "type": "address"
        },
        {
          "internalType": "uint256",
          "name": "itemId",
          "type": "uint256"
        }
      ],
      "name": "createSongSale",
      "outputs": [],
      "stateMutability": "payable",
      "type": "function"
    },
    {
      "inputs": [
        {
          "internalType": "uint256",
          "name": "limit",
          "type": "uint256"
        }
      ],
      "name": "fetchMyMusicNFTs",
      "outputs": [
        {
          "components": [
            {
              "internalType": "uint256",
              "name": "itemId",
              "type": "uint256"
            },
            {
              "internalType": "uint256",
              "name": "tokenId",
              "type": "uint256"
            },
            {
              "internalType": "address",
              "name": "musicContract",
              "type": "address"
            },
            {
              "internalType": "address payable",
              "name": "owner",
              "type": "address"
            },
            {
              "internalType": "address payable",
              "name": "seller",
              "type": "address"
            },
            {
              "internalType": "uint256",
              "name": "price",
              "type": "uint256"
            },
            {
              "internalType": "uint256",
              "name": "albumId",
              "type": "uint256"
            },
            {
              "internalType": "uint256",
              "name": "trackNumber",
              "type": "uint256"
            },
            {
              "internalType": "uint256",
              "name": "artistId",
              "type": "uint256"
            },
            {
              "internalType": "enum MusicMarket.SongStatus",
              "name": "status",
              "type": "uint8"
            }
          ],
          "internalType": "struct MusicMarket.Song[]",
          "name": "",
          "type": "tuple[]"
        }
      ],
      "stateMutability": "view",
      "type": "function"
    },
    {
      "inputs": [
        {
          "internalType": "uint256",
          "name": "albumId",
          "type": "uint256"
        }
      ],
      "name": "getAlbum",
      "outputs": [
        {
          "components": [
            {
              "internalType": "uint256",
              "name": "id",
              "type": "uint256"
            },
            {
              "internalType": "string",
              "name": "albumName",
              "type": "string"
            },
            {
              "internalType": "uint256",
              "name": "createdAt",
              "type": "uint256"
            },
            {
              "internalType": "enum MusicMarket.AlbumStatus",
              "name": "Status",
              "type": "uint8"
            },
            {
              "internalType": "string",
              "name": "coverUrl",
              "type": "string"
            },
            {
              "internalType": "uint256",
              "name": "mintedSongs",
              "type": "uint256"
            },
            {
              "internalType": "uint256",
              "name": "soldSongs",
              "type": "uint256"
            }
          ],
          "internalType": "struct MusicMarket.Album",
          "name": "_album",
          "type": "tuple"
        },
        {
          "components": [
            {
              "internalType": "uint256",
              "name": "id",
              "type": "uint256"
            },
            {
              "internalType": "string",
              "name": "artistName",
              "type": "string"
            },
            {
              "internalType": "string",
              "name": "url",
              "type": "string"
            }
          ],
          "internalType": "struct MusicMarket.Artist[]",
          "name": "_artists",
          "type": "tuple[]"
        }
      ],
      "stateMutability": "view",
      "type": "function"
    },
    {
      "inputs": [],
      "name": "getAlbums",
      "outputs": [
        {
          "components": [
            {
              "internalType": "uint256",
              "name": "id",
              "type": "uint256"
            },
            {
              "internalType": "string",
              "name": "albumName",
              "type": "string"
            },
            {
              "internalType": "uint256",
              "name": "createdAt",
              "type": "uint256"
            },
            {
              "internalType": "enum MusicMarket.AlbumStatus",
              "name": "Status",
              "type": "uint8"
            },
            {
              "internalType": "string",
              "name": "coverUrl",
              "type": "string"
            },
            {
              "internalType": "uint256",
              "name": "mintedSongs",
              "type": "uint256"
            },
            {
              "internalType": "uint256",
              "name": "soldSongs",
              "type": "uint256"
            }
          ],
          "internalType": "struct MusicMarket.Album[]",
          "name": "data",
          "type": "tuple[]"
        }
      ],
      "stateMutability": "view",
      "type": "function"
    },
    {
      "inputs": [],
      "name": "getArtists",
      "outputs": [
        {
          "components": [
            {
              "internalType": "uint256",
              "name": "id",
              "type": "uint256"
            },
            {
              "internalType": "string",
              "name": "artistName",
              "type": "string"
            },
            {
              "internalType": "string",
              "name": "url",
              "type": "string"
            }
          ],
          "internalType": "struct MusicMarket.Artist[]",
          "name": "data",
          "type": "tuple[]"
        }
      ],
      "stateMutability": "view",
      "type": "function"
    },
    {
      "inputs": [
        {
          "internalType": "uint256",
          "name": "tokenId",
          "type": "uint256"
        }
      ],
      "name": "getItemByTokenId",
      "outputs": [
        {
          "components": [
            {
              "internalType": "uint256",
              "name": "itemId",
              "type": "uint256"
            },
            {
              "internalType": "uint256",
              "name": "tokenId",
              "type": "uint256"
            },
            {
              "internalType": "address",
              "name": "musicContract",
              "type": "address"
            },
            {
              "internalType": "address payable",
              "name": "owner",
              "type": "address"
            },
            {
              "internalType": "address payable",
              "name": "seller",
              "type": "address"
            },
            {
              "internalType": "uint256",
              "name": "price",
              "type": "uint256"
            },
            {
              "internalType": "uint256",
              "name": "albumId",
              "type": "uint256"
            },
            {
              "internalType": "uint256",
              "name": "trackNumber",
              "type": "uint256"
            },
            {
              "internalType": "uint256",
              "name": "artistId",
              "type": "uint256"
            },
            {
              "internalType": "enum MusicMarket.SongStatus",
              "name": "status",
              "type": "uint8"
            }
          ],
          "internalType": "struct MusicMarket.Song",
          "name": "item",
          "type": "tuple"
        }
      ],
      "stateMutability": "view",
      "type": "function"
    },
    {
      "inputs": [
        {
          "internalType": "uint256",
          "name": "limit",
          "type": "uint256"
        }
      ],
      "name": "getLastMinted",
      "outputs": [
        {
          "components": [
            {
              "internalType": "uint256",
              "name": "itemId",
              "type": "uint256"
            },
            {
              "internalType": "uint256",
              "name": "tokenId",
              "type": "uint256"
            },
            {
              "internalType": "address",
              "name": "musicContract",
              "type": "address"
            },
            {
              "internalType": "address payable",
              "name": "owner",
              "type": "address"
            },
            {
              "internalType": "address payable",
              "name": "seller",
              "type": "address"
            },
            {
              "internalType": "uint256",
              "name": "price",
              "type": "uint256"
            },
            {
              "internalType": "uint256",
              "name": "albumId",
              "type": "uint256"
            },
            {
              "internalType": "uint256",
              "name": "trackNumber",
              "type": "uint256"
            },
            {
              "internalType": "uint256",
              "name": "artistId",
              "type": "uint256"
            },
            {
              "internalType": "enum MusicMarket.SongStatus",
              "name": "status",
              "type": "uint8"
            }
          ],
          "internalType": "struct MusicMarket.Song[]",
          "name": "",
          "type": "tuple[]"
        }
      ],
      "stateMutability": "view",
      "type": "function"
    },
    {
      "inputs": [
        {
          "internalType": "uint256[]",
          "name": "data",
          "type": "uint256[]"
        }
      ],
      "name": "getMax",
      "outputs": [
        {
          "internalType": "uint256",
          "name": "",
          "type": "uint256"
        }
      ],
      "stateMutability": "pure",
      "type": "function"
    },
    {
      "inputs": [
        {
          "internalType": "uint256",
          "name": "limit",
          "type": "uint256"
        }
      ],
      "name": "getSongs",
      "outputs": [
        {
          "components": [
            {
              "internalType": "uint256",
              "name": "itemId",
              "type": "uint256"
            },
            {
              "internalType": "uint256",
              "name": "tokenId",
              "type": "uint256"
            },
            {
              "internalType": "address",
              "name": "musicContract",
              "type": "address"
            },
            {
              "internalType": "address payable",
              "name": "owner",
              "type": "address"
            },
            {
              "internalType": "address payable",
              "name": "seller",
              "type": "address"
            },
            {
              "internalType": "uint256",
              "name": "price",
              "type": "uint256"
            },
            {
              "internalType": "uint256",
              "name": "albumId",
              "type": "uint256"
            },
            {
              "internalType": "uint256",
              "name": "trackNumber",
              "type": "uint256"
            },
            {
              "internalType": "uint256",
              "name": "artistId",
              "type": "uint256"
            },
            {
              "internalType": "enum MusicMarket.SongStatus",
              "name": "status",
              "type": "uint8"
            }
          ],
          "internalType": "struct MusicMarket.Song[]",
          "name": "",
          "type": "tuple[]"
        }
      ],
      "stateMutability": "view",
      "type": "function"
    },
    {
      "inputs": [
        {
          "internalType": "uint256",
          "name": "",
          "type": "uint256"
        }
      ],
      "name": "itemIdToSong",
      "outputs": [
        {
          "internalType": "uint256",
          "name": "itemId",
          "type": "uint256"
        },
        {
          "internalType": "uint256",
          "name": "tokenId",
          "type": "uint256"
        },
        {
          "internalType": "address",
          "name": "musicContract",
          "type": "address"
        },
        {
          "internalType": "address payable",
          "name": "owner",
          "type": "address"
        },
        {
          "internalType": "address payable",
          "name": "seller",
          "type": "address"
        },
        {
          "internalType": "uint256",
          "name": "price",
          "type": "uint256"
        },
        {
          "internalType": "uint256",
          "name": "albumId",
          "type": "uint256"
        },
        {
          "internalType": "uint256",
          "name": "trackNumber",
          "type": "uint256"
        },
        {
          "internalType": "uint256",
          "name": "artistId",
          "type": "uint256"
        },
        {
          "internalType": "enum MusicMarket.SongStatus",
          "name": "status",
          "type": "uint8"
        }
      ],
      "stateMutability": "view",
      "type": "function"
    },
    {
      "inputs": [
        {
          "internalType": "address",
          "name": "musicContract",
          "type": "address"
        },
        {
          "internalType": "uint256",
          "name": "itemId",
          "type": "uint256"
        },
        {
          "internalType": "uint256",
          "name": "price",
          "type": "uint256"
        }
      ],
      "name": "listItem",
      "outputs": [],
      "stateMutability": "payable",
      "type": "function"
    },
    {
      "inputs": [],
      "name": "listingPrice",
      "outputs": [
        {
          "internalType": "uint256",
          "name": "",
          "type": "uint256"
        }
      ],
      "stateMutability": "view",
      "type": "function"
    },
    {
      "inputs": [
        {
          "internalType": "address",
          "name": "nftAddress",
          "type": "address"
        },
        {
          "internalType": "address",
          "name": "to",
          "type": "address"
        },
        {
          "internalType": "uint256",
          "name": "tokenId",
          "type": "uint256"
        }
      ],
      "name": "musicTransfer",
      "outputs": [],
      "stateMutability": "nonpayable",
      "type": "function"
    },
    {
      "inputs": [],
      "name": "owner",
      "outputs": [
        {
          "internalType": "address payable",
          "name": "",
          "type": "address"
        }
      ],
      "stateMutability": "view",
      "type": "function"
    },
    {
      "inputs": [
        {
          "internalType": "uint256",
          "name": "price",
          "type": "uint256"
        }
      ],
      "name": "setListingPrice",
      "outputs": [],
      "stateMutability": "nonpayable",
      "type": "function"
    }
  ],
  "bytecode": "0x60806040526658d15e1762800060075534801561001b57600080fd5b50600160008190555033600660006101000a81548173ffffffffffffffffffffffffffffffffffffffff021916908373ffffffffffffffffffffffffffffffffffffffff160217905550615f1180620000756000396000f3fe6080604052600436106101405760003560e01c806389bfd38f116100b6578063cd7e10c11161006f578063cd7e10c114610448578063d4cd0d4514610487578063d69e63bd146104b2578063d6e465c9146104db578063db69271014610519578063fb0cf2cc1461055f57610140565b806389bfd38f146103405780638da5cb5b1461035c5780639de46d0914610387578063b520fa8f146103a3578063c78f19f9146103e0578063ca1314af1461040b57610140565b8063566d0d8611610108578063566d0d86146102205780635c517234146102495780635e4d1cc41461027457806367dfda78146102b1578063750bf75e146102da5780637c726b691461031757610140565b806301454e9914610145578063134bf711146101825780631f6035be1461019e57806320c6b3b6146101ba5780632834303a146101f7575b600080fd5b34801561015157600080fd5b5061016c6004803603810190610167919061445a565b610588565b604051610179919061522a565b60405180910390f35b61019c60048036038101906101979190614317565b61060a565b005b6101b860048036038101906101b39190614317565b6108b2565b005b3480156101c657600080fd5b506101e160048036038101906101dc91906145b1565b610add565b6040516101ee9190615208565b60405180910390f35b34801561020357600080fd5b5061021e6004803603810190610219919061428e565b610ed1565b005b34801561022c57600080fd5b506102476004803603810190610242919061423f565b610fd7565b005b34801561025557600080fd5b5061025e611289565b60405161026b91906151c4565b60405180910390f35b34801561028057600080fd5b5061029b600480360381019061029691906145b1565b611577565b6040516102a89190615208565b60405180910390f35b3480156102bd57600080fd5b506102d860048036038101906102d3919061451a565b611957565b005b3480156102e657600080fd5b5061030160048036038101906102fc91906145b1565b611c01565b60405161030e9190615208565b60405180910390f35b34801561032357600080fd5b5061033e600480360381019061033991906145b1565b612064565b005b61035a60048036038101906103559190614353565b61218e565b005b34801561036857600080fd5b5061037161242c565b60405161037e9190614eac565b60405180910390f35b6103a1600480360381019061039c9190614317565b612452565b005b3480156103af57600080fd5b506103ca60048036038101906103c591906145b1565b612afa565b6040516103d79190615508565b60405180910390f35b3480156103ec57600080fd5b506103f5612d93565b6040516104029190615524565b60405180910390f35b34801561041757600080fd5b50610432600480360381019061042d9190614419565b612d99565b60405161043f9190615524565b60405180910390f35b34801561045457600080fd5b5061046f600480360381019061046a91906145b1565b612e55565b60405161047e9392919061553f565b60405180910390f35b34801561049357600080fd5b5061049c612f8f565b6040516104a991906151e6565b60405180910390f35b3480156104be57600080fd5b506104d960048036038101906104d491906143a2565b6131d8565b005b3480156104e757600080fd5b5061050260048036038101906104fd91906145b1565b6136c3565b6040516105109291906154d1565b60405180910390f35b34801561052557600080fd5b50610540600480360381019061053b91906145b1565b613bbd565b6040516105569a99989796959493929190615584565b60405180910390f35b34801561056b57600080fd5b50610586600480360381019061058191906144ae565b613c7e565b005b600080600090505b83518110156105fe57828482815181106105d3577f4e487b7100000000000000000000000000000000000000000000000000000000600052603260045260246000fd5b602002602001015114156105eb576001915050610604565b80806105f690615a12565b915050610590565b50600090505b92915050565b60026000541415610650576040517f08c379a000000000000000000000000000000000000000000000000000000000815260040161064790615491565b60405180910390fd5b600260008190555060006008600083815260200190815260200160002090506000816001015490508160030160009054906101000a900473ffffffffffffffffffffffffffffffffffffffff1673ffffffffffffffffffffffffffffffffffffffff163373ffffffffffffffffffffffffffffffffffffffff161461070a576040517f08c379a0000000000000000000000000000000000000000000000000000000008152600401610701906154b1565b60405180910390fd5b60006003811115610744577f4e487b7100000000000000000000000000000000000000000000000000000000600052602160045260246000fd5b8260090160009054906101000a900460ff16600381111561078e577f4e487b7100000000000000000000000000000000000000000000000000000000600052602160045260246000fd5b146107ce576040517f08c379a00000000000000000000000000000000000000000000000000000000081526004016107c590615371565b60405180910390fd5b60018260090160006101000a81548160ff0219169083600381111561081c577f4e487b7100000000000000000000000000000000000000000000000000000000600052602160045260246000fd5b021790555061082b6005613e2b565b816006015481847fb6a6e5a1d1cba81612d627d3d366515af9bc54786897c5bb629f44b2ca1949bc8733600660009054906101000a900473ffffffffffffffffffffffffffffffffffffffff16886005015489600701548a60080154600060405161089c9796959493929190614f81565b60405180910390a4505060016000819055505050565b600260005414156108f8576040517f08c379a00000000000000000000000000000000000000000000000000000000081526004016108ef90615491565b60405180910390fd5b6002600081905550600061090b82612afa565b905060006003811115610947577f4e487b7100000000000000000000000000000000000000000000000000000000600052602160045260246000fd5b8161012001516003811115610985577f4e487b7100000000000000000000000000000000000000000000000000000000600052602160045260246000fd5b146109c5576040517f08c379a00000000000000000000000000000000000000000000000000000000081526004016109bc90615411565b60405180910390fd5b8060a00151341015610a0c576040517f08c379a0000000000000000000000000000000000000000000000000000000008152600401610a0390615431565b60405180910390fd5b610a17833384610fd7565b610a216005613e2b565b806060015173ffffffffffffffffffffffffffffffffffffffff166108fc8260a001519081150290604051600060405180830381858888f19350505050158015610a6f573d6000803e3d6000fd5b508060c001518282600001517fb6a6e5a1d1cba81612d627d3d366515af9bc54786897c5bb629f44b2ca1949bc863386606001518760a001518861010001518960e001516001604051610ac89796959493929190615087565b60405180910390a45060016000819055505050565b60606000610aeb6001613e87565b90506000610af96002613e87565b610b036005613e87565b83610b0e91906157cd565b610b189190615823565b9050600080610b278684613e95565b905060008167ffffffffffffffff811115610b6b577f4e487b7100000000000000000000000000000000000000000000000000000000600052604160045260246000fd5b604051908082528060200260200182016040528015610ba457816020015b610b91613ec4565b815260200190600190039081610b895790505b50905060005b85811015610ec35782841415610bbf57610ec3565b60006003811115610bf9577f4e487b7100000000000000000000000000000000000000000000000000000000600052602160045260246000fd5b60086000600184610c0a91906157cd565b815260200190815260200160002060090160009054906101000a900460ff166003811115610c61577f4e487b7100000000000000000000000000000000000000000000000000000000600052602160045260246000fd5b1415610eb057600060086000600184610c7a91906157cd565b81526020019081526020016000206040518061014001604052908160008201548152602001600182015481526020016002820160009054906101000a900473ffffffffffffffffffffffffffffffffffffffff1673ffffffffffffffffffffffffffffffffffffffff1673ffffffffffffffffffffffffffffffffffffffff1681526020016003820160009054906101000a900473ffffffffffffffffffffffffffffffffffffffff1673ffffffffffffffffffffffffffffffffffffffff1673ffffffffffffffffffffffffffffffffffffffff1681526020016004820160009054906101000a900473ffffffffffffffffffffffffffffffffffffffff1673ffffffffffffffffffffffffffffffffffffffff1673ffffffffffffffffffffffffffffffffffffffff168152602001600582015481526020016006820154815260200160078201548152602001600882015481526020016009820160009054906101000a900460ff166003811115610e1d577f4e487b7100000000000000000000000000000000000000000000000000000000600052602160045260246000fd5b6003811115610e55577f4e487b7100000000000000000000000000000000000000000000000000000000600052602160045260246000fd5b81525050905080838681518110610e95577f4e487b7100000000000000000000000000000000000000000000000000000000600052603260045260246000fd5b60200260200101819052508480610eab90615a12565b955050505b8080610ebb90615a12565b915050610baa565b508095505050505050919050565b6000610edc82612afa565b9050806060015173ffffffffffffffffffffffffffffffffffffffff163373ffffffffffffffffffffffffffffffffffffffff1614610f50576040517f08c379a0000000000000000000000000000000000000000000000000000000008152600401610f47906153b1565b60405180910390fd5b610f5b868884610fd7565b8673ffffffffffffffffffffffffffffffffffffffff1663627501b886863387876040518663ffffffff1660e01b8152600401610f9c959493929190615620565b600060405180830381600087803b158015610fb657600080fd5b505af1158015610fca573d6000803e3d6000fd5b5050505050505050505050565b600060086000610fe684612afa565b60000151815260200190815260200160002090508060030160009054906101000a900473ffffffffffffffffffffffffffffffffffffffff1673ffffffffffffffffffffffffffffffffffffffff163373ffffffffffffffffffffffffffffffffffffffff16148061108357503073ffffffffffffffffffffffffffffffffffffffff163373ffffffffffffffffffffffffffffffffffffffff16145b61108c57600080fd5b8373ffffffffffffffffffffffffffffffffffffffff166323b872dd8260030160009054906101000a900473ffffffffffffffffffffffffffffffffffffffff1685856040518463ffffffff1660e01b81526004016110ed93929190614ec7565b600060405180830381600087803b15801561110757600080fd5b505af115801561111b573d6000803e3d6000fd5b50505050600c60008260030160009054906101000a900473ffffffffffffffffffffffffffffffffffffffff1673ffffffffffffffffffffffffffffffffffffffff1673ffffffffffffffffffffffffffffffffffffffff168152602001908152602001600020600081548092919061119390615985565b9190505550600c60008473ffffffffffffffffffffffffffffffffffffffff1673ffffffffffffffffffffffffffffffffffffffff16815260200190815260200160002060008154809291906111e890615a12565b919050555060018160090160006101000a81548160ff0219169083600381111561123b577f4e487b7100000000000000000000000000000000000000000000000000000000600052602160045260246000fd5b0217905550828160030160006101000a81548173ffffffffffffffffffffffffffffffffffffffff021916908373ffffffffffffffffffffffffffffffffffffffff16021790555050505050565b60606112956004613e87565b67ffffffffffffffff8111156112d4577f4e487b7100000000000000000000000000000000000000000000000000000000600052604160045260246000fd5b60405190808252806020026020018201604052801561130d57816020015b6112fa613f91565b8152602001906001900390816112f25790505b5090506000600190505b8151811161157357600a60008281526020019081526020016000206040518060e001604052908160008201548152602001600182018054611357906159af565b80601f0160208091040260200160405190810160405280929190818152602001828054611383906159af565b80156113d05780601f106113a5576101008083540402835291602001916113d0565b820191906000526020600020905b8154815290600101906020018083116113b357829003601f168201915b50505050508152602001600282015481526020016003820160009054906101000a900460ff16600281111561142e577f4e487b7100000000000000000000000000000000000000000000000000000000600052602160045260246000fd5b6002811115611466577f4e487b7100000000000000000000000000000000000000000000000000000000600052602160045260246000fd5b815260200160048201805461147a906159af565b80601f01602080910402602001604051908101604052809291908181526020018280546114a6906159af565b80156114f35780601f106114c8576101008083540402835291602001916114f3565b820191906000526020600020905b8154815290600101906020018083116114d657829003601f168201915b50505050508152602001600582015481526020016006820154815250508260018361151e9190615823565b81518110611555577f4e487b7100000000000000000000000000000000000000000000000000000000600052603260045260246000fd5b6020026020010181905250808061156b90615a12565b915050611317565b5090565b606060006115856001613e87565b905060006115936002613e87565b61159d6005613e87565b836115a891906157cd565b6115b29190615823565b90506000806115c18684613e95565b905060008167ffffffffffffffff811115611605577f4e487b7100000000000000000000000000000000000000000000000000000000600052604160045260246000fd5b60405190808252806020026020018201604052801561163e57816020015b61162b613ec4565b8152602001906001900390816116235790505b50905060008590505b6000811115611949578284141561165d57611949565b60006003811115611697577f4e487b7100000000000000000000000000000000000000000000000000000000600052602160045260246000fd5b6008600083815260200190815260200160002060090160009054906101000a900460ff1660038111156116f3577f4e487b7100000000000000000000000000000000000000000000000000000000600052602160045260246000fd5b1415611936576000600860008381526020019081526020016000206040518061014001604052908160008201548152602001600182015481526020016002820160009054906101000a900473ffffffffffffffffffffffffffffffffffffffff1673ffffffffffffffffffffffffffffffffffffffff1673ffffffffffffffffffffffffffffffffffffffff1681526020016003820160009054906101000a900473ffffffffffffffffffffffffffffffffffffffff1673ffffffffffffffffffffffffffffffffffffffff1673ffffffffffffffffffffffffffffffffffffffff1681526020016004820160009054906101000a900473ffffffffffffffffffffffffffffffffffffffff1673ffffffffffffffffffffffffffffffffffffffff1673ffffffffffffffffffffffffffffffffffffffff168152602001600582015481526020016006820154815260200160078201548152602001600882015481526020016009820160009054906101000a900460ff1660038111156118a3577f4e487b7100000000000000000000000000000000000000000000000000000000600052602160045260246000fd5b60038111156118db577f4e487b7100000000000000000000000000000000000000000000000000000000600052602160045260246000fd5b8152505090508083868151811061191b577f4e487b7100000000000000000000000000000000000000000000000000000000600052603260045260246000fd5b6020026020010181905250848061193190615a12565b955050505b808061194190615985565b915050611647565b508095505050505050919050565b3373ffffffffffffffffffffffffffffffffffffffff16600660009054906101000a900473ffffffffffffffffffffffffffffffffffffffff1673ffffffffffffffffffffffffffffffffffffffff16146119e7576040517f08c379a00000000000000000000000000000000000000000000000000000000081526004016119de90615391565b60405180910390fd5b600082511415611a2c576040517f08c379a0000000000000000000000000000000000000000000000000000000008152600401611a2390615471565b60405180910390fd5b600081511415611a3b57600080fd5b611a456004613eae565b6000611a516004613e87565b90506040518060e0016040528082815260200185815260200142815260200160006002811115611aaa577f4e487b7100000000000000000000000000000000000000000000000000000000600052602160045260246000fd5b8152602001848152602001600081526020016000815250600a6000838152602001908152602001600020600082015181600001556020820151816001019080519060200190611afa929190614006565b506040820151816002015560608201518160030160006101000a81548160ff02191690836002811115611b56577f4e487b7100000000000000000000000000000000000000000000000000000000600052602160045260246000fd5b02179055506080820151816004019080519060200190611b77929190614006565b5060a0820151816005015560c0820151816006015590505081600b60008381526020019081526020016000209080519060200190611bb692919061408c565b50807f4ad0e5615b1c242c0e644cb5b2255aa337a06268781317cdc14d09d1a51eb1678542600087600080604051611bf39695949392919061528f565b60405180910390a250505050565b60606000611c0f6001613e87565b90506000600c60003373ffffffffffffffffffffffffffffffffffffffff1673ffffffffffffffffffffffffffffffffffffffff168152602001908152602001600020549050600080821415611ce457600067ffffffffffffffff811115611ca0577f4e487b7100000000000000000000000000000000000000000000000000000000600052604160045260246000fd5b604051908082528060200260200182016040528015611cd957816020015b611cc6613ec4565b815260200190600190039081611cbe5790505b50935050505061205f565b6000611cf08684613e95565b905060008167ffffffffffffffff811115611d34577f4e487b7100000000000000000000000000000000000000000000000000000000600052604160045260246000fd5b604051908082528060200260200182016040528015611d6d57816020015b611d5a613ec4565b815260200190600190039081611d525790505b50905060005b858110156120555782841415611d8857612055565b3373ffffffffffffffffffffffffffffffffffffffff1660086000600184611db091906157cd565b815260200190815260200160002060030160009054906101000a900473ffffffffffffffffffffffffffffffffffffffff1673ffffffffffffffffffffffffffffffffffffffff1614156120425760086000600183611e0f91906157cd565b81526020019081526020016000206040518061014001604052908160008201548152602001600182015481526020016002820160009054906101000a900473ffffffffffffffffffffffffffffffffffffffff1673ffffffffffffffffffffffffffffffffffffffff1673ffffffffffffffffffffffffffffffffffffffff1681526020016003820160009054906101000a900473ffffffffffffffffffffffffffffffffffffffff1673ffffffffffffffffffffffffffffffffffffffff1673ffffffffffffffffffffffffffffffffffffffff1681526020016004820160009054906101000a900473ffffffffffffffffffffffffffffffffffffffff1673ffffffffffffffffffffffffffffffffffffffff1673ffffffffffffffffffffffffffffffffffffffff168152602001600582015481526020016006820154815260200160078201548152602001600882015481526020016009820160009054906101000a900460ff166003811115611fb2577f4e487b7100000000000000000000000000000000000000000000000000000000600052602160045260246000fd5b6003811115611fea577f4e487b7100000000000000000000000000000000000000000000000000000000600052602160045260246000fd5b81525050828581518110612027577f4e487b7100000000000000000000000000000000000000000000000000000000600052603260045260246000fd5b602002602001018190525060018461203f91906157cd565b93505b808061204d90615a12565b915050611d73565b5080955050505050505b919050565b3373ffffffffffffffffffffffffffffffffffffffff16600660009054906101000a900473ffffffffffffffffffffffffffffffffffffffff1673ffffffffffffffffffffffffffffffffffffffff16146120f4576040517f08c379a00000000000000000000000000000000000000000000000000000000081526004016120eb90615391565b60405180910390fd5b3373ffffffffffffffffffffffffffffffffffffffff16600660009054906101000a900473ffffffffffffffffffffffffffffffffffffffff1673ffffffffffffffffffffffffffffffffffffffff1614612184576040517f08c379a000000000000000000000000000000000000000000000000000000000815260040161217b906153b1565b60405180910390fd5b8060078190555050565b60006008600084815260200190815260200160002090506000816001015490508160030160009054906101000a900473ffffffffffffffffffffffffffffffffffffffff1673ffffffffffffffffffffffffffffffffffffffff163373ffffffffffffffffffffffffffffffffffffffff1614612240576040517f08c379a0000000000000000000000000000000000000000000000000000000008152600401612237906154b1565b60405180910390fd5b6000600381111561227a577f4e487b7100000000000000000000000000000000000000000000000000000000600052602160045260246000fd5b8260090160009054906101000a900460ff1660038111156122c4577f4e487b7100000000000000000000000000000000000000000000000000000000600052602160045260246000fd5b1415612305576040517f08c379a00000000000000000000000000000000000000000000000000000000081526004016122fc906153f1565b60405180910390fd5b60075434101561234a576040517f08c379a0000000000000000000000000000000000000000000000000000000008152600401612341906153d1565b60405180910390fd5b82826005018190555060008260090160006101000a81548160ff021916908360038111156123a1577f4e487b7100000000000000000000000000000000000000000000000000000000600052602160045260246000fd5b02179055506123b06005613eae565b816006015481857fb6a6e5a1d1cba81612d627d3d366515af9bc54786897c5bb629f44b2ca1949bc8833600660009054906101000a900473ffffffffffffffffffffffffffffffffffffffff168989600701548a60080154600060405161241d9796959493929190615004565b60405180910390a45050505050565b600660009054906101000a900473ffffffffffffffffffffffffffffffffffffffff1681565b60026000541415612498576040517f08c379a000000000000000000000000000000000000000000000000000000000815260040161248f90615491565b60405180910390fd5b60026000819055506000600860008381526020019081526020016000206040518061014001604052908160008201548152602001600182015481526020016002820160009054906101000a900473ffffffffffffffffffffffffffffffffffffffff1673ffffffffffffffffffffffffffffffffffffffff1673ffffffffffffffffffffffffffffffffffffffff1681526020016003820160009054906101000a900473ffffffffffffffffffffffffffffffffffffffff1673ffffffffffffffffffffffffffffffffffffffff1673ffffffffffffffffffffffffffffffffffffffff1681526020016004820160009054906101000a900473ffffffffffffffffffffffffffffffffffffffff1673ffffffffffffffffffffffffffffffffffffffff1673ffffffffffffffffffffffffffffffffffffffff168152602001600582015481526020016006820154815260200160078201548152602001600882015481526020016009820160009054906101000a900460ff16600381111561264a577f4e487b7100000000000000000000000000000000000000000000000000000000600052602160045260246000fd5b6003811115612682577f4e487b7100000000000000000000000000000000000000000000000000000000600052602160045260246000fd5b81525050905060008160a001519050600082602001519050813410156126a757600080fd5b8473ffffffffffffffffffffffffffffffffffffffff166323b872dd3033846040518463ffffffff1660e01b81526004016126e49392919061518d565b600060405180830381600087803b1580156126fe57600080fd5b505af1158015612712573d6000803e3d6000fd5b50505050600c60003373ffffffffffffffffffffffffffffffffffffffff1673ffffffffffffffffffffffffffffffffffffffff168152602001908152602001600020600081548092919061276690615a12565b9190505550600183610120019060038111156127ab577f4e487b7100000000000000000000000000000000000000000000000000000000600052602160045260246000fd5b908160038111156127e5577f4e487b7100000000000000000000000000000000000000000000000000000000600052602160045260246000fd5b8152505033836060019073ffffffffffffffffffffffffffffffffffffffff16908173ffffffffffffffffffffffffffffffffffffffff168152505061282b6002613eae565b826080015173ffffffffffffffffffffffffffffffffffffffff166108fc839081150290604051600060405180830381858888f19350505050158015612875573d6000803e3d6000fd5b508260086000868152602001908152602001600020600082015181600001556020820151816001015560408201518160020160006101000a81548173ffffffffffffffffffffffffffffffffffffffff021916908373ffffffffffffffffffffffffffffffffffffffff16021790555060608201518160030160006101000a81548173ffffffffffffffffffffffffffffffffffffffff021916908373ffffffffffffffffffffffffffffffffffffffff16021790555060808201518160040160006101000a81548173ffffffffffffffffffffffffffffffffffffffff021916908373ffffffffffffffffffffffffffffffffffffffff16021790555060a0820151816005015560c0820151816006015560e0820151816007015561010082015181600801556101208201518160090160006101000a81548160ff021916908360038111156129ee577f4e487b7100000000000000000000000000000000000000000000000000000000600052602160045260246000fd5b0217905550905050600860008581526020019081526020016000206006015481857fb6a6e5a1d1cba81612d627d3d366515af9bc54786897c5bb629f44b2ca1949bc88600860008a815260200190815260200160002060030160009054906101000a900473ffffffffffffffffffffffffffffffffffffffff16600860008b815260200190815260200160002060040160009054906101000a900473ffffffffffffffffffffffffffffffffffffffff1688600860008d815260200190815260200160002060070154600860008e8152602001908152602001600020600801546001604051612ae39796959493929190614efe565b60405180910390a450505060016000819055505050565b612b02613ec4565b60005b612b0f6001613e87565b811015612d4b578260086000600184612b2891906157cd565b8152602001908152602001600020600101541415612d385760086000600183612b5191906157cd565b81526020019081526020016000206040518061014001604052908160008201548152602001600182015481526020016002820160009054906101000a900473ffffffffffffffffffffffffffffffffffffffff1673ffffffffffffffffffffffffffffffffffffffff1673ffffffffffffffffffffffffffffffffffffffff1681526020016003820160009054906101000a900473ffffffffffffffffffffffffffffffffffffffff1673ffffffffffffffffffffffffffffffffffffffff1673ffffffffffffffffffffffffffffffffffffffff1681526020016004820160009054906101000a900473ffffffffffffffffffffffffffffffffffffffff1673ffffffffffffffffffffffffffffffffffffffff1673ffffffffffffffffffffffffffffffffffffffff168152602001600582015481526020016006820154815260200160078201548152602001600882015481526020016009820160009054906101000a900460ff166003811115612cf4577f4e487b7100000000000000000000000000000000000000000000000000000000600052602160045260246000fd5b6003811115612d2c577f4e487b7100000000000000000000000000000000000000000000000000000000600052602160045260246000fd5b81525050915050612d8e565b8080612d4390615a12565b915050612b05565b506000612d8d576040517f08c379a0000000000000000000000000000000000000000000000000000000008152600401612d8490615451565b60405180910390fd5b5b919050565b60075481565b6000806000905060005b8351811015612e4b5781848281518110612de6577f4e487b7100000000000000000000000000000000000000000000000000000000600052603260045260246000fd5b60200260200101511115612e3857838181518110612e2d577f4e487b7100000000000000000000000000000000000000000000000000000000600052603260045260246000fd5b602002602001015191505b8080612e4390615a12565b915050612da3565b5080915050919050565b6009602052806000526040600020600091509050806000015490806001018054612e7e906159af565b80601f0160208091040260200160405190810160405280929190818152602001828054612eaa906159af565b8015612ef75780601f10612ecc57610100808354040283529160200191612ef7565b820191906000526020600020905b815481529060010190602001808311612eda57829003601f168201915b505050505090806002018054612f0c906159af565b80601f0160208091040260200160405190810160405280929190818152602001828054612f38906159af565b8015612f855780601f10612f5a57610100808354040283529160200191612f85565b820191906000526020600020905b815481529060010190602001808311612f6857829003601f168201915b5050505050905083565b6060612f9b6003613e87565b67ffffffffffffffff811115612fda577f4e487b7100000000000000000000000000000000000000000000000000000000600052604160045260246000fd5b60405190808252806020026020018201604052801561301357816020015b6130006140d9565b815260200190600190039081612ff85790505b5090506000600190505b815181116131d457600960008281526020019081526020016000206040518060600160405290816000820154815260200160018201805461305d906159af565b80601f0160208091040260200160405190810160405280929190818152602001828054613089906159af565b80156130d65780601f106130ab576101008083540402835291602001916130d6565b820191906000526020600020905b8154815290600101906020018083116130b957829003601f168201915b505050505081526020016002820180546130ef906159af565b80601f016020809104026020016040519081016040528092919081815260200182805461311b906159af565b80156131685780601f1061313d57610100808354040283529160200191613168565b820191906000526020600020905b81548152906001019060200180831161314b57829003601f168201915b5050505050815250508260018361317f9190615823565b815181106131b6577f4e487b7100000000000000000000000000000000000000000000000000000000600052603260045260246000fd5b602002602001018190525080806131cc90615a12565b91505061301d565b5090565b3373ffffffffffffffffffffffffffffffffffffffff16600660009054906101000a900473ffffffffffffffffffffffffffffffffffffffff1673ffffffffffffffffffffffffffffffffffffffff1614613268576040517f08c379a000000000000000000000000000000000000000000000000000000000815260040161325f90615391565b60405180910390fd5b600260005414156132ae576040517f08c379a00000000000000000000000000000000000000000000000000000000081526004016132a590615491565b60405180910390fd5b6002600081905550600081116132c357600080fd5b6132cd6001613e87565b84101561330f576040517f08c379a000000000000000000000000000000000000000000000000000000000815260040161330690615331565b60405180910390fd5b6133196004613e87565b83111561335b576040517f08c379a000000000000000000000000000000000000000000000000000000000815260040161335290615311565b60405180910390fd5b6133656001613eae565b60006133716001613e87565b90506000600a600086815260200190815260200160002090506040518061014001604052808381526020018781526020018873ffffffffffffffffffffffffffffffffffffffff168152602001600073ffffffffffffffffffffffffffffffffffffffff1681526020013373ffffffffffffffffffffffffffffffffffffffff1681526020018481526020018681526020016001836005015461341491906157cd565b815260200185815260200160006003811115613459577f4e487b7100000000000000000000000000000000000000000000000000000000600052602160045260246000fd5b81525060086000848152602001908152602001600020600082015181600001556020820151816001015560408201518160020160006101000a81548173ffffffffffffffffffffffffffffffffffffffff021916908373ffffffffffffffffffffffffffffffffffffffff16021790555060608201518160030160006101000a81548173ffffffffffffffffffffffffffffffffffffffff021916908373ffffffffffffffffffffffffffffffffffffffff16021790555060808201518160040160006101000a81548173ffffffffffffffffffffffffffffffffffffffff021916908373ffffffffffffffffffffffffffffffffffffffff16021790555060a0820151816005015560c0820151816006015560e0820151816007015561010082015181600801556101208201518160090160006101000a81548160ff021916908360038111156135d3577f4e487b7100000000000000000000000000000000000000000000000000000000600052602160045260246000fd5b021790555090505060018160050160008282546135f091906157cd565b925050819055508673ffffffffffffffffffffffffffffffffffffffff166323b872dd3330896040518463ffffffff1660e01b81526004016136349392919061518d565b600060405180830381600087803b15801561364e57600080fd5b505af1158015613662573d6000803e3d6000fd5b505050508486837fb6a6e5a1d1cba81612d627d3d366515af9bc54786897c5bb629f44b2ca1949bc8a600033898b896005015460006040516136aa979695949392919061510a565b60405180910390a4505060016000819055505050505050565b6136cb613f91565b6060826136d86004613e87565b1015613719576040517f08c379a000000000000000000000000000000000000000000000000000000000815260040161371090615451565b60405180910390fd5b600a60008481526020019081526020016000206040518060e001604052908160008201548152602001600182018054613751906159af565b80601f016020809104026020016040519081016040528092919081815260200182805461377d906159af565b80156137ca5780601f1061379f576101008083540402835291602001916137ca565b820191906000526020600020905b8154815290600101906020018083116137ad57829003601f168201915b50505050508152602001600282015481526020016003820160009054906101000a900460ff166002811115613828577f4e487b7100000000000000000000000000000000000000000000000000000000600052602160045260246000fd5b6002811115613860577f4e487b7100000000000000000000000000000000000000000000000000000000600052602160045260246000fd5b8152602001600482018054613874906159af565b80601f01602080910402602001604051908101604052809291908181526020018280546138a0906159af565b80156138ed5780601f106138c2576101008083540402835291602001916138ed565b820191906000526020600020905b8154815290600101906020018083116138d057829003601f168201915b50505050508152602001600582015481526020016006820154815250509150600b60008481526020019081526020016000208054905067ffffffffffffffff811115613962577f4e487b7100000000000000000000000000000000000000000000000000000000600052604160045260246000fd5b60405190808252806020026020018201604052801561399b57816020015b6139886140d9565b8152602001906001900390816139805790505b50905060005b600b600085815260200190815260200160002080549050811015613bb75760096000600b60008781526020019081526020016000208381548110613a0e577f4e487b7100000000000000000000000000000000000000000000000000000000600052603260045260246000fd5b9060005260206000200154815260200190815260200160002060405180606001604052908160008201548152602001600182018054613a4c906159af565b80601f0160208091040260200160405190810160405280929190818152602001828054613a78906159af565b8015613ac55780601f10613a9a57610100808354040283529160200191613ac5565b820191906000526020600020905b815481529060010190602001808311613aa857829003601f168201915b50505050508152602001600282018054613ade906159af565b80601f0160208091040260200160405190810160405280929190818152602001828054613b0a906159af565b8015613b575780601f10613b2c57610100808354040283529160200191613b57565b820191906000526020600020905b815481529060010190602001808311613b3a57829003601f168201915b505050505081525050828281518110613b99577f4e487b7100000000000000000000000000000000000000000000000000000000600052603260045260246000fd5b60200260200101819052508080613baf90615a12565b9150506139a1565b50915091565b60086020528060005260406000206000915090508060000154908060010154908060020160009054906101000a900473ffffffffffffffffffffffffffffffffffffffff16908060030160009054906101000a900473ffffffffffffffffffffffffffffffffffffffff16908060040160009054906101000a900473ffffffffffffffffffffffffffffffffffffffff16908060050154908060060154908060070154908060080154908060090160009054906101000a900460ff1690508a565b3373ffffffffffffffffffffffffffffffffffffffff16600660009054906101000a900473ffffffffffffffffffffffffffffffffffffffff1673ffffffffffffffffffffffffffffffffffffffff1614613d0e576040517f08c379a0000000000000000000000000000000000000000000000000000000008152600401613d0590615391565b60405180910390fd5b600081511415613d53576040517f08c379a0000000000000000000000000000000000000000000000000000000008152600401613d4a90615471565b60405180910390fd5b613d5d6003613eae565b6040518060600160405280613d726003613e87565b81526020018381526020018281525060096000613d8f6003613e87565b8152602001908152602001600020600082015181600001556020820151816001019080519060200190613dc3929190614006565b506040820151816002019080519060200190613de0929190614006565b50905050613dee6003613e87565b7f3a1a6624730a36ec5bce3c780f724d278f1b8bb76d4cd5f34abcaf9087aaab1f8383604051613e1f929190615245565b60405180910390a25050565b60008160000154905060008111613e77576040517f08c379a0000000000000000000000000000000000000000000000000000000008152600401613e6e90615351565b60405180910390fd5b6001810382600001819055505050565b600081600001549050919050565b6000818310613ea45781613ea6565b825b905092915050565b6001816000016000828254019250508190555050565b6040518061014001604052806000815260200160008152602001600073ffffffffffffffffffffffffffffffffffffffff168152602001600073ffffffffffffffffffffffffffffffffffffffff168152602001600073ffffffffffffffffffffffffffffffffffffffff1681526020016000815260200160008152602001600081526020016000815260200160006003811115613f8b577f4e487b7100000000000000000000000000000000000000000000000000000000600052602160045260246000fd5b81525090565b6040518060e0016040528060008152602001606081526020016000815260200160006002811115613feb577f4e487b7100000000000000000000000000000000000000000000000000000000600052602160045260246000fd5b81526020016060815260200160008152602001600081525090565b828054614012906159af565b90600052602060002090601f016020900481019282614034576000855561407b565b82601f1061404d57805160ff191683800117855561407b565b8280016001018555821561407b579182015b8281111561407a57825182559160200191906001019061405f565b5b50905061408891906140fa565b5090565b8280548282559060005260206000209081019282156140c8579160200282015b828111156140c75782518255916020019190600101906140ac565b5b5090506140d591906140fa565b5090565b60405180606001604052806000815260200160608152602001606081525090565b5b808211156141135760008160009055506001016140fb565b5090565b600061412a61412584615698565b615673565b9050808382526020820190508285602086028201111561414957600080fd5b60005b85811015614179578161415f888261422a565b84526020840193506020830192505060018101905061414c565b5050509392505050565b6000614196614191846156c4565b615673565b9050828152602081018484840111156141ae57600080fd5b6141b9848285615943565b509392505050565b6000813590506141d081615ead565b92915050565b600082601f8301126141e757600080fd5b81356141f7848260208601614117565b91505092915050565b600082601f83011261421157600080fd5b8135614221848260208601614183565b91505092915050565b60008135905061423981615ec4565b92915050565b60008060006060848603121561425457600080fd5b6000614262868287016141c1565b9350506020614273868287016141c1565b92505060406142848682870161422a565b9150509250925092565b60008060008060008060c087890312156142a757600080fd5b60006142b589828a016141c1565b96505060206142c689828a016141c1565b95505060406142d789828a0161422a565b94505060606142e889828a0161422a565b93505060806142f989828a0161422a565b92505060a061430a89828a0161422a565b9150509295509295509295565b6000806040838503121561432a57600080fd5b6000614338858286016141c1565b92505060206143498582860161422a565b9150509250929050565b60008060006060848603121561436857600080fd5b6000614376868287016141c1565b93505060206143878682870161422a565b92505060406143988682870161422a565b9150509250925092565b600080600080600060a086880312156143ba57600080fd5b60006143c8888289016141c1565b95505060206143d98882890161422a565b94505060406143ea8882890161422a565b93505060606143fb8882890161422a565b925050608061440c8882890161422a565b9150509295509295909350565b60006020828403121561442b57600080fd5b600082013567ffffffffffffffff81111561444557600080fd5b614451848285016141d6565b91505092915050565b6000806040838503121561446d57600080fd5b600083013567ffffffffffffffff81111561448757600080fd5b614493858286016141d6565b92505060206144a48582860161422a565b9150509250929050565b600080604083850312156144c157600080fd5b600083013567ffffffffffffffff8111156144db57600080fd5b6144e785828601614200565b925050602083013567ffffffffffffffff81111561450457600080fd5b61451085828601614200565b9150509250929050565b60008060006060848603121561452f57600080fd5b600084013567ffffffffffffffff81111561454957600080fd5b61455586828701614200565b935050602084013567ffffffffffffffff81111561457257600080fd5b61457e86828701614200565b925050604084013567ffffffffffffffff81111561459b57600080fd5b6145a7868287016141d6565b9150509250925092565b6000602082840312156145c357600080fd5b60006145d18482850161422a565b91505092915050565b60006145e68383614b59565b905092915050565b60006145fa8383614c9f565b905092915050565b600061460e8383614cf6565b6101408301905092915050565b614624816158d7565b82525050565b61463381615869565b82525050565b61464281615869565b82525050565b61465181615857565b82525050565b61466081615857565b82525050565b600061467182615725565b61467b8185615778565b93508360208202850161468d856156f5565b8060005b858110156146c957848403895281516146aa85826145da565b94506146b583615751565b925060208a01995050600181019050614691565b50829750879550505050505092915050565b60006146e682615730565b6146f08185615789565b93508360208202850161470285615705565b8060005b8581101561473e578484038952815161471f85826145ee565b945061472a8361575e565b925060208a01995050600181019050614706565b50829750879550505050505092915050565b600061475b8261573b565b614765818561579a565b935061477083615715565b8060005b838110156147a15781516147888882614602565b97506147938361576b565b925050600181019050614774565b5085935050505092915050565b6147b78161587b565b82525050565b6147c6816158e9565b82525050565b6147d5816158e9565b82525050565b6147e4816158fb565b82525050565b6147f3816158fb565b82525050565b6148028161590d565b82525050565b600061481382615746565b61481d81856157ab565b935061482d818560208601615952565b61483681615b17565b840191505092915050565b600061484c82615746565b61485681856157bc565b9350614866818560208601615952565b61486f81615b17565b840191505092915050565b6000614887600f836157bc565b915061489282615b28565b602082019050919050565b60006148aa600f836157bc565b91506148b582615b51565b602082019050919050565b60006148cd600f836157bc565b91506148d882615b7a565b602082019050919050565b60006148f0601b836157bc565b91506148fb82615ba3565b602082019050919050565b60006149136010836157bc565b915061491e82615bcc565b602082019050919050565b60006149366018836157bc565b915061494182615bf5565b602082019050919050565b60006149596009836157bc565b915061496482615c1e565b602082019050919050565b600061497c600d836157bc565b915061498782615c47565b602082019050919050565b600061499f600e836157bc565b91506149aa82615c70565b602082019050919050565b60006149c2600d836157bc565b91506149cd82615c99565b602082019050919050565b60006149e56014836157bc565b91506149f082615cc2565b602082019050919050565b6000614a086010836157bc565b9150614a1382615ceb565b602082019050919050565b6000614a2b600e836157bc565b9150614a3682615d14565b602082019050919050565b6000614a4e6010836157bc565b9150614a5982615d3d565b602082019050919050565b6000614a716011836157bc565b9150614a7c82615d66565b602082019050919050565b6000614a94600d836157bc565b9150614a9f82615d8f565b602082019050919050565b6000614ab7600b836157bc565b9150614ac282615db8565b602082019050919050565b6000614ada600e836157bc565b9150614ae582615de1565b602082019050919050565b6000614afd601f836157bc565b9150614b0882615e0a565b602082019050919050565b6000614b206009836157bc565b9150614b2b82615e33565b602082019050919050565b6000614b43600d836157bc565b9150614b4e82615e5c565b602082019050919050565b600060e083016000830151614b716000860182614e8e565b5060208301518482036020860152614b898282614808565b9150506040830151614b9e6040860182614e8e565b506060830151614bb160608601826147bd565b5060808301518482036080860152614bc98282614808565b91505060a0830151614bde60a0860182614e8e565b5060c0830151614bf160c0860182614e8e565b508091505092915050565b600060e083016000830151614c146000860182614e8e565b5060208301518482036020860152614c2c8282614808565b9150506040830151614c416040860182614e8e565b506060830151614c5460608601826147bd565b5060808301518482036080860152614c6c8282614808565b91505060a0830151614c8160a0860182614e8e565b5060c0830151614c9460c0860182614e8e565b508091505092915050565b6000606083016000830151614cb76000860182614e8e565b5060208301518482036020860152614ccf8282614808565b91505060408301518482036040860152614ce98282614808565b9150508091505092915050565b61014082016000820151614d0d6000850182614e8e565b506020820151614d206020850182614e8e565b506040820151614d336040850182614648565b506060820151614d46606085018261462a565b506080820151614d59608085018261462a565b5060a0820151614d6c60a0850182614e8e565b5060c0820151614d7f60c0850182614e8e565b5060e0820151614d9260e0850182614e8e565b50610100820151614da7610100850182614e8e565b50610120820151614dbc6101208501826147db565b50505050565b61014082016000820151614dd96000850182614e8e565b506020820151614dec6020850182614e8e565b506040820151614dff6040850182614648565b506060820151614e12606085018261462a565b506080820151614e25608085018261462a565b5060a0820151614e3860a0850182614e8e565b5060c0820151614e4b60c0850182614e8e565b5060e0820151614e5e60e0850182614e8e565b50610100820151614e73610100850182614e8e565b50610120820151614e886101208501826147db565b50505050565b614e97816158cd565b82525050565b614ea6816158cd565b82525050565b6000602082019050614ec16000830184614639565b92915050565b6000606082019050614edc600083018661461b565b614ee96020830185614657565b614ef66040830184614e9d565b949350505050565b600061010082019050614f14600083018a614657565b614f21602083018961461b565b614f2e604083018861461b565b614f3b6060830187614e9d565b614f486080830186614e9d565b614f5560a0830185614e9d565b614f6260c08301846147ea565b81810360e0830152614f73816149d8565b905098975050505050505050565b600061010082019050614f97600083018a614657565b614fa46020830189614657565b614fb1604083018861461b565b614fbe6060830187614e9d565b614fcb6080830186614e9d565b614fd860a0830185614e9d565b614fe560c08301846147ea565b81810360e0830152614ff68161487a565b905098975050505050505050565b60006101008201905061501a600083018a614657565b6150276020830189614657565b615034604083018861461b565b6150416060830187614e9d565b61504e6080830186614e9d565b61505b60a0830185614e9d565b61506860c08301846147ea565b81810360e08301526150798161496f565b905098975050505050505050565b60006101008201905061509d600083018a614657565b6150aa6020830189614657565b6150b7604083018861461b565b6150c46060830187614e9d565b6150d16080830186614e9d565b6150de60a0830185614e9d565b6150eb60c08301846147ea565b81810360e08301526150fc81614b36565b905098975050505050505050565b600061010082019050615120600083018a614657565b61512d6020830189614657565b61513a6040830188614657565b6151476060830187614e9d565b6151546080830186614e9d565b61516160a0830185614e9d565b61516e60c08301846147ea565b81810360e083015261517f816149fb565b905098975050505050505050565b60006060820190506151a26000830186614657565b6151af6020830185614657565b6151bc6040830184614e9d565b949350505050565b600060208201905081810360008301526151de8184614666565b905092915050565b6000602082019050818103600083015261520081846146db565b905092915050565b600060208201905081810360008301526152228184614750565b905092915050565b600060208201905061523f60008301846147ae565b92915050565b6000606082019050818103600083015261525f8185614841565b905081810360208301526152738184614841565b9050818103604083015261528681614acd565b90509392505050565b600060e08201905081810360008301526152a98189614841565b90506152b86020830188614e9d565b6152c560408301876147cc565b81810360608301526152d78186614841565b90506152e660808301856147f9565b6152f360a08301846147f9565b81810360c0830152615304816149b5565b9050979650505050505050565b6000602082019050818103600083015261532a8161489d565b9050919050565b6000602082019050818103600083015261534a816148c0565b9050919050565b6000602082019050818103600083015261536a816148e3565b9050919050565b6000602082019050818103600083015261538a81614906565b9050919050565b600060208201905081810360008301526153aa81614929565b9050919050565b600060208201905081810360008301526153ca8161494c565b9050919050565b600060208201905081810360008301526153ea81614992565b9050919050565b6000602082019050818103600083015261540a81614a1e565b9050919050565b6000602082019050818103600083015261542a81614a41565b9050919050565b6000602082019050818103600083015261544a81614a64565b9050919050565b6000602082019050818103600083015261546a81614a87565b9050919050565b6000602082019050818103600083015261548a81614aaa565b9050919050565b600060208201905081810360008301526154aa81614af0565b9050919050565b600060208201905081810360008301526154ca81614b13565b9050919050565b600060408201905081810360008301526154eb8185614bfc565b905081810360208301526154ff81846146db565b90509392505050565b60006101408201905061551e6000830184614dc2565b92915050565b60006020820190506155396000830184614e9d565b92915050565b60006060820190506155546000830186614e9d565b81810360208301526155668185614841565b9050818103604083015261557a8184614841565b9050949350505050565b60006101408201905061559a600083018d614e9d565b6155a7602083018c614e9d565b6155b4604083018b614657565b6155c1606083018a614639565b6155ce6080830189614639565b6155db60a0830188614e9d565b6155e860c0830187614e9d565b6155f560e0830186614e9d565b615603610100830185614e9d565b6156116101208301846147ea565b9b9a5050505050505050505050565b600060a0820190506156356000830188614e9d565b6156426020830187614e9d565b61564f6040830186614657565b61565c6060830185614e9d565b6156696080830184614e9d565b9695505050505050565b600061567d61568e565b905061568982826159e1565b919050565b6000604051905090565b600067ffffffffffffffff8211156156b3576156b2615ae8565b5b602082029050602081019050919050565b600067ffffffffffffffff8211156156df576156de615ae8565b5b6156e882615b17565b9050602081019050919050565b6000819050602082019050919050565b6000819050602082019050919050565b6000819050602082019050919050565b600081519050919050565b600081519050919050565b600081519050919050565b600081519050919050565b6000602082019050919050565b6000602082019050919050565b6000602082019050919050565b600082825260208201905092915050565b600082825260208201905092915050565b600082825260208201905092915050565b600082825260208201905092915050565b600082825260208201905092915050565b60006157d8826158cd565b91506157e3836158cd565b9250827fffffffffffffffffffffffffffffffffffffffffffffffffffffffffffffffff0382111561581857615817615a5b565b5b828201905092915050565b600061582e826158cd565b9150615839836158cd565b92508282101561584c5761584b615a5b565b5b828203905092915050565b6000615862826158ad565b9050919050565b6000615874826158ad565b9050919050565b60008115159050919050565b600081905061589582615e85565b919050565b60008190506158a882615e99565b919050565b600073ffffffffffffffffffffffffffffffffffffffff82169050919050565b6000819050919050565b60006158e28261591f565b9050919050565b60006158f482615887565b9050919050565b60006159068261589a565b9050919050565b6000615918826158cd565b9050919050565b600061592a82615931565b9050919050565b600061593c826158ad565b9050919050565b82818337600083830152505050565b60005b83811015615970578082015181840152602081019050615955565b8381111561597f576000848401525b50505050565b6000615990826158cd565b915060008214156159a4576159a3615a5b565b5b600182039050919050565b600060028204905060018216806159c757607f821691505b602082108114156159db576159da615ab9565b5b50919050565b6159ea82615b17565b810181811067ffffffffffffffff82111715615a0957615a08615ae8565b5b80604052505050565b6000615a1d826158cd565b91507fffffffffffffffffffffffffffffffffffffffffffffffffffffffffffffffff821415615a5057615a4f615a5b565b5b600182019050919050565b7f4e487b7100000000000000000000000000000000000000000000000000000000600052601160045260246000fd5b7f4e487b7100000000000000000000000000000000000000000000000000000000600052602160045260246000fd5b7f4e487b7100000000000000000000000000000000000000000000000000000000600052602260045260246000fd5b7f4e487b7100000000000000000000000000000000000000000000000000000000600052604160045260246000fd5b6000601f19601f8301169050919050565b7f756e4c697374204d757369634e46540000000000000000000000000000000000600082015250565b7f496e76616c696420416c62756d49640000000000000000000000000000000000600082015250565b7f696e76616c696420546f6b656e49640000000000000000000000000000000000600082015250565b7f436f756e7465723a2064656372656d656e74206f766572666c6f770000000000600082015250565b7f616c726561647920756e4c697374656400000000000000000000000000000000600082015250565b7f43616c6c6572206d75737420626520746865206f776e65720000000000000000600082015250565b7f4e6f74204f776e65720000000000000000000000000000000000000000000000600082015250565b7f4c697374204d757369634e465400000000000000000000000000000000000000600082015250565b7f496e737566666963656e74204c50000000000000000000000000000000000000600082015250565b7f4372656174656420416c62756d00000000000000000000000000000000000000600082015250565b7f5472616e73666572726564204d757369634e4654000000000000000000000000600082015250565b7f43726561746564204d757369634e465400000000000000000000000000000000600082015250565b7f616c7265616479204c6973746564000000000000000000000000000000000000600082015250565b7f4974656d73206e6f74204c697374656400000000000000000000000000000000600082015250565b7f496e737566666963656e742066756e6473000000000000000000000000000000600082015250565b7f496e76616c696420546f6b656e00000000000000000000000000000000000000600082015250565b7f496e76616c696420555249000000000000000000000000000000000000000000600082015250565b7f4172746973742043726561746564000000000000000000000000000000000000600082015250565b7f5265656e7472616e637947756172643a207265656e7472616e742063616c6c00600082015250565b7f6e6f74206f776e65720000000000000000000000000000000000000000000000600082015250565b7f536f6c64204d757369634e465400000000000000000000000000000000000000600082015250565b60038110615e9657615e95615a8a565b5b50565b60048110615eaa57615ea9615a8a565b5b50565b615eb681615857565b8114615ec157600080fd5b50565b615ecd816158cd565b8114615ed857600080fd5b5056fea2646970667358221220925aa7f6fa6e03e182482208b89d76a7465a85e59040ac41ff6eba69ddbe77e464736f6c63430008040033",
  "linkReferences": {},
  "deployedLinkReferences": {}
}