{
  "_format": "hh-sol-artifact-1",
  "contractName": "MusicMarket",
  "sourceName": "contracts/MusicMarket.sol",
  "abi": [
    {
      "inputs": [],
      "stateMutability": "nonpayable",
      "type": "constructor"
    },
    {
      "anonymous": false,
      "inputs": [
        {
          "indexed": true,
          "internalType": "uint256",
          "name": "albumId",
          "type": "uint256"
        },
        {
          "indexed": false,
          "internalType": "string",
          "name": "albumName",
          "type": "string"
        },
        {
          "indexed": false,
          "internalType": "uint256",
          "name": "createdAt",
          "type": "uint256"
        },
        {
          "indexed": false,
          "internalType": "enum MusicMarket.AlbumStatus",
          "name": "Status",
          "type": "uint8"
        },
        {
          "indexed": false,
          "internalType": "string",
          "name": "coverUrl",
          "type": "string"
        },
        {
          "indexed": false,
          "internalType": "uint256",
          "name": "mintedSongs",
          "type": "uint256"
        },
        {
          "indexed": false,
          "internalType": "uint256",
          "name": "soldSongs",
          "type": "uint256"
        },
        {
          "indexed": false,
          "internalType": "string",
          "name": "message",
          "type": "string"
        }
      ],
      "name": "AlbumEvent",
      "type": "event"
    },
    {
      "anonymous": false,
      "inputs": [
        {
          "indexed": true,
          "internalType": "uint256",
          "name": "artistId",
          "type": "uint256"
        },
        {
          "indexed": false,
          "internalType": "string",
          "name": "artistName",
          "type": "string"
        },
        {
          "indexed": false,
          "internalType": "enum MusicMarket.ArtistStatus",
          "name": "Status",
          "type": "uint8"
        },
        {
          "indexed": false,
          "internalType": "string",
          "name": "url",
          "type": "string"
        },
        {
          "indexed": false,
          "internalType": "string",
          "name": "message",
          "type": "string"
        }
      ],
      "name": "ArtistEvent",
      "type": "event"
    },
    {
      "anonymous": false,
      "inputs": [
        {
          "indexed": true,
          "internalType": "uint256",
          "name": "itemId",
          "type": "uint256"
        },
        {
          "indexed": true,
          "internalType": "uint256",
          "name": "tokenId",
          "type": "uint256"
        },
        {
          "indexed": false,
          "internalType": "address",
          "name": "musicContract",
          "type": "address"
        },
        {
          "indexed": false,
          "internalType": "address",
          "name": "owner",
          "type": "address"
        },
        {
          "indexed": false,
          "internalType": "address",
          "name": "seller",
          "type": "address"
        },
        {
          "indexed": false,
          "internalType": "uint256",
          "name": "price",
          "type": "uint256"
        },
        {
          "indexed": true,
          "internalType": "uint256",
          "name": "albumId",
          "type": "uint256"
        },
        {
          "indexed": false,
          "internalType": "uint256",
          "name": "trackNumber",
          "type": "uint256"
        },
        {
          "indexed": false,
          "internalType": "uint256",
          "name": "artistId",
          "type": "uint256"
        },
        {
          "indexed": false,
          "internalType": "enum MusicMarket.SongStatus",
          "name": "status",
          "type": "uint8"
        },
        {
          "indexed": false,
          "internalType": "string",
          "name": "message",
          "type": "string"
        }
      ],
      "name": "SongEvent",
      "type": "event"
    },
    {
      "inputs": [
        {
          "internalType": "address",
          "name": "musicContract",
          "type": "address"
        },
        {
          "internalType": "uint256",
          "name": "tokenId",
          "type": "uint256"
        }
      ],
      "name": "BuySong",
      "outputs": [
        {
          "components": [
            {
              "internalType": "uint256",
              "name": "itemId",
              "type": "uint256"
            },
            {
              "internalType": "uint256",
              "name": "tokenId",
              "type": "uint256"
            },
            {
              "internalType": "address",
              "name": "musicContract",
              "type": "address"
            },
            {
              "internalType": "address payable",
              "name": "owner",
              "type": "address"
            },
            {
              "internalType": "address payable",
              "name": "seller",
              "type": "address"
            },
            {
              "internalType": "uint256",
              "name": "price",
              "type": "uint256"
            },
            {
              "internalType": "uint256",
              "name": "albumId",
              "type": "uint256"
            },
            {
              "internalType": "uint256",
              "name": "trackNumber",
              "type": "uint256"
            },
            {
              "internalType": "uint256",
              "name": "artistId",
              "type": "uint256"
            },
            {
              "internalType": "enum MusicMarket.SongStatus",
              "name": "status",
              "type": "uint8"
            }
          ],
          "internalType": "struct MusicMarket.Song",
          "name": "",
          "type": "tuple"
        }
      ],
      "stateMutability": "payable",
      "type": "function"
    },
    {
      "inputs": [
        {
          "internalType": "address",
          "name": "musicContract",
          "type": "address"
        },
        {
          "internalType": "uint256",
          "name": "itemId",
          "type": "uint256"
        }
      ],
      "name": "CancelItem",
      "outputs": [],
      "stateMutability": "payable",
      "type": "function"
    },
    {
      "inputs": [
        {
          "internalType": "uint256",
          "name": "",
          "type": "uint256"
        }
      ],
      "name": "artists",
      "outputs": [
        {
          "internalType": "string",
          "name": "artistName",
          "type": "string"
        },
        {
          "internalType": "enum MusicMarket.ArtistStatus",
          "name": "Status",
          "type": "uint8"
        },
        {
          "internalType": "string",
          "name": "url",
          "type": "string"
        }
      ],
      "stateMutability": "view",
      "type": "function"
    },
    {
      "inputs": [
        {
          "internalType": "string",
          "name": "albumName",
          "type": "string"
        },
        {
          "internalType": "string",
          "name": "uri",
          "type": "string"
        },
        {
          "internalType": "uint256[]",
          "name": "_artists",
          "type": "uint256[]"
        }
      ],
      "name": "createAlbum",
      "outputs": [
        {
          "internalType": "uint256",
          "name": "albumId",
          "type": "uint256"
        }
      ],
      "stateMutability": "nonpayable",
      "type": "function"
    },
    {
      "inputs": [
        {
          "internalType": "string",
          "name": "artistName",
          "type": "string"
        },
        {
          "internalType": "string",
          "name": "uri",
          "type": "string"
        }
      ],
      "name": "createArtist",
      "outputs": [
        {
          "internalType": "uint256",
          "name": "artistID",
          "type": "uint256"
        }
      ],
      "stateMutability": "nonpayable",
      "type": "function"
    },
    {
      "inputs": [
        {
          "internalType": "address",
          "name": "musicContract",
          "type": "address"
        },
        {
          "internalType": "uint256",
          "name": "tokenId",
          "type": "uint256"
        },
        {
          "internalType": "uint256",
          "name": "albumId",
          "type": "uint256"
        },
        {
          "internalType": "uint256",
          "name": "artistId",
          "type": "uint256"
        },
        {
          "internalType": "uint256",
          "name": "price",
          "type": "uint256"
        }
      ],
      "name": "createSong",
      "outputs": [],
      "stateMutability": "payable",
      "type": "function"
    },
    {
      "inputs": [
        {
          "internalType": "address",
          "name": "musicContract",
          "type": "address"
        },
        {
          "internalType": "uint256",
          "name": "itemId",
          "type": "uint256"
        }
      ],
      "name": "createSongSale",
      "outputs": [
        {
          "components": [
            {
              "internalType": "uint256",
              "name": "itemId",
              "type": "uint256"
            },
            {
              "internalType": "uint256",
              "name": "tokenId",
              "type": "uint256"
            },
            {
              "internalType": "address",
              "name": "musicContract",
              "type": "address"
            },
            {
              "internalType": "address payable",
              "name": "owner",
              "type": "address"
            },
            {
              "internalType": "address payable",
              "name": "seller",
              "type": "address"
            },
            {
              "internalType": "uint256",
              "name": "price",
              "type": "uint256"
            },
            {
              "internalType": "uint256",
              "name": "albumId",
              "type": "uint256"
            },
            {
              "internalType": "uint256",
              "name": "trackNumber",
              "type": "uint256"
            },
            {
              "internalType": "uint256",
              "name": "artistId",
              "type": "uint256"
            },
            {
              "internalType": "enum MusicMarket.SongStatus",
              "name": "status",
              "type": "uint8"
            }
          ],
          "internalType": "struct MusicMarket.Song",
          "name": "",
          "type": "tuple"
        }
      ],
      "stateMutability": "payable",
      "type": "function"
    },
    {
      "inputs": [
        {
          "internalType": "uint256",
          "name": "limit",
          "type": "uint256"
        }
      ],
      "name": "fetchMyMusicNFTs",
      "outputs": [
        {
          "components": [
            {
              "internalType": "uint256",
              "name": "itemId",
              "type": "uint256"
            },
            {
              "internalType": "uint256",
              "name": "tokenId",
              "type": "uint256"
            },
            {
              "internalType": "address",
              "name": "musicContract",
              "type": "address"
            },
            {
              "internalType": "address payable",
              "name": "owner",
              "type": "address"
            },
            {
              "internalType": "address payable",
              "name": "seller",
              "type": "address"
            },
            {
              "internalType": "uint256",
              "name": "price",
              "type": "uint256"
            },
            {
              "internalType": "uint256",
              "name": "albumId",
              "type": "uint256"
            },
            {
              "internalType": "uint256",
              "name": "trackNumber",
              "type": "uint256"
            },
            {
              "internalType": "uint256",
              "name": "artistId",
              "type": "uint256"
            },
            {
              "internalType": "enum MusicMarket.SongStatus",
              "name": "status",
              "type": "uint8"
            }
          ],
          "internalType": "struct MusicMarket.Song[]",
          "name": "",
          "type": "tuple[]"
        }
      ],
      "stateMutability": "view",
      "type": "function"
    },
    {
      "inputs": [
        {
          "internalType": "uint256",
          "name": "albumId",
          "type": "uint256"
        }
      ],
      "name": "getAlbum",
      "outputs": [
        {
          "components": [
            {
              "internalType": "string",
              "name": "albumName",
              "type": "string"
            },
            {
              "internalType": "uint256",
              "name": "createdAt",
              "type": "uint256"
            },
            {
              "internalType": "enum MusicMarket.AlbumStatus",
              "name": "Status",
              "type": "uint8"
            },
            {
              "internalType": "string",
              "name": "coverUrl",
              "type": "string"
            },
            {
              "internalType": "uint256",
              "name": "mintedSongs",
              "type": "uint256"
            },
            {
              "internalType": "uint256",
              "name": "soldSongs",
              "type": "uint256"
            }
          ],
          "internalType": "struct MusicMarket.Album",
          "name": "_album",
          "type": "tuple"
        },
        {
          "internalType": "uint256[]",
          "name": "_artists",
          "type": "uint256[]"
        }
      ],
      "stateMutability": "view",
      "type": "function"
    },
    {
      "inputs": [],
      "name": "getAlbums",
      "outputs": [
        {
          "components": [
            {
              "internalType": "string",
              "name": "albumName",
              "type": "string"
            },
            {
              "internalType": "uint256",
              "name": "createdAt",
              "type": "uint256"
            },
            {
              "internalType": "enum MusicMarket.AlbumStatus",
              "name": "Status",
              "type": "uint8"
            },
            {
              "internalType": "string",
              "name": "coverUrl",
              "type": "string"
            },
            {
              "internalType": "uint256",
              "name": "mintedSongs",
              "type": "uint256"
            },
            {
              "internalType": "uint256",
              "name": "soldSongs",
              "type": "uint256"
            }
          ],
          "internalType": "struct MusicMarket.Album[]",
          "name": "data",
          "type": "tuple[]"
        }
      ],
      "stateMutability": "view",
      "type": "function"
    },
    {
      "inputs": [],
      "name": "getArtists",
      "outputs": [
        {
          "components": [
            {
              "internalType": "string",
              "name": "artistName",
              "type": "string"
            },
            {
              "internalType": "enum MusicMarket.ArtistStatus",
              "name": "Status",
              "type": "uint8"
            },
            {
              "internalType": "string",
              "name": "url",
              "type": "string"
            }
          ],
          "internalType": "struct MusicMarket.Artist[]",
          "name": "data",
          "type": "tuple[]"
        }
      ],
      "stateMutability": "view",
      "type": "function"
    },
    {
      "inputs": [
        {
          "internalType": "uint256",
          "name": "tokenId",
          "type": "uint256"
        }
      ],
      "name": "getItemByTokenId",
      "outputs": [
        {
          "components": [
            {
              "internalType": "uint256",
              "name": "itemId",
              "type": "uint256"
            },
            {
              "internalType": "uint256",
              "name": "tokenId",
              "type": "uint256"
            },
            {
              "internalType": "address",
              "name": "musicContract",
              "type": "address"
            },
            {
              "internalType": "address payable",
              "name": "owner",
              "type": "address"
            },
            {
              "internalType": "address payable",
              "name": "seller",
              "type": "address"
            },
            {
              "internalType": "uint256",
              "name": "price",
              "type": "uint256"
            },
            {
              "internalType": "uint256",
              "name": "albumId",
              "type": "uint256"
            },
            {
              "internalType": "uint256",
              "name": "trackNumber",
              "type": "uint256"
            },
            {
              "internalType": "uint256",
              "name": "artistId",
              "type": "uint256"
            },
            {
              "internalType": "enum MusicMarket.SongStatus",
              "name": "status",
              "type": "uint8"
            }
          ],
          "internalType": "struct MusicMarket.Song",
          "name": "item",
          "type": "tuple"
        }
      ],
      "stateMutability": "view",
      "type": "function"
    },
    {
      "inputs": [
        {
          "internalType": "uint256",
          "name": "limit",
          "type": "uint256"
        }
      ],
      "name": "getLastMinted",
      "outputs": [
        {
          "components": [
            {
              "internalType": "uint256",
              "name": "itemId",
              "type": "uint256"
            },
            {
              "internalType": "uint256",
              "name": "tokenId",
              "type": "uint256"
            },
            {
              "internalType": "address",
              "name": "musicContract",
              "type": "address"
            },
            {
              "internalType": "address payable",
              "name": "owner",
              "type": "address"
            },
            {
              "internalType": "address payable",
              "name": "seller",
              "type": "address"
            },
            {
              "internalType": "uint256",
              "name": "price",
              "type": "uint256"
            },
            {
              "internalType": "uint256",
              "name": "albumId",
              "type": "uint256"
            },
            {
              "internalType": "uint256",
              "name": "trackNumber",
              "type": "uint256"
            },
            {
              "internalType": "uint256",
              "name": "artistId",
              "type": "uint256"
            },
            {
              "internalType": "enum MusicMarket.SongStatus",
              "name": "status",
              "type": "uint8"
            }
          ],
          "internalType": "struct MusicMarket.Song[]",
          "name": "",
          "type": "tuple[]"
        }
      ],
      "stateMutability": "view",
      "type": "function"
    },
    {
      "inputs": [],
      "name": "getListingPrice",
      "outputs": [
        {
          "internalType": "uint256",
          "name": "",
          "type": "uint256"
        }
      ],
      "stateMutability": "view",
      "type": "function"
    },
    {
      "inputs": [
        {
          "internalType": "uint256",
          "name": "limit",
          "type": "uint256"
        }
      ],
      "name": "getSongs",
      "outputs": [
        {
          "components": [
            {
              "internalType": "uint256",
              "name": "itemId",
              "type": "uint256"
            },
            {
              "internalType": "uint256",
              "name": "tokenId",
              "type": "uint256"
            },
            {
              "internalType": "address",
              "name": "musicContract",
              "type": "address"
            },
            {
              "internalType": "address payable",
              "name": "owner",
              "type": "address"
            },
            {
              "internalType": "address payable",
              "name": "seller",
              "type": "address"
            },
            {
              "internalType": "uint256",
              "name": "price",
              "type": "uint256"
            },
            {
              "internalType": "uint256",
              "name": "albumId",
              "type": "uint256"
            },
            {
              "internalType": "uint256",
              "name": "trackNumber",
              "type": "uint256"
            },
            {
              "internalType": "uint256",
              "name": "artistId",
              "type": "uint256"
            },
            {
              "internalType": "enum MusicMarket.SongStatus",
              "name": "status",
              "type": "uint8"
            }
          ],
          "internalType": "struct MusicMarket.Song[]",
          "name": "",
          "type": "tuple[]"
        }
      ],
      "stateMutability": "view",
      "type": "function"
    },
    {
      "inputs": [
        {
          "internalType": "uint256",
          "name": "",
          "type": "uint256"
        }
      ],
      "name": "itemIdToSong",
      "outputs": [
        {
          "internalType": "uint256",
          "name": "itemId",
          "type": "uint256"
        },
        {
          "internalType": "uint256",
          "name": "tokenId",
          "type": "uint256"
        },
        {
          "internalType": "address",
          "name": "musicContract",
          "type": "address"
        },
        {
          "internalType": "address payable",
          "name": "owner",
          "type": "address"
        },
        {
          "internalType": "address payable",
          "name": "seller",
          "type": "address"
        },
        {
          "internalType": "uint256",
          "name": "price",
          "type": "uint256"
        },
        {
          "internalType": "uint256",
          "name": "albumId",
          "type": "uint256"
        },
        {
          "internalType": "uint256",
          "name": "trackNumber",
          "type": "uint256"
        },
        {
          "internalType": "uint256",
          "name": "artistId",
          "type": "uint256"
        },
        {
          "internalType": "enum MusicMarket.SongStatus",
          "name": "status",
          "type": "uint8"
        }
      ],
      "stateMutability": "view",
      "type": "function"
    },
    {
      "inputs": [
        {
          "internalType": "address",
          "name": "musicContract",
          "type": "address"
        },
        {
          "internalType": "uint256",
          "name": "itemId",
          "type": "uint256"
        },
        {
          "internalType": "uint256",
          "name": "price",
          "type": "uint256"
        }
      ],
      "name": "listItem",
      "outputs": [],
      "stateMutability": "payable",
      "type": "function"
    },
    {
      "inputs": [
        {
          "internalType": "uint256",
          "name": "price",
          "type": "uint256"
        }
      ],
      "name": "setListingPrice",
      "outputs": [
        {
          "internalType": "uint256",
          "name": "",
          "type": "uint256"
        }
      ],
      "stateMutability": "nonpayable",
      "type": "function"
    }
  ],
  "bytecode": "0x60806040526658d15e1762800060075534801561001b57600080fd5b50600160008190555033600660006101000a81548173ffffffffffffffffffffffffffffffffffffffff021916908373ffffffffffffffffffffffffffffffffffffffff160217905550615db880620000756000396000f3fe6080604052600436106101095760003560e01c806389bfd38f11610095578063d4cd0d4511610064578063d4cd0d45146103a9578063d69e63bd146103d4578063d6e465c9146103f0578063db6927101461042e578063fb0cf2cc1461047457610109565b806389bfd38f146102e15780639de46d09146102fd578063b520fa8f1461032d578063cd7e10c11461036a57610109565b80635c517234116100dc5780635c517234146101c25780635e4d1cc4146101ed57806367dfda781461022a578063750bf75e146102675780637c726b69146102a457610109565b806312e855851461010e578063134bf711146101395780631f6035be1461015557806320c6b3b614610185575b600080fd5b34801561011a57600080fd5b506101236104b1565b6040516101309190615313565b60405180910390f35b610153600480360381019061014e91906140fc565b6104bb565b005b61016f600480360381019061016a91906140fc565b61070d565b60405161017c91906152f7565b60405180910390f35b34801561019157600080fd5b506101ac60048036038101906101a79190614301565b610e7c565b6040516101b99190614f5f565b60405180910390f35b3480156101ce57600080fd5b506101d7611270565b6040516101e49190614f1b565b60405180910390f35b3480156101f957600080fd5b50610214600480360381019061020f9190614301565b611554565b6040516102219190614f5f565b60405180910390f35b34801561023657600080fd5b50610251600480360381019061024c919061426a565b611934565b60405161025e9190615313565b60405180910390f35b34801561027357600080fd5b5061028e60048036038101906102899190614301565b611c0b565b60405161029b9190614f5f565b60405180910390f35b3480156102b057600080fd5b506102cb60048036038101906102c69190614301565b61206e565b6040516102d89190615313565b60405180910390f35b6102fb60048036038101906102f69190614138565b6121a1565b005b610317600480360381019061031291906140fc565b61243f565b60405161032491906152f7565b60405180910390f35b34801561033957600080fd5b50610354600480360381019061034f9190614301565b612b95565b60405161036191906152f7565b60405180910390f35b34801561037657600080fd5b50610391600480360381019061038c9190614301565b612e35565b6040516103a093929190614f81565b60405180910390f35b3480156103b557600080fd5b506103be612f7c565b6040516103cb9190614f3d565b60405180910390f35b6103ee60048036038101906103e99190614187565b613242565b005b3480156103fc57600080fd5b5061041760048036038101906104129190614301565b613718565b6040516104259291906152c0565b60405180910390f35b34801561043a57600080fd5b5061045560048036038101906104509190614301565b6139c6565b60405161046b9a9998979695949392919061532e565b60405180910390f35b34801561048057600080fd5b5061049b600480360381019061049691906141fe565b613a87565b6040516104a89190615313565b60405180910390f35b6000600754905090565b60006008600083815260200190815260200160002090506000816001015490508160030160009054906101000a900473ffffffffffffffffffffffffffffffffffffffff1673ffffffffffffffffffffffffffffffffffffffff163373ffffffffffffffffffffffffffffffffffffffff161461056d576040517f08c379a000000000000000000000000000000000000000000000000000000000815260040161056490615280565b60405180910390fd5b600060028111156105a7577f4e487b7100000000000000000000000000000000000000000000000000000000600052602160045260246000fd5b8260090160009054906101000a900460ff1660028111156105f1577f4e487b7100000000000000000000000000000000000000000000000000000000600052602160045260246000fd5b14610631576040517f08c379a000000000000000000000000000000000000000000000000000000000815260040161062890615240565b60405180910390fd5b60018260090160006101000a81548160ff0219169083600281111561067f577f4e487b7100000000000000000000000000000000000000000000000000000000600052602160045260246000fd5b021790555061068e6005613cb7565b816006015481847fb6a6e5a1d1cba81612d627d3d366515af9bc54786897c5bb629f44b2ca1949bc8733600660009054906101000a900473ffffffffffffffffffffffffffffffffffffffff16886005015489600701548a6008015460006040516106ff9796959493929190614d5b565b60405180910390a450505050565b610715613d50565b6002600054141561075b576040517f08c379a0000000000000000000000000000000000000000000000000000000008152600401610752906152a0565b60405180910390fd5b6002600081905550600061076e83612b95565b9050600060028111156107aa577f4e487b7100000000000000000000000000000000000000000000000000000000600052602160045260246000fd5b81610120015160028111156107e8577f4e487b7100000000000000000000000000000000000000000000000000000000600052602160045260246000fd5b14610828576040517f08c379a000000000000000000000000000000000000000000000000000000000815260040161081f906150a0565b60405180910390fd5b8060a0015134101561086f576040517f08c379a000000000000000000000000000000000000000000000000000000000815260040161086690615260565b60405180910390fd5b8373ffffffffffffffffffffffffffffffffffffffff166323b872dd826060015133866040518463ffffffff1660e01b81526004016108b093929190614ca1565b600060405180830381600087803b1580156108ca57600080fd5b505af11580156108de573d6000803e3d6000fd5b50505050600c6000826060015173ffffffffffffffffffffffffffffffffffffffff1673ffffffffffffffffffffffffffffffffffffffff16815260200190815260200160002060008154809291906109369061572e565b9190505550600c60003373ffffffffffffffffffffffffffffffffffffffff1673ffffffffffffffffffffffffffffffffffffffff168152602001908152602001600020600081548092919061098b906157bb565b919050555061099a6005613ccd565b806060015173ffffffffffffffffffffffffffffffffffffffff166108fc8260a001519081150290604051600060405180830381858888f193505050501580156109e8573d6000803e3d6000fd5b5060018161012001906002811115610a29577f4e487b7100000000000000000000000000000000000000000000000000000000600052602160045260246000fd5b90816002811115610a63577f4e487b7100000000000000000000000000000000000000000000000000000000600052602160045260246000fd5b8152505033816060019073ffffffffffffffffffffffffffffffffffffffff16908173ffffffffffffffffffffffffffffffffffffffff1681525050806008600083600001518152602001908152602001600020600082015181600001556020820151816001015560408201518160020160006101000a81548173ffffffffffffffffffffffffffffffffffffffff021916908373ffffffffffffffffffffffffffffffffffffffff16021790555060608201518160030160006101000a81548173ffffffffffffffffffffffffffffffffffffffff021916908373ffffffffffffffffffffffffffffffffffffffff16021790555060808201518160040160006101000a81548173ffffffffffffffffffffffffffffffffffffffff021916908373ffffffffffffffffffffffffffffffffffffffff16021790555060a0820151816005015560c0820151816006015560e0820151816007015561010082015181600801556101208201518160090160006101000a81548160ff02191690836002811115610c1b577f4e487b7100000000000000000000000000000000000000000000000000000000600052602160045260246000fd5b02179055509050508060c001518382600001517fb6a6e5a1d1cba81612d627d3d366515af9bc54786897c5bb629f44b2ca1949bc873386606001518760a001518861010001518960e001516001604051610c7b9796959493929190614dde565b60405180910390a460086000826000015181526020019081526020016000206040518061014001604052908160008201548152602001600182015481526020016002820160009054906101000a900473ffffffffffffffffffffffffffffffffffffffff1673ffffffffffffffffffffffffffffffffffffffff1673ffffffffffffffffffffffffffffffffffffffff1681526020016003820160009054906101000a900473ffffffffffffffffffffffffffffffffffffffff1673ffffffffffffffffffffffffffffffffffffffff1673ffffffffffffffffffffffffffffffffffffffff1681526020016004820160009054906101000a900473ffffffffffffffffffffffffffffffffffffffff1673ffffffffffffffffffffffffffffffffffffffff1673ffffffffffffffffffffffffffffffffffffffff168152602001600582015481526020016006820154815260200160078201548152602001600882015481526020016009820160009054906101000a900460ff166002811115610e2f577f4e487b7100000000000000000000000000000000000000000000000000000000600052602160045260246000fd5b6002811115610e67577f4e487b7100000000000000000000000000000000000000000000000000000000600052602160045260246000fd5b81525050915050600160008190555092915050565b60606000610e8a6001613d29565b90506000610e986002613d29565b610ea26005613d29565b83610ead919061555d565b610eb791906155b3565b9050600080610ec68684613d37565b905060008167ffffffffffffffff811115610f0a577f4e487b7100000000000000000000000000000000000000000000000000000000600052604160045260246000fd5b604051908082528060200260200182016040528015610f4357816020015b610f30613d50565b815260200190600190039081610f285790505b50905060005b858110156112625782841415610f5e57611262565b60006002811115610f98577f4e487b7100000000000000000000000000000000000000000000000000000000600052602160045260246000fd5b60086000600184610fa9919061555d565b815260200190815260200160002060090160009054906101000a900460ff166002811115611000577f4e487b7100000000000000000000000000000000000000000000000000000000600052602160045260246000fd5b141561124f57600060086000600184611019919061555d565b81526020019081526020016000206040518061014001604052908160008201548152602001600182015481526020016002820160009054906101000a900473ffffffffffffffffffffffffffffffffffffffff1673ffffffffffffffffffffffffffffffffffffffff1673ffffffffffffffffffffffffffffffffffffffff1681526020016003820160009054906101000a900473ffffffffffffffffffffffffffffffffffffffff1673ffffffffffffffffffffffffffffffffffffffff1673ffffffffffffffffffffffffffffffffffffffff1681526020016004820160009054906101000a900473ffffffffffffffffffffffffffffffffffffffff1673ffffffffffffffffffffffffffffffffffffffff1673ffffffffffffffffffffffffffffffffffffffff168152602001600582015481526020016006820154815260200160078201548152602001600882015481526020016009820160009054906101000a900460ff1660028111156111bc577f4e487b7100000000000000000000000000000000000000000000000000000000600052602160045260246000fd5b60028111156111f4577f4e487b7100000000000000000000000000000000000000000000000000000000600052602160045260246000fd5b81525050905080838681518110611234577f4e487b7100000000000000000000000000000000000000000000000000000000600052603260045260246000fd5b6020026020010181905250848061124a906157bb565b955050505b808061125a906157bb565b915050610f49565b508095505050505050919050565b606061127c6004613d29565b67ffffffffffffffff8111156112bb577f4e487b7100000000000000000000000000000000000000000000000000000000600052604160045260246000fd5b6040519080825280602002602001820160405280156112f457816020015b6112e1613e1d565b8152602001906001900390816112d95790505b5090506000600190505b8151811161155057600a60008281526020019081526020016000206040518060c001604052908160008201805461133490615758565b80601f016020809104026020016040519081016040528092919081815260200182805461136090615758565b80156113ad5780601f10611382576101008083540402835291602001916113ad565b820191906000526020600020905b81548152906001019060200180831161139057829003601f168201915b50505050508152602001600182015481526020016002820160009054906101000a900460ff16600281111561140b577f4e487b7100000000000000000000000000000000000000000000000000000000600052602160045260246000fd5b6002811115611443577f4e487b7100000000000000000000000000000000000000000000000000000000600052602160045260246000fd5b815260200160038201805461145790615758565b80601f016020809104026020016040519081016040528092919081815260200182805461148390615758565b80156114d05780601f106114a5576101008083540402835291602001916114d0565b820191906000526020600020905b8154815290600101906020018083116114b357829003601f168201915b5050505050815260200160048201548152602001600582015481525050826001836114fb91906155b3565b81518110611532577f4e487b7100000000000000000000000000000000000000000000000000000000600052603260045260246000fd5b60200260200101819052508080611548906157bb565b9150506112fe565b5090565b606060006115626001613d29565b905060006115706002613d29565b61157a6005613d29565b83611585919061555d565b61158f91906155b3565b905060008061159e8684613d37565b905060008167ffffffffffffffff8111156115e2577f4e487b7100000000000000000000000000000000000000000000000000000000600052604160045260246000fd5b60405190808252806020026020018201604052801561161b57816020015b611608613d50565b8152602001906001900390816116005790505b50905060008590505b6000811115611926578284141561163a57611926565b60006002811115611674577f4e487b7100000000000000000000000000000000000000000000000000000000600052602160045260246000fd5b6008600083815260200190815260200160002060090160009054906101000a900460ff1660028111156116d0577f4e487b7100000000000000000000000000000000000000000000000000000000600052602160045260246000fd5b1415611913576000600860008381526020019081526020016000206040518061014001604052908160008201548152602001600182015481526020016002820160009054906101000a900473ffffffffffffffffffffffffffffffffffffffff1673ffffffffffffffffffffffffffffffffffffffff1673ffffffffffffffffffffffffffffffffffffffff1681526020016003820160009054906101000a900473ffffffffffffffffffffffffffffffffffffffff1673ffffffffffffffffffffffffffffffffffffffff1673ffffffffffffffffffffffffffffffffffffffff1681526020016004820160009054906101000a900473ffffffffffffffffffffffffffffffffffffffff1673ffffffffffffffffffffffffffffffffffffffff1673ffffffffffffffffffffffffffffffffffffffff168152602001600582015481526020016006820154815260200160078201548152602001600882015481526020016009820160009054906101000a900460ff166002811115611880577f4e487b7100000000000000000000000000000000000000000000000000000000600052602160045260246000fd5b60028111156118b8577f4e487b7100000000000000000000000000000000000000000000000000000000600052602160045260246000fd5b815250509050808386815181106118f8577f4e487b7100000000000000000000000000000000000000000000000000000000600052603260045260246000fd5b6020026020010181905250848061190e906157bb565b955050505b808061191e9061572e565b915050611624565b508095505050505050919050565b60003373ffffffffffffffffffffffffffffffffffffffff16600660009054906101000a900473ffffffffffffffffffffffffffffffffffffffff1673ffffffffffffffffffffffffffffffffffffffff16146119c6576040517f08c379a00000000000000000000000000000000000000000000000000000000081526004016119bd90615160565b60405180910390fd5b600083511415611a0b576040517f08c379a0000000000000000000000000000000000000000000000000000000008152600401611a02906150e0565b60405180910390fd5b600082511415611a50576040517f08c379a0000000000000000000000000000000000000000000000000000000008152600401611a4790615220565b60405180910390fd5b611a5a6004613cb7565b6000611a666004613d29565b90506040518060c0016040528086815260200142815260200160006002811115611ab9577f4e487b7100000000000000000000000000000000000000000000000000000000600052602160045260246000fd5b8152602001858152602001600081526020016000815250600a60008381526020019081526020016000206000820151816000019080519060200190611aff929190613e8b565b506020820151816001015560408201518160020160006101000a81548160ff02191690836002811115611b5b577f4e487b7100000000000000000000000000000000000000000000000000000000600052602160045260246000fd5b02179055506060820151816003019080519060200190611b7c929190613e8b565b506080820151816004015560a0820151816005015590505082600b60008381526020019081526020016000209080519060200190611bbb929190613f11565b50807f4ad0e5615b1c242c0e644cb5b2255aa337a06268781317cdc14d09d1a51eb1678642600088600080604051611bf89695949392919061501e565b60405180910390a2809150509392505050565b60606000611c196001613d29565b90506000600c60003373ffffffffffffffffffffffffffffffffffffffff1673ffffffffffffffffffffffffffffffffffffffff168152602001908152602001600020549050600080821415611cee57600067ffffffffffffffff811115611caa577f4e487b7100000000000000000000000000000000000000000000000000000000600052604160045260246000fd5b604051908082528060200260200182016040528015611ce357816020015b611cd0613d50565b815260200190600190039081611cc85790505b509350505050612069565b6000611cfa8684613d37565b905060008167ffffffffffffffff811115611d3e577f4e487b7100000000000000000000000000000000000000000000000000000000600052604160045260246000fd5b604051908082528060200260200182016040528015611d7757816020015b611d64613d50565b815260200190600190039081611d5c5790505b50905060005b8581101561205f5782841415611d925761205f565b3373ffffffffffffffffffffffffffffffffffffffff1660086000600184611dba919061555d565b815260200190815260200160002060030160009054906101000a900473ffffffffffffffffffffffffffffffffffffffff1673ffffffffffffffffffffffffffffffffffffffff16141561204c5760086000600183611e19919061555d565b81526020019081526020016000206040518061014001604052908160008201548152602001600182015481526020016002820160009054906101000a900473ffffffffffffffffffffffffffffffffffffffff1673ffffffffffffffffffffffffffffffffffffffff1673ffffffffffffffffffffffffffffffffffffffff1681526020016003820160009054906101000a900473ffffffffffffffffffffffffffffffffffffffff1673ffffffffffffffffffffffffffffffffffffffff1673ffffffffffffffffffffffffffffffffffffffff1681526020016004820160009054906101000a900473ffffffffffffffffffffffffffffffffffffffff1673ffffffffffffffffffffffffffffffffffffffff1673ffffffffffffffffffffffffffffffffffffffff168152602001600582015481526020016006820154815260200160078201548152602001600882015481526020016009820160009054906101000a900460ff166002811115611fbc577f4e487b7100000000000000000000000000000000000000000000000000000000600052602160045260246000fd5b6002811115611ff4577f4e487b7100000000000000000000000000000000000000000000000000000000600052602160045260246000fd5b81525050828581518110612031577f4e487b7100000000000000000000000000000000000000000000000000000000600052603260045260246000fd5b6020026020010181905250600184612049919061555d565b93505b8080612057906157bb565b915050611d7d565b5080955050505050505b919050565b60003373ffffffffffffffffffffffffffffffffffffffff16600660009054906101000a900473ffffffffffffffffffffffffffffffffffffffff1673ffffffffffffffffffffffffffffffffffffffff1614612100576040517f08c379a00000000000000000000000000000000000000000000000000000000081526004016120f790615160565b60405180910390fd5b3373ffffffffffffffffffffffffffffffffffffffff16600660009054906101000a900473ffffffffffffffffffffffffffffffffffffffff1673ffffffffffffffffffffffffffffffffffffffff1614612190576040517f08c379a0000000000000000000000000000000000000000000000000000000008152600401612187906151e0565b60405180910390fd5b816007819055506007549050919050565b60006008600084815260200190815260200160002090506000816001015490508160030160009054906101000a900473ffffffffffffffffffffffffffffffffffffffff1673ffffffffffffffffffffffffffffffffffffffff163373ffffffffffffffffffffffffffffffffffffffff1614612253576040517f08c379a000000000000000000000000000000000000000000000000000000000815260040161224a90615280565b60405180910390fd5b6000600281111561228d577f4e487b7100000000000000000000000000000000000000000000000000000000600052602160045260246000fd5b8260090160009054906101000a900460ff1660028111156122d7577f4e487b7100000000000000000000000000000000000000000000000000000000600052602160045260246000fd5b1415612318576040517f08c379a000000000000000000000000000000000000000000000000000000000815260040161230f906150c0565b60405180910390fd5b60075434101561235d576040517f08c379a0000000000000000000000000000000000000000000000000000000008152600401612354906151c0565b60405180910390fd5b82826005018190555060008260090160006101000a81548160ff021916908360028111156123b4577f4e487b7100000000000000000000000000000000000000000000000000000000600052602160045260246000fd5b02179055506123c36005613cb7565b816006015481857fb6a6e5a1d1cba81612d627d3d366515af9bc54786897c5bb629f44b2ca1949bc8833600660009054906101000a900473ffffffffffffffffffffffffffffffffffffffff168989600701548a6008015460006040516124309796959493929190614d5b565b60405180910390a45050505050565b612447613d50565b6002600054141561248d576040517f08c379a0000000000000000000000000000000000000000000000000000000008152600401612484906152a0565b60405180910390fd5b60026000819055506000600860008481526020019081526020016000206040518061014001604052908160008201548152602001600182015481526020016002820160009054906101000a900473ffffffffffffffffffffffffffffffffffffffff1673ffffffffffffffffffffffffffffffffffffffff1673ffffffffffffffffffffffffffffffffffffffff1681526020016003820160009054906101000a900473ffffffffffffffffffffffffffffffffffffffff1673ffffffffffffffffffffffffffffffffffffffff1673ffffffffffffffffffffffffffffffffffffffff1681526020016004820160009054906101000a900473ffffffffffffffffffffffffffffffffffffffff1673ffffffffffffffffffffffffffffffffffffffff1673ffffffffffffffffffffffffffffffffffffffff168152602001600582015481526020016006820154815260200160078201548152602001600882015481526020016009820160009054906101000a900460ff16600281111561263f577f4e487b7100000000000000000000000000000000000000000000000000000000600052602160045260246000fd5b6002811115612677577f4e487b7100000000000000000000000000000000000000000000000000000000600052602160045260246000fd5b81525050905060008160a001519050600082602001519050813410156126d2576040517f08c379a00000000000000000000000000000000000000000000000000000000081526004016126c9906151c0565b60405180910390fd5b8573ffffffffffffffffffffffffffffffffffffffff166323b872dd3033846040518463ffffffff1660e01b815260040161270f93929190614ee4565b600060405180830381600087803b15801561272957600080fd5b505af115801561273d573d6000803e3d6000fd5b50505050600c60003373ffffffffffffffffffffffffffffffffffffffff1673ffffffffffffffffffffffffffffffffffffffff1681526020019081526020016000206000815480929190612791906157bb565b9190505550600183610120019060028111156127d6577f4e487b7100000000000000000000000000000000000000000000000000000000600052602160045260246000fd5b90816002811115612810577f4e487b7100000000000000000000000000000000000000000000000000000000600052602160045260246000fd5b8152505033836060019073ffffffffffffffffffffffffffffffffffffffff16908173ffffffffffffffffffffffffffffffffffffffff16815250506128566002613cb7565b826080015173ffffffffffffffffffffffffffffffffffffffff166108fc839081150290604051600060405180830381858888f193505050501580156128a0573d6000803e3d6000fd5b50600660009054906101000a900473ffffffffffffffffffffffffffffffffffffffff1673ffffffffffffffffffffffffffffffffffffffff166108fc6007549081150290604051600060405180830381858888f1935050505015801561290b573d6000803e3d6000fd5b508260086000878152602001908152602001600020600082015181600001556020820151816001015560408201518160020160006101000a81548173ffffffffffffffffffffffffffffffffffffffff021916908373ffffffffffffffffffffffffffffffffffffffff16021790555060608201518160030160006101000a81548173ffffffffffffffffffffffffffffffffffffffff021916908373ffffffffffffffffffffffffffffffffffffffff16021790555060808201518160040160006101000a81548173ffffffffffffffffffffffffffffffffffffffff021916908373ffffffffffffffffffffffffffffffffffffffff16021790555060a0820151816005015560c0820151816006015560e0820151816007015561010082015181600801556101208201518160090160006101000a81548160ff02191690836002811115612a84577f4e487b7100000000000000000000000000000000000000000000000000000000600052602160045260246000fd5b0217905550905050600860008681526020019081526020016000206006015481867fb6a6e5a1d1cba81612d627d3d366515af9bc54786897c5bb629f44b2ca1949bc89600860008b815260200190815260200160002060030160009054906101000a900473ffffffffffffffffffffffffffffffffffffffff16600860008c815260200190815260200160002060040160009054906101000a900473ffffffffffffffffffffffffffffffffffffffff1688600860008e815260200190815260200160002060070154600860008f8152602001908152602001600020600801546001604051612b799796959493929190614cd8565b60405180910390a4829350505050600160008190555092915050565b612b9d613d50565b6000612ba96001613d29565b905060005b81811015612dec578360086000600184612bc8919061555d565b8152602001908152602001600020600101541415612dd95760086000600183612bf1919061555d565b81526020019081526020016000206040518061014001604052908160008201548152602001600182015481526020016002820160009054906101000a900473ffffffffffffffffffffffffffffffffffffffff1673ffffffffffffffffffffffffffffffffffffffff1673ffffffffffffffffffffffffffffffffffffffff1681526020016003820160009054906101000a900473ffffffffffffffffffffffffffffffffffffffff1673ffffffffffffffffffffffffffffffffffffffff1673ffffffffffffffffffffffffffffffffffffffff1681526020016004820160009054906101000a900473ffffffffffffffffffffffffffffffffffffffff1673ffffffffffffffffffffffffffffffffffffffff1673ffffffffffffffffffffffffffffffffffffffff168152602001600582015481526020016006820154815260200160078201548152602001600882015481526020016009820160009054906101000a900460ff166002811115612d94577f4e487b7100000000000000000000000000000000000000000000000000000000600052602160045260246000fd5b6002811115612dcc577f4e487b7100000000000000000000000000000000000000000000000000000000600052602160045260246000fd5b8152505092505050612e30565b8080612de4906157bb565b915050612bae565b506000612e2e576040517f08c379a0000000000000000000000000000000000000000000000000000000008152600401612e25906151a0565b60405180910390fd5b505b919050565b6009602052806000526040600020600091509050806000018054612e5890615758565b80601f0160208091040260200160405190810160405280929190818152602001828054612e8490615758565b8015612ed15780601f10612ea657610100808354040283529160200191612ed1565b820191906000526020600020905b815481529060010190602001808311612eb457829003601f168201915b5050505050908060010160009054906101000a900460ff1690806002018054612ef990615758565b80601f0160208091040260200160405190810160405280929190818152602001828054612f2590615758565b8015612f725780601f10612f4757610100808354040283529160200191612f72565b820191906000526020600020905b815481529060010190602001808311612f5557829003601f168201915b5050505050905083565b6060612f886003613d29565b67ffffffffffffffff811115612fc7577f4e487b7100000000000000000000000000000000000000000000000000000000600052604160045260246000fd5b60405190808252806020026020018201604052801561300057816020015b612fed613f5e565b815260200190600190039081612fe55790505b5090506000600190505b8151811161323e576009600082815260200190815260200160002060405180606001604052908160008201805461304090615758565b80601f016020809104026020016040519081016040528092919081815260200182805461306c90615758565b80156130b95780601f1061308e576101008083540402835291602001916130b9565b820191906000526020600020905b81548152906001019060200180831161309c57829003601f168201915b505050505081526020016001820160009054906101000a900460ff16600281111561310d577f4e487b7100000000000000000000000000000000000000000000000000000000600052602160045260246000fd5b6002811115613145577f4e487b7100000000000000000000000000000000000000000000000000000000600052602160045260246000fd5b815260200160028201805461315990615758565b80601f016020809104026020016040519081016040528092919081815260200182805461318590615758565b80156131d25780601f106131a7576101008083540402835291602001916131d2565b820191906000526020600020905b8154815290600101906020018083116131b557829003601f168201915b505050505081525050826001836131e991906155b3565b81518110613220577f4e487b7100000000000000000000000000000000000000000000000000000000600052603260045260246000fd5b60200260200101819052508080613236906157bb565b91505061300a565b5090565b60026000541415613288576040517f08c379a000000000000000000000000000000000000000000000000000000000815260040161327f906152a0565b60405180910390fd5b6002600081905550600081116132d3576040517f08c379a00000000000000000000000000000000000000000000000000000000081526004016132ca90615180565b60405180910390fd5b600754341015613318576040517f08c379a000000000000000000000000000000000000000000000000000000000815260040161330f90615200565b60405180910390fd5b6133226001613d29565b841015613364576040517f08c379a000000000000000000000000000000000000000000000000000000000815260040161335b90615120565b60405180910390fd5b61336e6004613d29565b8310156133b0576040517f08c379a00000000000000000000000000000000000000000000000000000000081526004016133a790615100565b60405180910390fd5b6133ba6001613cb7565b60006133c66001613d29565b90506000600a600086815260200190815260200160002090506040518061014001604052808381526020018781526020018873ffffffffffffffffffffffffffffffffffffffff168152602001600073ffffffffffffffffffffffffffffffffffffffff1681526020013373ffffffffffffffffffffffffffffffffffffffff16815260200184815260200186815260200160018360040154613469919061555d565b8152602001858152602001600060028111156134ae577f4e487b7100000000000000000000000000000000000000000000000000000000600052602160045260246000fd5b81525060086000848152602001908152602001600020600082015181600001556020820151816001015560408201518160020160006101000a81548173ffffffffffffffffffffffffffffffffffffffff021916908373ffffffffffffffffffffffffffffffffffffffff16021790555060608201518160030160006101000a81548173ffffffffffffffffffffffffffffffffffffffff021916908373ffffffffffffffffffffffffffffffffffffffff16021790555060808201518160040160006101000a81548173ffffffffffffffffffffffffffffffffffffffff021916908373ffffffffffffffffffffffffffffffffffffffff16021790555060a0820151816005015560c0820151816006015560e0820151816007015561010082015181600801556101208201518160090160006101000a81548160ff02191690836002811115613628577f4e487b7100000000000000000000000000000000000000000000000000000000600052602160045260246000fd5b02179055509050506001816004016000828254613645919061555d565b925050819055508673ffffffffffffffffffffffffffffffffffffffff166323b872dd3330896040518463ffffffff1660e01b815260040161368993929190614ee4565b600060405180830381600087803b1580156136a357600080fd5b505af11580156136b7573d6000803e3d6000fd5b505050508486837fb6a6e5a1d1cba81612d627d3d366515af9bc54786897c5bb629f44b2ca1949bc8a600033898b896004015460006040516136ff9796959493929190614e61565b60405180910390a4505060016000819055505050505050565b613720613e1d565b60608261372d6004613d29565b101561376e576040517f08c379a0000000000000000000000000000000000000000000000000000000008152600401613765906151a0565b60405180910390fd5b600a6000848152602001908152602001600020600b6000858152602001908152602001600020816040518060c00160405290816000820180546137b090615758565b80601f01602080910402602001604051908101604052809291908181526020018280546137dc90615758565b80156138295780601f106137fe57610100808354040283529160200191613829565b820191906000526020600020905b81548152906001019060200180831161380c57829003601f168201915b50505050508152602001600182015481526020016002820160009054906101000a900460ff166002811115613887577f4e487b7100000000000000000000000000000000000000000000000000000000600052602160045260246000fd5b60028111156138bf577f4e487b7100000000000000000000000000000000000000000000000000000000600052602160045260246000fd5b81526020016003820180546138d390615758565b80601f01602080910402602001604051908101604052809291908181526020018280546138ff90615758565b801561394c5780601f106139215761010080835404028352916020019161394c565b820191906000526020600020905b81548152906001019060200180831161392f57829003601f168201915b50505050508152602001600482015481526020016005820154815250509150808054806020026020016040519081016040528092919081815260200182805480156139b657602002820191906000526020600020905b8154815260200190600101908083116139a2575b5050505050905091509150915091565b60086020528060005260406000206000915090508060000154908060010154908060020160009054906101000a900473ffffffffffffffffffffffffffffffffffffffff16908060030160009054906101000a900473ffffffffffffffffffffffffffffffffffffffff16908060040160009054906101000a900473ffffffffffffffffffffffffffffffffffffffff16908060050154908060060154908060070154908060080154908060090160009054906101000a900460ff1690508a565b60003373ffffffffffffffffffffffffffffffffffffffff16600660009054906101000a900473ffffffffffffffffffffffffffffffffffffffff1673ffffffffffffffffffffffffffffffffffffffff1614613b19576040517f08c379a0000000000000000000000000000000000000000000000000000000008152600401613b1090615160565b60405180910390fd5b600082511415613b5e576040517f08c379a0000000000000000000000000000000000000000000000000000000008152600401613b55906150e0565b60405180910390fd5b613b686003613cb7565b6000613b746003613d29565b9050604051806060016040528085815260200160006002811115613bc1577f4e487b7100000000000000000000000000000000000000000000000000000000600052602160045260246000fd5b815260200184815250600960008381526020019081526020016000206000820151816000019080519060200190613bf9929190613e8b565b5060208201518160010160006101000a81548160ff02191690836002811115613c4b577f4e487b7100000000000000000000000000000000000000000000000000000000600052602160045260246000fd5b02179055506040820151816002019080519060200190613c6c929190613e8b565b50905050807fd0c34c2dc72a3b67166415e7297a3546fb4daf5fd2ea4e8a1497d9859297dba185600086604051613ca593929190614fc6565b60405180910390a28091505092915050565b6001816000016000828254019250508190555050565b60008160000154905060008111613d19576040517f08c379a0000000000000000000000000000000000000000000000000000000008152600401613d1090615140565b60405180910390fd5b6001810382600001819055505050565b600081600001549050919050565b6000818310613d465781613d48565b825b905092915050565b6040518061014001604052806000815260200160008152602001600073ffffffffffffffffffffffffffffffffffffffff168152602001600073ffffffffffffffffffffffffffffffffffffffff168152602001600073ffffffffffffffffffffffffffffffffffffffff1681526020016000815260200160008152602001600081526020016000815260200160006002811115613e17577f4e487b7100000000000000000000000000000000000000000000000000000000600052602160045260246000fd5b81525090565b6040518060c00160405280606081526020016000815260200160006002811115613e70577f4e487b7100000000000000000000000000000000000000000000000000000000600052602160045260246000fd5b81526020016060815260200160008152602001600081525090565b828054613e9790615758565b90600052602060002090601f016020900481019282613eb95760008555613f00565b82601f10613ed257805160ff1916838001178555613f00565b82800160010185558215613f00579182015b82811115613eff578251825591602001919060010190613ee4565b5b509050613f0d9190613fb7565b5090565b828054828255906000526020600020908101928215613f4d579160200282015b82811115613f4c578251825591602001919060010190613f31565b5b509050613f5a9190613fb7565b5090565b60405180606001604052806060815260200160006002811115613faa577f4e487b7100000000000000000000000000000000000000000000000000000000600052602160045260246000fd5b8152602001606081525090565b5b80821115613fd0576000816000905550600101613fb8565b5090565b6000613fe7613fe2846153ef565b6153ca565b9050808382526020820190508285602086028201111561400657600080fd5b60005b85811015614036578161401c88826140e7565b845260208401935060208301925050600181019050614009565b5050509392505050565b600061405361404e8461541b565b6153ca565b90508281526020810184848401111561406b57600080fd5b6140768482856156ec565b509392505050565b60008135905061408d81615d54565b92915050565b600082601f8301126140a457600080fd5b81356140b4848260208601613fd4565b91505092915050565b600082601f8301126140ce57600080fd5b81356140de848260208601614040565b91505092915050565b6000813590506140f681615d6b565b92915050565b6000806040838503121561410f57600080fd5b600061411d8582860161407e565b925050602061412e858286016140e7565b9150509250929050565b60008060006060848603121561414d57600080fd5b600061415b8682870161407e565b935050602061416c868287016140e7565b925050604061417d868287016140e7565b9150509250925092565b600080600080600060a0868803121561419f57600080fd5b60006141ad8882890161407e565b95505060206141be888289016140e7565b94505060406141cf888289016140e7565b93505060606141e0888289016140e7565b92505060806141f1888289016140e7565b9150509295509295909350565b6000806040838503121561421157600080fd5b600083013567ffffffffffffffff81111561422b57600080fd5b614237858286016140bd565b925050602083013567ffffffffffffffff81111561425457600080fd5b614260858286016140bd565b9150509250929050565b60008060006060848603121561427f57600080fd5b600084013567ffffffffffffffff81111561429957600080fd5b6142a5868287016140bd565b935050602084013567ffffffffffffffff8111156142c257600080fd5b6142ce868287016140bd565b925050604084013567ffffffffffffffff8111156142eb57600080fd5b6142f786828701614093565b9150509250925092565b60006020828403121561431357600080fd5b6000614321848285016140e7565b91505092915050565b60006143368383614974565b905092915050565b600061434a8383614a94565b905092915050565b600061435e8383614aeb565b6101408301905092915050565b60006143778383614c83565b60208301905092915050565b61438c8161566e565b82525050565b61439b816155f9565b82525050565b6143aa816155f9565b82525050565b6143b9816155e7565b82525050565b6143c8816155e7565b82525050565b60006143d98261548c565b6143e381856154f7565b9350836020820285016143f58561544c565b8060005b858110156144315784840389528151614412858261432a565b945061441d836154c3565b925060208a019950506001810190506143f9565b50829750879550505050505092915050565b600061444e82615497565b6144588185615508565b93508360208202850161446a8561545c565b8060005b858110156144a65784840389528151614487858261433e565b9450614492836154d0565b925060208a0199505060018101905061446e565b50829750879550505050505092915050565b60006144c3826154a2565b6144cd8185615519565b93506144d88361546c565b8060005b838110156145095781516144f08882614352565b97506144fb836154dd565b9250506001810190506144dc565b5085935050505092915050565b6000614521826154ad565b61452b818561552a565b93506145368361547c565b8060005b8381101561456757815161454e888261436b565b9750614559836154ea565b92505060018101905061453a565b5085935050505092915050565b61457d81615680565b82525050565b61458c81615680565b82525050565b61459b81615692565b82525050565b6145aa81615692565b82525050565b6145b9816156a4565b82525050565b6145c8816156a4565b82525050565b6145d7816156b6565b82525050565b60006145e8826154b8565b6145f2818561553b565b93506146028185602086016156fb565b61460b816158c0565b840191505092915050565b6000614621826154b8565b61462b818561554c565b935061463b8185602086016156fb565b614644816158c0565b840191505092915050565b600061465c60258361554c565b9150614667826158d1565b604082019050919050565b600061467f60208361554c565b915061468a82615920565b602082019050919050565b60006146a260198361554c565b91506146ad82615949565b602082019050919050565b60006146c5600f8361554c565b91506146d082615972565b602082019050919050565b60006146e8600f8361554c565b91506146f38261599b565b602082019050919050565b600061470b601b8361554c565b9150614716826159c4565b602082019050919050565b600061472e60188361554c565b9150614739826159ed565b602082019050919050565b600061475160258361554c565b915061475c82615a16565b604082019050919050565b6000614774600d8361554c565b915061477f82615a65565b602082019050919050565b600061479760108361554c565b91506147a282615a8e565b602082019050919050565b60006147ba60208361554c565b91506147c582615ab7565b602082019050919050565b60006147dd600d8361554c565b91506147e882615ae0565b602082019050919050565b600061480060148361554c565b915061480b82615b09565b602082019050919050565b600061482360248361554c565b915061482e82615b32565b604082019050919050565b600061484660108361554c565b915061485182615b81565b602082019050919050565b600061486960178361554c565b915061487482615baa565b602082019050919050565b600061488c60198361554c565b915061489782615bd3565b602082019050919050565b60006148af60228361554c565b91506148ba82615bfc565b604082019050919050565b60006148d260118361554c565b91506148dd82615c4b565b602082019050919050565b60006148f5601a8361554c565b915061490082615c74565b602082019050919050565b6000614918600e8361554c565b915061492382615c9d565b602082019050919050565b600061493b601f8361554c565b915061494682615cc6565b602082019050919050565b600061495e600d8361554c565b915061496982615cef565b602082019050919050565b600060c083016000830151848203600086015261499182826145dd565b91505060208301516149a66020860182614c83565b5060408301516149b96040860182614574565b50606083015184820360608601526149d182826145dd565b91505060808301516149e66080860182614c83565b5060a08301516149f960a0860182614c83565b508091505092915050565b600060c0830160008301518482036000860152614a2182826145dd565b9150506020830151614a366020860182614c83565b506040830151614a496040860182614574565b5060608301518482036060860152614a6182826145dd565b9150506080830151614a766080860182614c83565b5060a0830151614a8960a0860182614c83565b508091505092915050565b60006060830160008301518482036000860152614ab182826145dd565b9150506020830151614ac66020860182614592565b5060408301518482036040860152614ade82826145dd565b9150508091505092915050565b61014082016000820151614b026000850182614c83565b506020820151614b156020850182614c83565b506040820151614b2860408501826143b0565b506060820151614b3b6060850182614392565b506080820151614b4e6080850182614392565b5060a0820151614b6160a0850182614c83565b5060c0820151614b7460c0850182614c83565b5060e0820151614b8760e0850182614c83565b50610100820151614b9c610100850182614c83565b50610120820151614bb16101208501826145b0565b50505050565b61014082016000820151614bce6000850182614c83565b506020820151614be16020850182614c83565b506040820151614bf460408501826143b0565b506060820151614c076060850182614392565b506080820151614c1a6080850182614392565b5060a0820151614c2d60a0850182614c83565b5060c0820151614c4060c0850182614c83565b5060e0820151614c5360e0850182614c83565b50610100820151614c68610100850182614c83565b50610120820151614c7d6101208501826145b0565b50505050565b614c8c81615664565b82525050565b614c9b81615664565b82525050565b6000606082019050614cb66000830186614383565b614cc360208301856143bf565b614cd06040830184614c92565b949350505050565b600061010082019050614cee600083018a6143bf565b614cfb6020830189614383565b614d086040830188614383565b614d156060830187614c92565b614d226080830186614c92565b614d2f60a0830185614c92565b614d3c60c08301846145bf565b81810360e0830152614d4d816147f3565b905098975050505050505050565b600061010082019050614d71600083018a6143bf565b614d7e60208301896143bf565b614d8b6040830188614383565b614d986060830187614c92565b614da56080830186614c92565b614db260a0830185614c92565b614dbf60c08301846145bf565b81810360e0830152614dd081614767565b905098975050505050505050565b600061010082019050614df4600083018a6143bf565b614e0160208301896143bf565b614e0e6040830188614383565b614e1b6060830187614c92565b614e286080830186614c92565b614e3560a0830185614c92565b614e4260c08301846145bf565b81810360e0830152614e5381614951565b905098975050505050505050565b600061010082019050614e77600083018a6143bf565b614e8460208301896143bf565b614e9160408301886143bf565b614e9e6060830187614c92565b614eab6080830186614c92565b614eb860a0830185614c92565b614ec560c08301846145bf565b81810360e0830152614ed681614839565b905098975050505050505050565b6000606082019050614ef960008301866143bf565b614f0660208301856143bf565b614f136040830184614c92565b949350505050565b60006020820190508181036000830152614f3581846143ce565b905092915050565b60006020820190508181036000830152614f578184614443565b905092915050565b60006020820190508181036000830152614f7981846144b8565b905092915050565b60006060820190508181036000830152614f9b8186614616565b9050614faa60208301856145a1565b8181036040830152614fbc8184614616565b9050949350505050565b60006080820190508181036000830152614fe08186614616565b9050614fef60208301856145a1565b81810360408301526150018184614616565b905081810360608301526150148161490b565b9050949350505050565b600060e08201905081810360008301526150388189614616565b90506150476020830188614c92565b6150546040830187614583565b81810360608301526150668186614616565b905061507560808301856145ce565b61508260a08301846145ce565b81810360c0830152615093816147d0565b9050979650505050505050565b600060208201905081810360008301526150b98161464f565b9050919050565b600060208201905081810360008301526150d981614672565b9050919050565b600060208201905081810360008301526150f981614695565b9050919050565b60006020820190508181036000830152615119816146b8565b9050919050565b60006020820190508181036000830152615139816146db565b9050919050565b60006020820190508181036000830152615159816146fe565b9050919050565b6000602082019050818103600083015261517981614721565b9050919050565b6000602082019050818103600083015261519981614744565b9050919050565b600060208201905081810360008301526151b98161478a565b9050919050565b600060208201905081810360008301526151d9816147ad565b9050919050565b600060208201905081810360008301526151f981614816565b9050919050565b600060208201905081810360008301526152198161485c565b9050919050565b600060208201905081810360008301526152398161487f565b9050919050565b60006020820190508181036000830152615259816148a2565b9050919050565b60006020820190508181036000830152615279816148c5565b9050919050565b60006020820190508181036000830152615299816148e8565b9050919050565b600060208201905081810360008301526152b98161492e565b9050919050565b600060408201905081810360008301526152da8185614a04565b905081810360208301526152ee8184614516565b90509392505050565b60006101408201905061530d6000830184614bb7565b92915050565b60006020820190506153286000830184614c92565b92915050565b600061014082019050615344600083018d614c92565b615351602083018c614c92565b61535e604083018b6143bf565b61536b606083018a6143a1565b61537860808301896143a1565b61538560a0830188614c92565b61539260c0830187614c92565b61539f60e0830186614c92565b6153ad610100830185614c92565b6153bb6101208301846145bf565b9b9a5050505050505050505050565b60006153d46153e5565b90506153e0828261578a565b919050565b6000604051905090565b600067ffffffffffffffff82111561540a57615409615891565b5b602082029050602081019050919050565b600067ffffffffffffffff82111561543657615435615891565b5b61543f826158c0565b9050602081019050919050565b6000819050602082019050919050565b6000819050602082019050919050565b6000819050602082019050919050565b6000819050602082019050919050565b600081519050919050565b600081519050919050565b600081519050919050565b600081519050919050565b600081519050919050565b6000602082019050919050565b6000602082019050919050565b6000602082019050919050565b6000602082019050919050565b600082825260208201905092915050565b600082825260208201905092915050565b600082825260208201905092915050565b600082825260208201905092915050565b600082825260208201905092915050565b600082825260208201905092915050565b600061556882615664565b915061557383615664565b9250827fffffffffffffffffffffffffffffffffffffffffffffffffffffffffffffffff038211156155a8576155a7615804565b5b828201905092915050565b60006155be82615664565b91506155c983615664565b9250828210156155dc576155db615804565b5b828203905092915050565b60006155f282615644565b9050919050565b600061560482615644565b9050919050565b600081905061561982615d18565b919050565b600081905061562c82615d2c565b919050565b600081905061563f82615d40565b919050565b600073ffffffffffffffffffffffffffffffffffffffff82169050919050565b6000819050919050565b6000615679826156c8565b9050919050565b600061568b8261560b565b9050919050565b600061569d8261561e565b9050919050565b60006156af82615631565b9050919050565b60006156c182615664565b9050919050565b60006156d3826156da565b9050919050565b60006156e582615644565b9050919050565b82818337600083830152505050565b60005b838110156157195780820151818401526020810190506156fe565b83811115615728576000848401525b50505050565b600061573982615664565b9150600082141561574d5761574c615804565b5b600182039050919050565b6000600282049050600182168061577057607f821691505b6020821081141561578457615783615862565b5b50919050565b615793826158c0565b810181811067ffffffffffffffff821117156157b2576157b1615891565b5b80604052505050565b60006157c682615664565b91507fffffffffffffffffffffffffffffffffffffffffffffffffffffffffffffffff8214156157f9576157f8615804565b5b600182019050919050565b7f4e487b7100000000000000000000000000000000000000000000000000000000600052601160045260246000fd5b7f4e487b7100000000000000000000000000000000000000000000000000000000600052602160045260246000fd5b7f4e487b7100000000000000000000000000000000000000000000000000000000600052602260045260246000fd5b7f4e487b7100000000000000000000000000000000000000000000000000000000600052604160045260246000fd5b6000601f19601f8301169050919050565b7f4974656d7320546861742061696e74204c69737465642063616e74206265205360008201527f6f6c646564000000000000000000000000000000000000000000000000000000602082015250565b7f43616e74206c697374207468617420697320616c7265616479204c6973746564600082015250565b7f5552492063616e74206265206e756c6c206f7220656d70747900000000000000600082015250565b7f496e76616c696420416c62756d49640000000000000000000000000000000000600082015250565b7f696e76616c696420546f6b656e49640000000000000000000000000000000000600082015250565b7f436f756e7465723a2064656372656d656e74206f766572666c6f770000000000600082015250565b7f43616c6c6572206d75737420626520746865206f776e65720000000000000000600082015250565b7f4974656d205072696365206d6f73742062652067726561746572207468656e2060008201527f3120574549000000000000000000000000000000000000000000000000000000602082015250565b7f4c697374204d757369634e465400000000000000000000000000000000000000600082015250565b7f496e76616c696420546f6b656e20494400000000000000000000000000000000600082015250565b7f6b696e646c79207472616e7366657220746865206c6973746564207072696365600082015250565b7f4372656174656420416c62756d00000000000000000000000000000000000000600082015250565b7f5472616e73666572726564204d757369634e4654000000000000000000000000600082015250565b7f4f6e6c7920746865204f776e65722043616e20736574204c697374696e67205060008201527f7269636500000000000000000000000000000000000000000000000000000000602082015250565b7f43726561746564204d757369634e465400000000000000000000000000000000600082015250565b7f496e737566666963656e74206c697374696e6720666565000000000000000000600082015250565b7f4174206c6561737420696e636c7564652061206c656e67746800000000000000600082015250565b7f43616e74206c697374207468617420697320616c726561647920756e4c69737460008201527f6564000000000000000000000000000000000000000000000000000000000000602082015250565b7f496e737566666963656e742066756e6473000000000000000000000000000000600082015250565b7f796f75206d757374206d75737420626520746865206f776e6572000000000000600082015250565b7f4172746973742043726561746564000000000000000000000000000000000000600082015250565b7f5265656e7472616e637947756172643a207265656e7472616e742063616c6c00600082015250565b7f536f6c64204d757369634e465400000000000000000000000000000000000000600082015250565b60038110615d2957615d28615833565b5b50565b60038110615d3d57615d3c615833565b5b50565b60038110615d5157615d50615833565b5b50565b615d5d816155e7565b8114615d6857600080fd5b50565b615d7481615664565b8114615d7f57600080fd5b5056fea26469706673582212204d5949ac7f965e00f96d184c987804662ccde7db8bd1c85fc6d06f66782a4fd764736f6c63430008040033",
  "linkReferences": {},
  "deployedLinkReferences": {}
}