{
  "_format": "hh-sol-artifact-1",
  "contractName": "MusicMarket",
  "sourceName": "contracts/MusicMarket.sol",
  "abi": [
    {
      "inputs": [],
      "stateMutability": "nonpayable",
      "type": "constructor"
    },
    {
      "anonymous": false,
      "inputs": [
        {
          "indexed": true,
          "internalType": "uint256",
          "name": "albumId",
          "type": "uint256"
        },
        {
          "indexed": false,
          "internalType": "string",
          "name": "albumName",
          "type": "string"
        },
        {
          "indexed": false,
          "internalType": "uint256",
          "name": "createdAt",
          "type": "uint256"
        },
        {
          "indexed": false,
          "internalType": "enum MusicMarket.AlbumStatus",
          "name": "Status",
          "type": "uint8"
        },
        {
          "indexed": false,
          "internalType": "string",
          "name": "coverUrl",
          "type": "string"
        },
        {
          "indexed": false,
          "internalType": "uint256",
          "name": "mintedSongs",
          "type": "uint256"
        },
        {
          "indexed": false,
          "internalType": "uint256",
          "name": "soldSongs",
          "type": "uint256"
        },
        {
          "indexed": false,
          "internalType": "string",
          "name": "message",
          "type": "string"
        }
      ],
      "name": "AlbumEvent",
      "type": "event"
    },
    {
      "anonymous": false,
      "inputs": [
        {
          "indexed": true,
          "internalType": "uint256",
          "name": "artistId",
          "type": "uint256"
        },
        {
          "indexed": false,
          "internalType": "string",
          "name": "artistName",
          "type": "string"
        },
        {
          "indexed": false,
          "internalType": "enum MusicMarket.ArtistStatus",
          "name": "Status",
          "type": "uint8"
        },
        {
          "indexed": false,
          "internalType": "string",
          "name": "url",
          "type": "string"
        },
        {
          "indexed": false,
          "internalType": "string",
          "name": "message",
          "type": "string"
        }
      ],
      "name": "ArtistEvent",
      "type": "event"
    },
    {
      "anonymous": false,
      "inputs": [
        {
          "indexed": true,
          "internalType": "uint256",
          "name": "itemId",
          "type": "uint256"
        },
        {
          "indexed": true,
          "internalType": "uint256",
          "name": "tokenId",
          "type": "uint256"
        },
        {
          "indexed": false,
          "internalType": "address",
          "name": "musicContract",
          "type": "address"
        },
        {
          "indexed": false,
          "internalType": "address",
          "name": "owner",
          "type": "address"
        },
        {
          "indexed": false,
          "internalType": "address",
          "name": "seller",
          "type": "address"
        },
        {
          "indexed": false,
          "internalType": "uint256",
          "name": "price",
          "type": "uint256"
        },
        {
          "indexed": true,
          "internalType": "uint256",
          "name": "albumId",
          "type": "uint256"
        },
        {
          "indexed": false,
          "internalType": "uint256",
          "name": "trackNumber",
          "type": "uint256"
        },
        {
          "indexed": false,
          "internalType": "uint256",
          "name": "artistId",
          "type": "uint256"
        },
        {
          "indexed": false,
          "internalType": "enum MusicMarket.SongStatus",
          "name": "status",
          "type": "uint8"
        },
        {
          "indexed": false,
          "internalType": "string",
          "name": "message",
          "type": "string"
        }
      ],
      "name": "SongEvent",
      "type": "event"
    },
    {
      "inputs": [
        {
          "internalType": "address",
          "name": "musicContract",
          "type": "address"
        },
        {
          "internalType": "uint256",
          "name": "tokenId",
          "type": "uint256"
        }
      ],
      "name": "BuySong",
      "outputs": [
        {
          "components": [
            {
              "internalType": "uint256",
              "name": "itemId",
              "type": "uint256"
            },
            {
              "internalType": "uint256",
              "name": "tokenId",
              "type": "uint256"
            },
            {
              "internalType": "address",
              "name": "musicContract",
              "type": "address"
            },
            {
              "internalType": "address payable",
              "name": "owner",
              "type": "address"
            },
            {
              "internalType": "address payable",
              "name": "seller",
              "type": "address"
            },
            {
              "internalType": "uint256",
              "name": "price",
              "type": "uint256"
            },
            {
              "internalType": "uint256",
              "name": "albumId",
              "type": "uint256"
            },
            {
              "internalType": "uint256",
              "name": "trackNumber",
              "type": "uint256"
            },
            {
              "internalType": "uint256",
              "name": "artistId",
              "type": "uint256"
            },
            {
              "internalType": "enum MusicMarket.SongStatus",
              "name": "status",
              "type": "uint8"
            }
          ],
          "internalType": "struct MusicMarket.Song",
          "name": "",
          "type": "tuple"
        }
      ],
      "stateMutability": "payable",
      "type": "function"
    },
    {
      "inputs": [
        {
          "internalType": "address",
          "name": "musicContract",
          "type": "address"
        },
        {
          "internalType": "uint256",
          "name": "itemId",
          "type": "uint256"
        }
      ],
      "name": "CancelItem",
      "outputs": [],
      "stateMutability": "payable",
      "type": "function"
    },
    {
      "inputs": [
        {
          "internalType": "uint256",
          "name": "",
          "type": "uint256"
        }
      ],
      "name": "artists",
      "outputs": [
        {
          "internalType": "string",
          "name": "artistName",
          "type": "string"
        },
        {
          "internalType": "enum MusicMarket.ArtistStatus",
          "name": "Status",
          "type": "uint8"
        },
        {
          "internalType": "string",
          "name": "url",
          "type": "string"
        }
      ],
      "stateMutability": "view",
      "type": "function"
    },
    {
      "inputs": [
        {
          "internalType": "uint256[]",
          "name": "array",
          "type": "uint256[]"
        },
        {
          "internalType": "uint256",
          "name": "value",
          "type": "uint256"
        }
      ],
      "name": "checkIfExist",
      "outputs": [
        {
          "internalType": "bool",
          "name": "",
          "type": "bool"
        }
      ],
      "stateMutability": "pure",
      "type": "function"
    },
    {
      "inputs": [
        {
          "internalType": "string",
          "name": "albumName",
          "type": "string"
        },
        {
          "internalType": "string",
          "name": "uri",
          "type": "string"
        },
        {
          "internalType": "uint256[]",
          "name": "_artists",
          "type": "uint256[]"
        }
      ],
      "name": "createAlbum",
      "outputs": [
        {
          "internalType": "uint256",
          "name": "albumId",
          "type": "uint256"
        }
      ],
      "stateMutability": "nonpayable",
      "type": "function"
    },
    {
      "inputs": [
        {
          "internalType": "string",
          "name": "artistName",
          "type": "string"
        },
        {
          "internalType": "string",
          "name": "uri",
          "type": "string"
        }
      ],
      "name": "createArtist",
      "outputs": [
        {
          "internalType": "uint256",
          "name": "artistID",
          "type": "uint256"
        }
      ],
      "stateMutability": "nonpayable",
      "type": "function"
    },
    {
      "inputs": [
        {
          "internalType": "address",
          "name": "musicContract",
          "type": "address"
        },
        {
          "internalType": "uint256",
          "name": "tokenId",
          "type": "uint256"
        },
        {
          "internalType": "uint256",
          "name": "albumId",
          "type": "uint256"
        },
        {
          "internalType": "uint256",
          "name": "artistId",
          "type": "uint256"
        },
        {
          "internalType": "uint256",
          "name": "price",
          "type": "uint256"
        }
      ],
      "name": "createSong",
      "outputs": [],
      "stateMutability": "payable",
      "type": "function"
    },
    {
      "inputs": [
        {
          "internalType": "address",
          "name": "musicContract",
          "type": "address"
        },
        {
          "internalType": "uint256",
          "name": "itemId",
          "type": "uint256"
        }
      ],
      "name": "createSongSale",
      "outputs": [
        {
          "components": [
            {
              "internalType": "uint256",
              "name": "itemId",
              "type": "uint256"
            },
            {
              "internalType": "uint256",
              "name": "tokenId",
              "type": "uint256"
            },
            {
              "internalType": "address",
              "name": "musicContract",
              "type": "address"
            },
            {
              "internalType": "address payable",
              "name": "owner",
              "type": "address"
            },
            {
              "internalType": "address payable",
              "name": "seller",
              "type": "address"
            },
            {
              "internalType": "uint256",
              "name": "price",
              "type": "uint256"
            },
            {
              "internalType": "uint256",
              "name": "albumId",
              "type": "uint256"
            },
            {
              "internalType": "uint256",
              "name": "trackNumber",
              "type": "uint256"
            },
            {
              "internalType": "uint256",
              "name": "artistId",
              "type": "uint256"
            },
            {
              "internalType": "enum MusicMarket.SongStatus",
              "name": "status",
              "type": "uint8"
            }
          ],
          "internalType": "struct MusicMarket.Song",
          "name": "",
          "type": "tuple"
        }
      ],
      "stateMutability": "payable",
      "type": "function"
    },
    {
      "inputs": [
        {
          "internalType": "uint256",
          "name": "limit",
          "type": "uint256"
        }
      ],
      "name": "fetchMyMusicNFTs",
      "outputs": [
        {
          "components": [
            {
              "internalType": "uint256",
              "name": "itemId",
              "type": "uint256"
            },
            {
              "internalType": "uint256",
              "name": "tokenId",
              "type": "uint256"
            },
            {
              "internalType": "address",
              "name": "musicContract",
              "type": "address"
            },
            {
              "internalType": "address payable",
              "name": "owner",
              "type": "address"
            },
            {
              "internalType": "address payable",
              "name": "seller",
              "type": "address"
            },
            {
              "internalType": "uint256",
              "name": "price",
              "type": "uint256"
            },
            {
              "internalType": "uint256",
              "name": "albumId",
              "type": "uint256"
            },
            {
              "internalType": "uint256",
              "name": "trackNumber",
              "type": "uint256"
            },
            {
              "internalType": "uint256",
              "name": "artistId",
              "type": "uint256"
            },
            {
              "internalType": "enum MusicMarket.SongStatus",
              "name": "status",
              "type": "uint8"
            }
          ],
          "internalType": "struct MusicMarket.Song[]",
          "name": "",
          "type": "tuple[]"
        }
      ],
      "stateMutability": "view",
      "type": "function"
    },
    {
      "inputs": [
        {
          "internalType": "uint256",
          "name": "albumId",
          "type": "uint256"
        }
      ],
      "name": "getAlbum",
      "outputs": [
        {
          "components": [
            {
              "internalType": "string",
              "name": "albumName",
              "type": "string"
            },
            {
              "internalType": "uint256",
              "name": "createdAt",
              "type": "uint256"
            },
            {
              "internalType": "enum MusicMarket.AlbumStatus",
              "name": "Status",
              "type": "uint8"
            },
            {
              "internalType": "string",
              "name": "coverUrl",
              "type": "string"
            },
            {
              "internalType": "uint256",
              "name": "mintedSongs",
              "type": "uint256"
            },
            {
              "internalType": "uint256",
              "name": "soldSongs",
              "type": "uint256"
            }
          ],
          "internalType": "struct MusicMarket.Album",
          "name": "_album",
          "type": "tuple"
        },
        {
          "internalType": "uint256[]",
          "name": "_artists",
          "type": "uint256[]"
        }
      ],
      "stateMutability": "view",
      "type": "function"
    },
    {
      "inputs": [
        {
          "internalType": "uint256",
          "name": "tokenId",
          "type": "uint256"
        }
      ],
      "name": "getItemByTokenId",
      "outputs": [
        {
          "components": [
            {
              "internalType": "uint256",
              "name": "itemId",
              "type": "uint256"
            },
            {
              "internalType": "uint256",
              "name": "tokenId",
              "type": "uint256"
            },
            {
              "internalType": "address",
              "name": "musicContract",
              "type": "address"
            },
            {
              "internalType": "address payable",
              "name": "owner",
              "type": "address"
            },
            {
              "internalType": "address payable",
              "name": "seller",
              "type": "address"
            },
            {
              "internalType": "uint256",
              "name": "price",
              "type": "uint256"
            },
            {
              "internalType": "uint256",
              "name": "albumId",
              "type": "uint256"
            },
            {
              "internalType": "uint256",
              "name": "trackNumber",
              "type": "uint256"
            },
            {
              "internalType": "uint256",
              "name": "artistId",
              "type": "uint256"
            },
            {
              "internalType": "enum MusicMarket.SongStatus",
              "name": "status",
              "type": "uint8"
            }
          ],
          "internalType": "struct MusicMarket.Song",
          "name": "item",
          "type": "tuple"
        }
      ],
      "stateMutability": "view",
      "type": "function"
    },
    {
      "inputs": [
        {
          "internalType": "uint256",
          "name": "limit",
          "type": "uint256"
        }
      ],
      "name": "getLastMinted",
      "outputs": [
        {
          "components": [
            {
              "internalType": "uint256",
              "name": "itemId",
              "type": "uint256"
            },
            {
              "internalType": "uint256",
              "name": "tokenId",
              "type": "uint256"
            },
            {
              "internalType": "address",
              "name": "musicContract",
              "type": "address"
            },
            {
              "internalType": "address payable",
              "name": "owner",
              "type": "address"
            },
            {
              "internalType": "address payable",
              "name": "seller",
              "type": "address"
            },
            {
              "internalType": "uint256",
              "name": "price",
              "type": "uint256"
            },
            {
              "internalType": "uint256",
              "name": "albumId",
              "type": "uint256"
            },
            {
              "internalType": "uint256",
              "name": "trackNumber",
              "type": "uint256"
            },
            {
              "internalType": "uint256",
              "name": "artistId",
              "type": "uint256"
            },
            {
              "internalType": "enum MusicMarket.SongStatus",
              "name": "status",
              "type": "uint8"
            }
          ],
          "internalType": "struct MusicMarket.Song[]",
          "name": "",
          "type": "tuple[]"
        }
      ],
      "stateMutability": "view",
      "type": "function"
    },
    {
      "inputs": [],
      "name": "getListingPrice",
      "outputs": [
        {
          "internalType": "uint256",
          "name": "",
          "type": "uint256"
        }
      ],
      "stateMutability": "view",
      "type": "function"
    },
    {
      "inputs": [
        {
          "internalType": "uint256[]",
          "name": "array",
          "type": "uint256[]"
        }
      ],
      "name": "getMax",
      "outputs": [
        {
          "internalType": "uint256",
          "name": "",
          "type": "uint256"
        }
      ],
      "stateMutability": "pure",
      "type": "function"
    },
    {
      "inputs": [
        {
          "internalType": "uint256",
          "name": "limit",
          "type": "uint256"
        }
      ],
      "name": "getSongs",
      "outputs": [
        {
          "components": [
            {
              "internalType": "uint256",
              "name": "itemId",
              "type": "uint256"
            },
            {
              "internalType": "uint256",
              "name": "tokenId",
              "type": "uint256"
            },
            {
              "internalType": "address",
              "name": "musicContract",
              "type": "address"
            },
            {
              "internalType": "address payable",
              "name": "owner",
              "type": "address"
            },
            {
              "internalType": "address payable",
              "name": "seller",
              "type": "address"
            },
            {
              "internalType": "uint256",
              "name": "price",
              "type": "uint256"
            },
            {
              "internalType": "uint256",
              "name": "albumId",
              "type": "uint256"
            },
            {
              "internalType": "uint256",
              "name": "trackNumber",
              "type": "uint256"
            },
            {
              "internalType": "uint256",
              "name": "artistId",
              "type": "uint256"
            },
            {
              "internalType": "enum MusicMarket.SongStatus",
              "name": "status",
              "type": "uint8"
            }
          ],
          "internalType": "struct MusicMarket.Song[]",
          "name": "",
          "type": "tuple[]"
        }
      ],
      "stateMutability": "view",
      "type": "function"
    },
    {
      "inputs": [
        {
          "internalType": "uint256",
          "name": "",
          "type": "uint256"
        }
      ],
      "name": "itemIdToSong",
      "outputs": [
        {
          "internalType": "uint256",
          "name": "itemId",
          "type": "uint256"
        },
        {
          "internalType": "uint256",
          "name": "tokenId",
          "type": "uint256"
        },
        {
          "internalType": "address",
          "name": "musicContract",
          "type": "address"
        },
        {
          "internalType": "address payable",
          "name": "owner",
          "type": "address"
        },
        {
          "internalType": "address payable",
          "name": "seller",
          "type": "address"
        },
        {
          "internalType": "uint256",
          "name": "price",
          "type": "uint256"
        },
        {
          "internalType": "uint256",
          "name": "albumId",
          "type": "uint256"
        },
        {
          "internalType": "uint256",
          "name": "trackNumber",
          "type": "uint256"
        },
        {
          "internalType": "uint256",
          "name": "artistId",
          "type": "uint256"
        },
        {
          "internalType": "enum MusicMarket.SongStatus",
          "name": "status",
          "type": "uint8"
        }
      ],
      "stateMutability": "view",
      "type": "function"
    },
    {
      "inputs": [
        {
          "internalType": "address",
          "name": "musicContract",
          "type": "address"
        },
        {
          "internalType": "uint256",
          "name": "itemId",
          "type": "uint256"
        },
        {
          "internalType": "uint256",
          "name": "price",
          "type": "uint256"
        }
      ],
      "name": "listItem",
      "outputs": [],
      "stateMutability": "payable",
      "type": "function"
    },
    {
      "inputs": [
        {
          "internalType": "uint256",
          "name": "artistId",
          "type": "uint256"
        },
        {
          "internalType": "string",
          "name": "uri",
          "type": "string"
        }
      ],
      "name": "setArtistAvatar",
      "outputs": [
        {
          "internalType": "uint256",
          "name": "artistID",
          "type": "uint256"
        }
      ],
      "stateMutability": "nonpayable",
      "type": "function"
    },
    {
      "inputs": [
        {
          "internalType": "uint256",
          "name": "price",
          "type": "uint256"
        }
      ],
      "name": "setListingPrice",
      "outputs": [
        {
          "internalType": "uint256",
          "name": "",
          "type": "uint256"
        }
      ],
      "stateMutability": "nonpayable",
      "type": "function"
    }
  ],
  "bytecode": "0x60806040526658d15e1762800060075534801561001b57600080fd5b50600160008190555033600660006101000a81548173ffffffffffffffffffffffffffffffffffffffff021916908373ffffffffffffffffffffffffffffffffffffffff160217905550615ca580620000756000396000f3fe6080604052600436106101145760003560e01c806389bfd38f116100a0578063cd7e10c111610064578063cd7e10c114610401578063d69e63bd14610440578063d6e465c91461045c578063db6927101461049a578063fb0cf2cc146104e057610114565b806389bfd38f146102fe5780639de46d091461031a578063a378b3591461034a578063b520fa8f14610387578063ca1314af146103c457610114565b806320c6b3b6116100e757806320c6b3b6146101cd5780635e4d1cc41461020a57806367dfda7814610247578063750bf75e146102845780637c726b69146102c157610114565b806301454e991461011957806312e8558514610156578063134bf711146101815780631f6035be1461019d575b600080fd5b34801561012557600080fd5b50610140600480360381019061013b9190614094565b61051d565b60405161014d9190614d6b565b60405180910390f35b34801561016257600080fd5b5061016b61059f565b60405161017891906151b0565b60405180910390f35b61019b60048036038101906101969190613f51565b6105a9565b005b6101b760048036038101906101b29190613f51565b6107fb565b6040516101c49190615194565b60405180910390f35b3480156101d957600080fd5b506101f460048036038101906101ef91906141eb565b610f6a565b6040516102019190614d49565b60405180910390f35b34801561021657600080fd5b50610231600480360381019061022c91906141eb565b61135e565b60405161023e9190614d49565b60405180910390f35b34801561025357600080fd5b5061026e60048036038101906102699190614154565b61173e565b60405161027b91906151b0565b60405180910390f35b34801561029057600080fd5b506102ab60048036038101906102a691906141eb565b611a69565b6040516102b89190614d49565b60405180910390f35b3480156102cd57600080fd5b506102e860048036038101906102e391906141eb565b611ecc565b6040516102f591906151b0565b60405180910390f35b61031860048036038101906103139190613f8d565b611fff565b005b610334600480360381019061032f9190613f51565b61229d565b6040516103419190615194565b60405180910390f35b34801561035657600080fd5b50610371600480360381019061036c9190614214565b6129f3565b60405161037e91906151b0565b60405180910390f35b34801561039357600080fd5b506103ae60048036038101906103a991906141eb565b612ba3565b6040516103bb9190615194565b60405180910390f35b3480156103d057600080fd5b506103eb60048036038101906103e69190614053565b612e43565b6040516103f891906151b0565b60405180910390f35b34801561040d57600080fd5b50610428600480360381019061042391906141eb565b612eff565b60405161043793929190614d86565b60405180910390f35b61045a60048036038101906104559190613fdc565b613046565b005b34801561046857600080fd5b50610483600480360381019061047e91906141eb565b6135c6565b60405161049192919061515d565b60405180910390f35b3480156104a657600080fd5b506104c160048036038101906104bc91906141eb565b613874565b6040516104d79a999897969594939291906151cb565b60405180910390f35b3480156104ec57600080fd5b50610507600480360381019061050291906140e8565b613935565b60405161051491906151b0565b60405180910390f35b600080600090505b83518110156105935782848281518110610568577f4e487b7100000000000000000000000000000000000000000000000000000000600052603260045260246000fd5b60200260200101511415610580576001915050610599565b808061058b90615607565b915050610525565b50600090505b92915050565b6000600754905090565b60006008600083815260200190815260200160002090506000816001015490508160030160009054906101000a900473ffffffffffffffffffffffffffffffffffffffff1673ffffffffffffffffffffffffffffffffffffffff163373ffffffffffffffffffffffffffffffffffffffff161461065b576040517f08c379a00000000000000000000000000000000000000000000000000000000081526004016106529061511d565b60405180910390fd5b60006002811115610695577f4e487b7100000000000000000000000000000000000000000000000000000000600052602160045260246000fd5b8260090160009054906101000a900460ff1660028111156106df577f4e487b7100000000000000000000000000000000000000000000000000000000600052602160045260246000fd5b1461071f576040517f08c379a0000000000000000000000000000000000000000000000000000000008152600401610716906150dd565b60405180910390fd5b60018260090160006101000a81548160ff0219169083600281111561076d577f4e487b7100000000000000000000000000000000000000000000000000000000600052602160045260246000fd5b021790555061077c6005613b65565b816006015481847fb6a6e5a1d1cba81612d627d3d366515af9bc54786897c5bb629f44b2ca1949bc8733600660009054906101000a900473ffffffffffffffffffffffffffffffffffffffff16886005015489600701548a6008015460006040516107ed9796959493929190614b89565b60405180910390a450505050565b610803613bfe565b60026000541415610849576040517f08c379a00000000000000000000000000000000000000000000000000000000081526004016108409061513d565b60405180910390fd5b6002600081905550600061085c83612ba3565b905060006002811115610898577f4e487b7100000000000000000000000000000000000000000000000000000000600052602160045260246000fd5b81610120015160028111156108d6577f4e487b7100000000000000000000000000000000000000000000000000000000600052602160045260246000fd5b14610916576040517f08c379a000000000000000000000000000000000000000000000000000000000815260040161090d90614efd565b60405180910390fd5b8060a0015134101561095d576040517f08c379a0000000000000000000000000000000000000000000000000000000008152600401610954906150fd565b60405180910390fd5b8373ffffffffffffffffffffffffffffffffffffffff166323b872dd826060015133866040518463ffffffff1660e01b815260040161099e93929190614acf565b600060405180830381600087803b1580156109b857600080fd5b505af11580156109cc573d6000803e3d6000fd5b50505050600c6000826060015173ffffffffffffffffffffffffffffffffffffffff1673ffffffffffffffffffffffffffffffffffffffff1681526020019081526020016000206000815480929190610a249061557a565b9190505550600c60003373ffffffffffffffffffffffffffffffffffffffff1673ffffffffffffffffffffffffffffffffffffffff1681526020019081526020016000206000815480929190610a7990615607565b9190505550610a886005613b7b565b806060015173ffffffffffffffffffffffffffffffffffffffff166108fc8260a001519081150290604051600060405180830381858888f19350505050158015610ad6573d6000803e3d6000fd5b5060018161012001906002811115610b17577f4e487b7100000000000000000000000000000000000000000000000000000000600052602160045260246000fd5b90816002811115610b51577f4e487b7100000000000000000000000000000000000000000000000000000000600052602160045260246000fd5b8152505033816060019073ffffffffffffffffffffffffffffffffffffffff16908173ffffffffffffffffffffffffffffffffffffffff1681525050806008600083600001518152602001908152602001600020600082015181600001556020820151816001015560408201518160020160006101000a81548173ffffffffffffffffffffffffffffffffffffffff021916908373ffffffffffffffffffffffffffffffffffffffff16021790555060608201518160030160006101000a81548173ffffffffffffffffffffffffffffffffffffffff021916908373ffffffffffffffffffffffffffffffffffffffff16021790555060808201518160040160006101000a81548173ffffffffffffffffffffffffffffffffffffffff021916908373ffffffffffffffffffffffffffffffffffffffff16021790555060a0820151816005015560c0820151816006015560e0820151816007015561010082015181600801556101208201518160090160006101000a81548160ff02191690836002811115610d09577f4e487b7100000000000000000000000000000000000000000000000000000000600052602160045260246000fd5b02179055509050508060c001518382600001517fb6a6e5a1d1cba81612d627d3d366515af9bc54786897c5bb629f44b2ca1949bc873386606001518760a001518861010001518960e001516001604051610d699796959493929190614c0c565b60405180910390a460086000826000015181526020019081526020016000206040518061014001604052908160008201548152602001600182015481526020016002820160009054906101000a900473ffffffffffffffffffffffffffffffffffffffff1673ffffffffffffffffffffffffffffffffffffffff1673ffffffffffffffffffffffffffffffffffffffff1681526020016003820160009054906101000a900473ffffffffffffffffffffffffffffffffffffffff1673ffffffffffffffffffffffffffffffffffffffff1673ffffffffffffffffffffffffffffffffffffffff1681526020016004820160009054906101000a900473ffffffffffffffffffffffffffffffffffffffff1673ffffffffffffffffffffffffffffffffffffffff1673ffffffffffffffffffffffffffffffffffffffff168152602001600582015481526020016006820154815260200160078201548152602001600882015481526020016009820160009054906101000a900460ff166002811115610f1d577f4e487b7100000000000000000000000000000000000000000000000000000000600052602160045260246000fd5b6002811115610f55577f4e487b7100000000000000000000000000000000000000000000000000000000600052602160045260246000fd5b81525050915050600160008190555092915050565b60606000610f786001613bd7565b90506000610f866002613bd7565b610f906005613bd7565b83610f9b919061539d565b610fa591906153f3565b9050600080610fb48684613be5565b905060008167ffffffffffffffff811115610ff8577f4e487b7100000000000000000000000000000000000000000000000000000000600052604160045260246000fd5b60405190808252806020026020018201604052801561103157816020015b61101e613bfe565b8152602001906001900390816110165790505b50905060005b85811015611350578284141561104c57611350565b60006002811115611086577f4e487b7100000000000000000000000000000000000000000000000000000000600052602160045260246000fd5b60086000600184611097919061539d565b815260200190815260200160002060090160009054906101000a900460ff1660028111156110ee577f4e487b7100000000000000000000000000000000000000000000000000000000600052602160045260246000fd5b141561133d57600060086000600184611107919061539d565b81526020019081526020016000206040518061014001604052908160008201548152602001600182015481526020016002820160009054906101000a900473ffffffffffffffffffffffffffffffffffffffff1673ffffffffffffffffffffffffffffffffffffffff1673ffffffffffffffffffffffffffffffffffffffff1681526020016003820160009054906101000a900473ffffffffffffffffffffffffffffffffffffffff1673ffffffffffffffffffffffffffffffffffffffff1673ffffffffffffffffffffffffffffffffffffffff1681526020016004820160009054906101000a900473ffffffffffffffffffffffffffffffffffffffff1673ffffffffffffffffffffffffffffffffffffffff1673ffffffffffffffffffffffffffffffffffffffff168152602001600582015481526020016006820154815260200160078201548152602001600882015481526020016009820160009054906101000a900460ff1660028111156112aa577f4e487b7100000000000000000000000000000000000000000000000000000000600052602160045260246000fd5b60028111156112e2577f4e487b7100000000000000000000000000000000000000000000000000000000600052602160045260246000fd5b81525050905080838681518110611322577f4e487b7100000000000000000000000000000000000000000000000000000000600052603260045260246000fd5b6020026020010181905250848061133890615607565b955050505b808061134890615607565b915050611037565b508095505050505050919050565b6060600061136c6001613bd7565b9050600061137a6002613bd7565b6113846005613bd7565b8361138f919061539d565b61139991906153f3565b90506000806113a88684613be5565b905060008167ffffffffffffffff8111156113ec577f4e487b7100000000000000000000000000000000000000000000000000000000600052604160045260246000fd5b60405190808252806020026020018201604052801561142557816020015b611412613bfe565b81526020019060019003908161140a5790505b50905060008590505b6000811115611730578284141561144457611730565b6000600281111561147e577f4e487b7100000000000000000000000000000000000000000000000000000000600052602160045260246000fd5b6008600083815260200190815260200160002060090160009054906101000a900460ff1660028111156114da577f4e487b7100000000000000000000000000000000000000000000000000000000600052602160045260246000fd5b141561171d576000600860008381526020019081526020016000206040518061014001604052908160008201548152602001600182015481526020016002820160009054906101000a900473ffffffffffffffffffffffffffffffffffffffff1673ffffffffffffffffffffffffffffffffffffffff1673ffffffffffffffffffffffffffffffffffffffff1681526020016003820160009054906101000a900473ffffffffffffffffffffffffffffffffffffffff1673ffffffffffffffffffffffffffffffffffffffff1673ffffffffffffffffffffffffffffffffffffffff1681526020016004820160009054906101000a900473ffffffffffffffffffffffffffffffffffffffff1673ffffffffffffffffffffffffffffffffffffffff1673ffffffffffffffffffffffffffffffffffffffff168152602001600582015481526020016006820154815260200160078201548152602001600882015481526020016009820160009054906101000a900460ff16600281111561168a577f4e487b7100000000000000000000000000000000000000000000000000000000600052602160045260246000fd5b60028111156116c2577f4e487b7100000000000000000000000000000000000000000000000000000000600052602160045260246000fd5b81525050905080838681518110611702577f4e487b7100000000000000000000000000000000000000000000000000000000600052603260045260246000fd5b6020026020010181905250848061171890615607565b955050505b80806117289061557a565b91505061142e565b508095505050505050919050565b60003373ffffffffffffffffffffffffffffffffffffffff16600660009054906101000a900473ffffffffffffffffffffffffffffffffffffffff1673ffffffffffffffffffffffffffffffffffffffff16146117d0576040517f08c379a00000000000000000000000000000000000000000000000000000000081526004016117c790614ffd565b60405180910390fd5b600083511415611815576040517f08c379a000000000000000000000000000000000000000000000000000000000815260040161180c90614f5d565b60405180910390fd5b60008251141561185a576040517f08c379a0000000000000000000000000000000000000000000000000000000008152600401611851906150bd565b60405180910390fd5b6118646003613bd7565b61186d83612e43565b11156118ae576040517f08c379a00000000000000000000000000000000000000000000000000000000081526004016118a590614fdd565b60405180910390fd5b6118b86004613b65565b60006118c46004613bd7565b90506040518060c0016040528086815260200142815260200160006002811115611917577f4e487b7100000000000000000000000000000000000000000000000000000000600052602160045260246000fd5b8152602001858152602001600081526020016000815250600a6000838152602001908152602001600020600082015181600001908051906020019061195d929190613ccb565b506020820151816001015560408201518160020160006101000a81548160ff021916908360028111156119b9577f4e487b7100000000000000000000000000000000000000000000000000000000600052602160045260246000fd5b021790555060608201518160030190805190602001906119da929190613ccb565b506080820151816004015560a0820151816005015590505082600b60008381526020019081526020016000209080519060200190611a19929190613d51565b50807f4ad0e5615b1c242c0e644cb5b2255aa337a06268781317cdc14d09d1a51eb1678642600088600080604051611a5696959493929190614e23565b60405180910390a2809150509392505050565b60606000611a776001613bd7565b90506000600c60003373ffffffffffffffffffffffffffffffffffffffff1673ffffffffffffffffffffffffffffffffffffffff168152602001908152602001600020549050600080821415611b4c57600067ffffffffffffffff811115611b08577f4e487b7100000000000000000000000000000000000000000000000000000000600052604160045260246000fd5b604051908082528060200260200182016040528015611b4157816020015b611b2e613bfe565b815260200190600190039081611b265790505b509350505050611ec7565b6000611b588684613be5565b905060008167ffffffffffffffff811115611b9c577f4e487b7100000000000000000000000000000000000000000000000000000000600052604160045260246000fd5b604051908082528060200260200182016040528015611bd557816020015b611bc2613bfe565b815260200190600190039081611bba5790505b50905060005b85811015611ebd5782841415611bf057611ebd565b3373ffffffffffffffffffffffffffffffffffffffff1660086000600184611c18919061539d565b815260200190815260200160002060030160009054906101000a900473ffffffffffffffffffffffffffffffffffffffff1673ffffffffffffffffffffffffffffffffffffffff161415611eaa5760086000600183611c77919061539d565b81526020019081526020016000206040518061014001604052908160008201548152602001600182015481526020016002820160009054906101000a900473ffffffffffffffffffffffffffffffffffffffff1673ffffffffffffffffffffffffffffffffffffffff1673ffffffffffffffffffffffffffffffffffffffff1681526020016003820160009054906101000a900473ffffffffffffffffffffffffffffffffffffffff1673ffffffffffffffffffffffffffffffffffffffff1673ffffffffffffffffffffffffffffffffffffffff1681526020016004820160009054906101000a900473ffffffffffffffffffffffffffffffffffffffff1673ffffffffffffffffffffffffffffffffffffffff1673ffffffffffffffffffffffffffffffffffffffff168152602001600582015481526020016006820154815260200160078201548152602001600882015481526020016009820160009054906101000a900460ff166002811115611e1a577f4e487b7100000000000000000000000000000000000000000000000000000000600052602160045260246000fd5b6002811115611e52577f4e487b7100000000000000000000000000000000000000000000000000000000600052602160045260246000fd5b81525050828581518110611e8f577f4e487b7100000000000000000000000000000000000000000000000000000000600052603260045260246000fd5b6020026020010181905250600184611ea7919061539d565b93505b8080611eb590615607565b915050611bdb565b5080955050505050505b919050565b60003373ffffffffffffffffffffffffffffffffffffffff16600660009054906101000a900473ffffffffffffffffffffffffffffffffffffffff1673ffffffffffffffffffffffffffffffffffffffff1614611f5e576040517f08c379a0000000000000000000000000000000000000000000000000000000008152600401611f5590614ffd565b60405180910390fd5b3373ffffffffffffffffffffffffffffffffffffffff16600660009054906101000a900473ffffffffffffffffffffffffffffffffffffffff1673ffffffffffffffffffffffffffffffffffffffff1614611fee576040517f08c379a0000000000000000000000000000000000000000000000000000000008152600401611fe59061507d565b60405180910390fd5b816007819055506007549050919050565b60006008600084815260200190815260200160002090506000816001015490508160030160009054906101000a900473ffffffffffffffffffffffffffffffffffffffff1673ffffffffffffffffffffffffffffffffffffffff163373ffffffffffffffffffffffffffffffffffffffff16146120b1576040517f08c379a00000000000000000000000000000000000000000000000000000000081526004016120a89061511d565b60405180910390fd5b600060028111156120eb577f4e487b7100000000000000000000000000000000000000000000000000000000600052602160045260246000fd5b8260090160009054906101000a900460ff166002811115612135577f4e487b7100000000000000000000000000000000000000000000000000000000600052602160045260246000fd5b1415612176576040517f08c379a000000000000000000000000000000000000000000000000000000000815260040161216d90614f3d565b60405180910390fd5b6007543410156121bb576040517f08c379a00000000000000000000000000000000000000000000000000000000081526004016121b29061505d565b60405180910390fd5b82826005018190555060008260090160006101000a81548160ff02191690836002811115612212577f4e487b7100000000000000000000000000000000000000000000000000000000600052602160045260246000fd5b02179055506122216005613b65565b816006015481857fb6a6e5a1d1cba81612d627d3d366515af9bc54786897c5bb629f44b2ca1949bc8833600660009054906101000a900473ffffffffffffffffffffffffffffffffffffffff168989600701548a60080154600060405161228e9796959493929190614b89565b60405180910390a45050505050565b6122a5613bfe565b600260005414156122eb576040517f08c379a00000000000000000000000000000000000000000000000000000000081526004016122e29061513d565b60405180910390fd5b60026000819055506000600860008481526020019081526020016000206040518061014001604052908160008201548152602001600182015481526020016002820160009054906101000a900473ffffffffffffffffffffffffffffffffffffffff1673ffffffffffffffffffffffffffffffffffffffff1673ffffffffffffffffffffffffffffffffffffffff1681526020016003820160009054906101000a900473ffffffffffffffffffffffffffffffffffffffff1673ffffffffffffffffffffffffffffffffffffffff1673ffffffffffffffffffffffffffffffffffffffff1681526020016004820160009054906101000a900473ffffffffffffffffffffffffffffffffffffffff1673ffffffffffffffffffffffffffffffffffffffff1673ffffffffffffffffffffffffffffffffffffffff168152602001600582015481526020016006820154815260200160078201548152602001600882015481526020016009820160009054906101000a900460ff16600281111561249d577f4e487b7100000000000000000000000000000000000000000000000000000000600052602160045260246000fd5b60028111156124d5577f4e487b7100000000000000000000000000000000000000000000000000000000600052602160045260246000fd5b81525050905060008160a00151905060008260200151905081341015612530576040517f08c379a00000000000000000000000000000000000000000000000000000000081526004016125279061505d565b60405180910390fd5b8573ffffffffffffffffffffffffffffffffffffffff166323b872dd3033846040518463ffffffff1660e01b815260040161256d93929190614d12565b600060405180830381600087803b15801561258757600080fd5b505af115801561259b573d6000803e3d6000fd5b50505050600c60003373ffffffffffffffffffffffffffffffffffffffff1673ffffffffffffffffffffffffffffffffffffffff16815260200190815260200160002060008154809291906125ef90615607565b919050555060018361012001906002811115612634577f4e487b7100000000000000000000000000000000000000000000000000000000600052602160045260246000fd5b9081600281111561266e577f4e487b7100000000000000000000000000000000000000000000000000000000600052602160045260246000fd5b8152505033836060019073ffffffffffffffffffffffffffffffffffffffff16908173ffffffffffffffffffffffffffffffffffffffff16815250506126b46002613b65565b826080015173ffffffffffffffffffffffffffffffffffffffff166108fc839081150290604051600060405180830381858888f193505050501580156126fe573d6000803e3d6000fd5b50600660009054906101000a900473ffffffffffffffffffffffffffffffffffffffff1673ffffffffffffffffffffffffffffffffffffffff166108fc6007549081150290604051600060405180830381858888f19350505050158015612769573d6000803e3d6000fd5b508260086000878152602001908152602001600020600082015181600001556020820151816001015560408201518160020160006101000a81548173ffffffffffffffffffffffffffffffffffffffff021916908373ffffffffffffffffffffffffffffffffffffffff16021790555060608201518160030160006101000a81548173ffffffffffffffffffffffffffffffffffffffff021916908373ffffffffffffffffffffffffffffffffffffffff16021790555060808201518160040160006101000a81548173ffffffffffffffffffffffffffffffffffffffff021916908373ffffffffffffffffffffffffffffffffffffffff16021790555060a0820151816005015560c0820151816006015560e0820151816007015561010082015181600801556101208201518160090160006101000a81548160ff021916908360028111156128e2577f4e487b7100000000000000000000000000000000000000000000000000000000600052602160045260246000fd5b0217905550905050600860008681526020019081526020016000206006015481867fb6a6e5a1d1cba81612d627d3d366515af9bc54786897c5bb629f44b2ca1949bc89600860008b815260200190815260200160002060030160009054906101000a900473ffffffffffffffffffffffffffffffffffffffff16600860008c815260200190815260200160002060040160009054906101000a900473ffffffffffffffffffffffffffffffffffffffff1688600860008e815260200190815260200160002060070154600860008f81526020019081526020016000206008015460016040516129d79796959493929190614b06565b60405180910390a4829350505050600160008190555092915050565b60003373ffffffffffffffffffffffffffffffffffffffff16600660009054906101000a900473ffffffffffffffffffffffffffffffffffffffff1673ffffffffffffffffffffffffffffffffffffffff1614612a85576040517f08c379a0000000000000000000000000000000000000000000000000000000008152600401612a7c90614ffd565b60405180910390fd5b600082511415612aca576040517f08c379a0000000000000000000000000000000000000000000000000000000008152600401612ac190614f5d565b60405180910390fd5b612ad46003613bd7565b831115612b16576040517f08c379a0000000000000000000000000000000000000000000000000000000008152600401612b0d90614f5d565b60405180910390fd5b600060096000858152602001908152602001600020905082816002019080519060200190612b45929190613ccb565b50837fd0c34c2dc72a3b67166415e7297a3546fb4daf5fd2ea4e8a1497d9859297dba1826000018360010160009054906101000a900460ff1684600201604051612b9193929190614ea5565b60405180910390a28391505092915050565b612bab613bfe565b6000612bb76001613bd7565b905060005b81811015612dfa578360086000600184612bd6919061539d565b8152602001908152602001600020600101541415612de75760086000600183612bff919061539d565b81526020019081526020016000206040518061014001604052908160008201548152602001600182015481526020016002820160009054906101000a900473ffffffffffffffffffffffffffffffffffffffff1673ffffffffffffffffffffffffffffffffffffffff1673ffffffffffffffffffffffffffffffffffffffff1681526020016003820160009054906101000a900473ffffffffffffffffffffffffffffffffffffffff1673ffffffffffffffffffffffffffffffffffffffff1673ffffffffffffffffffffffffffffffffffffffff1681526020016004820160009054906101000a900473ffffffffffffffffffffffffffffffffffffffff1673ffffffffffffffffffffffffffffffffffffffff1673ffffffffffffffffffffffffffffffffffffffff168152602001600582015481526020016006820154815260200160078201548152602001600882015481526020016009820160009054906101000a900460ff166002811115612da2577f4e487b7100000000000000000000000000000000000000000000000000000000600052602160045260246000fd5b6002811115612dda577f4e487b7100000000000000000000000000000000000000000000000000000000600052602160045260246000fd5b8152505092505050612e3e565b8080612df290615607565b915050612bbc565b506000612e3c576040517f08c379a0000000000000000000000000000000000000000000000000000000008152600401612e339061503d565b60405180910390fd5b505b919050565b6000806000905060005b8351811015612ef55781848281518110612e90577f4e487b7100000000000000000000000000000000000000000000000000000000600052603260045260246000fd5b60200260200101511115612ee257838181518110612ed7577f4e487b7100000000000000000000000000000000000000000000000000000000600052603260045260246000fd5b602002602001015191505b8080612eed90615607565b915050612e4d565b8192505050919050565b6009602052806000526040600020600091509050806000018054612f22906155a4565b80601f0160208091040260200160405190810160405280929190818152602001828054612f4e906155a4565b8015612f9b5780601f10612f7057610100808354040283529160200191612f9b565b820191906000526020600020905b815481529060010190602001808311612f7e57829003601f168201915b5050505050908060010160009054906101000a900460ff1690806002018054612fc3906155a4565b80601f0160208091040260200160405190810160405280929190818152602001828054612fef906155a4565b801561303c5780601f106130115761010080835404028352916020019161303c565b820191906000526020600020905b81548152906001019060200180831161301f57829003601f168201915b5050505050905083565b6002600054141561308c576040517f08c379a00000000000000000000000000000000000000000000000000000000081526004016130839061513d565b60405180910390fd5b6002600081905550600081116130d7576040517f08c379a00000000000000000000000000000000000000000000000000000000081526004016130ce9061501d565b60405180910390fd5b60075434101561311c576040517f08c379a00000000000000000000000000000000000000000000000000000000081526004016131139061509d565b60405180910390fd5b6131266001613bd7565b841015613168576040517f08c379a000000000000000000000000000000000000000000000000000000000815260040161315f90614f9d565b60405180910390fd5b6131726004613bd7565b8310156131b4576040517f08c379a00000000000000000000000000000000000000000000000000000000081526004016131ab90614f7d565b60405180910390fd5b61321f600b600085815260200190815260200160002080548060200260200160405190810160405280929190818152602001828054801561321457602002820191906000526020600020905b815481526020019060010190808311613200575b50505050508361051d565b61325e576040517f08c379a000000000000000000000000000000000000000000000000000000000815260040161325590614f1d565b60405180910390fd5b6132686001613b65565b60006132746001613bd7565b90506000600a600086815260200190815260200160002090506040518061014001604052808381526020018781526020018873ffffffffffffffffffffffffffffffffffffffff168152602001600073ffffffffffffffffffffffffffffffffffffffff1681526020013373ffffffffffffffffffffffffffffffffffffffff16815260200184815260200186815260200160018360040154613317919061539d565b81526020018581526020016000600281111561335c577f4e487b7100000000000000000000000000000000000000000000000000000000600052602160045260246000fd5b81525060086000848152602001908152602001600020600082015181600001556020820151816001015560408201518160020160006101000a81548173ffffffffffffffffffffffffffffffffffffffff021916908373ffffffffffffffffffffffffffffffffffffffff16021790555060608201518160030160006101000a81548173ffffffffffffffffffffffffffffffffffffffff021916908373ffffffffffffffffffffffffffffffffffffffff16021790555060808201518160040160006101000a81548173ffffffffffffffffffffffffffffffffffffffff021916908373ffffffffffffffffffffffffffffffffffffffff16021790555060a0820151816005015560c0820151816006015560e0820151816007015561010082015181600801556101208201518160090160006101000a81548160ff021916908360028111156134d6577f4e487b7100000000000000000000000000000000000000000000000000000000600052602160045260246000fd5b021790555090505060018160040160008282546134f3919061539d565b925050819055508673ffffffffffffffffffffffffffffffffffffffff166323b872dd3330896040518463ffffffff1660e01b815260040161353793929190614d12565b600060405180830381600087803b15801561355157600080fd5b505af1158015613565573d6000803e3d6000fd5b505050508486837fb6a6e5a1d1cba81612d627d3d366515af9bc54786897c5bb629f44b2ca1949bc8a600033898b896004015460006040516135ad9796959493929190614c8f565b60405180910390a4505060016000819055505050505050565b6135ce613d9e565b6060826135db6004613bd7565b101561361c576040517f08c379a00000000000000000000000000000000000000000000000000000000081526004016136139061503d565b60405180910390fd5b600a6000848152602001908152602001600020600b6000858152602001908152602001600020816040518060c001604052908160008201805461365e906155a4565b80601f016020809104026020016040519081016040528092919081815260200182805461368a906155a4565b80156136d75780601f106136ac576101008083540402835291602001916136d7565b820191906000526020600020905b8154815290600101906020018083116136ba57829003601f168201915b50505050508152602001600182015481526020016002820160009054906101000a900460ff166002811115613735577f4e487b7100000000000000000000000000000000000000000000000000000000600052602160045260246000fd5b600281111561376d577f4e487b7100000000000000000000000000000000000000000000000000000000600052602160045260246000fd5b8152602001600382018054613781906155a4565b80601f01602080910402602001604051908101604052809291908181526020018280546137ad906155a4565b80156137fa5780601f106137cf576101008083540402835291602001916137fa565b820191906000526020600020905b8154815290600101906020018083116137dd57829003601f168201915b505050505081526020016004820154815260200160058201548152505091508080548060200260200160405190810160405280929190818152602001828054801561386457602002820191906000526020600020905b815481526020019060010190808311613850575b5050505050905091509150915091565b60086020528060005260406000206000915090508060000154908060010154908060020160009054906101000a900473ffffffffffffffffffffffffffffffffffffffff16908060030160009054906101000a900473ffffffffffffffffffffffffffffffffffffffff16908060040160009054906101000a900473ffffffffffffffffffffffffffffffffffffffff16908060050154908060060154908060070154908060080154908060090160009054906101000a900460ff1690508a565b60003373ffffffffffffffffffffffffffffffffffffffff16600660009054906101000a900473ffffffffffffffffffffffffffffffffffffffff1673ffffffffffffffffffffffffffffffffffffffff16146139c7576040517f08c379a00000000000000000000000000000000000000000000000000000000081526004016139be90614ffd565b60405180910390fd5b600082511415613a0c576040517f08c379a0000000000000000000000000000000000000000000000000000000008152600401613a0390614f5d565b60405180910390fd5b613a166003613b65565b6000613a226003613bd7565b9050604051806060016040528085815260200160006002811115613a6f577f4e487b7100000000000000000000000000000000000000000000000000000000600052602160045260246000fd5b815260200184815250600960008381526020019081526020016000206000820151816000019080519060200190613aa7929190613ccb565b5060208201518160010160006101000a81548160ff02191690836002811115613af9577f4e487b7100000000000000000000000000000000000000000000000000000000600052602160045260246000fd5b02179055506040820151816002019080519060200190613b1a929190613ccb565b50905050807fd0c34c2dc72a3b67166415e7297a3546fb4daf5fd2ea4e8a1497d9859297dba185600086604051613b5393929190614dcb565b60405180910390a28091505092915050565b6001816000016000828254019250508190555050565b60008160000154905060008111613bc7576040517f08c379a0000000000000000000000000000000000000000000000000000000008152600401613bbe90614fbd565b60405180910390fd5b6001810382600001819055505050565b600081600001549050919050565b6000818310613bf45781613bf6565b825b905092915050565b6040518061014001604052806000815260200160008152602001600073ffffffffffffffffffffffffffffffffffffffff168152602001600073ffffffffffffffffffffffffffffffffffffffff168152602001600073ffffffffffffffffffffffffffffffffffffffff1681526020016000815260200160008152602001600081526020016000815260200160006002811115613cc5577f4e487b7100000000000000000000000000000000000000000000000000000000600052602160045260246000fd5b81525090565b828054613cd7906155a4565b90600052602060002090601f016020900481019282613cf95760008555613d40565b82601f10613d1257805160ff1916838001178555613d40565b82800160010185558215613d40579182015b82811115613d3f578251825591602001919060010190613d24565b5b509050613d4d9190613e0c565b5090565b828054828255906000526020600020908101928215613d8d579160200282015b82811115613d8c578251825591602001919060010190613d71565b5b509050613d9a9190613e0c565b5090565b6040518060c00160405280606081526020016000815260200160006002811115613df1577f4e487b7100000000000000000000000000000000000000000000000000000000600052602160045260246000fd5b81526020016060815260200160008152602001600081525090565b5b80821115613e25576000816000905550600101613e0d565b5090565b6000613e3c613e378461528c565b615267565b90508083825260208201905082856020860282011115613e5b57600080fd5b60005b85811015613e8b5781613e718882613f3c565b845260208401935060208301925050600181019050613e5e565b5050509392505050565b6000613ea8613ea3846152b8565b615267565b905082815260208101848484011115613ec057600080fd5b613ecb848285615538565b509392505050565b600081359050613ee281615c41565b92915050565b600082601f830112613ef957600080fd5b8135613f09848260208601613e29565b91505092915050565b600082601f830112613f2357600080fd5b8135613f33848260208601613e95565b91505092915050565b600081359050613f4b81615c58565b92915050565b60008060408385031215613f6457600080fd5b6000613f7285828601613ed3565b9250506020613f8385828601613f3c565b9150509250929050565b600080600060608486031215613fa257600080fd5b6000613fb086828701613ed3565b9350506020613fc186828701613f3c565b9250506040613fd286828701613f3c565b9150509250925092565b600080600080600060a08688031215613ff457600080fd5b600061400288828901613ed3565b955050602061401388828901613f3c565b945050604061402488828901613f3c565b935050606061403588828901613f3c565b925050608061404688828901613f3c565b9150509295509295909350565b60006020828403121561406557600080fd5b600082013567ffffffffffffffff81111561407f57600080fd5b61408b84828501613ee8565b91505092915050565b600080604083850312156140a757600080fd5b600083013567ffffffffffffffff8111156140c157600080fd5b6140cd85828601613ee8565b92505060206140de85828601613f3c565b9150509250929050565b600080604083850312156140fb57600080fd5b600083013567ffffffffffffffff81111561411557600080fd5b61412185828601613f12565b925050602083013567ffffffffffffffff81111561413e57600080fd5b61414a85828601613f12565b9150509250929050565b60008060006060848603121561416957600080fd5b600084013567ffffffffffffffff81111561418357600080fd5b61418f86828701613f12565b935050602084013567ffffffffffffffff8111156141ac57600080fd5b6141b886828701613f12565b925050604084013567ffffffffffffffff8111156141d557600080fd5b6141e186828701613ee8565b9150509250925092565b6000602082840312156141fd57600080fd5b600061420b84828501613f3c565b91505092915050565b6000806040838503121561422757600080fd5b600061423585828601613f3c565b925050602083013567ffffffffffffffff81111561425257600080fd5b61425e85828601613f12565b9150509250929050565b60006142748383614919565b6101408301905092915050565b600061428d8383614ab1565b60208301905092915050565b6142a2816154ba565b82525050565b6142b181615439565b82525050565b6142c081615439565b82525050565b6142cf81615427565b82525050565b6142de81615427565b82525050565b60006142ef8261531e565b6142f98185615359565b9350614304836152e9565b8060005b8381101561433557815161431c8882614268565b97506143278361533f565b925050600181019050614308565b5085935050505092915050565b600061434d82615329565b614357818561536a565b9350614362836152f9565b8060005b8381101561439357815161437a8882614281565b97506143858361534c565b925050600181019050614366565b5085935050505092915050565b6143a98161544b565b82525050565b6143b8816154cc565b82525050565b6143c7816154cc565b82525050565b6143d6816154de565b82525050565b6143e5816154f0565b82525050565b6143f4816154f0565b82525050565b61440381615502565b82525050565b600061441482615334565b61441e818561537b565b935061442e818560208601615547565b6144378161570c565b840191505092915050565b600061444d82615334565b614457818561538c565b9350614467818560208601615547565b6144708161570c565b840191505092915050565b60008154614488816155a4565b614492818661538c565b945060018216600081146144ad57600181146144bf576144f2565b60ff19831686526020860193506144f2565b6144c885615309565b60005b838110156144ea578154818901526001820191506020810190506144cb565b808801955050505b50505092915050565b600061450860258361538c565b91506145138261571d565b604082019050919050565b600061452b601f8361538c565b91506145368261576c565b602082019050919050565b600061454e60208361538c565b915061455982615795565b602082019050919050565b600061457160118361538c565b915061457c826157be565b602082019050919050565b600061459460198361538c565b915061459f826157e7565b602082019050919050565b60006145b7600f8361538c565b91506145c282615810565b602082019050919050565b60006145da600f8361538c565b91506145e582615839565b602082019050919050565b60006145fd601b8361538c565b915061460882615862565b602082019050919050565b600061462060288361538c565b915061462b8261588b565b604082019050919050565b600061464360188361538c565b915061464e826158da565b602082019050919050565b600061466660258361538c565b915061467182615903565b604082019050919050565b6000614689600d8361538c565b915061469482615952565b602082019050919050565b60006146ac60108361538c565b91506146b78261597b565b602082019050919050565b60006146cf60208361538c565b91506146da826159a4565b602082019050919050565b60006146f2600d8361538c565b91506146fd826159cd565b602082019050919050565b600061471560148361538c565b9150614720826159f6565b602082019050919050565b600061473860248361538c565b915061474382615a1f565b604082019050919050565b600061475b60108361538c565b915061476682615a6e565b602082019050919050565b600061477e60178361538c565b915061478982615a97565b602082019050919050565b60006147a160198361538c565b91506147ac82615ac0565b602082019050919050565b60006147c460228361538c565b91506147cf82615ae9565b604082019050919050565b60006147e760118361538c565b91506147f282615b38565b602082019050919050565b600061480a601a8361538c565b915061481582615b61565b602082019050919050565b600061482d600e8361538c565b915061483882615b8a565b602082019050919050565b6000614850601f8361538c565b915061485b82615bb3565b602082019050919050565b6000614873600d8361538c565b915061487e82615bdc565b602082019050919050565b600060c08301600083015184820360008601526148a68282614409565b91505060208301516148bb6020860182614ab1565b5060408301516148ce60408601826143af565b50606083015184820360608601526148e68282614409565b91505060808301516148fb6080860182614ab1565b5060a083015161490e60a0860182614ab1565b508091505092915050565b610140820160008201516149306000850182614ab1565b5060208201516149436020850182614ab1565b50604082015161495660408501826142c6565b50606082015161496960608501826142a8565b50608082015161497c60808501826142a8565b5060a082015161498f60a0850182614ab1565b5060c08201516149a260c0850182614ab1565b5060e08201516149b560e0850182614ab1565b506101008201516149ca610100850182614ab1565b506101208201516149df6101208501826143dc565b50505050565b610140820160008201516149fc6000850182614ab1565b506020820151614a0f6020850182614ab1565b506040820151614a2260408501826142c6565b506060820151614a3560608501826142a8565b506080820151614a4860808501826142a8565b5060a0820151614a5b60a0850182614ab1565b5060c0820151614a6e60c0850182614ab1565b5060e0820151614a8160e0850182614ab1565b50610100820151614a96610100850182614ab1565b50610120820151614aab6101208501826143dc565b50505050565b614aba816154b0565b82525050565b614ac9816154b0565b82525050565b6000606082019050614ae46000830186614299565b614af160208301856142d5565b614afe6040830184614ac0565b949350505050565b600061010082019050614b1c600083018a6142d5565b614b296020830189614299565b614b366040830188614299565b614b436060830187614ac0565b614b506080830186614ac0565b614b5d60a0830185614ac0565b614b6a60c08301846143eb565b81810360e0830152614b7b81614708565b905098975050505050505050565b600061010082019050614b9f600083018a6142d5565b614bac60208301896142d5565b614bb96040830188614299565b614bc66060830187614ac0565b614bd36080830186614ac0565b614be060a0830185614ac0565b614bed60c08301846143eb565b81810360e0830152614bfe8161467c565b905098975050505050505050565b600061010082019050614c22600083018a6142d5565b614c2f60208301896142d5565b614c3c6040830188614299565b614c496060830187614ac0565b614c566080830186614ac0565b614c6360a0830185614ac0565b614c7060c08301846143eb565b81810360e0830152614c8181614866565b905098975050505050505050565b600061010082019050614ca5600083018a6142d5565b614cb260208301896142d5565b614cbf60408301886142d5565b614ccc6060830187614ac0565b614cd96080830186614ac0565b614ce660a0830185614ac0565b614cf360c08301846143eb565b81810360e0830152614d048161474e565b905098975050505050505050565b6000606082019050614d2760008301866142d5565b614d3460208301856142d5565b614d416040830184614ac0565b949350505050565b60006020820190508181036000830152614d6381846142e4565b905092915050565b6000602082019050614d8060008301846143a0565b92915050565b60006060820190508181036000830152614da08186614442565b9050614daf60208301856143cd565b8181036040830152614dc18184614442565b9050949350505050565b60006080820190508181036000830152614de58186614442565b9050614df460208301856143cd565b8181036040830152614e068184614442565b90508181036060830152614e1981614820565b9050949350505050565b600060e0820190508181036000830152614e3d8189614442565b9050614e4c6020830188614ac0565b614e5960408301876143be565b8181036060830152614e6b8186614442565b9050614e7a60808301856143fa565b614e8760a08301846143fa565b81810360c0830152614e98816146e5565b9050979650505050505050565b60006080820190508181036000830152614ebf818661447b565b9050614ece60208301856143cd565b8181036040830152614ee0818461447b565b90508181036060830152614ef381614564565b9050949350505050565b60006020820190508181036000830152614f16816144fb565b9050919050565b60006020820190508181036000830152614f368161451e565b9050919050565b60006020820190508181036000830152614f5681614541565b9050919050565b60006020820190508181036000830152614f7681614587565b9050919050565b60006020820190508181036000830152614f96816145aa565b9050919050565b60006020820190508181036000830152614fb6816145cd565b9050919050565b60006020820190508181036000830152614fd6816145f0565b9050919050565b60006020820190508181036000830152614ff681614613565b9050919050565b6000602082019050818103600083015261501681614636565b9050919050565b6000602082019050818103600083015261503681614659565b9050919050565b600060208201905081810360008301526150568161469f565b9050919050565b60006020820190508181036000830152615076816146c2565b9050919050565b600060208201905081810360008301526150968161472b565b9050919050565b600060208201905081810360008301526150b681614771565b9050919050565b600060208201905081810360008301526150d681614794565b9050919050565b600060208201905081810360008301526150f6816147b7565b9050919050565b60006020820190508181036000830152615116816147da565b9050919050565b60006020820190508181036000830152615136816147fd565b9050919050565b6000602082019050818103600083015261515681614843565b9050919050565b600060408201905081810360008301526151778185614889565b9050818103602083015261518b8184614342565b90509392505050565b6000610140820190506151aa60008301846149e5565b92915050565b60006020820190506151c56000830184614ac0565b92915050565b6000610140820190506151e1600083018d614ac0565b6151ee602083018c614ac0565b6151fb604083018b6142d5565b615208606083018a6142b7565b61521560808301896142b7565b61522260a0830188614ac0565b61522f60c0830187614ac0565b61523c60e0830186614ac0565b61524a610100830185614ac0565b6152586101208301846143eb565b9b9a5050505050505050505050565b6000615271615282565b905061527d82826155d6565b919050565b6000604051905090565b600067ffffffffffffffff8211156152a7576152a66156dd565b5b602082029050602081019050919050565b600067ffffffffffffffff8211156152d3576152d26156dd565b5b6152dc8261570c565b9050602081019050919050565b6000819050602082019050919050565b6000819050602082019050919050565b60008190508160005260206000209050919050565b600081519050919050565b600081519050919050565b600081519050919050565b6000602082019050919050565b6000602082019050919050565b600082825260208201905092915050565b600082825260208201905092915050565b600082825260208201905092915050565b600082825260208201905092915050565b60006153a8826154b0565b91506153b3836154b0565b9250827fffffffffffffffffffffffffffffffffffffffffffffffffffffffffffffffff038211156153e8576153e7615650565b5b828201905092915050565b60006153fe826154b0565b9150615409836154b0565b92508282101561541c5761541b615650565b5b828203905092915050565b600061543282615490565b9050919050565b600061544482615490565b9050919050565b60008115159050919050565b600081905061546582615c05565b919050565b600081905061547882615c19565b919050565b600081905061548b82615c2d565b919050565b600073ffffffffffffffffffffffffffffffffffffffff82169050919050565b6000819050919050565b60006154c582615514565b9050919050565b60006154d782615457565b9050919050565b60006154e98261546a565b9050919050565b60006154fb8261547d565b9050919050565b600061550d826154b0565b9050919050565b600061551f82615526565b9050919050565b600061553182615490565b9050919050565b82818337600083830152505050565b60005b8381101561556557808201518184015260208101905061554a565b83811115615574576000848401525b50505050565b6000615585826154b0565b9150600082141561559957615598615650565b5b600182039050919050565b600060028204905060018216806155bc57607f821691505b602082108114156155d0576155cf6156ae565b5b50919050565b6155df8261570c565b810181811067ffffffffffffffff821117156155fe576155fd6156dd565b5b80604052505050565b6000615612826154b0565b91507fffffffffffffffffffffffffffffffffffffffffffffffffffffffffffffffff82141561564557615644615650565b5b600182019050919050565b7f4e487b7100000000000000000000000000000000000000000000000000000000600052601160045260246000fd5b7f4e487b7100000000000000000000000000000000000000000000000000000000600052602160045260246000fd5b7f4e487b7100000000000000000000000000000000000000000000000000000000600052602260045260246000fd5b7f4e487b7100000000000000000000000000000000000000000000000000000000600052604160045260246000fd5b6000601f19601f8301169050919050565b7f4974656d7320546861742061696e74204c69737465642063616e74206265205360008201527f6f6c646564000000000000000000000000000000000000000000000000000000602082015250565b7f5468697320417274697374206973204e6f74206f6e2074686520416c62756d00600082015250565b7f43616e74206c697374207468617420697320616c7265616479204c6973746564600082015250565b7f4172746973742041766174617220736574000000000000000000000000000000600082015250565b7f5552492063616e74206265206e756c6c206f7220656d70747900000000000000600082015250565b7f496e76616c696420416c62756d49640000000000000000000000000000000000600082015250565b7f696e76616c696420546f6b656e49640000000000000000000000000000000000600082015250565b7f436f756e7465723a2064656372656d656e74206f766572666c6f770000000000600082015250565b7f546865206172726179206172746973747320636f6e7461696e7320616e20496e60008201527f76616c6964204964000000000000000000000000000000000000000000000000602082015250565b7f43616c6c6572206d75737420626520746865206f776e65720000000000000000600082015250565b7f4974656d205072696365206d6f73742062652067726561746572207468656e2060008201527f3120574549000000000000000000000000000000000000000000000000000000602082015250565b7f4c697374204d757369634e465400000000000000000000000000000000000000600082015250565b7f496e76616c696420546f6b656e20494400000000000000000000000000000000600082015250565b7f6b696e646c79207472616e7366657220746865206c6973746564207072696365600082015250565b7f4372656174656420416c62756d00000000000000000000000000000000000000600082015250565b7f5472616e73666572726564204d757369634e4654000000000000000000000000600082015250565b7f4f6e6c7920746865204f776e65722043616e20736574204c697374696e67205060008201527f7269636500000000000000000000000000000000000000000000000000000000602082015250565b7f43726561746564204d757369634e465400000000000000000000000000000000600082015250565b7f496e737566666963656e74206c697374696e6720666565000000000000000000600082015250565b7f4174206c6561737420696e636c7564652061206c656e67746800000000000000600082015250565b7f43616e74206c697374207468617420697320616c726561647920756e4c69737460008201527f6564000000000000000000000000000000000000000000000000000000000000602082015250565b7f496e737566666963656e742066756e6473000000000000000000000000000000600082015250565b7f796f75206d757374206d75737420626520746865206f776e6572000000000000600082015250565b7f4172746973742043726561746564000000000000000000000000000000000000600082015250565b7f5265656e7472616e637947756172643a207265656e7472616e742063616c6c00600082015250565b7f536f6c64204d757369634e465400000000000000000000000000000000000000600082015250565b60038110615c1657615c1561567f565b5b50565b60038110615c2a57615c2961567f565b5b50565b60038110615c3e57615c3d61567f565b5b50565b615c4a81615427565b8114615c5557600080fd5b50565b615c61816154b0565b8114615c6c57600080fd5b5056fea2646970667358221220769d7f6f117f73bd9327e8285b71de99b14c92ecc2a19b2189aefb0e364497fd64736f6c63430008040033",
  "linkReferences": {},
  "deployedLinkReferences": {}
}