{
  "_format": "hh-sol-artifact-1",
  "contractName": "MusicMarket",
  "sourceName": "contracts/MusicMarket.sol",
  "abi": [
    {
      "inputs": [],
      "stateMutability": "nonpayable",
      "type": "constructor"
    },
    {
      "anonymous": false,
      "inputs": [
        {
          "indexed": true,
          "internalType": "uint256",
          "name": "albumId",
          "type": "uint256"
        },
        {
          "indexed": false,
          "internalType": "string",
          "name": "albumName",
          "type": "string"
        },
        {
          "indexed": false,
          "internalType": "uint256",
          "name": "createdAt",
          "type": "uint256"
        },
        {
          "indexed": false,
          "internalType": "enum MusicMarket.AlbumStatus",
          "name": "Status",
          "type": "uint8"
        },
        {
          "indexed": false,
          "internalType": "string",
          "name": "coverUrl",
          "type": "string"
        },
        {
          "indexed": false,
          "internalType": "uint256",
          "name": "mintedSongs",
          "type": "uint256"
        },
        {
          "indexed": false,
          "internalType": "uint256",
          "name": "soldSongs",
          "type": "uint256"
        },
        {
          "indexed": false,
          "internalType": "string",
          "name": "message",
          "type": "string"
        }
      ],
      "name": "AlbumEvent",
      "type": "event"
    },
    {
      "anonymous": false,
      "inputs": [
        {
          "indexed": true,
          "internalType": "uint256",
          "name": "artistId",
          "type": "uint256"
        },
        {
          "indexed": false,
          "internalType": "string",
          "name": "artistName",
          "type": "string"
        },
        {
          "indexed": false,
          "internalType": "enum MusicMarket.ArtistStatus",
          "name": "Status",
          "type": "uint8"
        },
        {
          "indexed": false,
          "internalType": "string",
          "name": "url",
          "type": "string"
        },
        {
          "indexed": false,
          "internalType": "string",
          "name": "message",
          "type": "string"
        }
      ],
      "name": "ArtistEvent",
      "type": "event"
    },
    {
      "anonymous": false,
      "inputs": [
        {
          "indexed": true,
          "internalType": "uint256",
          "name": "itemId",
          "type": "uint256"
        },
        {
          "indexed": true,
          "internalType": "uint256",
          "name": "tokenId",
          "type": "uint256"
        },
        {
          "indexed": false,
          "internalType": "address",
          "name": "musicContract",
          "type": "address"
        },
        {
          "indexed": false,
          "internalType": "address",
          "name": "owner",
          "type": "address"
        },
        {
          "indexed": false,
          "internalType": "address",
          "name": "seller",
          "type": "address"
        },
        {
          "indexed": false,
          "internalType": "uint256",
          "name": "price",
          "type": "uint256"
        },
        {
          "indexed": true,
          "internalType": "uint256",
          "name": "albumId",
          "type": "uint256"
        },
        {
          "indexed": false,
          "internalType": "uint256",
          "name": "trackNumber",
          "type": "uint256"
        },
        {
          "indexed": false,
          "internalType": "uint256",
          "name": "artistId",
          "type": "uint256"
        },
        {
          "indexed": false,
          "internalType": "enum MusicMarket.SongStatus",
          "name": "status",
          "type": "uint8"
        },
        {
          "indexed": false,
          "internalType": "string",
          "name": "message",
          "type": "string"
        }
      ],
      "name": "SongEvent",
      "type": "event"
    },
    {
      "inputs": [
        {
          "internalType": "uint256",
          "name": "",
          "type": "uint256"
        },
        {
          "internalType": "uint256",
          "name": "",
          "type": "uint256"
        }
      ],
      "name": "AlbumToArtistMapping",
      "outputs": [
        {
          "internalType": "uint256",
          "name": "",
          "type": "uint256"
        }
      ],
      "stateMutability": "view",
      "type": "function"
    },
    {
      "inputs": [
        {
          "internalType": "uint256",
          "name": "",
          "type": "uint256"
        }
      ],
      "name": "Albums",
      "outputs": [
        {
          "internalType": "string",
          "name": "albumName",
          "type": "string"
        },
        {
          "internalType": "uint256",
          "name": "createdAt",
          "type": "uint256"
        },
        {
          "internalType": "enum MusicMarket.AlbumStatus",
          "name": "Status",
          "type": "uint8"
        },
        {
          "internalType": "string",
          "name": "coverUrl",
          "type": "string"
        },
        {
          "internalType": "uint256",
          "name": "mintedSongs",
          "type": "uint256"
        },
        {
          "internalType": "uint256",
          "name": "soldSongs",
          "type": "uint256"
        }
      ],
      "stateMutability": "view",
      "type": "function"
    },
    {
      "inputs": [
        {
          "internalType": "uint256",
          "name": "",
          "type": "uint256"
        }
      ],
      "name": "Artists",
      "outputs": [
        {
          "internalType": "string",
          "name": "artistName",
          "type": "string"
        },
        {
          "internalType": "enum MusicMarket.ArtistStatus",
          "name": "Status",
          "type": "uint8"
        },
        {
          "internalType": "string",
          "name": "url",
          "type": "string"
        }
      ],
      "stateMutability": "view",
      "type": "function"
    },
    {
      "inputs": [
        {
          "internalType": "address",
          "name": "musicContract",
          "type": "address"
        },
        {
          "internalType": "uint256",
          "name": "tokenId",
          "type": "uint256"
        }
      ],
      "name": "BuySong",
      "outputs": [
        {
          "components": [
            {
              "internalType": "uint256",
              "name": "itemId",
              "type": "uint256"
            },
            {
              "internalType": "uint256",
              "name": "tokenId",
              "type": "uint256"
            },
            {
              "internalType": "address",
              "name": "musicContract",
              "type": "address"
            },
            {
              "internalType": "address payable",
              "name": "owner",
              "type": "address"
            },
            {
              "internalType": "address payable",
              "name": "seller",
              "type": "address"
            },
            {
              "internalType": "uint256",
              "name": "price",
              "type": "uint256"
            },
            {
              "internalType": "uint256",
              "name": "albumId",
              "type": "uint256"
            },
            {
              "internalType": "uint256",
              "name": "trackNumber",
              "type": "uint256"
            },
            {
              "internalType": "uint256",
              "name": "artistId",
              "type": "uint256"
            },
            {
              "internalType": "enum MusicMarket.SongStatus",
              "name": "status",
              "type": "uint8"
            }
          ],
          "internalType": "struct MusicMarket.Song",
          "name": "",
          "type": "tuple"
        }
      ],
      "stateMutability": "payable",
      "type": "function"
    },
    {
      "inputs": [
        {
          "internalType": "address",
          "name": "musicContract",
          "type": "address"
        },
        {
          "internalType": "uint256",
          "name": "itemId",
          "type": "uint256"
        }
      ],
      "name": "CancelItem",
      "outputs": [],
      "stateMutability": "payable",
      "type": "function"
    },
    {
      "inputs": [
        {
          "internalType": "string",
          "name": "albumName",
          "type": "string"
        },
        {
          "internalType": "string",
          "name": "uri",
          "type": "string"
        }
      ],
      "name": "createAlbum",
      "outputs": [
        {
          "internalType": "uint256",
          "name": "albumId",
          "type": "uint256"
        }
      ],
      "stateMutability": "nonpayable",
      "type": "function"
    },
    {
      "inputs": [
        {
          "internalType": "string",
          "name": "artistName",
          "type": "string"
        },
        {
          "internalType": "string",
          "name": "uri",
          "type": "string"
        }
      ],
      "name": "createArtist",
      "outputs": [
        {
          "internalType": "uint256",
          "name": "artistID",
          "type": "uint256"
        }
      ],
      "stateMutability": "nonpayable",
      "type": "function"
    },
    {
      "inputs": [
        {
          "internalType": "address",
          "name": "musicContract",
          "type": "address"
        },
        {
          "internalType": "uint256",
          "name": "tokenId",
          "type": "uint256"
        },
        {
          "internalType": "uint256",
          "name": "albumId",
          "type": "uint256"
        },
        {
          "internalType": "uint256",
          "name": "artistId",
          "type": "uint256"
        },
        {
          "internalType": "uint256",
          "name": "price",
          "type": "uint256"
        }
      ],
      "name": "createSong",
      "outputs": [],
      "stateMutability": "payable",
      "type": "function"
    },
    {
      "inputs": [
        {
          "internalType": "address",
          "name": "musicContract",
          "type": "address"
        },
        {
          "internalType": "uint256",
          "name": "itemId",
          "type": "uint256"
        }
      ],
      "name": "createSongSale",
      "outputs": [
        {
          "components": [
            {
              "internalType": "uint256",
              "name": "itemId",
              "type": "uint256"
            },
            {
              "internalType": "uint256",
              "name": "tokenId",
              "type": "uint256"
            },
            {
              "internalType": "address",
              "name": "musicContract",
              "type": "address"
            },
            {
              "internalType": "address payable",
              "name": "owner",
              "type": "address"
            },
            {
              "internalType": "address payable",
              "name": "seller",
              "type": "address"
            },
            {
              "internalType": "uint256",
              "name": "price",
              "type": "uint256"
            },
            {
              "internalType": "uint256",
              "name": "albumId",
              "type": "uint256"
            },
            {
              "internalType": "uint256",
              "name": "trackNumber",
              "type": "uint256"
            },
            {
              "internalType": "uint256",
              "name": "artistId",
              "type": "uint256"
            },
            {
              "internalType": "enum MusicMarket.SongStatus",
              "name": "status",
              "type": "uint8"
            }
          ],
          "internalType": "struct MusicMarket.Song",
          "name": "",
          "type": "tuple"
        }
      ],
      "stateMutability": "payable",
      "type": "function"
    },
    {
      "inputs": [
        {
          "internalType": "uint256",
          "name": "limit",
          "type": "uint256"
        }
      ],
      "name": "fetchMusicNFTsCreated",
      "outputs": [
        {
          "components": [
            {
              "internalType": "uint256",
              "name": "itemId",
              "type": "uint256"
            },
            {
              "internalType": "uint256",
              "name": "tokenId",
              "type": "uint256"
            },
            {
              "internalType": "address",
              "name": "musicContract",
              "type": "address"
            },
            {
              "internalType": "address payable",
              "name": "owner",
              "type": "address"
            },
            {
              "internalType": "address payable",
              "name": "seller",
              "type": "address"
            },
            {
              "internalType": "uint256",
              "name": "price",
              "type": "uint256"
            },
            {
              "internalType": "uint256",
              "name": "albumId",
              "type": "uint256"
            },
            {
              "internalType": "uint256",
              "name": "trackNumber",
              "type": "uint256"
            },
            {
              "internalType": "uint256",
              "name": "artistId",
              "type": "uint256"
            },
            {
              "internalType": "enum MusicMarket.SongStatus",
              "name": "status",
              "type": "uint8"
            }
          ],
          "internalType": "struct MusicMarket.Song[]",
          "name": "",
          "type": "tuple[]"
        }
      ],
      "stateMutability": "view",
      "type": "function"
    },
    {
      "inputs": [
        {
          "internalType": "uint256",
          "name": "limit",
          "type": "uint256"
        }
      ],
      "name": "fetchMyMusicNFTs",
      "outputs": [
        {
          "components": [
            {
              "internalType": "uint256",
              "name": "itemId",
              "type": "uint256"
            },
            {
              "internalType": "uint256",
              "name": "tokenId",
              "type": "uint256"
            },
            {
              "internalType": "address",
              "name": "musicContract",
              "type": "address"
            },
            {
              "internalType": "address payable",
              "name": "owner",
              "type": "address"
            },
            {
              "internalType": "address payable",
              "name": "seller",
              "type": "address"
            },
            {
              "internalType": "uint256",
              "name": "price",
              "type": "uint256"
            },
            {
              "internalType": "uint256",
              "name": "albumId",
              "type": "uint256"
            },
            {
              "internalType": "uint256",
              "name": "trackNumber",
              "type": "uint256"
            },
            {
              "internalType": "uint256",
              "name": "artistId",
              "type": "uint256"
            },
            {
              "internalType": "enum MusicMarket.SongStatus",
              "name": "status",
              "type": "uint8"
            }
          ],
          "internalType": "struct MusicMarket.Song[]",
          "name": "",
          "type": "tuple[]"
        }
      ],
      "stateMutability": "view",
      "type": "function"
    },
    {
      "inputs": [
        {
          "internalType": "uint256",
          "name": "tokenId",
          "type": "uint256"
        }
      ],
      "name": "getItemByTokenId",
      "outputs": [
        {
          "components": [
            {
              "internalType": "uint256",
              "name": "itemId",
              "type": "uint256"
            },
            {
              "internalType": "uint256",
              "name": "tokenId",
              "type": "uint256"
            },
            {
              "internalType": "address",
              "name": "musicContract",
              "type": "address"
            },
            {
              "internalType": "address payable",
              "name": "owner",
              "type": "address"
            },
            {
              "internalType": "address payable",
              "name": "seller",
              "type": "address"
            },
            {
              "internalType": "uint256",
              "name": "price",
              "type": "uint256"
            },
            {
              "internalType": "uint256",
              "name": "albumId",
              "type": "uint256"
            },
            {
              "internalType": "uint256",
              "name": "trackNumber",
              "type": "uint256"
            },
            {
              "internalType": "uint256",
              "name": "artistId",
              "type": "uint256"
            },
            {
              "internalType": "enum MusicMarket.SongStatus",
              "name": "status",
              "type": "uint8"
            }
          ],
          "internalType": "struct MusicMarket.Song",
          "name": "item",
          "type": "tuple"
        }
      ],
      "stateMutability": "view",
      "type": "function"
    },
    {
      "inputs": [
        {
          "internalType": "uint256",
          "name": "limit",
          "type": "uint256"
        }
      ],
      "name": "getLastMinted",
      "outputs": [
        {
          "components": [
            {
              "internalType": "uint256",
              "name": "itemId",
              "type": "uint256"
            },
            {
              "internalType": "uint256",
              "name": "tokenId",
              "type": "uint256"
            },
            {
              "internalType": "address",
              "name": "musicContract",
              "type": "address"
            },
            {
              "internalType": "address payable",
              "name": "owner",
              "type": "address"
            },
            {
              "internalType": "address payable",
              "name": "seller",
              "type": "address"
            },
            {
              "internalType": "uint256",
              "name": "price",
              "type": "uint256"
            },
            {
              "internalType": "uint256",
              "name": "albumId",
              "type": "uint256"
            },
            {
              "internalType": "uint256",
              "name": "trackNumber",
              "type": "uint256"
            },
            {
              "internalType": "uint256",
              "name": "artistId",
              "type": "uint256"
            },
            {
              "internalType": "enum MusicMarket.SongStatus",
              "name": "status",
              "type": "uint8"
            }
          ],
          "internalType": "struct MusicMarket.Song[]",
          "name": "",
          "type": "tuple[]"
        }
      ],
      "stateMutability": "view",
      "type": "function"
    },
    {
      "inputs": [],
      "name": "getListingPrice",
      "outputs": [
        {
          "internalType": "uint256",
          "name": "",
          "type": "uint256"
        }
      ],
      "stateMutability": "view",
      "type": "function"
    },
    {
      "inputs": [
        {
          "internalType": "uint256",
          "name": "limit",
          "type": "uint256"
        }
      ],
      "name": "getSongs",
      "outputs": [
        {
          "components": [
            {
              "internalType": "uint256",
              "name": "itemId",
              "type": "uint256"
            },
            {
              "internalType": "uint256",
              "name": "tokenId",
              "type": "uint256"
            },
            {
              "internalType": "address",
              "name": "musicContract",
              "type": "address"
            },
            {
              "internalType": "address payable",
              "name": "owner",
              "type": "address"
            },
            {
              "internalType": "address payable",
              "name": "seller",
              "type": "address"
            },
            {
              "internalType": "uint256",
              "name": "price",
              "type": "uint256"
            },
            {
              "internalType": "uint256",
              "name": "albumId",
              "type": "uint256"
            },
            {
              "internalType": "uint256",
              "name": "trackNumber",
              "type": "uint256"
            },
            {
              "internalType": "uint256",
              "name": "artistId",
              "type": "uint256"
            },
            {
              "internalType": "enum MusicMarket.SongStatus",
              "name": "status",
              "type": "uint8"
            }
          ],
          "internalType": "struct MusicMarket.Song[]",
          "name": "",
          "type": "tuple[]"
        }
      ],
      "stateMutability": "view",
      "type": "function"
    },
    {
      "inputs": [
        {
          "internalType": "uint256",
          "name": "",
          "type": "uint256"
        }
      ],
      "name": "itemIdToSong",
      "outputs": [
        {
          "internalType": "uint256",
          "name": "itemId",
          "type": "uint256"
        },
        {
          "internalType": "uint256",
          "name": "tokenId",
          "type": "uint256"
        },
        {
          "internalType": "address",
          "name": "musicContract",
          "type": "address"
        },
        {
          "internalType": "address payable",
          "name": "owner",
          "type": "address"
        },
        {
          "internalType": "address payable",
          "name": "seller",
          "type": "address"
        },
        {
          "internalType": "uint256",
          "name": "price",
          "type": "uint256"
        },
        {
          "internalType": "uint256",
          "name": "albumId",
          "type": "uint256"
        },
        {
          "internalType": "uint256",
          "name": "trackNumber",
          "type": "uint256"
        },
        {
          "internalType": "uint256",
          "name": "artistId",
          "type": "uint256"
        },
        {
          "internalType": "enum MusicMarket.SongStatus",
          "name": "status",
          "type": "uint8"
        }
      ],
      "stateMutability": "view",
      "type": "function"
    },
    {
      "inputs": [
        {
          "internalType": "address",
          "name": "musicContract",
          "type": "address"
        },
        {
          "internalType": "uint256",
          "name": "itemId",
          "type": "uint256"
        },
        {
          "internalType": "uint256",
          "name": "price",
          "type": "uint256"
        }
      ],
      "name": "listItem",
      "outputs": [],
      "stateMutability": "payable",
      "type": "function"
    },
    {
      "inputs": [
        {
          "internalType": "uint256",
          "name": "price",
          "type": "uint256"
        }
      ],
      "name": "setListingPrice",
      "outputs": [
        {
          "internalType": "uint256",
          "name": "",
          "type": "uint256"
        }
      ],
      "stateMutability": "nonpayable",
      "type": "function"
    }
  ],
  "bytecode": "0x60806040526658d15e1762800060075534801561001b57600080fd5b50600160008190555033600660006101000a81548173ffffffffffffffffffffffffffffffffffffffff021916908373ffffffffffffffffffffffffffffffffffffffff1602179055506153a3806100746000396000f3fe6080604052600436106101095760003560e01c806389bfd38f11610095578063b520fa8f11610064578063b520fa8f146103c0578063d69e63bd146103fd578063db69271014610419578063e940ff431461045f578063fb0cf2cc1461049c57610109565b806389bfd38f146102fa5780639de46d0914610316578063a754439d14610346578063ab4301461461038357610109565b80633be4c939116100dc5780633be4c939146101c25780634d30e0bf146102015780635e4d1cc414610243578063750bf75e146102805780637c726b69146102bd57610109565b806312e855851461010e578063134bf711146101395780631f6035be1461015557806320c6b3b614610185575b600080fd5b34801561011a57600080fd5b506101236104d9565b6040516101309190614a38565b60405180910390f35b610153600480360381019061014e9190613c64565b6104e3565b005b61016f600480360381019061016a9190613c64565b610735565b60405161017c9190614a1c565b60405180910390f35b34801561019157600080fd5b506101ac60048036038101906101a79190613dd2565b610df6565b6040516101b9919061468c565b60405180910390f35b3480156101ce57600080fd5b506101e960048036038101906101e49190613dd2565b6111ea565b6040516101f8939291906146ae565b60405180910390f35b34801561020d57600080fd5b5061022860048036038101906102239190613dd2565b611331565b60405161023a969594939291906147cd565b60405180910390f35b34801561024f57600080fd5b5061026a60048036038101906102659190613dd2565b61148a565b604051610277919061468c565b60405180910390f35b34801561028c57600080fd5b506102a760048036038101906102a29190613dd2565b61186a565b6040516102b4919061468c565b60405180910390f35b3480156102c957600080fd5b506102e460048036038101906102df9190613dd2565b611d30565b6040516102f19190614a38565b60405180910390f35b610314600480360381019061030f9190613ca0565b611e63565b005b610330600480360381019061032b9190613c64565b612101565b60405161033d9190614a1c565b60405180910390f35b34801561035257600080fd5b5061036d60048036038101906103689190613dd2565b612802565b60405161037a919061468c565b60405180910390f35b34801561038f57600080fd5b506103aa60048036038101906103a59190613dfb565b612cc8565b6040516103b79190614a38565b60405180910390f35b3480156103cc57600080fd5b506103e760048036038101906103e29190613dd2565b612cf9565b6040516103f49190614a1c565b60405180910390f35b61041760048036038101906104129190613cef565b612f99565b005b34801561042557600080fd5b50610440600480360381019061043b9190613dd2565b61346f565b6040516104569a99989796959493929190614a53565b60405180910390f35b34801561046b57600080fd5b5061048660048036038101906104819190613d66565b613530565b6040516104939190614a38565b60405180910390f35b3480156104a857600080fd5b506104c360048036038101906104be9190613d66565b613799565b6040516104d09190614a38565b60405180910390f35b6000600754905090565b60006008600083815260200190815260200160002090506000816001015490508160030160009054906101000a900473ffffffffffffffffffffffffffffffffffffffff1673ffffffffffffffffffffffffffffffffffffffff163373ffffffffffffffffffffffffffffffffffffffff1614610595576040517f08c379a000000000000000000000000000000000000000000000000000000000815260040161058c906149dc565b60405180910390fd5b600060028111156105cf577f4e487b7100000000000000000000000000000000000000000000000000000000600052602160045260246000fd5b8260090160009054906101000a900460ff166002811115610619577f4e487b7100000000000000000000000000000000000000000000000000000000600052602160045260246000fd5b14610659576040517f08c379a00000000000000000000000000000000000000000000000000000000081526004016106509061499c565b60405180910390fd5b60018260090160006101000a81548160ff021916908360028111156106a7577f4e487b7100000000000000000000000000000000000000000000000000000000600052602160045260246000fd5b02179055506106b660056139c9565b816006015481847fb6a6e5a1d1cba81612d627d3d366515af9bc54786897c5bb629f44b2ca1949bc8733600660009054906101000a900473ffffffffffffffffffffffffffffffffffffffff16886005015489600701548a60080154600060405161072797969594939291906144cc565b60405180910390a450505050565b61073d613a62565b60026000541415610783576040517f08c379a000000000000000000000000000000000000000000000000000000000815260040161077a906149fc565b60405180910390fd5b6002600081905550600061079683612cf9565b9050600060028111156107d2577f4e487b7100000000000000000000000000000000000000000000000000000000600052602160045260246000fd5b8161012001516002811115610810577f4e487b7100000000000000000000000000000000000000000000000000000000600052602160045260246000fd5b14610850576040517f08c379a00000000000000000000000000000000000000000000000000000000081526004016108479061483c565b60405180910390fd5b8060a00151341015610897576040517f08c379a000000000000000000000000000000000000000000000000000000000815260040161088e906149bc565b60405180910390fd5b8373ffffffffffffffffffffffffffffffffffffffff166323b872dd826060015133866040518463ffffffff1660e01b81526004016108d893929190614412565b600060405180830381600087803b1580156108f257600080fd5b505af1158015610906573d6000803e3d6000fd5b5050505061091460056139df565b806060015173ffffffffffffffffffffffffffffffffffffffff166108fc8260a001519081150290604051600060405180830381858888f19350505050158015610962573d6000803e3d6000fd5b50600181610120019060028111156109a3577f4e487b7100000000000000000000000000000000000000000000000000000000600052602160045260246000fd5b908160028111156109dd577f4e487b7100000000000000000000000000000000000000000000000000000000600052602160045260246000fd5b8152505033816060019073ffffffffffffffffffffffffffffffffffffffff16908173ffffffffffffffffffffffffffffffffffffffff1681525050806008600083600001518152602001908152602001600020600082015181600001556020820151816001015560408201518160020160006101000a81548173ffffffffffffffffffffffffffffffffffffffff021916908373ffffffffffffffffffffffffffffffffffffffff16021790555060608201518160030160006101000a81548173ffffffffffffffffffffffffffffffffffffffff021916908373ffffffffffffffffffffffffffffffffffffffff16021790555060808201518160040160006101000a81548173ffffffffffffffffffffffffffffffffffffffff021916908373ffffffffffffffffffffffffffffffffffffffff16021790555060a0820151816005015560c0820151816006015560e0820151816007015561010082015181600801556101208201518160090160006101000a81548160ff02191690836002811115610b95577f4e487b7100000000000000000000000000000000000000000000000000000000600052602160045260246000fd5b02179055509050508060c001518382600001517fb6a6e5a1d1cba81612d627d3d366515af9bc54786897c5bb629f44b2ca1949bc873386606001518760a001518861010001518960e001516001604051610bf5979695949392919061454f565b60405180910390a460086000826000015181526020019081526020016000206040518061014001604052908160008201548152602001600182015481526020016002820160009054906101000a900473ffffffffffffffffffffffffffffffffffffffff1673ffffffffffffffffffffffffffffffffffffffff1673ffffffffffffffffffffffffffffffffffffffff1681526020016003820160009054906101000a900473ffffffffffffffffffffffffffffffffffffffff1673ffffffffffffffffffffffffffffffffffffffff1673ffffffffffffffffffffffffffffffffffffffff1681526020016004820160009054906101000a900473ffffffffffffffffffffffffffffffffffffffff1673ffffffffffffffffffffffffffffffffffffffff1673ffffffffffffffffffffffffffffffffffffffff168152602001600582015481526020016006820154815260200160078201548152602001600882015481526020016009820160009054906101000a900460ff166002811115610da9577f4e487b7100000000000000000000000000000000000000000000000000000000600052602160045260246000fd5b6002811115610de1577f4e487b7100000000000000000000000000000000000000000000000000000000600052602160045260246000fd5b81525050915050600160008190555092915050565b60606000610e046001613a3b565b90506000610e126002613a3b565b610e1c6005613a3b565b83610e279190614b9a565b610e319190614bf0565b9050600080610e408684613a49565b905060008167ffffffffffffffff811115610e84577f4e487b7100000000000000000000000000000000000000000000000000000000600052604160045260246000fd5b604051908082528060200260200182016040528015610ebd57816020015b610eaa613a62565b815260200190600190039081610ea25790505b50905060005b858110156111dc5782841415610ed8576111dc565b60006002811115610f12577f4e487b7100000000000000000000000000000000000000000000000000000000600052602160045260246000fd5b60086000600184610f239190614b9a565b815260200190815260200160002060090160009054906101000a900460ff166002811115610f7a577f4e487b7100000000000000000000000000000000000000000000000000000000600052602160045260246000fd5b14156111c957600060086000600184610f939190614b9a565b81526020019081526020016000206040518061014001604052908160008201548152602001600182015481526020016002820160009054906101000a900473ffffffffffffffffffffffffffffffffffffffff1673ffffffffffffffffffffffffffffffffffffffff1673ffffffffffffffffffffffffffffffffffffffff1681526020016003820160009054906101000a900473ffffffffffffffffffffffffffffffffffffffff1673ffffffffffffffffffffffffffffffffffffffff1673ffffffffffffffffffffffffffffffffffffffff1681526020016004820160009054906101000a900473ffffffffffffffffffffffffffffffffffffffff1673ffffffffffffffffffffffffffffffffffffffff1673ffffffffffffffffffffffffffffffffffffffff168152602001600582015481526020016006820154815260200160078201548152602001600882015481526020016009820160009054906101000a900460ff166002811115611136577f4e487b7100000000000000000000000000000000000000000000000000000000600052602160045260246000fd5b600281111561116e577f4e487b7100000000000000000000000000000000000000000000000000000000600052602160045260246000fd5b815250509050808386815181106111ae577f4e487b7100000000000000000000000000000000000000000000000000000000600052603260045260246000fd5b602002602001018190525084806111c490614df8565b955050505b80806111d490614df8565b915050610ec3565b508095505050505050919050565b600960205280600052604060002060009150905080600001805461120d90614d95565b80601f016020809104026020016040519081016040528092919081815260200182805461123990614d95565b80156112865780601f1061125b57610100808354040283529160200191611286565b820191906000526020600020905b81548152906001019060200180831161126957829003601f168201915b5050505050908060010160009054906101000a900460ff16908060020180546112ae90614d95565b80601f01602080910402602001604051908101604052809291908181526020018280546112da90614d95565b80156113275780601f106112fc57610100808354040283529160200191611327565b820191906000526020600020905b81548152906001019060200180831161130a57829003601f168201915b5050505050905083565b600a60205280600052604060002060009150905080600001805461135490614d95565b80601f016020809104026020016040519081016040528092919081815260200182805461138090614d95565b80156113cd5780601f106113a2576101008083540402835291602001916113cd565b820191906000526020600020905b8154815290600101906020018083116113b057829003601f168201915b5050505050908060010154908060020160009054906101000a900460ff16908060030180546113fb90614d95565b80601f016020809104026020016040519081016040528092919081815260200182805461142790614d95565b80156114745780601f1061144957610100808354040283529160200191611474565b820191906000526020600020905b81548152906001019060200180831161145757829003601f168201915b5050505050908060040154908060050154905086565b606060006114986001613a3b565b905060006114a66002613a3b565b6114b06005613a3b565b836114bb9190614b9a565b6114c59190614bf0565b90506000806114d48684613a49565b905060008167ffffffffffffffff811115611518577f4e487b7100000000000000000000000000000000000000000000000000000000600052604160045260246000fd5b60405190808252806020026020018201604052801561155157816020015b61153e613a62565b8152602001906001900390816115365790505b50905060008590505b600081111561185c57828414156115705761185c565b600060028111156115aa577f4e487b7100000000000000000000000000000000000000000000000000000000600052602160045260246000fd5b6008600083815260200190815260200160002060090160009054906101000a900460ff166002811115611606577f4e487b7100000000000000000000000000000000000000000000000000000000600052602160045260246000fd5b1415611849576000600860008381526020019081526020016000206040518061014001604052908160008201548152602001600182015481526020016002820160009054906101000a900473ffffffffffffffffffffffffffffffffffffffff1673ffffffffffffffffffffffffffffffffffffffff1673ffffffffffffffffffffffffffffffffffffffff1681526020016003820160009054906101000a900473ffffffffffffffffffffffffffffffffffffffff1673ffffffffffffffffffffffffffffffffffffffff1673ffffffffffffffffffffffffffffffffffffffff1681526020016004820160009054906101000a900473ffffffffffffffffffffffffffffffffffffffff1673ffffffffffffffffffffffffffffffffffffffff1673ffffffffffffffffffffffffffffffffffffffff168152602001600582015481526020016006820154815260200160078201548152602001600882015481526020016009820160009054906101000a900460ff1660028111156117b6577f4e487b7100000000000000000000000000000000000000000000000000000000600052602160045260246000fd5b60028111156117ee577f4e487b7100000000000000000000000000000000000000000000000000000000600052602160045260246000fd5b8152505090508083868151811061182e577f4e487b7100000000000000000000000000000000000000000000000000000000600052603260045260246000fd5b6020026020010181905250848061184490614df8565b955050505b808061185490614d6b565b91505061155a565b508095505050505050919050565b606060006118786001613a3b565b905060008060005b83811015611921573373ffffffffffffffffffffffffffffffffffffffff16600860006001846118b09190614b9a565b815260200190815260200160002060030160009054906101000a900473ffffffffffffffffffffffffffffffffffffffff1673ffffffffffffffffffffffffffffffffffffffff16141561190e5760018361190b9190614b9a565b92505b808061191990614df8565b915050611880565b5060008214156119b057600067ffffffffffffffff81111561196c577f4e487b7100000000000000000000000000000000000000000000000000000000600052604160045260246000fd5b6040519080825280602002602001820160405280156119a557816020015b611992613a62565b81526020019060019003908161198a5790505b509350505050611d2b565b60006119bc8684613a49565b905060008167ffffffffffffffff811115611a00577f4e487b7100000000000000000000000000000000000000000000000000000000600052604160045260246000fd5b604051908082528060200260200182016040528015611a3957816020015b611a26613a62565b815260200190600190039081611a1e5790505b50905060005b85811015611d215782841415611a5457611d21565b3373ffffffffffffffffffffffffffffffffffffffff1660086000600184611a7c9190614b9a565b815260200190815260200160002060030160009054906101000a900473ffffffffffffffffffffffffffffffffffffffff1673ffffffffffffffffffffffffffffffffffffffff161415611d0e5760086000600183611adb9190614b9a565b81526020019081526020016000206040518061014001604052908160008201548152602001600182015481526020016002820160009054906101000a900473ffffffffffffffffffffffffffffffffffffffff1673ffffffffffffffffffffffffffffffffffffffff1673ffffffffffffffffffffffffffffffffffffffff1681526020016003820160009054906101000a900473ffffffffffffffffffffffffffffffffffffffff1673ffffffffffffffffffffffffffffffffffffffff1673ffffffffffffffffffffffffffffffffffffffff1681526020016004820160009054906101000a900473ffffffffffffffffffffffffffffffffffffffff1673ffffffffffffffffffffffffffffffffffffffff1673ffffffffffffffffffffffffffffffffffffffff168152602001600582015481526020016006820154815260200160078201548152602001600882015481526020016009820160009054906101000a900460ff166002811115611c7e577f4e487b7100000000000000000000000000000000000000000000000000000000600052602160045260246000fd5b6002811115611cb6577f4e487b7100000000000000000000000000000000000000000000000000000000600052602160045260246000fd5b81525050828581518110611cf3577f4e487b7100000000000000000000000000000000000000000000000000000000600052603260045260246000fd5b6020026020010181905250600184611d0b9190614b9a565b93505b8080611d1990614df8565b915050611a3f565b5080955050505050505b919050565b60003373ffffffffffffffffffffffffffffffffffffffff16600660009054906101000a900473ffffffffffffffffffffffffffffffffffffffff1673ffffffffffffffffffffffffffffffffffffffff1614611dc2576040517f08c379a0000000000000000000000000000000000000000000000000000000008152600401611db9906148dc565b60405180910390fd5b3373ffffffffffffffffffffffffffffffffffffffff16600660009054906101000a900473ffffffffffffffffffffffffffffffffffffffff1673ffffffffffffffffffffffffffffffffffffffff1614611e52576040517f08c379a0000000000000000000000000000000000000000000000000000000008152600401611e499061495c565b60405180910390fd5b816007819055506007549050919050565b60006008600084815260200190815260200160002090506000816001015490508160030160009054906101000a900473ffffffffffffffffffffffffffffffffffffffff1673ffffffffffffffffffffffffffffffffffffffff163373ffffffffffffffffffffffffffffffffffffffff1614611f15576040517f08c379a0000000000000000000000000000000000000000000000000000000008152600401611f0c906149dc565b60405180910390fd5b60006002811115611f4f577f4e487b7100000000000000000000000000000000000000000000000000000000600052602160045260246000fd5b8260090160009054906101000a900460ff166002811115611f99577f4e487b7100000000000000000000000000000000000000000000000000000000600052602160045260246000fd5b1415611fda576040517f08c379a0000000000000000000000000000000000000000000000000000000008152600401611fd19061485c565b60405180910390fd5b60075434101561201f576040517f08c379a00000000000000000000000000000000000000000000000000000000081526004016120169061493c565b60405180910390fd5b82826005018190555060008260090160006101000a81548160ff02191690836002811115612076577f4e487b7100000000000000000000000000000000000000000000000000000000600052602160045260246000fd5b021790555061208560056139c9565b816006015481857fb6a6e5a1d1cba81612d627d3d366515af9bc54786897c5bb629f44b2ca1949bc8833600660009054906101000a900473ffffffffffffffffffffffffffffffffffffffff168989600701548a6008015460006040516120f297969594939291906144cc565b60405180910390a45050505050565b612109613a62565b6002600054141561214f576040517f08c379a0000000000000000000000000000000000000000000000000000000008152600401612146906149fc565b60405180910390fd5b60026000819055506000600860008481526020019081526020016000206040518061014001604052908160008201548152602001600182015481526020016002820160009054906101000a900473ffffffffffffffffffffffffffffffffffffffff1673ffffffffffffffffffffffffffffffffffffffff1673ffffffffffffffffffffffffffffffffffffffff1681526020016003820160009054906101000a900473ffffffffffffffffffffffffffffffffffffffff1673ffffffffffffffffffffffffffffffffffffffff1673ffffffffffffffffffffffffffffffffffffffff1681526020016004820160009054906101000a900473ffffffffffffffffffffffffffffffffffffffff1673ffffffffffffffffffffffffffffffffffffffff1673ffffffffffffffffffffffffffffffffffffffff168152602001600582015481526020016006820154815260200160078201548152602001600882015481526020016009820160009054906101000a900460ff166002811115612301577f4e487b7100000000000000000000000000000000000000000000000000000000600052602160045260246000fd5b6002811115612339577f4e487b7100000000000000000000000000000000000000000000000000000000600052602160045260246000fd5b81525050905060008160a00151905060008260200151905081341015612394576040517f08c379a000000000000000000000000000000000000000000000000000000000815260040161238b9061493c565b60405180910390fd5b8573ffffffffffffffffffffffffffffffffffffffff166323b872dd3033846040518463ffffffff1660e01b81526004016123d193929190614655565b600060405180830381600087803b1580156123eb57600080fd5b505af11580156123ff573d6000803e3d6000fd5b5050505060018361012001906002811115612443577f4e487b7100000000000000000000000000000000000000000000000000000000600052602160045260246000fd5b9081600281111561247d577f4e487b7100000000000000000000000000000000000000000000000000000000600052602160045260246000fd5b8152505033836060019073ffffffffffffffffffffffffffffffffffffffff16908173ffffffffffffffffffffffffffffffffffffffff16815250506124c360026139c9565b826080015173ffffffffffffffffffffffffffffffffffffffff166108fc839081150290604051600060405180830381858888f1935050505015801561250d573d6000803e3d6000fd5b50600660009054906101000a900473ffffffffffffffffffffffffffffffffffffffff1673ffffffffffffffffffffffffffffffffffffffff166108fc6007549081150290604051600060405180830381858888f19350505050158015612578573d6000803e3d6000fd5b508260086000878152602001908152602001600020600082015181600001556020820151816001015560408201518160020160006101000a81548173ffffffffffffffffffffffffffffffffffffffff021916908373ffffffffffffffffffffffffffffffffffffffff16021790555060608201518160030160006101000a81548173ffffffffffffffffffffffffffffffffffffffff021916908373ffffffffffffffffffffffffffffffffffffffff16021790555060808201518160040160006101000a81548173ffffffffffffffffffffffffffffffffffffffff021916908373ffffffffffffffffffffffffffffffffffffffff16021790555060a0820151816005015560c0820151816006015560e0820151816007015561010082015181600801556101208201518160090160006101000a81548160ff021916908360028111156126f1577f4e487b7100000000000000000000000000000000000000000000000000000000600052602160045260246000fd5b0217905550905050600860008681526020019081526020016000206006015481867fb6a6e5a1d1cba81612d627d3d366515af9bc54786897c5bb629f44b2ca1949bc89600860008b815260200190815260200160002060030160009054906101000a900473ffffffffffffffffffffffffffffffffffffffff16600860008c815260200190815260200160002060040160009054906101000a900473ffffffffffffffffffffffffffffffffffffffff1688600860008e815260200190815260200160002060070154600860008f81526020019081526020016000206008015460016040516127e69796959493929190614449565b60405180910390a4829350505050600160008190555092915050565b606060006128106001613a3b565b905060008060005b838110156128b9573373ffffffffffffffffffffffffffffffffffffffff16600860006001846128489190614b9a565b815260200190815260200160002060040160009054906101000a900473ffffffffffffffffffffffffffffffffffffffff1673ffffffffffffffffffffffffffffffffffffffff1614156128a6576001836128a39190614b9a565b92505b80806128b190614df8565b915050612818565b50600082141561294857600067ffffffffffffffff811115612904577f4e487b7100000000000000000000000000000000000000000000000000000000600052604160045260246000fd5b60405190808252806020026020018201604052801561293d57816020015b61292a613a62565b8152602001906001900390816129225790505b509350505050612cc3565b60006129548684613a49565b905060008167ffffffffffffffff811115612998577f4e487b7100000000000000000000000000000000000000000000000000000000600052604160045260246000fd5b6040519080825280602002602001820160405280156129d157816020015b6129be613a62565b8152602001906001900390816129b65790505b50905060005b85811015612cb957828414156129ec57612cb9565b3373ffffffffffffffffffffffffffffffffffffffff1660086000600184612a149190614b9a565b815260200190815260200160002060040160009054906101000a900473ffffffffffffffffffffffffffffffffffffffff1673ffffffffffffffffffffffffffffffffffffffff161415612ca65760086000600183612a739190614b9a565b81526020019081526020016000206040518061014001604052908160008201548152602001600182015481526020016002820160009054906101000a900473ffffffffffffffffffffffffffffffffffffffff1673ffffffffffffffffffffffffffffffffffffffff1673ffffffffffffffffffffffffffffffffffffffff1681526020016003820160009054906101000a900473ffffffffffffffffffffffffffffffffffffffff1673ffffffffffffffffffffffffffffffffffffffff1673ffffffffffffffffffffffffffffffffffffffff1681526020016004820160009054906101000a900473ffffffffffffffffffffffffffffffffffffffff1673ffffffffffffffffffffffffffffffffffffffff1673ffffffffffffffffffffffffffffffffffffffff168152602001600582015481526020016006820154815260200160078201548152602001600882015481526020016009820160009054906101000a900460ff166002811115612c16577f4e487b7100000000000000000000000000000000000000000000000000000000600052602160045260246000fd5b6002811115612c4e577f4e487b7100000000000000000000000000000000000000000000000000000000600052602160045260246000fd5b81525050828581518110612c8b577f4e487b7100000000000000000000000000000000000000000000000000000000600052603260045260246000fd5b6020026020010181905250600184612ca39190614b9a565b93505b8080612cb190614df8565b9150506129d7565b5080955050505050505b919050565b600b6020528160005260406000208181548110612ce457600080fd5b90600052602060002001600091509150505481565b612d01613a62565b6000612d0d6001613a3b565b905060005b81811015612f50578360086000600184612d2c9190614b9a565b8152602001908152602001600020600101541415612f3d5760086000600183612d559190614b9a565b81526020019081526020016000206040518061014001604052908160008201548152602001600182015481526020016002820160009054906101000a900473ffffffffffffffffffffffffffffffffffffffff1673ffffffffffffffffffffffffffffffffffffffff1673ffffffffffffffffffffffffffffffffffffffff1681526020016003820160009054906101000a900473ffffffffffffffffffffffffffffffffffffffff1673ffffffffffffffffffffffffffffffffffffffff1673ffffffffffffffffffffffffffffffffffffffff1681526020016004820160009054906101000a900473ffffffffffffffffffffffffffffffffffffffff1673ffffffffffffffffffffffffffffffffffffffff1673ffffffffffffffffffffffffffffffffffffffff168152602001600582015481526020016006820154815260200160078201548152602001600882015481526020016009820160009054906101000a900460ff166002811115612ef8577f4e487b7100000000000000000000000000000000000000000000000000000000600052602160045260246000fd5b6002811115612f30577f4e487b7100000000000000000000000000000000000000000000000000000000600052602160045260246000fd5b8152505092505050612f94565b8080612f4890614df8565b915050612d12565b506000612f92576040517f08c379a0000000000000000000000000000000000000000000000000000000008152600401612f899061491c565b60405180910390fd5b505b919050565b60026000541415612fdf576040517f08c379a0000000000000000000000000000000000000000000000000000000008152600401612fd6906149fc565b60405180910390fd5b60026000819055506000811161302a576040517f08c379a0000000000000000000000000000000000000000000000000000000008152600401613021906148fc565b60405180910390fd5b60075434101561306f576040517f08c379a00000000000000000000000000000000000000000000000000000000081526004016130669061497c565b60405180910390fd5b6130796001613a3b565b8410156130bb576040517f08c379a00000000000000000000000000000000000000000000000000000000081526004016130b29061487c565b60405180910390fd5b6130c56004613a3b565b831015613107576040517f08c379a00000000000000000000000000000000000000000000000000000000081526004016130fe9061487c565b60405180910390fd5b61311160016139c9565b600061311d6001613a3b565b90506000600a600086815260200190815260200160002090506040518061014001604052808381526020018781526020018873ffffffffffffffffffffffffffffffffffffffff168152602001600073ffffffffffffffffffffffffffffffffffffffff1681526020013373ffffffffffffffffffffffffffffffffffffffff168152602001848152602001868152602001858152602001600183600401546131c69190614b9a565b815260200160006002811115613205577f4e487b7100000000000000000000000000000000000000000000000000000000600052602160045260246000fd5b81525060086000848152602001908152602001600020600082015181600001556020820151816001015560408201518160020160006101000a81548173ffffffffffffffffffffffffffffffffffffffff021916908373ffffffffffffffffffffffffffffffffffffffff16021790555060608201518160030160006101000a81548173ffffffffffffffffffffffffffffffffffffffff021916908373ffffffffffffffffffffffffffffffffffffffff16021790555060808201518160040160006101000a81548173ffffffffffffffffffffffffffffffffffffffff021916908373ffffffffffffffffffffffffffffffffffffffff16021790555060a0820151816005015560c0820151816006015560e0820151816007015561010082015181600801556101208201518160090160006101000a81548160ff0219169083600281111561337f577f4e487b7100000000000000000000000000000000000000000000000000000000600052602160045260246000fd5b0217905550905050600181600401600082825461339c9190614b9a565b925050819055508673ffffffffffffffffffffffffffffffffffffffff166323b872dd3330896040518463ffffffff1660e01b81526004016133e093929190614655565b600060405180830381600087803b1580156133fa57600080fd5b505af115801561340e573d6000803e3d6000fd5b505050508486837fb6a6e5a1d1cba81612d627d3d366515af9bc54786897c5bb629f44b2ca1949bc8a600033898b8960040154600060405161345697969594939291906145d2565b60405180910390a4505060016000819055505050505050565b60086020528060005260406000206000915090508060000154908060010154908060020160009054906101000a900473ffffffffffffffffffffffffffffffffffffffff16908060030160009054906101000a900473ffffffffffffffffffffffffffffffffffffffff16908060040160009054906101000a900473ffffffffffffffffffffffffffffffffffffffff16908060050154908060060154908060070154908060080154908060090160009054906101000a900460ff1690508a565b60003373ffffffffffffffffffffffffffffffffffffffff16600660009054906101000a900473ffffffffffffffffffffffffffffffffffffffff1673ffffffffffffffffffffffffffffffffffffffff16146135c2576040517f08c379a00000000000000000000000000000000000000000000000000000000081526004016135b9906148dc565b60405180910390fd5b600082511415613607576040517f08c379a00000000000000000000000000000000000000000000000000000000081526004016135fe9061489c565b60405180910390fd5b61361160046139c9565b600061361d6004613a3b565b90506040518060c0016040528085815260200142815260200160006002811115613670577f4e487b7100000000000000000000000000000000000000000000000000000000600052602160045260246000fd5b8152602001848152602001600081526020016000815250600a600083815260200190815260200160002060008201518160000190805190602001906136b6929190613b2f565b506020820151816001015560408201518160020160006101000a81548160ff02191690836002811115613712577f4e487b7100000000000000000000000000000000000000000000000000000000600052602160045260246000fd5b02179055506060820151816003019080519060200190613733929190613b2f565b506080820151816004015560a08201518160050155905050807f4ad0e5615b1c242c0e644cb5b2255aa337a06268781317cdc14d09d1a51eb16785426000876000806040516137879695949392919061474b565b60405180910390a28091505092915050565b60003373ffffffffffffffffffffffffffffffffffffffff16600660009054906101000a900473ffffffffffffffffffffffffffffffffffffffff1673ffffffffffffffffffffffffffffffffffffffff161461382b576040517f08c379a0000000000000000000000000000000000000000000000000000000008152600401613822906148dc565b60405180910390fd5b600082511415613870576040517f08c379a00000000000000000000000000000000000000000000000000000000081526004016138679061489c565b60405180910390fd5b61387a60036139c9565b60006138866003613a3b565b90506040518060600160405280858152602001600060028111156138d3577f4e487b7100000000000000000000000000000000000000000000000000000000600052602160045260246000fd5b81526020018481525060096000838152602001908152602001600020600082015181600001908051906020019061390b929190613b2f565b5060208201518160010160006101000a81548160ff0219169083600281111561395d577f4e487b7100000000000000000000000000000000000000000000000000000000600052602160045260246000fd5b0217905550604082015181600201908051906020019061397e929190613b2f565b50905050807fd0c34c2dc72a3b67166415e7297a3546fb4daf5fd2ea4e8a1497d9859297dba1856000866040516139b7939291906146f3565b60405180910390a28091505092915050565b6001816000016000828254019250508190555050565b60008160000154905060008111613a2b576040517f08c379a0000000000000000000000000000000000000000000000000000000008152600401613a22906148bc565b60405180910390fd5b6001810382600001819055505050565b600081600001549050919050565b6000818310613a585781613a5a565b825b905092915050565b6040518061014001604052806000815260200160008152602001600073ffffffffffffffffffffffffffffffffffffffff168152602001600073ffffffffffffffffffffffffffffffffffffffff168152602001600073ffffffffffffffffffffffffffffffffffffffff1681526020016000815260200160008152602001600081526020016000815260200160006002811115613b29577f4e487b7100000000000000000000000000000000000000000000000000000000600052602160045260246000fd5b81525090565b828054613b3b90614d95565b90600052602060002090601f016020900481019282613b5d5760008555613ba4565b82601f10613b7657805160ff1916838001178555613ba4565b82800160010185558215613ba4579182015b82811115613ba3578251825591602001919060010190613b88565b5b509050613bb19190613bb5565b5090565b5b80821115613bce576000816000905550600101613bb6565b5090565b6000613be5613be084614b14565b614aef565b905082815260208101848484011115613bfd57600080fd5b613c08848285614d29565b509392505050565b600081359050613c1f8161533f565b92915050565b600082601f830112613c3657600080fd5b8135613c46848260208601613bd2565b91505092915050565b600081359050613c5e81615356565b92915050565b60008060408385031215613c7757600080fd5b6000613c8585828601613c10565b9250506020613c9685828601613c4f565b9150509250929050565b600080600060608486031215613cb557600080fd5b6000613cc386828701613c10565b9350506020613cd486828701613c4f565b9250506040613ce586828701613c4f565b9150509250925092565b600080600080600060a08688031215613d0757600080fd5b6000613d1588828901613c10565b9550506020613d2688828901613c4f565b9450506040613d3788828901613c4f565b9350506060613d4888828901613c4f565b9250506080613d5988828901613c4f565b9150509295509295909350565b60008060408385031215613d7957600080fd5b600083013567ffffffffffffffff811115613d9357600080fd5b613d9f85828601613c25565b925050602083013567ffffffffffffffff811115613dbc57600080fd5b613dc885828601613c25565b9150509250929050565b600060208284031215613de457600080fd5b6000613df284828501613c4f565b91505092915050565b60008060408385031215613e0e57600080fd5b6000613e1c85828601613c4f565b9250506020613e2d85828601613c4f565b9150509250929050565b6000613e43838361425c565b6101408301905092915050565b613e5981614cab565b82525050565b613e6881614c36565b82525050565b613e7781614c36565b82525050565b613e8681614c24565b82525050565b613e9581614c24565b82525050565b6000613ea682614b55565b613eb08185614b78565b9350613ebb83614b45565b8060005b83811015613eec578151613ed38882613e37565b9750613ede83614b6b565b925050600181019050613ebf565b5085935050505092915050565b613f0281614cbd565b82525050565b613f1181614ccf565b82525050565b613f2081614ce1565b82525050565b613f2f81614ce1565b82525050565b613f3e81614cf3565b82525050565b6000613f4f82614b60565b613f598185614b89565b9350613f69818560208601614d38565b613f7281614efd565b840191505092915050565b6000613f8a602583614b89565b9150613f9582614f0e565b604082019050919050565b6000613fad602083614b89565b9150613fb882614f5d565b602082019050919050565b6000613fd0600d83614b89565b9150613fdb82614f86565b602082019050919050565b6000613ff3601983614b89565b9150613ffe82614faf565b602082019050919050565b6000614016601b83614b89565b915061402182614fd8565b602082019050919050565b6000614039601883614b89565b915061404482615001565b602082019050919050565b600061405c602583614b89565b91506140678261502a565b604082019050919050565b600061407f600d83614b89565b915061408a82615079565b602082019050919050565b60006140a2601083614b89565b91506140ad826150a2565b602082019050919050565b60006140c5602083614b89565b91506140d0826150cb565b602082019050919050565b60006140e8600d83614b89565b91506140f3826150f4565b602082019050919050565b600061410b601483614b89565b91506141168261511d565b602082019050919050565b600061412e602483614b89565b915061413982615146565b604082019050919050565b6000614151601083614b89565b915061415c82615195565b602082019050919050565b6000614174601783614b89565b915061417f826151be565b602082019050919050565b6000614197602283614b89565b91506141a2826151e7565b604082019050919050565b60006141ba601183614b89565b91506141c582615236565b602082019050919050565b60006141dd601a83614b89565b91506141e88261525f565b602082019050919050565b6000614200600e83614b89565b915061420b82615288565b602082019050919050565b6000614223601f83614b89565b915061422e826152b1565b602082019050919050565b6000614246600d83614b89565b9150614251826152da565b602082019050919050565b6101408201600082015161427360008501826143f4565b50602082015161428660208501826143f4565b5060408201516142996040850182613e7d565b5060608201516142ac6060850182613e5f565b5060808201516142bf6080850182613e5f565b5060a08201516142d260a08501826143f4565b5060c08201516142e560c08501826143f4565b5060e08201516142f860e08501826143f4565b5061010082015161430d6101008501826143f4565b50610120820151614322610120850182613f17565b50505050565b6101408201600082015161433f60008501826143f4565b50602082015161435260208501826143f4565b5060408201516143656040850182613e7d565b5060608201516143786060850182613e5f565b50608082015161438b6080850182613e5f565b5060a082015161439e60a08501826143f4565b5060c08201516143b160c08501826143f4565b5060e08201516143c460e08501826143f4565b506101008201516143d96101008501826143f4565b506101208201516143ee610120850182613f17565b50505050565b6143fd81614ca1565b82525050565b61440c81614ca1565b82525050565b60006060820190506144276000830186613e50565b6144346020830185613e8c565b6144416040830184614403565b949350505050565b60006101008201905061445f600083018a613e8c565b61446c6020830189613e50565b6144796040830188613e50565b6144866060830187614403565b6144936080830186614403565b6144a060a0830185614403565b6144ad60c0830184613f26565b81810360e08301526144be816140fe565b905098975050505050505050565b6000610100820190506144e2600083018a613e8c565b6144ef6020830189613e8c565b6144fc6040830188613e50565b6145096060830187614403565b6145166080830186614403565b61452360a0830185614403565b61453060c0830184613f26565b81810360e083015261454181614072565b905098975050505050505050565b600061010082019050614565600083018a613e8c565b6145726020830189613e8c565b61457f6040830188613e50565b61458c6060830187614403565b6145996080830186614403565b6145a660a0830185614403565b6145b360c0830184613f26565b81810360e08301526145c481614239565b905098975050505050505050565b6000610100820190506145e8600083018a613e8c565b6145f56020830189613e8c565b6146026040830188613e8c565b61460f6060830187614403565b61461c6080830186614403565b61462960a0830185614403565b61463660c0830184613f26565b81810360e083015261464781614144565b905098975050505050505050565b600060608201905061466a6000830186613e8c565b6146776020830185613e8c565b6146846040830184614403565b949350505050565b600060208201905081810360008301526146a68184613e9b565b905092915050565b600060608201905081810360008301526146c88186613f44565b90506146d76020830185613f08565b81810360408301526146e98184613f44565b9050949350505050565b6000608082019050818103600083015261470d8186613f44565b905061471c6020830185613f08565b818103604083015261472e8184613f44565b90508181036060830152614741816141f3565b9050949350505050565b600060e08201905081810360008301526147658189613f44565b90506147746020830188614403565b6147816040830187613ef9565b81810360608301526147938186613f44565b90506147a26080830185613f35565b6147af60a0830184613f35565b81810360c08301526147c0816140db565b9050979650505050505050565b600060c08201905081810360008301526147e78189613f44565b90506147f66020830188614403565b6148036040830187613ef9565b81810360608301526148158186613f44565b90506148246080830185614403565b61483160a0830184614403565b979650505050505050565b6000602082019050818103600083015261485581613f7d565b9050919050565b6000602082019050818103600083015261487581613fa0565b9050919050565b6000602082019050818103600083015261489581613fc3565b9050919050565b600060208201905081810360008301526148b581613fe6565b9050919050565b600060208201905081810360008301526148d581614009565b9050919050565b600060208201905081810360008301526148f58161402c565b9050919050565b600060208201905081810360008301526149158161404f565b9050919050565b6000602082019050818103600083015261493581614095565b9050919050565b60006020820190508181036000830152614955816140b8565b9050919050565b6000602082019050818103600083015261497581614121565b9050919050565b6000602082019050818103600083015261499581614167565b9050919050565b600060208201905081810360008301526149b58161418a565b9050919050565b600060208201905081810360008301526149d5816141ad565b9050919050565b600060208201905081810360008301526149f5816141d0565b9050919050565b60006020820190508181036000830152614a1581614216565b9050919050565b600061014082019050614a326000830184614328565b92915050565b6000602082019050614a4d6000830184614403565b92915050565b600061014082019050614a69600083018d614403565b614a76602083018c614403565b614a83604083018b613e8c565b614a90606083018a613e6e565b614a9d6080830189613e6e565b614aaa60a0830188614403565b614ab760c0830187614403565b614ac460e0830186614403565b614ad2610100830185614403565b614ae0610120830184613f26565b9b9a5050505050505050505050565b6000614af9614b0a565b9050614b058282614dc7565b919050565b6000604051905090565b600067ffffffffffffffff821115614b2f57614b2e614ece565b5b614b3882614efd565b9050602081019050919050565b6000819050602082019050919050565b600081519050919050565b600081519050919050565b6000602082019050919050565b600082825260208201905092915050565b600082825260208201905092915050565b6000614ba582614ca1565b9150614bb083614ca1565b9250827fffffffffffffffffffffffffffffffffffffffffffffffffffffffffffffffff03821115614be557614be4614e41565b5b828201905092915050565b6000614bfb82614ca1565b9150614c0683614ca1565b925082821015614c1957614c18614e41565b5b828203905092915050565b6000614c2f82614c81565b9050919050565b6000614c4182614c81565b9050919050565b6000819050614c5682615303565b919050565b6000819050614c6982615317565b919050565b6000819050614c7c8261532b565b919050565b600073ffffffffffffffffffffffffffffffffffffffff82169050919050565b6000819050919050565b6000614cb682614d05565b9050919050565b6000614cc882614c48565b9050919050565b6000614cda82614c5b565b9050919050565b6000614cec82614c6e565b9050919050565b6000614cfe82614ca1565b9050919050565b6000614d1082614d17565b9050919050565b6000614d2282614c81565b9050919050565b82818337600083830152505050565b60005b83811015614d56578082015181840152602081019050614d3b565b83811115614d65576000848401525b50505050565b6000614d7682614ca1565b91506000821415614d8a57614d89614e41565b5b600182039050919050565b60006002820490506001821680614dad57607f821691505b60208210811415614dc157614dc0614e9f565b5b50919050565b614dd082614efd565b810181811067ffffffffffffffff82111715614def57614dee614ece565b5b80604052505050565b6000614e0382614ca1565b91507fffffffffffffffffffffffffffffffffffffffffffffffffffffffffffffffff821415614e3657614e35614e41565b5b600182019050919050565b7f4e487b7100000000000000000000000000000000000000000000000000000000600052601160045260246000fd5b7f4e487b7100000000000000000000000000000000000000000000000000000000600052602160045260246000fd5b7f4e487b7100000000000000000000000000000000000000000000000000000000600052602260045260246000fd5b7f4e487b7100000000000000000000000000000000000000000000000000000000600052604160045260246000fd5b6000601f19601f8301169050919050565b7f4974656d7320546861742061696e74204c69737465642063616e74206265205360008201527f6f6c646564000000000000000000000000000000000000000000000000000000602082015250565b7f43616e74206c697374207468617420697320616c7265616479204c6973746564600082015250565b7f696e76616c696420546f6b656e00000000000000000000000000000000000000600082015250565b7f5552492063616e74206265206e756c6c206f7220656d70747900000000000000600082015250565b7f436f756e7465723a2064656372656d656e74206f766572666c6f770000000000600082015250565b7f43616c6c6572206d75737420626520746865206f776e65720000000000000000600082015250565b7f4974656d205072696365206d6f73742062652067726561746572207468656e2060008201527f3120574549000000000000000000000000000000000000000000000000000000602082015250565b7f4c697374204d757369634e465400000000000000000000000000000000000000600082015250565b7f496e76616c696420546f6b656e20494400000000000000000000000000000000600082015250565b7f6b696e646c79207472616e7366657220746865206c6973746564207072696365600082015250565b7f4372656174656420416c62756d00000000000000000000000000000000000000600082015250565b7f5472616e73666572726564204d757369634e4654000000000000000000000000600082015250565b7f4f6e6c7920746865204f776e65722043616e20736574204c697374696e67205060008201527f7269636500000000000000000000000000000000000000000000000000000000602082015250565b7f43726561746564204d757369634e465400000000000000000000000000000000600082015250565b7f496e737566666963656e74206c697374696e6720666565000000000000000000600082015250565b7f43616e74206c697374207468617420697320616c726561647920756e4c69737460008201527f6564000000000000000000000000000000000000000000000000000000000000602082015250565b7f496e737566666963656e742066756e6473000000000000000000000000000000600082015250565b7f796f75206d757374206d75737420626520746865206f776e6572000000000000600082015250565b7f4172746973742043726561746564000000000000000000000000000000000000600082015250565b7f5265656e7472616e637947756172643a207265656e7472616e742063616c6c00600082015250565b7f536f6c64204d757369634e465400000000000000000000000000000000000000600082015250565b6003811061531457615313614e70565b5b50565b6003811061532857615327614e70565b5b50565b6003811061533c5761533b614e70565b5b50565b61534881614c24565b811461535357600080fd5b50565b61535f81614ca1565b811461536a57600080fd5b5056fea26469706673582212208b1981961b4a5f48728a696adf327b227cad795f295e2221a4dc1cd816133dd264736f6c63430008040033",
  "linkReferences": {},
  "deployedLinkReferences": {}
}