{
  "_format": "hh-sol-artifact-1",
  "contractName": "MusicMarket",
  "sourceName": "contracts/MusicMarket.sol",
  "abi": [
    {
      "inputs": [],
      "stateMutability": "nonpayable",
      "type": "constructor"
    },
    {
      "anonymous": false,
      "inputs": [
        {
          "indexed": true,
          "internalType": "uint256",
          "name": "albumId",
          "type": "uint256"
        },
        {
          "indexed": false,
          "internalType": "string",
          "name": "albumName",
          "type": "string"
        },
        {
          "indexed": false,
          "internalType": "uint256",
          "name": "createdAt",
          "type": "uint256"
        },
        {
          "indexed": false,
          "internalType": "enum MusicMarket.AlbumStatus",
          "name": "Status",
          "type": "uint8"
        },
        {
          "indexed": false,
          "internalType": "string",
          "name": "coverUrl",
          "type": "string"
        },
        {
          "indexed": false,
          "internalType": "uint256",
          "name": "mintedSongs",
          "type": "uint256"
        },
        {
          "indexed": false,
          "internalType": "uint256",
          "name": "soldSongs",
          "type": "uint256"
        },
        {
          "indexed": false,
          "internalType": "string",
          "name": "message",
          "type": "string"
        }
      ],
      "name": "AlbumEvent",
      "type": "event"
    },
    {
      "anonymous": false,
      "inputs": [
        {
          "indexed": true,
          "internalType": "uint256",
          "name": "artistId",
          "type": "uint256"
        },
        {
          "indexed": false,
          "internalType": "string",
          "name": "artistName",
          "type": "string"
        },
        {
          "indexed": false,
          "internalType": "string",
          "name": "url",
          "type": "string"
        },
        {
          "indexed": false,
          "internalType": "string",
          "name": "message",
          "type": "string"
        }
      ],
      "name": "ArtistEvent",
      "type": "event"
    },
    {
      "anonymous": false,
      "inputs": [
        {
          "indexed": true,
          "internalType": "uint256",
          "name": "auctionId",
          "type": "uint256"
        },
        {
          "indexed": true,
          "internalType": "uint256",
          "name": "tokenId",
          "type": "uint256"
        },
        {
          "indexed": false,
          "internalType": "address",
          "name": "auctionMarket",
          "type": "address"
        },
        {
          "indexed": false,
          "internalType": "address",
          "name": "nftAddress",
          "type": "address"
        },
        {
          "indexed": false,
          "internalType": "uint256",
          "name": "startAt",
          "type": "uint256"
        },
        {
          "indexed": false,
          "internalType": "uint256",
          "name": "endAt",
          "type": "uint256"
        },
        {
          "indexed": false,
          "internalType": "uint256",
          "name": "startBidPrice",
          "type": "uint256"
        }
      ],
      "name": "BidEvent",
      "type": "event"
    },
    {
      "anonymous": false,
      "inputs": [
        {
          "indexed": true,
          "internalType": "uint256",
          "name": "itemId",
          "type": "uint256"
        },
        {
          "indexed": true,
          "internalType": "uint256",
          "name": "tokenId",
          "type": "uint256"
        },
        {
          "indexed": false,
          "internalType": "address",
          "name": "musicContract",
          "type": "address"
        },
        {
          "indexed": false,
          "internalType": "address",
          "name": "owner",
          "type": "address"
        },
        {
          "indexed": false,
          "internalType": "address",
          "name": "seller",
          "type": "address"
        },
        {
          "indexed": false,
          "internalType": "uint256",
          "name": "price",
          "type": "uint256"
        },
        {
          "indexed": true,
          "internalType": "uint256",
          "name": "albumId",
          "type": "uint256"
        },
        {
          "indexed": false,
          "internalType": "uint256",
          "name": "trackNumber",
          "type": "uint256"
        },
        {
          "indexed": false,
          "internalType": "uint256",
          "name": "artistId",
          "type": "uint256"
        },
        {
          "indexed": false,
          "internalType": "enum MusicMarket.SongStatus",
          "name": "status",
          "type": "uint8"
        },
        {
          "indexed": false,
          "internalType": "string",
          "name": "message",
          "type": "string"
        }
      ],
      "name": "SongEvent",
      "type": "event"
    },
    {
      "inputs": [
        {
          "internalType": "address",
          "name": "musicContract",
          "type": "address"
        },
        {
          "internalType": "uint256",
          "name": "tokenId",
          "type": "uint256"
        }
      ],
      "name": "BuySong",
      "outputs": [],
      "stateMutability": "payable",
      "type": "function"
    },
    {
      "inputs": [
        {
          "internalType": "address",
          "name": "musicContract",
          "type": "address"
        },
        {
          "internalType": "uint256",
          "name": "itemId",
          "type": "uint256"
        }
      ],
      "name": "CancelItem",
      "outputs": [],
      "stateMutability": "payable",
      "type": "function"
    },
    {
      "inputs": [
        {
          "internalType": "uint256",
          "name": "",
          "type": "uint256"
        }
      ],
      "name": "artists",
      "outputs": [
        {
          "internalType": "uint256",
          "name": "id",
          "type": "uint256"
        },
        {
          "internalType": "string",
          "name": "artistName",
          "type": "string"
        },
        {
          "internalType": "string",
          "name": "url",
          "type": "string"
        }
      ],
      "stateMutability": "view",
      "type": "function"
    },
    {
      "inputs": [
        {
          "internalType": "string",
          "name": "albumName",
          "type": "string"
        },
        {
          "internalType": "string",
          "name": "uri",
          "type": "string"
        },
        {
          "internalType": "uint256[]",
          "name": "_artists",
          "type": "uint256[]"
        }
      ],
      "name": "createAlbum",
      "outputs": [],
      "stateMutability": "nonpayable",
      "type": "function"
    },
    {
      "inputs": [
        {
          "internalType": "string",
          "name": "artistName",
          "type": "string"
        },
        {
          "internalType": "string",
          "name": "uri",
          "type": "string"
        }
      ],
      "name": "createArtist",
      "outputs": [],
      "stateMutability": "nonpayable",
      "type": "function"
    },
    {
      "inputs": [
        {
          "internalType": "address",
          "name": "auctionMarket",
          "type": "address"
        },
        {
          "internalType": "address",
          "name": "nftAddress",
          "type": "address"
        },
        {
          "internalType": "uint256",
          "name": "startAt",
          "type": "uint256"
        },
        {
          "internalType": "uint256",
          "name": "endAt",
          "type": "uint256"
        },
        {
          "internalType": "uint256",
          "name": "startBidPrice",
          "type": "uint256"
        },
        {
          "internalType": "uint256",
          "name": "tokenId",
          "type": "uint256"
        }
      ],
      "name": "createBid",
      "outputs": [],
      "stateMutability": "nonpayable",
      "type": "function"
    },
    {
      "inputs": [
        {
          "internalType": "address",
          "name": "musicContract",
          "type": "address"
        },
        {
          "internalType": "uint256",
          "name": "tokenId",
          "type": "uint256"
        },
        {
          "internalType": "uint256",
          "name": "albumId",
          "type": "uint256"
        },
        {
          "internalType": "uint256",
          "name": "artistId",
          "type": "uint256"
        },
        {
          "internalType": "uint256",
          "name": "price",
          "type": "uint256"
        }
      ],
      "name": "createSong",
      "outputs": [],
      "stateMutability": "nonpayable",
      "type": "function"
    },
    {
      "inputs": [
        {
          "internalType": "address",
          "name": "musicContract",
          "type": "address"
        },
        {
          "internalType": "uint256",
          "name": "itemId",
          "type": "uint256"
        }
      ],
      "name": "createSongSale",
      "outputs": [],
      "stateMutability": "payable",
      "type": "function"
    },
    {
      "inputs": [
        {
          "internalType": "uint256",
          "name": "limit",
          "type": "uint256"
        }
      ],
      "name": "fetchMyMusicNFTs",
      "outputs": [
        {
          "components": [
            {
              "internalType": "uint256",
              "name": "itemId",
              "type": "uint256"
            },
            {
              "internalType": "uint256",
              "name": "tokenId",
              "type": "uint256"
            },
            {
              "internalType": "address",
              "name": "musicContract",
              "type": "address"
            },
            {
              "internalType": "address payable",
              "name": "owner",
              "type": "address"
            },
            {
              "internalType": "address payable",
              "name": "seller",
              "type": "address"
            },
            {
              "internalType": "uint256",
              "name": "price",
              "type": "uint256"
            },
            {
              "internalType": "uint256",
              "name": "albumId",
              "type": "uint256"
            },
            {
              "internalType": "uint256",
              "name": "trackNumber",
              "type": "uint256"
            },
            {
              "internalType": "uint256",
              "name": "artistId",
              "type": "uint256"
            },
            {
              "internalType": "enum MusicMarket.SongStatus",
              "name": "status",
              "type": "uint8"
            }
          ],
          "internalType": "struct MusicMarket.Song[]",
          "name": "",
          "type": "tuple[]"
        }
      ],
      "stateMutability": "view",
      "type": "function"
    },
    {
      "inputs": [
        {
          "internalType": "uint256",
          "name": "albumId",
          "type": "uint256"
        }
      ],
      "name": "getAlbum",
      "outputs": [
        {
          "components": [
            {
              "internalType": "uint256",
              "name": "id",
              "type": "uint256"
            },
            {
              "internalType": "string",
              "name": "albumName",
              "type": "string"
            },
            {
              "internalType": "uint256",
              "name": "createdAt",
              "type": "uint256"
            },
            {
              "internalType": "enum MusicMarket.AlbumStatus",
              "name": "Status",
              "type": "uint8"
            },
            {
              "internalType": "string",
              "name": "coverUrl",
              "type": "string"
            },
            {
              "internalType": "uint256",
              "name": "mintedSongs",
              "type": "uint256"
            },
            {
              "internalType": "uint256",
              "name": "soldSongs",
              "type": "uint256"
            }
          ],
          "internalType": "struct MusicMarket.Album",
          "name": "_album",
          "type": "tuple"
        },
        {
          "components": [
            {
              "internalType": "uint256",
              "name": "id",
              "type": "uint256"
            },
            {
              "internalType": "string",
              "name": "artistName",
              "type": "string"
            },
            {
              "internalType": "string",
              "name": "url",
              "type": "string"
            }
          ],
          "internalType": "struct MusicMarket.Artist[]",
          "name": "_artists",
          "type": "tuple[]"
        }
      ],
      "stateMutability": "view",
      "type": "function"
    },
    {
      "inputs": [],
      "name": "getAlbums",
      "outputs": [
        {
          "components": [
            {
              "internalType": "uint256",
              "name": "id",
              "type": "uint256"
            },
            {
              "internalType": "string",
              "name": "albumName",
              "type": "string"
            },
            {
              "internalType": "uint256",
              "name": "createdAt",
              "type": "uint256"
            },
            {
              "internalType": "enum MusicMarket.AlbumStatus",
              "name": "Status",
              "type": "uint8"
            },
            {
              "internalType": "string",
              "name": "coverUrl",
              "type": "string"
            },
            {
              "internalType": "uint256",
              "name": "mintedSongs",
              "type": "uint256"
            },
            {
              "internalType": "uint256",
              "name": "soldSongs",
              "type": "uint256"
            }
          ],
          "internalType": "struct MusicMarket.Album[]",
          "name": "data",
          "type": "tuple[]"
        }
      ],
      "stateMutability": "view",
      "type": "function"
    },
    {
      "inputs": [],
      "name": "getArtists",
      "outputs": [
        {
          "components": [
            {
              "internalType": "uint256",
              "name": "id",
              "type": "uint256"
            },
            {
              "internalType": "string",
              "name": "artistName",
              "type": "string"
            },
            {
              "internalType": "string",
              "name": "url",
              "type": "string"
            }
          ],
          "internalType": "struct MusicMarket.Artist[]",
          "name": "data",
          "type": "tuple[]"
        }
      ],
      "stateMutability": "view",
      "type": "function"
    },
    {
      "inputs": [
        {
          "internalType": "uint256",
          "name": "tokenId",
          "type": "uint256"
        }
      ],
      "name": "getItemByTokenId",
      "outputs": [
        {
          "components": [
            {
              "internalType": "uint256",
              "name": "itemId",
              "type": "uint256"
            },
            {
              "internalType": "uint256",
              "name": "tokenId",
              "type": "uint256"
            },
            {
              "internalType": "address",
              "name": "musicContract",
              "type": "address"
            },
            {
              "internalType": "address payable",
              "name": "owner",
              "type": "address"
            },
            {
              "internalType": "address payable",
              "name": "seller",
              "type": "address"
            },
            {
              "internalType": "uint256",
              "name": "price",
              "type": "uint256"
            },
            {
              "internalType": "uint256",
              "name": "albumId",
              "type": "uint256"
            },
            {
              "internalType": "uint256",
              "name": "trackNumber",
              "type": "uint256"
            },
            {
              "internalType": "uint256",
              "name": "artistId",
              "type": "uint256"
            },
            {
              "internalType": "enum MusicMarket.SongStatus",
              "name": "status",
              "type": "uint8"
            }
          ],
          "internalType": "struct MusicMarket.Song",
          "name": "item",
          "type": "tuple"
        }
      ],
      "stateMutability": "view",
      "type": "function"
    },
    {
      "inputs": [
        {
          "internalType": "uint256",
          "name": "limit",
          "type": "uint256"
        }
      ],
      "name": "getLastMinted",
      "outputs": [
        {
          "components": [
            {
              "internalType": "uint256",
              "name": "itemId",
              "type": "uint256"
            },
            {
              "internalType": "uint256",
              "name": "tokenId",
              "type": "uint256"
            },
            {
              "internalType": "address",
              "name": "musicContract",
              "type": "address"
            },
            {
              "internalType": "address payable",
              "name": "owner",
              "type": "address"
            },
            {
              "internalType": "address payable",
              "name": "seller",
              "type": "address"
            },
            {
              "internalType": "uint256",
              "name": "price",
              "type": "uint256"
            },
            {
              "internalType": "uint256",
              "name": "albumId",
              "type": "uint256"
            },
            {
              "internalType": "uint256",
              "name": "trackNumber",
              "type": "uint256"
            },
            {
              "internalType": "uint256",
              "name": "artistId",
              "type": "uint256"
            },
            {
              "internalType": "enum MusicMarket.SongStatus",
              "name": "status",
              "type": "uint8"
            }
          ],
          "internalType": "struct MusicMarket.Song[]",
          "name": "",
          "type": "tuple[]"
        }
      ],
      "stateMutability": "view",
      "type": "function"
    },
    {
      "inputs": [
        {
          "internalType": "uint256",
          "name": "limit",
          "type": "uint256"
        }
      ],
      "name": "getSongs",
      "outputs": [
        {
          "components": [
            {
              "internalType": "uint256",
              "name": "itemId",
              "type": "uint256"
            },
            {
              "internalType": "uint256",
              "name": "tokenId",
              "type": "uint256"
            },
            {
              "internalType": "address",
              "name": "musicContract",
              "type": "address"
            },
            {
              "internalType": "address payable",
              "name": "owner",
              "type": "address"
            },
            {
              "internalType": "address payable",
              "name": "seller",
              "type": "address"
            },
            {
              "internalType": "uint256",
              "name": "price",
              "type": "uint256"
            },
            {
              "internalType": "uint256",
              "name": "albumId",
              "type": "uint256"
            },
            {
              "internalType": "uint256",
              "name": "trackNumber",
              "type": "uint256"
            },
            {
              "internalType": "uint256",
              "name": "artistId",
              "type": "uint256"
            },
            {
              "internalType": "enum MusicMarket.SongStatus",
              "name": "status",
              "type": "uint8"
            }
          ],
          "internalType": "struct MusicMarket.Song[]",
          "name": "",
          "type": "tuple[]"
        }
      ],
      "stateMutability": "view",
      "type": "function"
    },
    {
      "inputs": [
        {
          "internalType": "uint256",
          "name": "",
          "type": "uint256"
        }
      ],
      "name": "itemIdToSong",
      "outputs": [
        {
          "internalType": "uint256",
          "name": "itemId",
          "type": "uint256"
        },
        {
          "internalType": "uint256",
          "name": "tokenId",
          "type": "uint256"
        },
        {
          "internalType": "address",
          "name": "musicContract",
          "type": "address"
        },
        {
          "internalType": "address payable",
          "name": "owner",
          "type": "address"
        },
        {
          "internalType": "address payable",
          "name": "seller",
          "type": "address"
        },
        {
          "internalType": "uint256",
          "name": "price",
          "type": "uint256"
        },
        {
          "internalType": "uint256",
          "name": "albumId",
          "type": "uint256"
        },
        {
          "internalType": "uint256",
          "name": "trackNumber",
          "type": "uint256"
        },
        {
          "internalType": "uint256",
          "name": "artistId",
          "type": "uint256"
        },
        {
          "internalType": "enum MusicMarket.SongStatus",
          "name": "status",
          "type": "uint8"
        }
      ],
      "stateMutability": "view",
      "type": "function"
    },
    {
      "inputs": [
        {
          "internalType": "address",
          "name": "musicContract",
          "type": "address"
        },
        {
          "internalType": "uint256",
          "name": "itemId",
          "type": "uint256"
        },
        {
          "internalType": "uint256",
          "name": "price",
          "type": "uint256"
        }
      ],
      "name": "listItem",
      "outputs": [],
      "stateMutability": "payable",
      "type": "function"
    },
    {
      "inputs": [],
      "name": "listingPrice",
      "outputs": [
        {
          "internalType": "uint256",
          "name": "",
          "type": "uint256"
        }
      ],
      "stateMutability": "view",
      "type": "function"
    },
    {
      "inputs": [
        {
          "internalType": "address",
          "name": "nftAddress",
          "type": "address"
        },
        {
          "internalType": "address",
          "name": "to",
          "type": "address"
        },
        {
          "internalType": "uint256",
          "name": "tokenId",
          "type": "uint256"
        }
      ],
      "name": "musicTransfer",
      "outputs": [],
      "stateMutability": "nonpayable",
      "type": "function"
    },
    {
      "inputs": [],
      "name": "owner",
      "outputs": [
        {
          "internalType": "address payable",
          "name": "",
          "type": "address"
        }
      ],
      "stateMutability": "view",
      "type": "function"
    },
    {
      "inputs": [
        {
          "internalType": "uint256",
          "name": "price",
          "type": "uint256"
        }
      ],
      "name": "setListingPrice",
      "outputs": [],
      "stateMutability": "nonpayable",
      "type": "function"
    }
  ],
  "bytecode": "0x60806040526658d15e1762800060075534801561001b57600080fd5b50600160008190555033600660006101000a81548173ffffffffffffffffffffffffffffffffffffffff021916908373ffffffffffffffffffffffffffffffffffffffff160217905550615df580620000756000396000f3fe60806040526004361061012a5760003560e01c806389bfd38f116100ab578063cd7e10c11161006f578063cd7e10c1146103b8578063d4cd0d45146103f7578063d69e63bd14610422578063d6e465c91461044b578063db69271014610489578063fb0cf2cc146104cf5761012a565b806389bfd38f146102ed5780638da5cb5b146103095780639de46d0914610334578063b520fa8f14610350578063c78f19f91461038d5761012a565b80635c517234116100f25780635c517234146101f65780635e4d1cc41461022157806367dfda781461025e578063750bf75e146102875780637c726b69146102c45761012a565b8063134bf7111461012f5780631f6035be1461014b57806320c6b3b6146101675780632834303a146101a4578063566d0d86146101cd575b600080fd5b610149600480360381019061014491906142b6565b6104f8565b005b610165600480360381019061016091906142b6565b6107a0565b005b34801561017357600080fd5b5061018e600480360381019061018991906144bb565b6109cb565b60405161019b919061515c565b60405180910390f35b3480156101b057600080fd5b506101cb60048036038101906101c6919061422d565b610dc7565b005b3480156101d957600080fd5b506101f460048036038101906101ef91906141de565b610fbc565b005b34801561020257600080fd5b5061020b61126e565b6040516102189190615118565b60405180910390f35b34801561022d57600080fd5b50610248600480360381019061024391906144bb565b61155c565b604051610255919061515c565b60405180910390f35b34801561026a57600080fd5b5061028560048036038101906102809190614424565b611941565b005b34801561029357600080fd5b506102ae60048036038101906102a991906144bb565b611beb565b6040516102bb919061515c565b60405180910390f35b3480156102d057600080fd5b506102eb60048036038101906102e691906144bb565b6120c3565b005b610307600480360381019061030291906142f2565b6121ed565b005b34801561031557600080fd5b5061031e61248b565b60405161032b9190614dad565b60405180910390f35b61034e600480360381019061034991906142b6565b6124b1565b005b34801561035c57600080fd5b50610377600480360381019061037291906144bb565b612b59565b6040516103849190615421565b60405180910390f35b34801561039957600080fd5b506103a2612df2565b6040516103af919061543d565b60405180910390f35b3480156103c457600080fd5b506103df60048036038101906103da91906144bb565b612df8565b6040516103ee93929190615458565b60405180910390f35b34801561040357600080fd5b5061040c612f32565b604051610419919061513a565b60405180910390f35b34801561042e57600080fd5b5061044960048036038101906104449190614341565b61317b565b005b34801561045757600080fd5b50610472600480360381019061046d91906144bb565b613666565b6040516104809291906153ea565b60405180910390f35b34801561049557600080fd5b506104b060048036038101906104ab91906144bb565b613b60565b6040516104c69a9998979695949392919061549d565b60405180910390f35b3480156104db57600080fd5b506104f660048036038101906104f191906143b8565b613c21565b005b6002600054141561053e576040517f08c379a0000000000000000000000000000000000000000000000000000000008152600401610535906153aa565b60405180910390fd5b600260008190555060006008600083815260200190815260200160002090506000816001015490508160030160009054906101000a900473ffffffffffffffffffffffffffffffffffffffff1673ffffffffffffffffffffffffffffffffffffffff163373ffffffffffffffffffffffffffffffffffffffff16146105f8576040517f08c379a00000000000000000000000000000000000000000000000000000000081526004016105ef906153ca565b60405180910390fd5b60006003811115610632577f4e487b7100000000000000000000000000000000000000000000000000000000600052602160045260246000fd5b8260090160009054906101000a900460ff16600381111561067c577f4e487b7100000000000000000000000000000000000000000000000000000000600052602160045260246000fd5b146106bc576040517f08c379a00000000000000000000000000000000000000000000000000000000081526004016106b3906152aa565b60405180910390fd5b60018260090160006101000a81548160ff0219169083600381111561070a577f4e487b7100000000000000000000000000000000000000000000000000000000600052602160045260246000fd5b02179055506107196005613dce565b816006015481847fb6a6e5a1d1cba81612d627d3d366515af9bc54786897c5bb629f44b2ca1949bc8733600660009054906101000a900473ffffffffffffffffffffffffffffffffffffffff16886005015489600701548a60080154600060405161078a9796959493929190614e82565b60405180910390a4505060016000819055505050565b600260005414156107e6576040517f08c379a00000000000000000000000000000000000000000000000000000000081526004016107dd906153aa565b60405180910390fd5b600260008190555060006107f982612b59565b905060006003811115610835577f4e487b7100000000000000000000000000000000000000000000000000000000600052602160045260246000fd5b8161012001516003811115610873577f4e487b7100000000000000000000000000000000000000000000000000000000600052602160045260246000fd5b146108b3576040517f08c379a00000000000000000000000000000000000000000000000000000000081526004016108aa9061532a565b60405180910390fd5b8060a001513410156108fa576040517f08c379a00000000000000000000000000000000000000000000000000000000081526004016108f19061534a565b60405180910390fd5b610905833384610fbc565b61090f6005613dce565b806060015173ffffffffffffffffffffffffffffffffffffffff166108fc8260a001519081150290604051600060405180830381858888f1935050505015801561095d573d6000803e3d6000fd5b508060c001518282600001517fb6a6e5a1d1cba81612d627d3d366515af9bc54786897c5bb629f44b2ca1949bc863386606001518760a001518861010001518960e0015160016040516109b69796959493929190614f88565b60405180910390a45060016000819055505050565b606060006109d96002613e2a565b6109e36005613e2a565b6109ed6001613e2a565b6109f791906156e6565b610a01919061573c565b9050600080828510610a135782610a15565b845b905060008167ffffffffffffffff811115610a59577f4e487b7100000000000000000000000000000000000000000000000000000000600052604160045260246000fd5b604051908082528060200260200182016040528015610a9257816020015b610a7f613e4e565b815260200190600190039081610a775790505b50905060005b610aa26001613e2a565b811015610dba5782841415610ab657610dba565b60006003811115610af0577f4e487b7100000000000000000000000000000000000000000000000000000000600052602160045260246000fd5b60086000600184610b0191906156e6565b815260200190815260200160002060090160009054906101000a900460ff166003811115610b58577f4e487b7100000000000000000000000000000000000000000000000000000000600052602160045260246000fd5b1415610da757600060086000600184610b7191906156e6565b81526020019081526020016000206040518061014001604052908160008201548152602001600182015481526020016002820160009054906101000a900473ffffffffffffffffffffffffffffffffffffffff1673ffffffffffffffffffffffffffffffffffffffff1673ffffffffffffffffffffffffffffffffffffffff1681526020016003820160009054906101000a900473ffffffffffffffffffffffffffffffffffffffff1673ffffffffffffffffffffffffffffffffffffffff1673ffffffffffffffffffffffffffffffffffffffff1681526020016004820160009054906101000a900473ffffffffffffffffffffffffffffffffffffffff1673ffffffffffffffffffffffffffffffffffffffff1673ffffffffffffffffffffffffffffffffffffffff168152602001600582015481526020016006820154815260200160078201548152602001600882015481526020016009820160009054906101000a900460ff166003811115610d14577f4e487b7100000000000000000000000000000000000000000000000000000000600052602160045260246000fd5b6003811115610d4c577f4e487b7100000000000000000000000000000000000000000000000000000000600052602160045260246000fd5b81525050905080838681518110610d8c577f4e487b7100000000000000000000000000000000000000000000000000000000600052603260045260246000fd5b60200260200101819052508480610da29061591f565b955050505b8080610db29061591f565b915050610a98565b5080945050505050919050565b600060086000610dd684612b59565b60000151815260200190815260200160002090508060030160009054906101000a900473ffffffffffffffffffffffffffffffffffffffff1673ffffffffffffffffffffffffffffffffffffffff163373ffffffffffffffffffffffffffffffffffffffff1614610e7c576040517f08c379a0000000000000000000000000000000000000000000000000000000008152600401610e73906152ca565b60405180910390fd5b610e87868884610fbc565b60028160090160006101000a81548160ff02191690836003811115610ed5577f4e487b7100000000000000000000000000000000000000000000000000000000600052602160045260246000fd5b021790555060008773ffffffffffffffffffffffffffffffffffffffff1663627501b887873388886040518663ffffffff1660e01b8152600401610f1d959493929190615539565b602060405180830381600087803b158015610f3757600080fd5b505af1158015610f4b573d6000803e3d6000fd5b505050506040513d601f19601f82011682018060405250810190610f6f91906144e4565b905082817f4c66969ad62b3cbc69059b4992a1cef97838145189000a4f9f7f955a4320f9938a8a8a8a8a604051610faa9594939291906150c5565b60405180910390a35050505050505050565b600060086000610fcb84612b59565b60000151815260200190815260200160002090508060030160009054906101000a900473ffffffffffffffffffffffffffffffffffffffff1673ffffffffffffffffffffffffffffffffffffffff163373ffffffffffffffffffffffffffffffffffffffff16148061106857503073ffffffffffffffffffffffffffffffffffffffff163373ffffffffffffffffffffffffffffffffffffffff16145b61107157600080fd5b8373ffffffffffffffffffffffffffffffffffffffff166323b872dd8260030160009054906101000a900473ffffffffffffffffffffffffffffffffffffffff1685856040518463ffffffff1660e01b81526004016110d293929190614dc8565b600060405180830381600087803b1580156110ec57600080fd5b505af1158015611100573d6000803e3d6000fd5b50505050600c60008260030160009054906101000a900473ffffffffffffffffffffffffffffffffffffffff1673ffffffffffffffffffffffffffffffffffffffff1673ffffffffffffffffffffffffffffffffffffffff168152602001908152602001600020600081548092919061117890615892565b9190505550600c60008473ffffffffffffffffffffffffffffffffffffffff1673ffffffffffffffffffffffffffffffffffffffff16815260200190815260200160002060008154809291906111cd9061591f565b919050555060018160090160006101000a81548160ff02191690836003811115611220577f4e487b7100000000000000000000000000000000000000000000000000000000600052602160045260246000fd5b0217905550828160030160006101000a81548173ffffffffffffffffffffffffffffffffffffffff021916908373ffffffffffffffffffffffffffffffffffffffff16021790555050505050565b606061127a6004613e2a565b67ffffffffffffffff8111156112b9577f4e487b7100000000000000000000000000000000000000000000000000000000600052604160045260246000fd5b6040519080825280602002602001820160405280156112f257816020015b6112df613f1b565b8152602001906001900390816112d75790505b5090506000600190505b8151811161155857600a60008281526020019081526020016000206040518060e00160405290816000820154815260200160018201805461133c906158bc565b80601f0160208091040260200160405190810160405280929190818152602001828054611368906158bc565b80156113b55780601f1061138a576101008083540402835291602001916113b5565b820191906000526020600020905b81548152906001019060200180831161139857829003601f168201915b50505050508152602001600282015481526020016003820160009054906101000a900460ff166002811115611413577f4e487b7100000000000000000000000000000000000000000000000000000000600052602160045260246000fd5b600281111561144b577f4e487b7100000000000000000000000000000000000000000000000000000000600052602160045260246000fd5b815260200160048201805461145f906158bc565b80601f016020809104026020016040519081016040528092919081815260200182805461148b906158bc565b80156114d85780601f106114ad576101008083540402835291602001916114d8565b820191906000526020600020905b8154815290600101906020018083116114bb57829003601f168201915b505050505081526020016005820154815260200160068201548152505082600183611503919061573c565b8151811061153a577f4e487b7100000000000000000000000000000000000000000000000000000000600052603260045260246000fd5b602002602001018190525080806115509061591f565b9150506112fc565b5090565b6060600061156a6001613e2a565b905060006115786002613e2a565b6115826005613e2a565b8361158d91906156e6565b611597919061573c565b90506000808286106115a957826115ab565b855b905060008167ffffffffffffffff8111156115ef577f4e487b7100000000000000000000000000000000000000000000000000000000600052604160045260246000fd5b60405190808252806020026020018201604052801561162857816020015b611615613e4e565b81526020019060019003908161160d5790505b50905060008590505b6000811115611933578284141561164757611933565b60006003811115611681577f4e487b7100000000000000000000000000000000000000000000000000000000600052602160045260246000fd5b6008600083815260200190815260200160002060090160009054906101000a900460ff1660038111156116dd577f4e487b7100000000000000000000000000000000000000000000000000000000600052602160045260246000fd5b1415611920576000600860008381526020019081526020016000206040518061014001604052908160008201548152602001600182015481526020016002820160009054906101000a900473ffffffffffffffffffffffffffffffffffffffff1673ffffffffffffffffffffffffffffffffffffffff1673ffffffffffffffffffffffffffffffffffffffff1681526020016003820160009054906101000a900473ffffffffffffffffffffffffffffffffffffffff1673ffffffffffffffffffffffffffffffffffffffff1673ffffffffffffffffffffffffffffffffffffffff1681526020016004820160009054906101000a900473ffffffffffffffffffffffffffffffffffffffff1673ffffffffffffffffffffffffffffffffffffffff1673ffffffffffffffffffffffffffffffffffffffff168152602001600582015481526020016006820154815260200160078201548152602001600882015481526020016009820160009054906101000a900460ff16600381111561188d577f4e487b7100000000000000000000000000000000000000000000000000000000600052602160045260246000fd5b60038111156118c5577f4e487b7100000000000000000000000000000000000000000000000000000000600052602160045260246000fd5b81525050905080838681518110611905577f4e487b7100000000000000000000000000000000000000000000000000000000600052603260045260246000fd5b6020026020010181905250848061191b9061591f565b955050505b808061192b90615892565b915050611631565b508095505050505050919050565b3373ffffffffffffffffffffffffffffffffffffffff16600660009054906101000a900473ffffffffffffffffffffffffffffffffffffffff1673ffffffffffffffffffffffffffffffffffffffff16146119d1576040517f08c379a00000000000000000000000000000000000000000000000000000000081526004016119c8906153ca565b60405180910390fd5b600082511415611a16576040517f08c379a0000000000000000000000000000000000000000000000000000000008152600401611a0d9061538a565b60405180910390fd5b600081511415611a2557600080fd5b611a2f6004613e38565b6000611a3b6004613e2a565b90506040518060e0016040528082815260200185815260200142815260200160006002811115611a94577f4e487b7100000000000000000000000000000000000000000000000000000000600052602160045260246000fd5b8152602001848152602001600081526020016000815250600a6000838152602001908152602001600020600082015181600001556020820151816001019080519060200190611ae4929190613f90565b506040820151816002015560608201518160030160006101000a81548160ff02191690836002811115611b40577f4e487b7100000000000000000000000000000000000000000000000000000000600052602160045260246000fd5b02179055506080820151816004019080519060200190611b61929190613f90565b5060a0820151816005015560c0820151816006015590505081600b60008381526020019081526020016000209080519060200190611ba0929190614016565b50807f4ad0e5615b1c242c0e644cb5b2255aa337a06268781317cdc14d09d1a51eb1678542600087600080604051611bdd969594939291906151c8565b60405180910390a250505050565b6060600080600c60003373ffffffffffffffffffffffffffffffffffffffff1673ffffffffffffffffffffffffffffffffffffffff168152602001908152602001600020541415611cb957600067ffffffffffffffff811115611c77577f4e487b7100000000000000000000000000000000000000000000000000000000600052604160045260246000fd5b604051908082528060200260200182016040528015611cb057816020015b611c9d613e4e565b815260200190600190039081611c955790505b509150506120be565b6000600c60003373ffffffffffffffffffffffffffffffffffffffff1673ffffffffffffffffffffffffffffffffffffffff168152602001908152602001600020548410611d4657600c60003373ffffffffffffffffffffffffffffffffffffffff1673ffffffffffffffffffffffffffffffffffffffff16815260200190815260200160002054611d48565b835b905060008167ffffffffffffffff811115611d8c577f4e487b7100000000000000000000000000000000000000000000000000000000600052604160045260246000fd5b604051908082528060200260200182016040528015611dc557816020015b611db2613e4e565b815260200190600190039081611daa5790505b50905060005b611dd56001613e2a565b8110156120b65782841415611de9576120b6565b3373ffffffffffffffffffffffffffffffffffffffff1660086000600184611e1191906156e6565b815260200190815260200160002060030160009054906101000a900473ffffffffffffffffffffffffffffffffffffffff1673ffffffffffffffffffffffffffffffffffffffff1614156120a35760086000600183611e7091906156e6565b81526020019081526020016000206040518061014001604052908160008201548152602001600182015481526020016002820160009054906101000a900473ffffffffffffffffffffffffffffffffffffffff1673ffffffffffffffffffffffffffffffffffffffff1673ffffffffffffffffffffffffffffffffffffffff1681526020016003820160009054906101000a900473ffffffffffffffffffffffffffffffffffffffff1673ffffffffffffffffffffffffffffffffffffffff1673ffffffffffffffffffffffffffffffffffffffff1681526020016004820160009054906101000a900473ffffffffffffffffffffffffffffffffffffffff1673ffffffffffffffffffffffffffffffffffffffff1673ffffffffffffffffffffffffffffffffffffffff168152602001600582015481526020016006820154815260200160078201548152602001600882015481526020016009820160009054906101000a900460ff166003811115612013577f4e487b7100000000000000000000000000000000000000000000000000000000600052602160045260246000fd5b600381111561204b577f4e487b7100000000000000000000000000000000000000000000000000000000600052602160045260246000fd5b81525050828581518110612088577f4e487b7100000000000000000000000000000000000000000000000000000000600052603260045260246000fd5b60200260200101819052506001846120a091906156e6565b93505b80806120ae9061591f565b915050611dcb565b508093505050505b919050565b3373ffffffffffffffffffffffffffffffffffffffff16600660009054906101000a900473ffffffffffffffffffffffffffffffffffffffff1673ffffffffffffffffffffffffffffffffffffffff1614612153576040517f08c379a000000000000000000000000000000000000000000000000000000000815260040161214a906153ca565b60405180910390fd5b3373ffffffffffffffffffffffffffffffffffffffff16600660009054906101000a900473ffffffffffffffffffffffffffffffffffffffff1673ffffffffffffffffffffffffffffffffffffffff16146121e3576040517f08c379a00000000000000000000000000000000000000000000000000000000081526004016121da906152ca565b60405180910390fd5b8060078190555050565b60006008600084815260200190815260200160002090506000816001015490508160030160009054906101000a900473ffffffffffffffffffffffffffffffffffffffff1673ffffffffffffffffffffffffffffffffffffffff163373ffffffffffffffffffffffffffffffffffffffff161461229f576040517f08c379a0000000000000000000000000000000000000000000000000000000008152600401612296906153ca565b60405180910390fd5b600060038111156122d9577f4e487b7100000000000000000000000000000000000000000000000000000000600052602160045260246000fd5b8260090160009054906101000a900460ff166003811115612323577f4e487b7100000000000000000000000000000000000000000000000000000000600052602160045260246000fd5b1415612364576040517f08c379a000000000000000000000000000000000000000000000000000000000815260040161235b9061530a565b60405180910390fd5b6007543410156123a9576040517f08c379a00000000000000000000000000000000000000000000000000000000081526004016123a0906152ea565b60405180910390fd5b82826005018190555060008260090160006101000a81548160ff02191690836003811115612400577f4e487b7100000000000000000000000000000000000000000000000000000000600052602160045260246000fd5b021790555061240f6005613e38565b816006015481857fb6a6e5a1d1cba81612d627d3d366515af9bc54786897c5bb629f44b2ca1949bc8833600660009054906101000a900473ffffffffffffffffffffffffffffffffffffffff168989600701548a60080154600060405161247c9796959493929190614f05565b60405180910390a45050505050565b600660009054906101000a900473ffffffffffffffffffffffffffffffffffffffff1681565b600260005414156124f7576040517f08c379a00000000000000000000000000000000000000000000000000000000081526004016124ee906153aa565b60405180910390fd5b60026000819055506000600860008381526020019081526020016000206040518061014001604052908160008201548152602001600182015481526020016002820160009054906101000a900473ffffffffffffffffffffffffffffffffffffffff1673ffffffffffffffffffffffffffffffffffffffff1673ffffffffffffffffffffffffffffffffffffffff1681526020016003820160009054906101000a900473ffffffffffffffffffffffffffffffffffffffff1673ffffffffffffffffffffffffffffffffffffffff1673ffffffffffffffffffffffffffffffffffffffff1681526020016004820160009054906101000a900473ffffffffffffffffffffffffffffffffffffffff1673ffffffffffffffffffffffffffffffffffffffff1673ffffffffffffffffffffffffffffffffffffffff168152602001600582015481526020016006820154815260200160078201548152602001600882015481526020016009820160009054906101000a900460ff1660038111156126a9577f4e487b7100000000000000000000000000000000000000000000000000000000600052602160045260246000fd5b60038111156126e1577f4e487b7100000000000000000000000000000000000000000000000000000000600052602160045260246000fd5b81525050905060008160a0015190506000826020015190508134101561270657600080fd5b8473ffffffffffffffffffffffffffffffffffffffff166323b872dd3033846040518463ffffffff1660e01b81526004016127439392919061508e565b600060405180830381600087803b15801561275d57600080fd5b505af1158015612771573d6000803e3d6000fd5b50505050600c60003373ffffffffffffffffffffffffffffffffffffffff1673ffffffffffffffffffffffffffffffffffffffff16815260200190815260200160002060008154809291906127c59061591f565b91905055506001836101200190600381111561280a577f4e487b7100000000000000000000000000000000000000000000000000000000600052602160045260246000fd5b90816003811115612844577f4e487b7100000000000000000000000000000000000000000000000000000000600052602160045260246000fd5b8152505033836060019073ffffffffffffffffffffffffffffffffffffffff16908173ffffffffffffffffffffffffffffffffffffffff168152505061288a6002613e38565b826080015173ffffffffffffffffffffffffffffffffffffffff166108fc839081150290604051600060405180830381858888f193505050501580156128d4573d6000803e3d6000fd5b508260086000868152602001908152602001600020600082015181600001556020820151816001015560408201518160020160006101000a81548173ffffffffffffffffffffffffffffffffffffffff021916908373ffffffffffffffffffffffffffffffffffffffff16021790555060608201518160030160006101000a81548173ffffffffffffffffffffffffffffffffffffffff021916908373ffffffffffffffffffffffffffffffffffffffff16021790555060808201518160040160006101000a81548173ffffffffffffffffffffffffffffffffffffffff021916908373ffffffffffffffffffffffffffffffffffffffff16021790555060a0820151816005015560c0820151816006015560e0820151816007015561010082015181600801556101208201518160090160006101000a81548160ff02191690836003811115612a4d577f4e487b7100000000000000000000000000000000000000000000000000000000600052602160045260246000fd5b0217905550905050600860008581526020019081526020016000206006015481857fb6a6e5a1d1cba81612d627d3d366515af9bc54786897c5bb629f44b2ca1949bc88600860008a815260200190815260200160002060030160009054906101000a900473ffffffffffffffffffffffffffffffffffffffff16600860008b815260200190815260200160002060040160009054906101000a900473ffffffffffffffffffffffffffffffffffffffff1688600860008d815260200190815260200160002060070154600860008e8152602001908152602001600020600801546001604051612b429796959493929190614dff565b60405180910390a450505060016000819055505050565b612b61613e4e565b60005b612b6e6001613e2a565b811015612daa578260086000600184612b8791906156e6565b8152602001908152602001600020600101541415612d975760086000600183612bb091906156e6565b81526020019081526020016000206040518061014001604052908160008201548152602001600182015481526020016002820160009054906101000a900473ffffffffffffffffffffffffffffffffffffffff1673ffffffffffffffffffffffffffffffffffffffff1673ffffffffffffffffffffffffffffffffffffffff1681526020016003820160009054906101000a900473ffffffffffffffffffffffffffffffffffffffff1673ffffffffffffffffffffffffffffffffffffffff1673ffffffffffffffffffffffffffffffffffffffff1681526020016004820160009054906101000a900473ffffffffffffffffffffffffffffffffffffffff1673ffffffffffffffffffffffffffffffffffffffff1673ffffffffffffffffffffffffffffffffffffffff168152602001600582015481526020016006820154815260200160078201548152602001600882015481526020016009820160009054906101000a900460ff166003811115612d53577f4e487b7100000000000000000000000000000000000000000000000000000000600052602160045260246000fd5b6003811115612d8b577f4e487b7100000000000000000000000000000000000000000000000000000000600052602160045260246000fd5b81525050915050612ded565b8080612da29061591f565b915050612b64565b506000612dec576040517f08c379a0000000000000000000000000000000000000000000000000000000008152600401612de39061536a565b60405180910390fd5b5b919050565b60075481565b6009602052806000526040600020600091509050806000015490806001018054612e21906158bc565b80601f0160208091040260200160405190810160405280929190818152602001828054612e4d906158bc565b8015612e9a5780601f10612e6f57610100808354040283529160200191612e9a565b820191906000526020600020905b815481529060010190602001808311612e7d57829003601f168201915b505050505090806002018054612eaf906158bc565b80601f0160208091040260200160405190810160405280929190818152602001828054612edb906158bc565b8015612f285780601f10612efd57610100808354040283529160200191612f28565b820191906000526020600020905b815481529060010190602001808311612f0b57829003601f168201915b5050505050905083565b6060612f3e6003613e2a565b67ffffffffffffffff811115612f7d577f4e487b7100000000000000000000000000000000000000000000000000000000600052604160045260246000fd5b604051908082528060200260200182016040528015612fb657816020015b612fa3614063565b815260200190600190039081612f9b5790505b5090506000600190505b81518111613177576009600082815260200190815260200160002060405180606001604052908160008201548152602001600182018054613000906158bc565b80601f016020809104026020016040519081016040528092919081815260200182805461302c906158bc565b80156130795780601f1061304e57610100808354040283529160200191613079565b820191906000526020600020905b81548152906001019060200180831161305c57829003601f168201915b50505050508152602001600282018054613092906158bc565b80601f01602080910402602001604051908101604052809291908181526020018280546130be906158bc565b801561310b5780601f106130e05761010080835404028352916020019161310b565b820191906000526020600020905b8154815290600101906020018083116130ee57829003601f168201915b50505050508152505082600183613122919061573c565b81518110613159577f4e487b7100000000000000000000000000000000000000000000000000000000600052603260045260246000fd5b6020026020010181905250808061316f9061591f565b915050612fc0565b5090565b3373ffffffffffffffffffffffffffffffffffffffff16600660009054906101000a900473ffffffffffffffffffffffffffffffffffffffff1673ffffffffffffffffffffffffffffffffffffffff161461320b576040517f08c379a0000000000000000000000000000000000000000000000000000000008152600401613202906153ca565b60405180910390fd5b60026000541415613251576040517f08c379a0000000000000000000000000000000000000000000000000000000008152600401613248906153aa565b60405180910390fd5b60026000819055506000811161326657600080fd5b6132706001613e2a565b8410156132b2576040517f08c379a00000000000000000000000000000000000000000000000000000000081526004016132a99061526a565b60405180910390fd5b6132bc6004613e2a565b8311156132fe576040517f08c379a00000000000000000000000000000000000000000000000000000000081526004016132f59061524a565b60405180910390fd5b6133086001613e38565b60006133146001613e2a565b90506000600a600086815260200190815260200160002090506040518061014001604052808381526020018781526020018873ffffffffffffffffffffffffffffffffffffffff168152602001600073ffffffffffffffffffffffffffffffffffffffff1681526020013373ffffffffffffffffffffffffffffffffffffffff168152602001848152602001868152602001600183600501546133b791906156e6565b8152602001858152602001600060038111156133fc577f4e487b7100000000000000000000000000000000000000000000000000000000600052602160045260246000fd5b81525060086000848152602001908152602001600020600082015181600001556020820151816001015560408201518160020160006101000a81548173ffffffffffffffffffffffffffffffffffffffff021916908373ffffffffffffffffffffffffffffffffffffffff16021790555060608201518160030160006101000a81548173ffffffffffffffffffffffffffffffffffffffff021916908373ffffffffffffffffffffffffffffffffffffffff16021790555060808201518160040160006101000a81548173ffffffffffffffffffffffffffffffffffffffff021916908373ffffffffffffffffffffffffffffffffffffffff16021790555060a0820151816005015560c0820151816006015560e0820151816007015561010082015181600801556101208201518160090160006101000a81548160ff02191690836003811115613576577f4e487b7100000000000000000000000000000000000000000000000000000000600052602160045260246000fd5b0217905550905050600181600501600082825461359391906156e6565b925050819055508673ffffffffffffffffffffffffffffffffffffffff166323b872dd3330896040518463ffffffff1660e01b81526004016135d79392919061508e565b600060405180830381600087803b1580156135f157600080fd5b505af1158015613605573d6000803e3d6000fd5b505050508486837fb6a6e5a1d1cba81612d627d3d366515af9bc54786897c5bb629f44b2ca1949bc8a600033898b8960050154600060405161364d979695949392919061500b565b60405180910390a4505060016000819055505050505050565b61366e613f1b565b60608261367b6004613e2a565b10156136bc576040517f08c379a00000000000000000000000000000000000000000000000000000000081526004016136b39061536a565b60405180910390fd5b600a60008481526020019081526020016000206040518060e0016040529081600082015481526020016001820180546136f4906158bc565b80601f0160208091040260200160405190810160405280929190818152602001828054613720906158bc565b801561376d5780601f106137425761010080835404028352916020019161376d565b820191906000526020600020905b81548152906001019060200180831161375057829003601f168201915b50505050508152602001600282015481526020016003820160009054906101000a900460ff1660028111156137cb577f4e487b7100000000000000000000000000000000000000000000000000000000600052602160045260246000fd5b6002811115613803577f4e487b7100000000000000000000000000000000000000000000000000000000600052602160045260246000fd5b8152602001600482018054613817906158bc565b80601f0160208091040260200160405190810160405280929190818152602001828054613843906158bc565b80156138905780601f1061386557610100808354040283529160200191613890565b820191906000526020600020905b81548152906001019060200180831161387357829003601f168201915b50505050508152602001600582015481526020016006820154815250509150600b60008481526020019081526020016000208054905067ffffffffffffffff811115613905577f4e487b7100000000000000000000000000000000000000000000000000000000600052604160045260246000fd5b60405190808252806020026020018201604052801561393e57816020015b61392b614063565b8152602001906001900390816139235790505b50905060005b600b600085815260200190815260200160002080549050811015613b5a5760096000600b600087815260200190815260200160002083815481106139b1577f4e487b7100000000000000000000000000000000000000000000000000000000600052603260045260246000fd5b90600052602060002001548152602001908152602001600020604051806060016040529081600082015481526020016001820180546139ef906158bc565b80601f0160208091040260200160405190810160405280929190818152602001828054613a1b906158bc565b8015613a685780601f10613a3d57610100808354040283529160200191613a68565b820191906000526020600020905b815481529060010190602001808311613a4b57829003601f168201915b50505050508152602001600282018054613a81906158bc565b80601f0160208091040260200160405190810160405280929190818152602001828054613aad906158bc565b8015613afa5780601f10613acf57610100808354040283529160200191613afa565b820191906000526020600020905b815481529060010190602001808311613add57829003601f168201915b505050505081525050828281518110613b3c577f4e487b7100000000000000000000000000000000000000000000000000000000600052603260045260246000fd5b60200260200101819052508080613b529061591f565b915050613944565b50915091565b60086020528060005260406000206000915090508060000154908060010154908060020160009054906101000a900473ffffffffffffffffffffffffffffffffffffffff16908060030160009054906101000a900473ffffffffffffffffffffffffffffffffffffffff16908060040160009054906101000a900473ffffffffffffffffffffffffffffffffffffffff16908060050154908060060154908060070154908060080154908060090160009054906101000a900460ff1690508a565b3373ffffffffffffffffffffffffffffffffffffffff16600660009054906101000a900473ffffffffffffffffffffffffffffffffffffffff1673ffffffffffffffffffffffffffffffffffffffff1614613cb1576040517f08c379a0000000000000000000000000000000000000000000000000000000008152600401613ca8906153ca565b60405180910390fd5b600081511415613cf6576040517f08c379a0000000000000000000000000000000000000000000000000000000008152600401613ced9061538a565b60405180910390fd5b613d006003613e38565b6040518060600160405280613d156003613e2a565b81526020018381526020018281525060096000613d326003613e2a565b8152602001908152602001600020600082015181600001556020820151816001019080519060200190613d66929190613f90565b506040820151816002019080519060200190613d83929190613f90565b50905050613d916003613e2a565b7f3a1a6624730a36ec5bce3c780f724d278f1b8bb76d4cd5f34abcaf9087aaab1f8383604051613dc292919061517e565b60405180910390a25050565b60008160000154905060008111613e1a576040517f08c379a0000000000000000000000000000000000000000000000000000000008152600401613e119061528a565b60405180910390fd5b6001810382600001819055505050565b600081600001549050919050565b6001816000016000828254019250508190555050565b6040518061014001604052806000815260200160008152602001600073ffffffffffffffffffffffffffffffffffffffff168152602001600073ffffffffffffffffffffffffffffffffffffffff168152602001600073ffffffffffffffffffffffffffffffffffffffff1681526020016000815260200160008152602001600081526020016000815260200160006003811115613f15577f4e487b7100000000000000000000000000000000000000000000000000000000600052602160045260246000fd5b81525090565b6040518060e0016040528060008152602001606081526020016000815260200160006002811115613f75577f4e487b7100000000000000000000000000000000000000000000000000000000600052602160045260246000fd5b81526020016060815260200160008152602001600081525090565b828054613f9c906158bc565b90600052602060002090601f016020900481019282613fbe5760008555614005565b82601f10613fd757805160ff1916838001178555614005565b82800160010185558215614005579182015b82811115614004578251825591602001919060010190613fe9565b5b5090506140129190614084565b5090565b828054828255906000526020600020908101928215614052579160200282015b82811115614051578251825591602001919060010190614036565b5b50905061405f9190614084565b5090565b60405180606001604052806000815260200160608152602001606081525090565b5b8082111561409d576000816000905550600101614085565b5090565b60006140b46140af846155b1565b61558c565b905080838252602082019050828560208602820111156140d357600080fd5b60005b8581101561410357816140e988826141b4565b8452602084019350602083019250506001810190506140d6565b5050509392505050565b600061412061411b846155dd565b61558c565b90508281526020810184848401111561413857600080fd5b614143848285615850565b509392505050565b60008135905061415a81615d91565b92915050565b600082601f83011261417157600080fd5b81356141818482602086016140a1565b91505092915050565b600082601f83011261419b57600080fd5b81356141ab84826020860161410d565b91505092915050565b6000813590506141c381615da8565b92915050565b6000815190506141d881615da8565b92915050565b6000806000606084860312156141f357600080fd5b60006142018682870161414b565b93505060206142128682870161414b565b9250506040614223868287016141b4565b9150509250925092565b60008060008060008060c0878903121561424657600080fd5b600061425489828a0161414b565b965050602061426589828a0161414b565b955050604061427689828a016141b4565b945050606061428789828a016141b4565b935050608061429889828a016141b4565b92505060a06142a989828a016141b4565b9150509295509295509295565b600080604083850312156142c957600080fd5b60006142d78582860161414b565b92505060206142e8858286016141b4565b9150509250929050565b60008060006060848603121561430757600080fd5b60006143158682870161414b565b9350506020614326868287016141b4565b9250506040614337868287016141b4565b9150509250925092565b600080600080600060a0868803121561435957600080fd5b60006143678882890161414b565b9550506020614378888289016141b4565b9450506040614389888289016141b4565b935050606061439a888289016141b4565b92505060806143ab888289016141b4565b9150509295509295909350565b600080604083850312156143cb57600080fd5b600083013567ffffffffffffffff8111156143e557600080fd5b6143f18582860161418a565b925050602083013567ffffffffffffffff81111561440e57600080fd5b61441a8582860161418a565b9150509250929050565b60008060006060848603121561443957600080fd5b600084013567ffffffffffffffff81111561445357600080fd5b61445f8682870161418a565b935050602084013567ffffffffffffffff81111561447c57600080fd5b6144888682870161418a565b925050604084013567ffffffffffffffff8111156144a557600080fd5b6144b186828701614160565b9150509250925092565b6000602082840312156144cd57600080fd5b60006144db848285016141b4565b91505092915050565b6000602082840312156144f657600080fd5b6000614504848285016141c9565b91505092915050565b60006145198383614a5a565b905092915050565b600061452d8383614ba0565b905092915050565b60006145418383614bf7565b6101408301905092915050565b614557816157e4565b82525050565b61456681615782565b82525050565b61457581615782565b82525050565b61458481615770565b82525050565b61459381615770565b82525050565b60006145a48261563e565b6145ae8185615691565b9350836020820285016145c08561560e565b8060005b858110156145fc57848403895281516145dd858261450d565b94506145e88361566a565b925060208a019950506001810190506145c4565b50829750879550505050505092915050565b600061461982615649565b61462381856156a2565b9350836020820285016146358561561e565b8060005b8581101561467157848403895281516146528582614521565b945061465d83615677565b925060208a01995050600181019050614639565b50829750879550505050505092915050565b600061468e82615654565b61469881856156b3565b93506146a38361562e565b8060005b838110156146d45781516146bb8882614535565b97506146c683615684565b9250506001810190506146a7565b5085935050505092915050565b6146ea816157f6565b82525050565b6146f9816157f6565b82525050565b61470881615808565b82525050565b61471781615808565b82525050565b6147268161581a565b82525050565b60006147378261565f565b61474181856156c4565b935061475181856020860161585f565b61475a81615a24565b840191505092915050565b60006147708261565f565b61477a81856156d5565b935061478a81856020860161585f565b61479381615a24565b840191505092915050565b60006147ab600f836156d5565b91506147b682615a35565b602082019050919050565b60006147ce600f836156d5565b91506147d982615a5e565b602082019050919050565b60006147f1600f836156d5565b91506147fc82615a87565b602082019050919050565b6000614814601b836156d5565b915061481f82615ab0565b602082019050919050565b60006148376010836156d5565b915061484282615ad9565b602082019050919050565b600061485a6009836156d5565b915061486582615b02565b602082019050919050565b600061487d600d836156d5565b915061488882615b2b565b602082019050919050565b60006148a0600e836156d5565b91506148ab82615b54565b602082019050919050565b60006148c3600d836156d5565b91506148ce82615b7d565b602082019050919050565b60006148e66014836156d5565b91506148f182615ba6565b602082019050919050565b60006149096010836156d5565b915061491482615bcf565b602082019050919050565b600061492c600e836156d5565b915061493782615bf8565b602082019050919050565b600061494f6010836156d5565b915061495a82615c21565b602082019050919050565b60006149726011836156d5565b915061497d82615c4a565b602082019050919050565b6000614995600d836156d5565b91506149a082615c73565b602082019050919050565b60006149b8600b836156d5565b91506149c382615c9c565b602082019050919050565b60006149db600e836156d5565b91506149e682615cc5565b602082019050919050565b60006149fe601f836156d5565b9150614a0982615cee565b602082019050919050565b6000614a216009836156d5565b9150614a2c82615d17565b602082019050919050565b6000614a44600d836156d5565b9150614a4f82615d40565b602082019050919050565b600060e083016000830151614a726000860182614d8f565b5060208301518482036020860152614a8a828261472c565b9150506040830151614a9f6040860182614d8f565b506060830151614ab260608601826146e1565b5060808301518482036080860152614aca828261472c565b91505060a0830151614adf60a0860182614d8f565b5060c0830151614af260c0860182614d8f565b508091505092915050565b600060e083016000830151614b156000860182614d8f565b5060208301518482036020860152614b2d828261472c565b9150506040830151614b426040860182614d8f565b506060830151614b5560608601826146e1565b5060808301518482036080860152614b6d828261472c565b91505060a0830151614b8260a0860182614d8f565b5060c0830151614b9560c0860182614d8f565b508091505092915050565b6000606083016000830151614bb86000860182614d8f565b5060208301518482036020860152614bd0828261472c565b91505060408301518482036040860152614bea828261472c565b9150508091505092915050565b61014082016000820151614c0e6000850182614d8f565b506020820151614c216020850182614d8f565b506040820151614c34604085018261457b565b506060820151614c47606085018261455d565b506080820151614c5a608085018261455d565b5060a0820151614c6d60a0850182614d8f565b5060c0820151614c8060c0850182614d8f565b5060e0820151614c9360e0850182614d8f565b50610100820151614ca8610100850182614d8f565b50610120820151614cbd6101208501826146ff565b50505050565b61014082016000820151614cda6000850182614d8f565b506020820151614ced6020850182614d8f565b506040820151614d00604085018261457b565b506060820151614d13606085018261455d565b506080820151614d26608085018261455d565b5060a0820151614d3960a0850182614d8f565b5060c0820151614d4c60c0850182614d8f565b5060e0820151614d5f60e0850182614d8f565b50610100820151614d74610100850182614d8f565b50610120820151614d896101208501826146ff565b50505050565b614d98816157da565b82525050565b614da7816157da565b82525050565b6000602082019050614dc2600083018461456c565b92915050565b6000606082019050614ddd600083018661454e565b614dea602083018561458a565b614df76040830184614d9e565b949350505050565b600061010082019050614e15600083018a61458a565b614e22602083018961454e565b614e2f604083018861454e565b614e3c6060830187614d9e565b614e496080830186614d9e565b614e5660a0830185614d9e565b614e6360c083018461470e565b81810360e0830152614e74816148d9565b905098975050505050505050565b600061010082019050614e98600083018a61458a565b614ea5602083018961458a565b614eb2604083018861454e565b614ebf6060830187614d9e565b614ecc6080830186614d9e565b614ed960a0830185614d9e565b614ee660c083018461470e565b81810360e0830152614ef78161479e565b905098975050505050505050565b600061010082019050614f1b600083018a61458a565b614f28602083018961458a565b614f35604083018861454e565b614f426060830187614d9e565b614f4f6080830186614d9e565b614f5c60a0830185614d9e565b614f6960c083018461470e565b81810360e0830152614f7a81614870565b905098975050505050505050565b600061010082019050614f9e600083018a61458a565b614fab602083018961458a565b614fb8604083018861454e565b614fc56060830187614d9e565b614fd26080830186614d9e565b614fdf60a0830185614d9e565b614fec60c083018461470e565b81810360e0830152614ffd81614a37565b905098975050505050505050565b600061010082019050615021600083018a61458a565b61502e602083018961458a565b61503b604083018861458a565b6150486060830187614d9e565b6150556080830186614d9e565b61506260a0830185614d9e565b61506f60c083018461470e565b81810360e0830152615080816148fc565b905098975050505050505050565b60006060820190506150a3600083018661458a565b6150b0602083018561458a565b6150bd6040830184614d9e565b949350505050565b600060a0820190506150da600083018861458a565b6150e7602083018761458a565b6150f46040830186614d9e565b6151016060830185614d9e565b61510e6080830184614d9e565b9695505050505050565b600060208201905081810360008301526151328184614599565b905092915050565b60006020820190508181036000830152615154818461460e565b905092915050565b600060208201905081810360008301526151768184614683565b905092915050565b600060608201905081810360008301526151988185614765565b905081810360208301526151ac8184614765565b905081810360408301526151bf816149ce565b90509392505050565b600060e08201905081810360008301526151e28189614765565b90506151f16020830188614d9e565b6151fe60408301876146f0565b81810360608301526152108186614765565b905061521f608083018561471d565b61522c60a083018461471d565b81810360c083015261523d816148b6565b9050979650505050505050565b60006020820190508181036000830152615263816147c1565b9050919050565b60006020820190508181036000830152615283816147e4565b9050919050565b600060208201905081810360008301526152a381614807565b9050919050565b600060208201905081810360008301526152c38161482a565b9050919050565b600060208201905081810360008301526152e38161484d565b9050919050565b6000602082019050818103600083015261530381614893565b9050919050565b600060208201905081810360008301526153238161491f565b9050919050565b6000602082019050818103600083015261534381614942565b9050919050565b6000602082019050818103600083015261536381614965565b9050919050565b6000602082019050818103600083015261538381614988565b9050919050565b600060208201905081810360008301526153a3816149ab565b9050919050565b600060208201905081810360008301526153c3816149f1565b9050919050565b600060208201905081810360008301526153e381614a14565b9050919050565b600060408201905081810360008301526154048185614afd565b90508181036020830152615418818461460e565b90509392505050565b6000610140820190506154376000830184614cc3565b92915050565b60006020820190506154526000830184614d9e565b92915050565b600060608201905061546d6000830186614d9e565b818103602083015261547f8185614765565b905081810360408301526154938184614765565b9050949350505050565b6000610140820190506154b3600083018d614d9e565b6154c0602083018c614d9e565b6154cd604083018b61458a565b6154da606083018a61456c565b6154e7608083018961456c565b6154f460a0830188614d9e565b61550160c0830187614d9e565b61550e60e0830186614d9e565b61551c610100830185614d9e565b61552a61012083018461470e565b9b9a5050505050505050505050565b600060a08201905061554e6000830188614d9e565b61555b6020830187614d9e565b615568604083018661458a565b6155756060830185614d9e565b6155826080830184614d9e565b9695505050505050565b60006155966155a7565b90506155a282826158ee565b919050565b6000604051905090565b600067ffffffffffffffff8211156155cc576155cb6159f5565b5b602082029050602081019050919050565b600067ffffffffffffffff8211156155f8576155f76159f5565b5b61560182615a24565b9050602081019050919050565b6000819050602082019050919050565b6000819050602082019050919050565b6000819050602082019050919050565b600081519050919050565b600081519050919050565b600081519050919050565b600081519050919050565b6000602082019050919050565b6000602082019050919050565b6000602082019050919050565b600082825260208201905092915050565b600082825260208201905092915050565b600082825260208201905092915050565b600082825260208201905092915050565b600082825260208201905092915050565b60006156f1826157da565b91506156fc836157da565b9250827fffffffffffffffffffffffffffffffffffffffffffffffffffffffffffffffff0382111561573157615730615968565b5b828201905092915050565b6000615747826157da565b9150615752836157da565b92508282101561576557615764615968565b5b828203905092915050565b600061577b826157ba565b9050919050565b600061578d826157ba565b9050919050565b60008190506157a282615d69565b919050565b60008190506157b582615d7d565b919050565b600073ffffffffffffffffffffffffffffffffffffffff82169050919050565b6000819050919050565b60006157ef8261582c565b9050919050565b600061580182615794565b9050919050565b6000615813826157a7565b9050919050565b6000615825826157da565b9050919050565b60006158378261583e565b9050919050565b6000615849826157ba565b9050919050565b82818337600083830152505050565b60005b8381101561587d578082015181840152602081019050615862565b8381111561588c576000848401525b50505050565b600061589d826157da565b915060008214156158b1576158b0615968565b5b600182039050919050565b600060028204905060018216806158d457607f821691505b602082108114156158e8576158e76159c6565b5b50919050565b6158f782615a24565b810181811067ffffffffffffffff82111715615916576159156159f5565b5b80604052505050565b600061592a826157da565b91507fffffffffffffffffffffffffffffffffffffffffffffffffffffffffffffffff82141561595d5761595c615968565b5b600182019050919050565b7f4e487b7100000000000000000000000000000000000000000000000000000000600052601160045260246000fd5b7f4e487b7100000000000000000000000000000000000000000000000000000000600052602160045260246000fd5b7f4e487b7100000000000000000000000000000000000000000000000000000000600052602260045260246000fd5b7f4e487b7100000000000000000000000000000000000000000000000000000000600052604160045260246000fd5b6000601f19601f8301169050919050565b7f756e4c697374204d757369634e46540000000000000000000000000000000000600082015250565b7f496e76616c696420416c62756d49640000000000000000000000000000000000600082015250565b7f696e76616c696420546f6b656e49640000000000000000000000000000000000600082015250565b7f436f756e7465723a2064656372656d656e74206f766572666c6f770000000000600082015250565b7f616c726561647920756e4c697374656400000000000000000000000000000000600082015250565b7f4e6f74204f776e65720000000000000000000000000000000000000000000000600082015250565b7f4c697374204d757369634e465400000000000000000000000000000000000000600082015250565b7f496e737566666963656e74204c50000000000000000000000000000000000000600082015250565b7f4372656174656420416c62756d00000000000000000000000000000000000000600082015250565b7f5472616e73666572726564204d757369634e4654000000000000000000000000600082015250565b7f43726561746564204d757369634e465400000000000000000000000000000000600082015250565b7f616c7265616479204c6973746564000000000000000000000000000000000000600082015250565b7f4974656d73206e6f74204c697374656400000000000000000000000000000000600082015250565b7f496e737566666963656e742066756e6473000000000000000000000000000000600082015250565b7f496e76616c696420546f6b656e00000000000000000000000000000000000000600082015250565b7f496e76616c696420555249000000000000000000000000000000000000000000600082015250565b7f4172746973742043726561746564000000000000000000000000000000000000600082015250565b7f5265656e7472616e637947756172643a207265656e7472616e742063616c6c00600082015250565b7f6e6f74206f776e65720000000000000000000000000000000000000000000000600082015250565b7f536f6c64204d757369634e465400000000000000000000000000000000000000600082015250565b60038110615d7a57615d79615997565b5b50565b60048110615d8e57615d8d615997565b5b50565b615d9a81615770565b8114615da557600080fd5b50565b615db1816157da565b8114615dbc57600080fd5b5056fea26469706673582212208b15ce7f940b1e227bc9a86da728905eb66ecde2ea51521b1ff90bcc18c896b664736f6c63430008040033",
  "linkReferences": {},
  "deployedLinkReferences": {}
}