{
  "_format": "hh-sol-artifact-1",
  "contractName": "MusicMarket",
  "sourceName": "contracts/MusicMarket.sol",
  "abi": [
    {
      "inputs": [],
      "stateMutability": "nonpayable",
      "type": "constructor"
    },
    {
      "anonymous": false,
      "inputs": [
        {
          "indexed": true,
          "internalType": "uint256",
          "name": "albumId",
          "type": "uint256"
        },
        {
          "indexed": false,
          "internalType": "string",
          "name": "albumName",
          "type": "string"
        },
        {
          "indexed": false,
          "internalType": "uint256",
          "name": "createdAt",
          "type": "uint256"
        },
        {
          "indexed": false,
          "internalType": "enum MusicMarket.AlbumStatus",
          "name": "Status",
          "type": "uint8"
        },
        {
          "indexed": false,
          "internalType": "string",
          "name": "coverUrl",
          "type": "string"
        },
        {
          "indexed": false,
          "internalType": "uint256",
          "name": "mintedSongs",
          "type": "uint256"
        },
        {
          "indexed": false,
          "internalType": "uint256",
          "name": "soldSongs",
          "type": "uint256"
        },
        {
          "indexed": false,
          "internalType": "string",
          "name": "message",
          "type": "string"
        }
      ],
      "name": "AlbumEvent",
      "type": "event"
    },
    {
      "anonymous": false,
      "inputs": [
        {
          "indexed": true,
          "internalType": "uint256",
          "name": "artistId",
          "type": "uint256"
        },
        {
          "indexed": false,
          "internalType": "string",
          "name": "artistName",
          "type": "string"
        },
        {
          "indexed": false,
          "internalType": "string",
          "name": "url",
          "type": "string"
        },
        {
          "indexed": false,
          "internalType": "string",
          "name": "message",
          "type": "string"
        }
      ],
      "name": "ArtistEvent",
      "type": "event"
    },
    {
      "anonymous": false,
      "inputs": [
        {
          "indexed": true,
          "internalType": "uint256",
          "name": "auctionId",
          "type": "uint256"
        },
        {
          "indexed": true,
          "internalType": "uint256",
          "name": "tokenId",
          "type": "uint256"
        },
        {
          "indexed": false,
          "internalType": "address",
          "name": "auctionMarket",
          "type": "address"
        },
        {
          "indexed": false,
          "internalType": "address",
          "name": "nftAddress",
          "type": "address"
        },
        {
          "indexed": false,
          "internalType": "uint256",
          "name": "startAt",
          "type": "uint256"
        },
        {
          "indexed": false,
          "internalType": "uint256",
          "name": "endAt",
          "type": "uint256"
        },
        {
          "indexed": false,
          "internalType": "uint256",
          "name": "startBidPrice",
          "type": "uint256"
        }
      ],
      "name": "BidEvent",
      "type": "event"
    },
    {
      "anonymous": false,
      "inputs": [
        {
          "indexed": true,
          "internalType": "uint256",
          "name": "itemId",
          "type": "uint256"
        },
        {
          "indexed": true,
          "internalType": "uint256",
          "name": "tokenId",
          "type": "uint256"
        },
        {
          "indexed": false,
          "internalType": "address",
          "name": "musicContract",
          "type": "address"
        },
        {
          "indexed": false,
          "internalType": "address",
          "name": "owner",
          "type": "address"
        },
        {
          "indexed": false,
          "internalType": "address",
          "name": "seller",
          "type": "address"
        },
        {
          "indexed": false,
          "internalType": "uint256",
          "name": "price",
          "type": "uint256"
        },
        {
          "indexed": true,
          "internalType": "uint256",
          "name": "albumId",
          "type": "uint256"
        },
        {
          "indexed": false,
          "internalType": "uint256",
          "name": "trackNumber",
          "type": "uint256"
        },
        {
          "indexed": false,
          "internalType": "uint256",
          "name": "artistId",
          "type": "uint256"
        },
        {
          "indexed": false,
          "internalType": "enum MusicMarket.SongStatus",
          "name": "status",
          "type": "uint8"
        },
        {
          "indexed": false,
          "internalType": "string",
          "name": "message",
          "type": "string"
        }
      ],
      "name": "SongEvent",
      "type": "event"
    },
    {
      "inputs": [
        {
          "internalType": "address",
          "name": "musicContract",
          "type": "address"
        },
        {
          "internalType": "uint256",
          "name": "tokenId",
          "type": "uint256"
        }
      ],
      "name": "BuySong",
      "outputs": [],
      "stateMutability": "payable",
      "type": "function"
    },
    {
      "inputs": [
        {
          "internalType": "address",
          "name": "musicContract",
          "type": "address"
        },
        {
          "internalType": "uint256",
          "name": "itemId",
          "type": "uint256"
        }
      ],
      "name": "CancelItem",
      "outputs": [],
      "stateMutability": "payable",
      "type": "function"
    },
    {
      "inputs": [
        {
          "internalType": "uint256",
          "name": "",
          "type": "uint256"
        }
      ],
      "name": "artists",
      "outputs": [
        {
          "internalType": "uint256",
          "name": "id",
          "type": "uint256"
        },
        {
          "internalType": "string",
          "name": "artistName",
          "type": "string"
        },
        {
          "internalType": "string",
          "name": "url",
          "type": "string"
        }
      ],
      "stateMutability": "view",
      "type": "function"
    },
    {
      "inputs": [
        {
          "internalType": "string",
          "name": "albumName",
          "type": "string"
        },
        {
          "internalType": "string",
          "name": "uri",
          "type": "string"
        },
        {
          "internalType": "uint256[]",
          "name": "_artists",
          "type": "uint256[]"
        }
      ],
      "name": "createAlbum",
      "outputs": [],
      "stateMutability": "nonpayable",
      "type": "function"
    },
    {
      "inputs": [
        {
          "internalType": "string",
          "name": "artistName",
          "type": "string"
        },
        {
          "internalType": "string",
          "name": "uri",
          "type": "string"
        }
      ],
      "name": "createArtist",
      "outputs": [],
      "stateMutability": "nonpayable",
      "type": "function"
    },
    {
      "inputs": [
        {
          "internalType": "address",
          "name": "auctionMarket",
          "type": "address"
        },
        {
          "internalType": "address",
          "name": "nftAddress",
          "type": "address"
        },
        {
          "internalType": "uint256",
          "name": "startAt",
          "type": "uint256"
        },
        {
          "internalType": "uint256",
          "name": "endAt",
          "type": "uint256"
        },
        {
          "internalType": "uint256",
          "name": "startBidPrice",
          "type": "uint256"
        },
        {
          "internalType": "uint256",
          "name": "tokenId",
          "type": "uint256"
        }
      ],
      "name": "createAuction",
      "outputs": [],
      "stateMutability": "nonpayable",
      "type": "function"
    },
    {
      "inputs": [
        {
          "internalType": "address",
          "name": "musicContract",
          "type": "address"
        },
        {
          "internalType": "uint256",
          "name": "tokenId",
          "type": "uint256"
        },
        {
          "internalType": "uint256",
          "name": "albumId",
          "type": "uint256"
        },
        {
          "internalType": "uint256",
          "name": "artistId",
          "type": "uint256"
        },
        {
          "internalType": "uint256",
          "name": "price",
          "type": "uint256"
        }
      ],
      "name": "createSong",
      "outputs": [],
      "stateMutability": "nonpayable",
      "type": "function"
    },
    {
      "inputs": [
        {
          "internalType": "address",
          "name": "musicContract",
          "type": "address"
        },
        {
          "internalType": "uint256",
          "name": "itemId",
          "type": "uint256"
        }
      ],
      "name": "createSongSale",
      "outputs": [],
      "stateMutability": "payable",
      "type": "function"
    },
    {
      "inputs": [
        {
          "internalType": "uint256",
          "name": "limit",
          "type": "uint256"
        }
      ],
      "name": "fetchMyMusicNFTs",
      "outputs": [
        {
          "components": [
            {
              "internalType": "uint256",
              "name": "itemId",
              "type": "uint256"
            },
            {
              "internalType": "uint256",
              "name": "tokenId",
              "type": "uint256"
            },
            {
              "internalType": "address",
              "name": "musicContract",
              "type": "address"
            },
            {
              "internalType": "address payable",
              "name": "owner",
              "type": "address"
            },
            {
              "internalType": "address payable",
              "name": "seller",
              "type": "address"
            },
            {
              "internalType": "uint256",
              "name": "price",
              "type": "uint256"
            },
            {
              "internalType": "uint256",
              "name": "albumId",
              "type": "uint256"
            },
            {
              "internalType": "uint256",
              "name": "trackNumber",
              "type": "uint256"
            },
            {
              "internalType": "uint256",
              "name": "artistId",
              "type": "uint256"
            },
            {
              "internalType": "enum MusicMarket.SongStatus",
              "name": "status",
              "type": "uint8"
            }
          ],
          "internalType": "struct MusicMarket.Song[]",
          "name": "",
          "type": "tuple[]"
        }
      ],
      "stateMutability": "view",
      "type": "function"
    },
    {
      "inputs": [
        {
          "internalType": "uint256",
          "name": "albumId",
          "type": "uint256"
        }
      ],
      "name": "getAlbum",
      "outputs": [
        {
          "components": [
            {
              "internalType": "uint256",
              "name": "id",
              "type": "uint256"
            },
            {
              "internalType": "string",
              "name": "albumName",
              "type": "string"
            },
            {
              "internalType": "uint256",
              "name": "createdAt",
              "type": "uint256"
            },
            {
              "internalType": "enum MusicMarket.AlbumStatus",
              "name": "Status",
              "type": "uint8"
            },
            {
              "internalType": "string",
              "name": "coverUrl",
              "type": "string"
            },
            {
              "internalType": "uint256",
              "name": "mintedSongs",
              "type": "uint256"
            },
            {
              "internalType": "uint256",
              "name": "soldSongs",
              "type": "uint256"
            }
          ],
          "internalType": "struct MusicMarket.Album",
          "name": "_album",
          "type": "tuple"
        },
        {
          "components": [
            {
              "internalType": "uint256",
              "name": "id",
              "type": "uint256"
            },
            {
              "internalType": "string",
              "name": "artistName",
              "type": "string"
            },
            {
              "internalType": "string",
              "name": "url",
              "type": "string"
            }
          ],
          "internalType": "struct MusicMarket.Artist[]",
          "name": "_artists",
          "type": "tuple[]"
        }
      ],
      "stateMutability": "view",
      "type": "function"
    },
    {
      "inputs": [],
      "name": "getAlbums",
      "outputs": [
        {
          "components": [
            {
              "internalType": "uint256",
              "name": "id",
              "type": "uint256"
            },
            {
              "internalType": "string",
              "name": "albumName",
              "type": "string"
            },
            {
              "internalType": "uint256",
              "name": "createdAt",
              "type": "uint256"
            },
            {
              "internalType": "enum MusicMarket.AlbumStatus",
              "name": "Status",
              "type": "uint8"
            },
            {
              "internalType": "string",
              "name": "coverUrl",
              "type": "string"
            },
            {
              "internalType": "uint256",
              "name": "mintedSongs",
              "type": "uint256"
            },
            {
              "internalType": "uint256",
              "name": "soldSongs",
              "type": "uint256"
            }
          ],
          "internalType": "struct MusicMarket.Album[]",
          "name": "data",
          "type": "tuple[]"
        }
      ],
      "stateMutability": "view",
      "type": "function"
    },
    {
      "inputs": [],
      "name": "getArtists",
      "outputs": [
        {
          "components": [
            {
              "internalType": "uint256",
              "name": "id",
              "type": "uint256"
            },
            {
              "internalType": "string",
              "name": "artistName",
              "type": "string"
            },
            {
              "internalType": "string",
              "name": "url",
              "type": "string"
            }
          ],
          "internalType": "struct MusicMarket.Artist[]",
          "name": "data",
          "type": "tuple[]"
        }
      ],
      "stateMutability": "view",
      "type": "function"
    },
    {
      "inputs": [
        {
          "internalType": "uint256",
          "name": "tokenId",
          "type": "uint256"
        }
      ],
      "name": "getItemByTokenId",
      "outputs": [
        {
          "components": [
            {
              "internalType": "uint256",
              "name": "itemId",
              "type": "uint256"
            },
            {
              "internalType": "uint256",
              "name": "tokenId",
              "type": "uint256"
            },
            {
              "internalType": "address",
              "name": "musicContract",
              "type": "address"
            },
            {
              "internalType": "address payable",
              "name": "owner",
              "type": "address"
            },
            {
              "internalType": "address payable",
              "name": "seller",
              "type": "address"
            },
            {
              "internalType": "uint256",
              "name": "price",
              "type": "uint256"
            },
            {
              "internalType": "uint256",
              "name": "albumId",
              "type": "uint256"
            },
            {
              "internalType": "uint256",
              "name": "trackNumber",
              "type": "uint256"
            },
            {
              "internalType": "uint256",
              "name": "artistId",
              "type": "uint256"
            },
            {
              "internalType": "enum MusicMarket.SongStatus",
              "name": "status",
              "type": "uint8"
            }
          ],
          "internalType": "struct MusicMarket.Song",
          "name": "item",
          "type": "tuple"
        }
      ],
      "stateMutability": "view",
      "type": "function"
    },
    {
      "inputs": [
        {
          "internalType": "uint256",
          "name": "limit",
          "type": "uint256"
        }
      ],
      "name": "getLastMinted",
      "outputs": [
        {
          "components": [
            {
              "internalType": "uint256",
              "name": "itemId",
              "type": "uint256"
            },
            {
              "internalType": "uint256",
              "name": "tokenId",
              "type": "uint256"
            },
            {
              "internalType": "address",
              "name": "musicContract",
              "type": "address"
            },
            {
              "internalType": "address payable",
              "name": "owner",
              "type": "address"
            },
            {
              "internalType": "address payable",
              "name": "seller",
              "type": "address"
            },
            {
              "internalType": "uint256",
              "name": "price",
              "type": "uint256"
            },
            {
              "internalType": "uint256",
              "name": "albumId",
              "type": "uint256"
            },
            {
              "internalType": "uint256",
              "name": "trackNumber",
              "type": "uint256"
            },
            {
              "internalType": "uint256",
              "name": "artistId",
              "type": "uint256"
            },
            {
              "internalType": "enum MusicMarket.SongStatus",
              "name": "status",
              "type": "uint8"
            }
          ],
          "internalType": "struct MusicMarket.Song[]",
          "name": "",
          "type": "tuple[]"
        }
      ],
      "stateMutability": "view",
      "type": "function"
    },
    {
      "inputs": [
        {
          "internalType": "uint256",
          "name": "limit",
          "type": "uint256"
        }
      ],
      "name": "getSongs",
      "outputs": [
        {
          "components": [
            {
              "internalType": "uint256",
              "name": "itemId",
              "type": "uint256"
            },
            {
              "internalType": "uint256",
              "name": "tokenId",
              "type": "uint256"
            },
            {
              "internalType": "address",
              "name": "musicContract",
              "type": "address"
            },
            {
              "internalType": "address payable",
              "name": "owner",
              "type": "address"
            },
            {
              "internalType": "address payable",
              "name": "seller",
              "type": "address"
            },
            {
              "internalType": "uint256",
              "name": "price",
              "type": "uint256"
            },
            {
              "internalType": "uint256",
              "name": "albumId",
              "type": "uint256"
            },
            {
              "internalType": "uint256",
              "name": "trackNumber",
              "type": "uint256"
            },
            {
              "internalType": "uint256",
              "name": "artistId",
              "type": "uint256"
            },
            {
              "internalType": "enum MusicMarket.SongStatus",
              "name": "status",
              "type": "uint8"
            }
          ],
          "internalType": "struct MusicMarket.Song[]",
          "name": "",
          "type": "tuple[]"
        }
      ],
      "stateMutability": "view",
      "type": "function"
    },
    {
      "inputs": [
        {
          "internalType": "uint256",
          "name": "",
          "type": "uint256"
        }
      ],
      "name": "itemIdToSong",
      "outputs": [
        {
          "internalType": "uint256",
          "name": "itemId",
          "type": "uint256"
        },
        {
          "internalType": "uint256",
          "name": "tokenId",
          "type": "uint256"
        },
        {
          "internalType": "address",
          "name": "musicContract",
          "type": "address"
        },
        {
          "internalType": "address payable",
          "name": "owner",
          "type": "address"
        },
        {
          "internalType": "address payable",
          "name": "seller",
          "type": "address"
        },
        {
          "internalType": "uint256",
          "name": "price",
          "type": "uint256"
        },
        {
          "internalType": "uint256",
          "name": "albumId",
          "type": "uint256"
        },
        {
          "internalType": "uint256",
          "name": "trackNumber",
          "type": "uint256"
        },
        {
          "internalType": "uint256",
          "name": "artistId",
          "type": "uint256"
        },
        {
          "internalType": "enum MusicMarket.SongStatus",
          "name": "status",
          "type": "uint8"
        }
      ],
      "stateMutability": "view",
      "type": "function"
    },
    {
      "inputs": [
        {
          "internalType": "address",
          "name": "musicContract",
          "type": "address"
        },
        {
          "internalType": "uint256",
          "name": "itemId",
          "type": "uint256"
        },
        {
          "internalType": "uint256",
          "name": "price",
          "type": "uint256"
        }
      ],
      "name": "listItem",
      "outputs": [],
      "stateMutability": "payable",
      "type": "function"
    },
    {
      "inputs": [],
      "name": "listingPrice",
      "outputs": [
        {
          "internalType": "uint256",
          "name": "",
          "type": "uint256"
        }
      ],
      "stateMutability": "view",
      "type": "function"
    },
    {
      "inputs": [
        {
          "internalType": "address",
          "name": "nftAddress",
          "type": "address"
        },
        {
          "internalType": "address",
          "name": "to",
          "type": "address"
        },
        {
          "internalType": "uint256",
          "name": "tokenId",
          "type": "uint256"
        }
      ],
      "name": "musicTransfer",
      "outputs": [],
      "stateMutability": "nonpayable",
      "type": "function"
    },
    {
      "inputs": [],
      "name": "owner",
      "outputs": [
        {
          "internalType": "address payable",
          "name": "",
          "type": "address"
        }
      ],
      "stateMutability": "view",
      "type": "function"
    },
    {
      "inputs": [
        {
          "internalType": "uint256",
          "name": "price",
          "type": "uint256"
        }
      ],
      "name": "setListingPrice",
      "outputs": [],
      "stateMutability": "nonpayable",
      "type": "function"
    },
    {
      "inputs": [],
      "name": "withdraw",
      "outputs": [],
      "stateMutability": "nonpayable",
      "type": "function"
    }
  ],
  "bytecode": "0x60806040526658d15e1762800060085534801561001b57600080fd5b50600160008190555033600660006101000a81548173ffffffffffffffffffffffffffffffffffffffff021916908373ffffffffffffffffffffffffffffffffffffffff160217905550615e6680620000756000396000f3fe6080604052600436106101355760003560e01c806389bfd38f116100ab578063cd7e10c11161006f578063cd7e10c1146103da578063d4cd0d4514610419578063d69e63bd14610444578063d6e465c91461046d578063db692710146104ab578063fb0cf2cc146104f157610135565b806389bfd38f1461030f5780638da5cb5b1461032b5780639de46d0914610356578063b520fa8f14610372578063c78f19f9146103af57610135565b8063566d0d86116100fd578063566d0d86146101ef5780635c517234146102185780635e4d1cc41461024357806367dfda7814610280578063750bf75e146102a95780637c726b69146102e657610135565b806312b3d2c11461013a578063134bf711146101635780631f6035be1461017f57806320c6b3b61461019b5780633ccfd60b146101d8575b600080fd5b34801561014657600080fd5b50610161600480360381019061015c919061429e565b61051a565b005b61017d60048036038101906101789190614327565b61070f565b005b61019960048036038101906101949190614327565b6109b7565b005b3480156101a757600080fd5b506101c260048036038101906101bd919061452c565b610be2565b6040516101cf91906151cd565b60405180910390f35b3480156101e457600080fd5b506101ed610fde565b005b3480156101fb57600080fd5b506102166004803603810190610211919061424f565b61110a565b005b34801561022457600080fd5b5061022d611386565b60405161023a9190615189565b60405180910390f35b34801561024f57600080fd5b5061026a6004803603810190610265919061452c565b611674565b60405161027791906151cd565b60405180910390f35b34801561028c57600080fd5b506102a760048036038101906102a29190614495565b611a59565b005b3480156102b557600080fd5b506102d060048036038101906102cb919061452c565b611d03565b6040516102dd91906151cd565b60405180910390f35b3480156102f257600080fd5b5061030d6004803603810190610308919061452c565b6121db565b005b61032960048036038101906103249190614363565b612275565b005b34801561033757600080fd5b5061034061252e565b60405161034d9190614e1e565b60405180910390f35b610370600480360381019061036b9190614327565b612554565b005b34801561037e57600080fd5b506103996004803603810190610394919061452c565b612bca565b6040516103a69190615492565b60405180910390f35b3480156103bb57600080fd5b506103c4612e63565b6040516103d191906154ae565b60405180910390f35b3480156103e657600080fd5b5061040160048036038101906103fc919061452c565b612e69565b604051610410939291906154c9565b60405180910390f35b34801561042557600080fd5b5061042e612fa3565b60405161043b91906151ab565b60405180910390f35b34801561045057600080fd5b5061046b600480360381019061046691906143b2565b6131ec565b005b34801561047957600080fd5b50610494600480360381019061048f919061452c565b6136d7565b6040516104a292919061545b565b60405180910390f35b3480156104b757600080fd5b506104d260048036038101906104cd919061452c565b613bd1565b6040516104e89a9998979695949392919061550e565b60405180910390f35b3480156104fd57600080fd5b5061051860048036038101906105139190614429565b613c92565b005b60006009600061052984612bca565b60000151815260200190815260200160002090508060030160009054906101000a900473ffffffffffffffffffffffffffffffffffffffff1673ffffffffffffffffffffffffffffffffffffffff163373ffffffffffffffffffffffffffffffffffffffff16146105cf576040517f08c379a00000000000000000000000000000000000000000000000000000000081526004016105c69061533b565b60405180910390fd5b6105da86888461110a565b60028160090160006101000a81548160ff02191690836003811115610628577f4e487b7100000000000000000000000000000000000000000000000000000000600052602160045260246000fd5b021790555060008773ffffffffffffffffffffffffffffffffffffffff1663627501b887873388886040518663ffffffff1660e01b81526004016106709594939291906155aa565b602060405180830381600087803b15801561068a57600080fd5b505af115801561069e573d6000803e3d6000fd5b505050506040513d601f19601f820116820180604052508101906106c29190614555565b905082817f4c66969ad62b3cbc69059b4992a1cef97838145189000a4f9f7f955a4320f9938a8a8a8a8a6040516106fd959493929190615136565b60405180910390a35050505050505050565b60026000541415610755576040517f08c379a000000000000000000000000000000000000000000000000000000000815260040161074c9061541b565b60405180910390fd5b600260008190555060006009600083815260200190815260200160002090506000816001015490508160030160009054906101000a900473ffffffffffffffffffffffffffffffffffffffff1673ffffffffffffffffffffffffffffffffffffffff163373ffffffffffffffffffffffffffffffffffffffff161461080f576040517f08c379a00000000000000000000000000000000000000000000000000000000081526004016108069061543b565b60405180910390fd5b60006003811115610849577f4e487b7100000000000000000000000000000000000000000000000000000000600052602160045260246000fd5b8260090160009054906101000a900460ff166003811115610893577f4e487b7100000000000000000000000000000000000000000000000000000000600052602160045260246000fd5b146108d3576040517f08c379a00000000000000000000000000000000000000000000000000000000081526004016108ca9061531b565b60405180910390fd5b60018260090160006101000a81548160ff02191690836003811115610921577f4e487b7100000000000000000000000000000000000000000000000000000000600052602160045260246000fd5b02179055506109306005613e3f565b816006015481847fb6a6e5a1d1cba81612d627d3d366515af9bc54786897c5bb629f44b2ca1949bc8733600660009054906101000a900473ffffffffffffffffffffffffffffffffffffffff16886005015489600701548a6008015460006040516109a19796959493929190614ef3565b60405180910390a4505060016000819055505050565b600260005414156109fd576040517f08c379a00000000000000000000000000000000000000000000000000000000081526004016109f49061541b565b60405180910390fd5b60026000819055506000610a1082612bca565b905060006003811115610a4c577f4e487b7100000000000000000000000000000000000000000000000000000000600052602160045260246000fd5b8161012001516003811115610a8a577f4e487b7100000000000000000000000000000000000000000000000000000000600052602160045260246000fd5b14610aca576040517f08c379a0000000000000000000000000000000000000000000000000000000008152600401610ac19061539b565b60405180910390fd5b8060a00151341015610b11576040517f08c379a0000000000000000000000000000000000000000000000000000000008152600401610b08906153bb565b60405180910390fd5b610b1c83338461110a565b610b266005613e3f565b806060015173ffffffffffffffffffffffffffffffffffffffff166108fc8260a001519081150290604051600060405180830381858888f19350505050158015610b74573d6000803e3d6000fd5b508060c001518282600001517fb6a6e5a1d1cba81612d627d3d366515af9bc54786897c5bb629f44b2ca1949bc863386606001518760a001518861010001518960e001516001604051610bcd9796959493929190614ff9565b60405180910390a45060016000819055505050565b60606000610bf06002613e9b565b610bfa6005613e9b565b610c046001613e9b565b610c0e9190615757565b610c1891906157ad565b9050600080828510610c2a5782610c2c565b845b905060008167ffffffffffffffff811115610c70577f4e487b7100000000000000000000000000000000000000000000000000000000600052604160045260246000fd5b604051908082528060200260200182016040528015610ca957816020015b610c96613ebf565b815260200190600190039081610c8e5790505b50905060005b610cb96001613e9b565b811015610fd15782841415610ccd57610fd1565b60006003811115610d07577f4e487b7100000000000000000000000000000000000000000000000000000000600052602160045260246000fd5b60096000600184610d189190615757565b815260200190815260200160002060090160009054906101000a900460ff166003811115610d6f577f4e487b7100000000000000000000000000000000000000000000000000000000600052602160045260246000fd5b1415610fbe57600060096000600184610d889190615757565b81526020019081526020016000206040518061014001604052908160008201548152602001600182015481526020016002820160009054906101000a900473ffffffffffffffffffffffffffffffffffffffff1673ffffffffffffffffffffffffffffffffffffffff1673ffffffffffffffffffffffffffffffffffffffff1681526020016003820160009054906101000a900473ffffffffffffffffffffffffffffffffffffffff1673ffffffffffffffffffffffffffffffffffffffff1673ffffffffffffffffffffffffffffffffffffffff1681526020016004820160009054906101000a900473ffffffffffffffffffffffffffffffffffffffff1673ffffffffffffffffffffffffffffffffffffffff1673ffffffffffffffffffffffffffffffffffffffff168152602001600582015481526020016006820154815260200160078201548152602001600882015481526020016009820160009054906101000a900460ff166003811115610f2b577f4e487b7100000000000000000000000000000000000000000000000000000000600052602160045260246000fd5b6003811115610f63577f4e487b7100000000000000000000000000000000000000000000000000000000600052602160045260246000fd5b81525050905080838681518110610fa3577f4e487b7100000000000000000000000000000000000000000000000000000000600052603260045260246000fd5b60200260200101819052508480610fb990615990565b955050505b8080610fc990615990565b915050610caf565b5080945050505050919050565b3373ffffffffffffffffffffffffffffffffffffffff16600660009054906101000a900473ffffffffffffffffffffffffffffffffffffffff1673ffffffffffffffffffffffffffffffffffffffff161461106e576040517f08c379a00000000000000000000000000000000000000000000000000000000081526004016110659061543b565b60405180910390fd5b6000600660009054906101000a900473ffffffffffffffffffffffffffffffffffffffff1673ffffffffffffffffffffffffffffffffffffffff166108fc6007549081150290604051600060405180830381858888f193505050509050600060078190555080611107577f4e487b7100000000000000000000000000000000000000000000000000000000600052600160045260246000fd5b50565b60006009600061111984612bca565b60000151815260200190815260200160002090508060030160009054906101000a900473ffffffffffffffffffffffffffffffffffffffff1673ffffffffffffffffffffffffffffffffffffffff163373ffffffffffffffffffffffffffffffffffffffff161461118957600080fd5b8373ffffffffffffffffffffffffffffffffffffffff166323b872dd8260030160009054906101000a900473ffffffffffffffffffffffffffffffffffffffff1685856040518463ffffffff1660e01b81526004016111ea93929190614e39565b600060405180830381600087803b15801561120457600080fd5b505af1158015611218573d6000803e3d6000fd5b50505050600d60008260030160009054906101000a900473ffffffffffffffffffffffffffffffffffffffff1673ffffffffffffffffffffffffffffffffffffffff1673ffffffffffffffffffffffffffffffffffffffff168152602001908152602001600020600081548092919061129090615903565b9190505550600d60008473ffffffffffffffffffffffffffffffffffffffff1673ffffffffffffffffffffffffffffffffffffffff16815260200190815260200160002060008154809291906112e590615990565b919050555060018160090160006101000a81548160ff02191690836003811115611338577f4e487b7100000000000000000000000000000000000000000000000000000000600052602160045260246000fd5b0217905550828160030160006101000a81548173ffffffffffffffffffffffffffffffffffffffff021916908373ffffffffffffffffffffffffffffffffffffffff16021790555050505050565b60606113926004613e9b565b67ffffffffffffffff8111156113d1577f4e487b7100000000000000000000000000000000000000000000000000000000600052604160045260246000fd5b60405190808252806020026020018201604052801561140a57816020015b6113f7613f8c565b8152602001906001900390816113ef5790505b5090506000600190505b8151811161167057600b60008281526020019081526020016000206040518060e0016040529081600082015481526020016001820180546114549061592d565b80601f01602080910402602001604051908101604052809291908181526020018280546114809061592d565b80156114cd5780601f106114a2576101008083540402835291602001916114cd565b820191906000526020600020905b8154815290600101906020018083116114b057829003601f168201915b50505050508152602001600282015481526020016003820160009054906101000a900460ff16600281111561152b577f4e487b7100000000000000000000000000000000000000000000000000000000600052602160045260246000fd5b6002811115611563577f4e487b7100000000000000000000000000000000000000000000000000000000600052602160045260246000fd5b81526020016004820180546115779061592d565b80601f01602080910402602001604051908101604052809291908181526020018280546115a39061592d565b80156115f05780601f106115c5576101008083540402835291602001916115f0565b820191906000526020600020905b8154815290600101906020018083116115d357829003601f168201915b50505050508152602001600582015481526020016006820154815250508260018361161b91906157ad565b81518110611652577f4e487b7100000000000000000000000000000000000000000000000000000000600052603260045260246000fd5b6020026020010181905250808061166890615990565b915050611414565b5090565b606060006116826001613e9b565b905060006116906002613e9b565b61169a6005613e9b565b836116a59190615757565b6116af91906157ad565b90506000808286106116c157826116c3565b855b905060008167ffffffffffffffff811115611707577f4e487b7100000000000000000000000000000000000000000000000000000000600052604160045260246000fd5b60405190808252806020026020018201604052801561174057816020015b61172d613ebf565b8152602001906001900390816117255790505b50905060008590505b6000811115611a4b578284141561175f57611a4b565b60006003811115611799577f4e487b7100000000000000000000000000000000000000000000000000000000600052602160045260246000fd5b6009600083815260200190815260200160002060090160009054906101000a900460ff1660038111156117f5577f4e487b7100000000000000000000000000000000000000000000000000000000600052602160045260246000fd5b1415611a38576000600960008381526020019081526020016000206040518061014001604052908160008201548152602001600182015481526020016002820160009054906101000a900473ffffffffffffffffffffffffffffffffffffffff1673ffffffffffffffffffffffffffffffffffffffff1673ffffffffffffffffffffffffffffffffffffffff1681526020016003820160009054906101000a900473ffffffffffffffffffffffffffffffffffffffff1673ffffffffffffffffffffffffffffffffffffffff1673ffffffffffffffffffffffffffffffffffffffff1681526020016004820160009054906101000a900473ffffffffffffffffffffffffffffffffffffffff1673ffffffffffffffffffffffffffffffffffffffff1673ffffffffffffffffffffffffffffffffffffffff168152602001600582015481526020016006820154815260200160078201548152602001600882015481526020016009820160009054906101000a900460ff1660038111156119a5577f4e487b7100000000000000000000000000000000000000000000000000000000600052602160045260246000fd5b60038111156119dd577f4e487b7100000000000000000000000000000000000000000000000000000000600052602160045260246000fd5b81525050905080838681518110611a1d577f4e487b7100000000000000000000000000000000000000000000000000000000600052603260045260246000fd5b60200260200101819052508480611a3390615990565b955050505b8080611a4390615903565b915050611749565b508095505050505050919050565b3373ffffffffffffffffffffffffffffffffffffffff16600660009054906101000a900473ffffffffffffffffffffffffffffffffffffffff1673ffffffffffffffffffffffffffffffffffffffff1614611ae9576040517f08c379a0000000000000000000000000000000000000000000000000000000008152600401611ae09061543b565b60405180910390fd5b600082511415611b2e576040517f08c379a0000000000000000000000000000000000000000000000000000000008152600401611b25906153fb565b60405180910390fd5b600081511415611b3d57600080fd5b611b476004613ea9565b6000611b536004613e9b565b90506040518060e0016040528082815260200185815260200142815260200160006002811115611bac577f4e487b7100000000000000000000000000000000000000000000000000000000600052602160045260246000fd5b8152602001848152602001600081526020016000815250600b6000838152602001908152602001600020600082015181600001556020820151816001019080519060200190611bfc929190614001565b506040820151816002015560608201518160030160006101000a81548160ff02191690836002811115611c58577f4e487b7100000000000000000000000000000000000000000000000000000000600052602160045260246000fd5b02179055506080820151816004019080519060200190611c79929190614001565b5060a0820151816005015560c0820151816006015590505081600c60008381526020019081526020016000209080519060200190611cb8929190614087565b50807f4ad0e5615b1c242c0e644cb5b2255aa337a06268781317cdc14d09d1a51eb1678542600087600080604051611cf596959493929190615239565b60405180910390a250505050565b6060600080600d60003373ffffffffffffffffffffffffffffffffffffffff1673ffffffffffffffffffffffffffffffffffffffff168152602001908152602001600020541415611dd157600067ffffffffffffffff811115611d8f577f4e487b7100000000000000000000000000000000000000000000000000000000600052604160045260246000fd5b604051908082528060200260200182016040528015611dc857816020015b611db5613ebf565b815260200190600190039081611dad5790505b509150506121d6565b6000600d60003373ffffffffffffffffffffffffffffffffffffffff1673ffffffffffffffffffffffffffffffffffffffff168152602001908152602001600020548410611e5e57600d60003373ffffffffffffffffffffffffffffffffffffffff1673ffffffffffffffffffffffffffffffffffffffff16815260200190815260200160002054611e60565b835b905060008167ffffffffffffffff811115611ea4577f4e487b7100000000000000000000000000000000000000000000000000000000600052604160045260246000fd5b604051908082528060200260200182016040528015611edd57816020015b611eca613ebf565b815260200190600190039081611ec25790505b50905060005b611eed6001613e9b565b8110156121ce5782841415611f01576121ce565b3373ffffffffffffffffffffffffffffffffffffffff1660096000600184611f299190615757565b815260200190815260200160002060030160009054906101000a900473ffffffffffffffffffffffffffffffffffffffff1673ffffffffffffffffffffffffffffffffffffffff1614156121bb5760096000600183611f889190615757565b81526020019081526020016000206040518061014001604052908160008201548152602001600182015481526020016002820160009054906101000a900473ffffffffffffffffffffffffffffffffffffffff1673ffffffffffffffffffffffffffffffffffffffff1673ffffffffffffffffffffffffffffffffffffffff1681526020016003820160009054906101000a900473ffffffffffffffffffffffffffffffffffffffff1673ffffffffffffffffffffffffffffffffffffffff1673ffffffffffffffffffffffffffffffffffffffff1681526020016004820160009054906101000a900473ffffffffffffffffffffffffffffffffffffffff1673ffffffffffffffffffffffffffffffffffffffff1673ffffffffffffffffffffffffffffffffffffffff168152602001600582015481526020016006820154815260200160078201548152602001600882015481526020016009820160009054906101000a900460ff16600381111561212b577f4e487b7100000000000000000000000000000000000000000000000000000000600052602160045260246000fd5b6003811115612163577f4e487b7100000000000000000000000000000000000000000000000000000000600052602160045260246000fd5b815250508285815181106121a0577f4e487b7100000000000000000000000000000000000000000000000000000000600052603260045260246000fd5b60200260200101819052506001846121b89190615757565b93505b80806121c690615990565b915050611ee3565b508093505050505b919050565b3373ffffffffffffffffffffffffffffffffffffffff16600660009054906101000a900473ffffffffffffffffffffffffffffffffffffffff1673ffffffffffffffffffffffffffffffffffffffff161461226b576040517f08c379a00000000000000000000000000000000000000000000000000000000081526004016122629061543b565b60405180910390fd5b8060088190555050565b60006009600084815260200190815260200160002090506000816001015490508160030160009054906101000a900473ffffffffffffffffffffffffffffffffffffffff1673ffffffffffffffffffffffffffffffffffffffff163373ffffffffffffffffffffffffffffffffffffffff1614612327576040517f08c379a000000000000000000000000000000000000000000000000000000000815260040161231e9061543b565b60405180910390fd5b60006003811115612361577f4e487b7100000000000000000000000000000000000000000000000000000000600052602160045260246000fd5b8260090160009054906101000a900460ff1660038111156123ab577f4e487b7100000000000000000000000000000000000000000000000000000000600052602160045260246000fd5b14156123ec576040517f08c379a00000000000000000000000000000000000000000000000000000000081526004016123e39061537b565b60405180910390fd5b600854341015612431576040517f08c379a00000000000000000000000000000000000000000000000000000000081526004016124289061535b565b60405180910390fd5b82826005018190555060008260090160006101000a81548160ff02191690836003811115612488577f4e487b7100000000000000000000000000000000000000000000000000000000600052602160045260246000fd5b0217905550600854600760008282546124a19190615757565b925050819055506124b26005613ea9565b816006015481857fb6a6e5a1d1cba81612d627d3d366515af9bc54786897c5bb629f44b2ca1949bc8833600660009054906101000a900473ffffffffffffffffffffffffffffffffffffffff168989600701548a60080154600060405161251f9796959493929190614f76565b60405180910390a45050505050565b600660009054906101000a900473ffffffffffffffffffffffffffffffffffffffff1681565b6002600054141561259a576040517f08c379a00000000000000000000000000000000000000000000000000000000081526004016125919061541b565b60405180910390fd5b60026000819055506000600960008381526020019081526020016000206040518061014001604052908160008201548152602001600182015481526020016002820160009054906101000a900473ffffffffffffffffffffffffffffffffffffffff1673ffffffffffffffffffffffffffffffffffffffff1673ffffffffffffffffffffffffffffffffffffffff1681526020016003820160009054906101000a900473ffffffffffffffffffffffffffffffffffffffff1673ffffffffffffffffffffffffffffffffffffffff1673ffffffffffffffffffffffffffffffffffffffff1681526020016004820160009054906101000a900473ffffffffffffffffffffffffffffffffffffffff1673ffffffffffffffffffffffffffffffffffffffff1673ffffffffffffffffffffffffffffffffffffffff168152602001600582015481526020016006820154815260200160078201548152602001600882015481526020016009820160009054906101000a900460ff16600381111561274c577f4e487b7100000000000000000000000000000000000000000000000000000000600052602160045260246000fd5b6003811115612784577f4e487b7100000000000000000000000000000000000000000000000000000000600052602160045260246000fd5b81525050905060008160a001519050803410156127a057600080fd5b6000826020015190508473ffffffffffffffffffffffffffffffffffffffff166323b872dd3033846040518463ffffffff1660e01b81526004016127e6939291906150ff565b600060405180830381600087803b15801561280057600080fd5b505af1158015612814573d6000803e3d6000fd5b50505050600d60003373ffffffffffffffffffffffffffffffffffffffff1673ffffffffffffffffffffffffffffffffffffffff168152602001908152602001600020600081548092919061286890615990565b9190505550600183610120019060038111156128ad577f4e487b7100000000000000000000000000000000000000000000000000000000600052602160045260246000fd5b908160038111156128e7577f4e487b7100000000000000000000000000000000000000000000000000000000600052602160045260246000fd5b8152505033836060019073ffffffffffffffffffffffffffffffffffffffff16908173ffffffffffffffffffffffffffffffffffffffff168152505061292d6002613ea9565b8260096000868152602001908152602001600020600082015181600001556020820151816001015560408201518160020160006101000a81548173ffffffffffffffffffffffffffffffffffffffff021916908373ffffffffffffffffffffffffffffffffffffffff16021790555060608201518160030160006101000a81548173ffffffffffffffffffffffffffffffffffffffff021916908373ffffffffffffffffffffffffffffffffffffffff16021790555060808201518160040160006101000a81548173ffffffffffffffffffffffffffffffffffffffff021916908373ffffffffffffffffffffffffffffffffffffffff16021790555060a0820151816005015560c0820151816006015560e0820151816007015561010082015181600801556101208201518160090160006101000a81548160ff02191690836003811115612aa5577f4e487b7100000000000000000000000000000000000000000000000000000000600052602160045260246000fd5b02179055509050508160076000828254612abf9190615757565b92505081905550600960008581526020019081526020016000206006015481857fb6a6e5a1d1cba81612d627d3d366515af9bc54786897c5bb629f44b2ca1949bc88600960008a815260200190815260200160002060030160009054906101000a900473ffffffffffffffffffffffffffffffffffffffff16600960008b815260200190815260200160002060040160009054906101000a900473ffffffffffffffffffffffffffffffffffffffff1688600960008d815260200190815260200160002060070154600960008e8152602001908152602001600020600801546001604051612bb39796959493929190614e70565b60405180910390a450505060016000819055505050565b612bd2613ebf565b60005b612bdf6001613e9b565b811015612e1b578260096000600184612bf89190615757565b8152602001908152602001600020600101541415612e085760096000600183612c219190615757565b81526020019081526020016000206040518061014001604052908160008201548152602001600182015481526020016002820160009054906101000a900473ffffffffffffffffffffffffffffffffffffffff1673ffffffffffffffffffffffffffffffffffffffff1673ffffffffffffffffffffffffffffffffffffffff1681526020016003820160009054906101000a900473ffffffffffffffffffffffffffffffffffffffff1673ffffffffffffffffffffffffffffffffffffffff1673ffffffffffffffffffffffffffffffffffffffff1681526020016004820160009054906101000a900473ffffffffffffffffffffffffffffffffffffffff1673ffffffffffffffffffffffffffffffffffffffff1673ffffffffffffffffffffffffffffffffffffffff168152602001600582015481526020016006820154815260200160078201548152602001600882015481526020016009820160009054906101000a900460ff166003811115612dc4577f4e487b7100000000000000000000000000000000000000000000000000000000600052602160045260246000fd5b6003811115612dfc577f4e487b7100000000000000000000000000000000000000000000000000000000600052602160045260246000fd5b81525050915050612e5e565b8080612e1390615990565b915050612bd5565b506000612e5d576040517f08c379a0000000000000000000000000000000000000000000000000000000008152600401612e54906153db565b60405180910390fd5b5b919050565b60085481565b600a602052806000526040600020600091509050806000015490806001018054612e929061592d565b80601f0160208091040260200160405190810160405280929190818152602001828054612ebe9061592d565b8015612f0b5780601f10612ee057610100808354040283529160200191612f0b565b820191906000526020600020905b815481529060010190602001808311612eee57829003601f168201915b505050505090806002018054612f209061592d565b80601f0160208091040260200160405190810160405280929190818152602001828054612f4c9061592d565b8015612f995780601f10612f6e57610100808354040283529160200191612f99565b820191906000526020600020905b815481529060010190602001808311612f7c57829003601f168201915b5050505050905083565b6060612faf6003613e9b565b67ffffffffffffffff811115612fee577f4e487b7100000000000000000000000000000000000000000000000000000000600052604160045260246000fd5b60405190808252806020026020018201604052801561302757816020015b6130146140d4565b81526020019060019003908161300c5790505b5090506000600190505b815181116131e857600a6000828152602001908152602001600020604051806060016040529081600082015481526020016001820180546130719061592d565b80601f016020809104026020016040519081016040528092919081815260200182805461309d9061592d565b80156130ea5780601f106130bf576101008083540402835291602001916130ea565b820191906000526020600020905b8154815290600101906020018083116130cd57829003601f168201915b505050505081526020016002820180546131039061592d565b80601f016020809104026020016040519081016040528092919081815260200182805461312f9061592d565b801561317c5780601f106131515761010080835404028352916020019161317c565b820191906000526020600020905b81548152906001019060200180831161315f57829003601f168201915b5050505050815250508260018361319391906157ad565b815181106131ca577f4e487b7100000000000000000000000000000000000000000000000000000000600052603260045260246000fd5b602002602001018190525080806131e090615990565b915050613031565b5090565b3373ffffffffffffffffffffffffffffffffffffffff16600660009054906101000a900473ffffffffffffffffffffffffffffffffffffffff1673ffffffffffffffffffffffffffffffffffffffff161461327c576040517f08c379a00000000000000000000000000000000000000000000000000000000081526004016132739061543b565b60405180910390fd5b600260005414156132c2576040517f08c379a00000000000000000000000000000000000000000000000000000000081526004016132b99061541b565b60405180910390fd5b6002600081905550600081116132d757600080fd5b6132e16001613e9b565b841015613323576040517f08c379a000000000000000000000000000000000000000000000000000000000815260040161331a906152db565b60405180910390fd5b61332d6004613e9b565b83111561336f576040517f08c379a0000000000000000000000000000000000000000000000000000000008152600401613366906152bb565b60405180910390fd5b6133796001613ea9565b60006133856001613e9b565b90506000600b600086815260200190815260200160002090506040518061014001604052808381526020018781526020018873ffffffffffffffffffffffffffffffffffffffff168152602001600073ffffffffffffffffffffffffffffffffffffffff1681526020013373ffffffffffffffffffffffffffffffffffffffff168152602001848152602001868152602001600183600501546134289190615757565b81526020018581526020016000600381111561346d577f4e487b7100000000000000000000000000000000000000000000000000000000600052602160045260246000fd5b81525060096000848152602001908152602001600020600082015181600001556020820151816001015560408201518160020160006101000a81548173ffffffffffffffffffffffffffffffffffffffff021916908373ffffffffffffffffffffffffffffffffffffffff16021790555060608201518160030160006101000a81548173ffffffffffffffffffffffffffffffffffffffff021916908373ffffffffffffffffffffffffffffffffffffffff16021790555060808201518160040160006101000a81548173ffffffffffffffffffffffffffffffffffffffff021916908373ffffffffffffffffffffffffffffffffffffffff16021790555060a0820151816005015560c0820151816006015560e0820151816007015561010082015181600801556101208201518160090160006101000a81548160ff021916908360038111156135e7577f4e487b7100000000000000000000000000000000000000000000000000000000600052602160045260246000fd5b021790555090505060018160050160008282546136049190615757565b925050819055508673ffffffffffffffffffffffffffffffffffffffff166323b872dd3330896040518463ffffffff1660e01b8152600401613648939291906150ff565b600060405180830381600087803b15801561366257600080fd5b505af1158015613676573d6000803e3d6000fd5b505050508486837fb6a6e5a1d1cba81612d627d3d366515af9bc54786897c5bb629f44b2ca1949bc8a600033898b896005015460006040516136be979695949392919061507c565b60405180910390a4505060016000819055505050505050565b6136df613f8c565b6060826136ec6004613e9b565b101561372d576040517f08c379a0000000000000000000000000000000000000000000000000000000008152600401613724906153db565b60405180910390fd5b600b60008481526020019081526020016000206040518060e0016040529081600082015481526020016001820180546137659061592d565b80601f01602080910402602001604051908101604052809291908181526020018280546137919061592d565b80156137de5780601f106137b3576101008083540402835291602001916137de565b820191906000526020600020905b8154815290600101906020018083116137c157829003601f168201915b50505050508152602001600282015481526020016003820160009054906101000a900460ff16600281111561383c577f4e487b7100000000000000000000000000000000000000000000000000000000600052602160045260246000fd5b6002811115613874577f4e487b7100000000000000000000000000000000000000000000000000000000600052602160045260246000fd5b81526020016004820180546138889061592d565b80601f01602080910402602001604051908101604052809291908181526020018280546138b49061592d565b80156139015780601f106138d657610100808354040283529160200191613901565b820191906000526020600020905b8154815290600101906020018083116138e457829003601f168201915b50505050508152602001600582015481526020016006820154815250509150600c60008481526020019081526020016000208054905067ffffffffffffffff811115613976577f4e487b7100000000000000000000000000000000000000000000000000000000600052604160045260246000fd5b6040519080825280602002602001820160405280156139af57816020015b61399c6140d4565b8152602001906001900390816139945790505b50905060005b600c600085815260200190815260200160002080549050811015613bcb57600a6000600c60008781526020019081526020016000208381548110613a22577f4e487b7100000000000000000000000000000000000000000000000000000000600052603260045260246000fd5b9060005260206000200154815260200190815260200160002060405180606001604052908160008201548152602001600182018054613a609061592d565b80601f0160208091040260200160405190810160405280929190818152602001828054613a8c9061592d565b8015613ad95780601f10613aae57610100808354040283529160200191613ad9565b820191906000526020600020905b815481529060010190602001808311613abc57829003601f168201915b50505050508152602001600282018054613af29061592d565b80601f0160208091040260200160405190810160405280929190818152602001828054613b1e9061592d565b8015613b6b5780601f10613b4057610100808354040283529160200191613b6b565b820191906000526020600020905b815481529060010190602001808311613b4e57829003601f168201915b505050505081525050828281518110613bad577f4e487b7100000000000000000000000000000000000000000000000000000000600052603260045260246000fd5b60200260200101819052508080613bc390615990565b9150506139b5565b50915091565b60096020528060005260406000206000915090508060000154908060010154908060020160009054906101000a900473ffffffffffffffffffffffffffffffffffffffff16908060030160009054906101000a900473ffffffffffffffffffffffffffffffffffffffff16908060040160009054906101000a900473ffffffffffffffffffffffffffffffffffffffff16908060050154908060060154908060070154908060080154908060090160009054906101000a900460ff1690508a565b3373ffffffffffffffffffffffffffffffffffffffff16600660009054906101000a900473ffffffffffffffffffffffffffffffffffffffff1673ffffffffffffffffffffffffffffffffffffffff1614613d22576040517f08c379a0000000000000000000000000000000000000000000000000000000008152600401613d199061543b565b60405180910390fd5b600081511415613d67576040517f08c379a0000000000000000000000000000000000000000000000000000000008152600401613d5e906153fb565b60405180910390fd5b613d716003613ea9565b6040518060600160405280613d866003613e9b565b815260200183815260200182815250600a6000613da36003613e9b565b8152602001908152602001600020600082015181600001556020820151816001019080519060200190613dd7929190614001565b506040820151816002019080519060200190613df4929190614001565b50905050613e026003613e9b565b7f3a1a6624730a36ec5bce3c780f724d278f1b8bb76d4cd5f34abcaf9087aaab1f8383604051613e339291906151ef565b60405180910390a25050565b60008160000154905060008111613e8b576040517f08c379a0000000000000000000000000000000000000000000000000000000008152600401613e82906152fb565b60405180910390fd5b6001810382600001819055505050565b600081600001549050919050565b6001816000016000828254019250508190555050565b6040518061014001604052806000815260200160008152602001600073ffffffffffffffffffffffffffffffffffffffff168152602001600073ffffffffffffffffffffffffffffffffffffffff168152602001600073ffffffffffffffffffffffffffffffffffffffff1681526020016000815260200160008152602001600081526020016000815260200160006003811115613f86577f4e487b7100000000000000000000000000000000000000000000000000000000600052602160045260246000fd5b81525090565b6040518060e0016040528060008152602001606081526020016000815260200160006002811115613fe6577f4e487b7100000000000000000000000000000000000000000000000000000000600052602160045260246000fd5b81526020016060815260200160008152602001600081525090565b82805461400d9061592d565b90600052602060002090601f01602090048101928261402f5760008555614076565b82601f1061404857805160ff1916838001178555614076565b82800160010185558215614076579182015b8281111561407557825182559160200191906001019061405a565b5b50905061408391906140f5565b5090565b8280548282559060005260206000209081019282156140c3579160200282015b828111156140c25782518255916020019190600101906140a7565b5b5090506140d091906140f5565b5090565b60405180606001604052806000815260200160608152602001606081525090565b5b8082111561410e5760008160009055506001016140f6565b5090565b600061412561412084615622565b6155fd565b9050808382526020820190508285602086028201111561414457600080fd5b60005b85811015614174578161415a8882614225565b845260208401935060208301925050600181019050614147565b5050509392505050565b600061419161418c8461564e565b6155fd565b9050828152602081018484840111156141a957600080fd5b6141b48482856158c1565b509392505050565b6000813590506141cb81615e02565b92915050565b600082601f8301126141e257600080fd5b81356141f2848260208601614112565b91505092915050565b600082601f83011261420c57600080fd5b813561421c84826020860161417e565b91505092915050565b60008135905061423481615e19565b92915050565b60008151905061424981615e19565b92915050565b60008060006060848603121561426457600080fd5b6000614272868287016141bc565b9350506020614283868287016141bc565b925050604061429486828701614225565b9150509250925092565b60008060008060008060c087890312156142b757600080fd5b60006142c589828a016141bc565b96505060206142d689828a016141bc565b95505060406142e789828a01614225565b94505060606142f889828a01614225565b935050608061430989828a01614225565b92505060a061431a89828a01614225565b9150509295509295509295565b6000806040838503121561433a57600080fd5b6000614348858286016141bc565b925050602061435985828601614225565b9150509250929050565b60008060006060848603121561437857600080fd5b6000614386868287016141bc565b935050602061439786828701614225565b92505060406143a886828701614225565b9150509250925092565b600080600080600060a086880312156143ca57600080fd5b60006143d8888289016141bc565b95505060206143e988828901614225565b94505060406143fa88828901614225565b935050606061440b88828901614225565b925050608061441c88828901614225565b9150509295509295909350565b6000806040838503121561443c57600080fd5b600083013567ffffffffffffffff81111561445657600080fd5b614462858286016141fb565b925050602083013567ffffffffffffffff81111561447f57600080fd5b61448b858286016141fb565b9150509250929050565b6000806000606084860312156144aa57600080fd5b600084013567ffffffffffffffff8111156144c457600080fd5b6144d0868287016141fb565b935050602084013567ffffffffffffffff8111156144ed57600080fd5b6144f9868287016141fb565b925050604084013567ffffffffffffffff81111561451657600080fd5b614522868287016141d1565b9150509250925092565b60006020828403121561453e57600080fd5b600061454c84828501614225565b91505092915050565b60006020828403121561456757600080fd5b60006145758482850161423a565b91505092915050565b600061458a8383614acb565b905092915050565b600061459e8383614c11565b905092915050565b60006145b28383614c68565b6101408301905092915050565b6145c881615855565b82525050565b6145d7816157f3565b82525050565b6145e6816157f3565b82525050565b6145f5816157e1565b82525050565b614604816157e1565b82525050565b6000614615826156af565b61461f8185615702565b9350836020820285016146318561567f565b8060005b8581101561466d578484038952815161464e858261457e565b9450614659836156db565b925060208a01995050600181019050614635565b50829750879550505050505092915050565b600061468a826156ba565b6146948185615713565b9350836020820285016146a68561568f565b8060005b858110156146e257848403895281516146c38582614592565b94506146ce836156e8565b925060208a019950506001810190506146aa565b50829750879550505050505092915050565b60006146ff826156c5565b6147098185615724565b93506147148361569f565b8060005b8381101561474557815161472c88826145a6565b9750614737836156f5565b925050600181019050614718565b5085935050505092915050565b61475b81615867565b82525050565b61476a81615867565b82525050565b61477981615879565b82525050565b61478881615879565b82525050565b6147978161588b565b82525050565b60006147a8826156d0565b6147b28185615735565b93506147c28185602086016158d0565b6147cb81615a95565b840191505092915050565b60006147e1826156d0565b6147eb8185615746565b93506147fb8185602086016158d0565b61480481615a95565b840191505092915050565b600061481c600f83615746565b915061482782615aa6565b602082019050919050565b600061483f600f83615746565b915061484a82615acf565b602082019050919050565b6000614862600f83615746565b915061486d82615af8565b602082019050919050565b6000614885601b83615746565b915061489082615b21565b602082019050919050565b60006148a8601083615746565b91506148b382615b4a565b602082019050919050565b60006148cb600983615746565b91506148d682615b73565b602082019050919050565b60006148ee600d83615746565b91506148f982615b9c565b602082019050919050565b6000614911600e83615746565b915061491c82615bc5565b602082019050919050565b6000614934600d83615746565b915061493f82615bee565b602082019050919050565b6000614957601483615746565b915061496282615c17565b602082019050919050565b600061497a601083615746565b915061498582615c40565b602082019050919050565b600061499d600e83615746565b91506149a882615c69565b602082019050919050565b60006149c0601083615746565b91506149cb82615c92565b602082019050919050565b60006149e3601183615746565b91506149ee82615cbb565b602082019050919050565b6000614a06600d83615746565b9150614a1182615ce4565b602082019050919050565b6000614a29600b83615746565b9150614a3482615d0d565b602082019050919050565b6000614a4c600e83615746565b9150614a5782615d36565b602082019050919050565b6000614a6f601f83615746565b9150614a7a82615d5f565b602082019050919050565b6000614a92600983615746565b9150614a9d82615d88565b602082019050919050565b6000614ab5600d83615746565b9150614ac082615db1565b602082019050919050565b600060e083016000830151614ae36000860182614e00565b5060208301518482036020860152614afb828261479d565b9150506040830151614b106040860182614e00565b506060830151614b236060860182614752565b5060808301518482036080860152614b3b828261479d565b91505060a0830151614b5060a0860182614e00565b5060c0830151614b6360c0860182614e00565b508091505092915050565b600060e083016000830151614b866000860182614e00565b5060208301518482036020860152614b9e828261479d565b9150506040830151614bb36040860182614e00565b506060830151614bc66060860182614752565b5060808301518482036080860152614bde828261479d565b91505060a0830151614bf360a0860182614e00565b5060c0830151614c0660c0860182614e00565b508091505092915050565b6000606083016000830151614c296000860182614e00565b5060208301518482036020860152614c41828261479d565b91505060408301518482036040860152614c5b828261479d565b9150508091505092915050565b61014082016000820151614c7f6000850182614e00565b506020820151614c926020850182614e00565b506040820151614ca560408501826145ec565b506060820151614cb860608501826145ce565b506080820151614ccb60808501826145ce565b5060a0820151614cde60a0850182614e00565b5060c0820151614cf160c0850182614e00565b5060e0820151614d0460e0850182614e00565b50610100820151614d19610100850182614e00565b50610120820151614d2e610120850182614770565b50505050565b61014082016000820151614d4b6000850182614e00565b506020820151614d5e6020850182614e00565b506040820151614d7160408501826145ec565b506060820151614d8460608501826145ce565b506080820151614d9760808501826145ce565b5060a0820151614daa60a0850182614e00565b5060c0820151614dbd60c0850182614e00565b5060e0820151614dd060e0850182614e00565b50610100820151614de5610100850182614e00565b50610120820151614dfa610120850182614770565b50505050565b614e098161584b565b82525050565b614e188161584b565b82525050565b6000602082019050614e3360008301846145dd565b92915050565b6000606082019050614e4e60008301866145bf565b614e5b60208301856145fb565b614e686040830184614e0f565b949350505050565b600061010082019050614e86600083018a6145fb565b614e9360208301896145bf565b614ea060408301886145bf565b614ead6060830187614e0f565b614eba6080830186614e0f565b614ec760a0830185614e0f565b614ed460c083018461477f565b81810360e0830152614ee58161494a565b905098975050505050505050565b600061010082019050614f09600083018a6145fb565b614f1660208301896145fb565b614f2360408301886145bf565b614f306060830187614e0f565b614f3d6080830186614e0f565b614f4a60a0830185614e0f565b614f5760c083018461477f565b81810360e0830152614f688161480f565b905098975050505050505050565b600061010082019050614f8c600083018a6145fb565b614f9960208301896145fb565b614fa660408301886145bf565b614fb36060830187614e0f565b614fc06080830186614e0f565b614fcd60a0830185614e0f565b614fda60c083018461477f565b81810360e0830152614feb816148e1565b905098975050505050505050565b60006101008201905061500f600083018a6145fb565b61501c60208301896145fb565b61502960408301886145bf565b6150366060830187614e0f565b6150436080830186614e0f565b61505060a0830185614e0f565b61505d60c083018461477f565b81810360e083015261506e81614aa8565b905098975050505050505050565b600061010082019050615092600083018a6145fb565b61509f60208301896145fb565b6150ac60408301886145fb565b6150b96060830187614e0f565b6150c66080830186614e0f565b6150d360a0830185614e0f565b6150e060c083018461477f565b81810360e08301526150f18161496d565b905098975050505050505050565b600060608201905061511460008301866145fb565b61512160208301856145fb565b61512e6040830184614e0f565b949350505050565b600060a08201905061514b60008301886145fb565b61515860208301876145fb565b6151656040830186614e0f565b6151726060830185614e0f565b61517f6080830184614e0f565b9695505050505050565b600060208201905081810360008301526151a3818461460a565b905092915050565b600060208201905081810360008301526151c5818461467f565b905092915050565b600060208201905081810360008301526151e781846146f4565b905092915050565b6000606082019050818103600083015261520981856147d6565b9050818103602083015261521d81846147d6565b9050818103604083015261523081614a3f565b90509392505050565b600060e082019050818103600083015261525381896147d6565b90506152626020830188614e0f565b61526f6040830187614761565b818103606083015261528181866147d6565b9050615290608083018561478e565b61529d60a083018461478e565b81810360c08301526152ae81614927565b9050979650505050505050565b600060208201905081810360008301526152d481614832565b9050919050565b600060208201905081810360008301526152f481614855565b9050919050565b6000602082019050818103600083015261531481614878565b9050919050565b600060208201905081810360008301526153348161489b565b9050919050565b60006020820190508181036000830152615354816148be565b9050919050565b6000602082019050818103600083015261537481614904565b9050919050565b6000602082019050818103600083015261539481614990565b9050919050565b600060208201905081810360008301526153b4816149b3565b9050919050565b600060208201905081810360008301526153d4816149d6565b9050919050565b600060208201905081810360008301526153f4816149f9565b9050919050565b6000602082019050818103600083015261541481614a1c565b9050919050565b6000602082019050818103600083015261543481614a62565b9050919050565b6000602082019050818103600083015261545481614a85565b9050919050565b600060408201905081810360008301526154758185614b6e565b90508181036020830152615489818461467f565b90509392505050565b6000610140820190506154a86000830184614d34565b92915050565b60006020820190506154c36000830184614e0f565b92915050565b60006060820190506154de6000830186614e0f565b81810360208301526154f081856147d6565b9050818103604083015261550481846147d6565b9050949350505050565b600061014082019050615524600083018d614e0f565b615531602083018c614e0f565b61553e604083018b6145fb565b61554b606083018a6145dd565b61555860808301896145dd565b61556560a0830188614e0f565b61557260c0830187614e0f565b61557f60e0830186614e0f565b61558d610100830185614e0f565b61559b61012083018461477f565b9b9a5050505050505050505050565b600060a0820190506155bf6000830188614e0f565b6155cc6020830187614e0f565b6155d960408301866145fb565b6155e66060830185614e0f565b6155f36080830184614e0f565b9695505050505050565b6000615607615618565b9050615613828261595f565b919050565b6000604051905090565b600067ffffffffffffffff82111561563d5761563c615a66565b5b602082029050602081019050919050565b600067ffffffffffffffff82111561566957615668615a66565b5b61567282615a95565b9050602081019050919050565b6000819050602082019050919050565b6000819050602082019050919050565b6000819050602082019050919050565b600081519050919050565b600081519050919050565b600081519050919050565b600081519050919050565b6000602082019050919050565b6000602082019050919050565b6000602082019050919050565b600082825260208201905092915050565b600082825260208201905092915050565b600082825260208201905092915050565b600082825260208201905092915050565b600082825260208201905092915050565b60006157628261584b565b915061576d8361584b565b9250827fffffffffffffffffffffffffffffffffffffffffffffffffffffffffffffffff038211156157a2576157a16159d9565b5b828201905092915050565b60006157b88261584b565b91506157c38361584b565b9250828210156157d6576157d56159d9565b5b828203905092915050565b60006157ec8261582b565b9050919050565b60006157fe8261582b565b9050919050565b600081905061581382615dda565b919050565b600081905061582682615dee565b919050565b600073ffffffffffffffffffffffffffffffffffffffff82169050919050565b6000819050919050565b60006158608261589d565b9050919050565b600061587282615805565b9050919050565b600061588482615818565b9050919050565b60006158968261584b565b9050919050565b60006158a8826158af565b9050919050565b60006158ba8261582b565b9050919050565b82818337600083830152505050565b60005b838110156158ee5780820151818401526020810190506158d3565b838111156158fd576000848401525b50505050565b600061590e8261584b565b91506000821415615922576159216159d9565b5b600182039050919050565b6000600282049050600182168061594557607f821691505b6020821081141561595957615958615a37565b5b50919050565b61596882615a95565b810181811067ffffffffffffffff8211171561598757615986615a66565b5b80604052505050565b600061599b8261584b565b91507fffffffffffffffffffffffffffffffffffffffffffffffffffffffffffffffff8214156159ce576159cd6159d9565b5b600182019050919050565b7f4e487b7100000000000000000000000000000000000000000000000000000000600052601160045260246000fd5b7f4e487b7100000000000000000000000000000000000000000000000000000000600052602160045260246000fd5b7f4e487b7100000000000000000000000000000000000000000000000000000000600052602260045260246000fd5b7f4e487b7100000000000000000000000000000000000000000000000000000000600052604160045260246000fd5b6000601f19601f8301169050919050565b7f756e4c697374204d757369634e46540000000000000000000000000000000000600082015250565b7f496e76616c696420416c62756d49640000000000000000000000000000000000600082015250565b7f696e76616c696420546f6b656e49640000000000000000000000000000000000600082015250565b7f436f756e7465723a2064656372656d656e74206f766572666c6f770000000000600082015250565b7f616c726561647920756e4c697374656400000000000000000000000000000000600082015250565b7f4e6f74204f776e65720000000000000000000000000000000000000000000000600082015250565b7f4c697374204d757369634e465400000000000000000000000000000000000000600082015250565b7f496e737566666963656e74204c50000000000000000000000000000000000000600082015250565b7f4372656174656420416c62756d00000000000000000000000000000000000000600082015250565b7f5472616e73666572726564204d757369634e4654000000000000000000000000600082015250565b7f43726561746564204d757369634e465400000000000000000000000000000000600082015250565b7f616c7265616479204c6973746564000000000000000000000000000000000000600082015250565b7f4974656d73206e6f74204c697374656400000000000000000000000000000000600082015250565b7f496e737566666963656e742066756e6473000000000000000000000000000000600082015250565b7f496e76616c696420546f6b656e00000000000000000000000000000000000000600082015250565b7f496e76616c696420555249000000000000000000000000000000000000000000600082015250565b7f4172746973742043726561746564000000000000000000000000000000000000600082015250565b7f5265656e7472616e637947756172643a207265656e7472616e742063616c6c00600082015250565b7f6e6f74206f776e65720000000000000000000000000000000000000000000000600082015250565b7f536f6c64204d757369634e465400000000000000000000000000000000000000600082015250565b60038110615deb57615dea615a08565b5b50565b60048110615dff57615dfe615a08565b5b50565b615e0b816157e1565b8114615e1657600080fd5b50565b615e228161584b565b8114615e2d57600080fd5b5056fea264697066735822122023329cba9cd5be0196f621fa0d5d1129746f3419259e263256d474bb06b3785c64736f6c63430008040033",
  "linkReferences": {},
  "deployedLinkReferences": {}
}