{
  "_format": "hh-sol-artifact-1",
  "contractName": "MusicMarket",
  "sourceName": "contracts/MusicMarket.sol",
  "abi": [
    {
      "inputs": [],
      "stateMutability": "nonpayable",
      "type": "constructor"
    },
    {
      "anonymous": false,
      "inputs": [
        {
          "indexed": true,
          "internalType": "uint256",
          "name": "albumId",
          "type": "uint256"
        },
        {
          "indexed": false,
          "internalType": "string",
          "name": "albumName",
          "type": "string"
        },
        {
          "indexed": false,
          "internalType": "uint256",
          "name": "createdAt",
          "type": "uint256"
        },
        {
          "indexed": false,
          "internalType": "enum MusicMarket.AlbumStatus",
          "name": "Status",
          "type": "uint8"
        },
        {
          "indexed": false,
          "internalType": "string",
          "name": "coverUrl",
          "type": "string"
        },
        {
          "indexed": false,
          "internalType": "uint256",
          "name": "mintedSongs",
          "type": "uint256"
        },
        {
          "indexed": false,
          "internalType": "uint256",
          "name": "soldSongs",
          "type": "uint256"
        },
        {
          "indexed": false,
          "internalType": "string",
          "name": "message",
          "type": "string"
        }
      ],
      "name": "AlbumEvent",
      "type": "event"
    },
    {
      "anonymous": false,
      "inputs": [
        {
          "indexed": true,
          "internalType": "uint256",
          "name": "artistId",
          "type": "uint256"
        },
        {
          "indexed": false,
          "internalType": "string",
          "name": "artistName",
          "type": "string"
        },
        {
          "indexed": false,
          "internalType": "string",
          "name": "url",
          "type": "string"
        },
        {
          "indexed": false,
          "internalType": "string",
          "name": "message",
          "type": "string"
        }
      ],
      "name": "ArtistEvent",
      "type": "event"
    },
    {
      "anonymous": false,
      "inputs": [
        {
          "indexed": true,
          "internalType": "uint256",
          "name": "auctionId",
          "type": "uint256"
        },
        {
          "indexed": true,
          "internalType": "uint256",
          "name": "tokenId",
          "type": "uint256"
        },
        {
          "indexed": false,
          "internalType": "address",
          "name": "auctionMarket",
          "type": "address"
        },
        {
          "indexed": false,
          "internalType": "address",
          "name": "nftAddress",
          "type": "address"
        },
        {
          "indexed": false,
          "internalType": "uint256",
          "name": "startAt",
          "type": "uint256"
        },
        {
          "indexed": false,
          "internalType": "uint256",
          "name": "endAt",
          "type": "uint256"
        },
        {
          "indexed": false,
          "internalType": "uint256",
          "name": "startBidPrice",
          "type": "uint256"
        }
      ],
      "name": "BidEvent",
      "type": "event"
    },
    {
      "anonymous": false,
      "inputs": [
        {
          "indexed": true,
          "internalType": "uint256",
          "name": "itemId",
          "type": "uint256"
        },
        {
          "indexed": true,
          "internalType": "uint256",
          "name": "tokenId",
          "type": "uint256"
        },
        {
          "indexed": false,
          "internalType": "address",
          "name": "musicContract",
          "type": "address"
        },
        {
          "indexed": false,
          "internalType": "address",
          "name": "owner",
          "type": "address"
        },
        {
          "indexed": false,
          "internalType": "address",
          "name": "seller",
          "type": "address"
        },
        {
          "indexed": false,
          "internalType": "uint256",
          "name": "price",
          "type": "uint256"
        },
        {
          "indexed": true,
          "internalType": "uint256",
          "name": "albumId",
          "type": "uint256"
        },
        {
          "indexed": false,
          "internalType": "uint256",
          "name": "trackNumber",
          "type": "uint256"
        },
        {
          "indexed": false,
          "internalType": "uint256",
          "name": "artistId",
          "type": "uint256"
        },
        {
          "indexed": false,
          "internalType": "enum MusicMarket.SongStatus",
          "name": "status",
          "type": "uint8"
        },
        {
          "indexed": false,
          "internalType": "string",
          "name": "message",
          "type": "string"
        }
      ],
      "name": "SongEvent",
      "type": "event"
    },
    {
      "inputs": [
        {
          "internalType": "address",
          "name": "musicContract",
          "type": "address"
        },
        {
          "internalType": "uint256",
          "name": "tokenId",
          "type": "uint256"
        }
      ],
      "name": "BuySong",
      "outputs": [],
      "stateMutability": "payable",
      "type": "function"
    },
    {
      "inputs": [
        {
          "internalType": "address",
          "name": "musicContract",
          "type": "address"
        },
        {
          "internalType": "uint256",
          "name": "itemId",
          "type": "uint256"
        }
      ],
      "name": "CancelItem",
      "outputs": [],
      "stateMutability": "payable",
      "type": "function"
    },
    {
      "inputs": [
        {
          "internalType": "uint256",
          "name": "",
          "type": "uint256"
        }
      ],
      "name": "artists",
      "outputs": [
        {
          "internalType": "uint256",
          "name": "id",
          "type": "uint256"
        },
        {
          "internalType": "string",
          "name": "artistName",
          "type": "string"
        },
        {
          "internalType": "string",
          "name": "url",
          "type": "string"
        }
      ],
      "stateMutability": "view",
      "type": "function"
    },
    {
      "inputs": [
        {
          "internalType": "string",
          "name": "albumName",
          "type": "string"
        },
        {
          "internalType": "string",
          "name": "uri",
          "type": "string"
        },
        {
          "internalType": "uint256[]",
          "name": "_artists",
          "type": "uint256[]"
        }
      ],
      "name": "createAlbum",
      "outputs": [],
      "stateMutability": "nonpayable",
      "type": "function"
    },
    {
      "inputs": [
        {
          "internalType": "string",
          "name": "artistName",
          "type": "string"
        },
        {
          "internalType": "string",
          "name": "uri",
          "type": "string"
        }
      ],
      "name": "createArtist",
      "outputs": [],
      "stateMutability": "nonpayable",
      "type": "function"
    },
    {
      "inputs": [
        {
          "internalType": "address",
          "name": "auctionMarket",
          "type": "address"
        },
        {
          "internalType": "address",
          "name": "nftAddress",
          "type": "address"
        },
        {
          "internalType": "uint256",
          "name": "startAt",
          "type": "uint256"
        },
        {
          "internalType": "uint256",
          "name": "endAt",
          "type": "uint256"
        },
        {
          "internalType": "uint256",
          "name": "startBidPrice",
          "type": "uint256"
        },
        {
          "internalType": "uint256",
          "name": "tokenId",
          "type": "uint256"
        }
      ],
      "name": "createAuction",
      "outputs": [],
      "stateMutability": "nonpayable",
      "type": "function"
    },
    {
      "inputs": [
        {
          "internalType": "address",
          "name": "musicContract",
          "type": "address"
        },
        {
          "internalType": "uint256",
          "name": "tokenId",
          "type": "uint256"
        },
        {
          "internalType": "uint256",
          "name": "albumId",
          "type": "uint256"
        },
        {
          "internalType": "uint256",
          "name": "artistId",
          "type": "uint256"
        },
        {
          "internalType": "uint256",
          "name": "price",
          "type": "uint256"
        }
      ],
      "name": "createSong",
      "outputs": [],
      "stateMutability": "nonpayable",
      "type": "function"
    },
    {
      "inputs": [
        {
          "internalType": "address",
          "name": "musicContract",
          "type": "address"
        },
        {
          "internalType": "uint256",
          "name": "itemId",
          "type": "uint256"
        }
      ],
      "name": "createSongSale",
      "outputs": [],
      "stateMutability": "payable",
      "type": "function"
    },
    {
      "inputs": [
        {
          "internalType": "uint256",
          "name": "limit",
          "type": "uint256"
        }
      ],
      "name": "fetchMyMusicNFTs",
      "outputs": [
        {
          "components": [
            {
              "internalType": "uint256",
              "name": "itemId",
              "type": "uint256"
            },
            {
              "internalType": "uint256",
              "name": "tokenId",
              "type": "uint256"
            },
            {
              "internalType": "address",
              "name": "musicContract",
              "type": "address"
            },
            {
              "internalType": "address payable",
              "name": "owner",
              "type": "address"
            },
            {
              "internalType": "address payable",
              "name": "seller",
              "type": "address"
            },
            {
              "internalType": "uint256",
              "name": "price",
              "type": "uint256"
            },
            {
              "internalType": "uint256",
              "name": "albumId",
              "type": "uint256"
            },
            {
              "internalType": "uint256",
              "name": "trackNumber",
              "type": "uint256"
            },
            {
              "internalType": "uint256",
              "name": "artistId",
              "type": "uint256"
            },
            {
              "internalType": "enum MusicMarket.SongStatus",
              "name": "status",
              "type": "uint8"
            }
          ],
          "internalType": "struct MusicMarket.Song[]",
          "name": "",
          "type": "tuple[]"
        }
      ],
      "stateMutability": "view",
      "type": "function"
    },
    {
      "inputs": [
        {
          "internalType": "uint256",
          "name": "albumId",
          "type": "uint256"
        }
      ],
      "name": "getAlbum",
      "outputs": [
        {
          "components": [
            {
              "internalType": "uint256",
              "name": "id",
              "type": "uint256"
            },
            {
              "internalType": "string",
              "name": "albumName",
              "type": "string"
            },
            {
              "internalType": "uint256",
              "name": "createdAt",
              "type": "uint256"
            },
            {
              "internalType": "enum MusicMarket.AlbumStatus",
              "name": "Status",
              "type": "uint8"
            },
            {
              "internalType": "string",
              "name": "coverUrl",
              "type": "string"
            },
            {
              "internalType": "uint256",
              "name": "mintedSongs",
              "type": "uint256"
            },
            {
              "internalType": "uint256",
              "name": "soldSongs",
              "type": "uint256"
            }
          ],
          "internalType": "struct MusicMarket.Album",
          "name": "_album",
          "type": "tuple"
        },
        {
          "components": [
            {
              "internalType": "uint256",
              "name": "id",
              "type": "uint256"
            },
            {
              "internalType": "string",
              "name": "artistName",
              "type": "string"
            },
            {
              "internalType": "string",
              "name": "url",
              "type": "string"
            }
          ],
          "internalType": "struct MusicMarket.Artist[]",
          "name": "_artists",
          "type": "tuple[]"
        }
      ],
      "stateMutability": "view",
      "type": "function"
    },
    {
      "inputs": [],
      "name": "getAlbums",
      "outputs": [
        {
          "components": [
            {
              "internalType": "uint256",
              "name": "id",
              "type": "uint256"
            },
            {
              "internalType": "string",
              "name": "albumName",
              "type": "string"
            },
            {
              "internalType": "uint256",
              "name": "createdAt",
              "type": "uint256"
            },
            {
              "internalType": "enum MusicMarket.AlbumStatus",
              "name": "Status",
              "type": "uint8"
            },
            {
              "internalType": "string",
              "name": "coverUrl",
              "type": "string"
            },
            {
              "internalType": "uint256",
              "name": "mintedSongs",
              "type": "uint256"
            },
            {
              "internalType": "uint256",
              "name": "soldSongs",
              "type": "uint256"
            }
          ],
          "internalType": "struct MusicMarket.Album[]",
          "name": "data",
          "type": "tuple[]"
        }
      ],
      "stateMutability": "view",
      "type": "function"
    },
    {
      "inputs": [],
      "name": "getArtists",
      "outputs": [
        {
          "components": [
            {
              "internalType": "uint256",
              "name": "id",
              "type": "uint256"
            },
            {
              "internalType": "string",
              "name": "artistName",
              "type": "string"
            },
            {
              "internalType": "string",
              "name": "url",
              "type": "string"
            }
          ],
          "internalType": "struct MusicMarket.Artist[]",
          "name": "data",
          "type": "tuple[]"
        }
      ],
      "stateMutability": "view",
      "type": "function"
    },
    {
      "inputs": [
        {
          "internalType": "uint256",
          "name": "tokenId",
          "type": "uint256"
        }
      ],
      "name": "getItemByTokenId",
      "outputs": [
        {
          "components": [
            {
              "internalType": "uint256",
              "name": "itemId",
              "type": "uint256"
            },
            {
              "internalType": "uint256",
              "name": "tokenId",
              "type": "uint256"
            },
            {
              "internalType": "address",
              "name": "musicContract",
              "type": "address"
            },
            {
              "internalType": "address payable",
              "name": "owner",
              "type": "address"
            },
            {
              "internalType": "address payable",
              "name": "seller",
              "type": "address"
            },
            {
              "internalType": "uint256",
              "name": "price",
              "type": "uint256"
            },
            {
              "internalType": "uint256",
              "name": "albumId",
              "type": "uint256"
            },
            {
              "internalType": "uint256",
              "name": "trackNumber",
              "type": "uint256"
            },
            {
              "internalType": "uint256",
              "name": "artistId",
              "type": "uint256"
            },
            {
              "internalType": "enum MusicMarket.SongStatus",
              "name": "status",
              "type": "uint8"
            }
          ],
          "internalType": "struct MusicMarket.Song",
          "name": "item",
          "type": "tuple"
        }
      ],
      "stateMutability": "view",
      "type": "function"
    },
    {
      "inputs": [
        {
          "internalType": "uint256",
          "name": "limit",
          "type": "uint256"
        }
      ],
      "name": "getLastMinted",
      "outputs": [
        {
          "components": [
            {
              "internalType": "uint256",
              "name": "itemId",
              "type": "uint256"
            },
            {
              "internalType": "uint256",
              "name": "tokenId",
              "type": "uint256"
            },
            {
              "internalType": "address",
              "name": "musicContract",
              "type": "address"
            },
            {
              "internalType": "address payable",
              "name": "owner",
              "type": "address"
            },
            {
              "internalType": "address payable",
              "name": "seller",
              "type": "address"
            },
            {
              "internalType": "uint256",
              "name": "price",
              "type": "uint256"
            },
            {
              "internalType": "uint256",
              "name": "albumId",
              "type": "uint256"
            },
            {
              "internalType": "uint256",
              "name": "trackNumber",
              "type": "uint256"
            },
            {
              "internalType": "uint256",
              "name": "artistId",
              "type": "uint256"
            },
            {
              "internalType": "enum MusicMarket.SongStatus",
              "name": "status",
              "type": "uint8"
            }
          ],
          "internalType": "struct MusicMarket.Song[]",
          "name": "",
          "type": "tuple[]"
        }
      ],
      "stateMutability": "view",
      "type": "function"
    },
    {
      "inputs": [
        {
          "internalType": "uint256",
          "name": "limit",
          "type": "uint256"
        }
      ],
      "name": "getSongs",
      "outputs": [
        {
          "components": [
            {
              "internalType": "uint256",
              "name": "itemId",
              "type": "uint256"
            },
            {
              "internalType": "uint256",
              "name": "tokenId",
              "type": "uint256"
            },
            {
              "internalType": "address",
              "name": "musicContract",
              "type": "address"
            },
            {
              "internalType": "address payable",
              "name": "owner",
              "type": "address"
            },
            {
              "internalType": "address payable",
              "name": "seller",
              "type": "address"
            },
            {
              "internalType": "uint256",
              "name": "price",
              "type": "uint256"
            },
            {
              "internalType": "uint256",
              "name": "albumId",
              "type": "uint256"
            },
            {
              "internalType": "uint256",
              "name": "trackNumber",
              "type": "uint256"
            },
            {
              "internalType": "uint256",
              "name": "artistId",
              "type": "uint256"
            },
            {
              "internalType": "enum MusicMarket.SongStatus",
              "name": "status",
              "type": "uint8"
            }
          ],
          "internalType": "struct MusicMarket.Song[]",
          "name": "",
          "type": "tuple[]"
        }
      ],
      "stateMutability": "view",
      "type": "function"
    },
    {
      "inputs": [
        {
          "internalType": "uint256",
          "name": "",
          "type": "uint256"
        }
      ],
      "name": "itemIdToSong",
      "outputs": [
        {
          "internalType": "uint256",
          "name": "itemId",
          "type": "uint256"
        },
        {
          "internalType": "uint256",
          "name": "tokenId",
          "type": "uint256"
        },
        {
          "internalType": "address",
          "name": "musicContract",
          "type": "address"
        },
        {
          "internalType": "address payable",
          "name": "owner",
          "type": "address"
        },
        {
          "internalType": "address payable",
          "name": "seller",
          "type": "address"
        },
        {
          "internalType": "uint256",
          "name": "price",
          "type": "uint256"
        },
        {
          "internalType": "uint256",
          "name": "albumId",
          "type": "uint256"
        },
        {
          "internalType": "uint256",
          "name": "trackNumber",
          "type": "uint256"
        },
        {
          "internalType": "uint256",
          "name": "artistId",
          "type": "uint256"
        },
        {
          "internalType": "enum MusicMarket.SongStatus",
          "name": "status",
          "type": "uint8"
        }
      ],
      "stateMutability": "view",
      "type": "function"
    },
    {
      "inputs": [
        {
          "internalType": "address",
          "name": "musicContract",
          "type": "address"
        },
        {
          "internalType": "uint256",
          "name": "itemId",
          "type": "uint256"
        },
        {
          "internalType": "uint256",
          "name": "price",
          "type": "uint256"
        }
      ],
      "name": "listItem",
      "outputs": [],
      "stateMutability": "payable",
      "type": "function"
    },
    {
      "inputs": [],
      "name": "listingPrice",
      "outputs": [
        {
          "internalType": "uint256",
          "name": "",
          "type": "uint256"
        }
      ],
      "stateMutability": "view",
      "type": "function"
    },
    {
      "inputs": [
        {
          "internalType": "address",
          "name": "nftAddress",
          "type": "address"
        },
        {
          "internalType": "address",
          "name": "to",
          "type": "address"
        },
        {
          "internalType": "uint256",
          "name": "tokenId",
          "type": "uint256"
        }
      ],
      "name": "musicTransfer",
      "outputs": [],
      "stateMutability": "nonpayable",
      "type": "function"
    },
    {
      "inputs": [],
      "name": "owner",
      "outputs": [
        {
          "internalType": "address payable",
          "name": "",
          "type": "address"
        }
      ],
      "stateMutability": "view",
      "type": "function"
    },
    {
      "inputs": [
        {
          "internalType": "uint256",
          "name": "price",
          "type": "uint256"
        }
      ],
      "name": "setListingPrice",
      "outputs": [],
      "stateMutability": "nonpayable",
      "type": "function"
    },
    {
      "inputs": [],
      "name": "withdraw",
      "outputs": [],
      "stateMutability": "nonpayable",
      "type": "function"
    }
  ],
  "bytecode": "0x60806040526658d15e1762800060085534801561001b57600080fd5b50600160008190555033600660006101000a81548173ffffffffffffffffffffffffffffffffffffffff021916908373ffffffffffffffffffffffffffffffffffffffff160217905550615e9c80620000756000396000f3fe6080604052600436106101355760003560e01c806389bfd38f116100ab578063cd7e10c11161006f578063cd7e10c1146103da578063d4cd0d4514610419578063d69e63bd14610444578063d6e465c91461046d578063db692710146104ab578063fb0cf2cc146104f157610135565b806389bfd38f1461030f5780638da5cb5b1461032b5780639de46d0914610356578063b520fa8f14610372578063c78f19f9146103af57610135565b8063566d0d86116100fd578063566d0d86146101ef5780635c517234146102185780635e4d1cc41461024357806367dfda7814610280578063750bf75e146102a95780637c726b69146102e657610135565b806312b3d2c11461013a578063134bf711146101635780631f6035be1461017f57806320c6b3b61461019b5780633ccfd60b146101d8575b600080fd5b34801561014657600080fd5b50610161600480360381019061015c91906142d4565b61051a565b005b61017d6004803603810190610178919061435d565b61070f565b005b6101996004803603810190610194919061435d565b6109b7565b005b3480156101a757600080fd5b506101c260048036038101906101bd9190614562565b610be2565b6040516101cf9190615203565b60405180910390f35b3480156101e457600080fd5b506101ed610fde565b005b3480156101fb57600080fd5b5061021660048036038101906102119190614285565b61110a565b005b34801561022457600080fd5b5061022d6113bc565b60405161023a91906151bf565b60405180910390f35b34801561024f57600080fd5b5061026a60048036038101906102659190614562565b6116aa565b6040516102779190615203565b60405180910390f35b34801561028c57600080fd5b506102a760048036038101906102a291906144cb565b611a8f565b005b3480156102b557600080fd5b506102d060048036038101906102cb9190614562565b611d39565b6040516102dd9190615203565b60405180910390f35b3480156102f257600080fd5b5061030d60048036038101906103089190614562565b612211565b005b61032960048036038101906103249190614399565b6122ab565b005b34801561033757600080fd5b50610340612564565b60405161034d9190614e54565b60405180910390f35b610370600480360381019061036b919061435d565b61258a565b005b34801561037e57600080fd5b5061039960048036038101906103949190614562565b612c00565b6040516103a691906154c8565b60405180910390f35b3480156103bb57600080fd5b506103c4612e99565b6040516103d191906154e4565b60405180910390f35b3480156103e657600080fd5b5061040160048036038101906103fc9190614562565b612e9f565b604051610410939291906154ff565b60405180910390f35b34801561042557600080fd5b5061042e612fd9565b60405161043b91906151e1565b60405180910390f35b34801561045057600080fd5b5061046b600480360381019061046691906143e8565b613222565b005b34801561047957600080fd5b50610494600480360381019061048f9190614562565b61370d565b6040516104a2929190615491565b60405180910390f35b3480156104b757600080fd5b506104d260048036038101906104cd9190614562565b613c07565b6040516104e89a99989796959493929190615544565b60405180910390f35b3480156104fd57600080fd5b506105186004803603810190610513919061445f565b613cc8565b005b60006009600061052984612c00565b60000151815260200190815260200160002090508060030160009054906101000a900473ffffffffffffffffffffffffffffffffffffffff1673ffffffffffffffffffffffffffffffffffffffff163373ffffffffffffffffffffffffffffffffffffffff16146105cf576040517f08c379a00000000000000000000000000000000000000000000000000000000081526004016105c690615371565b60405180910390fd5b6105da86888461110a565b60028160090160006101000a81548160ff02191690836003811115610628577f4e487b7100000000000000000000000000000000000000000000000000000000600052602160045260246000fd5b021790555060008773ffffffffffffffffffffffffffffffffffffffff1663627501b887873388886040518663ffffffff1660e01b81526004016106709594939291906155e0565b602060405180830381600087803b15801561068a57600080fd5b505af115801561069e573d6000803e3d6000fd5b505050506040513d601f19601f820116820180604052508101906106c2919061458b565b905082817f4c66969ad62b3cbc69059b4992a1cef97838145189000a4f9f7f955a4320f9938a8a8a8a8a6040516106fd95949392919061516c565b60405180910390a35050505050505050565b60026000541415610755576040517f08c379a000000000000000000000000000000000000000000000000000000000815260040161074c90615451565b60405180910390fd5b600260008190555060006009600083815260200190815260200160002090506000816001015490508160030160009054906101000a900473ffffffffffffffffffffffffffffffffffffffff1673ffffffffffffffffffffffffffffffffffffffff163373ffffffffffffffffffffffffffffffffffffffff161461080f576040517f08c379a000000000000000000000000000000000000000000000000000000000815260040161080690615471565b60405180910390fd5b60006003811115610849577f4e487b7100000000000000000000000000000000000000000000000000000000600052602160045260246000fd5b8260090160009054906101000a900460ff166003811115610893577f4e487b7100000000000000000000000000000000000000000000000000000000600052602160045260246000fd5b146108d3576040517f08c379a00000000000000000000000000000000000000000000000000000000081526004016108ca90615351565b60405180910390fd5b60018260090160006101000a81548160ff02191690836003811115610921577f4e487b7100000000000000000000000000000000000000000000000000000000600052602160045260246000fd5b02179055506109306005613e75565b816006015481847fb6a6e5a1d1cba81612d627d3d366515af9bc54786897c5bb629f44b2ca1949bc8733600660009054906101000a900473ffffffffffffffffffffffffffffffffffffffff16886005015489600701548a6008015460006040516109a19796959493929190614f29565b60405180910390a4505060016000819055505050565b600260005414156109fd576040517f08c379a00000000000000000000000000000000000000000000000000000000081526004016109f490615451565b60405180910390fd5b60026000819055506000610a1082612c00565b905060006003811115610a4c577f4e487b7100000000000000000000000000000000000000000000000000000000600052602160045260246000fd5b8161012001516003811115610a8a577f4e487b7100000000000000000000000000000000000000000000000000000000600052602160045260246000fd5b14610aca576040517f08c379a0000000000000000000000000000000000000000000000000000000008152600401610ac1906153d1565b60405180910390fd5b8060a00151341015610b11576040517f08c379a0000000000000000000000000000000000000000000000000000000008152600401610b08906153f1565b60405180910390fd5b610b1c83338461110a565b610b266005613e75565b806060015173ffffffffffffffffffffffffffffffffffffffff166108fc8260a001519081150290604051600060405180830381858888f19350505050158015610b74573d6000803e3d6000fd5b508060c001518282600001517fb6a6e5a1d1cba81612d627d3d366515af9bc54786897c5bb629f44b2ca1949bc863386606001518760a001518861010001518960e001516001604051610bcd979695949392919061502f565b60405180910390a45060016000819055505050565b60606000610bf06002613ed1565b610bfa6005613ed1565b610c046001613ed1565b610c0e919061578d565b610c1891906157e3565b9050600080828510610c2a5782610c2c565b845b905060008167ffffffffffffffff811115610c70577f4e487b7100000000000000000000000000000000000000000000000000000000600052604160045260246000fd5b604051908082528060200260200182016040528015610ca957816020015b610c96613ef5565b815260200190600190039081610c8e5790505b50905060005b610cb96001613ed1565b811015610fd15782841415610ccd57610fd1565b60006003811115610d07577f4e487b7100000000000000000000000000000000000000000000000000000000600052602160045260246000fd5b60096000600184610d18919061578d565b815260200190815260200160002060090160009054906101000a900460ff166003811115610d6f577f4e487b7100000000000000000000000000000000000000000000000000000000600052602160045260246000fd5b1415610fbe57600060096000600184610d88919061578d565b81526020019081526020016000206040518061014001604052908160008201548152602001600182015481526020016002820160009054906101000a900473ffffffffffffffffffffffffffffffffffffffff1673ffffffffffffffffffffffffffffffffffffffff1673ffffffffffffffffffffffffffffffffffffffff1681526020016003820160009054906101000a900473ffffffffffffffffffffffffffffffffffffffff1673ffffffffffffffffffffffffffffffffffffffff1673ffffffffffffffffffffffffffffffffffffffff1681526020016004820160009054906101000a900473ffffffffffffffffffffffffffffffffffffffff1673ffffffffffffffffffffffffffffffffffffffff1673ffffffffffffffffffffffffffffffffffffffff168152602001600582015481526020016006820154815260200160078201548152602001600882015481526020016009820160009054906101000a900460ff166003811115610f2b577f4e487b7100000000000000000000000000000000000000000000000000000000600052602160045260246000fd5b6003811115610f63577f4e487b7100000000000000000000000000000000000000000000000000000000600052602160045260246000fd5b81525050905080838681518110610fa3577f4e487b7100000000000000000000000000000000000000000000000000000000600052603260045260246000fd5b60200260200101819052508480610fb9906159c6565b955050505b8080610fc9906159c6565b915050610caf565b5080945050505050919050565b3373ffffffffffffffffffffffffffffffffffffffff16600660009054906101000a900473ffffffffffffffffffffffffffffffffffffffff1673ffffffffffffffffffffffffffffffffffffffff161461106e576040517f08c379a000000000000000000000000000000000000000000000000000000000815260040161106590615471565b60405180910390fd5b6000600660009054906101000a900473ffffffffffffffffffffffffffffffffffffffff1673ffffffffffffffffffffffffffffffffffffffff166108fc6007549081150290604051600060405180830381858888f193505050509050600060078190555080611107577f4e487b7100000000000000000000000000000000000000000000000000000000600052600160045260246000fd5b50565b60006009600061111984612c00565b60000151815260200190815260200160002090508060030160009054906101000a900473ffffffffffffffffffffffffffffffffffffffff1673ffffffffffffffffffffffffffffffffffffffff163373ffffffffffffffffffffffffffffffffffffffff1614806111b657503073ffffffffffffffffffffffffffffffffffffffff163373ffffffffffffffffffffffffffffffffffffffff16145b6111bf57600080fd5b8373ffffffffffffffffffffffffffffffffffffffff166323b872dd8260030160009054906101000a900473ffffffffffffffffffffffffffffffffffffffff1685856040518463ffffffff1660e01b815260040161122093929190614e6f565b600060405180830381600087803b15801561123a57600080fd5b505af115801561124e573d6000803e3d6000fd5b50505050600d60008260030160009054906101000a900473ffffffffffffffffffffffffffffffffffffffff1673ffffffffffffffffffffffffffffffffffffffff1673ffffffffffffffffffffffffffffffffffffffff16815260200190815260200160002060008154809291906112c690615939565b9190505550600d60008473ffffffffffffffffffffffffffffffffffffffff1673ffffffffffffffffffffffffffffffffffffffff168152602001908152602001600020600081548092919061131b906159c6565b919050555060018160090160006101000a81548160ff0219169083600381111561136e577f4e487b7100000000000000000000000000000000000000000000000000000000600052602160045260246000fd5b0217905550828160030160006101000a81548173ffffffffffffffffffffffffffffffffffffffff021916908373ffffffffffffffffffffffffffffffffffffffff16021790555050505050565b60606113c86004613ed1565b67ffffffffffffffff811115611407577f4e487b7100000000000000000000000000000000000000000000000000000000600052604160045260246000fd5b60405190808252806020026020018201604052801561144057816020015b61142d613fc2565b8152602001906001900390816114255790505b5090506000600190505b815181116116a657600b60008281526020019081526020016000206040518060e00160405290816000820154815260200160018201805461148a90615963565b80601f01602080910402602001604051908101604052809291908181526020018280546114b690615963565b80156115035780601f106114d857610100808354040283529160200191611503565b820191906000526020600020905b8154815290600101906020018083116114e657829003601f168201915b50505050508152602001600282015481526020016003820160009054906101000a900460ff166002811115611561577f4e487b7100000000000000000000000000000000000000000000000000000000600052602160045260246000fd5b6002811115611599577f4e487b7100000000000000000000000000000000000000000000000000000000600052602160045260246000fd5b81526020016004820180546115ad90615963565b80601f01602080910402602001604051908101604052809291908181526020018280546115d990615963565b80156116265780601f106115fb57610100808354040283529160200191611626565b820191906000526020600020905b81548152906001019060200180831161160957829003601f168201915b50505050508152602001600582015481526020016006820154815250508260018361165191906157e3565b81518110611688577f4e487b7100000000000000000000000000000000000000000000000000000000600052603260045260246000fd5b6020026020010181905250808061169e906159c6565b91505061144a565b5090565b606060006116b86001613ed1565b905060006116c66002613ed1565b6116d06005613ed1565b836116db919061578d565b6116e591906157e3565b90506000808286106116f757826116f9565b855b905060008167ffffffffffffffff81111561173d577f4e487b7100000000000000000000000000000000000000000000000000000000600052604160045260246000fd5b60405190808252806020026020018201604052801561177657816020015b611763613ef5565b81526020019060019003908161175b5790505b50905060008590505b6000811115611a81578284141561179557611a81565b600060038111156117cf577f4e487b7100000000000000000000000000000000000000000000000000000000600052602160045260246000fd5b6009600083815260200190815260200160002060090160009054906101000a900460ff16600381111561182b577f4e487b7100000000000000000000000000000000000000000000000000000000600052602160045260246000fd5b1415611a6e576000600960008381526020019081526020016000206040518061014001604052908160008201548152602001600182015481526020016002820160009054906101000a900473ffffffffffffffffffffffffffffffffffffffff1673ffffffffffffffffffffffffffffffffffffffff1673ffffffffffffffffffffffffffffffffffffffff1681526020016003820160009054906101000a900473ffffffffffffffffffffffffffffffffffffffff1673ffffffffffffffffffffffffffffffffffffffff1673ffffffffffffffffffffffffffffffffffffffff1681526020016004820160009054906101000a900473ffffffffffffffffffffffffffffffffffffffff1673ffffffffffffffffffffffffffffffffffffffff1673ffffffffffffffffffffffffffffffffffffffff168152602001600582015481526020016006820154815260200160078201548152602001600882015481526020016009820160009054906101000a900460ff1660038111156119db577f4e487b7100000000000000000000000000000000000000000000000000000000600052602160045260246000fd5b6003811115611a13577f4e487b7100000000000000000000000000000000000000000000000000000000600052602160045260246000fd5b81525050905080838681518110611a53577f4e487b7100000000000000000000000000000000000000000000000000000000600052603260045260246000fd5b60200260200101819052508480611a69906159c6565b955050505b8080611a7990615939565b91505061177f565b508095505050505050919050565b3373ffffffffffffffffffffffffffffffffffffffff16600660009054906101000a900473ffffffffffffffffffffffffffffffffffffffff1673ffffffffffffffffffffffffffffffffffffffff1614611b1f576040517f08c379a0000000000000000000000000000000000000000000000000000000008152600401611b1690615471565b60405180910390fd5b600082511415611b64576040517f08c379a0000000000000000000000000000000000000000000000000000000008152600401611b5b90615431565b60405180910390fd5b600081511415611b7357600080fd5b611b7d6004613edf565b6000611b896004613ed1565b90506040518060e0016040528082815260200185815260200142815260200160006002811115611be2577f4e487b7100000000000000000000000000000000000000000000000000000000600052602160045260246000fd5b8152602001848152602001600081526020016000815250600b6000838152602001908152602001600020600082015181600001556020820151816001019080519060200190611c32929190614037565b506040820151816002015560608201518160030160006101000a81548160ff02191690836002811115611c8e577f4e487b7100000000000000000000000000000000000000000000000000000000600052602160045260246000fd5b02179055506080820151816004019080519060200190611caf929190614037565b5060a0820151816005015560c0820151816006015590505081600c60008381526020019081526020016000209080519060200190611cee9291906140bd565b50807f4ad0e5615b1c242c0e644cb5b2255aa337a06268781317cdc14d09d1a51eb1678542600087600080604051611d2b9695949392919061526f565b60405180910390a250505050565b6060600080600d60003373ffffffffffffffffffffffffffffffffffffffff1673ffffffffffffffffffffffffffffffffffffffff168152602001908152602001600020541415611e0757600067ffffffffffffffff811115611dc5577f4e487b7100000000000000000000000000000000000000000000000000000000600052604160045260246000fd5b604051908082528060200260200182016040528015611dfe57816020015b611deb613ef5565b815260200190600190039081611de35790505b5091505061220c565b6000600d60003373ffffffffffffffffffffffffffffffffffffffff1673ffffffffffffffffffffffffffffffffffffffff168152602001908152602001600020548410611e9457600d60003373ffffffffffffffffffffffffffffffffffffffff1673ffffffffffffffffffffffffffffffffffffffff16815260200190815260200160002054611e96565b835b905060008167ffffffffffffffff811115611eda577f4e487b7100000000000000000000000000000000000000000000000000000000600052604160045260246000fd5b604051908082528060200260200182016040528015611f1357816020015b611f00613ef5565b815260200190600190039081611ef85790505b50905060005b611f236001613ed1565b8110156122045782841415611f3757612204565b3373ffffffffffffffffffffffffffffffffffffffff1660096000600184611f5f919061578d565b815260200190815260200160002060030160009054906101000a900473ffffffffffffffffffffffffffffffffffffffff1673ffffffffffffffffffffffffffffffffffffffff1614156121f15760096000600183611fbe919061578d565b81526020019081526020016000206040518061014001604052908160008201548152602001600182015481526020016002820160009054906101000a900473ffffffffffffffffffffffffffffffffffffffff1673ffffffffffffffffffffffffffffffffffffffff1673ffffffffffffffffffffffffffffffffffffffff1681526020016003820160009054906101000a900473ffffffffffffffffffffffffffffffffffffffff1673ffffffffffffffffffffffffffffffffffffffff1673ffffffffffffffffffffffffffffffffffffffff1681526020016004820160009054906101000a900473ffffffffffffffffffffffffffffffffffffffff1673ffffffffffffffffffffffffffffffffffffffff1673ffffffffffffffffffffffffffffffffffffffff168152602001600582015481526020016006820154815260200160078201548152602001600882015481526020016009820160009054906101000a900460ff166003811115612161577f4e487b7100000000000000000000000000000000000000000000000000000000600052602160045260246000fd5b6003811115612199577f4e487b7100000000000000000000000000000000000000000000000000000000600052602160045260246000fd5b815250508285815181106121d6577f4e487b7100000000000000000000000000000000000000000000000000000000600052603260045260246000fd5b60200260200101819052506001846121ee919061578d565b93505b80806121fc906159c6565b915050611f19565b508093505050505b919050565b3373ffffffffffffffffffffffffffffffffffffffff16600660009054906101000a900473ffffffffffffffffffffffffffffffffffffffff1673ffffffffffffffffffffffffffffffffffffffff16146122a1576040517f08c379a000000000000000000000000000000000000000000000000000000000815260040161229890615471565b60405180910390fd5b8060088190555050565b60006009600084815260200190815260200160002090506000816001015490508160030160009054906101000a900473ffffffffffffffffffffffffffffffffffffffff1673ffffffffffffffffffffffffffffffffffffffff163373ffffffffffffffffffffffffffffffffffffffff161461235d576040517f08c379a000000000000000000000000000000000000000000000000000000000815260040161235490615471565b60405180910390fd5b60006003811115612397577f4e487b7100000000000000000000000000000000000000000000000000000000600052602160045260246000fd5b8260090160009054906101000a900460ff1660038111156123e1577f4e487b7100000000000000000000000000000000000000000000000000000000600052602160045260246000fd5b1415612422576040517f08c379a0000000000000000000000000000000000000000000000000000000008152600401612419906153b1565b60405180910390fd5b600854341015612467576040517f08c379a000000000000000000000000000000000000000000000000000000000815260040161245e90615391565b60405180910390fd5b82826005018190555060008260090160006101000a81548160ff021916908360038111156124be577f4e487b7100000000000000000000000000000000000000000000000000000000600052602160045260246000fd5b0217905550600854600760008282546124d7919061578d565b925050819055506124e86005613edf565b816006015481857fb6a6e5a1d1cba81612d627d3d366515af9bc54786897c5bb629f44b2ca1949bc8833600660009054906101000a900473ffffffffffffffffffffffffffffffffffffffff168989600701548a6008015460006040516125559796959493929190614fac565b60405180910390a45050505050565b600660009054906101000a900473ffffffffffffffffffffffffffffffffffffffff1681565b600260005414156125d0576040517f08c379a00000000000000000000000000000000000000000000000000000000081526004016125c790615451565b60405180910390fd5b60026000819055506000600960008381526020019081526020016000206040518061014001604052908160008201548152602001600182015481526020016002820160009054906101000a900473ffffffffffffffffffffffffffffffffffffffff1673ffffffffffffffffffffffffffffffffffffffff1673ffffffffffffffffffffffffffffffffffffffff1681526020016003820160009054906101000a900473ffffffffffffffffffffffffffffffffffffffff1673ffffffffffffffffffffffffffffffffffffffff1673ffffffffffffffffffffffffffffffffffffffff1681526020016004820160009054906101000a900473ffffffffffffffffffffffffffffffffffffffff1673ffffffffffffffffffffffffffffffffffffffff1673ffffffffffffffffffffffffffffffffffffffff168152602001600582015481526020016006820154815260200160078201548152602001600882015481526020016009820160009054906101000a900460ff166003811115612782577f4e487b7100000000000000000000000000000000000000000000000000000000600052602160045260246000fd5b60038111156127ba577f4e487b7100000000000000000000000000000000000000000000000000000000600052602160045260246000fd5b81525050905060008160a001519050803410156127d657600080fd5b6000826020015190508473ffffffffffffffffffffffffffffffffffffffff166323b872dd3033846040518463ffffffff1660e01b815260040161281c93929190615135565b600060405180830381600087803b15801561283657600080fd5b505af115801561284a573d6000803e3d6000fd5b50505050600d60003373ffffffffffffffffffffffffffffffffffffffff1673ffffffffffffffffffffffffffffffffffffffff168152602001908152602001600020600081548092919061289e906159c6565b9190505550600183610120019060038111156128e3577f4e487b7100000000000000000000000000000000000000000000000000000000600052602160045260246000fd5b9081600381111561291d577f4e487b7100000000000000000000000000000000000000000000000000000000600052602160045260246000fd5b8152505033836060019073ffffffffffffffffffffffffffffffffffffffff16908173ffffffffffffffffffffffffffffffffffffffff16815250506129636002613edf565b8260096000868152602001908152602001600020600082015181600001556020820151816001015560408201518160020160006101000a81548173ffffffffffffffffffffffffffffffffffffffff021916908373ffffffffffffffffffffffffffffffffffffffff16021790555060608201518160030160006101000a81548173ffffffffffffffffffffffffffffffffffffffff021916908373ffffffffffffffffffffffffffffffffffffffff16021790555060808201518160040160006101000a81548173ffffffffffffffffffffffffffffffffffffffff021916908373ffffffffffffffffffffffffffffffffffffffff16021790555060a0820151816005015560c0820151816006015560e0820151816007015561010082015181600801556101208201518160090160006101000a81548160ff02191690836003811115612adb577f4e487b7100000000000000000000000000000000000000000000000000000000600052602160045260246000fd5b02179055509050508160076000828254612af5919061578d565b92505081905550600960008581526020019081526020016000206006015481857fb6a6e5a1d1cba81612d627d3d366515af9bc54786897c5bb629f44b2ca1949bc88600960008a815260200190815260200160002060030160009054906101000a900473ffffffffffffffffffffffffffffffffffffffff16600960008b815260200190815260200160002060040160009054906101000a900473ffffffffffffffffffffffffffffffffffffffff1688600960008d815260200190815260200160002060070154600960008e8152602001908152602001600020600801546001604051612be99796959493929190614ea6565b60405180910390a450505060016000819055505050565b612c08613ef5565b60005b612c156001613ed1565b811015612e51578260096000600184612c2e919061578d565b8152602001908152602001600020600101541415612e3e5760096000600183612c57919061578d565b81526020019081526020016000206040518061014001604052908160008201548152602001600182015481526020016002820160009054906101000a900473ffffffffffffffffffffffffffffffffffffffff1673ffffffffffffffffffffffffffffffffffffffff1673ffffffffffffffffffffffffffffffffffffffff1681526020016003820160009054906101000a900473ffffffffffffffffffffffffffffffffffffffff1673ffffffffffffffffffffffffffffffffffffffff1673ffffffffffffffffffffffffffffffffffffffff1681526020016004820160009054906101000a900473ffffffffffffffffffffffffffffffffffffffff1673ffffffffffffffffffffffffffffffffffffffff1673ffffffffffffffffffffffffffffffffffffffff168152602001600582015481526020016006820154815260200160078201548152602001600882015481526020016009820160009054906101000a900460ff166003811115612dfa577f4e487b7100000000000000000000000000000000000000000000000000000000600052602160045260246000fd5b6003811115612e32577f4e487b7100000000000000000000000000000000000000000000000000000000600052602160045260246000fd5b81525050915050612e94565b8080612e49906159c6565b915050612c0b565b506000612e93576040517f08c379a0000000000000000000000000000000000000000000000000000000008152600401612e8a90615411565b60405180910390fd5b5b919050565b60085481565b600a602052806000526040600020600091509050806000015490806001018054612ec890615963565b80601f0160208091040260200160405190810160405280929190818152602001828054612ef490615963565b8015612f415780601f10612f1657610100808354040283529160200191612f41565b820191906000526020600020905b815481529060010190602001808311612f2457829003601f168201915b505050505090806002018054612f5690615963565b80601f0160208091040260200160405190810160405280929190818152602001828054612f8290615963565b8015612fcf5780601f10612fa457610100808354040283529160200191612fcf565b820191906000526020600020905b815481529060010190602001808311612fb257829003601f168201915b5050505050905083565b6060612fe56003613ed1565b67ffffffffffffffff811115613024577f4e487b7100000000000000000000000000000000000000000000000000000000600052604160045260246000fd5b60405190808252806020026020018201604052801561305d57816020015b61304a61410a565b8152602001906001900390816130425790505b5090506000600190505b8151811161321e57600a6000828152602001908152602001600020604051806060016040529081600082015481526020016001820180546130a790615963565b80601f01602080910402602001604051908101604052809291908181526020018280546130d390615963565b80156131205780601f106130f557610100808354040283529160200191613120565b820191906000526020600020905b81548152906001019060200180831161310357829003601f168201915b5050505050815260200160028201805461313990615963565b80601f016020809104026020016040519081016040528092919081815260200182805461316590615963565b80156131b25780601f10613187576101008083540402835291602001916131b2565b820191906000526020600020905b81548152906001019060200180831161319557829003601f168201915b505050505081525050826001836131c991906157e3565b81518110613200577f4e487b7100000000000000000000000000000000000000000000000000000000600052603260045260246000fd5b60200260200101819052508080613216906159c6565b915050613067565b5090565b3373ffffffffffffffffffffffffffffffffffffffff16600660009054906101000a900473ffffffffffffffffffffffffffffffffffffffff1673ffffffffffffffffffffffffffffffffffffffff16146132b2576040517f08c379a00000000000000000000000000000000000000000000000000000000081526004016132a990615471565b60405180910390fd5b600260005414156132f8576040517f08c379a00000000000000000000000000000000000000000000000000000000081526004016132ef90615451565b60405180910390fd5b60026000819055506000811161330d57600080fd5b6133176001613ed1565b841015613359576040517f08c379a000000000000000000000000000000000000000000000000000000000815260040161335090615311565b60405180910390fd5b6133636004613ed1565b8311156133a5576040517f08c379a000000000000000000000000000000000000000000000000000000000815260040161339c906152f1565b60405180910390fd5b6133af6001613edf565b60006133bb6001613ed1565b90506000600b600086815260200190815260200160002090506040518061014001604052808381526020018781526020018873ffffffffffffffffffffffffffffffffffffffff168152602001600073ffffffffffffffffffffffffffffffffffffffff1681526020013373ffffffffffffffffffffffffffffffffffffffff1681526020018481526020018681526020016001836005015461345e919061578d565b8152602001858152602001600060038111156134a3577f4e487b7100000000000000000000000000000000000000000000000000000000600052602160045260246000fd5b81525060096000848152602001908152602001600020600082015181600001556020820151816001015560408201518160020160006101000a81548173ffffffffffffffffffffffffffffffffffffffff021916908373ffffffffffffffffffffffffffffffffffffffff16021790555060608201518160030160006101000a81548173ffffffffffffffffffffffffffffffffffffffff021916908373ffffffffffffffffffffffffffffffffffffffff16021790555060808201518160040160006101000a81548173ffffffffffffffffffffffffffffffffffffffff021916908373ffffffffffffffffffffffffffffffffffffffff16021790555060a0820151816005015560c0820151816006015560e0820151816007015561010082015181600801556101208201518160090160006101000a81548160ff0219169083600381111561361d577f4e487b7100000000000000000000000000000000000000000000000000000000600052602160045260246000fd5b0217905550905050600181600501600082825461363a919061578d565b925050819055508673ffffffffffffffffffffffffffffffffffffffff166323b872dd3330896040518463ffffffff1660e01b815260040161367e93929190615135565b600060405180830381600087803b15801561369857600080fd5b505af11580156136ac573d6000803e3d6000fd5b505050508486837fb6a6e5a1d1cba81612d627d3d366515af9bc54786897c5bb629f44b2ca1949bc8a600033898b896005015460006040516136f497969594939291906150b2565b60405180910390a4505060016000819055505050505050565b613715613fc2565b6060826137226004613ed1565b1015613763576040517f08c379a000000000000000000000000000000000000000000000000000000000815260040161375a90615411565b60405180910390fd5b600b60008481526020019081526020016000206040518060e00160405290816000820154815260200160018201805461379b90615963565b80601f01602080910402602001604051908101604052809291908181526020018280546137c790615963565b80156138145780601f106137e957610100808354040283529160200191613814565b820191906000526020600020905b8154815290600101906020018083116137f757829003601f168201915b50505050508152602001600282015481526020016003820160009054906101000a900460ff166002811115613872577f4e487b7100000000000000000000000000000000000000000000000000000000600052602160045260246000fd5b60028111156138aa577f4e487b7100000000000000000000000000000000000000000000000000000000600052602160045260246000fd5b81526020016004820180546138be90615963565b80601f01602080910402602001604051908101604052809291908181526020018280546138ea90615963565b80156139375780601f1061390c57610100808354040283529160200191613937565b820191906000526020600020905b81548152906001019060200180831161391a57829003601f168201915b50505050508152602001600582015481526020016006820154815250509150600c60008481526020019081526020016000208054905067ffffffffffffffff8111156139ac577f4e487b7100000000000000000000000000000000000000000000000000000000600052604160045260246000fd5b6040519080825280602002602001820160405280156139e557816020015b6139d261410a565b8152602001906001900390816139ca5790505b50905060005b600c600085815260200190815260200160002080549050811015613c0157600a6000600c60008781526020019081526020016000208381548110613a58577f4e487b7100000000000000000000000000000000000000000000000000000000600052603260045260246000fd5b9060005260206000200154815260200190815260200160002060405180606001604052908160008201548152602001600182018054613a9690615963565b80601f0160208091040260200160405190810160405280929190818152602001828054613ac290615963565b8015613b0f5780601f10613ae457610100808354040283529160200191613b0f565b820191906000526020600020905b815481529060010190602001808311613af257829003601f168201915b50505050508152602001600282018054613b2890615963565b80601f0160208091040260200160405190810160405280929190818152602001828054613b5490615963565b8015613ba15780601f10613b7657610100808354040283529160200191613ba1565b820191906000526020600020905b815481529060010190602001808311613b8457829003601f168201915b505050505081525050828281518110613be3577f4e487b7100000000000000000000000000000000000000000000000000000000600052603260045260246000fd5b60200260200101819052508080613bf9906159c6565b9150506139eb565b50915091565b60096020528060005260406000206000915090508060000154908060010154908060020160009054906101000a900473ffffffffffffffffffffffffffffffffffffffff16908060030160009054906101000a900473ffffffffffffffffffffffffffffffffffffffff16908060040160009054906101000a900473ffffffffffffffffffffffffffffffffffffffff16908060050154908060060154908060070154908060080154908060090160009054906101000a900460ff1690508a565b3373ffffffffffffffffffffffffffffffffffffffff16600660009054906101000a900473ffffffffffffffffffffffffffffffffffffffff1673ffffffffffffffffffffffffffffffffffffffff1614613d58576040517f08c379a0000000000000000000000000000000000000000000000000000000008152600401613d4f90615471565b60405180910390fd5b600081511415613d9d576040517f08c379a0000000000000000000000000000000000000000000000000000000008152600401613d9490615431565b60405180910390fd5b613da76003613edf565b6040518060600160405280613dbc6003613ed1565b815260200183815260200182815250600a6000613dd96003613ed1565b8152602001908152602001600020600082015181600001556020820151816001019080519060200190613e0d929190614037565b506040820151816002019080519060200190613e2a929190614037565b50905050613e386003613ed1565b7f3a1a6624730a36ec5bce3c780f724d278f1b8bb76d4cd5f34abcaf9087aaab1f8383604051613e69929190615225565b60405180910390a25050565b60008160000154905060008111613ec1576040517f08c379a0000000000000000000000000000000000000000000000000000000008152600401613eb890615331565b60405180910390fd5b6001810382600001819055505050565b600081600001549050919050565b6001816000016000828254019250508190555050565b6040518061014001604052806000815260200160008152602001600073ffffffffffffffffffffffffffffffffffffffff168152602001600073ffffffffffffffffffffffffffffffffffffffff168152602001600073ffffffffffffffffffffffffffffffffffffffff1681526020016000815260200160008152602001600081526020016000815260200160006003811115613fbc577f4e487b7100000000000000000000000000000000000000000000000000000000600052602160045260246000fd5b81525090565b6040518060e001604052806000815260200160608152602001600081526020016000600281111561401c577f4e487b7100000000000000000000000000000000000000000000000000000000600052602160045260246000fd5b81526020016060815260200160008152602001600081525090565b82805461404390615963565b90600052602060002090601f01602090048101928261406557600085556140ac565b82601f1061407e57805160ff19168380011785556140ac565b828001600101855582156140ac579182015b828111156140ab578251825591602001919060010190614090565b5b5090506140b9919061412b565b5090565b8280548282559060005260206000209081019282156140f9579160200282015b828111156140f85782518255916020019190600101906140dd565b5b509050614106919061412b565b5090565b60405180606001604052806000815260200160608152602001606081525090565b5b8082111561414457600081600090555060010161412c565b5090565b600061415b61415684615658565b615633565b9050808382526020820190508285602086028201111561417a57600080fd5b60005b858110156141aa5781614190888261425b565b84526020840193506020830192505060018101905061417d565b5050509392505050565b60006141c76141c284615684565b615633565b9050828152602081018484840111156141df57600080fd5b6141ea8482856158f7565b509392505050565b60008135905061420181615e38565b92915050565b600082601f83011261421857600080fd5b8135614228848260208601614148565b91505092915050565b600082601f83011261424257600080fd5b81356142528482602086016141b4565b91505092915050565b60008135905061426a81615e4f565b92915050565b60008151905061427f81615e4f565b92915050565b60008060006060848603121561429a57600080fd5b60006142a8868287016141f2565b93505060206142b9868287016141f2565b92505060406142ca8682870161425b565b9150509250925092565b60008060008060008060c087890312156142ed57600080fd5b60006142fb89828a016141f2565b965050602061430c89828a016141f2565b955050604061431d89828a0161425b565b945050606061432e89828a0161425b565b935050608061433f89828a0161425b565b92505060a061435089828a0161425b565b9150509295509295509295565b6000806040838503121561437057600080fd5b600061437e858286016141f2565b925050602061438f8582860161425b565b9150509250929050565b6000806000606084860312156143ae57600080fd5b60006143bc868287016141f2565b93505060206143cd8682870161425b565b92505060406143de8682870161425b565b9150509250925092565b600080600080600060a0868803121561440057600080fd5b600061440e888289016141f2565b955050602061441f8882890161425b565b94505060406144308882890161425b565b93505060606144418882890161425b565b92505060806144528882890161425b565b9150509295509295909350565b6000806040838503121561447257600080fd5b600083013567ffffffffffffffff81111561448c57600080fd5b61449885828601614231565b925050602083013567ffffffffffffffff8111156144b557600080fd5b6144c185828601614231565b9150509250929050565b6000806000606084860312156144e057600080fd5b600084013567ffffffffffffffff8111156144fa57600080fd5b61450686828701614231565b935050602084013567ffffffffffffffff81111561452357600080fd5b61452f86828701614231565b925050604084013567ffffffffffffffff81111561454c57600080fd5b61455886828701614207565b9150509250925092565b60006020828403121561457457600080fd5b60006145828482850161425b565b91505092915050565b60006020828403121561459d57600080fd5b60006145ab84828501614270565b91505092915050565b60006145c08383614b01565b905092915050565b60006145d48383614c47565b905092915050565b60006145e88383614c9e565b6101408301905092915050565b6145fe8161588b565b82525050565b61460d81615829565b82525050565b61461c81615829565b82525050565b61462b81615817565b82525050565b61463a81615817565b82525050565b600061464b826156e5565b6146558185615738565b935083602082028501614667856156b5565b8060005b858110156146a3578484038952815161468485826145b4565b945061468f83615711565b925060208a0199505060018101905061466b565b50829750879550505050505092915050565b60006146c0826156f0565b6146ca8185615749565b9350836020820285016146dc856156c5565b8060005b8581101561471857848403895281516146f985826145c8565b94506147048361571e565b925060208a019950506001810190506146e0565b50829750879550505050505092915050565b6000614735826156fb565b61473f818561575a565b935061474a836156d5565b8060005b8381101561477b57815161476288826145dc565b975061476d8361572b565b92505060018101905061474e565b5085935050505092915050565b6147918161589d565b82525050565b6147a08161589d565b82525050565b6147af816158af565b82525050565b6147be816158af565b82525050565b6147cd816158c1565b82525050565b60006147de82615706565b6147e8818561576b565b93506147f8818560208601615906565b61480181615acb565b840191505092915050565b600061481782615706565b614821818561577c565b9350614831818560208601615906565b61483a81615acb565b840191505092915050565b6000614852600f8361577c565b915061485d82615adc565b602082019050919050565b6000614875600f8361577c565b915061488082615b05565b602082019050919050565b6000614898600f8361577c565b91506148a382615b2e565b602082019050919050565b60006148bb601b8361577c565b91506148c682615b57565b602082019050919050565b60006148de60108361577c565b91506148e982615b80565b602082019050919050565b600061490160098361577c565b915061490c82615ba9565b602082019050919050565b6000614924600d8361577c565b915061492f82615bd2565b602082019050919050565b6000614947600e8361577c565b915061495282615bfb565b602082019050919050565b600061496a600d8361577c565b915061497582615c24565b602082019050919050565b600061498d60148361577c565b915061499882615c4d565b602082019050919050565b60006149b060108361577c565b91506149bb82615c76565b602082019050919050565b60006149d3600e8361577c565b91506149de82615c9f565b602082019050919050565b60006149f660108361577c565b9150614a0182615cc8565b602082019050919050565b6000614a1960118361577c565b9150614a2482615cf1565b602082019050919050565b6000614a3c600d8361577c565b9150614a4782615d1a565b602082019050919050565b6000614a5f600b8361577c565b9150614a6a82615d43565b602082019050919050565b6000614a82600e8361577c565b9150614a8d82615d6c565b602082019050919050565b6000614aa5601f8361577c565b9150614ab082615d95565b602082019050919050565b6000614ac860098361577c565b9150614ad382615dbe565b602082019050919050565b6000614aeb600d8361577c565b9150614af682615de7565b602082019050919050565b600060e083016000830151614b196000860182614e36565b5060208301518482036020860152614b3182826147d3565b9150506040830151614b466040860182614e36565b506060830151614b596060860182614788565b5060808301518482036080860152614b7182826147d3565b91505060a0830151614b8660a0860182614e36565b5060c0830151614b9960c0860182614e36565b508091505092915050565b600060e083016000830151614bbc6000860182614e36565b5060208301518482036020860152614bd482826147d3565b9150506040830151614be96040860182614e36565b506060830151614bfc6060860182614788565b5060808301518482036080860152614c1482826147d3565b91505060a0830151614c2960a0860182614e36565b5060c0830151614c3c60c0860182614e36565b508091505092915050565b6000606083016000830151614c5f6000860182614e36565b5060208301518482036020860152614c7782826147d3565b91505060408301518482036040860152614c9182826147d3565b9150508091505092915050565b61014082016000820151614cb56000850182614e36565b506020820151614cc86020850182614e36565b506040820151614cdb6040850182614622565b506060820151614cee6060850182614604565b506080820151614d016080850182614604565b5060a0820151614d1460a0850182614e36565b5060c0820151614d2760c0850182614e36565b5060e0820151614d3a60e0850182614e36565b50610100820151614d4f610100850182614e36565b50610120820151614d646101208501826147a6565b50505050565b61014082016000820151614d816000850182614e36565b506020820151614d946020850182614e36565b506040820151614da76040850182614622565b506060820151614dba6060850182614604565b506080820151614dcd6080850182614604565b5060a0820151614de060a0850182614e36565b5060c0820151614df360c0850182614e36565b5060e0820151614e0660e0850182614e36565b50610100820151614e1b610100850182614e36565b50610120820151614e306101208501826147a6565b50505050565b614e3f81615881565b82525050565b614e4e81615881565b82525050565b6000602082019050614e696000830184614613565b92915050565b6000606082019050614e8460008301866145f5565b614e916020830185614631565b614e9e6040830184614e45565b949350505050565b600061010082019050614ebc600083018a614631565b614ec960208301896145f5565b614ed660408301886145f5565b614ee36060830187614e45565b614ef06080830186614e45565b614efd60a0830185614e45565b614f0a60c08301846147b5565b81810360e0830152614f1b81614980565b905098975050505050505050565b600061010082019050614f3f600083018a614631565b614f4c6020830189614631565b614f5960408301886145f5565b614f666060830187614e45565b614f736080830186614e45565b614f8060a0830185614e45565b614f8d60c08301846147b5565b81810360e0830152614f9e81614845565b905098975050505050505050565b600061010082019050614fc2600083018a614631565b614fcf6020830189614631565b614fdc60408301886145f5565b614fe96060830187614e45565b614ff66080830186614e45565b61500360a0830185614e45565b61501060c08301846147b5565b81810360e083015261502181614917565b905098975050505050505050565b600061010082019050615045600083018a614631565b6150526020830189614631565b61505f60408301886145f5565b61506c6060830187614e45565b6150796080830186614e45565b61508660a0830185614e45565b61509360c08301846147b5565b81810360e08301526150a481614ade565b905098975050505050505050565b6000610100820190506150c8600083018a614631565b6150d56020830189614631565b6150e26040830188614631565b6150ef6060830187614e45565b6150fc6080830186614e45565b61510960a0830185614e45565b61511660c08301846147b5565b81810360e0830152615127816149a3565b905098975050505050505050565b600060608201905061514a6000830186614631565b6151576020830185614631565b6151646040830184614e45565b949350505050565b600060a0820190506151816000830188614631565b61518e6020830187614631565b61519b6040830186614e45565b6151a86060830185614e45565b6151b56080830184614e45565b9695505050505050565b600060208201905081810360008301526151d98184614640565b905092915050565b600060208201905081810360008301526151fb81846146b5565b905092915050565b6000602082019050818103600083015261521d818461472a565b905092915050565b6000606082019050818103600083015261523f818561480c565b90508181036020830152615253818461480c565b9050818103604083015261526681614a75565b90509392505050565b600060e0820190508181036000830152615289818961480c565b90506152986020830188614e45565b6152a56040830187614797565b81810360608301526152b7818661480c565b90506152c660808301856147c4565b6152d360a08301846147c4565b81810360c08301526152e48161495d565b9050979650505050505050565b6000602082019050818103600083015261530a81614868565b9050919050565b6000602082019050818103600083015261532a8161488b565b9050919050565b6000602082019050818103600083015261534a816148ae565b9050919050565b6000602082019050818103600083015261536a816148d1565b9050919050565b6000602082019050818103600083015261538a816148f4565b9050919050565b600060208201905081810360008301526153aa8161493a565b9050919050565b600060208201905081810360008301526153ca816149c6565b9050919050565b600060208201905081810360008301526153ea816149e9565b9050919050565b6000602082019050818103600083015261540a81614a0c565b9050919050565b6000602082019050818103600083015261542a81614a2f565b9050919050565b6000602082019050818103600083015261544a81614a52565b9050919050565b6000602082019050818103600083015261546a81614a98565b9050919050565b6000602082019050818103600083015261548a81614abb565b9050919050565b600060408201905081810360008301526154ab8185614ba4565b905081810360208301526154bf81846146b5565b90509392505050565b6000610140820190506154de6000830184614d6a565b92915050565b60006020820190506154f96000830184614e45565b92915050565b60006060820190506155146000830186614e45565b8181036020830152615526818561480c565b9050818103604083015261553a818461480c565b9050949350505050565b60006101408201905061555a600083018d614e45565b615567602083018c614e45565b615574604083018b614631565b615581606083018a614613565b61558e6080830189614613565b61559b60a0830188614e45565b6155a860c0830187614e45565b6155b560e0830186614e45565b6155c3610100830185614e45565b6155d16101208301846147b5565b9b9a5050505050505050505050565b600060a0820190506155f56000830188614e45565b6156026020830187614e45565b61560f6040830186614631565b61561c6060830185614e45565b6156296080830184614e45565b9695505050505050565b600061563d61564e565b90506156498282615995565b919050565b6000604051905090565b600067ffffffffffffffff82111561567357615672615a9c565b5b602082029050602081019050919050565b600067ffffffffffffffff82111561569f5761569e615a9c565b5b6156a882615acb565b9050602081019050919050565b6000819050602082019050919050565b6000819050602082019050919050565b6000819050602082019050919050565b600081519050919050565b600081519050919050565b600081519050919050565b600081519050919050565b6000602082019050919050565b6000602082019050919050565b6000602082019050919050565b600082825260208201905092915050565b600082825260208201905092915050565b600082825260208201905092915050565b600082825260208201905092915050565b600082825260208201905092915050565b600061579882615881565b91506157a383615881565b9250827fffffffffffffffffffffffffffffffffffffffffffffffffffffffffffffffff038211156157d8576157d7615a0f565b5b828201905092915050565b60006157ee82615881565b91506157f983615881565b92508282101561580c5761580b615a0f565b5b828203905092915050565b600061582282615861565b9050919050565b600061583482615861565b9050919050565b600081905061584982615e10565b919050565b600081905061585c82615e24565b919050565b600073ffffffffffffffffffffffffffffffffffffffff82169050919050565b6000819050919050565b6000615896826158d3565b9050919050565b60006158a88261583b565b9050919050565b60006158ba8261584e565b9050919050565b60006158cc82615881565b9050919050565b60006158de826158e5565b9050919050565b60006158f082615861565b9050919050565b82818337600083830152505050565b60005b83811015615924578082015181840152602081019050615909565b83811115615933576000848401525b50505050565b600061594482615881565b9150600082141561595857615957615a0f565b5b600182039050919050565b6000600282049050600182168061597b57607f821691505b6020821081141561598f5761598e615a6d565b5b50919050565b61599e82615acb565b810181811067ffffffffffffffff821117156159bd576159bc615a9c565b5b80604052505050565b60006159d182615881565b91507fffffffffffffffffffffffffffffffffffffffffffffffffffffffffffffffff821415615a0457615a03615a0f565b5b600182019050919050565b7f4e487b7100000000000000000000000000000000000000000000000000000000600052601160045260246000fd5b7f4e487b7100000000000000000000000000000000000000000000000000000000600052602160045260246000fd5b7f4e487b7100000000000000000000000000000000000000000000000000000000600052602260045260246000fd5b7f4e487b7100000000000000000000000000000000000000000000000000000000600052604160045260246000fd5b6000601f19601f8301169050919050565b7f756e4c697374204d757369634e46540000000000000000000000000000000000600082015250565b7f496e76616c696420416c62756d49640000000000000000000000000000000000600082015250565b7f696e76616c696420546f6b656e49640000000000000000000000000000000000600082015250565b7f436f756e7465723a2064656372656d656e74206f766572666c6f770000000000600082015250565b7f616c726561647920756e4c697374656400000000000000000000000000000000600082015250565b7f4e6f74204f776e65720000000000000000000000000000000000000000000000600082015250565b7f4c697374204d757369634e465400000000000000000000000000000000000000600082015250565b7f496e737566666963656e74204c50000000000000000000000000000000000000600082015250565b7f4372656174656420416c62756d00000000000000000000000000000000000000600082015250565b7f5472616e73666572726564204d757369634e4654000000000000000000000000600082015250565b7f43726561746564204d757369634e465400000000000000000000000000000000600082015250565b7f616c7265616479204c6973746564000000000000000000000000000000000000600082015250565b7f4974656d73206e6f74204c697374656400000000000000000000000000000000600082015250565b7f496e737566666963656e742066756e6473000000000000000000000000000000600082015250565b7f496e76616c696420546f6b656e00000000000000000000000000000000000000600082015250565b7f496e76616c696420555249000000000000000000000000000000000000000000600082015250565b7f4172746973742043726561746564000000000000000000000000000000000000600082015250565b7f5265656e7472616e637947756172643a207265656e7472616e742063616c6c00600082015250565b7f6e6f74206f776e65720000000000000000000000000000000000000000000000600082015250565b7f536f6c64204d757369634e465400000000000000000000000000000000000000600082015250565b60038110615e2157615e20615a3e565b5b50565b60048110615e3557615e34615a3e565b5b50565b615e4181615817565b8114615e4c57600080fd5b50565b615e5881615881565b8114615e6357600080fd5b5056fea264697066735822122019a47f9bee16168ad14891134bf4184f728168298da183e231a2fc1ea593660e64736f6c63430008040033",
  "linkReferences": {},
  "deployedLinkReferences": {}
}