{
  "_format": "hh-sol-artifact-1",
  "contractName": "Auction",
  "sourceName": "contracts/bid.sol",
  "abi": [
    {
      "inputs": [
        {
          "internalType": "uint256",
          "name": "startDate",
          "type": "uint256"
        },
        {
          "internalType": "uint256",
          "name": "endDate",
          "type": "uint256"
        }
      ],
      "stateMutability": "nonpayable",
      "type": "constructor"
    },
    {
      "inputs": [],
      "name": "seller",
      "outputs": [
        {
          "internalType": "address payable",
          "name": "",
          "type": "address"
        }
      ],
      "stateMutability": "view",
      "type": "function"
    }
  ],
  "bytecode": "0x608060405234801561001057600080fd5b506040516101b03803806101b08339818101604052810190610032919061004e565b50506100ab565b60008151905061004881610094565b92915050565b6000806040838503121561006157600080fd5b600061006f85828601610039565b925050602061008085828601610039565b9150509250929050565b6000819050919050565b61009d8161008a565b81146100a857600080fd5b50565b60f7806100b96000396000f3fe6080604052348015600f57600080fd5b506004361060285760003560e01c806308551a5314602d575b600080fd5b60336047565b604051603e91906078565b60405180910390f35b60008054906101000a900473ffffffffffffffffffffffffffffffffffffffff1681565b6072816091565b82525050565b6000602082019050608b6000830184606b565b92915050565b6000609a8260a1565b9050919050565b600073ffffffffffffffffffffffffffffffffffffffff8216905091905056fea2646970667358221220e372bab3490dc5072e9fe1d8ddc977e5bd7dced941ab5b2885981b5252ac34fb64736f6c63430008040033",
  "linkReferences": {},
  "deployedLinkReferences": {}
}